:20000000003A012041EB010039FB021039FB021039FB021039FB021039FB021039FB0210B4
:1C00200039FB021039FB021039FB021039FB021039FB021039FB021011FB021002
:20003C002DE9F04F0446B74EB748DFF8E082A5780368317900278346ADF15C0D28462728E2
:20005C0011DC272800F0DD830C281DD9203800F01C84401E00F01584401E00F00E84001F00
:20007C0000F0F483DBE2DFF8E892283800F09E82401E00F07082DFF8D4A2C01F232812D9DD
:20009C009C3800F0CE82CAE2DFE810F0DB04CC04B6049C047A04640460044A043504C90218
:2000BC00250421040304DFE810F088036C0351033503260218030502CD01BA02BA02BA0236
:2000DC00BA02BA02BA02B50185016C01BA02330109010F030303F602E300C300F202EE0293
:2000FC00EA02E102AF00D1026D00CE0256003600240014F8031F8DF8337031F07F0006D0DA
:20011C0011F07F0F0CBF381C0120C149087053210DF1330392E106F10F033220394601225A
:20013C0024F0B4FF06F1100333203946012224F0ADFFC348F17B0078012905D04FF400618B
:20015C001EF00AF900F080BC4FF40061642225F024FB00F079BC8DF8347069B9E41C204612
:20017C0025F0D8F9A41C0546204625F0D3F9A11C2A4623F0BEF900E012208DF834005121F7
:20019C000DAB5BE1E01C25F0C5F9E51C044615F8028FADF80840307D8DF80A8004281BD1D6
:2001BC004FF6FF70A04217D0C11EA14214D0801EA04211D002208DF80C00ADF80E4003A84E
:2001DC001BF082F9012818BF01250CD1BDF80E00ADF80800012000E038468DF80B0002A851
:2001FC001CF086FB05464FF6FC70A04204DC012086F8280086F8298020F02CFF8DF8355065
:20021C004F210DF1350319E1E67820798DF837002EB952200DF1370123F000FB04E052207C
:20023C000DF1370120F076FF4D210DF1370305E1181C14F8035F8DF8397014D03E460179A9
:20025C008D420CD1002E04BF0468CBF8004002D001683160046821F055FF204601E0064646
:20027C0000680028EBD117F08FFE0DF1390323E0E01C10F8014B25F04DF90146DBF8000080
:20029C00224650B13E4603799A4202D1C388994205D0064600680028F5D1012008E006B9C5
:2002BC005E460168316021F02DFF17F06DFE38468DF83A000DF13A034721BFE039460DF1D9
:2002DC002A00062207911BF089F8E01C07A923F0EFFF8DF82A00079870B101888DF82B1027
:2002FC0046888DF82D6009128DF82C1031128DF82E1000798DF82F00432106220DF12A033C
:20031C0076E3C046404200207C4A0020A8420020E01C25F0FFF8E51CAD1C2C460AAA214671
:20033C0022F01EFF083528BBBDF8280008A922F02DFF089870B908A822F01CF820B9BDF859
:20035C0028000899088005E0112014E0C45D0020824000202046294618F0D8FB204609A93B
:20037C0023F0A6FF10B90998012101711CF09CFD384600E001208DF83E0042210DF13E0322
:20039C005CE064788DF83F7049B1012905D002291CBF01208DF83F0004D1022000E0042016
:2003BC000DF0DCFE24F01F04202C40F04D830DF13F0342E0204690F80190C01C25F0AAF853
:2003DC0051460A7841468E6856B13C4633799A4202D1F388984205D034463668002EF5D151
:2003FC0001200BE024B9346804B93C468C6001E030682060304621F085FE384629F01F096F
:20041C008DF84000B9F1200F40F01E8310AB14E0D440002020464478C01C25F07BF80146A1
:20043C00504600781FF064F824F01F048DF84100202C40F009830DF1410329460122D7E295
:20045C0048400020E41C204625F064F8A41CADF8080014F8010B04218DF81000204624F048
:20047C0043F80646201D10F801AB10F8018B25F051F8044631465246434602A800941CF0CA
:20049C005FF98DF842009DF810000F280FD102204B468DF81000188831465246ADF80800C1
:2004BC00434602A800941CF04BF98DF842000DF142039BE220782646042806F1030614BF7F
:2004DC0016F8010B02208DF81000304625F022F8DD4CADF80800B01C012610F8011B267007
:2004FC00027802A81EF0A8F88DF843000DF14303277032467BE20220E41C8DF81000204679
:20051C0025F008F8A41C214614F8086FADF808004446606824F0D8FD6168C6F3400906F057
:20053C000106B9F1010F0F7204D16268107A40F040001072012E03D1087A40F08000087293
:20055C00404602A9342209231EF0D2F80DF145038DF8450071E70226E41C8DF81060204609
:20057C0024F0D8FFA41CADF80800204624F0D2FF14F8022F804602A84146144624F042F9DF
:20059C008DF84D009DF810000F280CD1484600888DF8106041462246ADF8080002A824F04F
:2005BC0031F98DF84D000DF14D031FE20226E41C8DF81060204624F0ADFFA41CADF8080024
:2005DC0014F8010B8DF84F00204624F0A3FFA41C14F801AB804602A90DF14F0042460094A5
:2005FC005346019720F000FA8DF84E009DF810000F2811D1484600888DF810603E4602A9D9
:20061C004246ADF80800534600940DF14F00019620F0EAF98DF84E000DF14E030DE7022746
:20063C0012E2E41C0421204623F05EFF80460421201D23F059FFF0648DF832700DF132036E
:20065C00C6F84880D2E11AF07BFFFDE1E01C24F061FFE51C0246A81C10F8011B1AF00AFB33
:20067C004E210DF136038DF83600E7E68DF8387024F0C6FA0EAB4C218DF83800DEE6204622
:20069C001BF08EFDE0E120461DF0D0F8DCE1204617F0DEFFD8E1E01C24F03CFF6179A279AC
:2006BC001CF05BF946210DF13B038DF83B00C5E6E01C24F02FFF6179A27911F0C9FB452152
:2006DC000FAB8DF83C00B9E6E01C10F017FF44210DF13D038DF83D00B0E60220E41C8DF830
:2006FC001000204624F016FFA41C214614F8086FADF808004446606824F0E6FC606802A92D
:20071C0035220923067240461DF0F2FF11AB8DF844006BE10220E41C8DF81000204624F03C
:20073C00F9FEADF8080014F8020F0DF1470602A933228DF84700012300964046019720F0DD
:20075C0053F90DF146038DF846004FE10220E41C8DF81000204624F0DDFEADF8080014F82A
:20077C00020F0DF1490602A932228DF84900012300964046019720F037F912AB8DF8480090
:20079C0034E10220E41C8DF81000204624F0C2FEADF8080014F8020F0DF14B0602A9312220
:2007BC008DF84B00012300964046019720F01CF90DF14A038DF84A0018E10220E41C8DF896
:2007DC001000204624F0A6FEA41CADF808000421204623F089FE241D14F8016B23780146A2
:2007FC004446606824F0ACF902A900F8016B30220370404606231DF07BFF13AB8DF84C0039
:20081C00F4E00126E41C8DF85060601C24F082FE814604F10B0024F07DFE804694F800A034
:20083C00637BA07B21F058FD0093E01C49465246434613F095F914AB85498DF850000420E7
:20085C0024F0A4FE55E6C046404900200126E41C04218DF85160204623F046FE14F8041F6E
:20087C001DF066F97B498DF85100022024F08EFE79490DF151030320E2E7204619F0D5FC54
:20089C00E2E0204619F08EFCDEE020460FF0FAFCDAE0E01C24F03EFE4FF6FD7644460F22EF
:2008BC00ADF8086061688DF8102002230612152201F8010B40460E7002A9A7701DF018FF2E
:2008DC0039468DF852000DF15203A1708EE0204618F066F9B8E0E41C204624F01BFEA41C1C
:2008FC00214614F8082F3B4621F02EF90DF153038DF853007AE00220E41C8DF810002046D6
:20091C0024F008FEADF80800A01C24F003FE0146112202A823F076FF15AB8DF8540065E099
:20093C000220E41C8DF81000204624F0F3FDADF80800A01C24F0EEFD0146102202A823F0DC
:20095C0061FF0DF155038DF855004FE020460FF0F3FB79E00220E41C8DF81000204624F0DF
:20097C00D9FDADF80800A01C24F0D4FD0146052202A823F047FF0DF156038DF8560035E07F
:20099C000220E41C8DF81000204624F0C3FDA41CADF80800204624F0BDFD4646726814F837
:2009BC00021F1070726803125370706803230422817002A940461DF09BFE0DF157038DF8FF
:2009DC00570013E00220E41C8DF81000204624F0A1FDADF80800A01C24F09CFD0146032260
:2009FC0002A823F00FFF16AB8DF8580001222946652020F0E5FD27E00226E41C8DF8106045
:200A1C00204624F087FDADF80800A01C24F082FD0146324602A823F0F5FE0DF159038DF872
:200A3C005900E3E7E41C204624F074FDA41C14F8011B227821F084FC0DF15A038DF85A003F
:200A5C00D4E7204616F078FD384617B0BDE8F08F4D1A0200253B0200795001002DE9F04F8B
:200A7C0004464FF6FE70ADF15C0DADF854009948007902280ED1208920B19648008E08B15B
:200A9C0022F094FF00208DF856000DF15601522020F040FB6068217A08AA11F059FF0028F2
:200ABC0000F0A9849DF822000228B4BF012700279DF824000228A8BF0027BDF82A100026D4
:200ADC004FF6F87088420ED04FF6FE70401F884209D04FF6FE70001F884204D04FF6FE70CD
:200AFC00C01E884200D1374624F0D2FC9DF82310884240F08084002F00F07D8475480079E6
:200B1C00022804D19DF85100002840F07484208D9DF82650678EADF84C00ADF82E7055B19D
:200B3C0061689DF821209DF83C30012024F02CF8002840F060849DF82570DFF86082DFF8AA
:200B5C0060923546002F4DD19DF83D00374678BBBDF82A00034620F03DF9BA46022808BFDE
:200B7C004FF0010ABAF1000F9DF822A018BF012741460988994208BF47F002072FB1BAF17A
:200B9C00000F14BF402120210F43184620F022F9012808BF47F00107BAF1000F3BD012983C
:200BBC00007824F0B9FA012818BF27F0010732E09DF8411041B1FF2906D09DF84000119A53
:200BDC0021F070FB50B126E04A46BDF82A10508F884205D092F84A0004281CD101251AE06C
:200BFC00222718E0BDF82A10FF2022F0E5FA002804BF381C082708D09DF8250040F0010068
:200C1C008DF8250047F001002C2700F00300012808BF47F011072F489DF82630007930F056
:200C3C00010005D107F002010D4308BF47F08007DFF8A4C293B961460D787DB107F02201F5
:200C5C0022290BD007F04201422940F0D48312990978062918BF072940F0CD83F9094FEA09
:200C7C00A71A58D3BDF82A20129948B96046C01C0078800804D30878401E0A282CD909E06A
:200C9C000878C01E012827D9001F25D0C01E23D0801E21D006BB40460088904240F0AB833E
:200CBC000D780520BDF82C408DF8110004A823F0CFF9002800F09F830269032313271370A8
:200CDC00511C0F704C7022128A70CD70448009F045FB90E3404200205FEA5A001BD30878C2
:200CFC00032802D148780D2815D09DF8280038B1BDF82C000E990CF01DFB012800F07783AB
:200D1C009DF8270038B1BDF82A000D990CF012FB012800F0698308F10E00B4F844100088F0
:200D3C00884208D10096208DB4F8421094F8462033460BF031FB9DF82600002848D0208D79
:200D5C00B4F842101FF060FF051C2BD19DF8510098B999F8900001283AD112980078062812
:200D7C0002D15FEA5A0033D2BDF82E104FF6F870C01D884240F0AB803DE3042023F0E0F80B
:200D9C00011C00F038836420087001274F70208D488099F800001EF04BFE2CE3824000203E
:200DBC00484000209DF821106068EB780A18527B9A4202D0EA706E60606840180421401C18
:200DDC0023F092FB6968814200F21583401C6860A3480079022800F06A8230F0010040F05A
:200DFC000A8399F832008008C0F005839DF8510058B1BDF82C0023F07FFE002800F0FB82D2
:200E1C006168487800F0DF0048709DF8320038B161688879401E8871C0B28DF8320008B9EB
:200E3C0007F07F07380924D39DF82500F9084FF4805614D279091AD3811011F0070F01F01F
:200E5C00070504D0072D1CBF6D1EEDB20DB907F07F0700F0E30040EA8500C0B205E020F031
:200E7C001C00C11021F0030108438DF825006168087299F84A00042800F0DF81092800F0A4
:200E9C00DC8117F0610F40F0ED809DF82200012811D112980078052800F0DB8003280AD163
:200EBC00BDF82A0023F028FE28B1218D08A815AA002301F0CFFB9DF8320078B99DF822007B
:200EDC00012804D112980078032800F0948208A821461DF07FFE8EE27740002023F04FFB60
:200EFC00002840F088829DF83D00002870D19DF82400BDF82A104FEAE7080028ADF8541038
:200F1C002ED13A0931D29DF82220012A28D0084600211AF0CDFE002520B14079012816D074
:200F3C00022814D0BDF85400B4F844101FF06CFE28B1807823F048F808B1082807DBBDF861
:200F5C002C0023F0D9FD18B104208DF824000125BDF82A10002D08BF022274D09DF82400A0
:200F7C005FEA580238BF002300D340230DF13D021AF0D8FE30B16168087846F0200600F0CF
:200F9C003F0008709DF83D0040B1BDF82A1010A81FF000FF46F04006ADF854009DF82200DA
:200FBC00012806D0BDF82A00BDF82C10002219F07FF95FEA58002CBF40220022BDF82C10A2
:200FDC00BDF82A0014F08EFE08B146F0200633E09DF840009DF84110119A21F063F9002863
:200FFC002ED09DF8410038B9BDF82A00ADF8540024F090FB00BB1DE011999DF8285001EB3E
:20101C00400030F8020C002DADF854000CBF082110219DF8270008B10831C9B29DF8250010
:20103C00002200B1012265688918491CCAB2505D401E505546F0400622F0C2FD80469BE011
:20105C00BDF82A100B22BDF82C0000231FF064FAD1E1218D08A815AA002301F0FBFACAE164
:20107C004042002078084FF000085FD3B4F828A09DF833C0C34D09204146EA79944506D1EA
:20109C00BDF82C302A88934201D1AB782BB9401E05F1080501F10101EFD1092925D095F8FA
:2010BC0006B0BBF1000F1DD0B9F84810504622F033F910B1ABF10100A871BA4815210279AF
:2010DC00FF2A02D00288924504D0491E00F12400F5D102E0A879401EA871A8792628A4BF36
:2010FC004046A87127F0600720E022F069FD80469DF8320020B9208DBDF82C10884215D08C
:20111C00218D08A842460FF095FF58B1380932BFBDF82A004FF6F870C01D46F00406ADF8B1
:20113C00540003E027F020074FF00008B8094FEAA71510D394F8473094F846008DF81130A3
:20115C00E26B94F948308DF8100004A908A88DF8123005F0E3F968080ED3218D08A815AA29
:20117C00434601F077FA5FEA000805D012980078012808BF46F01006BDF854104FF6FE7018
:20119C00884208BF4FF000089E48807E012828D1218D4FF6F870C01D884222D0BDF82A2062
:2011BC004FF6F870401C90421BDDBDF82C00884217D024F0AFFAA0B10179012918BF0229FA
:2011DC000FD101218DF810104088ADF81C0004A81DF0FEFF28B105A81DF02CFE08B11FF088
:2011FC0039FF37F07F0000F00681B8F1000F00F00281208918F036FA071C00F0FC8061681A
:20121C00228917F089F9002505959DF822008DF81000CDF80080019604AB0295BDF8541038
:20123C000393228D237A384614F038F9002800F0E280384620F066FFDDE04146BDF82A006D
:20125C00098881420AD01FF0C5FD022806D09DF8250000F00300012840F0CD809DF8220069
:20127C0098B112980178042904D19DF83C10022900F093800078072804D19DF83C1004294B
:20129C0000F0878003287FD0B5E094F846008DF8100094F847708DF8117094F948608DF8C2
:2012BC001260E26B08A804A905F038F9A3E099F84A00042818BF092840F09D80B80973D2EB
:2012DC0012985FEA5A01C0F096800178042903D19DF83C10022960D00178072903D19DF816
:2012FC003C20042A55D003294ED00C2940F0838085784078002836D1424803463146012220
:20131C00457004465B1C512023F0CAFE3B480127077099F8000002211FF09CFD641CB8B980
:20133C0038482278C378022A12D1002B14BF4EF660204FF47A70324951F8231099F8003086
:20135C0003224843B0FBF2F20221184624F022FA680850D32B4831463A46234645705120F5
:20137C0023F09EFE47E0B9F83E10012020F0CEFF2448007902283ED199F8000001211CF0A1
:20139C00EBFF38E0B41B002008A8002112F006F831E008A818F092FB2DE0002008A90AF041
:2013BC002FFD28E04C1F002094F8460094F847709DF832308DF8100094F948508DF8117086
:2013DC00012B8DF812507FF46CAF208DBDF82C1088427FF466AFBDF82A001FF0FBFC022851
:2013FC0008BF8DF832605CE7BDF82A0001E0BDF82C001EF0E5F917B0BDE8F08FAC43002029
:20141C00306F0200404200202DE9F04FB24DDFF8CCA2DFF8CC92DFF8CC82B44EC80BADF107
:20143C00240DC003069140F0EC822F79DFF8B8B208462C46400880F06682384630F001007F
:20145C0040F09D80084680085FD20846800945D20846C00BC0F093800120022122F02AF9D9
:20147C00C4B20CB3E00018F0FDF8071C1DD0C24D81464FF0010815262879012818BF02280A
:20149C000DD18DF804806888ADF8100001A81DF09FFE20B102A9484623F016FE8146761EC5
:2014BC0005F12405E8D100E0002797B174B10F204FF6FC768DF80C001F25ADF8046001A956
:2014DC0022463B46AD48009515F0D4FD384620F019FE069880F4804000F049BC5546687ABE
:2014FC0050B92878062802D1072023F061F9E079012801D122F0ACFE287A10211CF088FF1C
:20151C00069880F0200000F032BC5546687A00BB2978287A08291AD123F040F8092023F085
:20153C0047F9BF480078052806D0072809D10720012106F09BFA04E0012022F083F91CF051
:20155C0077FCE079012816D122F082FE13E010210FE023F097FFEF2803DB002022F072F9B3
:20157C0009E023F08FFF1030C0B223F09DFF287A01211CF04DFF069880F00200F7E35546C3
:20159C002878890B80F09881B248B34B06990668B3F90000490980F061810698000924BF93
:2015BC00069880F0080080F0E2830698400A80F0E7800698C00880F0D58037F001001DD124
:2015DC000698C0091AD3A869A0B116F0BBFEA8690768A86920F096FDAF615FB1FA8802E0C2
:2015FC00F888801AF8803F68002FF9D1287A402124F0D3F8069880F04000B9E30698000A29
:20161C0076D20698800A60D20698CA4C000B2ED20698C00A29D3142018F024F8071C20D07E
:20163C00002524342E46207A012813D105F21118314614223B46404623F028FD50B9206859
:20165C0038606068314614223B467860404623F027FD26726D1C0C34282DE4DB384620F048
:20167C0051FD069880F4806082E3002080E3182017F0F8FF071C24D000252E46207A01287D
:20169C0013D105F20128314618223B46404623F0FDFC50B9206838616068314618223B4642
:2016BC007861404623F0FCFC26726D1C0C34032DE4DB38463146182219F090FE384620F000
:2016DC0021FD069880F4006052E319F005F8069880F400704CE3C046404200206841002001
:2016FC00545C0020565C002048400020505C00201CF09EFB2878052827D1287A04211CF07B
:20171C002BFE287A04211BF09DFE062023F050F8207930F0010007D14846007800F0070007
:20173C00022801D023F092FD1FF094FC18F0D4FF1DF08EFE40460078000902D3E07901287F
:20175C0005D1686921F004FC01E01FF083FC012021F00EFA0320012106F088F9069880F042
:20177C00800005E3FF20032120F00AF923F0AEFEC34901200860FEE74C1F0020A8420020C1
:20179C005B4693F84A00082818BF042844D1243321200021742223F083FCC34E2779716804
:2017BC0032880025B046AA423CDC37F001002BD1C44C4FF000080227ADF8048004F22C46FF
:2017DC00454604F58864B9B222200B22334623F067FCE8000822234681B23F2023F060FC38
:2017FC003079FF2804D0BDF80400401CADF804006D1C24360B372434152DE4DB2220414624
:20181C00022201AB23F04CFCC348006800B180470020022120F0B4F8069880F48070A6E20D
:20183C0095440020AB0003EBC503C85C30F07F0C0DD000F07F009AB2C8545B1823201146A2
:20185C000C2223F02DFC2779D8F8041032886D1CADB2A8E7B4490020644300203746B24EEC
:20187C00B0F1FF3F02D1B1480078B0805FB1786803781BB1406800781AF076FB3F68002F51
:20189C00F5D1B6F90400B0F1FF3F02D0C0B21AF06BFB23F003FEA88423F03AF9E07B012816
:2018BC0006D15C4620784FF40061642223F075FF069880F010005AE20C280DD00C2022F0A1
:2018DC0077FF2878012803D0022818BF0C2801D100206871A26C0DE0022022F069FF2878A3
:2018FC00012818BF022804D101206871002022F08FFCE26C287A4FF4005123F04EFF069894
:20191C0080F4005033E2012022F052FF554631796F78122001F0070811F0070F13D1022FC4
:20193C000AD0012F0FD1082022F042FF23F08EFC09E0C04654360020082022F039FF00205E
:20195C00014611F025FEB8F1010F18BFB8F1020F4CD14FB3032F27D0012F47D1B8F1010F6D
:20197C000BD00A2022F024FF287AE26C4FF4005123F013FF16F018FA38E00A2022F018FFE5
:20199C005C4620784FF480611CF0E6FC502005A921F044FFBDF81400A4F84800BDF81400F7
:2019BC00002118F0DBFE28E023F020FC002818BF032F15D1022022F0FBFEB949286909787A
:2019DC001CF0B6F8B179090910D280B9564A5178491CC9B20429517004BFB249296105E076
:2019FC0023F059FE0146012011F0D2FD28B1287A01214FF47A7223F0D0FE069880F001006D
:201A1C00B5E1DFF8A8B25446DA46A6E10346A64A26781F78116828797A1E00F07981521E28
:201A3C0000F08680183A00F09281B93A00F08B812A3A73D0297D3F1F1E4663D07F1E5AD047
:201A5C00BF1E41D07F1E31D07F1E40F0838138BB777FDAF810801FBBB8F1000F06F105092B
:201A7C001ED0B9F1000F1BD04746B81C4946082222F03EFB30B9FF68002FF6D107E0C04620
:201A9C007C05204338461DF0D1FADAF81080B8F1000F05D19AF800004FF400611CF05CFC66
:201ABC00304622F0F5FB55E1C8490020012818BF022840F04F81307916F0D4F81FF0CAFAB3
:201ADC0048E1C046201B0020042940F04381002840F040813179012900F03C81022906D0A4
:201AFC00042940F03781184618F080F932E1184614F076FE2EE1002840F02C81184612F079
:201B1C009DF927E1012818BF022840F0238118460AF00EFE1EE1C0461C480020002900F007
:201B3C0019811846884715E160430020C45D0020012818BF022840F00D819BF805005746AB
:201B5C00072818BF082805D1637A1BB9012105F08DFF2678032E00F08C800A2E11D0042EF3
:201B7C0015D00E2E13D00F2E11D00D2E0FD0002E00F0F0801DF06CFC207A10211CF048FCEF
:201B9C00E8E08048007800F00700012871D0677A6078002F37D1002020731EF003FF68B9EC
:201BBC002879022802D1A88D21F0D2F9052022F0FFFD42F2107022F03BFBCBE0062022F048
:201BDC00F7FD207A4FF400511CF0C6FB6E488079000909D3E87938B9002021F0B9F9002011
:201BFC0023F068FC23F06CFC287930F0010007D16548007900F00700022801D023F026FBF1
:201C1C001DF026FCA6E0217B01280BD003281ED1287902281BD1584900260E7001270320F2
:201C3C00A77113E0491CC8B20428207304DB53480078012809D00AE0514800884FF6FF712B
:201C5C0081421CBF0426E672E8D10020607021F04FF820F0BBF94D480078000902D3E87937
:201C7C00012877D16078032874D1A88D21F070F970E0607A002849D1207A10211CF0C8FBDA
:201C9C001EF090FEA0B92879022802D1A88D21F05FF9052022F08CFD01201FF07BFA59E059
:201CBC00C144002000F8FF0714450020904400202E79207836F001060AD10A2808D13149AC
:201CDC00097801F00701022902D02B4A0821117003280BD11DF0BCFB7879022806D1012074
:201CFC0020F046FF0220012105F0C0FE062022F05FFD287930F001002CD12248007800F057
:201D1C000700022826D023F0A1FA23E00020C4E7022E1FD1012818BF02281BD123F04EFC71
:201D3C0028B118F0A7F8A8B12879022808D023F07BFC00280CBF002001201FF031FD09E027
:201D5C001BF0E6F806E0184605F0F6FC02E0184607F044FA079822F0DBF9207A1CF02AFB8E
:201D7C00002807907FF452AE069880F4004080B209B0BDE8F08FC04692400020CC4400208C
:201D9C0090400020545C0020505C0020565C0020B84A2DE9F04F0846ADF14C0D11780F9005
:201DBC00C00BC70340F027849246B64D0F9A2879920B80F0F683022812D10F9A52080FD3FA
:201DDC009AF850000F2806D100201FF053FC10B1E86B21F0EBFD0F9880F0010000F02BBC7D
:201DFC000F9A920980F02283DFF89092DFF8908230F0010740F0B8820F9A520980F03982CB
:201E1C000F99C90980F0C0819B490F9F0A78390A80F0AB813846400A40D23846000B28D22B
:201E3C009AF803003946490B19D23846C00BC0F09B824C46A06A70B1E97901290BD1804731
:201E5C00E06A00B180479AF800004FF480414FF47A7223F09FFC384680F48040EBE320B1E0
:201E7C0000208AF803001EF015FD384680F48050E1E31EF00FFDE87B01280BD1297C49B1DA
:201E9C009AF800004FF47A7212FB01F24FF4006123F080FC384680F40060CCE323F0FEFA26
:201EBC004FF6FE7B834500F05C819AF832008008C0F0578100263446304621F00FFC071C8A
:201EDC0019D03879012816D0022814D0F879411CF9719AF88B1081420DDABC727C72388844
:201EFC0020F0E6FD388801A921F0AFFD01A81CF0A1FF1FF0AFF8761C152EDDDBA8F11C0659
:201F1C0010275D46119436F81C0F85420CD0307B9AF88B40411C8442317305DA1198B074AF
:201F3C007074308820F0C4FD7F1EECD14C46032104F13C0010F8047F0FB17F1E0770491E11
:201F5C00F8D1B04C152605F1010934F8240F81451FD001208DF804006788ADF8107001A8EA
:201F7C001DF036F9A8B1A8F11C05102735F81C0F2188814208D0BDF80610814204D002A817
:201F9C00A91C22F0F5FC10B1284622F090FD7F1EECD1761ED9D1119D2C46284621F09EFBBF
:201FBC0048B1077937F0040705D1807A22F00CF808B1641CE4B26D1C152DEEDB21F032FFCF
:201FDC00119E5FEA00080ED03546284621F0BAF928B1807C21F0F8FF08B1761CF6B26D1C01
:201FFC00EDB2A845F1DCA019C7B2002F4CD0B80017F038FB1090002808BF119F46D0BA00EE
:20201C00FF2119F0EBF9119E3546B44218DD284621F064FB031C10D0187930F004000CD113
:20203C00987A21F0D1FF011C07D0009718885A7A109B18F0C3F9761CF6B26D1C152DE4DB5F
:20205C00B8F1000F22D0119C204621F07BF9061C0AD0B07C21F0B8FF011C05D00097109BFE
:20207C003088727C18F0AAF9641CE4B2A045EBDC0CE0C0464840002082480020AC4300209E
:20209C008C1D002040420020119810909AF83000002808BF4FF0620805D022F0BBFFC0F1C4
:2020BC0054005FFA80F80320B8F1600F98FBF0FAA8BF4FF01F0ADDF84090ABF1020BB8F161
:2020DC00000F0EBF119D2025DDF84480BA45A6BF3C1C45F040055446032014FB00F0801CEE
:2020FC008DF8050001A821F0B3FF4E46031C26D01869082104F01F02017045EA0201417012
:20211C00801CA4B12246C01E361F16F8041F00F8031F318809124170B17801F0070CF178B1
:20213C00521E01F0070141EA0C118170EDD1A3F802B001209876184608F010F900E0012047
:20215C00E90906D2641EE4B20CB109EB84093F1BFFB205F040052843B1D0109808B11FF0A2
:20217C00D1FF0F9880F4807065E2104306D1AD48C178012902D100218170C1701DF0D8FEA6
:20219C00384680F0800056E2A74C092600214FF006084FF00409A778002F43D07F1EFBB2F6
:2021BC006079A37022F0BAFB071C3AD06BB9787B022808BF87F80D8033D087F80D80386860
:2021DC00407BF0211EF03CF92BE0A3791BB9787B032812D025E023791BB3E078401EC3B23F
:2021FC00E370F3B99AF82500E0702079401EC3B22371787B032814D133B9204639461EF0DB
:20221C0069FE0EE0281F002087F80D9023F043FA00F00F00401C38819AF8000020211CF087
:20223C00F7F80121761E04F10804B4D19AF80000012910D040211CF08FF895F828000128E9
:20225C0013D1002085F8280095F8290015F00AFD1EF000FF09E040211EF0FCFD28B99AF826
:20227C0000004021642223F095FA0F9880F04000E1E1084610211EF0EDFD30B99AF80000AE
:20229C0010214FF47A7223F085FAC148DFF80483417808F59674491ECFB217BB012141707C
:2022BC000020052122F084F8071C1BD006253846052122F07DF80646388978B1401E80B204
:2022DC00388158B97889C00802D3387B22F046FA7D733868407BF0211EF0B2F8371CE6D157
:2022FC0000E0477028274FF6FE7600252079A0B1FF2812D0401E2071C0B270B9607903287D
:20231C0005D16088218802221BF032F96079012803D0268066806571A5717F1E04F10804F5
:20233C00E4D108F1DC040827207A401E2072C0B230B9C348214620F0C3FC90B966802570DA
:20235C007F1E04F10A04EFD1BE4AC82112F8080F08B1401E1070491EF8D10F9880F0100001
:20237C0069E11DF0BBFCE4E74C460F98277880083CD20F982189800A1AD20F98C00A38BFCB
:20239C000020C0F05981B04A908823F099F8D08823F090F82879022801D11AF0B9FDBAF8BF
:2023BC004800012118F0DAF90F9880F4806042E1BAF84850AAF84810502004F108011EF0DE
:2023DC00A9FE2689102744466089854205D0864204D0204622F06BFB00E066817F1E04F172
:2023FC001C04F1D10F9880F4007024E16FB9BAF83E1001201FF08AFF287902280DD19AF833
:20241C00000001211BF0A8FF07E001A823F086F923F032F801A91CF0A9FA0F9880F00200FB
:20243C0009E1C04644360020B41B0020084620211EF010FD28B9DAF81000002808BF012684
:20245C000FD023F05DFB0146DAF81000002808BF002004D088428CBF4FF0FF30081A460817
:20247C0065D00020042121F0A3FF071C5FD0FF254FF0FF3B06244FF001093846042121F0FD
:20249C0097FF10903889864204D8801B83B23B8113B149E000203881BB7B012B02D17889FD
:2024BC00C0083BD3002B36D08DF804508DF805508DF806B03968086AC97F02AA10F048FAC2
:2024DC004FF00008012808BFC8465FEA08001DD0788A40F08000ADF83600B87B8DF83800E0
:2024FC007889000908D3BDF8360040F48070ADF83600387B8DF83A007B6913B1187BADF89F
:20251C00180001A9002202A804F008F87C73387B18F0B0FC08E087F80D9005E07C7338684F
:20253C00407BB7211DF08CFF109F002FA5D10BF03DFA9AF800300020012121F039FF18B1B8
:20255C00184620211BF064FF0020042121F030FFB3B278B152460789147821F029FFD8B9C1
:20257C00BB42AEBF0027FF1ABFB2204627B920211BF04EFF002005E07A00202123F00DF96C
:20259C0023F0BEFACAF810000F9880F0200052E074540020201B00200289BA42D8BF171C85
:2025BC00DBE723F036F9294C0546201D0068074698B157F80C1C9AF8000021B94FF4005189
:2025DC001AF040FF03E04FF400511BF021FF204639460022001D20F09FF8284623F08CFA22
:2025FC002FB13846FEF73AFA384621F091FD0F9880F400501FE008461BF0DCFE071C17D074
:20261C00134920310A78FF2A0FD03C780B460020944207D0401CC0B2C200D1189A5CFF2AFD
:20263C00F6D102E0496838468847384621F070FD0F9880F4004080B213B0BDE8F08FC04661
:20265C00070602003822002080480020D0490020C86B02002DE9F04F064693460020ADF147
:20267C003C0DABF80000B06A099303460078884622F052FD48B1708904461EF0ABFB022892
:20269C0004BFABF80040B36A01D0002009901878C84DDFF82493401E0A2800F20B84DFE8C6
:2026BC0010F02F03B3020C04A0028D0151010904BE00880066000B00BD4CE079012840F006
:2026DC00F9835B1CB06913F8015B1F7823F059F8002800F0F7830379002B00F0F383032BA3
:2026FC0080F2F0830E2D1CDCDFB9D04907752DB901EB85010A6BC261096B0AE001EB8501B9
:20271C000B6B9A01A2EB8302C2610A6B9101A1EB82018161012180F820101EF09BFC0025CB
:20273C0000E001250320B68964788DF8190006A821F08EFC071C00F0C58338690C2100F831
:20275C00011B00F8015B04700124BC7722F0E0F9786204A9304621F078F910B17C7704A857
:20277C0038627E80BC76384607F0F8FDAAE35C1C207820F01F0700F01F00012840F09A83B1
:20279C00641C04A8214622F09FFC284604A95D3022F0EEF8002800F08D83002F40F08A83A9
:2027BC000834A2786178207801EB02211FF0C8FA88E3688F7189884240F07C835C1C14F87D
:2027DC00016B04A8214622F07FFC284604A95D3022F0CEF806F01F0726F01F06002800F0E2
:2027FC007183002E40F06E83780016F03BFF011C00F0688367B184460834384663782278B9
:20281C00401E04F1020402EB03222CF8022BF5D100910EF0A2F908461FF074FC52E35C781A
:20283C009A1C34F07F0704F01F0E40F04B83377F03201EFB00F0801CC1B2B94240F042831C
:20285C00002714F01F0F04BF4FF6FE7C614618D0D9789B7870464D4603EB012C53781178D6
:20287C0012F802EF01EB03213EF0770340F02A832B888B4208BF0EF00707521C401EEDD1CF
:20289C00BFB960464FF6FE72824212D004F06002602A0ED04D462A88A30907D2E30902D25B
:2028BC00904203DD0EE3904203DD0BE39142C0F20983B08922F02EFF002836D1B0894FF683
:2028DC00FF7120F029FD041C14D11FF08BFE041C00F0F88200211C2218F080FDB0894D465F
:2028FC000E35208028886081AA23A3740222227401216174207C022805DD0220072F20741F
:20291C00BCBF7F1CFFB2677400202073A01C21F0DCFD002840F0D682307A002800F0D282DA
:20293C00B169A01C22F0D0FBCCE20021C171017A022905DD0221072F0172BCBF7F1CFFB2AC
:20295C004772BFE2484671890088884240F0B282307F022840F0AE82AA4CA01D00884FF60A
:20297C00FE71814240F0AE82162021F0E9FA071C00F0A88201213970B07900280CBF081C37
:20299C0002207870B06A4078B872000902D2B0891EF09CFFB169B81C22F096FB0020F87439
:2029BC00287839461DF044F8B089E0808AE2C04640420020484000208240002070891EF055
:2029DC0009FA002840F076825F78B94987B10C2F03F1020380F276828C463D465A78187822
:2029FC006D1E03F1020300EB02202CF8020BF5D1484675890488DFF8D892AC4200F0B280CA
:202A1C00B37C002B00F05E823B1C0A974FF0000811D0A74A38464146921E32F8023F9C4261
:202A3C0006D0401E01F10101F7D104E0006F02000A914FF001082846002119F039F9002860
:202A5C000B907ED0407901287BD10B98807910F0180F76D00B984188384621F06DFF10B90A
:202A7C00B8F1010F6DD109F51B794FF6FE704FF000080C97B6F80CB0CDF820904FF0010AEB
:202A9C000D90C14611E0B8F1010F08BF4FF0010908D022F000FEC0B290FBF8F101FB08F1F9
:202ABC00A0EB01094FF00008C246089D10271C3D35F81C4F4FF6FE70A04213D0A34511D008
:202ADC000C98214621F038FF60B96B7C53B1072B08DA08F10100BAF1000F5FFA80F801D118
:202AFC00C14521DD7F1EE3D1B34D152735F8244F0D98A0421AD0A34518D00C98214621F02C
:202B1C001BFF98B96B7A8BB1072B0FDA287901280CD002280AD008F10100BAF1000F5FFA3B
:202B3C0080F803D1C14501DC0D9407E07F1EDDD1B8F1000F02D0B9F1000FA4D00D980B9977
:202B5C004880B37C5A4C581EB074F77C00970A9D0195029401220392B189B269708915F03A
:202B7C0073F9AFE1B4890C2F80F2AC818846ADF81040BD488DF812700168CDF8148009B1DB
:202B9C0004A8884720461BF0FBFCC82803D14FF6FE701BF0F5FCC82880F2948109EBC00593
:202BBC0005F5E465686808B11FF0ACFA2FB1780016F058FD686010B984E1002068606C80FB
:202BDC00C2486F70007828706878002800F07A816868002800F076817A00414615F09CFC70
:202BFC0070E1307F022840F06581099828B94D4671892888884240F065810998314609F0C9
:202C1C00FFF85EE1AC430020B5F8481040461DF0FBFFA846074608202FB17D781DB9022190
:202C3C00397007257D70B16A0A79CC788B794D7891F802A0CF7904EB02244A7902EB0329A7
:202C5C006A0928BF1020AA0924BF0830C0B235F0700340F03781327F904240F0338105F0B2
:202C7C007005680938BF002006D306A8083122F02BFA25F010050820A90907D3B16A09182A
:202C9C0004A8083122F020FA25F020052046514620F0F8F908280DDA8D4B410001EBC001F2
:202CBC00C9188879B84240F30D818F71002002E03E1B00200420B8F83A10A14219D048B9F5
:202CDC00B189484601222B460EF01AF928B1F9E0201B0020042840F0F58006A804AE00909D
:202CFC0049463A46534601962046029511F044FDE8E0B189484601222B460EF001F9E1E05D
:202D1C00B5F8481040461DF07FFF4FF00609041C03D06078002800F0CD80B06A8178477831
:202D3C000891C378017900F1050A03EB0120099040461DF041FA9AF8001009185FFA81FA1C
:202D5C00B80928BF4FF00E0937F0780040F0B28007F01800182800F0AD80307F814540F047
:202D7C00A9804FF00009CDF800900899B0895246434619F011F8032800F09C80002807F00E
:202D9C0078074DD117F0180F18D195F8310028B1B089414601223B460EF0B2F809984FF6DA
:202DBC00FE714A463B460EF0ABF8002838D14FF6FF70ABF8000039E0281F002047F001078F
:202DDC00780928BF47F00207B089394618F070FF90B1817911F0180F0ED0417901290BD1FF
:202DFC0054B14088B5F848101DF00EFF20B1437813B1607898425DDCB089414601223B462C
:202E1C000EF07EF860B94FF6FF70347AABF80000002C0CBF4946B169B089524621F0E4FCA2
:202E3C00BBF800104FF6FF70884243D1012000900899B0895246434618F0AEFF09983946A0
:202E5C001DF0DEF9698F81422ED1099822F062FC60B10079012818BF022807D1099804A9CD
:202E7C0020F0F3FD08E0C046B041002021F050FE014604A822F028F9307A012803D1B169F1
:202E9C0006A822F021F906A8009004AF0197B06A407840F0300002900999089BB0894A46E1
:202EBC0011F06AFC48460CE0B06A80F805A020F087FE06E04FF00009F4E70999304610F028
:202EDC006DFA099009980FB0BDE8F08F59420020FC1B00202DE9F04FDFF8CCA2ADF1340DE7
:202EFC00B24D9AF80460099000200A910C909EB136F0010708D0022E12D1287900F0F801DF
:202F1C0041F00201284605E02846017901F0F80141F00101017103E0287900F0F800287192
:202F3C002C1D2078402736F001016F7100F00700207005D18E20A87136B940F0010002E0FF
:202F5C00022E01D18020A8710C9AE270227150276F72A020A071E271A072E272A889079263
:202F7C0040F43050A8812A74B1B1022E1BD1DAF83C602EB9286820F00F0040F0020004E022
:202F9C00286820F00F0040F001006FF30F1048F220210143296006E029684CF210106FF335
:202FBC000F0108432860DFF808B2C749A8799BF8006081F8320066B910461BF059F8C248D7
:202FDC0090F83200000911D30C9806A98DF8180009E0084690F83200000907D301200DF14B
:202FFC0019018DF8190052201EF094F820F09FFD800838BF0C9803D30C981FF0B9FD0120C2
:20301C0000280B9040F0D6800EF092FE5FEA000840F0BB800C98AC4A0890742124322120A3
:20303C00164622F007FB00285AD1089921207422334622F02BF8002852D1A348408F4FF641
:20305C00FE7181424CD001209F4B089093F84A00082806D0042804D010F06AFF0C980890E3
:20307C003EE0DDF8209042200DF11A018DF81A901EF050F806F12F0143201EF04BF806F1BF
:20309C002C0147201EF046F806F11C014A201EF041F806F11A014B201EF03CF806F1240194
:2030BC0038461EF037F806F1160153201EF032F806F12D0154201EF02DF806F11801E120A3
:2030DC001EF028F8804890F83200000938BFDDF8309052200DF11A018DF81A901EF01AF8B5
:2030FC00DFF870920C9FB9F80010D9F80400B9423FDC9AF8040030F0010001D108F090FD76
:20311C009648001D006800B180471CF0A4FE0898E0B122F0C3F9ABF8240018B9207800F0EB
:20313C00F80020709AF80400022818BF012004D1654A079982F84A1003208BF80100393625
:20315C000BF11C00314621F0BFFF01E04FF00908814E9AF804700799B01C01801FB91DF01D
:20317C0021FC9AF80470B8F1000F089611D10C9810E0BB0003EBC7030C2299B21B182320E2
:20319C0021F084FF7F1CBFB2ADE773489AF80470089001200B904C4890F83C10012606FA3B
:2031BC0001F0CBF810007EE040420020505C0020684100200EF0BCFD10F0BAFE424B0C99F9
:2031DC0021207422243321F06BFF1FF051FB9AF8040030F0010001D121F086FE5F480068A2
:2031FC0000B180470798ADF800004FF4A17016F039FA071C11D0FF214FF4A17218F0EEF802
:20321C006846008838800C994FF4A1723B46422021F046FF38461EF075FF07980C99062204
:20323C00ADF80800684618F0D9F8142016F01AFA071C1BD0B5480C300668A6B10326022198
:20325C006A46136888B2C019891D92880360761E8280F5D102A8008838800C9914223B464F
:20327C004C2021F01DFF38461EF04CFF182016F0F9F9071C11D00C99182218F0AFF80C9E56
:20329C000C9906F2012018223B4621F009FF761C032EF5DB38461EF035FF1DF01AFD2E4893
:2032BC009AF8047008900B98012868D1064E2436F7B1012F0AD0022F0ED1207800F0F8005F
:2032DC0040F0020007E0C04648400020207800F0F80040F001002070B64820F086FE002810
:2032FC0008BF079809D0042103208BF80B1004E0217801F0F801217002208BF8010022F0DD
:20331C00CAF9DAF84070099900F07F000818CBF810706430022180B20C90FF201EF030FBFB
:20333C00AF494FF6FE700C464887471CE0870798A1F848701EF064FE9AF80400012812D1D9
:20335C000A9801280CD007996846082218F046F8684606E0C8490020C4480020144800207F
:20337C0007981DF097FE079921207422334621F097FE079802211EF003FB9AF804700B98E3
:20339C0009901FB9A88940F00100A8819AF81400042840F087805D4D099CEF687FB91220FC
:2033BC0016F060F90028E86072D04FF6FE71861F0327079826F8061F7F1E7080F9D1002CF8
:2033DC0066D1079904AB4C20022221F05FFE002857D1BDF81000002853D0042851DA18205E
:2033FC0016F040F903274FF0020841F2FC790646079CEB681FFA88F14C2006221B1921F0AA
:20341C0045FEA0BBE868015B4FF6FE728A422ED06EB32018079940881822334621F036FE0E
:20343C003069EB6800F2E931316118194288EB68900000EBC2004019A0EB090001601819DC
:20345C0041887369880000EBC100E96841F2F8724019801A036008190799408818223346F7
:20347C0021F01EFE07993046182217F0B7FF7F1E04F1060408F10608BBD116B130461EF07C
:20349C0041FE07990AF158037120082221F0FEFD9AF80470381C06D121F03AFB21F0AEFEE0
:2034BC009AF8047037B121F0A1FE002804BF5046007D06D015480121079E81703E4DC670A8
:2034DC0028783E49089A3E4E0428D16015462E610FD057B137F0010003D120F09BF83A482C
:2034FC0019E020F097F8394815E020F093F8384811E06FB137F0010003D120F077F835487E
:20351C0009E020F073F8344805E0C0464436002020F06CF83148099F2A490860EFB13048A2
:20353C0090F86500C8B99AF8040030B19AF81400012812D19AF8240078B16220694619F0BF
:20355C007FFC079968461FF0CBFA079814F08AFB07996846102217F041FFDBF8180050B1D7
:20357C000BF11804076820681EF0CCFD38460028CBF81800F6D10120079F8BF800000BF1BB
:20359C000A0201468BF80A70852022F053F80BF10A0428B9852039460122234621F076FD9E
:2035BC000C9820F035FE20F01DFB0B980DB0BDE8F08FC0460045002054420020D5EF000077
:2035DC00E9520200A8470020C94402002D4E0200D953020069950100AB4402006DB40100B7
:2035FC00484000202DE9F04F0446AF4DAF480021ADF14C0D001D2E680768A0780C9101463F
:20361C00102910DC102900F0A880002900F0A482491E012940F2F281891E00F04981491EDB
:20363C0000F018813AE3113965D0491E1DD0491E03D0491E00F0388330E3207967798DF898
:20365C001000E0788DF8117021F0F8F8002808BF022004D004A909880C3001800C988DF8D6
:20367C002000132108AB012232E3204634460421C61C304620F038FF0C9F0121002C35D04D
:20369C00A268904203D02468002CF9D12EE06CB3361D304621F03EFFB778804657B9286804
:2036BC00844218BF251C2068286020461EF02AFD0C991BE0B81C15F0D5FF051C04BF102103
:2036DC000C9F13D00C9828706F7061683A46A81C414414F021FFBE1C642012212B46F2B2C9
:2036FC001DF06EFF28461EF00DFDF4E23170334612217770EBE220460126C41C8DF8216064
:20371C00204621F007FF6F68A278F7B1B2B938680090686818300190787E0290B87E0390E2
:20373C003969BA8AFB8A381D07F096FF8DF8210068681EF0E7FC0C98686009E039680818A4
:20375C00E11C14F0E9FE0C9800E010208DF82100112132460DF12103BAE22546BA4C894663
:20377C002D1DA07815F8011C002936D0491E10D0491E02D0481E5FD05CE0287821F0CEFDA5
:20379C00002861D041680978E170007820710C984CE02D78002857D1E1200DF1230120F038
:2037BC003DF89DF82300854242D00126A670304621F062FC0C9809A98DF8240052201DF087
:2037DC00A9FC28461CF040FD90B3657020783146642221F0E2FFBA2028E0002834D1E120C2
:2037FC000DF1250120F01AF8CC4E9DF825103C36307888421CD0DDF8308001255220A57081
:20381C000DF126018DF826801DF084FCE12031461DF080FC52200DF126018DF826501DF00F
:20383C0079FC404621F028FC4046A07002460CE00C9A0AE00220F9E7284621F06BFE0C9A52
:20385C00A97821F03CFF00B901228DF822200DF1220321E210218DF82710E1788046DFB17A
:20387C007A681278384691420ED03F683FB17A681278914205D038463F68002FF7D10220A8
:20389C000BE03968016002E0B2493868486038461EF038FC0C9800E001208DF827000DF1EB
:2038BC002703CDF83480A6E0A0490020B049002001218DF828100C990D900C2204A817F09F
:2038DC008DFD25460224ED1C8DF81840284621F021FEAF1CADF8100017F8010B8DF81900F4
:2038FC0017F8010B21F01AFD8146384621F012FEBD1C0E9015F8010B15F801AB15F8018B21
:20391C002E788DF82900700015F0ACFE0F9000286DD06D1C4EB183463746284621F0FAFDD0
:20393C00AD1C7F1E2BF8020BF7D1B9F1000F58D0CDF8409015F8013BDDF83C903746AB463F
:20395C000C2FBDF8105011934BDA28461AF018FEC82816D14FF6FE701AF012FEC82810D12F
:20397C00DFF810C30C989CF8203701210CF5E56C1CF8082B9342C4BF131C081C491CC82936
:20399C00F6DBC84C4FF6FE7604EBC0046068668018B11EF0B7FB0C9860606FB17E0030460B
:2039BC0015F060FE6060002808BF102419D060684946324614F0B0FDC948658000786770F7
:2039DC000DF1290620701099CDF800B00E9A0196119BCDF808A004A8CDF80C8007F03CFE6A
:2039FC0004460F988DF828401EF08CFB02E010208DF828000AAB0D9881464DE194F801B0ED
:203A1C0001210228814604F103048DF82B101DD114F8010B03288DF8180005D0204621F0A1
:203A3C0079FDADF8100004E0216804A8016067684760083414F8010B8DF81900204621F0E6
:203A5C0069FDA41C10E0C046B849002002208DF81800204621F05EFDA41CADF8100014F8FB
:203A7C00010B8DF819000C98ADF81A0014F8010B21F054FC8046204621F04CFDA41C0D90C1
:203A9C00B9F1020F14F8010B14F801AB14F8017B8DF82A001CBF14F8016B06F10A0006D11D
:203ABC00204621F037FDA41C064606F11400B8F1000F80B242D0FA2832DD6C68002C3DD1ED
:203ADC0006F11C0015F0CEFD04466C6024B30C9804F11C0504A98DF82B000C222560201DF3
:203AFC0014F01AFDC4F810800D98A082E6829DF82A50257684F819A0A7760F23E376794CC8
:203B1C00207808214FF47A7221F047FEC8B1207808211AF07DFC14E0102010E048400020CA
:203B3C0000940DF12A000D9A019041463346CDF808A004A8039707F08FFD00E002208DF8B8
:203B5C002B002BF01F0BBBF1200F40F0C4800DF12B03A1E0B04900204FF0100A89468DF817
:203B7C002CA0504615F07EFD071C00F094805D48E41C7860207821F0D1FB00287CD1207821
:203B9C000C9E3870B04687F80C80142015F06AFD0028B8606BD014F8011B0170627821788F
:203BBC00A61C01EB0221418031787278B41C01EB02218180817914F8022B01F0F00102F0DD
:203BDC000F020A438271B96814F8010BC871BD68EB79464673B1580015F044FDA860B86807
:203BFC008568002D08BF564604D03046BA68D179814231DC2078B9680873BD682B7B73B183
:203C1C00580015F02FFD2861BD682B69002B08BF564606D0641C4046297B814210DC102EC2
:203C3C002BD1A86810B11EF06DFABD68287B18B128691EF067FABD6828461EF063FA1CE09B
:203C5C00627821782B6901EB022123F81010BD68A41C421CD0B2DFE7637821789268451C9D
:203C7C00A41C01EB032122F81010E8B2BEE7564603E0C046201B0020B8268DF82C603EB919
:203C9C0038461CF0D3FE8DF82C009DF82C0010B138461EF037FA0BAB4946E4E402200C90F2
:203CBC0019E0C046402200200C988DF810008DF81100E07804A920F0B3FD9DF81170142188
:203CDC009DF810008DF81D7007AB8DF81C00022264201DF075FC0C9813B0BDE8F08FC04607
:203CFC0059420020C45D00202DE9F04FA94C04F12C000068ADF14C0D10B1002180F8311047
:203D1C0034301EF007FC21F084FD1290082012F0E1FB17F041FD4FF0000B10B186A021F051
:203D3C00E7FE1BF0D1FE0CA821F0E0FA4FF0040A58460CA98DF830A021F0E0FA206421F094
:203D5C00BFF804A821F03AFA584604A98DF810A01AF04AFAA06321F0BDF808A821F036FA17
:203D7C00584608A98DF820A01AF06CFAA16BE06319B979A021F0BCFEE06B10B97BA021F0DE
:203D9C00B7FE206C10B97EA021F0B2FEDFF80882D8F80000D0F8E0038047D8F80000D0F8E3
:203DBC0018028047D8F80000D0F8F0028047D8F8000007255E46A0300168775827B13846B7
:203DDC008047D8F80000A0306D1E06F10406F3D1D0F8B8028047EB2021F066FBE06A5F465B
:203DFC0070B16846FF21082217F0F8FAE06A6946082220F07DF904F12C05012818BF2F682F
:203E1C00664803C8E94689E80300082015F02AFC002811903BD00546FF21082217F0DEFACF
:203E3C00012008212A4621F005FC38B904F1480301205946082221F029F928B304F148052F
:203E5C0057B128466946082220F052F9E0B9386828607E686E6011E0AE1E032721F01BFC18
:203E7C0006F8020F7F1E4FEA20207070F6D130210620F827A971401CC0B22F540120594699
:203E9C0008222B4621F00CF911981EF03BF904F14801E2201DF03EF91FF049FE400834BF55
:203EBC005E4601263E4D5520012105F1320221F0C1FB18B916B158461EF05AFE24201FF013
:203EDC0057FA074635201FF053FA364DA0B9022F12D124205946022210AB21F0D7F8BDF830
:203EFC0040002A4651463C321060352021F0A2FB242002211BF08CFC05F15001E2201FF02C
:203F1C008DFC30461AF0B4F868465946102217F065FA287930F001004BD1234F69461022BA
:203F3C00384620F0E5F8002840D168463946102214F0F2FA3DE0C04652616E646F6D5F731C
:203F5C006565644175746F6D617469632829206661696C656400C04641455343434D206F59
:203F7C0070656E206661696C656400C0414553454342206F70656E206661696C656400C0E3
:203F9C0054524E47206F70656E206661696C656400C046C0802800201401002080720200BC
:203FBC009044002040420020106F020068461EF0AFFD622010216A4621F03CFB30B92EB1F3
:203FDC006220594610226B4621F06AF868465946102217F003FA304611F088F930461DF050
:203FFC0093FA304613F054FA2879B0B968461EF08FFD40F2011010216A4621F01BFB38B9C3
:20401C0036B140F20110594610226B4621F048F868465946102217F0E1F91EB15846012198
:20403C001DF0AEFC282015F01DFB0028606400F01881206B616B221D18F096FDA849087039
:20405C0010211AF0E5F9616C201D0860206B616B04F1080218F088FDD8F80010D1F84C13CE
:20407C008847616C04F108004860206B616B04F10C0218F079FD0CF0F1FA616C04F10C0056
:20409C008860206B616B04F1100218F06DFD954F7870B748EE8E87F802B005F16001BE803F
:2040BC0021F012F895F82100616C04F1100305F15806387004F11402CB60206B616BFE605F
:2040DC0018F052FD8849894E0870894ABE60894B7A62606CBB6204F1140604F11802616BD9
:2040FC000661206B119218F03FFD834E30724FF0020A86F82CA04FF6FE70B08420F008FDC7
:20411C007E489B49D946C0F800909A4820F0DCFF7B48FF21382217F061F97A487B4B83609C
:20413C007B4AC2607849416080F800B0794B0361794A42617B493961784B8361784AC2617A
:20415C00794B7B61794ABA617B48794B794AFB617B495061794F116106F13800D7601CF0FE
:20417C0065FC1CF0FDFB834809272C307F1E40F8049BFBD1307A48F201011BF0B9F9307ADA
:20419C004FF400411BF0B4F9307A48F221011BF0AFF9307A48F222011BF0AAF9307A20216E
:2041BC001BF0A6F9307A21211BF0A2F9307A22211BF09EF9606C11994161206B616B04F1B4
:2041DC001C0218F0D1FC5F4E48F2150130701BF08FF9307838211BF08BF95C4F5C4BF76067
:2041FC00594886F828A0616C336104F1200270614FF6FE7704F11C03206B8B61616B3784A7
:20421C0018F0B2FC5349636C04F12002534F0870514EDA61206B616B376004F124063246D1
:20423C0018F0A2FC54492F79087027B991F833700FB185F806A048F202011BF059F9606CAA
:20425C00616B0662206B04F1280218F08DFC20704349087021F00AF94870616C04F1280089
:20427C0048620DF085FE129821F046FC00F0BEFB1FF038FBD8F80000D0F8D40090F84300D9
:20429C0018F0CAFAD8F80000D0F858245946012090471FF0FFFA3348D8F8047080F800B09C
:2042BC00F868007830B9D8F80000D0F8582458460146904713F08CFB2B482C4A07215B4615
:2042DC001FF048FA1DF04EFA10200DF142018DF842005A201CF01EFF13B0BDE8F08FC04654
:2042FC00C45D0020CC44002064490020CD21010059900100F9510200684100206C430020A7
:20431C007C1B00200048002081C500002D43020095CF010003270200152F0200811F020031
:20433C00B93B0200756901009D4F0100193F0200F5A70000804800207D48010089A90100C8
:20435C00A52F0100084500202D1B020025310200E9370200B8490020C4490020F10F0200EB
:20437C00A8490020CB5D002080470020B3580200004500208441002090440020A1482DE997
:20439C00F04FADF12C0D07900068D0F8D41091F883A0B8300168DFF870820F782FB9414684
:2043BC000F7817B1D0F89404804781204146BAF1020F087002D1C249FF200870C14C00206D
:2043DC00C149A08106460991BAF1010F069127780E702069A7701AD0007A079E801E85B2C3
:2043FC003068D0F80001C089A842C0F2EA82216A0831096804F1180004F119020160042117
:20441C000892A67EE37E607E5278A18131E0467A017A06F0070201EB022295B2720938BF83
:20443C00291F04D306F0070201EB0221891E36F07F068DB240F0C58207990968D1F8001140
:20445C00C989A942C0F2BD820A30294615F0DEFD216A08310A6804F11800026009790171F0
:20447C0004F1190208920521A181237FE67EA07E927800EB06206081C2F301182371079A0B
:20449C001368B8331A681278ED1EADB2002A08BFB8F1020F00F09582B8F1020F00F39182B2
:2044BC00DFF8949262B110F0070F00F08A824A461278862A04D100F00702022A40F08182C7
:2044DC00021302F00202022A4FDA667800F00700022842D1002E40D1D86990F88300022899
:2044FC0038D0226A52180832127805A8491C02708FB2A78121F08DF905464A461078862849
:20451C0025D107980068403001680A6832B9D0F80C05804707980068006C02689DF9140025
:20453C0021F0B7F9507707980068016C096800228A77006C9DF914100068C177284621F08A
:20455C00DBFA608900F0100019F00CF902E0284621F0D2FA20F0FEF935E24A461078862862
:20457C0004D100201CF0EAFAA77866788FB186B9012F00F026826089022F03D110F0070FF2
:20459C0040F01F82032F05D100F00701032901D017E26089010980F01482011301F0020137
:2045BC00022902DA810A80F00C82BAF1010F19BF0899497808998978C1F381098E11B9F131
:2045DC00010F00F0FE81012E00F0FB81BE49B8F1020F09D08A5D11F809108918CFB2CEB161
:2045FC00C10917D3BF1E0BE072184944127909798918CFB2C10909D259EA06030AD0BF1C37
:20461C00FFB207E014010020CA5D002059EA060308BF0227C0F30020391A60718D42C0F2B6
:20463C00D08107990968ED1B2D18A8B2D1F850122081743080B2884700286578606100F02E
:20465C00C0810021742216F0C9FE0020E07060894FF0FF0B1DB9069A00F020011170069930
:20467C0063790D784FF0000C002D4FD0002B4DD100F00700032809D0012835D107980068AC
:20469C00D0F8D40090F8820000282DD0BAF1010F1CD007984068406905781DB120F042FC03
:2046BC00FE281FD007980068D0F84C028047C8B907980068D0F84402804798B914E0C0463D
:2046DC00ED3E002000590020CC5D002007980068D0F84C02804728B907980068D0F84402D7
:2046FC00804708B10420E070BAF1010F0AD107980068D0F8B800057815B1B8F1020F01DAB5
:20471C001DF0D4FE6089637994F803C0656905F17402AA6505F17401696022892A8121890D
:20473C00A881BAF1010FA5F85C1007D0089A5078C0F30111107806E0CF5D0020089A907806
:20475C00C0F30111507800F0780008434CEA00002874002B85F80EB00CBF2079002085F8C4
:20477C00306085F83A9085F84900A089002FA0EB030086B2A68100F0218107980068E7803B
:20479C00D0F8D400216A90F883803A4689190831684613F0C1FEBF19B8B2B8F1010FA08164
:2047BC0007BF0898807808984078C0F301192846077CB8F1010F07F0400A07BF0899897807
:2047DC0008994978DFF81CB26D46C1F38107002F42D0B9F1020F4FF0000302D1BAF1000FFC
:2047FC000BD19DF801209DF8001001EB0221A0F844100DF10205A0F84210794EB0F84410B9
:20481C00B6F86A208A4203D04FF6FF728A4220D1032F11D06A78297801EB022189B241868B
:20483C00B6F86820AD1C01208A4211D04FF6FF728A4218BF181C0BE060692946323020F06D
:20485C0043FC60695F363146323020F091F808350346002B00F0A880B8F1010F07BF089845
:20487C0080780898407886111ED06069B9F1020F03D0017CC90903D309E05AEA070706D1B9
:20489C006A782978AD1C01EB0221A0F84210032E05D069782A7802EB0122028504E06069EA
:2048BC002946283020F010FC608900F0070003280CD001281ED107980168D431086890F8F5
:2048DC008200B8B105E0C0462077020007980168D431D1F874116069884758B90020089F82
:2048FC00E070B97866697878C1F3011100F0780008433074B8F1010F60D107980268B83262
:20491C001068007810B1B9F1020F57DA099960790978002952D0002850D1D0692179E7781C
:20493C00DFF8C48090F88300012812D0584600250223C570821C137017B143F0100313705B
:20495C00917040464263032180F833101DF0AEFD34E0D2F870230D46E9200DF115019047C0
:20497C009DF81560052236B95846072300F10C010B70082304E0584600F10C010A7018235A
:20499C004373881C022300260370CE701FB1037843F0100303700D71C8F8E810A8F8DC20CF
:2049BC00032115F033FB09E007980068D0F8FC1458461430884718F07BFB04E003F0ECFCCE
:2049DC0001E020F0B9F920F024FF216A0A68002313710968216221F08FF80BB0BDE8F08FD6
:2049FC00F03E002018460020583A00202DE9F04FDFF81893C24DD9F80000DFF80CA32F6A47
:204A1C00D0F8D400BF4C90F88300ADF1240D012800F09B806179A06801290FD170B1002098
:204A3C001AF082FB286A4168A0688847D9F8040080690121017000202F6AA06002264FF050
:204A5C0001086671D8B92FB9D9F80000D0F84C0580472F6A1AF0A0FF0D28607006D00C28DF
:204A7C0002D00E2802D102E0464600E00026A670396A04F1180088474FF4FA7020851BF0D9
:204A9C00F7FFE969A0784A6952F82030564602284FF00007CAF8A03006D1D0684B69C6F82E
:204ABC00A4001869C6F8A800D9F80000D0F8D40090F9420018F0F2FDB0F1FF3F069008D0D3
:204ADC000290000834BFBDF808004FF6FF70A6F89E00A6F88E70C6F8907096F8990068F3A4
:204AFC00030086F89900D9F80000D0F8C403804738B9A1481021D9F80430017059681423E0
:204B1C000B70A06850B9286A0768E96A9B4806F18C0204F11803B847A0600AE238461AF0AE
:204B3C0003FB286A416E02A888473B468DF80C70286A0293076D08228DE80C00A0688C360F
:204B5C00314602AAB847EE60F3E1796E02A888472646A068717902290ED168B100201AF0EA
:204B7C00E3FA286A4168B0688847D9F804008069012101700020B0604FF0010B86F805B01B
:204B9C004FF00008CDF8088000288DF80C8045D11AF002FFE0B11AF0FFFE012818D01AF058
:204BBC00FBFE052814D01AF0F7FE0C2810D01AF0F3FE0D280CD01AF0EFFE0B2808D01AF0A4
:204BDC00EBFE0E2804D0D9F80000D0F84C0580471AF0E2FE0D28707008D00C2804D00E2800
:204BFC0004D10220B07003E05846FBE786F802802F6A07F1200137B9D9F80000D0F84C0593
:204C1C008047296A2031096806F1180088474FF4FA703085C84FF762062434631BF028FFB9
:204C3C00C648696A1EC980E81E00D9F8002080F80080D432106890F85310802906D0B07811
:204C5C00822904D007467B1CB91C04E0B078C11C031DCFB2411D5FFA81FCE9695FFA83FE16
:204C7C004B6953F8277054460228CAF8087108D153F82E004F69C4F8140157F82C00C4F871
:204C9C001801D2F85423632008A99047D9F80010D1F8D40090F85300D1F83C148847074605
:204CBC0094F8FA006BF3020084F8FA00D9F8000000F1D401D0F8D40090F853001DF0C2FBA4
:204CDC00042825D0032810D00F2084F8FC0094F8030168F3030084F80301B87B052814BF44
:204CFC002420292084F8000120E00F2084F8FC00592384F8003194F8030168F3030013E0DD
:204D1C00F03E0020E4450020583A0020140100200F2084F8FC00212384F8003194F80301D1
:204D3C0020F00F0040F0080084F8030194F8010168F3871084F80101086890F853001DF02A
:204D5C0081FB04281CD0BB7A7BB99DF8200094F80121401E60F3050284F8012194F80201F2
:204D7C0020F03F0040F0180018E09DF8202094F8010162F3050009E06C4700207854002023
:204D9C0094F8010120F03F0040F0020084F8010194F8020120F03F0040F0200084F80201BD
:204DBC00BA89B87B0A23401D504390FBF3F2B4F8FA3062F3CD03A4F8FA30B8891923800313
:204DDC0090FBF3F2D4F8FC3062F31C23C4F8FC30E86994F80431027F62F3020384F8043135
:204DFC0094F80421007FC01060F3C30284F80421086890F9420018F051FCB0F1FF3F0790D8
:204E1C0008D00590000834BFBDF814004FF6FF70A4F80601388979683B68EA694FF47A7A1F
:204E3C00401E414303EB5100B0FBFAF0A4F80C0190690078A4F8EE80C4F8F08094F8F9309B
:204E5C0084F810016BF3030384F8F930D9F80000D0F8C403804710BBB8893A4FD9F80420EF
:204E7C00BAFBF0F0C1B2BAFBF1F3397051680B70D9F80000D0F8D40090F85300022806D050
:204E9C001DF0E0FA03280AD105215C2001E00221A8202B4A1170D9F8041009680870B068BF
:204EBC002F6A88B340461AF03FF9D9F80000D0F8D420F77892F853108F4212D1317992F869
:204EDC0081202F6AB06891420DD1022142468DE806003F6DEC34434602AA2146B847EC60DA
:204EFC001DE02F6AB06879688847D9F80400806980F800B0286A11490768134804F1EC02B9
:204F1C0006F11803B84707E004F1EC020E480B493C6806F11803A047B060686AA862D9F896
:204F3C000000D0F8D41091F85300F07091F88100307109B0BDE8F08FEBF10100E85C0020A4
:204F5C00B84700206C470020785400202DE9F04F8846CE4CDFF83893D3494FEAD830ADF17D
:204F7C00240DC00340F06B825FEA581029D3002308460370CD494370184620F007FBCC4925
:204F9C00012020F003FBCB49062020F0FFFAD649072020F0FBFAD549082020F0F7FAD449D4
:204FBC008DF80C300A680DF10D0003AB0979026006220171412080211CF002FB88F01008D0
:204FDC0047E25FEA980028BF88F0020880F0418220685FEA181135D218F4706F08BF00203C
:204FFC0000F039825FEA183004D300201FF0A4FF88F400685FEAD82004D301201FF09CFFE9
:20501C0088F480685FEA982004D302201FF094FF88F400785FEA582004D303201FF08CFF2B
:20503C0088F48078404616E22168884205D0016829601DF067F8286804E0016821601DF071
:20505C0061F8206808BB606858B1C27EC17E521E491ED7B2C17627B960681DF053F8002089
:20507C0060602768002F08BF00280BD04C46207808214FF47A7220F090FB18B12078082125
:20509C0019F0C6F988F00808E3E1017B491E0173C9B20029C8D005460068D3E70546DAF8C3
:2050BC00046028781A280EDC1A2854D0401E00F06981401E00F02881801E00F0B281801EB0
:2050DC0000F01881B8E1243800F0A581AD3800F09B81801E03D02A3800F08881ACE1A87CB2
:2050FC000930C0B2814614F0BDFA061C00F0A481A97800F8011B6988091200F8011B9AF849
:20511C000C1000F8011B9AF80E1000F8011BBAF80E10091200F8011B9AF8101000F8011BBA
:20513C009AF8111000F8011B9AF8141000F8011BBAF81410091200F8011BAA7CA96913F082
:20515C00EBF94520FF214A4633461CF039FA30461CF0D8FF70E1B5F82690E97B09F1140003
:20517C0087B220F0ACFA002638B9A87B032804D0F02FD8BF4FF0810B12DD0A374FF0820B6E
:20519C00BFB2FA2F0CDD09F1100014F06BFA061C00F0528106F11000A7EB09077060BFB22E
:2051BC00384614F05FFA079020B9002E00F044813046A7E00446A87804F8010B6888001234
:2051DC0004F8010B287904F8010BA888BBF1820F4FEA202004F8010B1AD1A87B04F8010BFE
:2051FC00A87B032805D0A8792070E8880012607004E0A91D086820604B686360E87B0834BE
:20521C0004F8010B287C04F8010B288A001207E0A87904F8010BE888001204F8010BE87BFD
:20523C0004F8010B287D04F8010B687D04F8010BA87D04F8010B687E04F8010BE9692046DD
:20525C001FF07EFC241DBBF1820F05D095F8240004F8010B484606E0002004F8010B04F805
:20527C00019B4FEA292004F8010B094800781EB306490968054B31604FF47A721E600821DB
:20529C000F23337320F089FA48B103E0A0490020C45D002072480078082119F0B9F8E869FB
:2052BC00B06070680AE0C0460443002035D30100B51F02009106020020464C44A96A4A4682
:2052DC0013F02AF995F82C0004F8010BA88D5FFA87F95946001204F8010B95F82E00079EA4
:2052FC00207044202FE7C0461D290200851A0200C8770200A878401DC0B214F0B3F9002891
:20531C0000F09A80064622E729790B2000EB4100C0B21EF015FE002800F08E80A9782F7997
:20533C008DF80010EE788DF802708DF801600DF10301FFB1AA792E79EF880A70022E4FEAA3
:20535C0027218DF804100DF1050113DB2A7A2E792F890A70032E4FEA27218DF806100DF196
:20537C00070107D1AA7A6F890A7039128DF808100DF109012A7BAF890A703A124A701EF040
:20539C00C7FE59E0002E57D070788DF81500B0788DF816003078FA2819DC9DF8150000F000
:2053BC001E00162811DA2D499DF815000F4600F01F008200D0194068091D30B18958304695
:2053DC0088478DF8140028B9C1E6012000E004208DF814009DF8150020F01F0020287FF46F
:2053FC00B6AE60200021032205ABAEE66878AF78EE788DF8180006AB8DF8197003228DF8B0
:20541C001A604420802103E06B1C4520C02101221CF0D6F810E0F0783346401DC2B2692019
:20543C00F0E7F078401DC4B2A11E701CC9B21FF06BFCA41904F8010C28461EF069FE084809
:20545C00007818F0B7FF5FEA000A7FF427AE88F400481FFA88F009B0BDE8F08F04430020C6
:20547C00C45D00202DE9F047DFF84493064609F10400B57800780024ADF1380D2946242922
:20549C0024DC242900F08081162911DC162900F09C810A293AD9103900F0B781491E00F02C
:2054BC00AB81C91E00F0A081481E00F0968114E1B1F1200000F08481401E00F07B81401EEB
:2054DC0000F07081401E00F0658106E149290FDC492900F02581253900F04F811B3900F0ED
:2054FC003981491E00F02B81C91F00F01D81F4E0B1F14A0000F01081401E00F0F980801EB7
:20551C0000F0F280933800F0EA80E6E0DFE811F087002B00BF01AC019E018F010B00D6012A
:20553C00E5008201D60130468DF82E40C61C30461FF0F0FFB778C0F304213FB9052903D051
:20555C004FF6FF7181420BD1204607E0052903D04FF6FF71814203D14FF0FF30D949086049
:20557C000DF12E03A5E1202014F07CF8061C00F0A581FF21202215F031FF731C01202146BC
:20559C0008221FF083FD751C071C18BF01272146042205AB84201FF079FD083560B99DF832
:2055BC00170028709DF8160068709DF81500A8709DF81400E87001E047F0020783202146AF
:2055DC0002220DF11A031FF061FD2D1D38B99DF81A002870BDF81A000012687001E047F0B0
:2055FC000407ED1C6120214601226B1E1FF04EFD08B147F008072146102262202B461FF0F3
:20561C0045FD08B147F01007012120223346672037701BF0D5FF30461CF074FD4EE12646AD
:20563C0030F001008DF833600BD10DF1330018F0EFF99DF8331080460E2000EB4100C7B2A7
:20565C0001E0A0460E27384614F00CF85FEA000A3DD0054621460822012005F8016B2B4675
:20567C001FF014FD1FF01AFF0835072305F8010B001205F8010B944A05F8013B107849460D
:20569C0005F8010B0B7933F0010316D19DF8330028709DF833308BB141466D1C20469DF8B4
:2056BC00332082420ADD0A782A7031F8022B401CC0B212126A70AD1CF1E72E706720214665
:2056DC003A4653461BF07CFF50461CF01BFDB8F1000F00F0F38046469DE70224EEE02246CE
:2056FC004720E0211346E7E030460EF0D1FFE5E0F01C026869460A60406848608DF8084051
:20571C000227CDF80CD002A88DF8097015F070F90AAB8DF82800CCE030461BF06FFFCDE0E3
:20573C0030461EF0DEF9C9E0F61C307871781DF0C1FF02223070001270703346BAE0F01C04
:20575C001FF0E8FEADF80200684615F0BDFE01AE0822F2E7F01C026801A90A604068486097
:20577C00684617F099F9BDF8020007AB8DF81C0000128DF81D0002229CE0F5208DF821406D
:20579C0008AB8DF82000F6E7F5200DF129038DF829008EE0F520FF278DF8240009AB8DF840
:2057BC002570E8E7F5200DF12A038DF82A0080E040420020F5200DF12B038DF82B0078E02F
:2057DC00F5200BAB8DF82C001DE068462146092215F004FE1621092227E068462146062247
:2057FC0015F0FCFD152105E068462146062215F0F5FD1421062218E01BF03CFF11210DF175
:20581C002D038DF82D00012255E03278F01C1021034650E020F074F94FF47A71B0FBF1F19A
:20583C0068461FF08DF9092104226846F0E762201DF09EFDF61C02462146334662201FF03F
:20585C002FFC0DF12F038DF82F0032E061201DF08FFDF61C02462146334661201FF020FC0B
:20587C000CAB8DF8300024E0F01C04211EF03CFE049084201DF07CFD0246214604AB842063
:20589C001FF00EFC0DF131038DF8310011E0F01C1FF040FEADF8180083201DF069FD024686
:2058BC00214606AB83201FF0FBFB0DF132038DF832000122294667201BF082FE20460EB05A
:2058DC00BDE8F08744490020684100202DE9F04FBC4CBE4E60798B465FEADB01ADF11C0D1B
:2058FC0080F0A3814FEADB31CF03B74918BFB24649D10F785FEA5B312DD25FEA1B2028BF32
:20591C008BF0800B80F0FD815FEA9B000CD25FEA1B3038BF0020C0F0F681381C01D10FF0BE
:20593C0051FD8BF4006BECE1012F18BF022F0FD168460021082215F051FD00201DF018F9A4
:20595C00684612F099F818B12078022118F060FD8BF0020BD5E1012F18BF022F10D1401E4C
:20597C000AD0801E0CD1E079022809D10120E07100201BF00FFC03E0A17900201DF010F97E
:20599C008BF4805BBDE1207818F014FD5FEA000808BF8BF4004B00F0B48198F80070D32F39
:2059BC0000F036816079B84224D094F82F000A2F0CD085480678002E40F03381092F40F0C8
:2059DC003081002108F1020088472AE188F8040098F802108DF81210032298F803108DF8EA
:2059FC0014000DF112038DF813104F2080211BF0E7FD16E19AF804007F1E464600F0AF80E8
:205A1C00BF1E40F00E81012818BF022840F00981B77877B37F1E40F00481727820781AB3F0
:205A3C001FF03CFD4FF6FE720021824218BF0121081C04D1B548408F1146814209D0104661
:205A5C00B249ADF8100017464F87532004A91BF061FB1DF04DF91CF0B9FAAC49002081F820
:205A7C004A0011F00DFFDCE0022140F6B832E171C3E0707800286ED11FF0D6FD0746A34856
:205A9C000021002FE76000F108000160E9D00D46BF696D1C002FEDB2FAD108460E4606906B
:205ABC00E7681FB14FF000094D4503DC761C022EF6DBD6E796481EF098FA012809D0BAF870
:205ADC002E004FF6FF7181420AD03988884207D036E08F4807F10C011EF04AFF00282FD058
:205AFC008A483989C08F884203D14FF6FE71814210D19AF8040030F0010307D1069810B9B8
:205B1C00FB783BB91CE03B7923B919E0022801D13B79ABB17D497B799AF8050091F8362041
:205B3C009A4212D1B97988420FD0012808BF022903D0022803D1012901D10120069026B931
:205B5C0038461CF0FDFF6D1EEDB2BF6909F101005FFA80F9A8E700201BF022FE61E0012840
:205B7C0018BF02285DD1777894F838103FB194F83700401CC0B2814284F8370045DBA079E7
:205B9C00401E04D0401E3DD0401E21D049E01FF02DFB78B994F83900002842D10021022029
:205BBC000F468DF808000246ADF8007068461EF029FE1AE001201FF007FD014601F056FFEC
:205BDC002FE0C046904400204442002040420020AB2000216A4619F0B9FECDF808D004203B
:205BFC008DF80C0002A80EF0DFFC20784FF4805118F0B2FB207841F288324FF480511FF06C
:205C1C00CCFD0EE01CF0D0FB0BE001200021D5E7B8F80E0048F20201814202D140460DF0DD
:205C3C003BFB40461EF074FAADE63779217830B1401E60D0C01E59D0801E4DD05FE094F838
:205C5C002F00022F01D1810959D281081ED2C00855D3601D052594F830100570890810D37C
:205C7C0094F8321069B90121A1700422002115F0B5FB6571002019F08BFC02201EF0E3FE52
:205C9C003DE02846002101F0F1FE38E0042594F830006571400832D394F832309BB9012FCA
:205CBC0018BF022F16D10127601D00212A46A77015F094FB03206071384619F069FC38469A
:205CDC001EF0C1FE05E01EF0C7FD2846012101F0CDFE37799FB9D4E7002084F82E0060717A
:205CFC003222084604211FF058FD08E01EF0B4FD04200121C7E7012001461CF051FF8BF083
:205D1C00040B1FFA8BF007B0BDE8F08F48400020844100202DE9F04F0546DFF8CCA2DFF8A0
:205D3C00CC92A8784FF00008ADF1340D0746142F04D91C3F63D07F1E17D0ABE1DFE817F0CA
:205D5C009B01E001DC018501D401AA01AA0158015F0015003D012801CA01AA01C4010E019E
:205D7C00AA01AA01F900E800AD018146EC1C8DF8248020461FF0CEFB0546B9F1090F09D006
:205D9C00A01C1FF0C7FB0746201D1FF0C3FBA41D064602E0A778E678241D242D03D1208889
:205DBC0035256C46009028461DF0E2FAB91988421FDB67B9C34803884BB19D4217D14288FB
:205DDC00964204D140682146324612F0A5FB28463946324623461FF063F930B9012D0BD1A5
:205DFC00E22021461BF096F904E00A2002E00830E1E702208DF82400494609AB60E183467C
:205E1C00ED1C28461FF086FB8146B9F1240F66D0B9F1690F1DD0B9F16B0F1AD0B9F16A0F45
:205E3C0017D0B9F13A0F14D0B9F13B0F11D0B9F5887F05DDB9F5007F0BDBB9F5007F03DCFD
:205E5C00B9F1620F03D104E0B9F5407F01DB444600E00224BBF1080F08BFAE7803D0A81C33
:205E7C001FF058FB064648461DF082FA86422BDA5CBB801B85B2F82DA8BFF725A81C5FFAC6
:205E9C0080FA504613F0EEFB071C1BD0B81C41462A4615F0A3FABB1C484631462A461FF014
:205EBC00F5F848B940463870524659463B467D7061201BF085FB00E00A2438461CF022F946
:205EDC001CB929E1102400E0022405A84146022215F084FA8DF81440594605AB18E135203C
:205EFC004146042201AB1FF0D1F838B9BDF80420404602210424ADF8122002E00120414659
:205F1C0002248DF810008DF8111004AB0821B0E0E81C1FF0FFFA242802D01DF029FA00E062
:205F3C0040468DF818000012132106AB8DF81900EEE0E81C1FF0EEFA0446681D1FF0EAFA02
:205F5C000146242C03D0204619F062FC00E040468DF8270012210DF12703B1E0E878291D4A
:205F7C0070B1401E0AD10878012805D020B152200AA91DF053FC08E0522002E0022002E09B
:205F9C00E0201BF0C7F88DF828000F210AAB97E051460124087815F8031F8DF82A4004298B
:205FBC00A8BF022003DA39F8111018F0D5F98DF82A000B210DF12A035BE0ED1C2878042821
:205FDC00A8BF02200ADA681C1FF0A4FA2F7851460246087839F817101FF0DFFB8DF82B0010
:205FFC000A210DF12B036BE0C45D002058770200E81C1FF08FFA0646681D1FF08BFAEF7968
:20601C00EC1C0146242E1AD0B94204F1050411DD304642461FF00EFB8DF82C009DF82C006A
:20603C0009280FD177B1304641463A4623461FF037F807E0304622461FF0FCFA00E04046B7
:20605C008DF82C0007210BAB3AE00124ED1CE2208DF82D4029461BF05DF838B920464146AC
:20607C0008222B461FF01CF88DF82D0003210DF12D0322464DE0E878294C30B1401E4BD17D
:20609C001FF024FA01202060FEE71FF01FFA01202060FEE74FF002083EE0E8788DF8250012
:2060BC0040B21EF0C5FD8DF826001E480068D0F830240DF12501E020904714210DF1260316
:2060DC00012226E09C6602008DF829800E210DF12903F5E71FF0DFFA8DF81C000C2107ABAC
:2060FC0000128DF81D0013E0E22002A91DF096FB0421082202AB0CE00B4B0221052208E022
:20611C005920062701218DF8200008AB8DF82170022261201BF054FA40460DB0BDE8F08FC8
:20613C007C05204314010020C87702002DE9F84FDFF834830F460646F80B80F09B81C74DBA
:20615C00CA4C2878B90F80F03581DFF824B3B90880F02881DFF80893DFF808A3F90A80F090
:20617C008B80390B54D2380907D2F80FC0F0BA8127F0804717F0CCFDB4E11FF04AFB0546A0
:20619C001DF078FD00283DD01CF050FF002839D04C4603202070D0481FF035FB28461FF087
:2061BC00ABFC10F035FC022000211DF051FD02201BF0C2FF112010F063F8CE48007820B96C
:2061DC005546286848301FF03CFBCB48007810B90E2010F055F8607B20B100206073052027
:2061FC001BF0AAFF002041462070C44AB1F91C00B1F91E106260884214BF0220072015F03F
:20621C0053FA02E028461FF077FC27F00807B1E720B104201BF090FF0020287055462E680D
:20623C001BF0D8FF40B1F0696FF4807100224FF0007384463046E047B14E306858B120685F
:20625C00006B8047326829680024801AC860C8683460000BC860AB48AB4900221FF0E1FAF5
:20627C004C46584602210068217010B1A7481FF0F0FA27F400677DE71FF0CBFA00901DF0B6
:20629C00F9FC002840460068834600F08580002800F082804846042606709D4999480022E8
:2062BC001FF0BFFA00981FF027FC8B481FF0ABFA2068006B80474FF00108DFF844C285F84D
:2062DC0000806446206030461BF050FFDBF810005546416A2860C90804D3016A00220B46F1
:2062FC0031469847404617F0E3FC286880F815800FF012FA2D68D5F8089040F60A01A446F3
:20631C00C81F421C4E4600E02646746834B12388994203D0984218BF9A42F5D100217160DD
:20633C00737B08F00F0423F00F031C437473DBF80C301B88984225D09A4223D02C8E1CB304
:20635C00696305F13002518095F83C000B4603F00F0320F00F00034385F83C3095F83D0025
:20637C0008F00F0420F00F0044EA000385F83D307260707B01F00F0420F00F0044EA0001AD
:20639C00717301E0CCF8001048461EF07FFF014640461DF05DFC02E000981FF0ADFB27F4AF
:2063BC0080679FE012F038FA5846006808B927F0020797E0574A116841F08001116020B1BB
:2063DC0004201BF0B9FE002028701FF022FA8146606D0068014604208847D8B1307DC8B1F3
:2063FC004D480568B5B120683469006B8047401B30613069000B30613069A04203D2001938
:20641C0040083061306940F6C41181422CBFB0F5967F316148461FF06FFB1BF0DBFE88B1C5
:20643C00F0696FF4807100224FF0007304463046A04741460868002808BF47F0020701D021
:20645C0017F066FCB06900214FF0806304460A463046A04727F0005744E0C0464D5C002003
:20647C00D85C00203C5C0020E45900208C010010EC5900201FF0CDF9414618310E686EB359
:20649C0006F1280191E80C004FF0E0450A241D4004EA020108BF002920D106F1280191E8E1
:2064BC00300006F1280393E8060006F12803AA43A14383E806001FF01FFBB16881B1002DE8
:2064DC0008BF002C0CD03069B6F93C10B2682B4616462246B04703E0785900201FF00CFB0D
:2064FC0027F480471FB1094839461FF0B2F9BDE8F88FC0464C5C0020DA760200952D010035
:20651C00445C0020A05A002039600100D85700208D410200CC210840405C00202DE9F04F86
:20653C00ADF1840D1D9206461C91B08DADF85A0000248DF842408DF84340D6F828C08DF8BE
:20655C004D40327FADF844401746F0898DF854706146ADF84A00087800F00303022B8DF8DB
:20657C00400000F3BE8123461E93491C1F9343083CD200F00C0EBEF10C0F0CD043093CBF0C
:20659C0011F8013B8DF84230BEF1080F04BF01238DF84C3001D08DF84C40BEF10C0F0AD06F
:2065BC00737903F00303012B0CD140F00C0073898DF8400004E04D780B78891C03EB0523ED
:2065DC00ADF84430430911D24D780B78891C03EB0523ADF846300B784D78891C03EB052336
:2065FC00ADF8483011F8013B8DF8433011F8013B30F07F058DF855301ED00B7833F0030596
:20661C008DF8413040F0698103F0030EBEF1030F00F0638113F0030F01F101010ED011F8C5
:20663C00013B00F00305022D8DF8573004BF11F8013B8DF8583001E08DF841401491A1EBA2
:20665C000C017F1AFFB2BA42C0F24781D21B8DF85470D1B28DF84D100F4300F04281C109E7
:20667C0007D370891AF0B6FB002840F03A819DF8400000F00C012746091F08BF012782097C
:20669C0032D301221F9279B3B2891EF007FF904202D1F08D000A0DD21EF000FF904221D0AF
:2066BC00F18D080A38BF101C07D39DF8400000F003032DE07089ADF85A2080461EF0EEFE81
:2066DC00BDF85A10884205D0404618F05DFB002800F007818448026810A9404690470028E6
:2066FC0040F0FF809DF84000F18D00F003030A0A0ED2C2090CD39DF8412012F0030F07D106
:20671C0000F00C020C2A03D0082A1CBF01221E92DFF8DC81022B00F0C180012B00F09080B8
:20673C0010F0030F40F0DD80DFF8C09199F82F00012803D1B579002D00F0D3809DF8430043
:20675C009DF8543002221B909DF84250BDF84640BDF848B09DF855E09DF857C0DDF850A0EB
:20677C001A93B0898DF864200B0AADF85C0035D242461B321468A7B91E9F17B110A912F000
:20679C0014FCF07C00901F9F01971D9D0295B07C1C9B0390B9F8482017A910A810F0A8FA81
:2067BC009FE0307C002C8DF8560000F09A801EF075FEBDF85C20904240F0938030791F9F53
:2067DC0000901D9D01971C9A02951E9B039196F8300010A9049017A8A04782E08DF8202049
:2067FC008DF82350ADF82640ADF830101B9F8DF82270B9F84830ADF824308DF835E070890F
:20681C00ADF81800ADF828B0CDF82CA0327C8DF836C035798DF83220B47C8DF8335096F81D
:20683C0030108DF834401A9F8DF8371096F83230ADF82A7006A88DF8383004F011FD50E082
:20685C001E9FB58937B1080A04D2284610A912F0ACFBB5899DF85400B6791030C0B21DF06C
:20687C006FFB071C3DD07D81022038703E737C709DF854203A7207F110057D609DF8400089
:20689C00800928BF01247C721499786811F044FE42461078394619F0CBF822E09DF8410056
:2068BC00B18942462332136810F0030F10D110A807901048ADF8181006A91CF001FA80B1DC
:2068DC00062141730068407B214619F0B9FD08E03BB110A82246984703E08DF84D408DF82B
:2068FC00544021B0BDE8F08FA447002048400020CD44002019F901002DE9F04FCC4CD74D6B
:20691C00DFF85C83C80BADF1140DC003019140F0C1810846400838BF0020C0F0C6816768D9
