:020000040020DA
:10000000BC790020D1EE210001EF210005EF210095
:1000100009EF210009EF210009EF21000000000095
:1000200000000000000000000000000009EF2100B7
:1000300009EF21000000000009EF2100B9EC2100C8
:1000400009EF210009EF210009EF210009EF21004C
:100050000000000009EF21003BC4200009EF21004F
:1000600009EF210000000000000000000000000077
:10007000000000000000000009EF21000000000067
:10008000000000000000000009EF210009EF21003E
:1000900009EF210009EF210009EF210009EF2100FC
:1000A00009EF210009EF2100754A2000DB4A2000FA
:1000B00009EF210009EF210009EF210009EF2100DC
:1000C000DDEF2100314A200009EF210009EF210076
:1000D00009EF210000000000000000000000000007
:1000E0000000000000000000000000000000000010
:1000F00009EF21000000000009EF210000000000CE
:1001000010B5DFF8B80B0FF2B961C84C41650FF2BA
:10011000F97181650FF27551E1620FF2355121637A
:100120000FF6290161630FF65501A1630FF2F97112
:10013000E1630FF2C13121640FF2B55141640FF256
:100140000D6181640FF27551C1640FF6A90101655B
:10015000206908B102F08EFBDFF8B40B0B49A060F8
:100160000B22082020730020206181F820002075D8
:10017000002104F1150002F0C7FB04F12000BDE8E6
:1001800010400B22002102F0BFBB0000C441002040
:100190003EB504460520E082032020756068401EBD
:1001A0006060411E616094F83A10017094F83A0062
:1001B00010B14FF6FF7121876068411E6160218F89
:1001C000090A01706168208F087004F12F01207AFC
:1001D000C01C2072684602F0D0FDDFF8F809C38C1D
:1001E00003228DF8082003216A46204601F0DEFC38
:1001F000050004BF204600F0B2FE28463EBD70B5A3
:100200000D46044661680498160A01F8016D01F86C
:10021000020C01F8012CDFF8BC09428D120A01F82A
:10022000032C408D01F8040C180A01F8050C01F8A4
:10023000063D227A606861608218521A2272287A1A
:10024000DFF82C1C03280CBF01200020E0820B22C9
:100250000920207504F1240002F03EFB4FF6FF73E5
:100260002A460321204601F0A1FC050004BF2046D8
:1002700000F075FE284670BDDFF8F81B897A082962
:1002800081B0A8BF072101700078C006000E01B040
:10029000704700002DE9F04706460F46904602F0F1
:1002A00073FD0025DFF8CC9BD9F80040B0F1010ABE
:1002B0006AEB0A0A4FEADA7A09E0F61F411D304676
:1002C00002F05BFD54F8084C761E10357F1EF8B224
:1002D00068B10AE0607E410605D560684178C1F3E7
:1002E00081010329E9D054F8084C002CF2D1BAF16D
:1002F000000F18BF02F044FD02F046FD421E92417D
:10030000D9F80000D20F2C46E8B143685D78C5F3F8
:100310008105022D14D1457E690609D59B7906F821
:100320000139641C43685D7906F801597F1E07E0B6
:10033000037E9D0604D5012588F80050FBB213B159
:1003400050F8080CE0E70AB102F01AFD3470701E94
:10035000BDE8F0872DE9F84384B00D4600218046C2
:100360008DF8001091460DF10100FFF785FFDFF8D1
:1003700064783E7B86194136F6B2304602F0F4FAD4
:1003800004004ED0A0196060002020723A7B6068A3
:10039000114649424618B968304602F09DFA9DF868
:1003A00001106A46701EFFF775FF00217E4A01703A
:1003B000137879789B0143EAC11343EA091343F0A8
:1003C0000F0300F8013C48EA051100F8021D227AEB
:1003D000616860608A18121A00202272E08220751B
:1003E0008DF80C000B22DFF8E81B04F1240002F06A
:1003F00073FA9DF8000018B1E18A41F00801E1822A
:100400004FF6FE71788D8842ACBF03210221002394
:1004100001AA204601F0CAFB0028204602D002F0C3
:10042000B5FA002005B0BDE8F08300006C5500204F
:10043000F8B5074602F0A8FC461EDFF8380A046843
:10044000B641F60F00250EE0617E080609D57968F1
:10045000606801F057FB20B1607E00F0BF0060765D
:10046000254654F8084C002CEED11DB1687E40F0B2
:10047000400068761EB1BDE8F14002F081BCF1BDDC
:100480002DE9F8438046894602F07EFC0026471E8F
:10049000DFF8E0090568BF41FF0F00240AE02C46A1
:1004A000617E207E41F0100140F080006176207670
:1004B00055F8085C9DB1687E0106F9D56A68494621
:1004C000404601F03BFB0028F2D0002CE7D0207D15
:1004D000012804D16068017841F0100101700FB16A
:1004E00002F04EFC14B100F0C7FC01263046BDE816
:1004F000F28300002DE9FC410025009502F044FC48
:1005000000F04BF80EE054F8088C2A462146384695
:1005100002F006FB2146684602F0BEFAB87A411E98
:100520004446B972CCB1607E010605D5608A401E92
:10053000608280B20028E6D0254654F8084CF1E7E6
:10054000FFF776FF607E410759BFF0206070E92118
:100550006170204600F0E3FB18E00EB102F010FCE1
:10056000B87A98B1DFF86C16487B0F281EBFDFF809
:10057000281B91F82000002808D1DFF83C4C2046C9
:1005800002F0B5F83021204602F098F8684602F0F3
:100590009EFA0400D4D1BDE8F381DFF8007B3C680B
:1005A000461EB641F60F7047D854002070B5054678
:1005B000FFF73EFFDFF8BC48DFF81866A06C804705
:1005C0000128F08D08BF401C6882A07A002804BF73
:1005D000717B0F2908D1DFF8E05B284602F087F82D
:1005E0003021284602F06AF802F0CEFBA17A00F032
:1005F0002AF8A17218B1BDE8704002F0C1BB70BD0D
:1006000038B50446DFF86C58607E00F0EF00607685
:100610002046FFF70DFF2146284602F070FA02F04F
:10062000B3FBA97A00F00FF8A97208B102F0A8FB99
:10063000DFF8A005417B0F2904D1BDE83240082036
:1006400001F0A8B831BD401E8041491CC00F704761
:1006500010B5DFF880150446487886B0A0B10121B6
:1006600000208DF800108DF8010000F03AF8616864
:1006700008788DF80A0004F10F010DF10B0001F06C
:10068000EBFB684602F08CFC06B010BD10B50446CA
:10069000FFF77EFDDC2818BFDD2808D0E42818BF4E
:1006A000F32804D0DE281CBFDF28DB2805D1014653
:1006B0002046BDE8104001F073B810BD10B586B0FB
:1006C000044606208DF8000000F00BF804F10F013D
:1006D0000DF10A0001F0C0FB684602F061FC06B0B3
:1006E00010BD04F11C010DF1020002F046BB000038
:1006F00038B5044604F1380584B0A87820B304F175
:100700002F0101A802F039FB6248017D03880091A6
:1007100003228DF80C2001A92A882046FFF76FFDDF
:100720000146DC2918BFDD290BD0E42918BFF329C5
:1007300007D0DE2918BFDF2903D0E82918BFDB293D
:1007400002D1204601F02CF805B030BD2DE9F84368
:10075000804602F019FBE725DFF840793C68461E29
:10076000B6414FF00009F60F02E0A14654F8084CDC
:100770009CB1607E0106F8D5207D012802BF94F867
:100780003D1098F804008142EFD14A462146384690
:1007900002F0C6F9B87A411EB9720EB102F0F0FA51
:1007A0003CB12046FFF744FEF021204600F0F8FF60
:1007B000002529464046BDE8F44300F0F1BF0000A3
:1007C00038B5054684B06878F32818BFDF2822D0F2
:1007D000E82818BFDB281ED0284600F029F80400BE
:1007E00018D1287CB0B105F11101092000F087F97A
:1007F00080B100F015F8A97A009101A92B89FFF7C3
:10080000FEFC0446F32C18BFDF2C03D0E82C18BFE5
:10081000DB2C03D16C70284600F076F805B030BDB3
:1008200002218DF80C104FF6FF72ADF804207047CE
:1008300038B504460025A07A0B381328207B28BF42
:10084000E8251028A8BFE82501DA0F2805D0DFF831
:100850006C140A7A110758BFE825617B884202D2DE
:100860000F2918BFE825DFF86C03418D4FF6FF72A2
:10087000914208BFEC25242001F092FFDFF89C1C78
:10088000086120B12422211D02F026F800E01A257B
:10089000284632BDEA52002070B50446CD4D207A7C
:1008A000DFF8706B6873607A85F82C00E07AE87086
:1008B000A07A307002F0B8FC307838B1211D502099
:1008C00002F01EFEA11DE12002F01AFEDFF8C8179B
:1008D000012081F8200004F10D01687BDFF83C5C09
:1008E0000F2814BF0120002028750B2205F11500E8
:1008F00001F0F2FF04F1180105F12000BDE870409D
:100900000B2201F0E9BF000010B50446607820B961
:10091000DFF8081C0869FFF7BFFF2C212170204673
:10092000BDE8104000F08CBF10B5DFF8F01B0446A6
:10093000086918B100220A6101F09CFF08202070AC
:100940002046BDE8104002F02BBB0000DFF848173E
:1009500091F82000002800D1704780B5DFF85818C2
:10096000087D50B99B48C27890F82C10407BFFF767
:10097000F1FC10B1BDE80240F1E201BD30B5054621
:1009800089B0A87B0124410721D5E98E05F11C001F
:10099000FFF776FDD8B9DFF8A41C4879012808BF15
:1009A000002414D00B2205F10F0106A801F094FFDA
:1009B00000F08EFDACBF0321022106A83022019079
:1009C000009205F11C02EB8E012001F0A1F910202C
:1009D0008DF8080005F11C010DF10A0002F0B5F9CF
:1009E000E88EADF814008DF8164002A802F0D8FA8F
:1009F00009B030BDDFF81C1A0878002818BF01F0D4
:100A00006EBB7047AD4800F154010162DFF8301C45
:100A1000416200F1440181620FF220010164DFF8BC
:100A2000241C0166DFF8581C8167DFF8581CC16779
:100A3000018941F002010181704700000304710443
:100A4000020460041104700402040204010402049C
:100A50001004610400041404630473047204620447
:100A600043040004130406040004000404041204F4
:100A700000040004000400045104640000040004A5
:100A8000000444040004000400040004650400049D
:100A9000350481046400050400048304000400009C
:100AA00002461146032000F010BF0146082000F066
:100AB000EEBE1CB5DFF8E4450FF2592060640FF27A
:100AC0003D20A06406E0204602F001F80090684650
:100AD00000F0BFFF21680029F5D1606838B1201D02
:100AE00001F0F5FF0090684600F0B3FFF5E72060E5
:100AF000A072E07220730FF2C950E06213BD38B5E6
:100B000004460FF2C050055D284601F02DFF20B1CC
:100B1000411941600021017232BD022001F024FF21
:100B200058B10FF2C451095D01701A21417001469C
:100B3000DFF86805007C01F038FF002032BD831D1E
:100B4000C907DBB20DD50A2193FBF1F10A2202FBA2
:100B50001131C9B229B10A335B1A0529A8BF0A337A
:100B60000B331328ACBF14200620C318DBB20933A3
:100B70000A2093FBF0F0C0B2704780B54F48017A6D
:100B8000880704D502F004FB10B1012002BD00204B
:100B900002BD4A48017A880781B00CD5B54A907ADF
:100BA00038B9DFF8F414C86F28B1407E10F0800027
:100BB00002D0012000E0002001B07047AD49DFF80D
:100BC0007C3A0A7B99788A4238BF01F0CDBE00207A
:100BD00070470000C452002080B500F03AFF0020AA
:100BE00002BD31B582B0017BA24C21B1012926D0D2
:100BF000032926D037E0DFF8445C687B0F281EBF4E
:100C00002E498A7A032A02D00298E16B884702991A
:100C100095F83A008873142002990870201D0299F3
:100C200001F03AFF02F0B0F8217BFFF70CFD2173D1
:100C300008B102F0A5F8202000F0ACFD37BD15206A
:100C4000EAE70146087A70B14868401C486002999A
:100C500010F8012D4A73029AD07D0028507B06D0EF
:100C600008B10A2813DB02A800F0F3FE37BD48B133
:100C70000A2807DA0FF25845137A291811F8011CCF
:100C80008B4204D0082804BF117A0829EBD1104602
:100C9000017A4A1E02720299487B0A300870029853
:100CA000417B491C4173B9E7DFF8F003C06C82B0A7
:100CB00008B102B0004702B0704700004442002073
:100CC00038B504460120207504F13C004188638F4B
:100CD000E18204F130020179E17641792177C1792D
:100CE00084F820100178204600F060FF050004BF62
:100CF000204600F034F9284632BD0000DFF8440CED
:100D0000817A032901D1202070470120704700001B
:100D100095172000417E41F001014176704710B5E2
:100D2000027D017E012A06D10B0704D44178BDE87B
:100D3000104000F035BD4C06DFF8603304D5407834
:100D4000196CBDE810400847012A03D1090748BFC4
:100D500030210BD441781B2908BF222106D000295D
:100D60000CBF0FF278310FF28031895C01700146BF
:100D7000BDE81040187C01F018BE70B5C64C0646A0
:100D8000E06F002872D03100DFF8AC5C04D01B2E7D
:100D900005D1017D052953D00022427052E0E92E91
:100DA0002ED1807E30B902F0FCF918B1E06F817D60
:100DB00048072ED5EE2002F0F3FCE16F887EE8B103
:100DC0008A7D530705D4401E8876BDE8704002F046
:100DD000C0BD087E00F07F000876E06F017D03292A
:100DE00003D1427E42F004024276ED2002F0D8FCAC
:100DF000DFF8501BE06FCA6F904726E04E7021E08D
:100E0000E12E15D102F0CDF9D0B1E06F817D480718
:100E100016D4E16FA87C8876E16F4A6828789070D4
:100E20002878401C28700120BDE8704002F0EFBC1B
:100E30001C2E05D10F490A6D90470020E06770BD58
:100E4000E06F4670E06FFFF76AFFE06F817D080694
:100E500005D5287E02F03AFAE87D02F0FEF900207E
:100E6000E0671020BDE8704000F094BC70BD000049
:100E700081550020E85300202DE9FC4101F084FF5A
:100E8000854E441EA441F06FE40F00284FF0000887
:100E90005FD1824FB86C80473D6840F0100002E09F
:100EA000A84655F8085C002D53D0697E0140814268
:100EB000F6D142462946384601F032FEF567697E92
:100EC00008062CD4F87A411EF9720CB101F058FFD3
:100ED000F46FE18A207AFFF732FE3881A07D0106A7
:100EE00006D5E07E02F0F2F9F06F007F02F0B5F96E
:100EF000F26FD08AC10520D5398900291CBF92F82C
:100F00002000002811D090FBF1F082F82100F06F52
:100F100010F8081F1329ACBF0221002103E0B87AA2
:100F2000411EB972D1E7817605E0012082F82100E7
:100F3000F16F81F82200032005E0107E400800F0E8
:100F4000010080F00100BDE8F64102F060BCBDE8A0
:100F5000F381002CFBD0BDE8F34101F011BF38B59F
:100F6000044600F06FFD217EDFF8D0060A0704D4A6
:100F7000217D012908BF027800D04278474D2146E3
:100F8000284601F0E9FDD8B1696C20468847A07D6C
:100F900041070ED401F0F8FEE97AFFF754FBE9723D
:100FA00008B101F0EDFEE08AC1050FD4BDE8314083
:100FB00062E7DFF890198A6F2046BDE8324010479B
:100FC000F12060702046BDE83240A8E631BD000047
:100FD0008C55002050E738B50446DFF868090089D1
:100FE0000021820704F1380303D49A79550748BFDA
:100FF000E82110F0600F03D19879820748BFE821FB
:10100000DFF8A40B8279207A82421A7938BFE8216E
:10101000002A02BF18780028F52107D0080003D164
:101020002046FFF74DFE0146080000D038E031BDF4
:101030000D21017001F0B4BF38B5044600202070C6
:101040006070DFF8F815E08F0978144D420704D47A
:10105000EA7A8A4204D3F12122E0AA7A8A42FAD2B9
:10106000C10510D594F84210052912DB10F0050FC8
:101070000FD105F1240001F03AFB94F8421005F17C
:10108000240001F01BFB287C2146BDE8344001F020
:101090008CBCE821E0E70000C4410020E8530020B8
:1010A0002046BDE834407BE310B504465C3080B296
:1010B00001F05AFC18B100F15C010472416010BDEE
:1010C000DAE6000000464A4C4449494339513A00A7
:1010D000020402010101010902000000303016186B
:1010E0001920231A1C1E3000303017181921301B0C
:1010F0001D1F3000DFF8080C0FF26511016000229F
:101100000FF2813141600FF2DD1181600FF2152184
:10111000C1600FF2113101610FF2C52141610FF27F
:101120009D2181610FF2B931C1610FF20941016264
:101130000FF2594141620FF2914181620FF2192180
:10114000C1620FF2E90101630FF2CD0141630FF2B9
:10115000C92181630FF25941C163DFF8A81B016403
:101160000FF27D4141640FF2ED418164DFF8980B8D
:1011700000F15C010A70CA7002220FF2196140F896
:101180003C1F01610271012101757047F8B502220F
:101190008DF800208DF8010008B14FF6FF71ADF811
:1011A00002100B22DFF8641B01A801F095FB6846D2
:1011B00001F0F6FE05B000BD6C55002080B50A2296
:1011C0008DF801008DF800208DF80210684601F0BE
:1011D000E7FE01BD3EB504460120E08204F1320184
:1011E00002202075684601F0B0FD6068A38F94F876
:1011F0003E10401E606001706A46207A401C2072DA
:101200008321204600F0D2FC050004BF2046FFF7F2
:10121000A6FE28463EBD0000DFF8202692F83510D5
:1012200030204143DFF8700C01F048BA30B5DFF8E8
:101230000C46607B0F2893B006D02E218DF800104D
:10124000684600F0FDFA09E000F0DEF8608E142137
:10125000B0FBF1F105F1340001F030FA13B030BD0C
:1012600038B504466078010032D104F13205297A9C
:1012700002291CBF0329E82094F82F100B391329E9
:1012800013D2010024D104F12F01E12002F038F93A
:1012900004F13C01502002F033F9297ADFF89C0573
:1012A000022904D12A88028408E0E82012E04FF6DF
:1012B000FE7101841630294601F05FFD0B2204F116
:1012C0002401DFF8480A01F007FB2046FFF782FF00
:1012D000010006D06070172020702046BDE8324023
:1012E000AEE231BD18B5DFF8204A94F85F0085B052
:1012F000A8B9012184F85F10012002F04AFC02A87D
:1013000000F0F1FBDFF8342504F1540001210190D5
:1013100000910321D38C02AA052000F0F9FC06B04D
:1013200010BD000010B500F0A9F82178202904BFF5
:10133000EB20607000F0ECF844BF01F0FB0180F896
:101340005F1000F0E1F800D5EAE02A202070204686
:10135000BDE8104074E200007CB500F08FF800F0AA
:1013600053F805F1440001F0C2F900F06DF9ADF851
:10137000001060688678300008D16946532002F07A
:10138000BFF804F11C014A2002F0BAF80B2204F164
:101390000F0105F1540001F09FFABDF8001030462E
:1013A000FFF7F4FE95F85F00810703D56078002110
:1013B000FFF704FF002085F85F0073BD10B50446F9
:1013C000EB206070DFF8800B90F85F20900703D56A
:1013D0000021EB20FFF7F2FE4FEA0400BDE81040C9
:1013E00038B500F04BF800F00FF805F1440001F0BB
:1013F0007EF905F15C0000210170C1704FF6FF71AC
:101400006078BDE83440C1E6DFF83C5B05F13400AC
:1014100001F06DB9D854002010B50446FFF7CEFF97
:10142000CCE0000010B500F029F8207A002814BFA5
:101430000020EB20607000F06BF844BF01F0FB016E
:1014400080F85F1000F060F80BD501F0FD0180F826
:101450005F1000F095F8ACBF01210021FFF7AEFE50
:1014600008E0C80706D52A202070EB2060702046CF
:1014700000F0E6F92046BDE81040D9E50446012019
:1014800002F098BB1CB50446DFF8BC0A90F85F1068
:1014900041F0020180F85F10012002F07AFB6178D0
:1014A00079B900F015F8ACBF0321022104F1100056
:1014B000012201900092221DE389052000F028FC02
:1014C0006070607818B1BDE81C40002176E613BD5D
:1014D000DFF86803418D4FF6FE72914270470000BD
:1014E00010B5FFF7CBFF2178202904BFEB206070F7
:1014F00000F00EF844BF01F0FB0180F85F1000F02F
:1015000003F800D50CE010BD90F85F108A07704713
:10151000DFF8340A90F85F104A0770476C550020D6
:1015200001F0FD0180F85F1000216078BDE81040F7
:1015300044E6000038B5FFF7A1FFFFF765FF207A0A
:10154000002814BF0020EB20607095F85F00410771
:1015500044BF00F0FB0085F85F0095F85F0081074D
:101560000AD500F0FD0085F85F0000F009F8ACBF77
:1015700001210021FFF722FE2046BDE8324057E559
:10158000A07B00F0100001286078704710B5FFF7CD
:1015900075FFEB216170FFF7BBFF44BF01F0FB015A
:1015A00080F85F10FFF7B0FF00D5B9E710BD00006D
:1015B00010B500F010F82046FFF7E8FF2046BDE820
:1015C000104000F01BBD000010B500F004F82046EC
:1015D000BDE81040DAE70446DFF8EC0B01F087B80D
:1015E00018B5044685B004F11C01DFF8E00B01F0EA
:1015F00099FB08B3EF2009218DF801008DF8001048
:1016000000F022F8ADF80210606801798DF804103E
:10161000207A082804D16168C8798DF8050002E0B5
:1016200000218DF8051004F10F010DF1060000F006
:1016300013FC684601F0B4FC06B010BDCCEF2100ED
:10164000985500200101200060680178407801EB86
:101650000021704700F043BDBA48DFF8A41681614D
:101660003831C1610FF2200141630FF280018163C3
:10167000DFF8601BC165018941F0010101817047FC
:10168000AD052000010620000101710101010101E9
:10169000110101013101010101018001100161010C
:1016A0003B001400630173017201620143010001F8
:1016B000130106013D013500040112010001000182
:1016C0000001000104010401330133013C01440124
:1016D0003201360000010001650100013500810181
:1016E0000001050182018301000100000302710273
:1016F0003001600211027002010202020202800245
:10170000100261023A004100630273027202620237
:101710004302000213023800000200020402120217
:101720000002000200020002040204023700370037
:101730003C0244020002390000020002650200027D
:1017400035028102000205028202830200020000CB
:10175000024611460220B8E00146062097E01CB57B
:10176000784C206810B1204600F073F90021A17276
:10177000DFF8381B086858B102E0684600F069F9E4
:10178000DFF82C0B007C01F03DF900280090F4D12B
:1017900013BD00000146DFF8180B007C01F0FEB914
:1017A00000B585B003780FF27C02D25C8DF8002082
:1017B0000B2A03D1417000F071FB31E082B30C2A97
:1017C00029D11A2902D10020019024E0019090F83B
:1017D0003D208DF80220C2680292028AADF80C20EA
:1017E000827DD30648BF002204D4144A92F83430D4
:1017F000827E9A1A8DF80E20427F8DF80F20827F0C
:101800008DF81020C27F8DF81120C08AC20544BF18
:1018100011228DF800208DF80110684601F0C0FB00
:1018200005B000BD0C0E020B040B0A0708000F00E8
:101830009748817A481E8041C00F7047C4520020EB
:1018400038B5934A937A02F1300102F1300551F82C
:101850002330017801F07F01017003EB41014C78E6
:10186000214655F8211001B19472047813F8143010
:10187000190902EB8102D16811B9BDE83240F0E2EA
:1018800003F00F0351F82310BDE8344008477CB53E
:1018900005460FF28400405D0E4601F065F8040035
:1018A0000CD0257000210FF27C0061703146425D42
:1018B000201D01F011F800F03BF873BD8DF80050C9
:1018C0001A216846FFF76CFF73BDF8B507460FF2A3
:1018D0004800C65D0D46304601F046F8040012D0BF
:1018E0002770002060702946A019606000202072D7
:1018F0000FF23000C25D04F1240000F0EDFF00F0B3
:1019000017F80020F2BD8DF800701A216846FFF725
:1019100047FF1A20F2BD000000055957515C1C20FA
:101920002807020000011C181A18181C24030000C4
:10193000DFF87C09007C214601F037B8DFF8701928
:101940000874704744420020F8B50E46B006504D6A
:10195000DFF85C7919D41DE001F016FA397B401EDE
:1019600080414A1EC00F3A7308B101F009FA20788D
:101970008DF800006C602046FFF762FF9DF80000C4
:1019800015281CBF281D00F064F8381D01F09FF8D1
:101990000400E1D1300406D40AE06860FFF750FF8C
:1019A000281D00F056F8387C01F02CF80028F4D1FE
:1019B000F00602D52D2000F041F8F00702D52420D2
:1019C00000F03CF8B00702D5252000F037F870078A
:1019D00002D5262000F032F8300702D5282000F08A
:1019E0002DF8700607D500208DF801002C218DF808
:1019F000001000F025F8300607D500208DF8010012
:101A00002F218DF8001000F01BF8286888B101F034
:101A1000BBF9401E2C6880410021C00F296008B12D
:101A200001F0AEF96C602046FFF70AFF281D00F0B8
:101A300010F80020F2BD0000E65200208DF80000F2
:101A40006846FDE612494A68824204BF00204860A9
:101A5000704738B5040008BF02F04AF901F094F964
:101A6000451EAD412168ED0F59B1094A5368A1F1F6
:101A700008008B4204BF002151600021216000F06A
:101A8000F9FE1DB1BDE8314001F07AB931BD000069
:101A900044420020DFF8600B0FF2C53141600FF2C5
:101AA000D13181600FF2CD31C160DFF8501B01618F
:101AB0000FF2E9314161DFF8481B8161DFF8701BEB
:101AC000C1610FF20D7181630FF29141C1630FF299
:101AD000ED4101640FF2815141640FF221518164A3
:101AE000002101707047DFF8901B0A8C4FF6FE73DF
:101AF0009A4204BF163101F028B902220272098C01
:101B00000180704742784B78C2F38102C3F38103AE
:101B10009A4211D1022A09D142794B799A4202BFE5
:101B200080798979884207D101207047032A03D13F
:101B3000491D401D01F013B90020704738B5547895
:101B4000057A0023C4F38104AC4218D1022C10D1D1
:101B500054799579008804EB0524A4B2A0420ED1F3
:101B6000D078127900EB022080B2814207D10123A4
:101B700005E0032C03D1511D01F0F1F8034618468E
:101B800032BD017ADFF8F02A022907D1128C0088D1
:101B9000824201D10120704700207047014602F1C6
:101BA000160001F0BFB80000CCEF21002DE9F84F7E
:101BB00090469946DFF8C02A98F8084002F11406CA
:101BC0000B064CBF4FF6FF77778A054601F07F0181
:101BD0008DF800104FF0000AA87D81064CBF082048
:101BE00000202876A87D41074CBF80201020687611
:101BF00002F13400A97DCB064CBF00210178A97603
:101C0000E98ACB0748BF4FF0200A090769682B7D96
:101C100048BF4AF0100A491E022B07DB0B2B1CBFE2
:101C20005B1E01F801394AF0030A01E043EA0A0A9F
:101C3000407D012804D12B7A672BA8BF4AF4805A33
:101C40009DF8000002284AEA803A07D1F08A000A8B
:101C50000870F28A01F8012C891E0AE0032808D1D5
:101C6000A1F1070B02F13C01584601F086F8ABF1F7
:101C700001019DF8000050B124B14F4508BF4AF062
:101C8000400A04D03812087001F8017C891E022C29
:101C90004AEA842A09D1B8F80000000A01F80109CB
:101CA000B8F8002001F8012907E0032C05D1CF1F67
:101CB0004146384601F061F8791E2CB14FEA1920EF
:101CC000087001F8019C891E287D4A1E18B93078D9
:101CD000431C337002E0B07B431CB37308704FEABF
:101CE0000A40000E107002F801AD297A68686A6037
:101CF0004118891A297200206870BDE8F28F00002F
:101D00008C540020492420003053002084530020AC
:101D10002DE9F047099D894607469246984629468F
:101D2000FEF7EDFE1A2604001AD00898E082277507
:101D30000B22294604F1240000F0CEFD4346524612
:101D400049462046FFF732FF064648B9FF1F012FDC
:101D500003D8607E40F0200060762046FFF7FFF851
:101D60003046BDE8F0873EB5044604F13C0501214C
:101D7000687800B105210420E182207504F130016A
:101D8000684600F0E2FF6068638F401E60606A464C
:101D9000297801700321207A401C20722046FFF729
:101DA00005FF050004BF2046FFF7D9F828463EBDD1
:101DB00070B504460D460520207005F13A06F0780E
:101DC000A0706068296B416105F11C0100F0BDFF46
:101DD0006068E98E41813178417400216068017644
:101DE000C17305F10F016068193000F035F86168C2
:101DF000A87B88736868626801789181437841EABA
:101E0000032191818178C01CCB0918BF0123137471
:101E100011F0070201F0070118BF012201EB410197
:101E20005118C9B2084410F8011B2172E060217AF0
:101E30004A00490802F00E0201F0380189180844EE
:101E40006061297A6A685318834227BF081A1018FC
:101E500000202072207470BD0B2200F03DBD0000F8
:101E6000704701780B29BCBF1821FFF799BC704758
:101E7000192195E438B5DFF8B0580446286828B130
:101E80001921FFF78DFC2846FFF7E3FD2046FFF7F9
:101E9000D9FD2C6031BD00007453002030B50446DC
:101EA00089B02078DFF88458032808D0052812D09C
:101EB000182804D01E2818BF1F280CD01CE00020B2
:101EC0008DF8180004F12F0103A800F056FF03213C
:101ED0008DF814100AE001218DF8181003A804F100
:101EE0002F0100F04AFF03208DF8140000F02EF8B7
:101EF000E88CADF8160015E002218DF8181003A843
:101F000004F11C0100F039FF03208DF8140000F0EB
:101F10001DF804F10F01E88CADF816000DF1190061
:101F2000FFF79AFF0B208DF800000DF11900617882
:101F30008DF8011004F10F01FFF78EFF684601F0E4
:101F40002FF809B030BD0000305300200221688D09
:101F5000ADF802008DF80A107047000038B504464D
:101F60006578280014D1DFF81017608FCA8C904272
:101F700018BFE82504F13000FFF703FE90B10021FF
:101F800084F83D10280003D12046FFF7ECFE0546FB
:101F9000280006D06570192020702046BDE8324028
:101FA0004EE431BD94F83D000028EBD0DFF88017F7
:101FB00091F820000028E5D1E825EBE718B585B0B9
:101FC00004218DF8041000F1300142788DF80520CD
:101FD000428FADF810200DF1060000F0B6FE0DF1B5
:101FE0000600FFF7CEFD20B100F02DF8DFF83C072A
:101FF000048401A800F0D4FF06B010BD18B587B066
:10200000044603208DF8040004F11C010DF10600C4
:1020100000F0B3FE616808788DF80E0004F10F013E
:102020000DF10F00FFF718FF04F11C00FFF7A9FDE9
:1020300020B100F008F8DFF8F406048401A800F0ED
:10204000AFFF08B010BD4FF6FF74ADF80040694611
:10205000532001F055BA000030B5054691B06868CC
:10206000DFF814464178480609D5E08CE98E8842AD
:1020700005D1DFF884150878D0B100F030F808A950
:10208000039102A82946FFF793FE2B208DF8080044
:1020900002A8FFF7D5FBA07810B19DF8180028B171
:1020A00005218DF8081002A800F07AFF11B030BDAC
:1020B00094F830000028E2D005F11C00FFF761FD24
:1020C0000028DCD105F10F0001210190009104F1FD
:1020D0001602E38C03210620FFF71AFEE6E700B59F
:1020E00085B009208DF80000EE218DF801106846BA
:1020F00000F056FF05B000BD2DE9F041054600F0A7
:1021000043FE441EA441E40F0DB101F0BBF9DFF81A
:10211000685501F028FB05F1390600277078DFF8D3
:10212000088601F0D3F83078DFF8CC6401F095F838
:10213000307801F079F8E88C01F081F8688D01F0D1
:1021400080F805F13C0001F083F808F15C0050F8DC
:10215000270000B180477F1C072FF6DB00F0E5F970
:10216000FFF7FDFA00207070FEF7A3FCFFF792FC6A
:1021700005F12901522001F0C3F90CB100F000FE75
:102180000020BDE8F081DFF870040FF26901016200
:10219000021D0FF23D3141620FF26D3181620FF28B
:1021A0001511C1620FF2052101630FF2BD114163E8
:1021B000DFF87415CA6000F13802203048610A6106
:1021C0000020088101F0C0BA64530020DA520020D8
:1021D00070470000F5102000072202700A7A827012
:1021E0008A7AC2704A68426000220272C969C1607C
:1021F0007047000038B50446DFF838550020687095
:10220000207A0628A4BFE8216970607A0E2804DDD0
:10221000217A032904D0E8206870207A032806D1A7
:10222000DFF80415087AC1075CBFE8216970214610
:102230002846FFF7D1FF6068800A286205F1240074
:10224000617A0170E17A4170217B8170617BC1709C
:10225000A17B01710A214171DFF81C1491F83A2029
:1022600082710B22DFF8D004A86104F10F01042071
:10227000287705F12B0000F02FFB6978002904BFB7
:10228000607800280BD1A87808B1EA21697001F0C4
:102290005FF826202070042001F065FC01E0292071
:1022A00020702046BDE83240FFF7CABA3C590020F2
:1022B000E853002078B5DFF87C440546A07885B067
:1022C00070B994F829100A290AD001F085F8E1685C
:1022D00094F82920114401F80B0C207A401C20723C
:1022E000216A94F8290049082162401CC90784F832
:1022F000290002D4C1B21E29F2DBC0B21E282CD0A4
:1023000004F12901E12001F0FBF802208DF8100012
:102310004FF6FF73A078ADF80830002818BF0228E8
:1023200003D1284600F020F81CE0012804F12B021C
:1023300007BF0820802107208321019200260096F4
:1023400002AAFFF7E5FCDB2818BFE52804D0F32834
:102350001CBFDF28E82805D1607029202870284696
:10236000FFF76EFA06B070BD38B5DFF8C843606895
:1023700004F1240101254A7905FA02F290436060D4
:102380003022A078032804D1DFF8A03393F8355029
:1023900002E009788D406D1C554308B901F01AF828
:1023A000294604F11000BDE8344087E1F0B5DFF8BC
:1023B00084530446A87802281CBF012805288FB042
:1023C0003CD1002006A96870019168462146FFF7BC
:1023D000EFFC2E7A95F8250086421BD2EF680BE0C1
:1023E0007889BDF82210884204D106A9384600F049
:1023F00099FC78B9761E2437F0B20028F0D12E7AF5
:10240000EB682422564306A9981900F065FA297A48
:10241000491C2972DFF81423907828B19DF8101018
:1024200011B995F8250010B9684600F0B9FD95F886
:10243000250038B1297A814204D101E0E820687092
:1024400000F040F80FB0F0BD7CB5044604F1240064
:10245000DFF8E0520178032904BF827A032A2CD1E5
:1024600004F11C014A2001F04BF8606801784278C1
:1024700001EB0221ADF80010861C6946502001F0E6
:102480003FF83078717800EB0120ADF80000694624
:102490004B2001F035F8B61C3146E12001F030F850
:1024A000701C0178407801EB0021ADF8001053203A
:1024B000694601F025F8002000E0E820687000F08F
:1024C00001F873BD292020702046FFF7B9B900003C
:1024D00010B5DFF8604204F1100000F008F900F0D8
:1024E00054FF042001F066FBA178032904BF607843
:1024F000002804D004F12A01E12001F001F820466F
:10250000BDE8104000F04CBDF8B501466846FFF745
:1025100063FEFC218DF80110684600F041FD05B016
:1025200000BD01460720FFF7B2B9844800210160D1
:1025300041604FF47F018160C160002101617047FB
:1025400038B57E4C00202061206868B14068A168E1
:10255000884209DA01F009FC21684D68A842B8BF39
:1025600028464860206820612069616831B118B14F
:102570004A684068824202DA216100E040B1206985
:10258000A1684068884203DABDE8324001F015BC1A
:10259000BDE8314001F037BCF8B500F0F5FB674D00
:1025A000441EA4412869E40F10B3A9684068814221
:1025B00003DA01F09DFB2869D0B101F0D6FB29694F
:1025C0004968884214D3002948BF01F091FB2F6964
:1025D000384600F08CF83E7BBF680CB100F0D0FBB1
:1025E0003046B84700F0D0FB441EA441E40FE2E7B8
:1025F00004B195E0F1BD0000D8540020D70F2000B1
:10260000D50F200070B505460C464C4E0DE06068B5
:10261000316928188C4202D1002848BF0020606030
:10262000002848BF01F064FB2468002CEFD170BD86
:102630003110200070B5414E00F0A6FB746831687F
:10264000451EB068AD414042FFF7DCFFB168ED0FB9
:1026500005E060688842A4BF401A60602468002CCE
:10266000F7D1F06881421CBFB06001F065FBFFF755
:1026700067FF05B11EE070BDC452002070B504466E
:102680000D4600F081FB461EB6412868F60F29462C
:1026900030B1626843689A42A4BF01460068F7DA25
:1026A0000C6020602868A04208BFFFF749FF06B110
:1026B00000E070BDBDE8704000F062BB38B5044674
:1026C0000D4601F052FB451965602046BDE83440D7
:1026D0001A49D3E70A6801E011461A462AB113687D
:1026E0008242F9D10B60012070470020704770B51D
:1026F000044600F049FB114E451E31462046AD41CF
:10270000FFF7E8FFED0F18B9311D2046FFF7E2FF94
:102710003069844208BFFFF713FF05B1CAE770BDF7
:10272000BDE8F14000F02CBB44420020C452002020
:10273000C44100202056002095172000C4420020EC
:1027400010B56148614B41F2FC7200218152186062
:102750004FF42774048000F5277048F2040141F219
:102760005C520180828010BD38B5012000F018F85D
:10277000050008BF01F0BCFA00F006FB5349441EF7
:10278000A441281F0860E40F284600F073F8504960
:10279000012008701CB1BDE8314000F0F1BA31BD34
:1027A0002DE9F84300240026051D15F003001CBF89
:1027B000291D0D1A00F0E8FA444FD7F800C0431E57
:1027C000434800789B41DB0F10B1A9B2112907D211
:1027D0006246D2F800E0CEF3C03119B1002627E0FE
:1027E0003C4AF6E7A9B2EEB1D4F80080C6444FEAFD
:1027F000D839CEF30E0E4EEAC93EC4F800E0CEF34F
:102800000E0E8E4514DB44B32268C2F30E06761B0F
:102810001FFA86FEBEF1080F13D3665245F4004539
:10282000258011E0CEF30E048C4221DA01261446F5
:102830001168C1F30E010A4411880029C9D100248E
:102840000BE042F40042226030B1A44504D120687C
:10285000C0F30E0021183960241D0BB100F090FA6E
:1028600014F0030018BF01F043FA2046BDE8F283DC
:102870001446C8E710B514498842044603D301F54D
:10288000C051884201D301F033FA54F8040CC0F36C
:10289000C03008B901F02CFA00F076FA54F8041CA4
:1028A0000A4A21F40041401E44F8041C8041136888
:1028B000C00F211F994238BF116018B1BDE8104008
:1028C00000F05EBA10BD0000BC590020BC790020A9
:1028D000A65900205C5C002003E011F8013B00F8E1
:1028E000013B13465A1E002BF7D1704710B5134613
:1028F0005A1E3BB110F8013B11F8014BA342F6D030
:10290000002010BD012010BD10B5044610460A4637
:102910000146204601F08CFA204610BD0146087899
:10292000497800EB012080B27047024602291078F6
:1029300003D1517800EB01207047032906D151786B
:10294000927800EB012000EB02407047042908D187
:102950005178937800EB0120D17800EB034000EB35
:102960000160704701F0ECBA10B5040001D10020FD
:1029700010BD04F1080080B2FFF712FF28B100215A
:102980000160FF2284808271083010BD80B508B9D3
:10299000052002BD10F8021CFF2901D0042002BD51
:1029A0000838FFF767FF002002BD0022FFE738B5B7
:1029B0000446A1B1DFF858331D78A84204D3084675
:1029C000FFF7E4FF032032BDA1F1080318680028D7
:1029D00004BF9879FF2804D00846FFF7D7FF0520E9
:1029E00032BD012A9C71DFF82C0302D100F087F878
:1029F00001E000F051F84FF40041204600F0CEF81D
:102A0000002032BD2DE9F041804600F0BDF90026DE
:102A10000024DFF80053471EBF412868FF0F58B15C
:102A200010F8021C414502D01CB9064601E0A4B9C9
:102A3000044650F8080CF2E74FF40041404600F01D
:102A4000C4F824B132462146284600F069F80FB197
:102A500000F096F92046BDE8F0814FF40041404671
:102A600000F09CF8EEE770B505460E4600F08CF9D4
:102A7000A8490C68401E8041C00F44B114F8021CE4
:102A8000A94206BF2378B34254F8084CF5D108B1E7
:102A900000F076F9204670BD38B500F014F8421EFB
:102AA0009241002045F8080CD20F216811B9256029
:102AB00006E0014651F8080C0028FAD141F8085CFC
:102AC00002B129E031BD04460D4600F05DB938B5CC
:102AD000044600F059F90025411E89412068C90FBC
:102AE00040B10546A5F10800002302682260FF24DA
:102AF0000360847109B100F043F9284632BD38B54E
:102B0000FFF7E1FF401E216845F8081C8041C00F17
:102B1000256000D000E031BDBDE8314000F030B9A3
:102B200070B504460D46164600F02EF9401EA5F17C
:102B30000801804123680A68C00F9D420CBF2260D3
:102B400046F8082C0022FF230A608B7118B1BDE8FB
:102B5000704000F015B970BDF8B506460D46174631
:102B600000F012F90024431E9B413168DB0F09B9C4
:102B700035600DE07A1E03E0D1B251B10146521E1C
:102B800051F8080C0028F7D1D2B212B141F8085C14
:102B900001240BB100F0F4F82046F2BD38B500F086
:102BA0002CF810D200F0F0F85B49096831F81420D5
:102BB000401E8041154321F81450C00F08B100F0A9
:102BC000DFF8002032BD032032BD38B500F015F823
:102BD00011D200F0D9F85049096831F81420401E8C
:102BE00022EA0505804121F81450C00F18BF00F0FB
:102BF000C7F8002032BD032032BD0D4644490A7893
:102C000090420446704780B5FF2803D100F0B8F821
:102C1000002002BD072002BD80B5FF2803D100F0CF
:102C2000B3F8002002BD072002BD80B5FFF788FD84
:102C300038490020086001F085F901F079FA01F0C7
:102C400081FAFFF791FD002002BD80B500F001F888
:102C5000FCE72DE9F04101F0E7FA2D482E4C017810
:102C600000262268F3B232F8130018B9761CF2B2CB
:102C70008A42F6D3F0B2884229D200F085F8216862
:102C8000F5B231F81580401E8041002221F8152050
:102C9000C00F08B100F074F8204F214A3E70414641
:102CA00052F82530F0B298470646FF20387000F001
:102CB0006BF8216831F81520401E8041164321F839
:102CC0001560C00F18B1BDE8F04100F059B8BDE87B
:102CD000F08101700A0A0B0C090E42708370C170FA
:102CE000001D704701700A0A090C42708170C01CF7
:102CF000704710B540B1002300E05B1CDCB2944289
:102D000004D2045D8C42F8D0002010BD012010BD1B
:102D1000F23C2000385900203C5900200543002097
:102D2000A8412000027A0B7A9A420CD15AB1022AA9
:102D300005D100880988884205D101207047032AFF
:102D400008BF00F00CB8002070470A7A0272032A0C
:102D500004BF0822FFF7C0BD0B880380704710B581
:102D6000082210F8013B11F8014BA34203D1521E77
:102D7000F7D1012010BD002010BD0822FFF7ACBD27
:102D800080B501F057FA02E080B501F04FFA00B1CA
:102D90000120C0B202BD10B50FF22412830852F810
:102DA00023201368C00000F01800FF248440A343D0
:102DB00081401943116010BD04283D4903D10868C2
:102DC00040F480300BE0052804D10A6842F4003258
:102DD0000A607047062804D1086840F48020086023
:102DE00070470F2805D13348016841F002010160A6
:102DF00070470CD90FF26C13A0F110011038400984
:102E000053F82000012201F01F018A400260704740
:102E10000428274903D1086820F480300BE00528F6
:102E200004D10A6822F400320A607047062804D1EF
:102E3000086820F48020086070470F2805D11D48DD
:102E4000016821F00201016070470CD90FF22813CC
:102E5000A0F110011038400953F82000012201F0C0
:102E60001F018A40026070470E28134904D1086888
:102E700040F00060086070470F2804D10A6842F0F3
:102E800000720A6070470CD90FF20013A0F1100213
:102E90001038400953F82000012102F01F02914030
:102EA000016070470548016841F001010160704709
:102EB00024ED00E010E000E004ED00E098200D407B
:102EC0000000000018ED00E01CED00E020ED00E047
:102ED00000E400E004E400E008E400E00CE400E0CA
:102EE00010E400E014E400E018E400E01CE400E07A
:102EF00020E400E024E400E028E400E02CE400E02A
:102F000030E400E034E400E038E400E03CE400E0D9
:102F100040E400E044E400E048E400E04CE400E089
:102F200050E400E054E400E058E400E05CE400E039
:102F300060E400E064E400E068E400E06CE400E0E9
:102F400070E400E074E400E078E400E07CE400E099
:102F500080E400E084E400E088E400E08CE400E049
:102F600090E400E000E100E004E100E008E100E0BE
:102F70000CE100E010E100E080E100E084E100E02D
:102F800088E100E08CE100E090E100E080E200E018
:102F900084E200E088E200E08CE200E090E200E001
:102FA0002DE9F14382B0067892A18D5DADF8005015
:102FB000002D4AD00D2E4FF6FF7911D169465320CE
:102FC00000F07EFABDF800004FF6FE7188421FBF88
:102FD00048450299087A002800F0AB800C466DE065
:102FE000052E4FF0240804D102990A7C243250198E
:102FF0000AE0072E0AD102998878002828460EBFD9
:103000001B300A7A08FB0200ADF80000BDF8000092
:10301000FFF7AAFC04001CD10C2E16D102994868B7
:10302000002812D0FFF7B0FE471E0298BF41001DD6
:10303000FEF70FFDBDF80000FFF796FCFF0F040040
:1030400004D1002F01D0FFF79BFE96E00FB1FFF7F0
:1030500097FE02992A462046FFF73EFC052E12D124
:103060006168242204F11800FFF736FC04F118000F
:103070006060227C61692430FFF72EFC606800F1FB
:10308000240161611AE0072E18D153480568ADB1DB
:1030900000210160A07828B904F11001E1601B2231
:1030A000E06805E0217A04F1100008FB01F2E0601D
:1030B0002946FFF711FC2846FFF7DCFB474801686B
:1030C00019B12046884700284DD10D2E444834D1EF
:1030D00002994A6813785278C3F3830103F003031B
:1030E000022B0ADA3F4B9D7CA94201BF12F0C00FB0
:1030F000029A92F82430022B09D0032919D1029A9E
:103100000121117000780299FFF74FFC35E094F827
:103110003B0004F13A0100F046F80298C18C4945A1
:103120001CD141688879022818DB204601F092FA08
:1031300018B302A8FEF78DFC1FE00C2E1FD10298D9
:1031400041781A291CBF6068002807D0807DC1071C
:1031500004D5207C04F10F0100F025F82248007806
:103160002146FFF722FC0C2E18BF112E05D1029923
:10317000486810B1081DFEF76CFCBDE8F783112EFE
:10318000ECD10021217021460078FFF70EFCEEE71C
:1031900016480078002814BF012801F0E0B900208B
:1031A000704700207047124A1278A2B10B7832287B
:1031B000B8BF322002DB6F28A8BF6E20012A04D1DD
:1031C000323858433C2290FBF2F398B2B0F5807F3E
:1031D000A8BFFF230B707047F858002058590020F3
:1031E000845700204C5200200C59002078410020C8
:1031F000B459002000161000001815100200022417
:10320000144000001014000065480B218170FF215C
:103210004170C1700170704780B500F0B6F8BDE82C
:103220000140D9E001F030BB5E490A68030018BFD5
:10323000012322F0020242EA43020A6070475A491F
:1032400000E05A4900F0FF020A60000A4860704737
:1032500001460822564801F0B9BC70B5554D2E788C
:10326000044640B271B28142B8BF344604DB69788B
:103270004AB29042B8BF0C46FFF786FD401E484A4E
:103280008041361BB61CF6B2C00FA95DD17008B1E3
:10329000FFF776FD00F002F8204670BD38B5FFF765
:1032A00073FD3F4AD3781478411E8941C90FA34268
:1032B00009D0414D287830B9404C2078050602D419
:1032C0003F481370036001B116E031BD38B50446C4
:1032D0000B38122828BF00F00BFDFFF755FD3049D1
:1032E000364A8C70451EAD411078ED0F08B900F0DC
:1032F00007F805B100E031BDBDE83140FFF740BD42
:1033000010B52E49087808B100F0F2FCFFF73CFD3B
:10331000234CA1786278401E8041C00F914211D0A9
:10332000617008B1FFF72CFD00F0B0FC6078254912
:1033300000EB80002C38086001F0ADFCBDE81040C7
:1033400000F065BC18B1BDE81040FFF719BD10BD15
:1033500038B51D490546087808B100F0C9FC1B4C7A
:10336000207808B100F0C4FC28000CBF0120032D18
:1033700009D0012D1CBF022D00F0BAFC0A49FF2222
:103380000A6002204A60207031BD1049104A0020B6
:1033900008700549D08C00F0FF030B6055E7000072
:1033A0002859002000860840C8850840D08508407C
:1033B000A885084088EF210042570020545700207C
:1033C000408608403C8608400243002041570020C8
:1033D000C452002001F0A9BB80B501F0B0FBBDE8EC
:1033E0000240493840B210F1570FB8BF6FF0560095
:1033F00002DB0B28A8BF0A205730C0EB0020612158
:1034000090FBF1F0C0B27047EDE7F0B402461068EF
:1034100095681318506803EB5004C0071DD54D4440
:103420001BE013F8017B05F8017B491EF9D1A0B11F
:10343000B60813F8011B06F00306032E08BF13F8A5
:10344000016B01EB06214942801C294405D011F88B
:10345000016B05F8016B401EF9D1A3420ED013F8A1
:10346000016B16F0030104BF13F8011BC91C3009DE
:103470000F28DAD113F8010B0F30D6E7F0BC02F1B8
:103480000C00704710B5664C67A120466C2201F015
:103490003BFF1434FFF7C6FEA073FFF7C3FE207096
:1034A00010BDA0F140021E2A38BF403804D3A0F15D
:1034B000E0010F2902D23E30C0B270472D20704784
:1034C00070B50D46FFF7EDFF06462D2E01D1F42015
:1034D00070BDFFF759FC524BB0F101046DA000EB39
:1034E000860110F826004A78A44119182846FFF7EB
:1034F000F3F9E40F0CB1FFF743FC002070BD0000AE
:103500002DE9F041F12805460E46DFF8148111D16E
:10351000317801290AD1022000F04CFB2846FFF740
:10352000C0FF2D28014612D1F42077E0022000F0E0
:103530001AFBF3E7F02805D130783A490870FFF715
:1035400073FEEBE74528E9D1C8F8086065E000BFE5
:1035500050A000EB8107B978002904BFF878002853
:1035600015D0F878814208BFFB2057D0582D05D1DF
:1035700030888F3846F22241884206D23078B978B6
:10358000884224BFFA78824201D2E82046E0FFF761
:10359000FBFB7A78441E387831464044A441FFF75B
:1035A0009BF9E40F0CB1FFF7EBFB502D08F12A005B
:1035B00010D0522D17D0532D11D0E02D27D0E12D52
:1035C0001CD0E22D1ED0E52D25D0E62D04BF32788B
:1035D000C27722E0B8F82600FFF731FE1DE0008830
:1035E000FFF72FFE19E098F8290018B1022000F02B
:1035F000BAFA12E0022000F0DDFA0EE0007CFFF7DC
:1036000065FE0AE008F13C00FFF722FE05E0C07B02
:10361000FFF723FE01E0317881770020BDE8F081DB
:10362000C4520020D85400203600010006000000DB
:1036300000000000000F000000000000000000007B
:103640000000000000000300FFFF00000403FFFF74
:103650000000FFFF0F00F4010005C4040320000177
:1036600000000B0000000000000000000300010F3C
:10367000000000000000000000000000000000004A
:10368000000000000000000000000000000000003A
:1036900000000000000136360101000102010001B6
:1036A0000301000104010606080400000C010034B7
:1036B0000D01000F10040101140100FF16080000A5
:1036C00020020000220100FF23010001240100FE6E
:1036D000250100082602000028010001290100013F
:1036E0002A0200002C01000F2E0200003001000110
:1036F00031010008320200FF3401000735010240A9
:10370000360100003701000138010001390100FFD6
:103710003A010B1D3C080000460100084701000F5C
:1037200048010001490100FF4C0400005004000062
:1037300054040000580400005C0400006004000011
:10374000640400006804000080B500F0FBFFFFF790
:103750005BFD00F003FA01F06FFA00F04FF8BDE8EE
:10376000014000F0C7BA80B5FFF70EFB18B9FFF7AC
:1037700007FB00F0BDFA0849087818B901F081FA92
:10378000FFF74AFD00F0CEFA01F0EAFD03490120FF
:1037900081F8480001BD000002430020C45200200F
:1037A0001CB50446E73808280AD269462046FFF7C8
:1037B00087FE0098401C009069462046FFF7A0FE57
:1037C00013BD30B4002513E050F8042BD30744BFD9
:1037D000A9F101039A18091F042942F8045BFAD2DF
:1037E00013468C0744BF15809B1CC90748BF1D703A
:1037F00050F8041B0029E7D130BC7047DFF83403D0
:103800000FF2AD23036100210170C171704738B51B
:10381000DFF820430546207808B100F069FA01215D
:10382000C54A2170107818B1BDE832401D205AE118
:10383000657028460228C14D02D101F056FE19E0FC
:1038400000281CBF012800F053FA002020712A68CC
:10385000BB49907D420660784CBF91F8462091F8B4
:10386000252020B9C87810B1022AC8BF0222A27050
:1038700000F03BF8E179B1B9286808B900F038FAEE
:103880002868B04D4268117801F02001A171EE2343
:1038900091786171017A501E8A1C02702B60491C5C
:1038A000C9B201F0A7F9FFF76FFAA7490A78451ED8
:1038B000A6480078AD41ED0F024307D18320207068
:1038C0000DB1FFF75DFABDE8314023E0202804D1B7
:1038D0000E2104F10800FEF7F1FE022020701DB158
:1038E000BDE83140FFF74CBA31BD10B5FFF79AFC87
:1038F000904B93F9022001249440611E0840D87037
:10390000587818B9BDE8104001F0A9BDBDE81040D5
:1039100001F092BD8E488D4A016849084900016056
:103920000020107083494878022808BF01F0F1BDDB
:1039300010B5804C607840B9FDF7B6F9E178814266
:1039400003D3BDE810401C20CDE0BDE8104001F0DD
:10395000A1BD10B5774C0121E171ED20FFF720FFEB
:103960006078BDE8104052E780B57749774B0A7818
:103970001878024318BF00F0BBF9FFF705FA6D494C
:103980000A78401E8041C00F022A07D183230B70A2
:1039900008B1FFF7F5F9BDE80140BBE718B1BDE894
:1039A0000140FFF7EDB901BD10B5624C6078002809
:1039B0001CBF012800F09CF90420207000F039F9A8
:1039C00021796448491C2171C9B202788A4203D224
:1039D000BDE81040E12086E0A178407B4A1C82428D
:1039E000B8BF481CA070FFF780FF83202070BDE89F
:1039F00010409DE710B5FFF7C7F94E49441EA4419A
:103A00000878E40F83280ED1887940B985220A709E
:103A10000CB1FFF7B5F9BDE81040002063E0862047
:103A2000087001F0D5FD04B13DE010BDF8B50446C5
:103A30000D46FFF7A9F93F4F461EB6413878F60FFD
:103A4000862812D18721397001F036FE0EB1FFF7BA
:103A500097F97879844204D1002D0CBF00201B20F7
:103A600000E0E920BDE8F2403DE01EB1BDE8F140D4
:103A7000FFF786B9F1BD10B5FFF786F9441E2D4852
:103A80000178A441E40F86290AD18722027001F04F
:103A900013FE0CB1FFF774F9BDE81040E92022E0F5
:103AA00004B100E010BDBDE81040FFF769B90000A7
:103AB000264810B501781F4C20290ED124490A68E8
:103AC000520852000A60002101702078022801BFCC
:103AD0001D4908780028FFF747FF04F10800BDE8FA
:103AE0001040FEF704BE10B50446124800211B2CFE
:103AF000C171017004D01848017801F0FE01017015
:103B000000F097F8FFF7CAFBFFF7FAFB2046BDE885
:103B10001040FDF732B910B5084C206808B900F024
:103B2000E7F800F036F92168C86000F0C6FE2168A9
:103B3000088210BD5457002002430020404200205C
:103B4000C4520020388808404057002042570020C7
:103B500090860840E8520020B35700205E480021BC
:103B600041700170704738B5050008BF00F0C0F81B
:103B7000FFF70AF9441E58484178A4410D434570A7
:103B800000F070F8E40F1CB1BDE83140FFF7F8B861
:103B900031BD10B5040008BF00F0AAF8FFF7F4F833
:103BA0004D494A78401E80411443C00F4C7000B10B
:103BB0003BE010BD10B5040008BF00F099F8FFF716
:103BC000E3F845494A78401E84F0FF0480411440E0
:103BD000C00F4C7008B1FFF7D3F8BDE8104028E0E3
:103BE00010B5FFF7D1F83C49401E804100224A70D1
:103BF0000A70EF2239490A60ED240C60C00F0C6096
:103C000008B1FFF7BDF8BDE8104001F044B810B5A9
:103C1000FFF7BAF83049441EA4414878E40F08B1D0
:103C200000F020F804B100E010BDBDE81040FFF73F
:103C3000A7B810B5FFF7A8F82749441EA441487853
:103C4000E40F60B926490878020608D425490878A7
:103C500028B925490878020658BF00F017F804B1C2
:103C6000E3E710BD80B5FFF78FF81B4A411E89417D
:103C70001078C90F20B901231370E320174A106090
:103C800019B1BDE80140FFF77BB801BD70B5FFF782
:103C90007BF81149451EAD410878ED0FA8B100220F
:103CA000124E0A70EF207060ED2171607160FFF7B5
:103CB0006BF8441EA4412A20FFF7D6F86FF00400E9
:103CC000E40F30600CB1FFF75BF81DB1BDE8704048
:103CD000FFF756B870BD0000B25700203888084082
:103CE0004057002042570020545700203488084095
:103CF00070470C0080B5002000F023FE4FF47F00D9
:103D000000F01AF847486FF0080141606FF01001A9
:103D1000026842F0080202604160026842F010024C
:103D2000026001BD3F48016821F010010160026896
:103D300022F008020260DDE738B5054600F0D0FD4C
:103D4000A84228BFFFF7D4FFFFF71EF8441E3648ED
:103D500005602846A44100F035FEE40F04B100E000
:103D600031BDBDE83140FFF70BB838B5FFF70CF8AF
:103D7000441EA44100F0B4FDE40F05460CB1FEF76B
:103D8000FFFF294801688D4201D3002032BD28463B
:103D900032BD38B5FEF7F8FF441EA44100F0B6FD71
:103DA000E40F05460CB1FEF7EBFF1F4801688D429A
:103DB00001D3002032BD284632BD70B51A4D0446ED
:103DC0002868844228BFFFF793FFFEF7DDFF6C6091
:103DD000461E2046B64100F0D4FD00F081FDF60FEE
:103DE00084420AD111496FF0100008600EB1FEF74D
:103DF000C7FFBDE87040FEF7CFBB1EB1BDE8704005
:103E0000FEF7BEBF70BD7047FEF7C6BB80B500F0C1
:103E10009FFEBDE80140FEF70DBC034800687047F7
:103E20000000000008880840AC5800200C880840BA
:103E300062F30F2262F31F42401810F0030308D010
:103E4000C91A1FD3DB0748BF00F8012D28BF20F88F
:103E5000022D130030B414461546103928BF20E94E
:103E60003C00FAD8490728BF20E90C0048BF40F8B9
:103E7000042D890028BF20F8022D48BF00F8012D2D
:103E800030BC7047C91818BF00F8012DCB0728BFF8
:103E900000F8012D7047000080B568B9FF20FEF7DB
:103EA000BBFE0021002001F04FFC2049204B0020E8
:103EB000087001221A7001BD1E4900200870BDE87B
:103EC00004400FF2390101F03FBC70B51A4E0D46A7
:103ED0003178FF2904460DD00420FEF745FD38B1A6
:103EE000C02101708570C47001463078FEF75DFD19
:103EF000002070BD012070BD00000000810801F0AD
:103F00000101E2E710B501F023FC53280CDA4F2839
:103F10000A480168ACBF0124002419B120460228D8
:103F2000B8BF8847200000D0012010BDFC570020FA
:103F3000B5590020A5590020044300203459002021
:103F400000F0ADBC794900204860704770B5044668
:103F50000D46164600F018F808B1466070BD1020F6
:103F6000FEF71EFC78B18472058146600021016075
:103F7000C1606E490A6812B9086070BD0A461168CE
:103F80000029FBD1106070BD20B50246674800686B
:103F900028B103898B4204BF857A9542F7D120BDB1
:103FA000F8B505460E461746FEF7EEFE3A46314690
:103FB000441E2846A441FFF7C9FFE40F05460CB193
:103FC000FEF7DEFE0DB10020F2BD0820F2BDF8B50F
:103FD00004460D461646FEF7D7FE471E32462946D2
:103FE0002046BF41FFF7B2FFFF0F040018BFE66095
:103FF0000FB1FEF7C5FE0CB10020F2BD0820F2BDE6
:1040000070B504460D46FEF7BFFE461E2946204603
:10401000B641FFF7B9FFF60F04001CBF0020208156
:104020000EB1FEF7ADFE0CB1002070BD062070BDD4
:10403000F8B504460D46FEF7A7FE0026471E2946A2
:104040002046BF41FFF7A0FFFF0F00B146680FB148
:10405000FEF796FE3046F2BD2DE9FC410446334F93
:10406000FEF792FE7968401E80416118C00F7960AA
:1040700008B1FEF785FE3D68002D52D04FF00008D4
:104080000094FEF781FE0024461EB641BDF80200F2
:10409000F60F002804BF9DF80100002807D12879F9
:1040A0009DF80010884202D3401A287106E0686823
:1040B000009981423ABF401A68606C60A88860B974
:1040C000E88860B9E86800281CBF298900290AD05F
:1040D000A87AFEF763FDE8686860A88808B9E888F0
:1040E00008B1288940B92868B8F1000F0CBF3860C2
:1040F000C8F800002C4600E0A8462D680EB1FEF777
:104100003FFE64B1A088002804BFE088002803D1E6
:104110002189A07AFEF742FD2046FEF7ABFB002D79
:10412000AFD1BDE8F381014840687047DC580020FA
:1041300003480021817101807047014988717047EF
:10414000D458002080B51820FEF72AFB15490860D6
:1041500018220021FEF7D8FB002001F005FB01200A
:10416000FDF7ECFB022001F04DFC032003F06AFD9B
:10417000042003F0C7FE052004F0D0FA062004F066
:10418000BBFD072006F0CAF8082006F0C9FA09208E
:1041900006F0F4FC0A2007F061FFBDE802400B20A6
:1041A00000F01AB83C59002073572000491920002C
:1041B000515A2000517C2000357F20002B8C20009C
:1041C000A98D200053A3200033A72000A9B7200009
:1041D000CDBE2000ED41200012490870704780B527
:1041E00007F078FFBDE8014008F048B938B50C4643
:1041F00021040BD50B4D01E0FEF7C8FB2878FEF734
:1042000001FC0028F8D184F4004032BDA00602D59C
:1042100084F0200032BDE00602D584F0100032BDEB
:10422000002032BD9E59002008F02AB9EFF310801B
:1042300072B67047EFF3108062B67047DFF8D8149B
:1042400000200860704780B503F0A4F860B9002230
:10425000012100F042F900281CBF0168002903D0A9
:10426000BDE8024001F0EBBD01BD80B5042000F0C7
:1042700024F9DFF8A8140A78824207D3FF2000F05F
:104280001CF9DFF89C140A78824201D2012002BD99
:10429000002002BD2DE9F04107468846387B00F03A
:1042A0002EF900250446012624BB7A89397B38681B
:1042B00000F0BDF8040062D025810125387C20740F
:1042C000788A608207F1100009F0E3F86061388BAA
:1042D00061892083B87EA0764FF67F4001406181DE
:1042E00048074FBF41F08001DFF83804027841EA07
:1042F000C21161816289D009B8F1000F00F0070096
:1043000012D00221617321688B7B590703D5DFF836
:1043100018140B8A238120B34FF67F410A40401EB8
:1043200042EAC01262811CE008B9002619E090063A
:1043300005D5FEF717FB00F07F005F3008E0D006E0
:1043400005D5FEF70FFB00F00F000A3000E001205A
:104350002081202104206073DFF8D0030078FEF76D
:104360001DFC6DB12289617B204600F073F838B1E5
:10437000606908B1FEF77EFA2046FEF77BFA002658
:104380003046BDE8F0817FB500F0B9F80024B8B33D
:10439000417B062934D1016844890A7A8DF80820C6
:1043A00001680A88ADF8002000F0EDF8200526D558
:1043B000BDF80010002000F026F800BBDFF86853BD
:1043C000A98C68460AF04AFC0021002000F01BF886
:1043D00004464FF6FF760DE020680188B1420ED00A
:1043E000A98C0AF039FC1A2809D00021204600F0D7
:1043F0000AF80446002CEFD100200AF031FC012419
:10440000204604B070BD58B1406868B142891305B8
:10441000FAD50A001EBF026813888B4204D0F3E766
:10442000DFF8F4020068F0E770470120704770B5CC
:1044300004460D4616461C20FEF7B2F948B100218D
:1044400041730573468101818173C17304604161C9
:10445000416070BD70B504000E4615462BD0012E8C
:10446000304606D100F029F8B1490A7882420CD2D0
:1044700007E0042E07D100F020F8A8490A7882420C
:1044800003D2112070BD022E15D10020606066732A
:104490002581A148016831B100E001464868002843
:1044A000FBD14C6000E00460A04800782021FEF7BA
:1044B00075FB002070BDC12070BD10B5964909681C
:1044C0000246002005E04C7B4968944214BFFF2A55
:1044D000401C0029F7D1C0B210BD10B558B14068DA
:1044E00060B1437B8B42FAD1130007D003689C7BF9
:1044F000630703D5F3E788480068F1E710BD01467C
:104500008548006800E0406800281CBF027B8A42A2
:10451000F9D1704701468048006800E0406850B11A
:10452000026813888B42F9D1126A1378527803EB30
:104530000223DB05F2D47047F8B5054600272800B2
:104540000E460AD07448046800E064682CB1314615
:104550002046A8470128F8D127463846F2BD00205A
:10456000704718B56C4A13681946002401E00C46E0
:10457000496839B18142FAD14868994201D1106045
:1045800011BD606011BD10B5040011D0FFF7E9FF47
:104590002068006AFEF76EF92068FEF76BF9606923
:1045A00008B1FEF767F92046BDE81040FEF762B992
:1045B00010BD70B50168584B0A88196800230024A3
:1045C00009E04D7B052D01BF641C0E6835889542BE
:1045D000496808BF5B1C0029F3D1564A5249157837
:1045E000DBB2AB423FBF544B1D78E4B2AC422CBFB0
:1045F00001220A8A02814FF6FF7305224273428923
:1046000042F400624281006802889A4204D0898C98
:104610000AF022FB1A2804D1BDE8704001200AF0FC
:104620001FBB70BD70B53C4D2C68002C0EE021689E
:104630006668086AFEF71EF92068FEF71BF96069D4
:10464000FEF718F92046FEF715F93400EFD10020E7
:10465000286070BD10B501000AD0A1F108021068F1
:10466000002804BF9379FF2B04D00846FEF78EF98B
:10467000052010BD2D4C20789071304802783048CC
:10468000FEF76AFA012806D120784FF40051FEF7B0
:1046900085FA002010BD042010BD70B5FEF774FB34
:1046A000274E3468451EAD41ED0F8CB11F4854F8BC
:1046B000081C007800294FF4005102D0FEF76EFA72
:1046C00001E0FEF782FA002221463046FEF728FA82
:1046D0000DB1FEF755FB204670BD70B505460E487E
:1046E0000468002614E021680A88AA420FD100203D
:1046F0002081A07A410744BF207B0BF05DFC06219E
:104700006173F0212068407B01F0FAFB761C64683D
:10471000002CE8D1F0B270BD84590020AAED210030
:10472000ABED21000D4300204C5200200C5900201D
:10473000A9ED2100ADED2100AEED2100B9ED210084
:1047400088590020F8B5DFF83C0488B014210160D6
:104750003F2282605523DFF83044C360FC2161634F
:104760008522E267012141611522DFF8205442626F
:104770000021A967102202630E2141630322826394
:104780000920DFF80C74042378650B221A60FF26D9
:104790003E6080212A20FEF7FEFA80212B20FEF7C2
:1047A000FAFA2A20FEF708FB2B20FEF705FB8021F2
:1047B0003120FEF7F0FADFF8DC03DFF8C4630168AC
:1047C000090C3160FEF7E0FA401E80410221F967D2
:1047D0000022DFF8C4130A602823C00F4B6008B121
:1047E000FEF7CEFADFF8B40301680A03FAD5386F92
:1047F00040F003003867386F4107FCD5386F40F050
:104800000A0038673120FEF7D7FA48202060FFF70A
:1048100029FA206CC107FCD500211020A26F530893
:104820004941401E89B2F9D1002914BFB1F5607F1A
:104830004BF6BE21DFF8680301F0FF0202600912A7
:104840000160716879B1002200230820A66F770803
:104850005B41401EFAD16846D6B2521C8355D3B292
:10486000202BF1DB8847FFF711FA4020206000225F
:10487000216841F0200121602A606A60AA60EA6034
:104880002A616A6109B0F0BDDFF81803016821F000
:104890000C0141F0040101608069C0B27047DFF88B
:1048A0000403016821F00C0141F0040101608169F9
:1048B000406900EB012080B2704710B5FEF764FA42
:1048C000DFF8E412401E804101220A60C00F8A68AE
:1048D0004C6844EA022408B1FEF752FAA0B210BDB7
:1048E00080B5FEF751FA00F009F84B684A698DF877
:1048F00000200B698DF80130002318E0DFF8A812C2
:10490000401E804100220A60C00F704780B5FEF74C
:104910003BFADFF89412401E804110220A60C00F5B
:104920004B698DF8003000230A698DF80120CA68B0
:104930008DF802208DF8033008B1FEF721FA0098B7
:1049400002BD01B5000E18BFFFF7D2F9FFF7C8FF8F
:10495000964AD3680099C018401AD060FEF714FA3E
:10496000FFF7CCFF9DF800304B619DF801200A61F4
:104970009DF80220CA6018B1BDE80140FEF700BAF8
:1049800001BD11B5002481B0000E18BFFFF7B0F9CA
:10499000FEF7FAF900F038F8D30604D50A6822F0D9
:1049A000100201240A6030238B606FF0100300F0C6
:1049B00031F84B601CB10A6842F010020A6000B185
:1049C00032E013BD11B5002481B0000E18BFFFF70F
:1049D0008FF9FEF7D9F900F017F8130704D50A6824
:1049E00022F0080201240A6020238B6000F012F8F4
:1049F0004B6823F008034B601CB10A6842F00802C0
:104A00000A6000B110E013BD69490A68401E804188
:104A1000C00F70479DF80420CA619DF805208A6187
:104A20009DF806204A617047BDE81340FEF7A8B91B
:104A300038B55F4C256860680540E80604D5FFF787
:104A4000E3F96FF010006060280704D5FFF7DEF986
:104A50006FF008000CE0E8070BD556490868564986
:104A600091F900309842B8BF184608706FF0010005
:104A7000606031BD70B5514C514D666C2A20FEF717
:104A8000F3F928683040010705D56FF00800286069
:104A900000F01DFE13E029683140C80605D56FF00F
:104AA0001001296000F01AFE09E028680640F107AD
:104AB00005D5606C40084000606400F09FFB206CEE
:104AC00069680840400707D500F025F96FF0040039
:104AD000686021684806F7D470BD10B539490C6884
:104AE0002B20FEF7C1F93848016821404A0603D55A
:104AF0006FF04001016010BD02682240D10708D567
:104B00006FF001020260FFF76BF8BDE81040FFF79D
:104B1000A9B801680C40620706D56FF00401016076
:104B2000BDE8104000F0B3BB10BD23496FF07F001B
:104B300008701F48026842F00102026070471C487A
:104B400001684908490001601B4890F9000070475E
:104B500038B5FEF719F9154D441EA4412878E40F25
:104B600028B9FFF75AF9E9684018E86001E0002029
:104B700028701CB1BDE83140FEF702B931BD00001C
:104B8000B4580020A4860840248608409085084038
:104B900094870840F80F28001488084004200D402E
:104BA00014700D4000700D4010880840DC57002044
:104BB0000888084060860840A25900204C860840BA
:104BC00030880840948608402C88084004E011F89A
:104BD000013B40F8043B521ED3B2002BF7D1704783
:104BE00004E050F8043B01F8013B521ED3B2002B05
:104BF000F7D1704738B504460D0008BFFFF778F8C5
:104C00006D1E14F8010B0B49EAB2002A0860F7D1B7
:104C100031BD38B504460D0008BFFFF769F80548F7
:104C2000016804F8011B6D1EEAB2002AF7D131BDFC
:104C300000000000288808400021DFF88C06416150
:104C400000220FF2F901C2728280016182718281B9
:104C50008273704738B5DFF8745605202860FEF778
:104C600093F800F053F8DFF868166FF00400E40FD3
:104C700008600CB1FEF784F8E86B40F00400E863CC
:104C800031BD80B5FEF7ACFFDFF83C16002048715F
:104C9000BDE8024000E310B5DFF82C46207B01217F
:104CA000617318B900F003F80020607310BD38B5C7
:104CB000DFF81806DFF81856016C4908490001644E
:104CC00005220260ED2068606860FEF75DF800F084
:104CD0001DF86FF00400E40F28600CB1FEF750F8E7
:104CE000DFF8E445606918B104F11400FBF774FFC4
:104CF0000FF2490021792061A079014305D00021FC
:104D00002171A171BDE8314085E231BD441EA4414D
:104D10002A20FEF7A9B810B5DFF8AC45607B58B97A
:104D200001212173206980470021607B217318B124
:104D3000FFF7BDFF0020607310BD00002DE9F84FA4
:104D4000DFF884753879002508B1FEF7D1FF81219D
:104D5000DFF880253971107838B1DFF87C45606A5A
:104D6000010606D4606A410603D43D7100F053FA8F
:104D700053E100F014FCA06EDFF86095400840009D
:104D8000A066BD7104217879B8723846FFF741FFFB
:104D9000387800F07F00C01EF871C0B27D28BEBF19
:104DA000787800F0070104296BDA00F00700022888
:104DB00004BFF87A0028DFF828653AD100F07CF9C2
:104DC000FDF7E2FFB0F10108307868EB08088628AB
:104DD0004FEAD87429D1DFF80C55286808B9FEF7D6
:104DE00087FF9DF90000A0F149069DF8010000F041
:104DF0007F09494670B2FEF707FB296848772868A3
:104E000080F81E902968CE770CB1FDF7B9FF9DF8A8
:104E10000100010606D57978F87801F01001FEF757
:104E200005FE33E0FEF727FE30E07CB3FDF7A8FF78
:104E30002CE03078862808BFFEF71DFE7A78B97A14
:104E400079B1F87A68B9012936D0022903D112F074
:104E5000070F31D105E0032903D102F00700032831
:104E60002AD1B978C1F381004FEA91180090DFF898
:104E70007814086868B9B8F1010F1CBF00980128C0
:104E800007D1ED21C9F80810C9F8081000F0A2F9FF
:104E9000C3E000990FF26C40465C10F808008619D8
:104EA000B8F1000FF6B203D0500644BFB61EF6B2FA
:104EB000F879B31C984202DA00F0B6F9ADE0801B35
:104EC000801E7872110748BF2525C0B245194C35A0
:104ED000A8B2FBF773FE786118B9E820C9F808009A
:104EE000EAE7F87A4FF0000A18B9787800F0200065
:104EF000B871B879A8B3FDF747FFB0F1010B787826
:104F000000F007006BEB0B0B03284FEADB7B0CD1A7
:104F1000FBF73FFE002870D1DFF8D0130878002897
:104F200067D00BF033FCFE2867D0206820F0040027
:104F30002060FDF729FF451EAD412A20FDF794FFB3
:104F40006FF00100ED0FC9F800000DB1FDF718FF7B
:104F5000A06E40F00100A066BBF1000F18BFFDF786
:104F60000FFF786900F14C0141600164797A0172A8
:104F70007869017A80F844107878010710D579694A
:104F8000032081F84400791C786940300279006878
:104F9000FDF7A2FC786950F8401F02790A440260CC
:104FA000786980F824807869009980F82E10FFF7DE
:104FB000ADFC79690863FFF780FC796988867878A9
:104FC00000F0070008737969F87881F83D00797876
:104FD000B878C0F3011001F0780108434AEA0001F3
:104FE000786981737EB90FF2FD00386100F067F8CF
:104FF00013E0FBF7C2FD002897D020684FF0040AA9
:1050000040F0040094E73E727978387A0A0758BF76
:10501000401EA0620FF209003861BDE8F18F000068
:1050200030B5A94C207A85B008B9FEF761FE00F0D2
:1050300042F8A0786946C0F38100C8B162699DF862
:1050400000304D7803EB052313870328138FD38695
:1050500008D10DF1020102F12600FDF78EFE0DF1DF
:105060000A0105E08878C97800EB0120D08401A905
:10507000A078800915D06269937B5D0605D40B7812
:105080004D7803EB0523D386891C032804D102F154
:105090001C00FDF772FE04E00878497800EB01205F
:1050A000908300206169C8750FF23900206100F01B
:1050B00006F805B030BD217A6846FFF7AABD8249DF
:1050C000824A487A28B9012010600FF23D020A6135
:1050D00070471028A8BF10200872087A401E106080
:1050E0007047000010B5784C6269217A106CFFF7A8
:1050F00090FD6169207A0A6C02440A64617A081A98
:105100006072BDE81040DAE72DE9F8436E4D0221E8
:105110002846FFF77EFD6E78002406F080063000FA
:105120006D4F02D1E87A02283FD1E720FEF738FB25
:1051300002202871FEF77DFD2857A0F14909687803
:1051400000F07F0841464FFA89F0FEF75DF9696982
:1051500081F83A00686980F83C90696981F83B8081
:10516000696991F844304A6801F14C000864087A92
:105170001B1AD0184860897B4A0706D50078042896
:1051800003D0396821F004013960584A107818B109
:105190000BF004FB00B104246869817B34430C43A9
:1051A00084736869FBF71DFD0BE0E820FEF7F8FA51
:1051B000B86E40084000B866AC7105F11400FBF70A
:1051C0000BFD002068610521B96249482861BDE8EE
:1051D000F14300BF474801684A0606D5006801064A
:1051E00003D44548ED220260026000223648027175
:1051F0008079002808BF00F00EB8704710B5324C17
:105200003E480021A171FDF772FA207910B9BDE87E
:10521000104000E010BD80B5FEF70BFDFEF73EF834
:10522000BDE80140FEF7A0BB10B5274C304920690E
:10523000884218BFFEF75CFDE07910B9BDE8104068
:10524000C8E71028A8BF102020722049207A0FF24A
:105250000D02401E0860226110BD00001FB51A4CEF
:10526000FFF729FFE179207A081AE071C2B21749E5
:1052700032B1102A0ADA2072C0B2401E08601FBD87
:10528000052008601A492161FFF7A4FF1FBD0E48E1
:10529000817B491C8173FEE410B50B49184CC87220
:1052A000010006D100202060216841F00901216041
:1052B00010BD02281CBF0128FEF71AFD2068400817
:1052C0004000206010BD00003C5700205086084080
:1052D00034880840B25700202886084030880840AB
:1052E0005457002040420020B4580020A05900200C
:1052F0003D4D20004C860840388808405C5700200F
:105300000086084000BE040A103A07D330B4B1E862
:105310003810103AA0E83810F9D230BC530724BF37
:10532000B1E80810A0E8081044BF51F8043B40F869
:10533000043BD20724BF31F8022B20F8022B44BFD4
:105340000B7803707047083A07D3B1E80810083AA1
:1053500040F8043B40F804CBF7D25307E4E70000E1
:1053600070B5134D2C787CB970BD012C18BFFEF7B9
:10537000BFFC3068010358BFFEF7BAFC002028705C
:10538000BDE87040FEF743BC0A4E30680103FBD510
:105390000948026842F00302026001684A07FCD52E
:1053A000022CE2D10BF09CFAFFF754FCE6E7000078
:1053B0000243002004200D400488084010B5FDF78A
:1053C000E3FCDFF85813401E804100220A60C00F42
:1053D0004B688C6808B1FDF7D3FC2406600E10BD45
:1053E00038B5DFF830030168CA0648BFFEF780FC15
:1053F000DFF82C03DFF82C53012101670160E22064
:10540000A860FF21A960FDF7BFFC00F050F96FF024
:105410001000E40F28600CB1FDF7B2FCFDF7B4FCFE
:1054200000F045F96FF00800E40F28601CB1BDE8FA
:105430003140FDF7A5BC31BD10B5FFF7D1FFB6482F
:10544000BC210160B82202600F230360D0240460F5
:10545000046004600460D221102404604AE010B5A6
:10546000FFF7BEFFAC48BC21016017220260812318
:10547000036010240460D2210160036004600160B5
:105480000122D921016000F07FF8D223C5220260F9
:10549000036010BD38B500F07EF8A34C11606FF0CA
:1054A00002002060FDF770FCA04B411E89410020E6
:1054B0006060C90FA268E0681D68122DC0B204D2F6
:1054C000D3B2002B04BF0028012203236360D2B2B1
:1054D000A260E06009B1FDF753FC8E4800F04BF884
:1054E000FEF7C0FBE120E06231BD10B5FFF778FFA9
:1054F0008948BC210160D92202600123036009248C
:105500000460BA2101600360D224C52303600460F3
:1055100010BD2DE9F041814D7E48DFF8148200F086
:105520002AF8FDF731FC441EA44100202860E40F56
:1055300069686E69F6B206F00F07C7F10F07FFB290
:10554000C8F80070FEF74CFB7A4901200870E12290
:10555000AA620020286069686869864204D0022F28
:10556000A4BF7F1EC8F800701CB1BDE8F041FDF774
:1055700007BCBDE8F081016841F0100101600268DC
:1055800042F0080202607047026009230360BA24F7
:105590000460026070476848654A01787047604956
:1055A0000868002800D0704780B55A480168CA06CC
:1055B0000DD5016821F0100101600268110705D5C1
:1055C000026822F008020260FEF7A5FAB8E001BD09
:1055D0002DE9F843DFF83C81D8F80000C10648BF48
:1055E000FEF786FBFFF7EAFE814654480478142C48
:1055F000D8BFFEF77DFB4C44143CE4B2142194FB6D
:10560000F1F7F9B2142000FB1144494D7F1C02212F
:10561000A960FFB2E0B22F601428C8BFFEF768FB94
:10562000414E6FF002003060FDF7AEFB3F4A401E76
:1056300080410321716024061168C00FE40B122918
:1056400002D2A1B201B90124A1B201F0FF012404E8
:10565000B160240EF46008B1FDF792FBE220F06225
:10566000FF21F162FDF790FB00F021F86FF01000D0
:10567000E40F70620CB1FDF783FBBC20F062B8212F
:10568000F162D220F062E120D8F8001041F0100160
:10569000C8F80010F062FFF791FE484505DA286867
:1056A000B84202D12968491E2960BDE8F183441E31
:1056B000A4412A20FDF7D8BB1648016821F010014B
:1056C0000160E22214480260FF2101607047114826
:1056D000016821F008010160FEF71DBA80B50D4890
:1056E000016821F0100101600D49086800B927E048
:1056F0000868012803D1BDE80140FEF755B90868E4
:10570000022818BFFEF7F4FABDE80140FEF7B3B96E
:105710000000000090860840388808401088084043
:1057200090870840308808400C880840B458002012
:1057300088870840B257002057570020C4520020E5
:10574000BDE80140FEF756B97047000000207047E1
:1057500004480F21816002681106FCD50069C0B2BF
:105760007047000000700D40A44908701021FDF73B
:1057700015BA78B50D4628048BB0A04E15D469042F
:1057800031D50BF059F918B10BF08EF90BF03CF94B
:1057900085F48045D3E020460BF086FC02E02046ED
:1057A0000CF07AFD2046FDF7F1F83078FDF72AF984
:1057B000040000F0C7802078012808D01A280AD0F9
:1057C000D1280CD0D328EAD0FD28E4D0EAE76068DD
:1057D0000BF06AF9E6E720460BF077FCE2E720469B
:1057E0000CF01EFCDEE7A80407D50BF025F908B184
:1057F0000BF05AF985F40055A1E0E904804C23D55B
:10580000A06848B9201DFDF762F9A060E06018B1FA
:105810004078401D608001E0A06890B16288E16836
:10582000002006F02FFE6188091A618089B229B92B
:10583000A068FDF7ABF80020A06002E0E168084432
:10584000E06085F480557AE0280505D500200DF04C
:1058500047F885F4006572E0680505D501200DF074
:105860003FF885F480656AE0A80505D502200DF0B3
:1058700037F885F4007562E0E80505D503200DF0E2
:105880002FF885F480755AE0E90650D5207818BBCA
:1058900001218DF80010042200218DF802108DF8EE
:1058A0000120AA210522ADF80C10ADF80420052135
:1058B00078228DF80610ADF8182001220FF2191188
:1058C0000A918DF82020694606F0D9FD30780DF058
:1058D00013F8042009F0C9F90022022140F60170F2
:1058E0000DF0D0FC0022022140F602700DF0CAFC3F
:1058F0000022022140F603700DF0C4FC00220221B8
:1059000040F604700DF0BEFC0022102140F6057038
:105910000DF0B8FC0022102140F606700DF0B2FC2C
:105920000BF0E8FC0CF0C6FF85F0100507E0280737
:1059300004D50BF07DF985F0080500E00025284628
:105940000CB070BD85F40045F9E780B52C4B1A7892
:1059500032B9491D88B2FDF707F870B1401C02BD8D
:1059600000F0E0006028084603D1BDE802400AF0DC
:10597000E5BFBDE802400AF0F4BF02BD70B5204D9E
:1059800004462878B0B92678F61CF1B220460CF00F
:10599000B6FFF6B2FE22A05504F8012C611E281DA8
:1059A000FDF77AF8BDE87040144800784FF4805154
:1059B000FDF7F4B8607800F0E000602804D12046DC
:1059C000BDE870400AF0D1BF2146281DFDF764F8FC
:1059D000BDE870400BF005B8084A127801291CBFD9
:1059E0000229042902D0102903D0704711460CF077
:1059F00095BF4FF480511046FDF7D0B8A359002051
:105A0000FC57002010B5DFF8F418DFF8F4480870F0
:105A1000002084F826000DF0CFFDFEF70FFC0020DB
:105A2000606708F0CEFBDFF8DC080078002818BFBC
:105A3000012803D10DF062FE09F04CF90DF0D0FD04
:105A4000DFF8C41800200860BDE8104009F0FFB876
:105A50002DE9F047DFF8A4588EB00F4628783904B6
:105A60001BD5FCF7CFFF040014D000200FF2F82163
:105A700000E0401CC2B211F83230FF2B07D025786D
:105A8000AB42F6D1091D204651F832108847204616
:105A9000FCF77CFF87F4004050E1B9040BD5FEF71A
:105AA000FCFD040004D000F047FC2046FCF76EFF2C
:105AB00087F4005042E1DFF84C48DFF85068217865
:105AC000022921D1FB071FD5307A0F2819D1DFF821
:105AD00040080188491C018040F2E93089B28142C6
