:020000040000FA
:10000000021F54022003FFFFFFFFFF02200BFFFF30
:10001000FFFFFF022013FFFFFFFFFF02201BFFFF78
:10002000FFFFFF022023FFFFFFFFFF02202BFFFF48
:10003000FFFFFF022033FFFFFFFFFF02203BFFFF18
:10004000FFFFFF022043FFFFFFFFFF02204BFFFFE8
:10005000FFFFFF022053FFFFFFFFFF02205BFFFFB8
:10006000FFFFFF022063FFFFFFFFFF02206BFFFF88
:10007000FFFFFF022073FFFFFFFFFF02207BFFFF58
:10008000FFFFFF022083FFFFFFFFFF02208BFFFF28
:10009000FFFF70DFFFFF040000000002000000C847
:1000A000030002030369A5020269A532730000017F
:1000B00000000000000400FFFFFFFFFFFFFFFF0440
:1000C00003090424035400650078006100730020D4
:1000D0000049006E0073007400720075006D0065C9
:1000E000006E007400730024035400490020004394
:1000F000004300320035003300310020005500532A
:10010000004200200043004400430000035F005F02
:100110000030005800000000000000000000000057
:1001200000000000000000000000000000000000CF
:100130000000000000303132333435363738394171
:100140004243444546481C9D1C9D1C9D1C9D1CA56E
:100150001C74F8121BE2900391E060159003027486
:10016000FEF0900304744DF0A37405F07A011207B9
:10017000237F01021D8174F8121BE274FF121ECB53
:100180007E00801F851882851983E064FE700690CA
:1001900003877401F0851882851983E0F890038441
:1001A000E068F07901AA18AB191210FEE970030299
:1001B0000287851882851983E064EF70027E07E06C
:1001C000C0E0900387E0FA900385E0F8EA28F8E4BD
:1001D0003400F9740228F582740339F583D0E0F015
:1001E000900387E0609E14600E14602B14603B1433
:1001F0006051146067809E900384E4F085188285C6
:100200001983E0900386F0C394809003874003E451
:1002100080827402020194851882851983E090031C
:1002200082F09003877403020194851882851983F4
:10023000E0900383F0900386E060199003877404D4
:10024000020194900385E004F0F8900386E0686072
:10025000030201959003877405020194900385E4DD
:10026000F0900387F0900384E0F885188285198365
:10027000E0686003020195900382E0644D60030230
:1002800001951203BF8002EEF97401121E4C0201A7
:100290007174F7121BE274FB121ECBEAFEEBFF75C2
:1002A00008047509007808121EE57402121F4C7AC2
:1002B000907B0079041219007402121E4C1207156B
:1002C000121F9DE0687003A3E06970128518828593
:1002D0001983E0F47003A3E0F4600302039A74044A
:1002E000121F441207778A088B09A808A90974020B
:1002F000121F9DE8F0A3E9F07404121F9DE060084E
:1003000079011201510203B3851882851983E068CF
:100310007003A3E0697076851882851983E0F47014
:1003200003A3E0F470197402121F9D7410F0A374FB
:1003300020F08518828519837410F0A37420F0755D
:1003400008017509007808121EE57402121F4C7A24
:10035000247B081219847402121E4C750804780854
:10036000121EE57402121F4C7A907B007904121958
:10037000007402121E4C120715121F9DE0687003D4
:10038000A3E069700479028006790480027903127F
:1003900001518E828F83741E80058E828F83E4F0DC
:1003A000120715121F9DE0687003A3E069700479BD
:1003B00001800279007405121E4C7F02021D8174B7
:1003C000E9121BE274F8121ECB900307E0FA9003C7
:1003D00006E0F9FEEAFCE4CCFDEE2CED3408FF75F6
:1003E0001001750F00750E068E088F0974027808CB
:1003F000121F31C39508FCE49509FD74022CF51415
:1004000074033DF515E5142497F516E5153420F52C
:1004100017EE2410F508E43FF509EEF50CEF540152
:10042000F50D8E128F1374097812121F6385120A4C
:10043000900383E0146057147003020506147003E0
:1004400002057D14601024FE700302063814700348
:100450000206E80206F8750E03794E1213D29003D5
:100460000712070B7402F0A37440120709740812F4
:100470000709F0A3F07418C3940704F510AA10A993
:100480000F120723A90E7408121E4C0208DD750E08
:1004900004794E1213D2EE450D7005A90A1219EA1D
:1004A000C3EE9425EF9408503FC3E5089424E50972
:1004B00094084034E5142496F8E5153420F9888230
:1004C0008983E0701E851682851783E0701590037E
:1004D000887401F08882898374A5F0851682851757
:1004E000838004900388E4F075081075090078088B
:1004F000121EE57C087D03EEFAEFFB1219847402EC
:10050000121E4C02047D750E05C3E50A947995E030
:100510004006750F0102047D7510407511007810BA
:10052000121EE57C097D037402780C121F31AA0C9F
:10053000AB0DA90A1219007402121E4C900307E0B9
:10054000A3F0900306E0A3F0751043C3EE9425EFEB
:100550009408400302047DC3E5089424E509940847
:10056000500302047D900388E0700302047DA81606
:10057000A91788828983E4F0A3F002047D7508043A
:100580007509007808121EE57402121F4C7A907BE0
:100590000079041219007402121E4C7402121F9D7D
:1005A000E0F8A3E0F9851882851983E0687003A359
:1005B000E069851882851983700BE0F47003A3E06D
:1005C000F470578009E0F47003A3E0F4700D85180F
:1005D000828519837410F0A37420F0120715121F7E
:1005E0009DE8F0A3E9F07508017808121EE5740291
:1005F000121F4C7A247B081219847402121E4C7547
:1006000008047808121EE57402121F4C7A907B00D1
:1006100079041219007402121E4C120715121F9D44
:10062000E0687003A3E0697006750E0102047D7531
:100630000E02750F0702047D9003D6E06007640286
:10064000600302047DEAFF7A017900120723E0606B
:10065000030206DC800312119A121181E970F7740B
:1006600004121F9D1206FD7404121F9D7808121FAC
:100670008185080C85090D850A0E850B0F9003C234
:10068000780C121F0B7404121F9D780C121F72E558
:10069000084509450A450B70CE8EC2E5C554E04FAA
:1006A000F5C57404121F9D1206FD7404121F9D7877
:1006B00008121F8185080C85090D850A0E850B0F10
:1006C0009003C2780C121F0B7404121F9D780C1239
:1006D0001F72E5084509450A450B70CE7A0179007D
:1006E0001207237908020486E9900391F07003024F
:1006F000047D750E0902047D7906020486E4F0A3E8
:100700007426F0A3E4F0A3F022F0A3E4F0A3F0A396
:10071000F0A3F0A322851882851983E0F8A3E0F9FD
:1007200074022274F8121BE2EAFE900305E0D2E79D
:10073000F0E9A3F0EE900303F08E0874042AFE7C27
:10074000028004E062080CECFA3395E0FB74022AA4
:10075000F58274033BF583EEF8C3EA98EB9400A2AC
:10076000D265D03340DDE508F074012AF97A027BC6
:100770000312113C02017174E9121BE275820075CB
:1007800083FE121E2E8A168B177514007515008AAB
:10079000828B83E4F09003D6E07006D2AAD2AF80B9
:1007A00004640270057900120151750C00750D206A
:1007B000750E00750F009003D6E06004640270159A
:1007C00012119A120176E9F874096860030208B3FD
:1007D0007900120151E064027007A29240030208FE
:1007E0008E7508007509027808121EE57402121F42
:1007F0004C850C08850D09AA08E5095407FB850EF0
:100800000A850F0B740B7808121E9CA90812190098
:100810007402121E4C7E007F009003CAC0828E10AC
:10082000EFF5113395E0F512F513850C08850D09E8
:10083000850E0A850F0B78087910121F1E9003C6CB
:100840007808121F0B758303D0827808121E0F5090
:100850001D851882851983E5822EF582E5833FF593
:1008600083E0F9AA14AB151208E28A148B150EEE78
:1008700070010FC3EF940240A09003CE780C121FBA
:100880000B9003D2780C121E0F40030207B67900BA
:10089000AA14AB151208E279001208E28B15900336
:1008A000D6E07004C2AFC2AAEA451570277AA57BCC
:1008B000A58021E870030207D5740668700302075B
:1008C000D574076870030207D5851682851783746F
:1008D00001F080BA758200758302121E2E7F10020D
:1008E0001D81C008C0097C088A088B09740F78082C
:1008F000121F63E508F8EA25E0FAEB33FBE9A2E70B
:10090000500474014AFAE8A2E0500874216AFA74AB
:10091000106BFBE9C333F91CEC70CDD009D0082271
:10092000C082C083120F4860030209F2A3E0F8A35B
:10093000E060030209F2A3E064027002A3E0600336
:100940000209F29003B8E02480600914604C14603E
:10095000590209F2E860030209F29003B2E0900341
:10096000C060077401F0A3E48003E4F0A3F09003F7
:10097000B1E060079003C0E04402F09003A6E06499
:100980000460149003B374C0F0A37403F0A3E4F004
:10099000A37402120FAAF0020E8390039FE0640476
:1009A00070509003C0E4F0A380D0E8547FFA900325
:1009B0009FE06404703CEAC394065036749F2AF5A5
:1009C00082E43403F583E85480600EA3A3A3A3A3B9
:1009D000A3A3E0640370CB800FE582240CF5825062
:1009E000020583E0640370BA9003C07401F0A3E4CD
:1009F00080889003A67404809D74F8121BE2E9FEBF
:100A00009003BE120F4B6003020ADB90039FE06469
:100A100004600B9003BC120F4B6003020ADB9003CF
:100A2000B8E0541F6009146030146020020ADB90A3
:100A300003BAE064017022EE9003B1F0600479051E
:100A4000800279067A00121BE0020AE19003BCE002
:100A5000547FFA9003BAE060057900020AE3EAC322
:100A600094065077EA90620EF0749F2AF8E43403FB
:100A7000F99003BCE05480602EEE60047410800294
:100A80007440906211F0EE60047B0380027B00EB07
:100A900088828983A3A3A3A3A3A3A3F0EE60047910
:100AA00008802F7907802BEE60047B2080027B80FA
:100AB000EB906214F0EE60047B0380027B00E8247C
:100AC0000CF582E439F583EBF0EE6004790A8002DC
:100AD0007909121BE090620EE480059003A674046D
:100AE000F079017F01021D8179001209F9E9700393
:100AF000121BCF2279011209F9E97003121BDE22C1
:100B0000C082C0839003BC120F4B7015A3120F4B11
:100B1000700F9003BA120CEE5480FAE9FBEA4B60B6
:100B2000079003A67404801AE8906200F090039F77
:100B30006009E06402700C74038007E064037003D2
:100B40007402F0020E8374F1121BE29003BAE0FC0F
:100B5000A3E0FBE4CBFA14600814601014603B803F
:100B600059121769120CD5A37B808043ECFA7900E7
:100B700012178B120CD57B80E92402F9E43AFA12A1
:100B80001E82FC1919E0FAA3E92403F9E43AFA12E7
:100B90001E82F9ECA3F0A3E9801CECF91217F9907E
:100BA00003B3EAF0A3EBF0A3E4120CE4A37B00127E
:100BB0001E82A3F0A3E4F0020C8F9003B3E4F0A331
:100BC000F0A3F0750B009003BCE0F50CA3E0F50D6D
:100BD00090047DE0FEA3E0FF020C6A8B09740378A9
:100BE00008121F31EE2508F8EF3509F9880E8882C2
:100BF000F583E493F8EA687001E4706CA3E493F879
:100C0000EC687001E47061850E828983A3A3E4938C
:100C1000F508E50D65087001E4704D850E82898345
:100C2000A3A3A3E493F8E50C687001E4703A850E81
:100C3000828983A3A3A3A3E493F508740193F50920
:100C40009003B3E508F0A3E509F0A37480F0850EE6
:100C5000828983A3A3A3A3A3A3E493F8740193F9C4
:100C60009003B6E8F0A3E9F0050B850B0890047F2C
:100C7000120CEEC39EF50EE99FF50F7403780E1269
:100C80001F63C3E508950EE4950F5003020BDB903C
:100C900003B3E0FCA3E0FDA3E0FEEC4D4E9003A601
:100CA000700474048029E0640460259003BEE0FAB7
:100CB000A3E0FB9003B6E0F8A3E0F9C3EA98EB9950
:100CC00050089003B6EAF0A3EBF09003A67401F08D
:100CD0007F08021D819003B3EAF0A3EBF0A37480B8
:100CE000120CE422F09003B3E0F9A3E0FA22E0F85A
:100CF000A3E0F9E82274EE121BE2EA2404F8E43BD4
:100D0000F9880889098882F583E493602590048135
:100D1000120CEEFEE9FF8007EE2404FE50010F8E58
:100D2000828F83E493F8740193F9EA687002EB69A7
:100D300070E6750B00803F9062147490F07410128E
:100D40000E4A7003750A408E828F83A3A3A3E49397
:100D5000550E6006E50AD2E0F50AE50A906215F044
:100D6000EA906213F0EC240CF582E43DF583E4F0A4
:100D700090620EF0050B850882850983E493F8E5FF
:100D80000BC3984003020E457A0079051216FC8ABF
:100D90000C8B0DEA450D60DCEA2402F8E4350DF910
:100DA000881089118882F583E493540FF5129062BC
:100DB0000EF0750A008A828B83A3A3A3A3E4932475
:100DC00007F50EA3E4933400F50F7403780E121F99
:100DD00063AA0EA812749F28F8E43403F9E8FCE92A
:100DE000FD750E01750F00E512780E121F31E50E2C
:100DF000F50EE50C2403F8E4350DF9851082851114
:100E000083E493A2E74003020D379062117448F027
:100E10007408120E4A7003750A408E828F83A3A352
:100E2000E493550E6006E50AD2E0F50AE50A906201
:100E300012F0EA906210F08C828D83A3A3A3A3A387
:100E4000A3A3020D6E7F0B021D81F088828983E4CB
:100E5000935403640122C082C083120F487010A310
:100E6000120F4B700AA3E064017002A3E0600790C8
:100E700003A67404800C9003B374A0F0A37403124F
:100E80000FA0F0D083D0822274F3121BE290039F54
:100E9000E0640260149003BC120F4B700CA3120F9D
:100EA0004B70069003BBE060099003A67404F00247
:100EB0000F437A007901121BE09003BAE0606F7A69
:100EC00000F912178B8A0A8B0BEA450B60589003C6
:100ED0009F7404F09003BAE09003A0F075080085B9
:100EE0000A82850B83A3A3A3A3E493F8E508C39820
:100EF000504AA80874A128F8E43403F9E8FEE9FF91
:100F00008E828F83E4F07A0079041216FC8A828B39
:100F100083A3A3A3E493F88E828F83E06870E71223
:100F20000CF5050880B99003A67404F0800E9003B8
:100F3000A0F090039F7403F0F912167C7A007902F6
:100F4000121BE07F06021D819003BAE0F8A3E0F9CE
:100F5000E8492274F6121BE290039FE064047019C2
:100F60009003B8E064817011120F48700C9003BEBA
:100F7000E064017002A3E060079003A67404801A85
:100F80009003BCE024A1F508A3E03403F509900325
:100F9000B3E508F0A3E509120FA0F07F03021D815D
:100FA000F0A3E4F0A304120FAA22F0A3E4F090034C
:100FB000A6042274F7121BE290039FE0640470649D
:100FC0009003B8E06401705C9003BE120F4B705444
:100FD0009003BAE0FB9003BCE0FA9003A0E0F912A2
:100FE00017C38A088B09AE08AF09EE4F603690032D
:100FF000BCE0FA7903121BE09003BAE0C0E0900372
:10100000BCE024A1F8A3E03403F988828983D0E00E
:10101000F0EEFAEFFB120CF59003BCE0FA79041243
:101020001BE080069003A67404F07F02021D81C0BD
:1010300082C0838003121A46A2E840F9A823E8542C
:101040000460097823E654FBF6121423A823E8541D
:101050001060097823E654EFF6121444A823E8A29E
:10106000E05005782354FCF690620EE0FA7404F028
:10107000906214E0A2E05039A9A8C2AF906216E0D5
:10108000F8A3E0E8FBE9A2E792AF8017906228E0BE
:10109000C0E0900393E0F8121131D0E0F090039398
:1010A000E004F0EBFD74FF2DFB0470E0906214E4AB
:1010B000F0EA90620EF0E0FC7404F0906211E0A29D
:1010C000E04031900395E0F8900394E06860257A61
:1010D00040900394121174E0906228F0900394E021
:1010E00004F008900395E06860041AEA70E39062E7
:1010F000117401F0EC90620EF0D083D0822274F86B
:10110000121BE2E9FE79008012121131E08A828B13
:1011100083F0900392E00412116909900392E0F8C1
:10112000900393E0686005E9C39E40DD7F01021DE6
:1011300081748528F582E43404F58322C082C0835B
:10114000E9FC80188A828B83E0C0E090039512113D
:1011500074D0E0121169900395E004F0ECF874FF8C
:1011600028FC0470DF79018090F08A828B83A3AA27
:1011700082AB8322E0F8748528F582E43405F58398
:1011800022C082C083900395E0F8900394E06860E9
:10119000047901800279000210F902102F74FB1209
:1011A0001ECB7E009006857808121F81794A1213A3
:1011B000D29006857401F0A3F0A37469F0A374A51E
:1011C000F09003D77808121EF670047E0180159007
:1011D00003DB7808121EF66008E59D541864107051
:1011E00003022000EEF9121349C280D291EEA2E070
:1011F00050030212FCAA18AB19120291E970030203
:1012000012FCC291851882851983E0C3943C500E6C
:10121000E0F8743CC398F50895E0F5098006750878
:1012200000750900E4F50AF50B9003DF780C121F36
:10123000817808790C121AE6790612015112102FE2
:10124000120176E9F8740968700779061201518075
:10125000277407686016A2935012E8600874066845
:1012600060030212FCA292400F0212FC7508007586
:101270000900750A00750B0085080C85090D850AA3
:101280000E850B0F9003C27808121F0BE50C450D5D
:10129000450E450F70A7D2807907120151800312C5
:1012A000102F121181E970F77E007F007401121F68
:1012B0009DE4F0A37426F0A3E4F0A3F07401121FE0
:1012C0009D7808121F8185080C85090D850A0E85F9
:1012D0000B0F9003C2780C121F0B7401121F9D7824
:1012E0000C121F72E5084509450A450B70CEA29203
:1012F00050FCA29350F81213CD022000D280D2915C
:10130000794E1213D2750800750900750A00750B25
:1013100000790512015112102F120176E9F87409B3
:101320006860EE74016870EE12102F9003E3780885
:10133000121F0B9003E77808121E0F50EB1213CD0B
:101340000220007405121E4C2274F8121BE2E9FE02
:1013500053BEFBE59DA2E650FA0078F8790100E85B
:1013600024FF18E934FFF9E84970F375C6807480EA
:10137000659E70FA43BE049062707408F01213C246
:10138000EE700853F4FEC29043FE017403F5D57568
:10139000D489900396E4F0A374C2F0A37401F0A37F
:1013A000E4F0A3F0A3F0A37408F01213E87AFF7B33
:1013B000FF121A0153F4FED29043FE011213C2022F
:1013C000112CD28043FD01C29143FE0222D280C281
:1013D0009122781075B60FE5B4A2E750FAE5BBC3C9
:1013E0009940F118E870ED2274F7121BE27A007947
:1013F0000112178B8A828B83A3A3A3A3A3A3A3E4C5
:1014000093A2E69003B2500474018001E4F09003CB
:10141000B1E4F090620F7403F0E0A2E750FB7F02AA
:10142000021D81C082C08390039F7402F0A3E4F088
:101430009003A6F0790312167C752100752200D066
:1014400083D0822274F6121BE290620EE0FEE4F07A
:10145000906211E0FFA2E4501D7480F09003A67426
:1014600007F0E52145226009852182852283121F2C
:10147000AC9003A6E4F0EFA2E2500B906211E4F00E
:101480009003A6F080679003A6E0F87402687046A7
:10149000906216E0FF9003B3121DC1EFF97A207B32
:1014A000621216967403121E4CEFF89003B61216D1
:1014B0005A1216642F12166CA3E0F8A3E0F9E8495B
:1014C0006004744080027448906211F0E84960033F
:1014D00002165002162C7406687009852182852236
:1014E00083121FAC9003A6E060030215D7EFA2E0C1
:1014F00040030216507508B8750903750A0078088C
:10150000121EE179087A207B621216967403121E6D
:101510004C7521007522009003B8E054E0601D2452
:10152000E070030215B224E0607224C0604824E039
:1015300070030215BD24E0606E0215C8A3E01460BC
:101540002624FE601D24FE600A24FC601F24FE6029
:10155000208075120B009003A6E06404707278601E
:101560008070120AF480EF120AE880EA120E888076
:10157000E5120FB380E0A3E0600E24FA600F24FEB2
:10158000601024FE6011804012092080C9120B46B1
:1015900080C4120E5680BF120F5380BA7521CB75CE
:1015A000221B121BCB80AF7521CD75221B121BCDC8
:1015B00080A475216675221B121B66809975219681
:1015C00075221B121B96808E9003A67404F0808EE9
:1015D0007840E8906211F09003A6E0F8740168701A
:1015E000617F029003B6E0F8A3E0F9C3E89420E934
:1015F00094005007E8F5087F0A80037508209003DF
:10160000B3121DC1A9087A207B621216C17403129D
:101610001E4CAC081216642C12166CA808A31216E5
:101620005AEF906211F0E8C394205024E52145223E
:101630006009852182852283121FAC9003A6E4F005
:10164000800E7405687009852182852283121FAC83
:10165000EE90620EF07F03021D81C3E098F0A3E0DC
:101660009400F0229003B31216EEE922F9E43AFA5C
:101670009003B3E9F0A3EAF0A3EBF022C082C083A9
:10168000E99003A77805F0A3D8FC9003AC7805F0A7
:10169000A3D8FC02143F74F8121BE2EAFCEBFDE94C
:1016A000F87408121F9D1216E960118C828D83E078
:1016B000121EB5E9240109E43AFAD8EF7F01021DB0
:1016C0008174F8121BE2EAFCEBFDE9F87408121FC2
:1016D0009D1216E96011121E828C828D83F0E9241E
:1016E0000109E43AFAD8EF80D31216EEE822E0F9C5
:1016F000A3E0FAA3E0FB22D083D08222C082C08381
:10170000E9FCEAFD7A007B00800312174790039DF5
:10171000E0F8A3E0F990047BE0687003A3E069605F
:101720002490039EE0F5838882A3E493F8EC68702C
:101730000D90039DE0FAA3E0FB1217478007ED68C8
:1017400070C8ED60C580B090039DE0F8A3E0F5831C
:101750008882E493F890039DE028F8A3E03400F930
:1017600090039DE8F0A3E9F022C082C08312177AAB
:101770007A0079011216FC0216F7900479E0F8A3BA
:10178000E0F990039DE8F0A3E9F02274F7121BE260
:10179000E9FFEAFE12177A7A0079021216FCEA4B88
:1017A000601CEF60108A828B83A3A3A3A3A3E4939E
:1017B0006F70E48009EEF874FF28FE0470D97F0290
:1017C000021D8174F5121BE2EAFF8B087A001217E2
:1017D0008B7A0279041216FCEA4B60188A828B839A
:1017E000A3A3E4936F70EA8A828B83A3A3A3E493F9
:1017F000650870DD7F04021D8174F7121BE274F02E
:10180000121ECBE97A007B00600C14601014601487
:101810001460180218E97AF37B030218E97AF77B5F
:10182000030218E97A1B7B040218E990043FE06088
:10183000030218E59003EB7408121F4C7408121D84
:10184000EE750808F5097808121EE57402121F4C9F
:101850007AE87B07797F1219007402121E4C78080F
:10186000121EE5740A121F4C7402121F44121CA5AA
:101870007402121E4C8B09EA45097019750900782B
:1018800008121EE57C0C7D787402121F44121D3B69
:101890007402121E4C7C287D00EDF8851882851993
:1018A00083E58228F582E43583F583E0FFECF87464
:1018B0003F28F8E43404F9EF1218F188828983F0A4
:1018C000EFC41218F1C0E0E824FEF582E934FFF518
:1018D00083D0E0F00D74FC2CFCEDC3940840BA906A
:1018E000043F742AF07A3F7B047410121E4C0217D6
:1018F000BE540FFA74692AF582E43404F583E022B9
:1019000074F6121BE2890A740F550AF5087509006E
:10191000740B7808121F31EA2400F8EB3480F9E8E0
:101920002400E93509F985C709A2AFE433F508C2F7
:10193000AFE50AC4540FFAE5C754F84AF5C7740A6C
:10194000121F9DE0FAA3E0FB801C88828983E08C53
:10195000828D83F088828983A3A882A9838C828D5B
:1019600083A3AC82AD83EAFEEBFFEE24FF1AEF34D3
:10197000FFFBEE4F70D48509C7E508A2E092AF7F68
:1019800003021D8174F7121BE2ED900389F0ECA3B2
:10199000F0A37462F0A37473F0A3E0541FF0740911
:1019A000121F9DE0F508A3E0F509E508333354FC68
:1019B00090038EF074067808121F63E50890038D7B
:1019C000F090038F7412F0A37442F075D1FE75D6B7
:1019D00001EA906271F0EBA3F0906270E0D2E1F066
:1019E000E0A2E740FB7F02021D81C082C083E9C301
:1019F00033906272F0906270E0D2E0F0D083D082D7
:101A00002274F7121BE27523007524007525008AE5
:101A1000268B27EA90620BF08A088B0974047808F9
:101A2000121F63E508906207F08A088B0974097831
:101A300008121F63E508543E906209F0758B00C2DE
:101A4000E87F02021D8174F7121BE2E59DA2E650B9
:101A5000FA906206E0F9A2E25034AA26EA90620BFC
:101A6000F0F50885270974047808121F63E50890CB
:101A70006207F08A0885270974097808121F63E550
:101A800008543E906209F0906201E0D2E0F0E978FB
:101A90002346F6906202E0F50875090074047808A0
:101AA000121F317823E50846F608E50946F69062EC
:101AB00004E0F50875090074097808121F317824CC
:101AC000E50946F6E9A2E050037525017406596060
:101AD00003752500E58BA2E55006758BDF752500A3
:101AE000121BE1021A3C080808EAC0E0EBC0E086DD
:101AF000F0E7A4FA180986F0E7A42AFA180986F094
:101B0000E7A42AFA180986F0E7A42AFA1986F0E76A
:101B1000A4FBE5F02AFA190886F0E7A42BFBE5F010
:101B20003AFA190886F0E7A42BFBE5F03AFA181800
:101B30000986F0E7A4C5F02BFBE43AFA1908E7C5DB
:101B4000F0C6A426F6E5F03BFBE43AFA1886F0E787
:101B5000A4F6E5F00826F6E43B08F6E43A08F6D0E9
:101B6000E0FBD0E0FA22C082C0839003B9E0F874B1
:101B7000226870089003A6E0701A801174206890A3
:101B800003A6700DE0700D121BBD9003A6740280B9
:101B9000027404F08043C082C0839003B9E06421E2
:101BA0009003A67013E07013121BBDA37407F0A37B
:101BB000E4F09003A60480027404F0801C9003B348
:101BC0007496F0A37403F0A3E4F02280028000C0B6
:101BD00082C0839003A67404F0D083D0822280EF69
:101BE00022222518C582C0E0E51934FFC583C0E074
:101BF000E518C3958224F910AF08858319858218EA
:101C00008008858319858218D2AFCEF0A3E520F035
:101C1000A37808E608F0A3DEFAEFF0A3E58124FB41
:101C2000F8E608F0A3E608F0A30808E608F0A3E643
:101C300008F0A315811581D0E0FED0E0F8158115DC
:101C400081E8C0E0EEC0E0221201000202000020A4
:101C50005104A81609000102030109024300020110
:101C6000008019090400000102020100052400108F
:101C700001042402020524060001052401000107D5
:101C800005820340004009040100020A0000000729
:101C900005840240000007050402400000631C00A8
:101CA00000861C000074F8121BE27408121F9DE0ED
:101CB000FEA3E08015A3AA82AB838C828D83A3ACA4
:101CC00082AD83EE24FF1EEF34FFFFEE4F60198CD0
:101CD000828D83E0F88A828B83E0F9E86960D6E937
:101CE000C398FA95E0FB80047A007B007F01021D17
:101CF00081E479217807B800028004F709D8FCE470
:101D000090030278C179018002F0A3D8FCD9FA7A55
:101D1000C27B0390008E78C479018015E493A3AD53
:101D200082AE838A828B83F0A3AA82AB838D828E5C
:101D300083D8E9D9E712119D121FA774F7121BE28D
:101D4000EAF8EBF97409121F9DE0FEA3E0FF80188A
:101D50008C828D83E088828983F0A3A882A9838CFA
:101D6000828D83A3AC82AD838E088F09E50824FFA2
:101D70001EE50934FFFFE508450970D47F02021D06
:101D800081851983851882E0A3FEE0A3F5207808F9
:101D9000E0A3F608DFFAE0A3FFE0A3C0E0E0A3C001
:101DA000E0E0A3C0E0E0A3C0E010AF0885821885A2
:101DB00083198008858218858319D2AFD083D08299
:101DC0002274038000CCC0E0EDC0E0E518C39CCCD9
:101DD000AD1950011D10AF068C188D1980068C1896
:101DE0008D19D2AF121DEED0E0FDD0E0FC22CAC0AA
:101DF000E0E0A3C582CCC582C583CDC583F0A3C571
:101E000082CCC582C583CDC583DAE6D0E0CA22C0C4
:101E100008C3E096F50808A3E096420808A3E096F8
:101E2000420808A3E09645087001D3D00822C58275
:101E30002518C582C583351910AF07F51985821895
:101E40008007F519858218D2AFC5832200C0D0253E
:101E50001810AF08F518500C05198008F518500235
:101E60000519D2AFD0D0222518F58210AF08F51889
:101E7000400C15198008F51840021519D2AF8519C4
:101E80008322BB0102E722C082C08389828A83BB8E
:101E90000003E08002E493D083D082226016080819
:101EA00008C6C313C618C613C618C613C618C61369
:101EB000C6D5E0EA22BB000EC082C0838A83898235
:101EC000F0D083D08222BB0101F722251810AF0881
:101ED000F518400C15198008F51840021519D2AFF5
:101EE000227403800474028000C0E0F404121E67B0
:101EF000D0E0121F9022E066701008A3E066700A1E
:101F000008A3E066700408A3E06622E026F608A3B2
:101F1000E036F608A3E036F608A3E036F622E62718
:101F2000F60809E637F60809E637F60809E637F64F
:101F300022700422600D18C6C333C608C633C6D546
:101F4000E0F418222518FAE43519FB222518FCE4E0
:101F50003519FD2275D00075813F7518027519037A
:101F6000021CF1600C08C6C313C618C613C6D5E020
:101F7000F422E6F008A3E6F008A3E6F008A3E6F0F2
:101F800022E0F608A3E0F608A3E0F608A3E0F622B4
:101F9000CAC0E0E6F0A308DAFAD0E0FA222518F584
:101FA00082E43519F5832200000080FBE473FFFF13
:101FB000FFFFFFFFFFFFFFFFFFFFFFFFFFFFFFFF31
:101FC000FFFFFFFFFFFFFFFFFFFFFFFFFFFFFFFF21
:101FD000FFFFFFFFFFFFFFFFFFFFFFFFFFFFFFFF11
:101FE000FFFFFFFFFFFFFFFFFFFFFFFFFFFFFFFF01
:0A1FF600850609433886000000004C
:020000040003F7
:01FFF000F020
:020000040000FA
:10200000022DE0022250FFFFFFFFFFFFFFFFFFFF57
:10201000FFFFFFFFFFFFFFFFFFFFFFFFFFFFFFFFD0
:10202000FFFFFFFFFFFFFFFFFFFFFF022B56FFFF3A
:10203000FFFFFF022272FFFFFFFFFFFFFFFFFFFF17
:10204000FFFFFFFFFFFFFFFFFFFFFFFFFFFFFFFFA0
:10205000FFFFFF02218AFFFFFFFFFFFFFFFFFFFFE0
:10206000FFFFFFFFFFFFFFFFFFFFFF022A70FFFFE1
:10207000FFFFFFFFFFFFFFFFFFFFFF0228C1FFFF82
:10208000FFFFFF0221E101FFFFFFFFFFFFFFFFFF57
:1020900010201020010000000000080000FFFF00D9
:1020A00000030400000F0100000300010020FD00F8
:1020B0000200005B3300000000BF32E5332B339D8C
:1020C000330000E93200000000000000000000F5CD
:1020D0003200000000000000000000013306FFFF96
:1020E000FF00035F005F00300058000000000000A8
:1020F00000000000000000000000000000000000E0
:102100000000000000000000000000E12636273635
:1021100027362736273E2701040000261700000037
:10212000E8030000FFFFF617018813000003E8032F
:10213000000064006400B801A0BB0D00A0BB0D004E
:102140000202020704010101051E02051E020A0A1D
:102150000101010809080103B80B02803E0102FEDB
:10216000FFE8030A050001FFFF0A011401E0010571
:10217000030101FF0F10FEFF5650000000008C4FBE
:1021800000000000FF000000FF00C0E074F2122613
:1021900082A2AFE433F508D2AFAFA7AEA1EE5F5491
:1021A00010600612303D75A1EFEE5F540860081212
:1021B000304375A1F78023EEA2E092F0EFA2E08217
:1021C000F05017906198E0F8900561E0C398A2D2B2
:1021D00065D0335002E8F075A1FE751A00E508805D
:1021E00066C0E074F2122682A2AFE433FED2AF9052
:1021F00061A4E0F8759B00E591585408600875915A
:10220000F71230918023E59158541060087591EFD2
:102210001230978014E591A2E092F0E8A2E082F0FB
:102220005007E0C2E0F01231ED9061A3E0F8E5E97B
:10223000585404600E1231C375E9FB906193E0A21B
:10224000E640F2751A00EEA2E092AF7F0102273E4F
:10225000C0E074F2122682A2AFE433FED2AF9061E6
:10226000A5E0F8E5BF585404600675BFFB123205BF
:1022700080D1C0E074F1122682E59DA2E650FA906A
:102280006206E0F9A2E25034AA2CEA90620BF0F563
:1022900008852D0974047808122DF0E5089062076E
:1022A000F08A08852D0974097808122DF0E5085484
:1022B0003E906209F0906201E0D2E0F0E9782946B0
:1022C000F6906202E0F50875090074047808122D92
:1022D000307829E50846F608E50946F6906204E0FC
:1022E000F50875090074097808122D30782AE50977
:1022F00046F6E9A2E05003752B0174065960037598
:102300002B00E58BA2E55006758BDF752B0012378D
:1023100075758B00C2E87F0202273EC3E498F8E49B
:1023200099F912235C8026C3E49AFAE49BFBE92026
:10233000E7E912235CE498F8E499F922C3E498F8F9
:10234000E499F912235CE498F8E499F9C3E49AFA61
:10235000E49BFB22EB20E7CFE920E7E0B90010BBCC
:102360000008E88AF084F8AAF022E4FBC8FA22EB1D
:1023700070227B10C833C8C933C9335007C39AC30E
:10238000DBF280069A50012ADBEAC833F4C8C9336D
:10239000F4C9FA2275F008E4C833C8C933C933C98F
:1023A0009AC99B5004C92AC93BD5F0ECFBC833F449
:1023B000C8E4C9FA2274F512261C74FA122C277587
:1023C00008047509007808122B967404122C077AF9
:1023D000F87B077903122F177402122BA990818CB6
:1023E0007808122E0E7402122E657808122C7E7058
:1023F000487508027509007808122B967402122C91
:10240000077AF67B077903122F177402122BA9851E
:102410001882851983E0F47003A3E0F4601B85182B
:1024200082851983E0F8A3E08882F5837402F0A323
:10243000F0A37469F0A374A5F0C2AF75D69F020033
:10244000007406122BA97F04022904080808EAC0B8
:10245000E0EBC0E086F0E7A4FA180986F0E7A42ACA
:10246000FA180986F0E7A42AFA180986F0E7A42AE0
:10247000FA1986F0E7A4FBE5F02AFA190886F0E7D6
:10248000A42BFBE5F03AFA190886F0E7A42BFBE54C
:10249000F03AFA18180986F0E7A4C5F02BFBE43AE5
:1024A000FA1908E7C5F0C6A426F6E5F03BFBE43AC6
:1024B000FA1886F0E7A4F6E5F00826F6E43B08F6FD
:1024C000E43A08F6D0E0FBD0E0FA22122E5AB90026
:1024D0000302252BE47921780DB800028004F70966
:1024E000D8FCE49004D1783979188002F0A3D8FCA4
:1024F000D9FA781A9020867A01BA00028007E4930C
:10250000A3F608DAF97A097B1C90209478F7790110
:102510008015E493A3AD82AE838A828B83F0A3AA55
:1025200082AB838D828E83D8E9D9E77582FF75836C
:10253000FD7406122B3875828975834D7400122B39
:1025400038E4CFC0E0E4CEC0E0E4CDC0E0E4CCC0ED
:10255000E075F020E626F608E633F608E633F608DE
:10256000E633F6181818EC33FCED33FDEE33FEEFCE
:1025700033FFC3EC9709ED9709EE9709EF97191907
:1025800019400FFFEC97FC09ED97FD09EE97FE1936
:102590001906D5F0BFECF709EDF709EEF709EFF7EB
:1025A000191919D0E0FCD0E0FDD0E0FED0E0FF2208
:1025B0002518C582C0E0E51934FFC583C0E0E518E1
:1025C000C3958224F810AF08858319858218800886
:1025D000858319858218D2AFCEF0A3E520F0A378C9
:1025E00008E608F0A3DEFAEFF0A3E58124FAF8E6A6
:1025F00008F0A3E608F0A3E608F0A30808E608F050
:10260000A3E608F0A315811581D0E0FED0E0F8150F
:102610008115811581E8C0E0EEC0E0222518C58251
:10262000C0E0E51934FFC583C0E0E518C3958224F6
:10263000F910AF088583198582188008858319856C
:102640008218D2AFCEF0A3E520F0A37808E608F018
:10265000A3DEFAEFF0A3E58124FBF8E608F0A3E699
:1026600008F0A30808E608F0A3E608F0A315811512
:1026700081D0E0FED0E0F815811581E8C0E0EEC021
:10268000E022C0D02518C582C0E0E51934FFC5831B
:10269000C0E0E518C3958224F310AF08858319853F
:1026A00082188008858319858218D2AFC8F0A3E903
:1026B000F0A3EAF0A3EBF0A37908E709F0A3D8FAB6
:1026C000ECF0A3EDF0A3EEF0A3EFF0A3D0E0F0A3C5
:1026D000D0E0F0A3D0E0F0A3E520F0A3E5F0F0A374
:1026E0002212010002020000205104A81609000174
:1026F00002030109024300020100801909040000DD
:102700000102020100052400100104240202052434
:10271000060001052401000107058203400040096D
:10272000040100020A0000000705840240000007BF
:10273000050402400000FC2600001F270000851948
:1027400083851882E0C0E0A3E0F9A3E0FAA3E0FBF0
:10275000A37808E0F608A3DFFAE0FCA3E0FDA3E01D
:10276000FEA3E0FFA3E0C0E0A3E0C0E0A3E0F5D05B
:10277000A3E0F520A3E0A3F5F010AF088583198549
:1027800082188008858319858218D2AFD082D083C1
:10279000D0E0F8D0E032E47375F0108E218F2285FE
:1027A0008226858325851882851983E0CEA3E0CF14
:1027B000852682852583EBC9EAC8EDCBECCAC3E840
:1027C00033C8E933C9EA33CAEB33CBC3EA9EF524F5
:1027D000EB9FF523B35004AB23AA24EC33CCED33A9
:1027E000CDD5F0DAAE21AF2222D083D082ECC0E08A
:1027F000EDC0E0E493A3FCE493A3FDED4C600D1267
:102800002944EC24FFFCED34FFFD80EFE493A3FCAE
:10281000E493A3FDED4C600D122A1BEC24FFFCEDAC
:1028200034FFFD80EFD0E0FDD0E0FCE493A3C0E0F6
:10283000E493C0E022851983851882E0A3FEE0A31B
:10284000F5207808E0A3F608DFFAE0A3FFE0A3C0D4
:10285000E0E0A3C0E0E0A3C0E0E0A3C0E0E0A3C0EC
:10286000E010AF0885821885831980088582188555
:102870008319D2AFD083D082022B3ED083D082E99D
:10288000C0E0E493A3C386F0C5F095F0F908E493A3
:10289000A386F0C5F095F0700BE493A3C3994005AF
:1028A000E9048002A3E475F002A42582F582E5F034
:1028B0003583F583D0E0F9E493A3C0E0E493C0E06E
:1028C00022C0E074F2122682A2AFE433FED2AFE55A
:1028D0008AA2E25007900522E0D2E0F0E58AA2E366
:1028E0005007900522E0D2E1F0758A00C2EB7A1021
:1028F0007B0090051EE0F9123517EEA2E092AF7F43
:102900000102273E851983851882E0A3FEE0A3F526
:10291000207808E0A3F608DFFAE0A3FFE0A3C0E018
:10292000E0A3C0E0E0A3C0E0E0A3C0E010AF0885F2
:1029300082188583198008858218858319D2AFD0C3
:1029400083D08222C0E0C3E4939608740193961862
:10295000400FE49366700808740193661870007065
:1029600019A3A3C3E49396087401939618A3A340F4
:102970000DD0E0D0E0D0E0022825A3A3A3A3A3A319
:10298000D0E022D083D082C5F0E493A3C5F0C395F4
:10299000F0F5F0E493A3C395F04005E5F004800161
:1029A000E475F002A42582F582E5F03583F583E431
:1029B00093A3C0E0E493C0E0227404800874038011
:1029C0000474028000CCC0E0EDC0E0E518C39CCCEC
:1029D000AD1950011D10AF068C188D1980068C188A
:1029E0008D19D2AF122ABAD0E0FDD0E0FC227402D9
:1029F0008000CCC0E0EDC0E0E518C39CCCAD195020
:102A0000011D10AF068C188D1980068C188D19D2F7
:102A1000AF122A98D0E0FDD0E0FC22C0E0C0F088E0
:102A2000F0E4936670080874019366187000A8F0CB
:102A3000A3A3700BD0F0D0E0D0E0D0E0022825A313
:102A4000A3D0F0D0E022D083D082CCC0E0E493A326
:102A50006006122ADB1470FAE493A36006122C536A
:102A60001470FAD0E0FCE493A3C0E0E493C0E02249
:102A7000C0E074F2122682758900C2C59019AAE0DE
:102A8000700E7A007B109005F7E0F912351780037D
:102A9000123E2F7F0102273ECAC0E0E493A3C58205
:102AA000CCC582C583CDC583F0A3C582CCC582C504
:102AB00083CDC583DAE5D0E0CA22CAC0E0E0A3C571
:102AC00082CCC582C583CDC583F0A3C582CCC58227
:102AD000C583CDC583DAE6D0E0CA22C0E0E493A383
:102AE000D39C5010E493A3C39C400AD0E0D0E0D024
:102AF000E0022A63A3A3A3D0E022700908080822F9
:102B00006016181818C6C333C608C633C608C633BD
:102B1000C608C633C6D5E0EA22C008C3E096F50869
:102B200008A3E096420808A3E096420808A3E096AE
:102B300045087001D3D00822C09FF59FE473D09F51
:102B400022D083D082C09FE493C0E0740193C0E0A0
:102B5000740293F59F22C0E0C0D0E8C0E0A8A8D2DC
:102B6000AFC2C7751A00E8A2E792AFD0E0F8D0D0A4
:102B7000D0E0322518F58210AF08F518400C151971
:102B80008008F51840021519D2AF85198322740404
:102B9000800A74038006740280027401C0E0F404A9
:102BA000122B73D0E0122E1D2200C0D0251810AFBA
:102BB00008F518500C05198008F51850020519D2AF
:102BC000AFD0D022BB0102E722C082C08389828AB3
:102BD00083BB0003E08002E493D083D0822260169E
:102BE000080808C6C313C618C613C618C613C618E5
:102BF000C613C6D5E0EA222518F8E43519F92225CE
:102C000018FAE43519FB222518FCE43519FD22C316
:102C1000E0C696F608A3E0C696F608A3E0C696F6C8
:102C200008A3E0C696F622251810AF08F518400C48
:102C300015198008F51840021519D2AF22BB000EF5
:102C4000C082C0838A838982F0D083D08222BB0174
:102C500001F722C0E0E493A36C7009D0E0D0E0D08B
:102C6000E0022A63A3A3D0E022E76670100809E718
:102C700066700A0809E76670040809E76622E066DC
:102C8000701008A3E066700A08A3E066700408A349
:102C9000E06622C3E09608A3E09608A3E09608A3A6
:102CA000E096A2D265D03322C3E697F60809E697EC
:102CB000F60809E697F60809E697F622C3E4939624
:102CC00008740193960874029396087403939622ED
:102CD000C3E096F008A3E096F008A3E096F008A3FE
:102CE000E096F022E026F008A3E036F008A3E036F4
:102CF000F008A3E036F022E647F60809E647F608B2
:102D000009E647F60809E647F622E627F60809E647
:102D100037F60809E637F60809E637F622E056F6F0
:102D200008A3E056F608A3E056F608A3E056F622FC
:102D3000700422600D18C6C333C608C633C6D5E07A
:102D4000F41822E056F008A3E056F008A3E056F08D
:102D500008A3E056F022E493F608740193F6087491
:102D60000293F608740393F622E026F608A3E036F1
:102D7000F608A3E036F608A3E036F622E657F60892
:102D800009E657F60809E657F60809E657F622E479
:102D9000C396F608E496F608E496F608E496F6225A
:102DA000C3E09608A3E09608A3E09608A3E0962265
:102DB000C6F4C608C6F4C608C6F4C608C6F4C622D9
:102DC000600D08C6A2E713C618C613C6D5E0F322E5
:102DD000C3E7960809E7960809E7960809E79622E7
:102DE00075D00075813F7518D1751904000224CB88
:102DF000600C08C6C313C618C613C6D5E0F422E695
:102E0000F008A3E6F008A3E6F008A3E6F022E0F657
:102E100008A3E0F608A3E0F608A3E0F622CAC0E0A3
:102E2000E6F0A308DAFAD0E0FA22EAF0A3EBF0A386
:102E3000ECF0A3EDF022E0FAA3E0FBA3E0FCA3E0BA
:102E4000FD22E0F8A3E0F9A3E0FAA3E0FB22E8F01A
:102E5000A3E9F0A3EAF0A3EBF022E5C754F844019C
:102E6000F5C77901222518F582E43519F583221278
:102E70002B41AFE105122B4107E205122B41E9E29C
:102E800005122B41CEE305122B4113E405122B4111
:102E900074E405122B4100E505122B412CE50512C7
:102EA0002B4177E505122B419DE505122B4135E6B7
:102EB00005122B41DEE605122B4131E705122B41AD
:102EC00062E705122B4199E705122B413DE90512F6
:102ED0002B4109EA05122B41BCEA05122B41EFA355
:102EE00007122B4100A407122B419EA407122B416D
:102EF000B6A407122B41F37F00122B41BAFF011237
:102F00002B412BA207122B413BA207122B4153A2AC
:102F100007122B4107A307122B413CA007122B419C
:102F2000BFA007122B4125A107122B4179A507123B
:102F30002B417CA507122B41B5A507122B4105A6F5
:102F400007122B4118A607122B411BA607122B4173
:102F5000C8F206122B41D6F206122B414FF306128D
:102F60002B4123F406122B41E2F506122B4147F6C2
:102F700006122B41A2F606122B41F87F00122B41BC
:102F8000759507122B41AD9507122B41F896071244
:102F90002B417C9707122B41C08B07122B416A8C67
:102FA00007122B41A38C07122B41EA8C07122B41ED
:102FB000AD8D07122B41D58D07122B41FB8D0712CA
:102FC0002B410F8E07122B41248E07122B412D8E81
:102FD00007122B414EFA03122B417AFA03122B41AE
:102FE000FCFC03122B4153FD03122B4193FD0312F2
:102FF0002B41A7FD03122B41C0FD03122B41B1FE53
:1030000003122B4162FF03122B4176FF03122B4167
:10301000ED9807122B41119907122B412A9907129B
:103020002B415C9907122B418C9907122B41B999BE
:1030300007122B41C39907122B41259A07122B41E6
:10304000349A07122B413E9A07122B414B9A0712D2
:103050002B411B8907122B413B8907122B417A898F
:1030600007122B41958907122B41B48907122B4176
:103070001A8A07122B41238A07122B41808A0712D2
:103080002B418F8A07122B41B38A07122B41748B75
:1030900007122B41818B07122B41928B07122B4178
:1030A00069A707122B4181A707122B41ADA7071271
:1030B0002B4119CF06122B4173D006122B4181D020
:1030C00006122B4194D006122B41A9D006122B4197
:1030D000BED006122B41D1D006122B4145D106128B
:1030E0002B41AAD106122B4132D206122B41AED26D
:1030F00006122B4172D306122B4182D306122B41AA
:1031000091D306122B41D0A607122B41F4A6071229
:103110002B411CA707122B4144A707122B41648E99
:1031200007122B418B8E07122B41AA8E07122B41BF
:10313000128F07122B41478607122B416086071218
:103140002B416C8607122B41808607122B419E86ED
:1031500007122B41A88607122B41B28607122B417A
:10316000C58607122B41528707122B41C1870712D0
:103170002B41F08707122B413E8807122B418D8887
:1031800007122B41A88807122B41B28807122B4146
:10319000C38807122B41068907122B4192FF0312A5
:1031A0002B41DDFF03122B41E1A206122B410BA3A1
:1031B00006122B4128A306122B413BA306122B41DA
:1031C00051A306122B41AFA306122B41E2A3061214
:1031D0002B41D3A706122B4133A906122B4166A916
:1031E00006122B41B0A906122B410DAB06122B4142
:1031F00035AB06122B414AAB06122B415AAB0612D5
:103200002B419EAB06122B41F9AB06122B4109ACA8
:1032100006122B41B09B07122B41CA9B07122B4170
:10322000F29B07122B410B9C07122B412F9C07127C
:103230002B414D9C07122B41649C07122B41929C01
:1032400007122B41AD9C07122B41C5A407122B413D
:103250000BA507122B416FFA06122B417FFA0612BB
:103260002B4186FB06122B41BAFB06122B41E6FBD3
:1032700006122B4109FC06122B4127FC06122B419A
:1032800061FC06122B41CAFC06122B410CFD0612F2
:103290002B414BFD06122B417CFD06122B41A7FD55
:1032A00006122B41D7EE06122B413CEF06122B41A2
:1032B000E2EF06122B4119F006122B419DEB05128D
:1032C0002B4134EC05122B4162EE05122B414DF1DE
:1032D00005122B41DBF205122B4147F305122B415E
:1032E00096F605122B41E1F705122B41079E0712B6
:1032F0002B41529E07122B418AFD02122B419AFF4D
:1033000002122B417BBB06122B41A8BB06122B419C
:10331000E7BC06122B4180BE06122B4104C10612E7
:103320002B413BC106122B4189C206122B41C2C957
:1033300006122B4168CC06122B410DCD06122B41F3
:1033400039CD06122B4167CD06122B419CCD0612BA
:103350002B41C4CD06122B4124CE06122B410598D9
:1033600006122B41FD9B06122B41EC9D06122B41B0
:10337000159F06122B41F59F06122B419FA10612A5
:103380002B416FA206122B41C3A206122B4145937B
:1033900007122B414F9307122B41709307122B41B9
:1033A000E8CE05122B414DD405122B41BBD5051299
:1033B0002B4177D705122B41F2D705122B4191D81B
:1033C00005122B418AD905122B41BCDA05122B417B
:1033D000CEDB05122B41AEDC05122B4185DD05123B
:1033E0002B416C9C05122B41A49C05122B41CAA6B3
:1033F00005122B41ABA705122B41F7A805122B4153
:1034000040AA05122B41F6AA05122B41CAAB0512A0
:103410002B41B1AC05122B4199AD05122B413BAEAE
:1034200005122B4165AE05122B4115B005122B413B
:1034300085B005122B419EB005122B41F5B1051246
:103440002B41A6B205122B4128B305122B41D4B350
:1034500005122B4144B405122B41E0B405122B4157
:1034600057B505122B418FB505122B4191B60512A8
:103470002B4150B705122B41F6B705122B417F9710
:1034800007122B41A99707122B41BD9807122B4118
:10349000C09807122B4114A307122B414FA3071208
:1034A0002B4191A307122B41A1A307122B41E5A3A6
:1034B00007122B410FF905122B414DF905122B4133
:1034C000B6F905122B41D3F905122B41ECF905127F
:1034D0002B419EFA05122B41A7FA05122B41ECFA5B
:1034E00005122B4122FB05122B4139FB05122B4102
:1034F000ABFB05122B4138FC05122B416EFC05126B
:103500002B41C5FC05122B4129FD05122B414CFD19
:1035100005122B41B0FD05122B410CFE05122B416B
:1035200047FE05122B417CFE05122B418EFE051233
:103530002B41A0FE05122B41D8FE05122B4124FF82
:1035400005122B4162FF05122B41B3D806122B4105
:10355000F3D906122B4116DA06122B4127DA06128E
:103560002B411CDC06122B413CDC06122B41049142
:1035700007122B413A9107122B41829107122B41DE
:10358000DE9207122B41E1E902122B4112EB0212EB
:103590002B414CEB02122B410BED02122B4135ED6E
:1035A00002122B41C2EF02122B4102F002122B41F8
:1035B00099F102122B412CF202122B4184F20212D9
:1035C0002B4127F302122B415FF302122B41A1F38F
:1035D00002122B4110F502122B4162F602122B410E
:1035E00085F802122B41B3F802122B41DAF80212CD
:1035F0002B41E3F802122B413AF902122B41CCF98C
:1036000002122B41BAFC02122B413DFD02122B414A
:1036100024A607122B413AA607122B4144A60712F3
:103620002B419EA607122B4131E206122B4147E2A5
:1036300006122B41ECE206122B412BE306122B4122
:1036400048E306122B4179E306122B41C6E306122A
:103650002B41F9E306122B4134E406122B4120E6FC
:1036600006122B4181E606122B41E09C07122B41EA
:103670003F9D07122B41999D07122B41299F07124D
:103680002B419B9F07122B41D99F07122B411AA058
:1036900007122B4139AC06122B413FAC06122B41CD
:1036A00080AC06122B4172AE06122B41A2AE06125E
:1036B0002B4111AF06122B41DFAF06122B4120B078
:1036C00006122B414EB006122B41D8B006122B41E8
:1036D000EFB006122B41FCB006122B4106B10612C8
:1036E0002B41A2B206122B41B2B306122B41FBB3FF
:1036F00006122B414AF701122B4160F701122B41B0
:10370000F3F701122B411FF901122B4114FA011298
:103710002B41B1FA01122B41F1FA01122B416FFB3F
:1037200001122B41CCFB01122B41DCFB01122B417E
:1037300003FC01122B4156FC01122B41C7FD011263
:103740002B41CCFD01122B41ECFD01122B41EEA7C8
:1037500007122B411CA807122B4151A807122B411D
:1037600053A807122B4155A807122B4166A8071230
:103770002B4168A807122B416BA807122B4141FE71
:1037800004122B41AFFE04122B41D1FE04122B4137
:1037900009FF04122B413FFF04122B412F83071214
:1037A0002B41768307122B41998307122B41CC853D
:1037B00007122B41E68507122B41118607122B4178
:1037C0008EFF05122B4138B406122B4111B506129B
:1037D0002B41F7B506122B4108B606122B4119B63C
:1037E00006122B4165B606122B4159B806122B4121
:1037F000ADB906122B41DDB906122B41A4BA06124F
:103800002B4102BB06122B4199DB03122B41CBDB70
:1038100003122B4164DC03122B41BDDD03122B414B
:10382000A4DE03122B416FE003122B418BE0031245
:103830002B41DAE003122B415CE103122B41B7E18B
:1038400003122B41CAE103122B412EE203122B413A
:1038500089E203122B4139E303122B412AE40312BC
:103860002B4165E403122B41EBE403122B41E5E607
:1038700003122B41A6E703122B41CDE803122B4183
:103880004AE903122B4109EA03122B418EEA031283
:103890002B41DAEA03122B41F4EA03122B413DEBF0
:1038A00003122B415DEB03122B4113EC03122B414E
:1038B00039ED03122B4144ED03122B41ABED031202
:1038C0002B41FEED03122B415CEE03122B4158EF0E
:1038D00003122B41FBF103122B411AF203122B416D
:1038E0002BF303122B414FF303122B41C5F30312A9
:1038F0002B4185F403122B41BCF403122B412EF50E
:1039000003122B414EF603122B417EF603122B417C
:1039100088F603122B418BF603122B4195F6031206
:103920002B41A8F603122B4122F703122B4158F723
:1039300003122B416BF703122B4197F703122B4114
:10394000BEF703122B41E2F703122B4190F803124A
:103950002B4102F903122B4139F903122B4143F990
:1039600003122B417AF903122B4190F903122B41D8
:10397000ADF903122B41DBF903122B41F1F90312CC
:103980002B4109FA03122B411BFA03122B413EA1D2
:1039900007122B414FA107122B41DAA107122B412D
:1039A00082DD06122B41C0DD06122B414CDE0612D1
:1039B0002B4157DF06122B4173E106122B41A8E180
:1039C00006122B41B7C206122B4106C306122B4129
:1039D000A6C406122B417AC606122B41BCC606129B
:1039E0002B4187C706122B418FC806122B41B1C845
:1039F00006122B410DC906122B418EC906122B410E
:103A0000925300122B41B45300122B414755001220
:103A10002B41905500122B41045600122B41815628
:103A200000122B41E65600122B41E95600122B41A1
:103A30002B5700122B419A5700122B414958001264
:103A40002B414C5800122B41C15800122B410459F4
:103A500000122B41FA5C00122B41655E00122B41D3
:103A6000A35E00122B41F95E00122B413F6200124F
:103A70002B41BC6200122B416A6400122B419A65F3
:103A800000122B41D06600122B414A6700122B41D5
:103A90006D6800122B41126900122B412669001239
:103AA0002B41F46900122B411D6B00122B41366D26
:103AB00000122B41106F00122B41A16F00122B41FD
:103AC000AF7200122B41507300122B413F74001251
:103AD0002B418E7700122B419E7700122B411C79CF
:103AE00000122B41AD7900122B41AA7A00122B4112
:103AF000417C00122B41DB7C00122B41007E001226
:103B00002B414A7E00122B410A7F00122B4100807C
:103B100005122B41A08005122B410A8105122B4171
:103B2000238105122B41BA8105122B41FE8105121A
:103B30002B41208305122B415C8305122B41D88336
:103B400005122B41238405122B41828405122B413F
:103B5000928505122B41B28805122B41D38905129B
:103B60002B414E8A05122B41358C05122B41D58CE9
:103B700005122B417C8D05122B41DF8D05122B4147
:103B8000548E05122B41638F05122B41379005127D
:103B90002B416D9005122B419C9005122B415091A9
:103BA00005122B417C9105122B41FC9105122B41F2
:103BB0007C9305122B41089505122B415096051256
:103BC0002B41BB9705122B41C79805122B416A99CF
:103BD00005122B41E39905122B41119B05122B4134
:103BE00077BB04122B41DABB04122B4122BC041216
:103BF0002B4166BC04122B41D0BC04122B4119BDD1
:103C000004122B4151BD04122B41EBBD04122B4178
:103C100045BE04122B4192BF04122B411BC004125B
:103C20002B4142C004122B414CC104122B4137C21C
:103C300004122B4184C204122B4183C304122B4172
:103C4000ABC304122B41F4C404122B4105C504126A
:103C50002B411DC504122B4106C604122B41ECC694
:103C600004122B41F5C704122B411FC804122B412B
:103C700037C804122B4151C804122B4188C80412C2
:103C80002B41A8C804122B41CFC804122B41E6C80F
:103C900004122B41C2C904122B411ACA04122B412F
:103CA000C3CC04122B41F2CD04122B4128CE0412B6
:103CB0002B4132CE04122B4149CE04122B41B6CEF9
:103CC00004122B419FCF04122B41D5CF04122B415C
:103CD000A6D004122B4147D104122B4175D10412F6
:103CE0002B4182D204122B41A1D204122B4124D3A6
:103CF00004122B4195D304122B41D9D304122B412A
:103D00005DD404122B41BAD404122B4167D504129E
:103D10002B414DD704122B412DD804122B4183D8AF
:103D200004122B41E1D904122B4191FC04122B41C6
:103D3000B0DE04122B415AE004122B412AE1041296
:103D40002B41A2E104122B41C4E104122B41B3E246
:103D500004122B41A3E304122B410EE404122B4165
:103D60008EE606122B41A2E806122B4168E90612E4
:103D70002B41BDE906122B413AEA06122B41CEEA4D
:103D800006122B41ECEA06122B4130EB06122B41B6
:103D900056EB06122B411FE105122B4194EB061244
:103DA0002B41ACEB06122B4117EC06122B4159ECC0
:103DB00006122B416EEC06122B4175ED06122B41BB
:103DC00090ED06122B4199ED06122B41A2ED061241
:103DD0002B41ABED06122B41B5ED06122B41D6ED72
:103DE00006122B4153EE06122B41CAD306122B4169
:103DF0002BD806122B4147D806122B414CD806125D
:103E00002B417BFE06122B41008007122B411680AE
:103E100007122B41928107122B41BC8107122B41C3
:103E2000028207122B41008307122B41559A071279
:103E30002B4191A807122B41C77F00122B41008014
:103E400003122B41328003122B419E8003122B411F
:103E5000398103122B41D88103122B411D82031299
:103E60002B413F8203122B41588203122B417E8249
:103E700003122B41A08203122B41DE8203122B413D
:103E8000228303122B41448303122B41A683031286
:103E90002B416D8403122B41248503122B419685FF
:103EA00003122B41688603122B41B28603122B4169
:103EB000058703122B416B8703122B41A587031241
:103EC0002B41F78703122B41138803122B413E88A5
:103ED00003122B41458A03122B41998B03122B416C
:103EE000BB8B03122B41EF8B03122B41108C03125F
:103EF0002B411F8C03122B412A8C03122B41DA8C8D
:103F000003122B41438D03122B41F08D03122B41E1
:103F1000288E03122B41EE8E03122B41FB8F0312CE
:103F20002B41459003122B41D49003122B41389121
:103F300003122B41739103122B41DF9303122B4188
:103F4000339503122B416C9803122B4139990312BC
:103F50002B41C79903122B41DB9903122B41049A81
:103F600003122B41769A03122B410A9B03122B4119
:103F70007A9B03122B41629C03122B41849C0312F7
:103F80002B41EA9D03122B41039E03122B41169EE7
:103F900003122B41739E03122B41829E03122B416D
:103FA0000B9F03122B41219F03122B412DA00312C3
:103FB0002B413AA003122B4143A003122B411BA219
:103FC00003122B414BA303122B415BA303122B4182
:103FD0006AA403122B41E1A403122B411AA5031278
:103FE0002B414AA603122B4190A603122B415CA839
:103FF00003122B4134AC03122B4148AC03122B416A
:1040000052AC03122B415CAC03122B4166AC031281
:104010002B4170AC03122B4189AC03122B4193ACA2
:1040200003122B4111AD03122B411CAD03122B4186
:1040300049AD03122B416EAD03122B4179AD031232
:104040002B41C7AD03122B41D1AD03122B41DCAD87
:1040500003122B4100AE03122B4124AE03122B415D
:1040600080AE03122B41C6AE03122B41E3AE031206
:104070002B4160AF03122B4197AF03122B41D6AFF8
:1040800003122B4123B003122B41A5B003122B4185
:104090003EB103122B410EB303122B416CB303123A
:1040A0002B4188B403122B41AEB403122B41EDB562
:1040B00003122B4113B903122B4154BB03122B41A2
:1040C00030BD03122B41C6BD03122B41EDBF0312BD
:1040D0002B4199C003122B41CEC003122B4133C197
:1040E00003122B413DC103122B4167C303122B4125
:1040F00055C403122B419EC503122B41DEC503128A
:104100002B4184C603122B4115C803122B419EC9B3
:1041100003122B41BEC903122B4117CA03122B41B4
:1041200019CB03122B4163CB03122B41B3CB0312E8
:104130002B419DCC03122B4112CD03122B412CCECF
:1041400003122B41A7CE03122B41ACCF03122B41FC
:1041500057D203122B4176D203122B41D7D303122D
:104160002B4199D503122B41EDD503122B41A5D636
:1041700003122B4154D703122B41B4D703122B4106
:104180006AD803122B41FFD803122B416BD90312BB
:104190002B41A5D903122B41D6D903122B4132DB77
:1041A00003122B41008002122B41328002122B415C
:1041B000698002122B41508202122B41908202121E
:1041C0002B41738302122B41CB8302122B410685B4
:1041D00002122B41528502122B417A8802122B4186
:1041E000E68B02122B41338D02122B41C98D021234
:1041F0002B41D58D02122B41078E02122B41898F44
:1042000002122B41979002122B41C19002122B41B6
:10421000189102122B41719102122B41DD91021271
:104220002B41F49302122B41839502122B414D96A0
:1042300002122B418B9702122B41BB9902122B4188
:104240008B9C02122B41989C02122B411F9D021243
:104250002B41C79D02122B410A9E02122B41539EF5
:1042600002122B41A79E02122B410C9F02122B41DE
:10427000749F02122B41919F02122B41C19F021287
:104280002B41F69F02122B41C6A002122B416FA1B7
:1042900002122B41F3A302122B4113A502122B4150
:1042A000FCA502122B417EA602122B41A0AA0212EB
:1042B0002B41DDAA02122B4135AB02122B4168AB18
:1042C00002122B41E9AB02122B4136AC02122B41F8
:1042D000C1AC02122B4113AD02122B41EAAD021206
:1042E0002B41A3AE02122B413EAF02122B4157B21B
:1042F00002122B4177B302122B4128B702122B4135
:1043000046B802122B4149B802122B4178B802126A
:104310002B417EBA02122B4157BB02122B418CBBA0
:1043200002122B4194BC02122B414ABD02122B41B6
:10433000F0BE02122B4154BF02122B4179BF021270
:104340002B41B8BF02122B41F9BF02122B41D1C041
:1043500002122B41AFC102122B41DCC102122B41D0
:10436000A9C202122B41DFC402122B4150C5021216
:104370002B4190C502122B41C9C502122B415DC6CB
:1043800002122B41A6C702122B4169CB02122B410C
:1043900058CC02122B413FCD02122B41B7CD021255
:1043A0002B4179CE02122B412FD002122B41B7D0D4
:1043B00002122B41CCD102122B41DDD102122B4132
:1043C000F5D102122B4106D202122B411AD202124F
:1043D0002B4152D202122B4180D202122B4107D420
:1043E00002122B41D9D402122B4160D502122B416B
:1043F0009BD502122B41F9D502122B4140D6021255
:104400002B4105D802122B41B7D802122B41E7D815
:1044100002122B41CBD902122B417CDA02122B4122
:1044200037DC02122B41EEDC02122B4123DD02129B
:104430002B418BDD02122B41BADE02122B416CDFC5
:1044400002122B419DDF02122B41B5DF02122B41DC
:1044500044E002122B41F8E202122B41D0E4021296
:104460002B41ECE402122B4108E502122B41D6E568
:1044700002122B41BFE902122B41B6F606122B4164
:10448000F6F606122B41A9F806122B41B8F80612CF
:104490002B419DB805122B41B4BD05122B41FFBD28
:1044A00005122B414FC005122B41E3C105122B41D0
:1044B00071C205122B41D2C405122B41D7C6051279
:1044C0002B412BC705122B413AC905122B418DC92F
:1044D00005122B41E8C905122B410ACA05122B41CE
:1044E00011CA05122B4129CA05122B4109CB05120D
:1044F0002B41E8CB05122B41218201122B41638213
:1045000001122B41998701122B41E58701122B41A2
:104510002B8801122B417A8901122B41D689011275
:104520002B411B8A01122B41AE8B01122B41048FB0
:1045300001122B41299001122B41AB9B01122B41FF
:104540003E9C01122B419B9F01122B41DAA00112CC
:104550002B4135A101122B417DA201122B4169A3F0
:1045600001122B4100A601122B416FA701122B4112
:10457000F6A701122B41F9A701122B416EA80112D7
:104580002B4178A801122B4185A801122B41B0A81C
:1045900001122B4160A901122B415DAA01122B418E
:1045A00007AB01122B4194AB01122B41B2AB0112AC
:1045B0002B41CBAB01122B41F4AB01122B4116ACBA
:1045C00001122B415CAE01122B413FAF01122B4176
:1045D00085AF01122B4104B001122B41B0B0011282
:1045E0002B41E2B001122B4134B101122B4170B1C9
:1045F00001122B41AFB101122B41FFB101122B412E
:1046000004B201122B4158B201122B4184B20112A3
:104610002B4160B301122B41B0B301122B411DB4E9
:1046200001122B4177B401122B410EB501122B411F
:1046300053B801122B416BB901122B4104BB01127B
:104640002B4137BE01122B41C9BE01122B41C0C103
:1046500001122B417FC201122B41C3C201122B4117
:1046600068C401122B417CC401122B4186C4011283
:104670002B4190C401122B419CC401122B41B8C4A0
:1046800001122B4118C701122B4157C701122B41B0
:1046900061C701122B416BC701122B41F1C70112F7
:1046A0002B4149C801122B4166C901122B41CAC9CD
:1046B00001122B41D7CA01122B411BCB01122B41F6
:1046C000C7CB01122B41A0CC01122B415BCD0112B3
:1046D0002B4168CE01122B41A2CF01122B419FD05A
:1046E00001122B41B7D001122B410ED101122B41E7
:1046F00018D101122B4122D101122B412DD10112CF
:104700002B414BD101122B4193D101122B41F5D1F9
:1047100001122B411CD201122B412ED201122B412E
:10472000C9D201122B41FED201122B41FDD301123D
:104730002B414BD401122B4145D501122B417BD586
:1047400001122B41FED501122B416FD601122B41D4
:104750001BD801122B4145D901122B4108DA011255
:104760002B41D9DA01122B4144DB01122B41C1DB71
:1047700001122B41EEDC01122B4182DD01122B4193
:10478000D2DD01122B413DDE01122B4103DF01126C
:104790002B414DDF01122B41A5DF01122B417DE0A2
:1047A00001122B41A0E001122B4163E101122B41C8
:1047B00085E101122B41EEE101122B4104E40112CB
:1047C0002B41F4E401122B41BEE501122B41F6E727
:1047D00001122B4140E801122B4190E801122B41BC
:1047E000FDE801122B415FE901122B418DE9011215
:1047F0002B41B1E901122B41E6E901122B4117EAE5
:1048000001122B414AEA01122B41A4EA01122B4169
:10481000F7EA01122B4123EC01122B41D0ED0112DA
:104820002B411EEE01122B4147EE01122B41D3EE1C
:1048300001122B4148EF01122B4156EF01122B417F
:104840007AEF01122B41D7EF01122B41F6EF011243
:104850002B41ACF001122B41E4F001122B4127F166
:1048600001122B418AF101122B417CF301122B41E1
:10487000A6F301122B41AAF401122B41BCF501123F
:104880002B416CF601122B41F08C06122B41288D26
:1048900006122B41498D06122B418B8D06122B419E
:1048A000ED8D06122B41F78D06122B41078E061255
:1048B0002B41428E06122B41229206122B410F945D
:1048C00006122B41F59506122B418C9606122B41B0
:1048D0002E9706122B41968004122B41418104121F
:1048E0002B41EF8104122B41F58204122B411583D9
:1048F00004122B413E8404122B41F98504122B41F2
:104900006C8604122B41108704122B411C88041260
:104910002B41878804122B41C38804122B4106893E
:1049200004122B41418904122B41838904122B412B
:10493000188A04122B41948A04122B415E8B0412B4
:104940002B413B8C04122B41D38C04122B41ED8C58
:1049500004122B411D8D04122B414E8D04122B414C
:10496000148E04122B41248E04122B41738E0412D8
:104970002B41808E04122B41898E04122B41078F0C
:1049800004122B41638F04122B41AE8F04122B4172
:10499000C98F04122B41F48F04122B411190041281
:1049A0002B411D9004122B41B49104122B41CD9147
:1049B00004122B41529204122B41659204122B4196
:1049C000849204122B41289304122B41A9940412BF
:1049D0002B415C9604122B41F29604122B41F59662
:1049E00004122B41659704122B41839704122B412B
:1049F0001A9804122B41629804122B4165980412F4
:104A00002B412B9904122B41989904122B41BE99EA
:104A100004122B41499A04122B41679A04122B412C
:104A2000AD9A04122B41619B04122B41AB9B0412E3
:104A30002B41DA9B04122B41379C04122B416C9CB6
:104A400004122B41989C04122B41A69C04122B416A
:104A5000F39C04122B41639D04122B41AC9D041264
:104A60002B41F89D04122B41249E04122B412F9EB2
:104A700004122B414D9E04122B41389F04122B41EE
:104A8000429F04122B417D9F04122B418D9F0412E3
:104A90002B41969F04122B41EA9F04122B41FE9F4B
:104AA00004122B412DA104122B4140A104122B41D1
:104AB00057A104122B416CA104122B41FAA104123C
:104AC0002B413FA204122B41CBA204122B41D6A2B0
:104AD00004122B4118A404122B4133A404122B41BD
:104AE0007FA404122B41EEA404122B4127A504122B
:104AF0002B4141A504122B41A1A504122B4140A634
:104B000004122B418BA604122B415BA904122B41EA
:104B10000DAA04122B417AAA04122B41BAAC04123A
:104B20002B41D2AC04122B41D5AC04122B41E1AC89
:104B300004122B41F5AC04122B41FDAC04122B41A5
:104B400030AD04122B4133AE04122B41C0AE04121F
:104B50002B4130AF04122B41B2AF04122B4173B082
:104B600004122B4192B004122B4133B104122B4199
:104B700090B104122B4193B104122B41C0B1041225
:104B80002B41D5B104122B4149B204122B4198B3E9
:104B900004122B419EB404122B4129B504122B415F
:104BA00044B604122B410CB704122B413DB704123A
:104BB0002B4160B704122B4169B704122B4198B7FF
:104BC00004122B4128B804122B41DEB804122B41E9
:104BD00053B904122B41FAB904122B416FBA0412D3
:104BE0002B41A6BA04122B41E4BA04122B411ABB82
:104BF00004122B4167FC04122B41EBFB04122B41E6
:104C00003FFA04122B41E8F904122B413CF904123B
:104C10002B4174F704122B41BDF604122B418AF686
:104C200004122B413FF604122B41DAF504122B41FA
:104C300099F504122B4179F504122B41ABF40412BF
:104C40002B4138F404122B41D6F304122B4179F393
:104C500004122B41ECF104122B4189F104122B4177
:104C6000DDF004122B41D4F004122B41C8F00412E1
:104C70002B4195F004122B4146ED04122B4118ED07
:104C800004122B41B3EC04122B41A0EC04122B4173
:104C9000DAE005122B4195EC04122B41BEE005121F
:104CA0002B41C4DE05122B4186DE05122B4160DE4E
:104CB00005122B41E4DD05122B41ABFD04122B4103
:104CC00059EC04122B4187EA04122B4170EA0412BA
:104CD0002B41A6E904122B4160FD04122B4103E98C
:104CE00004122B4127E704122B41C9E504122B4182
:104CF000BEE504122B417CEB06122B4136E5041273
:104D00002B41F4FC04122B41CDE404122B41A9E405
:104D100004122B41B98C06122B41728C06122B41C6
:104D2000118C06122B41DC8B06122B41B18B061223
:104D30002B417D8B06122B41558B06122B41D88AB5
:104D400006122B41C28A06122B41928A06122B416F
:104D5000088A06122B414D8606122B410584061245
:104D60002B41DD8106122B415F8106122B41008011
:104D700006122B41108106122B419D8006122B41F9
:104D80005E8006122B4106DC0400000080FB8F00D1
:104D90000100DF1C870001009E1935000400A31CE0
:104DA00025000200A71C26000200A91C2700020003
:104DB000AB1C28000100B51C29000100B61C8400B2
:104DC0000400761986000100171C2A000100B71C98
:104DD0002B000100B81C2C000100BE1C2D00080097
:104DE00084192E000100BF1C2F000100C01C3000E0
:104DF0000100C11C31000100C21C320001008C19ED
:104E0000330001008D1934000100C31C360001007D
:104E10008E1938000100C41C39000100BD1C83003C
:104E20000200DC1C63000100991964000100B91C38
:104E300065000100BA1C6D0001009A19710008009C
:104E40007C1966000100DB1C43000100CC1C4400FF
:104E50000200CD1C45000100CF1C46000200D01C02
:104E600047000800911948000100D21C4B000100C6
:104E7000D31C04000100DE1CA1000100E21C37006D
:104E80000100E11C88000100E01C3C0001008F19BA
:104E90003D000100C51C49000200D41C6700010050
:104EA0009B194D000200D61C4E000100D81C4F007B
:104EB0000200D91C3E000100CB1C51000100C71CA0
:104EC00052000100C81C53000100CA1C540001001C
:104ED00090190000000000000001363601010001B9
:104EE00002010001030100010401060605020000A1
:104EF000070100340801000F090401010D0100FF42
:104F00000E08000017020000190100FF1A0100013D
:104F10001B0100FE1C0100081D0200001F01000112
:104F200020010001210200002301000F24020000E3
:104F30002601000127010008280200FF2A010007BE
:104F40002B0102402C0100002D0100012E01000167
:104F50002F0100FF30010B1D310800003A0100084D
:104F60003B01000F3C0100013D0100FF3E04000039
:104F700042040000460400004A0400004E04000001
:104F800052040000560400005A040000010371039B
:104F900001030103010301030103220302030103CF
:104FA00010030003000300030003000300030003D9
:104FB0004203000324030603000300030403120357
:104FC0002503230325032303040304030003000331
:104FD00000034403000300032303000365032100CF
:104FE00035038103000305030003000300030003EE
:104FF00025032303030271023001600211027002D3
:105000000102020202028002100261023A00410023
:10501000630273027202620243020002130238004A
:10502000000200020402120200020002000200025A
:1050300004020402370037003C0244020002390037
:105040000002000265020002350281020002050230
:10505000820283020002030071003001600011002F
:105060007000310220035004800010006100000035
:10507000140063007300720062004300000013001C
:105080000600000000000400120000000000000004
:10509000000004000400370037003C024400000018
:1050A00000000000000065000000350081000000E5
:1050B00005000000830000000101710101010101F0
:1050C00011010101310101010101800110016101A2
:1050D0003B0014006301730172016201430100018E
:1050E000130106013D013500040112010001000118
:1050F0000001000104010401330133013C014401BA
:105100003201360000010001650100013500810116
:1051100000010501820183010001030471040204FE
:105120006004110470040204020401040204100467
:1051300061040004140463047304720462044304ED
:105140000004130406040004000404041204000410
:10515000000400040004510464000004000400047E
:105160004404000400040004000465040004350441
:105170008104640005040004830400043600010077
:10518000060000000F00000000000000000000000A
:10519000000003FFFF00000403FFFF0000FFFF0FFC
:1051A000F4010005C4040320000100000B0000000E
:1051B000000000000003010F0000000000000000DC
:1051C00000000000000000000000000000000000DF
:1051D000000000000000000000001300A53A1F00BE
:1051E000AB3A1F80B13A00004D3B01004D3B02003D
:1051F000273A0280213A03002D3A0400333A048012
:10520000393A05003F3A06004B3A3000693A31001E
:10521000633A3200753A33007B3A3500813A340004
:10522000873A36008D3A1100993A14009F3A1500DA
:105230005D3AFFFF00000A000000020000000400C9
:1052400000000800000010000000200000004000E6
:1052500000008000000000010000000200000004C7
:1052600000000008000000100000002000000040C6
:105270000000013D45066D450867450B8B45105301
:10528000410A9D45024345055B450749450C2545B7
:105290000D3145641F3FFF000007ECFDFDFDECDC18
:1052A000DCCCBCACAC9C9C8C7C7C6C6C5C5C5C4C4E
:1052B0004C3C3C2C2C1C1C03EAF5E5D5D5C5B5A50A
:1052C000959585857575656555554545353525250E
:1052D00015150500160F00000B150B020002220F1A
:1052E0003300000E0F00000000000000000000006E
:1052F00000000000005A6967426565416C6C696195
:105300006E63653039D0D1D2D3D4D5D6D7D8D9DAD7
:10531000DBDCDDDEDF00011916181616182303008A
:1053200000034D4C4651181A250502303016181945
:1053300020231A1C1E30003C40423A3F3F392F4781
:1053400030303017181921301B1D1F300C0E020B86
:10535000040B0A0708000F020402010101010902FF
:1053600000BE040AE80300000E000000E8030C0081
:105370001E0000007F0005030004091E100A0C1027
:105380000803FF0C280004040209033C0C05080B69
:10539000081EC082C0839017EDE4F0A3F07CCD7DA1
:1053A000197A077B1712368B123F4F1241A1123F19
:1053B0005502691F74F21225B074FE122C27E9FF02
:1053C0008A08EBFE8C09E9703374026A701679085A
:1053D000123973E4F50AF50B780A122B96780A1243
:1053E0002B9A805374016A600302551979081239A7
:1053F000737B00EEFAF9123FC102551474016F601D
:105400000874026F6003025519EA600874036A6049
:10541000030254B41243C3E9605374036508604D3A
:105420001234CF8A0A8B0B780A122B96750A0178F0
:105430000A122B9A750A00780A122B9AE509F50AC6
:10544000780A122B9AEEF50A780A122B9A901721F5
:105450001229B9901C17E0F97C917D19901CDC127F
:105460006746123F79740A122BA902551479021269
:105470003973901C17E0F9901721122E36123F67EE
:10548000E9F8901731E0A2E34010E9700D9017F1B0
:10549000E004F064047003125535740365087076F7
:1054A0009017F2E0F9740129F0E9C39405406712FE
:1054B0005535806274016A706074016F790A702CCE
:1054C0001239737A007B04901A9EE0F9123649AAC9
:1054D00018AB19795012643A126455E81278E779DA
:1054E00000901A5112674612400980441239739095
:1054F0001CB11229B97A007B20901726E0F91236E8
:105500003D7404122BA9901C17E0F9901721122E5C
:1055100036123FA3E9F8E860179082141229B97A8D
:10552000017B00901726E0F912363D7404122BA976
:105530007402027D7B901721E4F0A374F8F0A37449
:10554000FFF0A37407F02274F61225B0E9FFEAFE1B
:105550007AD1F91234F38A828B83E5824583702AEB
:105560007A027B001234D5EA4B700E7A107B0090E1
:105570001726E0F912351780148A828B8374D1F0D4
:10558000EFA3F0EEF91234E18003EFA3F002579598
:1055900074F71225B089089004D1126868901C999C
:1055A000E0F47003A3E0F470309005F7E0901C99EC
:1055B000F0A3E4F080238E828F831266C9600F8E81
:1055C000828F83A3A31266C6FAA908123A098E82B3
:1055D0008F83126447E8FEE9FFEE4F70D9901C9963
:1055E000E0F47003A3E0F4600A901C99E0FAA908C3
:1055F000123A091246639016F1125E9D12465D7FC3
:105600000102283574F01225B0890B8C0C75090045
:105610007508007410122E651264477412122E65FC
:1056200012584380471256CDF50EA3E0F50FAE0891
:10563000EE2EFEE433FFEA2EF582EB126D14650EBA
:105640007004A3E0650F7019AE09EE2EFEE433FF7F
:10565000EC2EF582ED3FF583E50EF0A3E50FF005A6
:1056600009050AE50AC3950C40BB0508E508C39582
:105670000B5005750A0080EBA90980007F080228FD
:105680003574F41225B0890B7D00740C122E65124E
:10569000644780010DEDC3950B502E750A00800202
:1056A000050AE50AC39C50ECED25E0FEE433FFEA71
:1056B0002EF582EB3F1278B51256CD65087004A323
:1056C000E0650970DB7901800279008014AE0AEE92
:1056D0002EFEE433FFE82EF582E9125E3A22122B09
:1056E000A97F04022835022B3E74F61225B012570A
:1056F0007F7003A3E06D701775082F750917780880
:10570000122B96EEFA123B537402122BA9801A75D3
:1057100008027509807808122B968A08890978088A
:10572000122B9612576D122BA9806A74F61225B0AF
:1057300012577F7003A3E06D701775083C75091749
:105740007808122B96EEFA123B597402122BA9809C
:105750001A7508037509807808122B968A0889093A
:105760007808122B9612576D122BA98028EE240E62
:10577000125E37FD7C801269C5123B77740422EA01
:10578000FEEBFF1269DAFCE439FD9016F1E06C22C1
:105790007402122BA97F0202283574F61225B07408
:1057A000FE122C278A088B09851882851983E4F05C
:1057B000A3F01262B6126B0EFBECFA88828983A307
:1057C000A3E0F97F007E00600574FF6970047E82AB
:1057D00080459016F1E06A7003A3E06B701AAA1876
:1057E000AB19124D3BE9FA85188285198312690CB1
:1057F00070027E83EAFF801F90199EE060046401BE
:10580000700E123ED7E960047E89800B7E8180078E
:10581000E0640270027E8012583DEEF9AA08AB09DE
:10582000123B5FEF601485188285198312690C6042
:105830000985188285198312734902579085188249
:10584000851983E0FCA3E0FD22022B3E74F21225B1
:10585000B0EAFEEBFF7508007509001269D6F50A7B
:10586000E439F50B124663EA650A7003EB650B70C9
:1058700012124D29E914F50879017AB97B17124DF6
:10588000238003750980126D0EF50C780C122B9A8B
:10589000750CB9750D17780C122B967808122B9A87
:1058A000780A122B96E509F5087808122B9A1267E8
:1058B00035126D11F97A057B80123B657407027D04
:1058C0007B74F61225B0E9FF7E0080308A828B83DC
:1058D0001278BDF8E4C8F9E50828E439F509EE25A1
:1058E000E0F8E433F9EC28F582ED39F583E508F0CA
:1058F000A3E509F0EA2402FA50010B0EEEC39F4023
:10590000CB02579574E81225B074FE122C278A102A
:105910008B11750F00851882851983E4F0A3F0F5CB
:1059200016F5171265953511127A8D127EEEFA8EE4
:10593000828F83A3A3A3E0F9EAF508E439F509AA65
:105940000AAB0B1246FFE96401702B12770E122B83
:105950009AE4F508F5097808122B967808122B9A24
:10596000780A122B967508807808122B9A125CDC44
:10597000122BA9025CC5AA0AAB0B1246FFE97041C3
:105980009016F1E0650A7004A3E0650B603390198E
:105990009EE06402702812770E122B9AE4F508F547
:1059A000097808122B967808122B9A780A122B96EF
:1059B0007508807808122B9A125CDC122BA9025C05
:1059C000C58E828F83A3A3A3A3E0F50BEE2405FE6F
:1059D00050010FE50B602A127DD28518828519834C
:1059E000EAF0A3EB126D2BE849601612583DEEFA6F
:1059F000EFFBA90B123A458A0C8B0DAE0CAF0D8054
:105A000003750B00127DE8601A127DD28A168B177F
:105A1000EA4B600FAC16AD17EEFAEFFBA90A123A8B
:105A2000458003750A009004D180508E828F83A335
:105A3000A3A3A3A3A3A3A3E4F0A3F0EEFAEFFB8533
:105A40001482851583A3A3E0F81266C6F91234E127
:105A5000851282851383E0C0E0A80F74B928F5820F
:105A6000E43417F583D0E0F0050FA2005007AA1226
:105A7000AB1312357D851482851583E0F514A3E000
:105A8000F515E51445157003025C438514828515F0
:105A9000831266C960DF851482851583A3A3A3A33F
:105AA000A3A3A3A3E0A2E050CC851482851583A311
:105AB000A3A3A312690C851482851583A3A3601E7A
:105AC0001266CBFA7901851482851583A3A3A3A35B
