:020000040000FA
:10000000021305022003FFFFFFFFFF02200BFFFF8B
:10001000FFFFFF020E67FFFFFFFFFF02201BFFFF36
:10002000FFFFFF022023FFFFFFFFFF02202BFFFF48
:10003000FFFFFF022033FFFFFFFFFF020EAAFFFFBB
:10004000FFFFFF022043FFFFFFFFFF02204BFFFFE8
:10005000FFFFFF022053FFFFFFFFFF02205BFFFFB8
:10006000FFFFFF022063FFFFFFFFFF02206BFFFF88
:10007000FFFFFF022073FFFFFFFFFF02207BFFFF58
:10008000FFFFFF022083FFFFFFFFFF02208BFFFF28
:10009000FFFF70DFFFFF040000000002000000C847
:1000A0000300030369A5020269A501000000000026
:1000B00004003273000074F812104C900393E06057
:1000C0001590030274FEF0900304744DF0A37405C0
:1000D000F07A0112068C7F0102116974F712104C3C
:1000E00074FF1212717E00801F851882851983E0CB
:1000F00064FE70069003877401F085188285198369
:10010000E0F8900384E068F07C017D00AA18AB1948
:10011000120E228B09EA450970030201F385188249
:10012000851983E064EF70027E07E0C0E0900387EA
:10013000E0FA900385E0F8EA28F8E43400F9740264
:1001400028F582740339F583D0E0F0900387E060EE
:100150009814600E14602C14603C14605214606893
:100160008098900384E4F0851882851983E09003D9
:1001700086F0C394809003874004E40200F974027F
:100180000200F9851882851983E0900382F09003BC
:100190008774030200F9851882851983E090038330
:1001A000F0900386E0601990038774040200F990D0
:1001B0000385E004F0F8900386E06860030200FA2B
:1001C00090038774050200F9900385E4F09003879B
:1001D000F0900384E0F8851882851983E068600355
:1001E0000200FA900382E0644D60030200FA1203F9
:1001F000288002EEF9740112123D7F020211697427
:10020000F712104C74FB121271EAFEEBFF75080432
:1002100075090078081212D574021212EE7A907BDA
:10022000007904120ECB740212123D12067E1213D4
:100230003FE0687003A3E069701285188285198316
:10024000E0F47003A3E0F4600302030874041212E4
:10025000E61206E48A088B09A808A9097402121399
:100260003FE8F0A3E9F0740412133FE0600879015D
:100270001200B6020321851882851983E068700395
:10028000A3E0697076851882851983E0F47003A372
:10029000E0F47019740212133F7410F0A37420F08C
:1002A0008518828519837410F0A37420F0750801F5
:1002B00075090078081212D574021212EE7A247BA6
:1002C00008120F4F740212123D75080478081212BA
:1002D000D574021212EE7A907B007904120ECB7460
:1002E0000212123D12067E12133FE0687003A3E073
:1002F000697004790280067904800279031200B6DD
:100300008E828F83741E80058E828F83E4F01206A6
:100310007E12133FE0687003A3E0697004790180E6
:1003200002790074050201F774E912104C74F81296
:100330001271900307E0FA900306E0F9FEEAFCE48C
:10034000CCFDEE2CED3408FF751001750F00750E15
:10035000068E088F097402780812129CC39508FC57
:10036000E49509FD74022CF51474033DF515E514AC
:100370002497F516E5153420F517EE2410F508E45A
:100380003FF509EEF50CEF5401F50D8E128F137445
:100390000978121212F685120A900383E01460574E
:1003A00014700302046F1470030204E61460102436
:1003B000FE70030205A11470030206510206617566
:1003C0000E03794E120C619003071206747402F04A
:1003D000A374401206727408120672F0A3F0741827
:1003E000C3940704F510AA10A90F12068CA90E7465
:1003F0000812123D02083E750E04794E120C61EE91
:10040000450D7005A90A120FB5C3EE9425EF9408A7
:10041000503FC3E5089424E50994084034E51424CA
:1004200096F8E5153420F988828983E0701E8516D8
:1004300082851783E070159003887401F0888289A3
:100440008374A5F08516828517838004900388E461
:10045000F075081075090078081212D57C087D0324
:10046000EEFAEFFB120F4F740212123D0203E67513
:100470000E05C3E50A947995E04006750F01020365
:10048000E675104075110078101212D57C097D03B5
:100490007402780C12129CAA0CAB0DA90A120ECB96
:1004A000740212123D900307E0A3F0900306E0A34C
:1004B000F0751043C3EE9425EF940840030203E661
:1004C000C3E5089424E509940850030203E6900369
:1004D00088E070030203E6A816A91788828983E4DE
:1004E000F0A3F00203E675080475090078081212FB
:1004F000D574021212EE7A907B007904120ECB743E
:100500000212123D740212133FE0F8A3E0F98518BD
:1005100082851983E0687003A3E0698518828519D4
:1005200083700BE0F47003A3E0F470578009E0F4EB
:100530007003A3E0F4700D8518828519837410F0A0
:10054000A37420F012067E12133FE8F0A3E9F075C1
:10055000080178081212D574021212EE7A247B0870
:10056000120F4F740212123D75080478081212D54A
:1005700074021212EE7A907B007904120ECB740290
:1005800012123D12067E12133FE0687003A3E06969
:100590007006750E010203E6750E02750F07020361
:1005A000E6900391E06007640260030203E6EAFF5D
:1005B0007A01790012068CE060030206458003127E
:1005C0000D22120D2CE970F7740412133F12066607
:1005D000740412133F780812132385080C85090D43
:1005E000850A0E850B0F9005A2780C1212C27404B6
:1005F00012133F780C121314E5084509450A450B00
:1006000070CE8EC2E5C554E04FF5C5740412133F99
:10061000120666740412133F780812132385080C1F
:1006200085090D850A0E850B0F9005A2780C121214
:10063000C2740412133F780C121314E508450945DF
:100640000A450B70CE7A01790012068C79080203F4
:10065000EFE9900393F070030203E6750E090203BD
:10066000E679060203EFE4F0A37426F0A3E4F0A316
:10067000F022F0A3E4F0A3F0A3F0A3F0A3228518E6
:1006800082851983E0F8A3E0F974022274F812104D
:100690004CEAFE900305E0D2E7F0E9A3F0EE900308
:1006A00003F08E0874042AFE7C028004E062080CC9
:1006B000ECFA3395E0FB74022AF58274033BF58370
:1006C000EEF8C3EA98EB9400A2D265D03340DDE5A2
:1006D00008F074012A0C3395E0FD7A027B03120EB8
:1006E000520200D674E912104C7582007583FE1216
:1006F00012048A168B177514007515008A828B8375
:10070000E4F0900391E07006D2AAD2AF80046402B4
:10071000700579001200B6750C00750D20750E007D
:10072000750F00900391E0600464027015120D22B1
:100730001200DBE9F87409686003020814790012FA
:1007400000B675080075090278081212D5740212F5
:1007500012EE850C08850D09AA08E5095407FB85EA
:100760000E0A850F0B740B7808121258A908120E86
:10077000CB740212123D7E007F009005AAC0828ECB
:1007800010EFF5113395E0F512F513850C08850D82
:1007900009850E0A850F0B780879101212AF9005A3
:1007A000A678081212C2758305D08278081211E566
:1007B000501D851882851983E5822EF582E5833FD9
:1007C000F583E0F9AA14AB151208438A148B150EB1
:1007D000EE70010FC3EF940240A09005AE780C12AA
:1007E00012C29005B2780C1211E54003020723797A
:1007F00000AA14AB1512084379001208438B159018
:100800000391E07004C2AFC2AAEA451570277AA529
:100810007BA58021E870030207427406687003021A
:1008200007427407687003020742851682851783A2
:100830007401F080BA7582007583021212047F1071
:10084000021169C008C0097C088A088B09740F78F6
:10085000081212F6E508F8EA25E0FAEB33FBE9A204
:10086000E7500474014AFAE8A2E0500874216AFAD9
:1008700074106BFBE9C333F91CEC70CDD009D008C0
:100880002274F812104C78007900802274942EF5AE
:1008900082E43403F583E08A828B83F0900414129F
:1008A0000A014005900414E4F008E870010990047E
:1008B00014E0FEA3E06E6007C3E89CE99D40CDE82C
:1008C000FAE9FB7F0102116974F712104C90049849
:1008D000E0F509A3E0F508F8E509C398F895E0F913
:1008E000E508C39509E8500B120AE3701178007906
:1008F00000801B247F500109C39CE99D50EF7A00C2
:100900007B008041E004F0D2E908E8700109C3E807
:100910009CE99D502C8A828B83E0C0E0900499E092
:10092000FE74182EF582E43404F583D0E0120AD365
:1009300090049AE4F0900499E0C3947F40C6E48068
:10094000C5E8FAE9FB7F02021169C082C083C2E9EF
:10095000900498E0F8A3E0686017741828F582E422
:100960003404F583E0F5C1900498120AFA4002E4D9
:10097000F0020D4074F812104C7800790090051DBB
:10098000E07055A3E0705175F900C28FC284A28354
:1009900040FCA28F4004A28350F8AEF9C28FA2831C
:1009A0005004D2848032EEC0E0E0FE1209F6D0E0BE
:1009B000F090051E120AFA40D9E4F080D51209F62B
:1009C000E08A828B83F090051D120A014005900594
:1009D0001DE4F008E870010990051DE0FEA3E06E3B
:1009E0006007C3E89CE99D40D4E8497006E4F090B4
:1009F000051DF00208BF749D2EF582E43404F583D2
:100A000022E004120AD7C394802274F812104C908A
:100A100005A0E0FEF890059FE0FFEEC39FE0500DBB
:100A2000C398F895E0F9120AE270188012C398F89A
:100A300095E0F9E8247F500109C39CE99D4004EC4E
:100A40004D70077A007B00020AD08A828B83E0F522
:100A5000F9A3AA82AB83780179008008E004F0084A
:100A6000E8700109C3E89CE99D50278A828B83E0E6
:100A7000C0E09005A0E0FE741F2EF582E43405F579
:100A800083D0E0120AD39005A0E0C3947F40CDE468
:100A900080CCC28FA28340FCC284A28F4004A28378
:100AA00050F890059F120AEDE0F5F9C28F90059F6E
:100AB000E0FAA3E06A90059F7005120AED80051226
:100AC0000AFA4002E4F0A28350D0D284E8FAE9FBAB
:100AD0000208C3120AD722F08A828B83A3AA82ABB0
:100AE0008322E824FF18E934FFF9E84922E0FA7488
:100AF0001F2AF582E43405F58322E004F0C39480D4
:100B00002274FB121271C2009005CA7808121323D6
:100B10009005CA7401F0A3F0A37469F0A374A5F062
:100B20009005B678081212877004D20080159005DF
:100B3000BA78081212876008E59D54186410700393
:100B4000022000120C87A2005003020C04AA18AB6A
:100B5000191201FFE97003020C04851882851983BC
:100B6000E0C3943C500CE0F8743CC398FA95E0FB69
:100B700080047A007B00120D45E97003020C04909A
:100B80000391E06401700C75F800C2AB539AF7D280
:100B9000EA805E79071200B68003120D22120D2C36
:100BA000E970F7740112133FE4F0A37426F0A3E494
:100BB000F0A3F0740112133F780812132385080C78
:100BC00085090D850A0E850B0F9005A2780C12126F
:100BD000C2740112133F780C121314E5084509453D
:100BE0000A450B70CE758600C2AAC28B539AFBC20F
:100BF000E990000174CDF0022000C2AF75C9AB7559
:100C0000C95B80FE750800750900750A00750B0048
:100C1000900391E0701BD2AAD2AF79051200B6E022
:100C20007003120D221200DBE9F874096870098064
:100C3000E9794E120C6180ED74016870E2E0701782
:100C4000120D229005BE78081212C29005C27808D3
:100C50001211E550EBC2AAC2AF75C9AB75C95B8072
:100C6000FEC082C08378109005A1E0C3995015752D
:100C7000B60FE5B4A2E750FAE5BBC39940F118E816
:100C800070EDE9F0020D40C082C08353BEFBE59DCC
:100C9000A2E650FA0078F8790100120AE270FA75BB
:100CA000C6807480659E70FA43BE049062707408BA
:100CB000F0794A120C6190000174F5F07403F5D5D7
:100CC00075D489A2A0E433900391F0A2E05029D218
:100CD0008453F3F753F3EF53FDF743FD10538FF7AE
:100CE00053F7DF43FC2043F10253F5DF75F820434F
:100CF000F4F0D2FED2AB802853FF3F85FFFF53F1C3
:100D0000FE43F30C53F2F375868075C48090049B08
:100D1000E4F0A3F075C2D875C50B75C402438640D4
:100D2000801E800312094AA2E940F922C082C083D2
:100D3000900498E0F8A3E0686004790180027900EB
:100D4000D083D0822274F112104C74FF1212717E83
:100D500000900391E06401706CC28490039274016E
:100D6000F07508388E098E0A8E0B7C017D00AA185A
:100D7000AB19120E228B0DEA450D6018851882857D
:100D80001983E06410602DE064EF70088E088E090E
:100D90008E0A8E0B85080C85090D850A0E850B0FB2
:100DA0009005A278081212C2E50C450D450E450FBC
:100DB00070347E01900391E064017056D2849003F8
:100DC00092E4F08051D2AAD2AF8A088B09E4F50AE6
:100DD000F50B9005C6780C1213237808790C120FC6
:100DE000CC79061200B6900391E06003020D6A12FE
:100DF0000D221200DBE9F874096870077906120009
:100E0000B680917407686084E8608974066870A48D
:100E10008082C2AFC2AAEEF9740112123D7F0802AD
:100E20001169C082C083900391E07005120881802F
:100E30001E900392E06015A28F500BE5F98A828B19
:100E400083F07A0180027A007B0080031209740229
:100E50000D40C082C083900391E070051208C880E5
:100E600003120A0A020D40C0E074F21210B29000A0
:100E700001E064CD7005122013802AE064F570242F
:100E8000E5C1C28BC0E0900415E0F8749428F582A7
:100E9000E43403F583D0E0F0900415120AFA40051B
:100EA000E4F08001007F01021111C0E074F2121021
:100EB000B2900001E064CD700512203B800BE0642D
:100EC000F5700512094A80010080DA74F612104CA0
:100ED000890A740F550AF508750900740B78081211
:100EE000129CEA2400F8EB3480F9E82400E9350983
:100EF000F985C709A2AFE433F508C2AFE50AC454C7
:100F00000FFAE5C754F84AF5C7740A12133FE0FA1E
:100F1000A3E0FB801C88828983E08C828D83F0882B
:100F2000828983A3A882A9838C828D83A3AC82AD9E
:100F300083EAFEEBFFEE24FF1AEF34FFFBEE4F7067
:100F4000D48509C7E508A2E092AF7F030211697456
:100F5000F712104CED900389F0ECA3F0A37462F04B
:100F6000A37473F0A3E0541FF0740912133FE0F56B
:100F700008A3E0F509E508333354FC90038EF074C0
:100F80000678081212F6E50890038DF090038F742E
:100F900012F0A37442F075D1FE75D601EA90627129
:100FA000F0EBA3F0906270E0D2E1F0E0A2E740FB4A
:100FB0007F02021169C082C083E9C333906272F07C
:100FC000906270E0D2E0F0D083D08222080808EA74
:100FD000C0E0EBC0E086F0E7A4FA180986F0E7A4C9
:100FE0002AFA180986F0E7A42AFA180986F0E7A475
:100FF0002AFA1986F0E7A4FBE5F02AFA190886F028
:10100000E7A42BFBE5F03AFA190886F0E7A42BFBDE
:10101000E5F03AFA18180986F0E7A4C5F02BFBE4CE
:101020003AFA1908E7C5F0C6A426F6E5F03BFBE45A
:101030003AFA1886F0E7A4F6E5F00826F6E43B084D
:10104000F6E43A08F6D0E0FBD0E0FA222518C58293
:10105000C0E0E51934FFC583C0E0E518C3958224DC
:10106000F910AF0885831985821880088583198552
:101070008218D2AFCEF0A3E520F0A37808E608F0FE
:10108000A3DEFAEFF0A3E58124FBF8E608F0A3E67F
:1010900008F0A30808E608F0A3E608F0A3158115F8
:1010A00081D0E0FED0E0F815811581E8C0E0EEC007
:1010B000E022C0D02518C582C0E0E51934FFC58301
:1010C000C0E0E518C3958224F310AF088583198525
:1010D00082188008858319858218D2AFC8F0A3E9E9
:1010E000F0A3EAF0A3EBF0A37908E709F0A3D8FA9C
:1010F000ECF0A3EDF0A3EEF0A3EFF0A3D0E0F0A3AB
:10110000D0E0F0A3D0E0F0A3E520F0A3E5F0F0A359
:1011100022851983851882E0C0E0A3E0F9A3E0FAF4
:10112000A3E0FBA37808E0F608A3DFFAE0FCA3E065
:10113000FDA3E0FEA3E0FFA3E0C0E0A3E0C0E0A3C6
:10114000E0F5D0A3E0F520A3E0A3F5F010AF08850B
:1011500083198582188008858319858218D2AFD0BB
:1011600082D083D0E0F8D0E032851983851882E000
:10117000A3FEE0A3F5207808E0A3F608DFFAE0A3D9
:10118000FFE0A3C0E0E0A3C0E0E0A3C0E0E0A3C0B4
:10119000E010AF088582188583198008858218853C
:1011A0008319D2AFD083D08222E490030278A17950
:1011B000038002F0A3D8FCD9FA7AA27B0590008EB6
:1011C000782979018015E493A3AD82AE838A828B5E
:1011D00083F0A3AA82AB838D828E83D8E9D9E712EC
:1011E0000B01121349C008C3E096F50808A3E09666
:1011F000420808A3E096420808A3E096450870015B
:10120000D3D00822C5822518C582C583351910AFF1
:1012100007F5198582188007F519858218D2AFC5A0
:1012200083222518F58210AF08F518400C15198097
:1012300008F51840021519D2AF8519832200C0D0D5
:10124000251810AF08F518500C05198008F518502E
:10125000020519D2AFD0D0226016080808C6C31301
:10126000C618C613C618C613C618C613C6D5E0EAF4
:1012700022251810AF08F518400C15198008F5182C
:1012800040021519D2AF22E066701008A3E0667024
:101290000A08A3E066700408A3E0662270042260D6
:1012A0000D18C6C333C608C633C6D5E0F41822E607
:1012B00027F60809E637F60809E637F60809E6379B
:1012C000F622E026F608A3E036F608A3E036F60894
:1012D000A3E036F62274028000C0E0F40412122269
:1012E000D0E0121332222518FAE43519FB22251812
:1012F000FCE43519FD22600C08C6C313C618C613DA
:10130000C6D5E0F42275D00075813F7518027519B5
:10131000030211A9E6F008A3E6F008A3E6F008A38B
:10132000E6F022E0F608A3E0F608A3E0F608A3E062
:10133000F622CAC0E0E6F0A308DAFAD0E0FA2225E5
:1013400018F582E43519F5832200000080FBFFFFC9
:10135000FFFFFFFFFFFFFFFFFFFFFFFFFFFFFFFF9D
:10136000FFFFFFFFFFFFFFFFFFFFFFFFFFFFFFFF8D
:10137000FFFFFFFFFFFFFFFFFFFFFFFFFFFFFFFF7D
:10138000FFFFFFFFFFFFFFFFFFFFFFFFFFFFFFFF6D
:0A1FF600CA05094338860000000008
:020000040003F7
:01FFF000F020
:020000040000FA
:06000000020B3202020DAA
:03002B000208BE0A
:0300430002066D45
:0300530002014760
:03006B000207D8B1
:1000830002019E010100F0FF0700080000FFFF00CE
:1000930000030400000F0100000300019651180043
:1000A300020000DA10000000003E105E11AA1022C8
:1000B3001100006810000000000000000000007440
:1000C3001000000000000000000000801006FFFF89
:1000D300FF010400005C18000000E8030000FFFFBC
:1000E3002C19018813000003E80300006400640076
:1000F300B801A0BB0D00A0BB0D0002020207040162
:100103000101051E02051E020A0A01010108090870
:100113000103B80B02803E0102FEFFE8030A05005B
:1001230001FFFF0A011401E00105030101FF0F10A4
:10013300FEFF472D000000007D2C00000000FF00A3
:100143000000FF00C0E074F212048CA2AFE433F5A8
:1001530008D2AFAFA7AEA1EE5F54106006120DBC7C
:1001630075A1EFEE5F54086008120DC275A1F78008
:1001730023EEA2E092F0EFA2E082F0501790619894
:10018300E0F890073BE0C398A2D265D0335002E871
:10019300F075A1FE751A00E5088066C0E074F212DE
:1001A300048CA2AFE433FED2AF9061A4E0F8759B58
:1001B30000E59158540860087591F7120E108023DA
:1001C300E59158541060087591EF120E168014E5EE
:1001D30091A2E092F0E8A2E082F05007E0C2E0F0E2
:1001E300120F6C9061A3E0F8E5E9585404600E1215
:1001F3000F4275E9FB906193E0A2E640F2751A00A5
:10020300EEA2E092AF7F010204EBC0E074F21204AD
:100213008CA2AFE433FED2AF9061A5E0F8E5BF58FE
:100223005404600675BFFB120F8480D1C3E498F8B1
:10023300E499F91202708026C3E49AFAE49BFBE97D
:1002430020E7E9120270E498F8E499F922C3E498EC
:10025300F8E499F9120270E498F8E499F9C3E49A7E
:10026300FAE49BFB22EB20E7CFE920E7E0B900109B
:10027300BB0008E88AF084F8AAF022E4FBC8FA225B
:10028300EB70227B10C833C8C933C9335007C39AF4
:10029300C3DBF280069A50012ADBEAC833F4C8C9EB
:1002A30033F4C9FA2275F008E4C833C8C933C93333
:1002B300C99AC99B5004C92AC93BD5F0ECFBC83382
:1002C300F4C8E4C9FA22080808EAC0E0EBC0E086F3
:1002D300F0E7A4FA180986F0E7A42AFA180986F0C9
:1002E300E7A42AFA180986F0E7A42AFA1986F0E7A0
:1002F300A4FBE5F02AFA190886F0E7A42BFBE5F046
:100303003AFA190886F0E7A42BFBE5F03AFA181835
:100313000986F0E7A4C5F02BFBE43AFA1908E7C510
:10032300F0C6A426F6E5F03BFBE43AFA1886F0E7BC
:10033300A4F6E5F00826F6E43B08F6E43A08F6D01E
:10034300E0FBD0E0FA22E4CFC0E0E4CEC0E0E4CDAD
:10035300C0E0E4CCC0E075F020E626F608E633F60C
:1003630008E633F608E633F6181818EC33FCED33D9
:10037300FDEE33FEEF33FFC3EC9709ED9709EE97DC
:1003830009EF97191919400FFFEC97FC09ED97FD39
:1003930009EE97FE191906D5F0BFECF709EDF70939
:1003A300EEF709EFF7191919D0E0FCD0E0FDD0E022
:1003B300FED0E0FF222518C582C0E0E51934FFC551
:1003C30083C0E0E518C3958224F810AF088583192C
:1003D3008582188008858319858218D2AFCEF0A351
:1003E300E520F0A37808E608F0A3DEFAEFF0A3E532
:1003F3008124FAF8E608F0A3E608F0A3E608F0A3E0
:100403000808E608F0A3E608F0A315811581D0E0FB
:10041300FED0E0F8158115811581E8C0E0EEC0E05B
:1004230022120BACB90003020476E49004D1786F76
:10043300791A8002F0A3D8FCD9FA781A9000867A48
:1004430001BA00028007E493A3F608DAF97A3F7B46
:100453001E90008778C179018015E493A3AD82AE25
:10046300838A828B83F0A3AA82AB838D828E83D807
:10047300E9D9E77582FD7583FD74051208A07582BD
:100483007875832A74001208A0C0D02518C582C0CD
:10049300E0E51934FFC583C0E0E518C3958224F372
:1004A30010AF088583198582188008858319858292
:1004B30018D2AFC8F0A3E9F0A3EAF0A3EBF0A37955
:1004C30008E709F0A3D8FAECF0A3EDF0A3EEF0A34C
:1004D300EFF0A3D0E0F0A3D0E0F0A3D0E0F0A3E5E9
:1004E30020F0A3E5F0F0A322851983851882E0C0EC
:1004F300E0A3E0F9A3E0FAA3E0FBA37808E0F608A1
:10050300A3DFFAE0FCA3E0FDA3E0FEA3E0FFA3E08A
:10051300C0E0A3E0C0E0A3E0F5D0A3E0F520A3E0B2
:10052300A3F5F010AF0885831985821880088583A9
:1005330019858218D2AFD082D083D0E0F8D0E032D0
:100543000575F0108E218F228582268583258518D7
:1005530082851983E0CEA3E0CF852682852583EBB0
:10056300C9EAC8EDCBECCAC3E833C8E933C9EA33F7
:10057300CAEB33CBC3EA9EF524EB9FF523B35004B8
:10058300AB23AA24EC33CCED33CDD5F0DAAE21AFD7
:100593002222D083D082ECC0E0EDC0E0E493A3FC40
:1005A300E493A3FDED4C600D1206B0EC24FFFCEDCB
:1005B30034FFFD80EFE493A3FCE493A3FDED4C60D3
:1005C3000D120783EC24FFFCED34FFFD80EFD0E038
:1005D300FDD0E0FCE493A3C0E0E493C0E022D08329
:1005E300D082E9C0E0E493A3C386F0C5F095F0F9A7
:1005F30008E493A386F0C5F095F0700BE493A3C3CE
:10060300994005E9048002A3E475F002A42582F56C
:1006130082E5F03583F583D0E0F9E493A3C0E0E409
:1006230093C0E022851983851882E0A3FEE0A3F539
:10063300207808E0A3F608DFFAE0A3FFE0A3C0E018
:10064300E0A3C0E0E0A3C0E0E0A3C0E0E0A3C0E01B
:1006530010AF0885821885831980088582188583E1
:1006630019D2AFD083D0820208A6C0E074F212047C
:100673008CA2AFE433FED2AFC2C0901AE0E0700B9D
:10068300E5D1A2E4501D120D1A8018E5D1A2E35062
:100693000675D1F7120CEAE5D1A2E4500675D1EF45
:1006A300120CF0EEA2E092AF7F010204EBC0E0C3B4
:1006B300E49396087401939618400FE493667008C8
:1006C30008740193661870007019A3A3C3E493968A
:1006D300087401939618A3A3400DD0E0D0E0D0E0B6
:1006E3000205D1A3A3A3A3A3A3D0E022D083D082E6
:1006F300C5F0E493A3C5F0C395F0F5F0E493A3C369
:1007030095F04005E5F0048001E475F002A425822C
:10071300F582E5F03583F583E493A3C0E0E493C069
:10072300E0227404800474028000CCC0E0EDC0E0D9
:10073300E518C39CCCAD1950011D10AF068C188D64
:100743001980068C188D19D2AF120822D0E0FDD083
:10075300E0FC2274028000CCC0E0EDC0E0E518C3E9
:100763009CCCAD1950011D10AF068C188D19800655
:100773008C188D19D2AF120800D0E0FDD0E0FC2216
:10078300C0E0C0F088F0E4936670080874019366D3
:10079300187000A8F0A3A3700BD0F0D0E0D0E0D085
:1007A300E00205D1A3A3D0F0D0E022D083D082CC45
:1007B300C0E0E493A360061208621470FAE493A302
:1007C30060061209A51470FAD0E0FCE493A3C0E01C
:1007D300E493C0E022C0E074F212048C758900C275
:1007E300C5901AE0E0700E7A007B109007D1E0F913
:1007F3001212908003121B307F010204EBCAC0E087
:10080300E493A3C582CCC582C583CDC583F0A3C5BC
:1008130082CCC582C583CDC583DAE5D0E0CA22CABE
:10082300C0E0E0A3C582CCC582C583CDC583F0A358
:10083300C582CCC582C583CDC583DAE6D0E0CA22A2
:10084300C008C3E096F50808A3E096420808A3E0B1
:1008530096420808A3E09645087001D3D00822C049
:10086300E0E493A3D39C5010E493A3C39C400AD029
:10087300E0D0E0D0E00207CBA3A3A3D0E02270092D
:10088300080808226016181818C6C333C608C633EA
:10089300C608C633C608C633C6D5E0EA22C09FF5EC
:1008A3009FE473D09F22D083D082C09FE493C0E0A3
:1008B300740193C0E0740293F59F22C0E0C0D0E8B6
:1008C300C0E0A8A8D2AFC2C7751A00E8A2E792AFEA
:1008D300D0E0F8D0D0D0E03200C0D0251810AF0857
:1008E300F518500C05198008F51850020519D2AFF8
:1008F300D0D0222518F58210AF08F518400C151931
:100903008008F51840021519D2AF851983227404A3
:10091300800A74038006740280027401C0E0F40448
:100923001208F6D0E0120B6F22BB0102E722C0824D
:10093300C08389828A83BB0003E08002E493D0836F
:10094300D082226016080808C6C313C618C613C689
:1009530018C613C618C613C6D5E0EA222518F8E44C
:100963003519F9222518FAE43519FB222518FCE478
:100973003519FD22C3E0C696F608A3E0C696F6082D
:10098300A3E0C696F608A3E0C696F622251810AF94
:1009930008F518400C15198008F51840021519D2EE
:1009A300AF22C0E0E493A36C7009D0E0D0E0D0E0C4
:1009B3000207CBA3A3D0E022E066701008A3E06691
:1009C300700A08A3E066700408A3E06622C3E096F9
:1009D30008A3E09608A3E09608A3E096A2D265D008
:1009E3003322E76670100809E766700A0809E766AC
:1009F30070040809E76622C3E697F60809E697F646
:100A03000809E697F60809E697F622C3E4939608E1
:100A1300740193960874029396087403939622C301
:100A2300E096F008A3E096F008A3E096F008A3E0B0
:100A330096F022E657F60809E657F60809E657F650
:100A43000809E657F622E026F608A3E036F608A3DF
:100A5300E036F608A3E036F622E493F60874019331
:100A6300F608740293F608740393F622E056F60828
:100A7300A3E056F608A3E056F608A3E056F622E0F4
:100A830056F008A3E056F008A3E056F008A3E0569A
:100A9300F022E647F60809E647F60809E647F608AE
:100AA30009E647F622700422600D18C6C333C60850
:100AB300C633C6D5E0F41822E627F60809E637F66A
:100AC3000809E637F60809E637F622E026F008A318
:100AD300E036F008A3E036F008A3E036F022E4C3E2
:100AE30096F608E496F608E496F608E496F622608D
:100AF3000D08C6A2E713C618C613C6D5E0F322C66F
:100B0300F4C608C6F4C608C6F4C608C6F4C622C3AB
:100B1300E7960809E7960809E7960809E79622C3C6
:100B2300E09608A3E09608A3E09608A3E096227552
:100B3300D00075813F7518D175190400020424E6AD
:100B4300F008A3E6F008A3E6F008A3E6F022600CA1
:100B530008C6C313C618C613C6D5E0F422E0F608C8
:100B6300A3E0F608A3E0F608A3E0F622CAC0E0E695
:100B7300F0A308DAFAD0E0FA22E8F0A3E9F0A3EA56
:100B8300F0A3EBF022E0F8A3E0F9A3E0FAA3E0FB83
:100B930022EAF0A3EBF0A3ECF0A3EDF022E0FAA33A
:100BA300E0FBA3E0FCA3E0FD22E5C754F84401F514
:100BB300C77901222518F582E43519F58322C2AFDE
:100BC30075D69F020000221208A975F2041208A923
:100BD300B3F2041208A9ADF4041208A9C9F404126B
:100BE30008A90EF5041208A99EF5041208A9F6F542
:100BF300041208A9D8F6041208A9BDF7041208A91B
:100C030002F8041208A963F8041208A9EFF8041201
:100C130008A91BF9041208A966F9041208A98CF99A
:100C2300041208A924FA041208A9CDFA041208A987
:100C330020FB041208A951FB041208A988FB041223
:100C430008A92CFD041208A9F8FD041208A9ABFE9B
:100C5300041208A9EEF7061208A9FFF7061208A95D
:100C63009DF8061208A9B5F8061208A98CFF04120C
:100C730008A9E6FF031208A9C4F8061208A9D4F8C4
:100C8300061208A9E9F8061208A97AF9061208A9B2
:100C930013F5061208A996F5061208A9FCF5061223
:100CA30008A9FBFF031208A9E7FF021208A9F7FF2F
:100CB300021208A9FAFF021208A9FDFF021208A9ED
:100CC300F87F001208A944EA061208A966EA061288
:100CD30008A9CEEB061208A952EC061208A9CE7F8A
:100CE300001208A9D77F001208A9E07F001208A903
:100CF300EE7F001208A91E9E061208A98B9E0612FB
:100D030008A9539F061208A9C89F061208A9CBA0D9
:100D1300061208A9F8A2061208A95DA3061208A9DB
:100D2300A8A3061208A9B9A3061208A9C8A3061204
:100D330008A9DEA3061208A9F1A3061208A9FCA3B9
:100D4300061208A90AA4061208A91BA4061208A9D8
:100D53004BFA031208A977FA031208A9F9FC031244
:100D630008A950FD031208A990FD031208A9A4FDC8
:100D7300031208A9BDFD031208A9AEFE031208A9B8
:100D83005FFF031208A973FF031208A9C4ED06123B
:100D930008A9E8ED061208A901EE061208A933EE28
:100DA300061208A963EE061208A990EE061208A916
:100DB3009AEE061208A9FCEE061208A90BEF06121A
:100DC30008A915EF061208A922EF061208A927DEC3
:100DD300061208A947DE061208A986DE061208A92C
:100DE300A1DE061208A9C0DE061208A926DF061234
:100DF30008A92FDF061208A98CDF061208A99BDFBA
:100E0300061208A9BFDF061208A980E0061208A986
:100E13008DE0061208A99EE0061208A9DEFA061262
:100E230008A9F6FA061208A922FB061208A985A941
:100E3300061208A9DFAA061208A9EDAA061208A934
:100E430000AB061208A915AB061208A92AAB0612B5
:100E530008A93DAB061208A9B1AB061208A916AC46
:100E6300061208A99EAC061208A91AAD061208A913
:100E7300DEAD061208A9EEAD061208A9FDAD0612F5
:100E830008A945FA061208A969FA061208A991FAEF
:100E9300061208A9B9FA061208A9CCE0061208A995
:100EA300F3E0061208A912E1061208A97AE1061274
:100EB30008A953DB061208A96CDB061208A978DB24
:100EC300061208A98CDB061208A9AADB061208A9D8
:100ED300B4DB061208A9BEDB061208A9D1DB061291
:100EE30008A95EDC061208A9CDDC061208A9FCDC01
:100EF300061208A94ADD061208A999DD061208A9F7
:100F0300B4DD061208A9BEDD061208A9CFDD06125C
:100F130008A912DE061208A98FFF031208A9DAFF37
:100F2300031208A90080061208A92A80061208A93C
:100F33004780061208A95A80061208A97080061273
:100F430008A9CE80061208A90181061208A9F28415
:100F5300061208A95286061208A98586061208A950
:100F6300CF86061208A92C88061208A954880612EF
:100F730008A96988061208A97988061208A9BD88F4
:100F8300061208A91889061208A92889061208A9B1
:100F930087F0061208A9A1F0061208A9C9F00612E3
:100FA30008A9E2F0061208A906F1061208A924F11D
:100FB300061208A93BF1061208A969F1061208A94D
:100FC30084F1061208A98AF9061208A9D0F90612B3
:100FD30008A9A4D4061208A9B4D4061208A9BBD53B
:100FE300061208A9EFD5061208A91BD6061208A9EE
:100FF3003ED6061208A95CD6061208A996D6061292
:1010030008A9FFD6061208A941D7061208A980D756
:10101300061208A9B1D7061208A9DCD7061208A937
:1010230043C9061208A9A8C9061208A94ECA06127E
:1010330008A985CA061208A90DCC051208A9A4CCD3
:10104300051208A9D2CE051208A9BDD1051208A917
:101053004BD3051208A9B7D3051208A906D7051261
:1010630008A951D8051208A9DEF2061208A929F326
:10107300061208A96CE3061208A97CE5061208A962
:101083005889061208A98589061208A9C48A061276
:1010930008A95D8C061208A9E18E061208A9188F0B
:1010A300061208A96690061208A92EA4061208A91A
:1010B300D4A6061208A979A7061208A9A5A706129D
:1010C30008A9D3A7061208A908A8061208A930A8D8
:1010D300061208A990A8061208A96FE6051208A926
:1010E30056EA051208A945EC051208A96EED05128A
:1010F30008A94EEE051208A9FCEF051208A9A6F1EE
:10110300051208A976F2051208A9CAF2051208A960
:1011130014E8061208A91EE8061208A93FE80612F9
:1011230008A9E1E9021208A957EF021208A9C5F0BC
:10113300021208A981F2021208A97AF3021208A97D
:10114300ACF4021208A9BEF5021208A99EF6021217
:1011530008A975F7021208A90080051208A93880AA
:10116300051208A95E8A051208A93F8B051208A972
:101173008B8C051208A9D48D051208A98A8E051235
:1011830008A95E8F051208A94590051208A92D919B
:10119300051208A9CF91051208A9F991051208A90A
:1011A300A993051208A91994051208A932940512E6
:1011B30008A98995051208A93A96051208A9BC96AB
:1011C300051208A96897051208A9D897051208A956
:1011D3007498051208A9EB98051208A9239905121A
:1011E30008A9259A051208A9E49A051208A98A9B59
:1011F300051208A955EC061208A97FEC061208A9E6
:1012030094ED061208A997ED061208A902F7061233
:1012130008A94EF7061208A990F7061208A9A0F725
:10122300061208A9E4F7061208A99F97061208A94F
:10123300DD97061208A94698061208A963980612B4
:1012430008A97C98061208A92E99061208A93799AD
:10125300061208A97C99061208A9B299061208A9D0
:10126300C999061208A93B9A061208A9C89A061238
:1012730008A9FE9A061208A9559B061208A9B99B4C
:10128300061208A9DC9B061208A9409C061208A9AD
:101293009C9C061208A9D79C061208A90C9D06124D
:1012A30008A91E9D061208A9309D061208A9689D6B
:1012B300061208A9B49D061208A9F29D061208A9F0
:1012C3001FB3061208A95FB4061208A982B4061256
:1012D30008A993B4061208A988B6061208A9A8B6E5
:1012E300061208A9D3E5061208A909E6061208A9F9
:1012F30051E6061208A9ADE7061208A9F96B001218
:1013030008A92A6D001208A9646D001208A9236FA9
:10131300001208A94D6F001208A9DA71001208A97A
:101323001A72001208A9B173001208A944740012BA
:1013330008A99C74001208A93F75001208A97775C3
:10134300001208A9B975001208A92877001208A984
:101353007A78001208A99D7A001208A9CB7A0012A4
:1013630008A9F27A001208A9FB7A001208A9527B95
:10137300001208A9E47B001208A9D27E001208A972
:10138300557F001208A95AFF011208A970FF011224
:1013930008A97AFF011208A9D4FF011208A99DBC6C
:1013A300061208A9B3BC061208A958BD061208A95B
:1013B30097BD061208A9B4BD061208A9E5BD061219
:1013C30008A932BE061208A965BE061208A9A0BE66
:1013D300061208A98CC0061208A9EDC0061208A9B6
:1013E300B7F1061208A916F2061208A970F206123E
:1013F30008A900F4061208A972F4061208A9B0F4A9
:10140300061208A9F1F4061208A9E8F7021208A9BE
:10141300EEF7021208A92FF8021208A921FA021204
:1014230008A951FA021208A9C0FA021208A98EFBF0
:10143300021208A9CFFB021208A9FDFB021208A998
:1014430087FC021208A99EFC021208A9ABFC021237
:1014530008A9B5FC021208A951FE021208A961FFEE
:10146300021208A9AAFF021208A9EAF6011208A9A2
:1014730000F7011208A993F7011208A9BFF8011296
:1014830008A9B4F9011208A951FA011208A991FA9D
:10149300011208A90FFB011208A96CFB011208A98C
:1014A3007CFB011208A9A3FB011208A9F6FB011298
:1014B30008A967FD011208A96CFD011208A98CFD9A
:1014C300011208A999DB031208A9CBDB031208A9AF
:1014D30064DC031208A9BDDD031208A9A4DE03120C
:1014E30008A96FE0031208A98BE0031208A9DAE048
:1014F300031208A95CE1031208A9B7E1031208A9C2
:10150300CAE1031208A92EE2031208A989E2031211
:1015130008A939E3031208A92AE4031208A965E418
:10152300031208A9EBE4031208A9E5E6031208A9CC
:10153300A6E7031208A9CDE8031208A94AE9031292
:1015430008A909EA031208A98EEA031208A9DAEA2C
:10155300031208A9F4EA031208A93DEB031208A930
:1015630053EB031208A909EC031208A92FED031288
:1015730008A93AED031208A9A1ED031208A9F4ED95
:10158300031208A952EE031208A94EEF031208A989
:10159300F1F1031208A910F2031208A921F30312AF
:1015A30008A945F3031208A9BBF3031208A97BF4A6
:1015B300031208A9B2F4031208A924F5031208A917
:1015C30044F6031208A974F6031208A987F6031256
:1015D30008A98AF6031208A993F6031208A9A5F627
:1015E300031208A91FF7031208A955F7031208A944
:1015F30068F7031208A994F7031208A9BBF70312AB
:1016030008A9DFF7031208A98DF8031208A9FFF848
:10161300031208A936F9031208A940F9031208A90D
:1016230077F9031208A98DF9031208A9AAF903127D
:1016330008A9D8F9031208A9EEF9031208A906FAB2
:10164300031208A918FA031208A915F6061208A925
:1016530026F6061208A9B1F6061208A9EEB7061275
:1016630008A92CB8061208A9B8B8061208A9C3B964
:10167300061208A9DFBB061208A914BC061208A9A2
:101683009490061208A9E390061208A98392061201
:1016930008A95794061208A99994061208A96495F3
:1016A300061208A96C96061208A98E96061208A9B6
:1016B300EA96061208A96B97061208A9008004127D
:1016C30008A92280041208A9B581041208A9FE8181
:1016D300041208A97282041208A9EF82041208A94D
:1016E3005483041208A95783041208A99983041286
:1016F30008A90884041208A9B784041208A9BA84A3
:10170300041208A92F85041208A97285041208A9D6
:101713006889041208A9D38A041208A9118B041238
:1017230008A9678B041208A9AD8E041208A92A8F91
:10173300041208A9D890041208A90892041208A94F
:101743003E93041208A9B893041208A9DB94041267
:1017530008A98095041208A99495041208A9629611
:10176300041208A98B97041208A9A499041208A9C2
:101773007E9B041208A90F9C041208A91D9F041242
:1017830008A9BE9F041208A9ADA0041208A9FCA3CE
:10179300041208A90CA4041208A98AA5041208A912
:1017A3001BA6041208A918A7041208A9AFA80412BB
:1017B30008A949A9041208A96EAA041208A9B8AA7B
:1017C300041208A978AB041208A967D5041208A962
:1017D30007D6041208A971D6041208A98AD60412DE
:1017E30008A921D7041208A965D7041208A987D824
:1017F300041208A9C3D8041208A93FD9041208A9DE
:101803008AD9041208A9E9D9041208A9F9DA041239
:1018130008A919DE041208A93ADF041208A9B5DFE2
:10182300041208A99CE1041208A93CE2041208A9C5
:10183300E3E2041208A946E3041208A9BBE3041275
:1018430008A9CAE4041208A99EE5041208A9D4E56C
:10185300041208A903E6041208A9B7E6041208A9AA
:10186300E3E6041208A963E7041208A9E3E80412F3
:1018730008A96FEA041208A9B7EB041208A922ED1C
:10188300041208A92EEE041208A9D1EE041208A925
:101893004AEF041208A978F0041208A935AC04121F
:1018A30008A998AC041208A9E0AC041208A924AD55
:1018B300041208A98EAD041208A9D7AD041208A911
:1018C3000FAE041208A9A9AE041208A903AF0412AB
:1018D30008A950B0041208A9D9B0041208A900B18C
:1018E300041208A90AB2041208A9F5B2041208A93D
:1018F30042B3041208A941B4041208A969B404123A
:1019030008A9B2B5041208A9C3B5041208A9DBB526
:10191300041208A9C4B6041208A9AAB7041208A994
:10192300B3B8041208A9DDB8041208A9F5B8041263
:1019330008A90FB9041208A946B9041208A966B97F
:10194300041208A98DB9041208A9A4B9041208A99C
:1019530080BA041208A9D8BA041208A981BD0412D6
:1019630008A9B0BE041208A9E6BE041208A9F0BE75
:10197300041208A907BF041208A974BF041208A916
:101983005DC0041208A993C0041208A964C104121B
:1019930008A905C2041208A933C2041208A940C346
:1019A300041208A95FC3041208A9E2C3041208A918
:1019B30053C4041208A997C4041208A91BC504122E
:1019C30008A978C5041208A925C6041208A90BC8DA
:1019D300041208A9EBC8041208A941C9041208A9F2
:1019E3009FCA041208A9C4CC041208A96ECF04121A
:1019F30008A918D1041208A9E8D1041208A960D2D1
:101A0300041208A982D2041208A971D3041208A9E6
:101A130061D4041208A9CCD4041208A9FAC006128E
:101A230008A90EC3061208A9D4C3061208A929C41B
:101A3300061208A9A6C4061208A93AC5061208A9DF
:101A430058C5061208A99CC5061208A9C2C50612E4
:101A530008A9E8C5061208A900C6061208A9FCAE23
:101A6300051208A983C6061208A9C5C6061208A945
:101A7300DAC6061208A9E1C7061208A9FCC70612AE
:101A830008A905C8061208A90EC8061208A917C88E
:101A9300061208A921C8061208A942C8061208A9F5
:101AA300BFC8061208A936AE061208A997B20612D5
:101AB30008A9B3B2061208A9B8B2061208A96FFEA4
:101AC300051208A94FF2041208A903D1061208A9A6
:101AD3009CD2061208A9E5D2061208A951D3061210
:101AE30008A944D4061208A973D4061208A985D4F8
:101AF300061208A92CEF061208A934D8061208A961
:101B030090D8061208A9D0D8061208A9C4D906127B
:101B130008A9E8D9061208A9FDD9061208A91DDAF1
:101B2300061208A954DA061208A965DA061208A9EA
:101B33007CDA061208A9A1DA061208A930DB06121C
:101B430008A9A27F001208A90080031208A9328005
:101B5300031208A99E80031208A93981031208A958
:101B6300D881031208A91D82031208A93F82031218
:101B730008A95882031208A97E82031208A9A08229
:101B8300031208A9DE82031208A92283031208A9FB
:101B93004483031208A9A683031208A96D840312C0
:101BA30008A92485031208A99685031208A9688643
:101BB300031208A9B286031208A90587031208A90C
:101BC3006B87031208A9A587031208A9F7870312D5
:101BD30008A91388031208A93E88031208A9458A95
:101BE300031208A9998B031208A9BB8B031208A936
:101BF300EF8B031208A9108C031208A91F8C031280
:101C030008A92A8C031208A9DA8C031208A9438DA8
:101C1300031208A9F08D031208A9288E031208A93C
:101C2300EE8E031208A9FB8F031208A94590031235
:101C330008A9D490031208A93891031208A9739133
:101C4300031208A9DF93031208A93395031208A905
:101C53006C98031208A93999031208A9C7990312AA
:101C630008A9DB99031208A9049A031208A9769A12
:101C7300031208A90A9B031208A97A9B031208A955
:101C8300629C031208A9849C031208A9EA9D03120B
:101C930008A9039E031208A9169E031208A9739E9E
:101CA300031208A9829E031208A90B9F031208A915
:101CB300219F031208A92DA0031208A93AA0031219
:101CC30008A943A0031208A91BA2031208A94BA346
:101CD300031208A95BA3031208A96AA4031208A9A3
:101CE300E1A4031208A91AA5031208A94AA603121C
:101CF30008A990A6031208A95CA8031208A934AC8A
:101D0300031208A948AC031208A952AC031208A98C
:101D13005CAC031208A966AC031208A970AC0312E9
:101D230008A989AC031208A993AC031208A911AD41
:101D3300031208A91CAD031208A949AD031208A98F
:101D43006EAD031208A979AD031208A9C7AD03123A
:101D530008A9D1AD031208A9DCAD031208A900AE8E
:101D6300031208A924AE031208A980AE031208A91E
:101D7300C6AE031208A9E3AE031208A960AF0312AB
:101D830008A997AF031208A9D6AF031208A923B075
:101D9300031208A9A5B0031208A93EB1031208A9AA
:101DA3000EB3031208A96CB3031208A988B4031273
:101DB30008A9AEB4031208A9EDB5031208A913B913
:101DC300031208A954BB031208A930BD031208A9C2
:101DD300C6BD031208A9EDBF031208A999C00312D7
:101DE30008A9CEC0031208A933C1031208A93DC133
:101DF300031208A967C3031208A955C4031208A94B
:101E03009EC5031208A9DEC5031208A984C60312DE
:101E130008A915C8031208A99EC9031208A9BEC9B7
:101E2300031208A917CA031208A919CB031208A998
:101E330063CB031208A9B3CB031208A99DCC0312E9
:101E430008A912CD031208A92CCE031208A9A7CE04
:101E5300031208A9ACCF031208A957D2031208A989
:101E630076D2031208A9D7D3031208A999D503126E
:101E730008A9EDD5031208A9A5D6031208A954D7BA
:101E8300031208A9B4D7031208A96AD8031208A930
:101E9300FFD8031208A96BD9031208A9A5D9031205
:101EA30008A9D6D9031208A932DB031208A90080B6
:101EB300021208A93280021208A96980021208A935
:101EC3005082021208A99082021208A97383021297
:101ED30008A9CB83021208A90685021208A9528514
:101EE300021208A97A88021208A9E68B021208A92D
:101EF300338D021208A9C98D021208A9D58D0212C9
:101F030008A9078E021208A9898F021208A99790BF
:101F1300021208A9C190021208A91891021208A975
:101F23007191021208A9DD91021208A9F493021219
:101F330008A98395021208A94D96021208A98B9746
:101F4300021208A9BB99021208A98B9C021208A9C4
:101F5300989C021208A91F9D021208A9C79D02128C
:101F630008A90A9E021208A9539E021208A9A79E55
:101F7300021208A90C9F021208A9749F021208A951
:101F8300919F021208A9C19F021208A9F69F02128B
:101F930008A9C6A0021208A96FA1021208A9F3A3F7
:101FA300021208A913A5021208A9FCA5021208A986
:101FB3007EA6021208A9A0AA021208A9DDAA02128B
:101FC30008A935AB021208A968AB021208A9E9AB4C
:101FD300021208A936AC021208A9C1AC021208A960
:101FE30013AD021208A9EAAD021208A9A3AE0212A8
:101FF30008A93EAF021208A957B2021208A977B383
:10200300021208A928B7021208A946B8021208A9A1
:1020130049B8021208A978B8021208A97EBA0212B6
:1020230008A957BB021208A98CBB021208A994BCC9
:10203300021208A94ABD021208A9F0BE021208A999
:1020430054BF021208A979BF021208A9B8BF02122D
:1020530008A9F9BF021208A9D1C0021208A9AFC189
:10206300021208A9DCC1021208A9A9C2021208A916
:10207300DFC4021208A950C5021208A990C50212B2
:1020830008A9C9C5021208A95DC6021208A9A6C7F4
:10209300021208A969CB021208A958CC021208A996
:1020A3003FCD021208A9B7CD021208A979CE0212B8
:1020B30008A92FD0021208A9B7D0021208A9CCD1BF
:1020C300021208A9DDD1021208A9F5D1021208A94A
:1020D30006D2021208A91AD2021208A952D2021277
:1020E30008A980D2021208A907D4021208A9D9D4D8
:1020F300021208A960D5021208A99BD5021208A9E9
:10210300F9D5021208A940D6021208A905D802126D
:1021130008A9B7D8021208A9E7D8021208A9CBD98F
:10212300021208A97CDA021208A937DC021208A9F4
:10213300EEDC021208A923DD021208A98BDD0212CC
:1021430008A9BADE021208A96CDF021208A99DDFF2
:10215300021208A9B5DF021208A944E0021208A975
:10216300F8E2021208A9D0E4021208A9ECE4021270
:1021730008A908E5021208A9D6E5021208A9BFE9D1
:10218300021208A934CD061208A974CD061208A9B3
:1021930027CF061208A936CF061208A9C2B5051221
:1021A30008A9D9BA051208A924BB051208A974BD48
:1021B300051208A908BF051208A996BF051208A9A8
:1021C300F7C1051208A9FCC3051208A950C40512DA
:1021D30008A95FC6051208A9B2C6051208A90DC74A
:1021E300051208A92FC7051208A936C7051208A9A1
:1021F3004EC7051208A92EC8051208A90DC9051254
:1022030008A9C181011208A90382011208A939870B
:10221300011208A98587011208A9CB87011208A911
:102223001A89011208A97689011208A9BB8901122A
:1022330008A94E8B011208A9A48E011208A9C98FFF
:10224300011208A94B9B011208A9DE9B011208A9E0
:102253003B9F011208A97AA0011208A9D5A0011277
:1022630008A91DA2011208A909A3011208A9A0A582
:10227300011208A90FA7011208A996A7011208A91C
:1022830099A7011208A90EA8011208A918A80112FA
:1022930008A925A8011208A950A8011208A900A994
:1022A300011208A9FDA9011208A9A7AA011208A9E8
:1022B30034AB011208A952AB011208A96BAB01128E
:1022C30008A994AB011208A9B6AB011208A9FCAD89
:1022D300011208A9DFAE011208A925AF011208A94E
:1022E300A4AF011208A950B0011208A982B00112CB
:1022F30008A9D4B0011208A910B1011208A94FB15D
:10230300011208A99FB1011208A9A4B1011208A9D9
:10231300F8B1011208A924B2011208A900B30112ED
:1023230008A950B3011208A9BDB3011208A917B433
:10233300011208A9AEB4011208A9F3B7011208A942
:102343000BB9011208A9A4BA011208A9D7BD011239
:1023530008A969BE011208A960C1011208A91FC218
:10236300011208A963C2011208A908C4011208A92D
:102373001CC4011208A926C4011208A930C4011201
:1023830008A93CC4011208A958C4011208A9B8C677
:10239300011208A9F7C6011208A901C7011208A969
:1023A3000BC7011208A991C7011208A9E9C70112B5
:1023B30008A906C9011208A96AC9011208A977CA9E
:1023C300011208A9BBCA011208A967CB011208A907
:1023D30040CC011208A9FBCC011208A908CE0112B6
:1023E30008A942CF011208A93FD0011208A957D06A
:1023F300011208A9AED0011208A9B8D0011208A988
:10240300C2D0011208A9CDD0011208A9EBD0011244
:1024130008A933D1011208A995D1011208A9BCD189
:10242300011208A9CED1011208A969D2011208A983
:102433009ED2011208A99DD3011208A9EBD3011260
:1024430008A9E5D4011208A91BD5011208A99ED534
:10245300011208A90FD6011208A9BBD7011208A9B6
:10246300E5D8011208A9A8D9011208A979DA01123D
:1024730008A9E4DA011208A961DB011208A98EDCBC
:10248300011208A922DD011208A972DD011208A9AF
:10249300DDDD011208A9A3DE011208A9EDDE011298
:1024A30008A945DF011208A91DE0011208A940E0AF
:1024B300011208A903E1011208A925E1011208A9E3
:1024C3008EE1011208A9A4E3011208A994E4011200
:1024D30008A95EE5011208A996E7011208A9E0E739
:1024E300011208A930E8011208A99DE8011208A900
:1024F300FFE8011208A92DE9011208A951E9011207
:1025030008A986E9011208A9B7E9011208A9EAE9AD
:10251300011208A944EA011208A997EA011208A9BD
:10252300C3EB011208A970ED011208A9BEED011257
:1025330008A9E7ED011208A973EE011208A9E8EE54
:10254300011208A9F6EE011208A91AEF011208A94F
:1025530077EF011208A996EF011208A94CF00112B6
:1025630008A984F0011208A9C7F0011208A92AF1E9
:10257300011208A91CF3011208A946F3011208A9C4
:102583004AF4011208A95CF5011208A90CF601121C
:1025930008A9E8F2051208A920F3051208A941F3D6
:1025A300051208A983F3051208A9E5F3051208A982
:1025B300EFF3051208A9FFF3051208A93AF405126F
:1025C30008A91AF8051208A907FA051208A9EDFBCC
:1025D300051208A984FC051208A926FD051208A9FD
:1025E3001831001208A9C331001208A97132001270
:1025F30008A97733001208A99733001208A9C03439
:10260300001208A97B36001208A9EE36001208A9A9
:102613009237001208A99E38001208A9093900123E
:1026230008A94539001208A98839001208A9C33935
:10263300001208A9053A001208A99A3A001208A93B
:10264300163B001208A9E03B001208A9BD3C00128A
:1026530008A9553D001208A96F3D001208A99F3D26
:10266300001208A9D03D001208A9963E001208A93D
:10267300A63E001208A9F53E001208A9023F001267
:1026830008A90B3F001208A9893F001208A9E53FDA
:10269300001208A93040001208A94B40001208A9F3
:1026A3007640001208A99340001208A99F40001227
:1026B30008A93642001208A94F42001208A9D442C1
:1026C300001208A9E742001208A90643001208A94C
:1026D300AA43001208A92B45001208A9DE460012DE
:1026E30008A97447001208A97747001208A9E74709
:1026F300001208A90548001208A99C48001208A95D
:10270300E448001208A9E748001208A9AD490012DD
:1027130008A91A4A001208A9404A001208A9CB4A7C
:10272300001208A9E94A001208A92F4B001208A9B0
:10273300E34B001208A92D4C001208A95C4C0012AF
:1027430008A9B94C001208A9EE4C001208A91A4DA9
:10275300001208A9284D001208A9754D001208A9F6
:10276300E54D001208A92E4E001208A97A4E001258
:1027730008A9A64E001208A9B14E001208A9CF4E0F
:10278300001208A9BA4F001208A9C44F001208A9E1
:10279300FF4F001208A90F50001208A91850001289
:1027A30008A96C50001208A98050001208A9AF5163
:1027B300001208A9C251001208A9D951001208A990
:1027C300EE51001208A97C52001208A9C15200124E
:1027D30008A94D53001208A95853001208A99A5486
:1027E300001208A9B554001208A90155001208A93E
:1027F3007055001208A9A955001208A9C355001263
:1028030008A92356001208A9C256001208A90D5799
:10281300001208A9DD59001208A98F5A001208A94D
:10282300FC5A001208A93C5D001208A9545D00126D
:1028330008A9575D001208A9635D001208A9775D16
:10284300001208A97F5D001208A9B25D001208A951
:10285300B55E001208A9425F001208A9B25F001218
:1028630008A93460001208A9F560001208A91461D0
:10287300001208A9B561001208A91262001208A982
:102883001562001208A94262001208A957620012D9
:1028930008A9CB62001208A91A64001208A92065CE
:1028A300001208A9AB65001208A9C666001208A9A0
:1028B3008E67001208A9BF67001208A9E267001219
:1028C30008A9EB67001208A91A68001208A9AA68E8
:1028D300001208A96069001208A9D569001208A9A5
:1028E3007C6A001208A9F16A001208A9286B001279
:1028F30008A9666B001208A99C6B001208A945AED3
:10290300051208A912AE051208A9C7AD051208A938
:1029130062AD051208A921AD051208A901AD051282
:1029230008A933AC051208A9C0AB051208A95EAB10
:10293300051208A901AB051208A974A9051208A973
:1029430011A9051208A965A8051208A95CA8051212
:1029530008A950A8051208A91DA8051208A9CEA404
:10296300051208A9A0A4051208A93BA4051208A9E9
:1029730028A4051208A91DA4051208A9E1A305129C
:1029830008A90FA2051208A9F8A1051208A9D3F1F5
:10299300041208A92EA1051208A933B5051208A926
:1029A300E8B4051208A97CB4051208A919B40512E4
:1029B30008A9EFB3051208A973B3051208A98BA0E0
:1029C300051208A9AF9E051208A9519D051208A971
:1029D300469D051208A9C7B1051208A9BE9C051298
:1029E30008A9559C051208A9319C051208A938E6C7
:1029F300051208A970B1051208A9F1E5051208A985
:102A0300EDD0061208A990E5051208A95BE50512A9
:102A130008A930E5051208A9FCE4051208A9D4E4C5
:102A2300051208A957E4051208A941E4051208A9EB
:102A330011E4051208A987E3051208A9CCDF0512E2
:102A430008A984DD051208A95CDB051208A9DEDAF2
:102A5300051208A98FDA051208A91CDA051208A9BC
:102A6300C4B0051208A9DDD9051208A97FD905123A
:102A730008A918C60600000080FBE4738F0001005C
:102A8300DF1E87000100D41A35000400A31E2500B1
:102A93000200A71E26000200A91E27000200AB1E8B
:102AA30028000100B51E29000100B61E84000400A1
:102AB300AC1A860001004D1E2A000100B71E2B0030
:102AC3000100B81E2C000100BE1E2D000800BA1A1A
:102AD3002E000100BF1E2F000100C01E30000100A8
:102AE300C11E31000100C21E32000100C21A3300B0
:102AF3000100C31A34000100C31E36000100C41ACA
:102B030038000100C41E39000100BD1E830002000D
:102B1300DC1E63000100CF1A64000100B91E6500CA
:102B23000100BA1E6D000100D01A71000800B21A2C
:102B330066000100DB1E43000100CC1E44000200BE
:102B4300CD1E45000100CF1E46000200D01E4700E7
:102B53000800C71A48000100D21E4B000100D31E13
:102B630004000100DE1EA1000100E21E3700010087
:102B7300E11E88000100E01E3C000100C51A3D0073
:102B83000100C51E49000200D41E67000100D11ACE
:102B93004D000200D61E4E000100D81E4F00020059
:102BA300D91E3E000100CB1E51000100C71E52007A
:102BB3000100C81E53000100CA1E54000100C61ABA
:102BC300000000000000000136360101000102018F
:102BD30000010301000104010606050200000701CC
:102BE30000340801000F090401010D0100FF0E0864
:102BF300000017020000190100FF1A0100011B0168
:102C030000FE1C0100081D0200001F01000120013D
:102C13000001210200002301000F2402000026010D
:102C2300000127010008280200FF2A0100072B01E9
:102C330002402C0100002D0100012E0100012F0193
:102C430000FF30010B1D310800003A0100083B0171
:102C5300000F3C0100013D0100FF3E04000042045F
:102C63000000460400004A0400004E040000520421
:102C73000000560400005A0400000103710301031D
:102C830001030103010301032203020301031003F0
:102C930000030003000300030003000300034203D7
:102CA30000032403060300030003040312032503A4
:102CB3002303250323030403040300030003000386
:102CC30044030003000323030003650321003503CA
:102CD300810300030503000300030003000325032E
:102CE3002303030271023001600211027002010228
:102CF300020202028002100261023A0041006302F2
:102D030073027202620243020002130238000002DD
:102D13000002040212020002000200020002040286
:102D23000402370037003C0244020002390000026B
:102D330000026502000235028102000205028202DE
:102D43008302000203007100300160001100700073
:102D530031022003500480001000610000001400C1
:102D6300630073007200620043000000130006005A
:102D7300000000000400120000000000000000003A
:102D830004000400370037003C0244000000000048
:102D93000000000065000000350081000000050010
:102DA3000000830000000101710101010101110113
:102DB30001013101010101018001100161013B00A9
:102DC30014006301730172016201430100011301E5
:102DD30006013D013500040112010001000100015B
:102DE300000104010401330133013C0144013201B8
:102DF3003600000100016501000135008101000179
:102E030005018201830100010304710402046004CB
:102E13001104700402040204010402041004610496
:102E2300000414046304730472046204430400047E
:102E33001304060400040004040412040004000440
:102E4300000400045104640000040004000444046A
:102E53000004000400040004650400043504810434
:102E63006400050400048304000436000100060026
:102E730000000F0000000000000000000000000040
:102E830003FFFF00000403FFFF0000FFFF0FF40137
:102E93000005C4040320000100000B000000000033
:102EA30000000003010F000000000000000000000C
:102EB300000000000000000000000000000000000F
:102EC3000000000000000000130064171F006A17D1
:102ED3001F80701700000C1801000C180200E61682
:102EE3000280E0160300EC160400F2160480F816C4
:102EF3000500FE1606000A173000281731002217B6
:102F03003200341733003A173500401734004617A0
:102F130036004C171100581714005E1715001C17C4
:102F2300FFFF00000A000000020000000400000090
:102F33000800000010000000200000004000000016
:102F430080000000000100000002000000040000F7
:102F530000080000001000000020000000400000F6
:102F6300014A22067A220874220B982210601E0A54
:102F7300AA220250220568220756220C32220D3E55
:102F830022642C1CFF000007ECFDFDFDECDCDCCC17
:102F9300BCACAC9C9C8C7C7C6C6C5C5C5C4C4C3C9E
:102FA3003C2C2C1C1C03EAF5E5D5D5C5B5A5959598
:102FB300858575756565555545453535252515153E
:102FC3000500160F00000B150B020002220F330041
:102FD300000E0F00000000000000000000000000D1
:102FE3000000005A6967426565416C6C69616E63F4
:102FF300653039D0D1D2D3D4D5D6D7D8D9DADBDC22
:10300300DDDEDF000119161816161823030000036E
:103013004D4C4651181A2505023030161819202335
:103023001A1C1E30003C40423A3F3F392F47303094
:103033003017181921301B1D1F300C0E020B040B07
:103043000A0708000F02040201010101090200BE80
:10305300040AE80300000E000000E8030C001E0051
:1030630000007F00030004091E100A0C100803FF70
:103073000C28000404020903010C05080B081EE4D4
:10308300F0A3F0A3F0A322123082F022901D3F128E
:10309300468E12264C2212309D22E0F508E4F509F3
:1030A300F50AF50B22E824FBF582E934FFF58322C8
:1030B300E82411F582E439F583E022F5831230C464
:1030C30022E0F508A3E0F509221228E674041208A9
:1030D300DB7F080206277401F0900753E0640F2298
:1030E30074091208DB7F04020627EA2413FAE43F7B
:1030F300FB122808E9227905122814740622A3A3D7
:10310300E024F5C39413221228F29007731266C1C8
:103113007A147B0022C082C083901D1E7440F0A3EA
:103123007426F0A37452F0A37426F0901D22742821
:10313300F0A37426F0A37422F0A37426F0A3745EA4
:10314300F0A37426F0A37464F0A37426F0A3745858
:10315300F0A37426F0A37410F0A37426F0901D2E30
:103163007434F0A37426F0A3743AF0A37426F0A386
:10317300742EF0A37426F0A3746AF0A37426F0905F
:103183001D3F1250666009901D3F12468A1212F6C7
:10319300901D3C1249A47408125D2CA3F0901DE805
:1031A300F0901D41F07C0BFDF97A427B1D12123623
:1031B3007C0B7D0079007A4D7B1D1212360247FE8F
:1031C30074F71203B874F712098FEAFEEBFF123299
:1031D300567405124AC27403F012336D124AA424C2
:1031E30030FCE43FFD8C8212324E123262600812D0
:1031F3003A7B74FFF0A3F0EE242EE43F1C1CFD8CFD
:1032030082F583A3E0C0E08A828B83124756D0E025
:1032130012326288828983124F912403F0EE123AAC
:1032230085120BB77403F090076812072974021212
:10323300096F12364F1208DBE9F5087007EEFAEF53
:10324300FB1226DCA9087409023A94F583E088820C
:10325300898322EA12325B221251A93FF58322129B
:103263005FAC124AB0E8F0A3E91262C5E02274F041
:103273001203B8EAFEEBFF8C0C8D0D890B12336D34
:10328300F583124AB87410120BB7E0F508A3123293
:1032930050F0E824FFF582E9123661E508F0E824EE
:1032A300FEF582E9123661E50BF090076DE0C0E0B0
:1032B300E824FDF582E9123661D0E0F090076CE076
:1032C300C0E0E824FCF582E9123661D0E0F0741224
:1032D300120BB71230C01230A8E509F0E824FAF84F
:1032E300E934FFF98882F583E508F0EE2404FCE471
:1032F3003FFD88088A828B83E0F50E8C828D83E004
:10330300250EC39508125FAC1248DE850C82850D2D
:1033130083A3A3A3A3A3A3A3A3E064037009EE124F
:103323004A92F0A3E4800312366612366E7409F0F3
:1033330075084275091D750A007808120915125A95
:10334300761208DB7508FF7509FF7808120919ACB6
:103353000CAD0D12364F1208DBE9F5087007EEFAD3
:10336300EFFB1226DCA9080230D4EA2402FAE43F78
:10337300FB8A8222C082C083901D5EE0C394084012
:103383000474078001E08A828B83F033333354F86B
:10339300F90247FE74F01203B88A088B09890A8C74
:1033A3000E8D0F750C00A2AFE433F50BC2AF901D69
:1033B300588045123499503D1234B364037036E596
:1033C3000824F9F508E50934FFF5098E828F83A3F4
:1033D300A3E02405FCA3E03400FDAA08AB09121402
:1033E30004E50824FFF508E50934FFF50974102501
:1033F3000CF50C150A123888126A76E50A6004EE99
:103403004F70B0E50BA2E092AFA2AFE433F50BC26D
:10341300AF901D58803E124F6A8882F5831241DEB9
:10342300850882850983F08A8289831234AAA3A33B
:10343300E0C0E0E50824FFF582E509123661D0E03B
:10344300F0E50824FEF508E50934FFF509050C1538
:103453000A1238881236DC60211234B3640270F128
:10346300123499EE40B0124BD9A2E550E4850E8296
:10347300850F837401F0E50A70D7E50BA2E092AFE4
:10348300850882850983E50CF0E50824FFFAE50940
:1034930034FFFB0230D412349FA2E622EE2411F54E
:1034A30082E43FF583E0221234AE22124FAFA3220F
:1034B3008E828F83A3A312475A1256B92274F01235
:1034C30003B874F312098F7403120BB7E9F0740293
:1034D300120BB7EAF08B0B851882851983E4F0048D
:1034E3001209671225F2E9F8900752E0292437F50B
:1034F30008FA7B0012124E8A0C8B0DAE0CAF0DEA4C
:103503004F7003023646EA2402F50EE43FF50FA896
:1035130008EA28F8E43BF9850E82850F83123FDA27
:10352300900752E0F9FAC3E49AFA95E0FB850E821C
:10353300850F83E02AF50CA3E03BF50D90075012AD
:1035430030C0750A007808120915E9FC7D00AA0C41
:10355300AB0D124A141208DBAC18AD197401120B2F
:10356300B7E0F9E50C24FFFAE50D34FFFB1225F86B
:103573008A828B83E4F0E50BC454F0F9901DE9E0F3
:10358300C4333354C0F890074CE0A2E0E433131380
:103593004849440FC0E0EA24FFF582EB123661D0BC
:1035A300E0F0EA24FEF50CEB34FFF50D7403120B87
:1035B300B7E0F87402120BB7E0C454F048850C82EC
:1035C300850D83F0A80C850E82850F83125CF92A82
:1035D300C3988E828F83A3A3A3A3F0850E82850F46
:1035E30083E8F0A3E50DF012366612366EE4F0744C
:1035F3000C120BB7E4F075084D75091D7808120914
:1036030015125A761208DB851882851983E0600942
:10361300EE240E124BDB4408F01227F6E9F9E4F529
:1036230008F5097808120919740612096F12365140
:103633001208DBE97006EEFAEFFB800BEEFAEFFB04
:103643001212547A007B00740D0230D17903EEFA22
:10365300EFFB12280E740222EE24FFF582EF34FFF3
:10366300F58322EE12325BE4F0A322F012367322CA
:10367300EE1259993FF5832274F21203B88A0C8B28
:103683000DA2AFE433F50AC2AF75080075090090C7
:103693001D58802C1238985024850C82850D83A3E5
:1036A300A3125A898E828F83A3A312468A1227FC00
:1036B300E9600A123893C2E6F08E088F091238883F
:1036C3001236DC70CFE50845096006123775D2E67D
:1036D300F0E50AA2E092AF800DE0FEA3E0FFEE4F1B
:1036E3002274021208DB7F0602062774F01203B865
:1036F3008A0E8B0F8C0C8D0D750A00A2AFE433F587
:103703000BC2AF7E007F00901D588010AE08AF093A
:1037130012376D124BD9D2E7F012466812467C601D
:1037230034123775A2E750F1850882850983A3A374
:10373300120729AC0CAD0DAA0EAB0F1228027402AE
:103743001208DBE960D3EE4F60C2123B0F70061222
:103753003787D2E4F0E50BA2E092AFEE4F6006129A
:1037630026D6750A01A90A0230D412349FD2E4F096
:10377300EE22E5081259B33509F583E022AA82AB9C
:10378300831214048E828F83A3A312475AE02274F8
:10379300F21203B874FE12098F750C00750D0085C3
:1037A3001882851983E4F0A3F0A2AF33F50AC2AF00
:1037B300901D58126A76802BEE24FBF582EF34FFBE
:1037C3001230BE780C1209191238761208DBEEFC9F
:1037D300EFFDAA18AB19121272AE08AF09901D5E65
:1037E300E014F0EE4F602B123898501DEE240BF8C6
:1037F300E43FF98882F583E024FFF0A3E034FFF08F
:103803008882898312506660AF8E0C8F0D123888C0
:1038130080A1E50AA2E092AF901D5EE0602C9007C4
:1038230053E0640F6006901DE8E0701E7A367B1D3E
:103833001228F29081B81207257A367B1D1248862A
:103843001208DB800574F0124767AA18AB1912122D
:10385300788A088B09AE08AF09EA4F601312260471
:10386300123893A2E28E828F83A350D974E980D752
:103873000236E4EEFCEFFD7A587B1D1212847402CB
:10388300228E0A8F0BEE24FBF582EF34FFF58322A1
:10389300EE1234A02212349FA2E72274F71203B867
:1038A300EAFEEBFF122604124753122A7DE9640154
:1038B30090076F700AE02401F8A3E034008003123C
:1038C30046D9F9124DDB1248DE901D5EE0701F9061
:1038D3000753E0640F70177A367B1D1228F290812C
:1038E300B81207257A367B1D1248861208DBA8A872
:1038F300C2AF901D5EE004F0E8A2E78004E508A2F1
:10390300E092AF024CE974F71203B8EAFEEBFFEA68
:1039130012393FF0122604EEFCEFFD7A587B1D129C
:10392300127EA8A8C2AF901D5E12422D900753E0ED
:10393300640F700579081227A2024CE91234A0C261
:10394300E42274F71203B874EA12098FEAFEEBFF5C
:1039530090074CE0602A8518828519837401F01260
:103963000BB7E41239FA120BB7123780C0E0740AAE
:10397300120BB7D0E0125D19740B120BB7124F463E
:103983007416023A9474F71203B8EAFEEBFF122599
:10399300E6E9F974DC69601E74DD69601974E46931
:1039A300601474F369600F74DE69600A74DF696020
:1039B3000574DB697007EEFAEFFB1227A8024CE9E6
:1039C30074F71203B874EB12098FEAFEEBFF851844
:1039D3008285198374061239FA120BB7AA82AB8354
:1039E300121404EE2408FCE43FFD740A120BB71210
:1039F3004F467415023A94F0EA2413FCE43FFD7435
:103A0300022274F71203B874F712098FEAFEEBFF70
:103A1300EA2430124BDB605DEA123A85120BB7746D
:103A230003F0900768120729123A7B1207299007BF
:103A33007BE0F9740412096FEEFAEFFB1225EC74C4
:103A4300041208DBE9F974DC69602374DD69601E24
:103A530074E469601974F369601474DE69600F7447
:103A6300DF69600A74E869600574DB697007EEFA60
:103A7300EFFB1227A8023249EE242EF582E43FF52C
:103A83008322125E8AAA18AB1912140474082274D2
:103A9300031208DB024CE974F21203B88A0C8B0D93
:103AA300750A00750B007508E7A2AFE433F509C288
:103AB300AF901D5880031238841236DC602512380B
:103AC3009850F3123B0F70EEEE2432123CA6E068DE
:103AD30070E4780A1209191238761208DB901D5E19
:103AE300E014F0E509A2E092AFEE4F6013EEFAEFB7
:103AF300FB12260479F0EEFAEFFB1227A8750800F3
:103B0300A908AA0CAB0D1227A80236E9123673E0F6
:103B130064012274F41203B874F712098FEAFEEBFE
:103B2300FF8A82F583A3E064F37003023BB48A82C5
:103B33008B83A3E064DF60798A828B83A3E064E8EC
:103B4300606F8A828B83A3E064DB6065122646E99B
:103B5300F5087055EE240E124BDB604D123BBE6030
:103B6300487408120BB7123BCD1207297508FF756D
:103B730009FF78081209198E828F83A3A3A3A3A335
:103B8300A3A3A3E0F9740412096F1225EC740412C1
:103B930008DBE9F50874F369600F74DF69600A7480
:103BA300E869600574DB69700F8E828F83A3E50873
:103BB300F0EEFAEFFB1226520230E3EE240FFAE4A2
:103BC3003FFB7909122688EA4B22740212547F7450
:103BD300FFF0A3123BDA22124F9AA3A32274F1122D
:103BE30003B8EAFEEBFF7508008A82F583A3A3A35B
:103BF300A3A3A312310140037508E88A828B83A330
:103C0300A3A3A3A3A3A3A3A3A3E0C39410400575F5
:103C130008E880138A828B83A3A3A3A3A3A3A3A3EC
:103C2300A3A3E0640F600B901DC5E05408700375F7
:103C330008E8EA240B123CA6A3A3A3A3A3A3A3A36C
:103C4300E0C398500DEA240B124BDB640F6003753D
:103C530008E890076CE0F47003A3E0F470037508C0
:103C6300EC7A237B001212F08B0BA90B901D3F12F1
:103C73003CB560278E828F83A3A3A982AA83890C74
:103C83008A0D750E00780C1209157C237D00901D9A
:103C93003FE0FA124A141208DB800375081AA908D8
:103CA300025A71F582E43FF583E0F88A828B83A39D
:103CB300A322EAF0A3EBF0EA492274F51203B8EA6F
:103CC300FEEBFF8A82F583A3A3A3A3A3A3A3A3E08D
:103CD300900753123D4DE090076EF0EA240B124B10
:103CE300DB90074E123D4DA3E0901DE9F0F9120E53
:103CF300C4901DE9E0600BEE2404124BCD240612A0
:103D03003D43901DE81230D96004740180027400B1
:103D1300901D411264061209157C0B7D007A427BCB
:103D23001D124A141208DBEE2418F508E43FF509C6
:103D330078081209157C0B7D007A4D7B1D024A0120
:103D4300FAE43FFB79E1120EAC221263F0A3A3A3C2
:103D5300A32274F71203B8EAFEEBFF8A82F583A36A
:103D6300E0700312308F125F35024CE974F71203CF
:103D7300B8EAFEEBFF901D3F1250666010901D3FA6
:103D830012468A901D3FE4F0A3F01212F68E828F42
:103D930083740812476E121AA6024CE974F61203D2
:103DA300B8901DE8E06010901D41E0700A123DBD1F
:103DB300EA4B60031226DC02602F90074EE0FB9073
:103DC300076EE0FA900753E0F91225FE2274F4120D
:103DD30003B874E712098FEAFEEBFF750B018A82C1
:103DE300F583A3A3A3A3A3A3A3E0A2E25069EA24B8
:103DF3002BF582E43F125A87EA2413FAE43FFB12BD
:103E0300260AE970529080F7E064017005750B0093
:103E13008045123E8F1209157C0B7D007411120927
:103E230067124A141208DB1227F6E9FA740E120914
:103E33005F8808890978081209197508307509001F
:103E43007808120919EE125CE2120729125E7C79D6
:103E5300011230FB1208DB8518828519837410F078
:103E6300125E7C7402120BB7AA82AB831213F8EEB4
:103E7300242B1266B7740B120BB71248DE740D12A3
:103E83000BB7E50B1260EE74190230E5EE2408124D
:103E9300640E22C082C083901DE9E060031228688B
:103EA3000247FEC082C083901DE0741EF0A3741D00
:103EB300F0A37422F0A3741DF0A3742EF0A3741D59
:103EC300F0901EF5740BF0A3742EF0901DCA74E0ED
:103ED300F0A37425F0901D637416F0A37426F0907C
:103EE3001D65741CF0A37426F0901DC5E044020206
:103EF3004302C082C083EAFCEBFD7903025009C090
:103F030082C08379080261AFC082C08374FE120944
:103F13008F901D6B74C4F0A37426F0901D6D74BE56
:103F2300F0A37426F080077A587B1D123F67901D1B
:103F33005812506670F1901D5A12506660097A5AF1
:103F43007B1D123F6780EF901D58E4F0A3F0901D96
:103F53005EF0A3F0A3F0901D797400F0A37427F032
:103F63007402801C121278851882851983EAF0A3E3
:103F7300EB123F7B1227E422F0AA18AB192274112B
:103F83001208DB0247FE74F61203B8E9FF7427290F
:103F9300F582E43430F583E493FEFA7B0012124E8B
:103FA300EA4B6007EA2E123FD780267A027B001283
:103FB300124EEA4B601774322FF582E43430F583E6
:103FC300E4938A828B83F0A3741A1243A07A007B52
:103FD3000002602F1248CDE8125FA9A3A3A3A3E4B4
:103FE300F022E9FC740629F8EAA2E0501EE875F015
:103FF3000A84E5F0F96014740A28C399F8E9C394B4
:10400300054004740A28F8740B28F8ECC394134091
:1040130004791480027906E82979002409F850010B
:10402300097A0A7B00120268E8F90208A6C082C076
:1040330083901DC5E05402600A121AACE96004794A
:1040430001800279000247FEC082C083901DC5E053
:1040530054026014901D5EE0700A125063600912EE
:10406300407050047901800279000247FE1230B398
:10407300A2E722C082C0839080F4E0F8901D60E044
:10408300C398500512124E80047A007B000247FE4B
:10409300C082C0831227E479000247FEC082C08336
:1040A30074FE12098F851882851983EAF0A3EB1237
:1040B3004209A3A3A3A3A3E0600A14605724FE60EC
:1040C3005A024179900753E0640F60121227BAE94C
:1040D300700C124684901D67124756122A7D900772
:1040E3007BE0C0E0851882851983124F7DD0E012F2
:1040F300420974141259CDFCA3E0FD7A5A7B1D12B8
:104103001272A8A8C2AF901D6012422D7920122707
:10411300A2023F631244D7741580D91244D7A3A3D4
:10412300A3A3E060511244D712378BC0E0851882F5
:10413300851983E02406F582E43BF583D0E0125928
:10414300CD2402F8A3E03400F98882F583E024014A
:10415300FAA3E03400FB88828983EAF0A3EB1259C7
:10416300CD12451785188285198360131241DE60CD
:10417300051241F04048AA18AB191227E4809212A5
:1041830041DE60F21241F050211241FDFA8518829E
:10419300851983A3E0C824061244D3F87447125147
:1041A3009B3430F583E4936A601485188285198300
:1041B3001241DE640870BF1241FD640870B81241F9
:1041C300FD14124211240AC0E08518828519831256
:1041D3004756D0E0124211040240F71241E2221284
:1041E30046D9C82406F582E438F583E0228518828F
:1041F3008519831241E2C3940A22851882851983A3
:104203001234AEA3E02212421BF5838882221242AB
:104213001BC8240612450122F085188285198312D2
:1042230046D922A8A8C2AF901D5FE004F0E8A2E738
:1042330092AF22C082C083901D6F12506660081235
:1042430044DE122A7D800279000247FE74F71203CE
:10425300B8EAFEEBFFEA123674740112488CF8A335
:10426300E0F91232561248DEEA2435124BDBC0E085
:10427300EA2413F582E43FF583D0E0F0EA24361212
:104283004BDBC0E0EA2414F582E43FF583D0E0F091
:10429300EA2438124BDBC0E0EA2418F582E43FF548
:1042A30083D0E0F0EA242FF582E43FF58312072957
:1042B300125E89EA2431124BDBF91236551208DB00
:1042C300E9F5087007EEFAEFFB1226DCA908024CA9
:1042D300E9C082C0831227BAE96004792080027999
:1042E300010247FEC082C083EA24111242F8D2E0E1
:1042F300800DEA240DF582E43BF583E022F0A3F080
:104303000247FEC082C0831242F56401701112435A
:104313009A400C8A828B83A3E0F91227A880661245
:10432300438BA2E650128A828B83A3E0F9901D6926
:10433300124756122A7D804D1242F56401700D1208
:10434300439A50088A828B83743080368A828B83A7
:10435300A3E0641B8A828B83700474228024A3E00D
:10436300700D1242F5F8741C12519B3430800B12FD
:1043730042F5F8743212519B3430F583E4938A8208
:104383008B831243A00247FE12438F22EA2410F5C7
:1043930082E43BF583E02212438FA2E322F0901DD7
:1043A300C0E0F912125A2274F71203B8E9FE125050
:1043B3006370030244D0EE6014741B6E701AE8122B
:1043C300599939F583E0640570030244A8901D628E
:1043D3001244DEA3E40244AF74E96E7068E8241269
:1043E300F582E439F583E0700B121AB2E960051225
:1043F3004521606179EE120E28901D611244F890F8
:104403001D61603A124524901D61700B1244F8142B
:10441300F0120FF00244D0124516C2E71246BF2431
:104423000D1244D3640370091244F1124675D2E2AB
:10443300F079ED120E28124509122A7D8078124474
:10444300E474E9806774E16E703E121AB2E9605554
:104453001245217050900775E0C0E01244F1241218
:10446300F582E438F583D0E0F0900764E0C0E09093
:104473001D611244ED1244EDD0E0F0900764E004B6
:10448300F07901120FD88045741C6E7018901D616D
:1044930012468A901D71124756122A7D901D61E4BF
:1044A300F0A3F08028901D611244E4EEF0901D61AA
:1044B30012468A1226CA1246A0E054806003126193
:1044C3009E901D61E4F0A3F079101227A2024CE93B
:1044D30012450122851882851983A3E0F58388821A
:1044E300221244E82212475EA322124FAB22901DF0
:1044F30061124F8C22124F8C241212450122F58235
:10450300E438F583E022901D6112468E901D6512FA
:10451300475A22E0F8A3E0C8241012450122901D57
:10452300611246A7E054042274F41203B8750A001A
:10453300750B00A2AFE433FEC2AF125063600302F7
:10454300461E124753122A7DE94410F8901D5880E5
:104553000985080A85090B12466812467C70030216
:10456300461E123775586870E8780A120919AC08A4
:10457300AD0912387A1208DB901D61E508F0A3E556
:10458300091246BF124675A2E75003024625901D45
:104593005FE014F0EEA2E092AF901D61E0240EF80C
:1045A300A3E03400F9E8FEE9FF8882F58312468A26
:1045B300901D61124203F912268EE9901D5C125D73
:1045C3002C8E828F83E0548060181244F1241312DE
:1045D30044D3F9120EE81244F124141244D3F9120D
:1045E3000EDC1246A0A3E05401605F901D5C1250E4
:1045F3006660451246B660401246B6F87900901DD3
:104603005C12468A120270E8C0E0124694D0E012AF
:1046130046C4C3941340117402800FEEA2E092AF1C
:104623008037901D5E0245947400C0E0901D62E0E7
:10463300C812465FD0E0800D12469474011246BF43
:1046430012465F7401F07903800C901D61124516C8
:10465300A2E1B3E433F9120FD80230E8241AF58249
:10466300E438F58322E50824FBF582E50934FFF5F8
:1046730083221259B3124504221230C4E5084509B6
:104683002285188285198312468E22E0FAA3E0FB65
:1046930022124F892419F582E438F58322901D6193
:1046A3001246A7221246D9C81246AF221251A93880
:1046B300F58322124F892418124501221246D1C8CC
:1046C300221246D1F5838882A3A3A3A3E022F0900C
:1046D3001D611246D922E0F8A3E02274F71203B851
:1046E300EAFEEBFF1227DE124BD8A2E3400A123B8D
:1046F3000F70059080F280039080F3E0F9EEFCEFF9
:10470300FD7A587B1D12128AE96038EEFAEFFB90AE
:104713001D6B124756122A7DEE240E124BDB5404F6
:104723007012124226EE123257A3E05401701E1289
:1047330026D68019EEFAEFFB901D63124756122A14
:104743007D800A8E828F83A374F1124767024CE93E
:10475300901D6D12475A2212475E22E0F8A3E0F53E
:104763008388822212476E1226CA22F0EEFAEFFBEA
:10477300220247F774F71203B8EAFEEBFF790090C1
:104783001DC5E05402700CEA2433124BDB54046061
