:20000000003A0120ADCD010039FB021039FB021039FB021039FB021039FB021039FB021066
:1C00200039FB021039FB021039FB021039FB021039FB021039FB021011FB021002
:20003C002DE9F04F0446B74EB748DFF8E082A5780368317900278346ADF15C0D28462728E2
:20005C0011DC272800F0DD830C281DD9203800F01C84401E00F01584401E00F00E84001F00
:20007C0000F0F483DBE2DFF8E892283800F09E82401E00F07082DFF8D4A2C01F232812D9DD
:20009C009C3800F0CE82CAE2DFE810F0DB04CC04B6049C047A04640460044A043504C90218
:2000BC00250421040304DFE810F088036C0351033503260218030502CD01BA02BA02BA0236
:2000DC00BA02BA02BA02B50185016C01BA02330109010F030303F602E300C300F202EE0293
:2000FC00EA02E102AF00D1026D00CE0256003600240014F8031F8DF8337031F07F0006D0DA
:20011C0011F07F0F0CBF381C0120C149087053210DF1330392E106F10F033220394601225A
:20013C0023F060F806F1100333203946012223F059F8C348F17B0078012905D04FF4006143
:20015C001CF06EFA00F080BC4FF40061642223F0C7FB00F079BC8DF8347069B9E41C20460E
:20017C0023F07CFAA41C0546204623F077FAA11C2A4621F06AFA00E012208DF83400512106
:20019C000DAB5BE1E01C23F069FAE51C044615F8028FADF80840307D8DF80A8004281BD133
:2001BC004FF6FF70A04217D0C11EA14214D0801EA04211D002208DF80C00ADF80E4003A84E
:2001DC0019F0D4FA012818BF01250CD1BDF80E00ADF80800012000E038468DF80B0002A800
:2001FC001AF07EFD05464FF6FC70A04204DC012086F8280086F829801EF0D2FF8DF83550C9
:20021C004F210DF1350319E1E67820798DF837002EB952200DF1370121F0ACFB04E05220D2
:20023C000DF137011FF01CF84D210DF1370305E1181C14F8035F8DF8397014D03E4601790B
:20025C008D420CD1002E04BF0468CBF8004002D001683160046820F03BF8204601E0064668
:20027C0000680028EBD116F08FF90DF1390323E0E01C10F8014B23F0F1F90146DBF80000E4
:20029C00224650B13E4603799A4202D1C388994205D0064600680028F5D1012008E006B9C5
:2002BC005E460168316020F013F816F06DF938468DF83A000DF13A034721BFE039460DF101
:2002DC002A000622079119F0DBF9E01C07A922F087F88DF82A00079870B101888DF82B1046
:2002FC0046888DF82D6009128DF82C1031128DF82E1000798DF82F00432106220DF12A033C
:20031C0076E3C0469C4000209048002004410020E01C23F0A3F9E51CAD1C2C460AAA214607
:20033C0020F0B4FF083528BBBDF8280008A920F0C3FF089870B908A820F002F920B9BDF84C
:20035C0028000899088005E0112014E0B85B00204E3E00202046294616F0EEFD204609A969
:20037C0022F03EF810B90998012101711AF094FF384600E001208DF83E0042210DF13E039A
:20039C005CE064788DF83F7049B1012905D002291CBF01208DF83F0004D1022000E0042016
:2003BC000CF038FC24F01F04202C40F04D830DF13F0342E0204690F80190C01C23F04EF957
:2003DC0051460A7841468E6856B13C4633799A4202D1F388984205D034463668002EF5D151
:2003FC0001200BE024B9346804B93C468C6001E03068206030461FF06BFF384629F01F098A
:20041C008DF84000B9F1200F40F01E8310AB14E0A03E002020464478C01C23F01FF9014634
:20043C00504600781DF09AF924F01F048DF84100202C40F009830DF1410329460122D7E260
:20045C00143E0020E41C204623F008F9A41CADF8080014F8010B04218DF81000204622F0DD
:20047C00EBF80646201D10F801AB10F8018B23F0F5F8044631465246434602A800941AF082
:20049C00EBFA8DF842009DF810000F280FD102204B468DF81000188831465246ADF8080034
:2004BC00434602A800941AF0D7FA8DF842000DF142039BE220782646042806F1030614BFF4
:2004DC0016F8010B02208DF81000304623F0C6F8DD4CADF80800B01C012610F8011B267065
:2004FC00027802A81CF00CFA8DF843000DF14303277032467BE20220E41C8DF81000204615
:20051C0023F0ACF8A41C214614F8086FADF808004446606822F084FE6168C6F3400906F00A
:20053C000106B9F1010F0F7204D16268107A40F040001072012E03D1087A40F08000087293
:20055C00404602A9342209231CF036FA0DF145038DF8450071E70226E41C8DF810602046A5
:20057C0023F07CF8A41CADF80800204623F076F814F8022F804602A84146144622F0EAF901
:20059C008DF84D009DF810000F280CD1484600888DF8106041462246ADF8080002A822F051
:2005BC00D9F98DF84D000DF14D031FE20226E41C8DF81060204623F051F8A41CADF80800E0
:2005DC0014F8010B8DF84F00204623F047F8A41C14F801AB804602A90DF14F004246009409
:2005FC00534601971EF0EAFA8DF84E009DF810000F2811D1484600888DF810603E4602A9F1
:20061C004246ADF80800534600940DF14F0001961EF0D4FA8DF84E000DF14E030DE702275D
:20063C0012E2E41C0421204622F006F880460421201D22F001F8F0648DF832700DF132032E
:20065C00C6F84880D2E119F0CDF8FDE1E01C23F005F8E51C0246A81C10F8011B18F09AFCBE
:20067C004E210DF136038DF83600E7E68DF8387022F060FB0EAB4C218DF83800DEE6204689
:20069C0019F01AFFE0E120461BF064FADCE1204616F0F4F9D8E1E01C22F0E0FF6179A279DB
:2006BC001AF053FB46210DF13B038DF83B00C5E6E01C22F0D3FF6179A27910F01FFB452163
:2006DC000FAB8DF83C00B9E6E01C0FF06DFE44210DF13D038DF83D00B0E60220E41C8DF8DC
:2006FC001000204622F0BAFFA41C214614F8086FADF808004446606822F092FD606802A9E0
:20071C0035220923067240461CF056F911AB8DF844006BE10220E41C8DF81000204622F0E1
:20073C009DFFADF8080014F8020F0DF1470602A933228DF8470001230096404601971EF03A
:20075C003DFA0DF146038DF846004FE10220E41C8DF81000204622F081FFADF8080014F89C
:20077C00020F0DF1490602A932228DF8490001230096404601971EF021FA12AB8DF84800A7
:20079C0034E10220E41C8DF81000204622F066FFADF8080014F8020F0DF14B0602A931227D
:2007BC008DF84B0001230096404601971EF006FA0DF14A038DF84A0018E10220E41C8DF8AD
:2007DC001000204622F04AFFA41CADF808000421204621F031FF241D14F8016B2378014658
:2007FC004446606822F046FA02A900F8016B30220370404606231CF0DFF813AB8DF84C0044
:20081C00F4E00126E41C8DF85060601C22F026FF814604F10B0022F021FF804694F800A0EE
:20083C00637BA07B1FF03EFE0093E01C49465246434611F041FF14AB85498DF85000042052
:20085C0022F048FF55E6C046644700200126E41C04218DF85160204621F0EEFE14F8041F03
:20087C001BF0FAFA7B498DF85100022022F032FF79490DF151030320E2E7204617F0A7FE4C
:20089C00E2E0204617F060FEDEE020460EF0B4FBDAE0E01C22F0E2FE4FF6FD7644460F22C3
:2008BC00ADF8086061688DF8102002230612152201F8010B40460E7002A9A7701CF07CF8D2
:2008DC0039468DF852000DF15203A1708EE0204616F07CFBB8E0E41C204622F0BFFEA41C64
:2008FC00214614F8082F3B461FF030FA0DF153038DF853007AE00220E41C8DF810002046D5
:20091C0022F0ACFEADF80800A01C22F0A7FE0146112202A822F01EF815AB8DF8540065E0B5
:20093C000220E41C8DF81000204622F097FEADF80800A01C22F092FE0146102202A822F097
:20095C0009F80DF155038DF855004FE020460EF007FA79E00220E41C8DF81000204622F02E
:20097C007DFEADF80800A01C22F078FE0146052202A821F0EFFF0DF156038DF8560035E091
:20099C000220E41C8DF81000204622F067FEA41CADF80800204622F061FE4646726814F8F1
:2009BC00021F1070726803125370706803230422817002A940461BF0FFFF0DF157038DF89C
:2009DC00570013E00220E41C8DF81000204622F045FEADF80800A01C22F040FE014603221A
:2009FC0002A821F0B7FF16AB8DF858000122294665201EF0ABFE27E00226E41C8DF81060DA
:200A1C00204622F02BFEADF80800A01C22F026FE0146324602A821F09DFF0DF159038DF885
:200A3C005900E3E7E41C204622F018FEA41C14F8011B22781FF06AFD0DF15A038DF85A00B7
:200A5C00D4E7204615F0CCF8384617B0BDE8F08F51FC0100551C02006D3601002DE9F04F6D
:200A7C0004464FF6FE70ADF15C0DADF854009948007902280ED1208920B19648008E08B15B
:200A9C0021F02CF800208DF856000DF1560152201EF0E6FB6068217A08AA10F001FD002819
:200ABC0000F0A9849DF822000228B4BF012700279DF824000228A8BF0027BDF82A100026D4
:200ADC004FF6F87088420ED04FF6FE70401F884209D04FF6FE70001F884204D04FF6FE70CD
:200AFC00C01E884200D1374622F076FD9DF82310884240F08084002F00F07D847548007943
:200B1C00022804D19DF85100002840F07484208D9DF82650678EADF84C00ADF82E7055B19D
:200B3C0061689DF821209DF83C30012022F0C6F8002840F060849DF82570DFF86082DFF812
:200B5C0060923546002F4DD19DF83D00374678BBBDF82A0003461EF0E3F9BA46022808BF3A
:200B7C004FF0010ABAF1000F9DF822A018BF012741460988994208BF47F002072FB1BAF17A
:200B9C00000F14BF402120210F4318461EF0C8F9012808BF47F00107BAF1000F3BD0129898
:200BBC00007822F065FB012818BF27F0010732E09DF8411041B1FF2906D09DF84000119AA8
:200BDC001FF056FC50B126E04A46BDF82A10508F884205D092F84A0004281CD101251AE087
:200BFC00222718E0BDF82A10FF2020F07BFB002804BF381C082708D09DF8250040F00100D3
:200C1C008DF8250047F001002C2700F00300012808BF47F011072F489DF82630007930F056
:200C3C00010005D107F002010D4308BF47F08007DFF8A4C293B961460D787DB107F02201F5
:200C5C0022290BD007F04201422940F0D48312990978062918BF072940F0CD83F9094FEA09
:200C7C00A71A58D3BDF82A20129948B96046C01C0078800804D30878401E0A282CD909E06A
:200C9C000878C01E012827D9001F25D0C01E23D0801E21D006BB40460088904240F0AB833E
:200CBC000D780520BDF82C408DF8110004A821F067FA002800F09F83026903231327137011
:200CDC00511C0F704C7022128A70CD70448008F08DF990E39C4000205FEA5A001BD3087823
:200CFC00032802D148780D2815D09DF8280038B1BDF82C000E990BF03DF9012800F077838E
:200D1C009DF8270038B1BDF82A000D990BF032F9012800F0698308F10E00B4F844100088D3
:200D3C00884208D10096208DB4F8421094F8462033460AF053F99DF82600002848D0208D5A
:200D5C00B4F842101EF006F8051C2BD19DF8510098B999F8900001283AD112980078062874
:200D7C0002D15FEA5A0033D2BDF82E104FF6F870C01D884240F0AB803DE3042021F078F974
:200D9C00011C00F038836420087001274F70208D488099F800001CF059FF2CE34E3E002067
:200DBC00143E00209DF821106068EB780A18527B9A4202D0EA706E60606840180421401C4E
:200DDC0021F03AFC6968814200F21583401C6860A3480079022800F06A8230F0010040F0B3
:200DFC000A8399F832008008C0F005839DF8510058B1BDF82C0021F019FF002800F0FB8239
:200E1C006168487800F0DF0048709DF8320038B161688879401E8871C0B28DF8320008B9EB
:200E3C0007F07F07380924D39DF82500F9084FF4805614D279091AD3811011F0070F01F01F
:200E5C00070504D0072D1CBF6D1EEDB20DB907F07F0700F0E30040EA8500C0B205E020F031
:200E7C001C00C11021F0030108438DF825006168087299F84A00042800F0DF81092800F0A4
:200E9C00DC8117F0610F40F0ED809DF82200012811D112980078052800F0DB8003280AD163
:200EBC00BDF82A0021F0C2FE28B1218D08A815AA002301F0CFFB9DF8320078B99DF82200E3
:200EDC00012804D112980078032800F0948208A821461BF0B5FF8EE2433E002021F0F7FBBB
:200EFC00002840F088829DF83D00002870D19DF82400BDF82A104FEAE7080028ADF8541038
:200F1C002ED13A0931D29DF82220012A28D00846002119F059F8002520B14079012816D0EF
:200F3C00022814D0BDF85400B4F844101DF012FF28B1807821F0E0F808B1082807DBBDF826
:200F5C002C0021F073FE18B104208DF824000125BDF82A10002D08BF022274D09DF8240007
:200F7C005FEA580238BF002300D340230DF13D0219F064F830B16168087846F0200600F04A
:200F9C003F0008709DF83D0040B1BDF82A1010A81DF0A6FF46F04006ADF854009DF8220036
:200FBC00012806D0BDF82A00BDF82C10002217F051FB5FEA58002CBF40220022BDF82C10D0
:200FDC00BDF82A0013F01EF908B146F0200633E09DF840009DF84110119A1FF049FA0028F4
:200FFC002ED09DF8410038B9BDF82A00ADF8540022F033FC00BB1DE011999DF8285001EB9C
:20101C00400030F8020C002DADF854000CBF082110219DF8270008B10831C9B29DF8250010
:20103C00002200B1012265688918491CCAB2505D401E505546F0400620F05AFE80469BE07A
:20105C00BDF82A100B22BDF82C0000231DF04EFBD1E1218D08A815AA002301F0FBFACAE17B
:20107C009C40002078084FF000085FD3B4F828A09DF833C0C34D09204146EA79944506D190
:20109C00BDF82C302A88934201D1AB782BB9401E05F1080501F10101EFD1092925D095F8FA
:2010BC0006B0BBF1000F1DD0B9F84810504620F0C9F910B1ABF10100A871BA48152102791B
:2010DC00FF2A02D00288924504D0491E00F12400F5D102E0A879401EA871A8792628A4BF36
:2010FC004046A87127F0600720E020F001FE80469DF8320020B9208DBDF82C10884215D0F5
:20111C00218D08A842460EF0EBFE58B1380932BFBDF82A004FF6F870C01D46F00406ADF85D
:20113C00540003E027F020074FF00008B8094FEAA71510D394F8473094F846008DF81130A3
:20115C00E26B94F948308DF8100004A908A88DF8123004F087FF68080ED3218D08A815AA80
:20117C00434601F077FA5FEA000805D012980078012808BF46F01006BDF854104FF6FE7018
:20119C00884208BF4FF000089E48807E012828D1218D4FF6F870C01D884222D0BDF82A2062
:2011BC004FF6F870401C90421BDDBDF82C00884217D022F052FBA0B10179012918BF022958
:2011DC000FD101218DF810104088ADF81C0004A81CF034F928B105A81BF062FF08B11DF026
:2011FC00DFFF37F07F0000F00681B8F1000F00F00281208916F04CFC071C00F0FC8061685E
:20121C00228915F0EDFB002505959DF822008DF81000CDF80080019604AB0295BDF85410D4
:20123C000393228D237A384612F032FC002800F0E28038461FF04CF8DDE04146BDF82A0094
:20125C00098881420AD01DF06BFE022806D09DF8250000F00300012840F0CD809DF82200C4
:20127C0098B112980178042904D19DF83C10022900F093800078072804D19DF83C1004294B
:20129C0000F0878003287FD0B5E094F846008DF8100094F847708DF8117094F948608DF8C2
:2012BC001260E26B08A804A904F0DCFEA3E099F84A00042818BF092840F09D80B80973D243
:2012DC0012985FEA5A01C0F096800178042903D19DF83C10022960D00178072903D19DF816
:2012FC003C20042A55D003294ED00C2940F0838085784078002836D1424803463146012220
:20131C00457004465B1C512021F076FF3B480127077099F8000002211DF042FE641CB8B930
:20133C0038482278C378022A12D1002B14BF4EF660204FF47A70324951F8231099F8003086
:20135C0003224843B0FBF2F20221184622F0C5FA680850D32B4831463A4623464570512054
:20137C0021F04AFF47E0B9F83E1001201FF0B4F82448007902283ED199F8000001211BF019
:20139C004FF938E0B41B002008A8002110F02EFE31E008A816F0A8FD2DE0002008A909F0A2
:2013BC0063FA28E04C1F002094F8460094F847709DF832308DF8100094F948508DF8117055
:2013DC00012B8DF812507FF46CAF208DBDF82C1088427FF466AFBDF82A001DF0A1FD0228AC
:2013FC0008BF8DF832605CE7BDF82A0001E0BDF82C001CF0F3FA17B0BDE8F08F08420020C1
:20141C00745002009C4000202DE9F04FB24DDFF8CCA2DFF8CC92DFF8CC82B44EC80BADF188
:20143C00240DC003069140F0EC822F79DFF8B8B208462C46400880F06682384630F001007F
:20145C0040F09D80084680085FD20846800945D20846C00BC0F093800120022120F0D6F92F
:20147C00C4B20CB3E00016F013FB071C1DD0C24D81464FF0010815262879012818BF0228F3
:20149C000DD18DF804806888ADF8100001A81BF0D5FF20B102A9484621F0C2FE8146761EE6
:2014BC0005F12405E8D100E0002797B174B10F204FF6FC768DF80C001F25ADF8046001A956
:2014DC0022463B46AD48009514F0D0F838461EF0FFFE069880F4804000F049BC5546687AE4
:2014FC0050B92878062802D1072021F009FAE079012801D120F044FF287A10211BF0ECF882
:20151C00069880F0200000F032BC5546687A00BB2978287A08291AD121F0E8F8092021F0E1
:20153C00EFF9BF480078052806D0072809D10720012105F099FC04E0012020F02FFA1AF001
:20155C000BFEE079012816D120F01AFF13E010210FE022F03BF8EF2803DB002020F01EFA3F
:20157C0009E022F033F81030C0B222F041F8287A01211BF0B1F8069880F00200F7E355462F
:20159C002878890B80F09881B248B34B06990668B3F90000490980F061810698000924BF93
:2015BC00069880F0080080F0E2830698400A80F0E7800698C00880F0D58037F001001DD124
:2015DC000698C0091AD3A869A0B115F0BBF9A8690768A8691EF07CFEAF615FB1FA8802E0E3
:2015FC00F888801AF8803F68002FF9D1287A402122F076F9069880F04000B9E30698000A87
:20161C0076D20698800A60D20698CA4C000B2ED20698C00A29D3142016F03AFA071C20D068
:20163C00002524342E46207A012813D105F21118314614223B46404621F0D4FD50B92068AF
:20165C0038606068314614223B467860404621F0D3FD26726D1C0C34282DE4DB38461EF0A0
:20167C0037FE069880F4806082E3002080E3182016F00EFA071C24D000252E46207A012886
:20169C0013D105F20128314618223B46404621F0A9FD50B9206838616068314618223B4697
:2016BC007861404621F0A8FD26726D1C0C34032DE4DB38463146182217F0E2FF38461EF006
:2016DC0007FE069880F4006052E317F0D7F9069880F400704CE3C0469C400020C43F002095
:2016FC00685A00206A5A0020143E0020645A00201AF032FD2878052827D1287A04211AF0E9
:20171C008FFF287A04211AF095F8062021F0F8F8207930F0010007D14846007800F007000B
:20173C00022801D021F03EFE1DF03AFD17F0A6F91BF0C4FF40460078000902D3E07901282F
:20175C0005D168691FF09AFC01E01DF029FD01201FF08CFA0320012105F086FB069880F08E
:20177C00800005E3FF2003211EF00CFA21F052FFC34901200860FEE74C1F002004410020C2
:20179C005B4693F84A00082818BF042844D1243321200021742221F02FFDC34E2779716859
:2017BC0032880025B046AA423CDC37F001002BD1C44C4FF000080227ADF8048004F22C46FF
:2017DC00454604F58864B9B222200B22334621F013FDE8000822234681B23F2021F00CFDE2
:2017FC003079FF2804D0BDF80400401CADF804006D1C24360B372434152DE4DB2220414624
:20181C00022201AB21F0F8FCC348006800B18047002002211EF0B6F9069880F48070A6E262
:20183C00ED420020AB0003EBC503C85C30F07F0C0DD000F07F009AB2C8545B18232011464C
:20185C000C2221F0D9FC2779D8F8041032886D1CADB2A8E7B8470020C04100203746B24EE6
:20187C00B0F1FF3F02D1B1480078B0805FB1786803781BB14068007818F002FD3F68002FC5
:20189C00F5D1B6F90400B0F1FF3F02D0C0B218F0F7FC21F0A7FEA88421F0D4F9E07B012851
:2018BC0006D15C4620784FF40061642222F018F8069880F010005AE20C280DD00C2021F007
:2018DC001FF82878012803D0022818BF0C2801D100206871A26C0DE0022021F011F8287862
:2018FC00012818BF022804D101206871002020F027FDE26C287A4FF4005121F0F1FF06985C
:20191C0080F4005033E2012020F0FAFF554631796F78122001F0070811F0070F13D1022F1E
:20193C000AD0012F0FD1082020F0EAFF21F03AFD09E0C04654360020082020F0E1FF002067
:20195C00014610F04DFCB8F1010F18BFB8F1020F4CD14FB3032F27D0012F47D1B8F1010F48
:20197C000BD00A2020F0CCFF287AE26C4FF4005121F0B6FF14F018FD38E00A2020F0C0FFF7
:20199C005C4620784FF480611AF04AFE502005A91FF0F0FFBDF81400A4F84800BDF81400E9
:2019BC00002117F0ADF828E021F0CCFC002818BF032F15D1022020F0A3FFB949286909785E
:2019DC001AF04AFAB179090910D280B9564A5178491CC9B20429517004BFB249296105E0E2
:2019FC0021F0F7FE0146012010F0FAFB28B1287A01214FF47A7221F073FF069880F001000A
:201A1C00B5E1DFF8A8B25446DA46A6E10346A64A26781F78116828797A1E00F07981521E28
:201A3C0000F08680183A00F09281B93A00F08B812A3A73D0297D3F1F1E4663D07F1E5AD047
:201A5C00BF1E41D07F1E31D07F1E40F0838138BB777FDAF810801FBBB8F1000F06F105092B
:201A7C001ED0B9F1000F1BD04746B81C4946082220F0D6FB30B9FF68002FF6D107E0C0468A
:201A9C007C05204338461BF007FCDAF81080B8F1000F05D19AF800004FF400611AF0C0FDCD
:201ABC00304620F08DFC55E1CC470020012818BF022840F04F81307914F0D4FB1DF070FB74
:201ADC0048E1C046201B0020042940F04381002840F040813179012900F03C81022906D0A4
:201AFC00042940F03781184616F096FB32E1184613F0CCF92EE1002840F02C81184610F015
:201B1C0049FF27E1012818BF022840F02381184609F030FC1EE1C04664460020002900F0F0
:201B3C0019811846884715E1BC410020B85B0020012818BF022840F00D819BF8050057465F
:201B5C00072818BF082805D1637A1BB9012105F08BF92678032E00F08C800A2E11D0042EFB
:201B7C0015D00E2E13D00F2E11D00D2E0FD0002E00F0F0801BF0A2FD207A10211AF0ACFD57
:201B9C00E8E08048007800F00700012871D0677A6078002F37D1002020731CF0EDFF68B904
:201BBC002879022802D1A88D1FF068FA052020F0A7FE42F2107020F0D3FBCBE0062020F078
:201BDC009FFE207A4FF400511AF02AFD6E488079000909D3E87938B900201FF04FFA00206F
:201BFC0021F00CFD21F010FD287930F0010007D16548007900F00700022801D021F0D2FB01
:201C1C001BF05CFDA6E0217B01280BD003281ED1287902281BD1584900260E7001270320BD
:201C3C00A77113E0491CC8B20428207304DB53480078012809D00AE0514800884FF6FF712B
:201C5C0081421CBF0426E672E8D1002060701FF0E5F81EF0A1FA4D480078000902D3E879BE
:201C7C00012877D16078032874D1A88D1FF006FA70E0607A002849D1207A10211AF02CFDE1
:201C9C001CF07AFFA0B92879022802D1A88D1FF0F5F9052020F034FE01201DF021FB59E090
:201CBC001943002000F8FF076C430020E84200202E79207836F001060AD10A2808D13149A9
:201CDC00097801F00701022902D02B4A0821117003280BD11BF0F2FC7879022806D101203F
:201CFC001EF0C4FF0220012105F0BEF8062020F007FE287930F001002CD12248007800F03C
:201D1C000700022826D021F04DFB23E00020C4E7022E1FD1012818BF02281BD121F0F2FC24
:201D3C0028B116F0BDFAA8B12879022808D021F019FD00280CBF002001201DF0F7FD09E0B0
:201D5C0019F0DEFA06E0184604F0F4FE02E0184606F02EFC079820F073FA207A1AF08EFCB2
:201D7C00002807907FF452AE069880F4004080B209B0BDE8F08FC0465E3E0020244300206B
:201D9C005C3E0020685A0020645A00206A5A0020B84A2DE9F04F0846ADF14C0D11780F9005
:201DBC00C00BC70340F027849246B64D0F9A2879920B80F0F683022812D10F9A52080FD3FA
:201DDC009AF850000F2806D100201DF019FD10B1E86B1FF083FE0F9880F0010000F02BBC21
:201DFC000F9A920980F02283DFF89092DFF8908230F0010740F0B8820F9A520980F03982CB
:201E1C000F99C90980F0C0819B490F9F0A78390A80F0AB813846400A40D23846000B28D22B
:201E3C009AF803003946490B19D23846C00BC0F09B824C46A06A70B1E97901290BD1804731
:201E5C00E06A00B180479AF800004FF480414FF47A7221F042FD384680F48040EBE320B13E
:201E7C0000208AF803001CF0FFFD384680F48050E1E31CF0F9FDE87B01280BD1297C49B10A
:201E9C009AF800004FF47A7212FB01F24FF4006121F023FD384680F40060CCE321F0A2FBE1
:201EBC004FF6FE7B834500F05C819AF832008008C0F057810026344630461FF0BBFC071CE0
:201EDC0019D03879012816D0022814D0F879411CF9719AF88B1081420DDABC727C72388844
:201EFC001EF064FE388801A91FF047FE01A81BF0D7F81DF055F9761C152EDDDBA8F11C0672
:201F1C0010275D46119436F81C0F85420CD0307B9AF88B40411C8442317305DA1198B074AF
:201F3C00707430881EF042FE7F1EECD14C46032104F13C0010F8047F0FB17F1E0770491E94
:201F5C00F8D1B04C152605F1010934F8240F81451FD001208DF804006788ADF8107001A8EA
:201F7C001BF06CFAA8B1A8F11C05102735F81C0F2188814208D0BDF80610814204D002A8E2
:201F9C00A91C20F08FFD10B1284620F02AFE7F1EECD1761ED9D1119D2C4628461FF04AFCE2
:201FBC0048B1077937F0040705D1807A20F0A4F808B1641CE4B26D1C152DEEDB1FF0CAFFA3
:201FDC00119E5FEA00080ED0354628461FF050FA28B1807C20F090F808B1761CF6B26D1CDC
:201FFC00EDB2A845F1DCA019C7B2002F4CD0B80015F04EFD1090002808BF119F46D0BA00D8
:20201C00FF2117F03DFB119E3546B44218DD28461FF010FC031C10D0187930F004000CD116
:20203C00987A20F069F8011C07D0009718885A7A109B16F095FB761CF6B26D1C152DE4DBFD
:20205C00B8F1000F22D0119C20461FF011FA061C0AD0B07C20F050F8011C05D00097109BD9
:20207C003088727C16F07CFB641CE4B2A045EBDC0CE0C046143E0020CA4600200842002061
:20209C008C1D00209C400020119810909AF83000002808BF4FF0620805D021F049F8C0F1E4
:2020BC0054005FFA80F80320B8F1600F98FBF0FAA8BF4FF01F0ADDF84090ABF1020BB8F161
:2020DC00000F0EBF119D2025DDF84480BA45A6BF3C1C45F040055446032014FB00F0801CEE
:2020FC008DF8050001A820F04BF84E46031C26D01869082104F01F02017045EA0201417082
:20211C00801CA4B12246C01E361F16F8041F00F8031F318809124170B17801F0070CF178B1
:20213C00521E01F0070141EA0C118170EDD1A3F802B001209876184606F058FF00E00120FB
:20215C00E90906D2641EE4B20CB109EB84093F1BFFB205F040052843B1D0109808B11EF0A3
:20217C00B7F80F9880F4807065E2104306D1AD48C178012902D100218170C1701BF0E6FFBA
:20219C00384680F0800056E2A74C092600214FF006084FF00409A778002F43D07F1EFBB2F6
:2021BC006079A37020F054FC071C3AD06BB9787B022808BF87F80D8033D087F80D803868C7
:2021DC00407BF0211CF026FA2BE0A3791BB9787B032812D025E023791BB3E078401EC3B256
:2021FC00E370F3B99AF82500E0702079401EC3B22371787B032814D133B9204639461CF0DD
:20221C000FFF0EE0281F002087F80D9021F0E1FA00F00F00401C38819AF8000020211AF046
:20223C005BFA0121761E04F10804B4D19AF80000012910D040211AF0F3F995F82800012820
:20225C0013D1002085F8280095F8290014F00AF81CF0A6FF09E040211CF0A2FE28B99AF8E3
:20227C0000004021642221F038FB0F9880F04000E1E1084610211CF093FE30B99AF8000067
:20229C0010214FF47A7221F028FBC148DFF80483417808F59674491ECFB217BB01214170DA
:2022BC000020052120F02CF9071C1BD006253846052120F025F90646388978B1401E80B2B6
:2022DC00388158B97889C00802D3387B20F0EEFA7D733868407BF0211CF09CF9371CE6D1C8
:2022FC0000E0477028274FF6FE7600252079A0B1FF2812D0401E2071C0B270B9607903287D
:20231C0005D160882188022219F02AFB6079012803D0268066806571A5717F1E04F10804FD
:20233C00E4D108F1DC040827207A401E2072C0B230B9C34821461EF059FD90B96680257045
:20235C007F1E04F10A04EFD1BE4AC82112F8080F08B1401E1070491EF8D10F9880F0100001
:20237C0069E11BF0C9FDE4E74C460F98277880083CD20F982189800A1AD20F98C00A38BFBE
:20239C000020C0F05981B04A908821F03DF9D08821F034F92879022801D118F0B1FFBAF881
:2023BC004800012116F0ACFB0F9880F4806042E1BAF84850AAF84810502004F108011CF00E
:2023DC004FFF2689102744466089854205D0864204D0204620F005FC00E066817F1E04F132
:2023FC001C04F1D10F9880F4007024E16FB9BAF83E1001201EF070F8287902280DD19AF855
:20241C00000001211AF00CF907E001A821F029FA21F0D6F801A91AF0DFFB0F9880F0020025
:20243C0009E1C04644360020B41B0020084620211CF0B6FD28B9DAF81000002808BF0126E0
:20245C000FD021F0FFFB0146DAF81000002808BF002004D088428CBF4FF0FF30081A460877
:20247C0065D00020042120F04BF8071C5FD0FF254FF0FF3B06244FF001093846042120F05E
:20249C003FF810903889864204D8801B83B23B8113B149E000203881BB7B012B02D178895C
:2024BC00C0083BD3002B36D08DF804508DF805508DF806B03968086AC97F02AA0EF0F0FF17
:2024DC004FF00008012808BFC8465FEA08001DD0788A40F08000ADF83600B87B8DF83800E0
:2024FC007889000908D3BDF8360040F48070ADF83600387B8DF83A007B6913B1187BADF89F
:20251C00180001A9002202A803F0ACFD7C73387B16F040FE08E087F80D9005E07C73386817
:20253C00407BB7211CF076F8109F002FA5D10AF05DF89AF80030002001211FF0E1FF18B113
:20255C00184620211AF0C8F8002004211FF0D8FFB3B278B15246078914781FF0D1FFD8B919
:20257C00BB42AEBF0027FF1ABFB2204627B920211AF0B2F8002005E07A00202121F0B0F96F
:20259C0021F060FBCAF810000F9880F0200052E08C520020201B00200289BA42D8BF171CCE
:2025BC00DBE721F0D9F9294C0546201D0068074698B157F80C1C9AF8000021B94FF40051E8
:2025DC0019F038F903E04FF400511AF085F8204639460022001D1EF01DF9284621F02EFBB7
:2025FC002FB13846FEF73AFA38461FF029FE0F9880F400501FE008461AF040F8071C17D080
:20261C00134920310A78FF2A0FD03C780B460020944207D0401CC0B2C200D1189A5CFF2AFD
:20263C00F6D102E049683846884738461FF008FE0F9880F4004080B213B0BDE8F08FC046CA
:20265C00DBE7010038220020C8460020D44700200C4D02002DE9F04F064693460020ADF125
:20267C003C0DABF80000B06A099303460078884620F0FEFD48B1708904461CF051FC022843
:20269C0004BFABF80040B36A01D0002009901878C84DDFF82493401E0A2800F20B84DFE8C6
:2026BC0010F02F03B3020C04A0028D0151010904BE00880066000B00BD4CE079012840F006
:2026DC00F9835B1CB06913F8015B1F7821F0FCF8002800F0F7830379002B00F0F383032B02
:2026FC0080F2F0830E2D1CDCDFB9D04907752DB901EB85010A6BC261096B0AE001EB8501B9
:20271C000B6B9A01A2EB8302C2610A6B9101A1EB82018161012180F820101CF041FD002526
:20273C0000E001250320B68964788DF8190006A81FF026FD071C00F0C58338690C2100F89A
:20275C00011B00F8015B04700124BC7720F07AFA786204A930461FF010FA10B17C7704A827
:20277C0038627E80BC76384606F040FCAAE35C1C207820F01F0700F01F00012840F09A836B
:20279C00641C04A8214620F04BFD284604A95D3020F088F9002800F08D83002F40F08A8365
:2027BC000834A2786178207801EB02211DF0AEFB88E3688F7189884240F07C835C1C14F898
:2027DC00016B04A8214620F02BFD284604A95D3020F068F906F01F0726F01F06002800F09E
:2027FC007183002E40F06E83780015F051F9011C00F0688367B184460834384663782278AA
:20281C00401E04F1020402EB03222CF8022BF5D100910DF05CF808461DF05AFD52E35C787D
:20283C009A1C34F07F0704F01F0E40F04B83377F03201EFB00F0801CC1B2B94240F042831C
:20285C00002714F01F0F04BF4FF6FE7C614618D0D9789B7870464D4603EB012C53781178D6
:20287C0012F802EF01EB03213EF0770340F02A832B888B4208BF0EF00707521C401EEDD1CF
:20289C00BFB960464FF6FE72824212D004F06002602A0ED04D462A88A30907D2E30902D25B
:2028BC00904203DD0EE3904203DD0BE39142C0F20983B08920F0D1FF002836D1B0894FF6E2
:2028DC00FF711EF0BFFD041C14D11DF009FF041C00F0F88200211C2216F0D2FEB0894D46FD
:2028FC000E35208028886081AA23A3740222227401216174207C022805DD0220072F20741F
:20291C00BCBF7F1CFFB2677400202073A01C1FF084FE002840F0D682307A002800F0D28233
:20293C00B169A01C20F07CFCCCE20021C171017A022905DD0221072F0172BCBF7F1CFFB201
:20295C004772BFE2484671890088884240F0B282307F022840F0AE82AA4CA01D00884FF60A
:20297C00FE71814240F0AE8216201FF081FB071C00F0A88201213970B07900280CBF081CA0
:20299C0002207870B06A4078B872000902D2B0891DF09EF8B169B81C20F042FC0020F87494
:2029BC00287839461BF052F9B089E0808AE2C0469C400020143E00204E3E002070891CF05C
:2029DC00AFFA002840F076825F78B94987B10C2F03F1020380F276828C463D465A7818787C
:2029FC006D1E03F1020300EB02202CF8020BF5D1484675890488DFF8D892AC4200F0B280CA
:202A1C00B37C002B00F05E823B1C0A974FF0000811D0A74A38464146921E32F8023F9C4261
:202A3C0006D0401E01F10101F7D104E0445002000A914FF001082846002117F0C5FA0028B0
:202A5C000B907ED0407901287BD10B98807910F0180F76D00B984188384620F007F810B978
:202A7C00B8F1010F6DD109F51B794FF6FE704FF000080C97B6F80CB0CDF820904FF0010AEB
:202A9C000D90C14611E0B8F1010F08BF4FF0010908D020F09EFEC0B290FBF8F101FB08F15D
:202ABC00A0EB01094FF00008C246089D10271C3D35F81C4F4FF6FE70A04213D0A34511D008
:202ADC000C9821461FF0D2FF60B96B7C53B1072B08DA08F10100BAF1000F5FFA80F801D180
:202AFC00C14521DD7F1EE3D1B34D152735F8244F0D98A0421AD0A34518D00C9821461FF02E
:202B1C00B5FF98B96B7A8BB1072B0FDA287901280CD002280AD008F10100BAF1000F5FFAA1
:202B3C0080F803D1C14501DC0D9407E07F1EDDD1B8F1000F02D0B9F1000FA4D00D980B9977
:202B5C004880B37C5A4C581EB074F77C00970A9D0195029401220392B189B269708913F03C
:202B7C0073FCAFE1B4890C2F80F2AC818846ADF81040BD488DF812700168CDF8148009B1D8
:202B9C0004A88847204619F05FFEC82803D14FF6FE7019F059FEC82880F2948109EBC005CB
:202BBC0005F5E465686808B11DF092FB2FB1780014F06EFF686010B984E1002068606C8000
:202BDC00C2486F70007828706878002800F07A816868002800F076817A00414613F000FF0B
:202BFC0070E1307F022840F06581099828B94D4671892888884240F065810998314607F0CB
:202C1C0033FE5EE108420020B5F8481040461CF0A1F8A846074608202FB17D781DB902215D
:202C3C00397007257D70B16A0A79CC788B794D7891F802A0CF7904EB02244A7902EB0329A7
:202C5C006A0928BF1020AA0924BF0830C0B235F0700340F03781327F904240F0338105F0B2
:202C7C007005680938BF002006D306A8083120F0D7FA25F010050820A90907D3B16A091880
:202C9C0004A8083120F0CCFA25F02005204651461EF08EFA08280DDA8D4B410001EBC001B3
:202CBC00C9188879B84240F30D818F71002002E03E1B00200420B8F83A10A14219D048B9F5
:202CDC00B189484601222B460DF070F828B1F9E0201B0020042840F0F58006A804AE009049
:202CFC0049463A46534601962046029510F07AFAE8E0B189484601222B460DF057F8E1E0D7
:202D1C00B5F8481040461CF025F84FF00609041C03D06078002800F0CD80B06A8178477893
:202D3C000891C378017900F1050A03EB0120099040461BF04FFB9AF8001009185FFA81FA0F
:202D5C00B80928BF4FF00E0937F0780040F0B28007F01800182800F0AD80307F814540F047
:202D7C00A9804FF00009CDF800900899B0895246434617F09DF9032800F09C80002807F083
:202D9C0078074DD117F0180F18D195F8310028B1B089414601223B460DF008F809984FF685
:202DBC00FE714A463B460DF001F8002838D14FF6FF70ABF8000039E0281F002047F001073A
:202DDC00780928BF47F00207B089394617F0FCF890B1817911F0180F0ED0417901290BD17B
:202DFC0054B14088B5F848101BF0B4FF20B1437813B1607898425DDCB089414601223B4688
:202E1C000CF0D4FF60B94FF6FF70347AABF80000002C0CBF4946B169B08952461FF08CFDA0
:202E3C00BBF800104FF6FF70884243D1012000900899B0895246434617F03AF9099839461B
:202E5C001BF0ECFA698F81422ED1099820F005FD60B10079012818BF022807D1099804A91E
:202E7C001EF08BFE08E0C0460C4000201FF0EAFE014604A820F0D4F9307A012803D1B169BD
:202E9C0006A820F0CDF906A8009004AF0197B06A407840F0300002900999089BB0894A4637
:202EBC0010F0A0F948460CE0B06A80F805A01EF01FFF06E04FF00009F4E7099930460FF060
:202EDC0095F8099009980FB0BDE8F08FB5400020FC1B00202DE9F04FA94C04F12C0000680D
:202EFC00ADF1540D10B1002180F8311034301EF091FD20F031FD1290082011F0E1FD16F02F
:202F1C009DFD4FF0000910B186A020F093FE1AF0E9FE0CA820F096FA4FF0040848460CA958
:202F3C008DF8308020F096FA206420F057F804A820F0F0F9484604A98DF8108019F0B8FA0D
:202F5C00A06320F055F808A820F0ECF9484608A98DF8208019F0DAFAA16BE06319B979A0D5
:202F7C0020F068FEE06B10B97BA020F063FE206C10B97EA020F05EFE824F3868D0F8E00324
:202F9C0080473868D0F8180280473868D0F8F0028047386807254E46A030016873581BB1B4
:202FBC00184680473868A0306D1E06F10406F4D1D0F8B8028047EB2020F01AFBE06A4E46B8
:202FDC0070B16846FF21082216F05AFBE06A694608221FF025F904F12C05012818BF2E6855
:202FFC0068466949139006C980E80600082014F04FFD5FEA000B3ED0FF21082216F040FB10
:20301C00012008215A4620F0B3FB38B904F1480301204946082220F0E5F848B304F1480AB2
:20303C005EB15046694608221FF0FAF800BB30685146086075684D6014E0AAF1020503265A
:20305C0020F0C7FB05F8020F761E4FEA20206870F6D130210620F8268AF80610401CC0B2CD
:20307C000AF80060012049460822534620F0C4F858461DF02DF904F14801E2201CF0F0F88E
:20309C001EF0EDFD400834BF4D4601253F4E5520012106F1320220F06BFB18B915B148463E
:2030BC001DF0E4FD24201EF0F9F9824635201EF0F5F9374EA8B9BAF1020F12D12420494651
:2030DC00022210AB20F08EF8BDF84000324641463C321060352020F04BFB242002211AF071
:2030FC00A5FC06F15001E2201EF044FC284619F023F968464946102216F0C2FA307930F0EE
:20311C0001004CD1DFF88C806946102240461FF087F8002840D168464146102213F060FC9E
:20313C003DE0C04652616E646F6D5F736565644175746F6D617469632829206661696C65D6
:20315C006400C04641455343434D206F70656E206661696C656400C0414553454342206FF4
:20317C0070656E206661696C656400C054524E47206F70656E206661696C656400C046C053
:20319C0080280020140100203C530200E84200209C4000205450020068461DF037FD622028
:2031BC0010216A4620F0E4FA30B92DB16220494610226B4620F020F868464946102216F0CC
:2031DC005FFA284610F08CFB28461CF063FA284612F0B2FC3079B0B968461DF017FD40F27D
:2031FC00011010216A4620F0C3FA38B935B140F20110494610226B461FF0FEFF684649461F
:20321C00102216F03DFA1DB1484601211CF0BAFC282014F03DFC0028606400F01C81206B5A
:20323C00616B221D17F098FED6490870102119F053FA616C201D0860206B616B04F10802E4
:20325C0017F08AFE3968D1F84C138847616C04F108004860206B616B04F10C0217F07CFEDE
:20327C000CF0B6F8616C04F10C008860206B616B04F1100217F070FEC34D6870C048F28E8F
:20329C0085F8029006F16001AA801FF0C9FF96F82100616C04F11002287006F15803CA6013
:2032BC00206B616BEB6004F1140217F055FEB94BB6496B62B64A0870B74B606CAA6004F1D6
:2032DC001802616BAB6204F114030361206B119217F042FEDFF8C48288F808004FF0020B09
:2032FC0088F82CB04FF6FE70A8F824001FF0AAFCAB48A34908F11C0AC0F8009050461FF03F
:20331C008FFFA848FF21382216F0BAF9A648A84B8360A84AC260A549416080F80090A64B80
:20333C000361A64A4261A8492961A54B8361A54AC261A64B6B61A64AAA61A848A54BA64A91
:20335C00EB61A8495061A64D116108F13800D5601BF056FC1BF0EEFB09250AF12C006D1E67
:20337C0040F8049BFBD14546287A48F201011AF0F5F9287A4FF400411AF0F0F9287A48F238
:20339C0021011AF0EBF9287A48F222011AF0E6F9287A20211AF0E2F9287A21211AF0DEF98C
:2033BC00287A22211AF0DAF9606C11994161206B616B04F11C0217F0CFFD8B4D48F21501B2
:2033DC0028701AF0CBF9287838211AF0C7F9884B8648616CEB6004F120026861854B206BB4
:2033FC002B614FF6FE732B8404F11C038B61616B85F828B017F0B0FD7F4904F120037F4A42
:20341C0008707F4D606C616BC361206B156004F124052A4617F0A0FD83493379087023B992
:20343C0091F833300BB186F806B048F202011AF095F9606C616B0562206B04F1280217F00F
:20345C008BFD20706F49087020F0B4F84870616C04F1280048626D486B4C396880F80090EB
:20347C004D4684F800906A4E84F80190D1F800316561D889D1F8501286F80090103080B200
:20349C008847206120B93868D0F84C058047206900908DF804909DF8051069F301018DF8A8
:2034BC0005109DF8051069F383018DF805109DF8051069F307118DF805103968D1F8001184
:2034DC00C9896A461031ADF80610216913680B6052684A60E061256213F0F6F87868C1683C
:2034FC00087838B93868D0F858242946284690477868C168474880F80090474E86F8009064
:20351C00087828B93868D0F85824294628469047129820F093FB0CF013FB1EF0C1FC3868D9
:20353C00D0F8D40090F843001EF088FA3868D0F858242946012090471FF018FE37487E68A3
:20355C0080F80090F068007828B93868D0F8582429462846904712F03BFD3148314A0721A8
:20357C002B461EF0A3F91CF0C3F910200DF142018DF842005A201BF073FE15B0BDE8F08F35
:20359C0058430020B85B00202443002088470020390E01008574010051330200C43F0020C0
:2035BC00C84100207C1B002048460020C5B100005D24020085B30100FF07020041100200D4
:2035DC004D010200E91C020021500100913501004920020085940000C8460020E932010071
:2035FC00A98C0100F51A01006043002031FD01005112020041190200BC470020C847002064
:20361C003DF10100AC47002068570020BE5B0020C05B0020C35B0020625A0020BF5B0020A5
:20363C00A0450020FD390200E84200202DE9F04FDFF8CCA2ADF1340DB24D9AF804600990E0
:20365C0000200A910C909EB136F0010708D0022E12D1287900F0F80141F00201284605E07E
:20367C002846017901F0F80141F00101017103E0287900F0F80028712C1D2078402736F044
:20369C0001016F7100F00700207005D18E20A87136B940F0010002E0022E01D18020A8714B
:2036BC000C9AE270227150276F72A020A071E271A072E272A889079240F43050A8812A743C
:2036DC00B1B1022E1BD1DAF83C602EB9286820F00F0040F0020004E0286820F00F0040F057
:2036FC0001006FF30F1048F220210143296006E029684CF210106FF30F0108432860DFF8F3
:20371C0008B2C749A8799BF8006081F8320066B9104618F011FEC24890F83200000911D3C7
:20373C000C9806A98DF8180009E0084690F83200000907D301200DF119018DF81900522060
:20375C001BF08EFD1EF08BFA800838BF0C9803D30C981DF08BFA012000280B9040F0D6808B
:20377C000DF03CFA5FEA000840F0BB800C98AC4A089074212432212016461FF0F9FF002855
:20379C005AD108992120742233461FF02BFD002852D1A348408F4FF6FE7181424CD0012001
:2037BC009F4B089093F84A00082806D0042804D00FF06AF90C9808903EE0DDF820904220ED
:2037DC000DF11A018DF81A901BF04AFD06F12F0143201BF045FD06F12C0147201BF040FD89
:2037FC0006F11C014A201BF03BFD06F11A014B201BF036FD06F1240138461BF031FD06F167
:20381C00160153201BF02CFD06F12D0154201BF027FD06F11801E1201BF022FD804890F87B
:20383C003200000938BFDDF8309052200DF11A018DF81A901BF014FDDFF870920C9FB9F89A
:20385C000010D9F80400B9423FDC9AF8040030F0010001D106F018FF9648001D006800B1A7
:20387C0080471AF006FC0898E0B11FF0BBFEABF8240018B9207800F0F80020709AF8040022
:20389C00022818BF012004D1654A079982F84A1003208BF8010039360BF11C0031461FF03E
:2038BC00BFFC01E04FF00908814E9AF804700799B01C01801FB91BF05FF99AF80470B8F154
:2038DC00000F089611D10C9810E0BB0003EBC7030C2299B21B1823201FF084FC7F1CBFB2AC
:2038FC00ADE773489AF80470089001200B904C4890F83C10012606FA01F0CBF810007EE052
:20391C009C400020645A0020C43F00200DF066F90FF0BAF8424B0C992120742224331FF012
:20393C006BFC1DF023F89AF8040030F0010001D11FF068FB5F48006800B180470798ADF816
:20395C0000004FF4A17014F0A3F8071C11D0FF214FF4A17215F094FE6846008838800C99B4
:20397C004FF4A1723B4642201FF046FC38461CF0AFFC07980C990622ADF80800684615F0A0
:20399C007FFE142014F084F8071C1BD0B5480C300668A6B1032602216A46136888B2C01944
:2039BC00891D92880360761E8280F5D102A8008838800C9914223B464C201FF01DFC384614
:2039DC001CF086FC182014F063F8071C11D00C99182215F055FE0C9E0C9906F201201822C9
:2039FC003B461FF009FC761C032EF5DB38461CF06FFC1BF014FA2E489AF8047008900B98BE
:203A1C00012868D1064E2436F7B1012F0AD0022F0ED1207800F0F80040F0020007E0C04619
:203A3C00143E0020207800F0F80040F001002070B6481EF072FB002808BF079809D00421B2
:203A5C0003208BF80B1004E0217801F0F801217002208BF801001FF0BCFEDAF840700999FE
:203A7C0000F07F000818CBF810706430022180B20C90FF201CF086F8AF494FF6FE700C462D
:203A9C004887471CE0870798A1F848701CF09EFB9AF80400012812D10A9801280CD00799F3
:203ABC006846082215F0ECFD684606E0CC4700200C4700205C46002007981BF091FB079952
:203ADC002120742233461FF097FB079802211CF059F89AF804700B9809901FB9A88940F03F
:203AFC000100A8819AF81400042840F087805D4D099CEF687FB9122013F0CAFF0028E8602B
:203B1C0072D04FF6FE71861F0327079826F8061F7F1E7080F9D1002C66D1079904AB4C206D
:203B3C0002221FF05FFB002857D1BDF81000002853D0042851DA182013F0AAFF03274FF0D8
:203B5C00020841F2FC790646079CEB681FFA88F14C2006221B191FF045FBA0BBE868015BA5
:203B7C004FF6FE728A422ED06EB3201807994088182233461FF036FB3069EB6800F2E931FE
:203B9C00316118194288EB68900000EBC2004019A0EB09000160181941887369880000EB55
:203BBC00C100E96841F2F8724019801A0360081907994088182233461FF01EFB079930466A
:203BDC00182215F05DFD7F1E04F1060408F10608BBD116B130461CF07BFB07990AF158034C
:203BFC00712008221FF0FEFA9AF80470381C06D11FF028F81FF0AEFB9AF8047037B11FF0D2
:203C1C00A1FB002804BF5046007D06D015480121079E81703E4DC67028783E49089A3E4EED
:203C3C000428D16015462E610FD057B137F0010003D11DF09BFD3A4819E01DF097FD3948FC
:203C5C0015E01DF093FD384811E06FB137F0010003D11DF077FD354809E01DF073FD344849
:203C7C0005E0C046443600201DF06CFD3148099F2A490860EFB1304890F86500C8B99AF819
:203C9C00040030B19AF81400012812D19AF8240078B16220694617F0CBFA079968461CF03B
:203CBC009DFF079812F0DEFA07996846102215F0E7FCDBF8180050B10BF118040768206870
:203CDC001CF006FB38460028CBF81800F6D10120079F8BF800000BF10A0201468BF80A70DD
:203CFC0085201FF045FD0BF10A0428B985203946012223461FF076FA0C981EF021FB1EF0BC
:203D1C0009F80B980DB0BDE8F08FC04658430020B0400020F9DB000041340200F045002091
:203D3C0019260200492F02002135020095790100FB25020011970100143E00202DE9F04FB3
:203D5C000446AF4DAF480021ADF14C0D001D2E680768A0780C910146102910DC102900F086
:203D7C00A880002900F0A482491E012940F2F281891E00F04981491E00F018813AE31139D2
:203D9C0065D0491E1DD0491E03D0491E00F0388330E3207967798DF81000E0788DF81170B3
:203DBC001EF0F4FD002808BF022004D004A909880C3001800C988DF82000132108AB0122B5
:203DDC0032E3204634460421C61C30461EF034FC0C9F0121002C35D0A268904203D02468DE
:203DFC00002CF9D12EE06CB3361D30461FF036FCB778804657B92868844218BF251C20687F
:203E1C00286020461CF064FA0C991BE0B81C13F03FFE051C04BF10210C9F13D00C9828709B
:203E3C006F7061683A46A81C414412F0D9FDBE1C642012212B46F2B21BF088FC28461CF06E
:203E5C0047FAF4E23170334612217770EBE220460126C41C8DF8216020461FF0FFFB6F6875
:203E7C00A278F7B1B2B938680090686818300190787E0290B87E03903969BA8AFB8A381D0F
:203E9C0006F01EF98DF8210068681CF021FA0C98686009E039680818E11C12F0A1FD0C9805
:203EBC0000E010208DF82100112132460DF12103BAE22546BA4C89462D1DA07815F8011CFC
:203EDC00002936D0491E10D0491E02D0481E5FD05CE028781FF0CEFA002861D0416809784C
:203EFC00E170007820710C984CE02D78002857D1E1200DF123011DF03DFD9DF8230085429E
:203F1C0042D00126A67030461FF062F90C9809A98DF8240052201BF0A3F928461AF0A2FA2A
:203F3C0090B365702078314664221FF0D9FCBA2028E0002834D1E1200DF125011DF01AFD7C
:203F5C00CC4E9DF825103C36307888421CD0DDF8308001255220A5700DF126018DF826800F
:203F7C001BF07EF9E12031461BF07AF952200DF126018DF826501BF073F940461FF028F9EE
:203F9C004046A07002460CE00C9A0AE00220F9E728461FF063FB0C9AA9781FF02EFC00B915
:203FBC0001228DF822200DF1220321E210218DF82710E1788046DFB17A681278384691427C
:203FDC000ED03F683FB17A681278914205D038463F68002FF7D102200BE03968016002E02F
:203FFC00B2493868486038461CF072F90C9800E001208DF827000DF12703CDF83480A6E0F5
:20401C00EC470020B447002001218DF828100C990D900C2204A815F033FB25460224ED1C4E
:20403C008DF8184028461FF019FBAF1CADF8100017F8010B8DF8190017F8010B1FF01AFA7F
:20405C00814638461FF00AFBBD1C0E9015F8010B15F801AB15F8018B2E788DF82900700045
:20407C0013F016FD0F9000286DD06D1C4EB18346374628461FF0F2FAAD1C7F1E2BF8020B3D
:20409C00F7D1B9F1000F58D0CDF8409015F8013BDDF83C903746AB460C2FBDF8105011937A
:2040BC004BDA284618F0D0FBC82816D14FF6FE7018F0CAFBC82810D1DFF810C30C989CF874
:2040DC00203701210CF5E56C1CF8082B9342C4BF131C081C491CC829F6DBC84C4FF6FE7613
:2040FC0004EBC0046068668018B11CF0F1F80C9860606FB17E00304613F0CAFC606000285C
:20411C0008BF102419D060684946324612F068FCC9486580007867700DF1290620701099BF
:20413C00CDF800B00E9A0196119BCDF808A004A8CDF80C8005F0C4FF04460F988DF8284003
:20415C001CF0C6F802E010208DF828000AAB0D9881464DE194F801B001210228814604F126
:20417C0003048DF82B101DD114F8010B03288DF8180005D020461FF071FAADF8100004E040
:20419C00216804A8016067684760083414F8010B8DF8190020461FF061FAA41C10E0C0467F
:2041BC00BC47002002208DF8180020461FF056FAA41CADF8100014F8010B8DF819000C986D
:2041DC00ADF81A0014F8010B1FF054F9804620461FF044FAA41C0D90B9F1020F14F8010BE7
:2041FC0014F801AB14F8017B8DF82A001CBF14F8016B06F10A0006D120461FF02FFAA41C2B
:20421C00064606F11400B8F1000F80B242D0FA2832DD6C68002C3DD106F11C0013F038FCA6
:20423C0004466C6024B30C9804F11C0504A98DF82B000C222560201D12F0D2FBC4F8108053
:20425C000D98A082E6829DF82A50257684F819A0A7760F23E376794C207808214FF47A72D7
:20427C001FF03EFBC8B12078082118F035FA14E0102010E0143E002000940DF12A000D9A80
:20429C00019041463346CDF808A004A8039705F017FF00E002208DF82B002BF01F0BBBF110
:2042BC00200F40F0C4800DF12B03A1E0B44700204FF0100A89468DF82CA0504613F0E8FB82
:2042DC00071C00F094805D48E41C786020781FF0D1F800287CD120780C9E3870B04687F8DA
:2042FC000C80142013F0D4FB0028B8606BD014F8011B017062782178A61C01EB02214180F7
:20431C0031787278B41C01EB02218180817914F8022B01F0F00102F00F020A438271B96895
:20433C0014F8010BC871BD68EB79464673B1580013F0AEFBA860B8688568002D08BF56462E
:20435C0004D03046BA68D179814231DC2078B9680873BD682B7B73B1580013F099FB286120
:20437C00BD682B69002B08BF564606D0641C4046297B814210DC102E2BD1A86810B11BF095
:20439C00A7FFBD68287B18B128691BF0A1FFBD6828461BF09DFF1CE0627821782B6901EB65
:2043BC00022123F81010BD68A41C421CD0B2DFE7637821789268451CA41C01EB032122F83F
:2043DC001010E8B2BEE7564603E0C046201B0020B8268DF82C603EB938461AF011FC8DF882
:2043FC002C009DF82C0010B138461BF071FF0BAB4946E4E402200C9019E0C04640220020AE
:20441C000C988DF810008DF81100E07804A91EF0AFFA9DF8117014219DF810008DF81D70F3
:20443C0007AB8DF81C00022264201BF08FF90C9813B0BDE8F08FC046B5400020B85B0020F9
:20445C002DE9F04FBC48BB4CADF12C0D4FF0E0470125069040682169C06809931F4005701D
:20447C00B64808924FF0000505704FF0020000EA020008BF002840F0C382DFF82893DFF8D5
:20449C0028834FF480301E462F461040374008BF002833D14FF4003015EA060700EA020064
:2044BC0008BF00280ED137464FF480003D4000EA020008BF002800F094820020087116F0D5
:2044DC00BBFF8EE228460871EB201CF0BBF84B462846414618700878862802D128461AF05E
:2044FC00D3FB1FF039FAE1690A682B4613710968E1611FF0A3FB1EF0C7FA72E22846069F49
:20451C0008713868B8300268DFF8F8A217784FB953461F7837B1D0F89404804706982169A5
:20453C000068B830B84E81225346FF251A7027783570806CA7700023A3814E461D46097A17
:20455C00C0893570891E8DB2A842C0F23E82E1690831096804F1180001604FF0040BA4F8C3
:20457C000CB0607EA17EE67E00EB0120608104F119032671069E59783268C1F30119B832A6
:20459C001168ED1EADB209780793002908BFB9F1020F00F01A82B9F1020F00F3168261B172
:2045BC0010F0070F00F0118241460978862904D100F00701022940F00882011301F00201D5
:2045DC0002296FDA667800F00700022862D1002E60D1D06990F88300022858D0E1690C319D
:2045FC00097805A801700527A7811FF0B5F9454606462878862847D10698006840300168D3
:20461C000F6837B9D0F80C05804706980068006C07689DF914001FF0DFF978770698006810
:20463C00016C096800228A77006C9DF914100068C17730461FF002FB267967891FF08CF9F2
:20465C0080462946087807F0100786281BD1C34D05F11E021088401C1080872008701EF00A
:20467C008DFB40461FF0EAFA08201CF05FFBE879B04206D11FB9002016F06EF807E01B20DF
:20469C00FAE7E920F8E7464630461FF0D7FA1EF0FBF99CE141460878862804D100201AF020
:2046BC00F3FAA77866788FB186B9012F00F08D816089022F03D110F0070F40F08681032FDA
:2046DC0005D100F00701032901D07EE16089010980F07B81011301F00201022902DA810A9B
:2046FC0080F0738107994978C1F3810A8F11BAF1010F00F06A81012F00F06781BF49B9F1AA
:20471C00020F09D0CA5D11F80A108918CEB2DFB1C10919D3B61E0BE07A18514412790979EF
:20473C008918CEB2C1090BD25AEA07030CD0B61CF6B209E06857002014010020004800208C
:20475C005AEA070308BF0226C0F30020311A60718D42C0F23A8106990968AD1B2D18A8B25E
:20477C00D1F850122081743080B2884700286578606100F02A810021742214F081FF0020F0
:20479C00E07062891DB9074902F0200008700548617905784FF0000C002D3AD0002938D1BA
:2047BC0004E0C046C05B0020C35B002002F00700032808D001282CD106980068D0F8D400B6
:2047DC0090F882502DB306984068406905781DB11EF036FCFE2819D006980068D0F84C02DE
:2047FC00804750B906980068D0F84402804720B96289617994F803C00BE084F803B0628900
:20481C00617905E0BE5B00208548002084F803B0DC46656905F17403AB6505F174006860C9
:20483C0023892B81079B208993F801B00029CBF30118A5F85C001878AA8100F0780048EA2F
:20485C0000004CEA000028744FF0FF03AB730CBF2079002085F8307085F83AA085F849004D
:20487C00A089002EA0EB010087B2A78100F0AA80E169E68068463246C919083112F0B0F823
:20489C00F619B0B2A0812846027C4FEAAB0111F0030F01F003076D4602F0400940D0B8F1E4
:2048BC00020F4FF0000301D1D1090BD29DF801209DF8001001EB0221A0F844100DF10205A5
:2048DC00A0F842106D4EB0F84410B6F842208A4203D04FF6FF728A4220D1032F11D06A7804
:2048FC00297801EB022189B24186B6F84020AD1C01208A4211D04FF6FF728A4218BF181CB8
:20491C000BE06069294632301EF08AFC60693736314632301EF0C6F808350346002B48D0BE
:20493C0007984078861120D06069B8F1020F03D0017CC90903D309E059EA070706D16A780F
:20495C002978AD1C01EB0221A0F84210032E07D069782A7802EB0122028506E0004600206A
:20497C006069294628301EF05BFC608900F00700032809D0012825D106980168D4310868A7
:20499C0090F88200F0B102E006980168D431D1F8741160698847A8B90020079FE070B978D4
:2049BC0066697878C1F3011100F078000843307408E006980068D0F8FC143148884716F0EB
:2049DC003BFD04E009F0D2FF01E01EF043FA1EF0C3FFE1690A68002313710968E1611FF0B4
:2049FC002DF9089A099F202100201140384008BF002919D01EF010F816E0C046F8570200C5
:204A1C00204B214A93F90000401E187092F90000401E107093F9007017B91C482A460280A7
:204A3C002846087116F008FD174A92F9000098B1089B099F02214FF0E0401940384008BFCE
:204A5C00002912D092F9000000280EDC06980068D0F84C05804708E00D480021069F017038
:204A7C003868D0F858240846904706984068C06800210BB00170BDE8F08FC046AC3E002022
:204A9C00BC4500200248002001480020DA3D0020FE4700202DE9F04F8846CE4CDFF838938B
:204ABC00D3494FEAD830ADF1240DC00340F06B825FEA581029D3002308460370CD49437074
:204ADC0018461EF007FECC4901201EF003FECB4906201EF0FFFDD64907201EF0FBFDD54956
:204AFC0008201EF0F7FDD4498DF80C300A680DF10D0003AB097902600622017141208021E7
:204B1C001AF024FE88F0100847E25FEA980028BF88F0020880F0418220685FEA181135D216
:204B3C0018F4706F08BF002000F039825FEA183004D300201EF08EFA88F400685FEAD82099
:204B5C0004D301201EF086FA88F480685FEA982004D302201EF07EFA88F400785FEA58201A
:204B7C0004D303201EF076FA88F48078404616E22168884205D0016829601BF0A9FB286856
:204B9C0004E0016821601BF0A3FB206808BB606858B1C27EC17E521E491ED7B2C17627B970
:204BBC0060681BF095FB002060602768002F08BF00280BD04C46207808214FF47A721EF07E
:204BDC008FFE18B12078082117F086FD88F00808E3E1017B491E0173C9B20029C8D00546EE
:204BFC000068D3E70546DAF8046028781A280EDC1A2854D0401E00F06981401E00F0288195
:204C1C00801E00F0B281801E00F01881B8E1243800F0A581AD3800F09B81801E03D02A38C1
:204C3C0000F08881ACE1A87C0930C0B2814612F02FFF061C00F0A481A97800F8011B6988AF
:204C5C00091200F8011B9AF80C1000F8011B9AF80E1000F8011BBAF80E10091200F8011B84
:204C7C009AF8101000F8011B9AF8111000F8011B9AF8141000F8011BBAF81410091200F8D8
:204C9C00011BAA7CA96911F0ABFE4520FF214A4633461AF05BFD30461BF01AFB70E1B5F876
:204CBC002690E97B09F1140087B21EF0A6FD002638B9A87B032804D0F02FD8BF4FF0810B0C
:204CDC0012DD0A374FF0820BBFB2FA2F0CDD09F1100012F0DDFE061C00F0528106F1100066
:204CFC00A7EB09077060BFB2384612F0D1FE079020B9002E00F044813046A7E00446A878AC
:204D1C0004F8010B6888001204F8010B287904F8010BA888BBF1820F4FEA202004F8010BCE
:204D3C001AD1A87B04F8010BA87B032805D0A8792070E8880012607004E0A91D0868206081
:204D5C004B686360E87B083404F8010B287C04F8010B288A001207E0A87904F8010BE8882A
:204D7C00001204F8010BE87B04F8010B287D04F8010B687D04F8010BA87D04F8010B687EE5
:204D9C0004F8010BE96920461DF074FF241DBBF1820F05D095F8240004F8010B484606E037
:204DBC00002004F8010B04F8019B4FEA292004F8010B094800781EB306490968054B316052
:204DDC004FF47A721E6008210F2333731EF088FD48B103E0EC470020B85B002072480078E2
:204DFC00082117F079FCE869B06070680AE0C0466041002025B701008101020065E8010059
:204E1C0020464C44A96A4A4611F0EAFD95F82C0004F8010BA88D5FFA87F95946001204F879
:204E3C00010B95F82E00079E207044202FE7C046190A020089FC0100A0580200A878401DB8
:204E5C00C0B212F025FE002800F09A80064622E729790B2000EB4100C0B21DF009F9002876
:204E7C0000F08E80A9782F798DF80010EE788DF802708DF801600DF10301FFB1AA792E79FB
:204E9C00EF880A70022E4FEA27218DF804100DF1050113DB2A7A2E792F890A70032E4FEAE2
:204EBC0027218DF806100DF1070107D1AA7A6F890A7039128DF808100DF109012A7BAF89B2
:204EDC000A703A124A701DF0BBF959E0002E57D070788DF81500B0788DF816003078FA28D8
:204EFC0019DC9DF8150000F01E00162811DA2D499DF815000F4600F01F008200D019406829
:204F1C00091D30B18958304688478DF8140028B9C1E6012000E004208DF814009DF81500BF
:204F3C0020F01F0020287FF4B6AE60200021032205ABAEE66878AF78EE788DF8180006AB42
:204F5C008DF8197003228DF81A604420802103E06B1C4520C02101221AF0F8FB10E0F078D6
:204F7C003346401DC2B26920F0E7F078401DC4B2A11E701CC9B21DF055FFA41904F8010C43
:204F9C0028461DF05DF90848007817F077FB5FEA000A7FF427AE88F400481FFA88F009B03A
:204FBC00BDE8F08F60410020B85B00202DE9F047DFF84493064609F10400B57800780024AF
:204FDC00ADF1380D2946242924DC242900F08081162911DC162900F09C810A293AD91039D1
:204FFC0000F0B781491E00F0AB81C91E00F0A081481E00F0968114E1B1F1200000F08481D9
:20501C00401E00F07B81401E00F07081401E00F0658106E149290FDC492900F0258125390D
:20503C0000F04F811B3900F03981491E00F02B81C91F00F01D81F4E0B1F14A0000F01081DC
:20505C00401E00F0F980801E00F0F280933800F0EA80E6E0DFE811F087002B00BF01AC019B
:20507C009E018F010B00D601E5008201D60130468DF82E40C61C30461EF0F0FAB778C0F329
:20509C0004213FB9052903D04FF6FF7181420BD1204607E0052903D04FF6FF71814203D1E8
:2050BC004FF0FF30D94908600DF12E03A5E1202012F0EEFC061C00F0A581FF21202214F05D
:2050DC00DFFA731C0120214608221EF08BF8751C071C18BF01272146042205AB84201EF067
:2050FC0081F8083560B99DF8170028709DF8160068709DF81500A8709DF81400E87001E05A
:20511C0047F002078320214602220DF11A031EF069F82D1D38B99DF81A002870BDF81A002A
:20513C000012687001E047F00407ED1C6120214601226B1E1EF056F808B147F008072146E7
:20515C00102262202B461EF04DF808B147F01007012120223346672037701AF0F7FA304638
:20517C001BF0B6F84EE1264630F001008DF833600BD10DF1330016F0DFFD9DF833108046F9
:20519C000E2000EB4100C7B201E0A0460E27384612F07EFC5FEA000A3DD0054621460822EE
:2051BC00012005F8016B2B461EF01CF81EF01AFA0835072305F8010B001205F8010B944A2B
:2051DC0005F8013B1078494605F8010B0B7933F0010316D19DF8330028709DF833308BB134
:2051FC0041466D1C20469DF8332082420ADD0A782A7031F8022B401CC0B212126A70AD1C83
:20521C00F1E72E70672021463A4653461AF09EFA50461BF05DF8B8F1000F00F0F3804646B6
:20523C009DE70224EEE022464720E0211346E7E030460DF063FFE5E0F01C026869460A60C1
:20525C00406848608DF808400227CDF80CD002A88DF8097013F05CFD0AAB8DF82800CCE039
:20527C0030461AF091FACDE030461CF0D2FCC9E0F61C307871781CF0C9FA02223070001219
:20529C0070703346BAE0F01C1EF0E8F9ADF80200684614F06BFA01AE0822F2E7F01C02681E
:2052BC0001A90A6040684860684615F0EDFDBDF8020007AB8DF81C0000128DF81D000222EF
:2052DC009CE0F5208DF8214008AB8DF82000F6E7F5200DF129038DF829008EE0F520FF2770
:2052FC008DF8240009AB8DF82570E8E7F5200DF12A038DF82A0080E09C400020F5200DF1EE
:20531C002B038DF82B0078E0F5200BAB8DF82C001DE068462146092214F0B2F91621092271
:20533C0027E068462146062214F0AAF9152105E068462146062214F0A3F91421062218E019
:20535C001AF05EFA11210DF12D038DF82D00012255E03278F01C1021034650E01EF072FC89
:20537C004FF47A71B0FBF1F168461DF083FC092104226846F0E762201CF090F8F61C0246D7
:20539C002146334662201DF037FF0DF12F038DF82F0032E061201CF081F8F61C024621468F
:2053BC00334661201DF028FF0CAB8DF8300024E0F01C04211DF040F9049084201CF06EF812
:2053DC000246214604AB84201DF016FF0DF131038DF8310011E0F01C1EF040F9ADF81800A4
:2053FC0083201CF05BF80246214606AB83201DF003FF0DF132038DF832000122294667207A
:20541C001AF0A4F920460EB0BDE8F08768470020C43F00202DE9F04FBC4CBE4E60798B4684
:20543C005FEADB01ADF11C0D80F0A3814FEADB31CF03B74918BFB24649D10F785FEA5B3174
:20545C002DD25FEA1B2028BF8BF0800B80F0FD815FEA9B000CD25FEA1B3038BF0020C0F0B5
:20547C00F681381C01D10EF0A7FA8BF4006BECE1012F18BF022F0FD168460021082214F008
:20549C00FFF800201BF0F2FB684610F0F5FD18B12078022117F020F98BF0020BD5E1012F2F
:2054BC0018BF022F10D1401E0AD0801E0CD1E079022809D10120E071002019F011FF03E049
:2054DC00A17900201BF0EAFB8BF4805BBDE1207817F0D4F85FEA000808BF8BF4004B00F051
:2054FC00B48198F80070D32F00F036816079B84224D094F82F000A2F0CD085480678002EA2
:20551C0040F03381092F40F03081002108F1020088472AE188F8040098F802108DF81210AF
:20553C00032298F803108DF814000DF112038DF813104F2080211AF009F916E19AF804008A
:20555C007F1E464600F0AF80BF1E40F00E81012818BF022840F00981B77877B37F1E40F041
:20557C000481727820781AB31EF03CF84FF6FE720021824218BF0121081C04D1B548408FA1
:20559C001146814209D01046B249ADF8100017464F87532004A919F063FE1BF03FFC1AF0E9
:2055BC00FBFDAC49002081F84A0010F0BDFCDCE0022140F6B832E171C3E0707800286ED103
:2055DC001EF0D0F80746A3480021002FE76000F108000160E9D00D46BF696D1C002FEDB225
:2055FC00FAD108460E460690E7681FB14FF000094D4503DC761C022EF6DBD6E796481CF07A
:20561C008CFD012809D0BAF82E004FF6FF7181420AD03988884207D036E08F4807F10C015D
:20563C001DF040FA00282FD08A483989C08F884203D14FF6FE71814210D19AF8040030F051
:20565C00010307D1069810B9FB783BB91CE03B7923B919E0022801D13B79ABB17D497B7939
:20567C009AF8050091F836209A4212D1B97988420FD0012808BF022903D0022803D10129E8
:20569C0001D10120069026B938461BF0D7FA6D1EEDB2BF6909F101005FFA80F9A8E700205E
:2056BC001AF044F961E0012818BF02285DD1777894F838103FB194F83700401CC0B28142E7
:2056DC0084F8370045DBA079401E04D0401E3DD0401E21D049E01DF035FE78B994F8390077
:2056FC00002842D1002102200F468DF808000246ADF8007068461DF02DF91AE001201EF0C7
:20571C0007F8014601F0B0FB2FE0C046E8420020A04000209C400020AB2000216A4618F08C
:20573C0023FACDF808D004208DF80C0002A80DF071FC20784FF4805116F072FF207841F2DC
:20575C0088324FF480511EF0CBF80EE01AF012FF0BE001200021D5E7B8F80E0048F20201A1
:20577C00814202D140460CF03FFB40461CF068FDADE63779217830B1401E60D0C01E59D072
:20579C00801E4DD05FE094F82F00022F01D1810959D281081ED2C00855D3601D052594F8E4
:2057BC0030100570890810D394F8321069B90121A1700422002113F063FF6571002018F0D7
:2057DC001DF802201DF0D9F93DE02846002101F04BFB38E0042594F830006571400832D394
:2057FC0094F832309BB9012F18BF022F16D10127601D00212A46A77013F042FF03206071A7
:20581C00384617F0FBFF38461DF0B7F905E01DF0CBF82846012101F027FB37799FB9D4E797
:20583C00002084F82E0060713222084604211EF057F808E01DF0B8F804200121C7E70120D3
:20585C0001461BF02BFA8BF0040B1FFA8BF007B0BDE8F08F143E0020E03F00202DE9F04FB6
:20587C000546DFF8CCA2DFF8CC92A8784FF00008ADF1340D0746142F04D91C3F63D07F1E69
:20589C0017D0ABE1DFE817F09B01E001DC018501D401AA01AA0158015F0015003D0128016C
:2058BC00CA01AA01C4010E01AA01AA01F900E800AD018146EC1C8DF8248020461DF0CEFE66
:2058DC000546B9F1090F09D0A01C1DF0C7FE0746201D1DF0C3FEA41D064602E0A778E67874
:2058FC00241D242D03D1208835256C46009028461BF0D4FDB91988421FDB67B9C34803884C
:20591C004BB19D4217D14288964204D140682146324611F065F828463946324623461DF071
:20593C006BFC30B9012D0BD1E220214619F098FC04E00A2002E00830E1E702208DF8240030
:20595C00494609AB60E18346ED1C28461DF086FE8146B9F1240F66D0B9F1690F1DD0B9F143
:20597C006B0F1AD0B9F16A0F17D0B9F13A0F14D0B9F13B0F11D0B9F5887F05DDB9F5007F2D
:20599C000BDBB9F5007F03DCB9F1620F03D104E0B9F5407F01DB444600E00224BBF1080F8A
:2059BC0008BFAE7803D0A81C1DF058FE064648461BF074FD86422BDA5CBB801B85B2F82DB3
:2059DC00A8BFF725A81C5FFA80FA504612F060F8071C1BD0B81C41462A4613F051FEBB1C9F
:2059FC00484631462A461DF0FDFB48B940463870524659463B467D70612019F0A7FE00E02E
:205A1C000A2438461AF064FC1CB929E1102400E0022405A84146022213F032FE8DF81440D7
:205A3C00594605AB18E135204146042201AB1DF0D9FB38B9BDF80420404602210424ADF833
:205A5C00122002E00120414602248DF810008DF8111004AB0821B0E0E81C1DF0FFFD24284C
:205A7C0002D01BF01BFD00E040468DF818000012132106AB8DF81900EEE0E81C1DF0EEFDB3
:205A9C000446681D1DF0EAFD0146242C03D0204617F0CCFF00E040468DF8270012210DF142
:205ABC002703B1E0E878291D70B1401E0AD10878012805D020B152200AA91BF05BFF08E04E
:205ADC00522002E0022002E0E02019F0C9FB8DF828000F210AAB97E051460124087815F833
:205AFC00031F8DF82A400429A8BF022003DA39F8111016F095FD8DF82A000B210DF12A03F6
:205B1C005BE0ED1C28780428A8BF02200ADA681C1DF0A4FD2F7851460246087839F817105C
:205B3C001DF0DEFE8DF82B000A210DF12B036BE0B85B002030580200E81C1DF08FFD064668
:205B5C00681D1DF08BFDEF79EC1C0146242E1AD0B94204F1050411DD304642461DF008FE24
:205B7C008DF82C009DF82C0009280FD177B1304641463A4623461DF03FFB07E0304622466C
:205B9C001DF0F6FD00E040468DF82C0007210BAB3AE00124ED1CE2208DF82D40294619F040
:205BBC005FFB38B92046414608222B461DF024FB8DF82D0003210DF12D0322464DE0E878D1
:205BDC00294C30B1401E4BD11DF024FD01202060FEE71DF01FFD01202060FEE74FF002082D
:205BFC003EE0E8788DF8250040B21DF0BBF88DF826001E480068D0F830240DF12501E020F6
:205C1C00904714210DF12603012226E0E04702008DF829800E210DF12903F5E71DF0D9FD9D
:205C3C008DF81C000C2107AB00128DF81D0013E0E22002A91BF09EFE0421082202AB0CE0E5
:205C5C000B4B0221052208E05920062701218DF8200008AB8DF821700222612019F076FD49
:205C7C0040460DB0BDE8F08F7C05204314010020A05802002DE9F84FDFF834830F46064602
:205C9C00F80B80F09B81C74DCA4C2878B90F80F03581DFF824B3B90880F02881DFF80893A7
:205CBC00DFF808A3F90A80F08B80390B54D2380907D2F80FC0F0BA8127F0804716F0BCF9B9
:205CDC00B4E11DF049FE05461CF06CF800283DD01BF042FA002839D04C4603202070D048FA
:205CFC001DF034FE28461DF0A9FF0FF0E7F9022000211CF045F802201AF004FB11200EF061
:205D1C00B5FDCE48007820B95546286848301DF03BFECB48007810B90E200EF0A7FD607B66
:205D3C0020B10020607305201AF0ECFA002041462070C44AB1F91C00B1F91E1062608842FF
:205D5C0014BF0220072013F001FE02E028461DF075FF27F00807B1E720B104201AF0D2FAAF
:205D7C000020287055462E681AF01AFB40B1F0696FF4807100224FF0007384463046E04726
:205D9C00B14E306858B12068006B8047326829680024801AC860C8683460000BC860AB4892
:205DBC00AB4900221DF0E0FD4C46584602210068217010B1A7481DF0EFFD27F400677DE7EC
:205DDC001DF0CAFD00901BF0EDFF002840460068834600F08580002800F0828048460426A6
:205DFC0006709D49994800221DF0BEFD00981DF025FF8B481DF0AAFD2068006B80474FF017
:205E1C000108DFF844C285F800806446206030461AF092FADBF810005546416A2860C908CB
:205E3C0004D3016A00220B4631469847404616F0D3F8286880F815800DF068FF2D68D5F881
:205E5C00089040F60A01A446C81F421C4E4600E02646746834B12388994203D0984218BF73
:205E7C009A42F5D100217160737B08F00F0423F00F031C437473DBF80C301B88984225D08D
:205E9C009A4223D02C8E1CB3696305F13002518095F83C000B4603F00F0320F00F00034345
:205EBC0085F83C3095F83D0008F00F0420F00F0044EA000385F83D307260707B01F00F040D
:205EDC0020F00F0044EA0001717301E0CCF8001048461DF087FA014640461BF051FF02E099
:205EFC0000981DF0ABFE27F480679FE010F0AAFE5846006808B927F0020797E0574A116897
:205F1C0041F08001116020B104201AF0FBF9002028701DF021FD8146606D00680146042005
:205F3C008847D8B1307DC8B14D480568B5B120683469006B8047401B30613069000B3061E7
:205F5C003069A04203D2001940083061306940F6C41181422CBFB0F5967F316148461DF0AA
:205F7C006DFE1AF01DFA88B1F0696FF4807100224FF0007304463046A047414608680028F9
:205F9C0008BF47F0020701D016F056F8B06900214FF0806304460A463046A04727F00057F8
:205FBC0044E0C046615A0020DC5A0020505A0020F85700208C010010005800201DF0CCFC47
:205FDC00414618310E686EB306F1280191E80C004FF0E0450A241D4004EA020108BF0029C9
:205FFC0020D106F1280191E8300006F1280393E8060006F12803AA43A14383E806001DF0B7
:20601C001DFEB16881B1002D08BF002C0CD03069B6F93C10B2682B4616462246B04703E045
:20603C008C5700201DF00AFE27F480471FB1094839461DF0B1FCBDE8F88FC046605A0020E4
:20605C00B2570200E5180100585A0020B458002059450100F0550020BD220200CC21084003
:20607C00545A00202DE9F04FADF1840D1D9206461C91B08DADF85A0000248DF842408DF81E
:20609C004340D6F828C08DF84D40327FADF844401746F0898DF854706146ADF84A0008788A
:2060BC0000F00303022B8DF8400000F3BE8123461E93491C1F9343083CD200F00C0EBEF167
:2060DC000C0F0CD043093CBF11F8013B8DF84230BEF1080F04BF01238DF84C3001D08DF826
:2060FC004C40BEF10C0F0AD0737903F00303012B0CD140F00C0073898DF8400004E04D78C0
:20611C000B78891C03EB0523ADF84430430911D24D780B78891C03EB0523ADF846300B783C
:20613C004D78891C03EB0523ADF8483011F8013B8DF8433011F8013B30F07F058DF8553076
:20615C001ED00B7833F003058DF8413040F0698103F0030EBEF1030F00F0638113F0030FC9
:20617C0001F101010ED011F8013B00F00305022D8DF8573004BF11F8013B8DF8583001E0C3
:20619C008DF841401491A1EB0C017F1AFFB2BA42C0F24781D21B8DF85470D1B28DF84D1044
:2061BC000F4300F04281C10907D3708918F0B8FE002840F03A819DF8400000F00C01274611
:2061DC00091F08BF0127820932D301221F9279B3B2891DF007FA904202D1F08D000A0DD2A8
:2061FC001DF000FA904221D0F18D080A38BF101C07D39DF8400000F003032DE07089ADF8B6
:20621C005A2080461DF0EEF9BDF85A10884205D0404616F0EFFE002800F007818448026821
:20623C0010A940469047002840F0FF809DF84000F18D00F003030A0A0ED2C2090CD39DF8D9
:20625C00412012F0030F07D100F00C020C2A03D0082A1CBF01221E92DFF8DC81022B00F09D
:20627C00C180012B00F0908010F0030F40F0DD80DFF8C09199F82F00012803D1B579002DB6
:20629C0000F0D3809DF843009DF8543002221B909DF84250BDF84640BDF848B09DF855E006
:2062BC009DF857C0DDF850A01A93B0898DF864200B0AADF85C0035D242461B321468A7B994
:2062DC001E9F17B110A911F086F8F07C00901F9F01971D9D0295B07C1C9B0390B9F84820B3
:2062FC0017A910A80FF05AF89FE0307C002C8DF8560000F09A801DF075F9BDF85C209042FF
:20631C0040F0938030791F9F00901D9D01971C9A02951E9B039196F8300010A9049017A871
:20633C00A04782E08DF820208DF82350ADF82640ADF830101B9F8DF82270B9F84830ADF8AC
:20635C0024308DF835E07089ADF81800ADF828B0CDF82CA0327C8DF836C035798DF83220C1
:20637C00B47C8DF8335096F830108DF834401A9F8DF8371096F83230ADF82A7006A88DF81B
:20639C00383003F0A1FC50E01E9FB58937B1080A04D2284610A911F01EF8B5899DF8540089
:2063BC00B6791030C0B21BF063FE071C3DD07D81022038703E737C709DF854203A7207F132
:2063DC0010057D609DF84000800928BF01247C721499786810F004FB42461078394617F035
:2063FC0035FC22E09DF84100B18942462332136810F0030F10D110A807901048ADF818107F
:20641C0006A91AF0F3FC80B1062141730068407B214618F0FFF808E03BB110A82246984750
:20643C0003E08DF84D408DF8544021B0BDE8F08FEC450020143E00202543002035DB0100E1
:20645C002DE9F04FCC4CD74DDFF85C83C80BADF1140DC003019140F0C1810846400838BFF3
:20647C000020C0F0C68167681DF0ECFB4FF6FF7281B267B13B887888CB1A9BB2984210DD69
:20649C00C01A8242C8BF82B2FF68002FF2D14FF6FF70904200F08E80207801211DF020FAC9
:2064BC0088E0B879022878D01DF0CCFB97F83810388005F11F000078884267DD97F83600F2
:2064DC00FF2808D197F83800401C87F8380097F8370087F8360097F8356097F8393000200F
:2064FC00012101E0401CC0B2834210DD97F836C001FA00F28CF0FF0C12EA0C0FF2D03618DD
:20651C00814097F83600F6B2014387F8361097F83400B98F10FB06F2891A89B28842C7BFEC
:20653C00FF2087F83600011C97F8360095F82020FF2818BF97F83A0006D140460078642597
:20655C0010FB02F212FB05F0788046B9388D3E7A40F020003885386C87F82E600BE03A8D3A
:20657C004FF6DF70104038853D6C87F82E6097F8342012FB06507862F879CEB287F82D00EB
:20659C0007F110007E8403F09FFB0FE0B87E97F82A10E9221AF018FD05E0387CFF2802D09E
:2065BC00B8691BF04DFE38461AF080F92078012116F092F8019880F0010019E12878012830
:2065DC0040F0098195F8338095F813A06F6995F83100698802221AF00FFD05F11C0405F198
:2065FC00020B06460020002E02907DD1687F400878D3A87FCDF80CA01CF03CFFBA4605F1A9
:20661C001009071C63D01C2011F042FA061C5CD000211C2213F034F8A87F69461CF0A8F917
:20663C009DF8010002213075304619F067FD6888317DB08095F83100FF23F07103FA01F000
:20665C00707478680078307495F83000B07495F8331011FB00F0303080B21BF009FD0746A1
:20667C00B76127B930461AF021F900262DE01A20387000237B701A467A80E0885946B880B0
:20669C00B81D1BF0BDFEE078474BF87303F1200000883882608BB88560897882A0783875C8
:2066BC00207B787599F80000B87599F80100F87599F902003876039A7A76C7F81CA007F137
:2066DC003001B962A07D87F82400304600E00020002806467FD0284886F808800078012149
:2066FC0015F0FAFF002E76D0307AA8EB0000B0F1FF3F04BF01200290307CFF2856D06078A9
:20671C00400828BF4FF00008317DF07C4018404503DCF074FF2088407074B069B17C227DFD
:20673C00806A08FB0100216910F05AF9029F317D727C012398FBF1F04843A8EB000003FA82
:20675C0000F11143C9B27174C7B1401CFF2202FA00F001437174B769B17C207D08FB010080
:20677C00F884707CFF2809D1307CB16917F06EFAFF2030741AE0C046884700201DF062FA44
:20679C003080094F0748074B90F82010387810FB01F1D87F6422401C10FB01F010FB02F09D
:2067BC00708003E09C4000203C3E0020F17C327DA8EB0100801AB0F1FF3F04D0707CFF2844
:2067DC0001D0029F3FB1E175707C2076BBF80000214610F000FE28461BF032FD06480078DD
:2067FC0015F04CFF051C7FF4E9AE019880F4004080B205B0BDE8F08F884700202DE9F04F66
:20681C00AE4ADFF8BCA2DFF8BCB2ADF1340D904650780591C90BCF036FD15446207930F09E
:20683C0001000AD10598400807D3D8F8200000B18047059880F0010074E10598800806D3D8
:20685C000120059F88F8030087F002006AE10598000938BF0020C0F0668158463230D8F8EC
:20687C002C7000780026354600091BD21DF0EAF9D8F83010228F0690401A94F8231082422D
:20689C0037D8B0FBF2F39BB29942ACBFDCB20C1C069BB0FBF2F15143401A81B2581AC8F872
:2068BC00300000E00124DFB1A946F878A04208DD001BC0B2F87030B13E467F686D1CADB2A8
:2068DC000CE087F803907868002E82460CBFC8F82CA07060384619F0FBFC5746002FE4D1A2
:2068FC0098F801002DB90021C8F83010082115F097FE059880F0080014E115F0BFFE071C32
:20691C0000F00D81B87FC8B9788CD8F82C40132816D17D88201C13D0002601888D4209D147
