:020000040000FA
:10000000021EAC022003FFFFFFFFFF02200BFFFFD9
:10001000FFFFFF022013FFFFFFFFFF02201BFFFF78
:10002000FFFFFF022023FFFFFFFFFF02202BFFFF48
:10003000FFFFFF022033FFFFFFFFFF02203BFFFF18
:10004000FFFFFF022043FFFFFFFFFF02204BFFFFE8
:10005000FFFFFF022053FFFFFFFFFF02205BFFFFB8
:10006000FFFFFF022063FFFFFFFFFF02206BFFFF88
:10007000FFFFFF022073FFFFFFFFFF02207BFFFF58
:10008000FFFFFF022083FFFFFFFFFF02208BFFFF28
:10009000FFFF70DFFFFF040000000002000000C847
:1000A00003000102327300000100000000000400A0
:1000B000FFFFFFFFFFFFFFFF0403090424035400B9
:1000C0006500780061007300200049006E00730035
:1000D0007400720075006D0065006E00740073009E
:1000E000240354004900200043004300320035003F
:1000F000330031002000550053004200200043002F
:100100004400430000035F005F003000580000001F
:1001100000000000000000000000000000000000DF
:10012000000000000000000000000000000030316E
:100130003233343536373839414243444546961BCD
:10014000EB1BEB1BEB1BEB1BF31B74F8121B309030
:1001500003D4E0601590030274FEF0900304744D24
:10016000F0A37405F07A0112068F7F01021CE1747E
:10017000F8121B3074FF121E2A7E00801F85188221
:10018000851983E064FE70069003877401F085187A
:1001900082851983E0F8900384E068F0790185187E
:1001A00082851983AA82AB83121071E9700302025F
:1001B00077E064EF70027E07E0C0E0900387E0F82C
:1001C000900385E0FAE82AF8E434001206DED0E075
:1001D000F0900387E060A614600E14602A14603A61
:1001E00014605014606680A6900384E4F085188241
:1001F000851983E0900386F0C394809003874003C1
:10020000E4808A74028086851882851983E09003D1
:1002100082F0900387740302018D8518828519830B
:10022000E0900383F0900386E060199003877404E4
:1002300002018D900385E004F0F8900386E0686089
:100240000302018E900387740502018D900385E4FB
:10025000F0900387F0900384E0F885188285198375
:10026000E068600302018E900382E0644D60030247
:10027000018E1203C88002EEF97401121DC702013B
:100280006A74F7121B3074FB121E2AEAFEEBFF752C
:1002900008047509007808121E447402121ED7ACB7
:1002A00082AD837A907B00790412184C7402121D7F
:1002B000C7851882120687121ED7E0687003A3E074
:1002C000697012851882851983E0F47003A3E0F445
:1002D00060030203A37404121ED7AA82AB83120622
:1002E000EA8A088B09A808A9097402121ED7E8F047
:1002F000A3E9F07404121ED7E06008790112014AE4
:100300000203BC851882851983E0687003A3E06945
:100310006003020396851882851983E0F47003A3B5
:10032000E0F470197402121ED77410F0A37420F058
:100330008518828519837410F0A37420F075080164
:100340007509007808121E447402121ED7AC82ADE3
:10035000837A247B081218D17402121DC775080411
:100360007808121E447402121ED7AC82AD837A90B4
:100370007B00790412184C7402121DC78518821272
:100380000687121ED7E0687003A3E0697004790243
:10039000800679048002790312014A8E828F837469
:1003A0001E80058E828F83E4F0120681121ED7E034
:1003B000687003A3E0697004790180027900740514
:1003C000121DC77F02021CE174F1121B3074F81277
:1003D0001E2A900307E0FA900306E0FBEAF8E4C85F
:1003E000F9EB2400FEE93408FF750A018809750B52
:1003F000068E0C8F0D7409780C121EBBE50CF508E7
:10040000EEF50CEF5401F50D900383E014606614D3
:1004100070030204A41470030204E914601024FEA3
:1004200070030205B0147003020660020670750BBB
:1004300003794E1212E6900307E4F0A3F0A3F0A3B1
:10044000F0A37402F0A3744012067AA3F0A3F0A301
:10045000740812067AA37412F0A3749912067A75BE
:100460000A12AA0AA90912068FA90B7408121DC73D
:100470007F08021CE1750B04794E1212E6EE450D61
:100480007005A908121937750C10750D00780C123B
:100490001E447C087D03EEFAEFFB1218D1740212A1
:1004A0001DC780BE750B05E508C394794005750925
:1004B0000180AF750E40750F00780E121E447C0946
:1004C0007D037402780C121E7BAA0CAB0DA90812D6
:1004D000184C7402121DC7900307E0A3F0900306A6
:1004E000E0A3F0750A43020462750C04750D0078F0
:1004F0000C121E447402121ED7AC82AD837A907B1C
:1005000000790412184C7402121DC77402121ED70F
:10051000E0F8A3E0F9851882851983E0687003A3E9
:10052000E069851882851983700BE0F47003A3E0FD
:10053000F4705F8009E0F47003A3E0F4700D851897
:10054000828519837410F0A37420F0120681121EA4
:10055000D7E8F0A3E9F0750C01780C121E44740280
:10056000121ED7AC82AD837A247B081218D1740294
:10057000121DC7750C04780C121E447402121ED78B
:10058000AC82AD837A907B00790412184C7402120D
:100590001DC7120681121ED7E0687003A3E06970C0
:1005A00006750B01020462750B02750907020462ED
:1005B0009003D5E0600764026003020462EAFF7AF8
:1005C00001790012068FE0600302065480031210C6
:1005D000FA1210F7E970F77404121ED71206757438
:1005E00004121ED77808121E9D85080C85090D85FA
:1005F0000A0E850B0F9003C0780C121E557404125E
:100600001ED7780C121E8EE5084509450A450B7069
:10061000CE8EC2E5C554E04FF5C57404121ED71244
:1006200006757404121ED77808121E9D85080C8565
:10063000090D850A0E850B0F9003C0780C121E550C
:100640007404121ED7780C121E8EE5084509450A5F
:10065000450B70CE7A01790012068F790802046B7F
:10066000EB9003D4F07003020462750B090204627C
:10067000790602046BE4F0A37426F0A3E4F0A3F07F
:1006800022851882851983E0F8A3E0F974022274A8
:10069000F6121B30EAFE900305E0D2E7F0E9A3F082
:1006A000EE900303F08E0A74042EFE7A028004E0BA
:1006B000620A0AEAF83395E01206DE8E08C3E8956E
:1006C00008E99400A2D265D03340E4E50AF0740151
:1006D0002AF97A027B031210B17F03021CE1F9743C
:1006E0000228F582740339F5832274E9121B3075F0
:1006F00082007583FE121D8E8A168B177514007585
:1007000015008A828B83E4F09003D5E07006D2AAAC
:10071000D2AF800464027005790012014A750C00A2
:10072000750D20750E00750F009003D5E060046410
:100730000270151210FA12016FE9F874096860036B
:1007400002082D790012014AE064027007A292406B
:10075000030208077508007509027808121E447420
:1007600002121ED7AC82AD83850C08850D09AA083C
:10077000E5095407FB850E0A850F0B740B780812E8
:100780001DFBA90812184C7402121DC77E007F00C1
:100790009003C8C0828E10EFF5113395E0F512F585
:1007A00013850C08850D09850E0A850F0B780879CD
:1007B00010121E689003C47808121E55758303D06A
:1007C000827808121D6F501D851882851983E58275
:1007D0002EF582E5833FF583E0F9AA14AB151208E4
:1007E0004E8A148B15EE24010EEF3400FFC39402E1
:1007F000409E9003CC780C121E559003D0780C12BA
:100800001D6F40030207297900AA14AB1512084E88
:10081000790012084E9003D5E07004C2AFC2AA75E9
:100820008200758302121D8E7F10021CE1E87003A6
:10083000020748740668700302074874076870036B
:100840000207488516828517837401F080B9C008B5
:10085000C0097C088A088B09740F7808121EBBEA4D
:10086000C333FAEB33FBE9A2E7500474014AFAE51B
:1008700008A2E0500874216AFA74106BFBE9C333D4
:10088000F91CEC70CFD009D0082274F7121B30127B
:100890000EB26003020968A3E0F8A3E06003020956
:1008A00068A3E064027002A3E06003020968900399
:1008B000B6E02480600914604F14605C020968E8A7
:1008C00060030209689003B0E06004780180027858
:1008D000009003BEE8F0A3E4F09003AFE0600A905C
:1008E00003BEE04402F0A3E4F09003A4E0640460DB
:1008F000149003B174BEF0A37403F0A3E4F0A374E6
:1009000002120F14F0020F9490039DE064047058DB
:100910009003BEE4F0A380D0E8547FF50890039DD7
:10092000E064047043E508C39406503C749D2508B8
:10093000F58274033400F583E854806018A3A3A300
:10094000A3A3A3A3E064037004780180027800905D
:1009500003BEE88090E582240CF582E5833400F53F
:1009600083E0640370E780E19003A47404809574CD
:10097000F7121B30E9FE9003BC120EB56003020AA9
:100980005590039DE06404600B9003BA120EB560AD
:1009900003020A559003B6E0541F60091460301436
:1009A0006020020A559003B8E064017022EE9003C3
:1009B000AFF060047905800279067A00121B2E02DE
:1009C0000A5B9003BAE0547FFA9003B8E0600579BF
:1009D00000020A5DEAC39406507BEA90620EF08A38
:1009E00008749D2508F874033400F99003BAE054A4
:1009F00080602CEE6004741080027440906211F0EC
:100A0000EE600474038001E488828983A3A3A3A316
:100A1000A3A3A3F0EE6004790880317907802DEE5E
:100A20006004742080027480906214F0EE6004749C
:100A3000038001E4C0E0E8240CF582E93400F5838A
:100A4000D0E0F0EE6004790A80027909121B2E9042
:100A5000620EE480059003A47404F07901020F94FF
:100A6000790012096FE97003121B1D227901120926
:100A70006FE97003121B2C22C082C0839003BA124C
:100A80000EB57015A3120EB5700F9003B8120C5668
:100A90005480FAE9FBEA4B60079003A47404801ABF
:100AA000E8906200F090039D6009E06402700C74AD
:100AB000038007E0640370037402F0D083D08222C5
:100AC00074F3121B309003B8E0FAA3E0146008142A
:100AD000601014603B8059121699120C33A37B806E
:100AE000804379001216BB120C337B80E92402F993
:100AF000EA3400FA121DE1FC1919E0FAA3E9240313
:100B0000F9EA3400FA121DE1F9ECA3F0A3E9801C24
:100B1000EAF91217299003B1EAF0A3EBF0A3E4126B
:100B20000C42A37B00121DE1A3F0A3E4F0020BED45
:100B30009003B1E4F0A3F0A3F0F50B900474E0FA95
:100B4000A3E0FB020BC875090074037808121E7B32
:100B5000EA2508F8EB3509F99003B8120C4CE49338
:100B6000C0E0EFFCD0E06C705DA3E4936E70579032
:100B700003BA120C4CA3A3E493C0E0EFFCD0E06CEA
:100B8000704488828983A3A3A3E4936E703888821B
:100B90008983A3A3A3A3E493F508740193F50990B3
:100BA00003B1E508F0A3E509F0A37480F088828919
:100BB00083A3A3A3A3A3A3E493F8740193F99003DD
:100BC000B4E8F0A3E9F0050B850B08900476120C4D
:100BD00056C39AF50CE99BF50D7403780C121EBBF5
:100BE000C3E508950CE4950D5003020B469003B144
:100BF000E0FCA3E0FDA3E0FEEC4D4E9003A47004E6
:100C000074048029E0640460259003BCE0FAA3E04A
:100C1000FB9003B4E0F8A3E0F9C3EA98EB9950081D
:100C20009003B4EAF0A3EBF09003A47401F07F0604
:100C3000021CE19003B1EAF0A3EBF0A37480120C64
:100C40004222F09003B1E0F9A3E0FA22E0FEA3E033
:100C5000FF8882898322E0F8A3E0F9E82274EE128B
:100C60001B30EA2404F8EB3400F9880889098882EB
:100C7000F583E4936025900478120C56FEE9800712
:100C8000EE2404FEEF3400FF8E828F83E493F87429
:100C90000193F9EA687002EB6970E5750C00804019
:100CA0009062147490F07410120DB37003750D40BF
:100CB0008E828F83A3A3A3E49355106006E50DD223
:100CC000E0F50DE50D906215F0EA906213F0EC246A
:100CD0000CF582ED3400F583E4F090620EF0050C23
:100CE000850882850983E493F8E50CC398400302E4
:100CF0000DAE7A00790512162C8A0E8B0FEA450F7D
:100D000060DCEA2402F8EB3400F9880A890B888257
:100D1000F583E493540FF51290620EF0750D008A7E
:100D2000828B83A3A3A3A3E4932407F510A3E493E6
:100D30003400F51174037810121EBBAA108512102E
:100D4000749D2510F874033400F9E8FCE9FD751072
:100D500001751100E5127810121E7BE50E2403F8D0
:100D6000EB3400F9850A82850B83E493A2E7400304
:100D7000020CA09062117448F07408120DB3700355
:100D8000750D408E828F83A3A3E49355106006E512
:100D90000DD2E0F50DE50D906212F0EA906210F0D0
:100DA0008C828D83A3A3A3A3A3A3A3020CD87F0B40
:100DB000021CE1F088828983E4935403640122C019
:100DC00082C083120EB27010A3120EB5700AA3E097
:100DD00064017002A3E060079003A47404800C9087
:100DE00003B1749EF0A37403120F0AF0020ABB74DD
:100DF000F4121B3090039DE0640260149003BA1259
:100E00000EB5700CA3120EB570069003B9E0600920
:100E10009003A47404F0020EAD7A007901121B2E27
:100E20009003B8E060727A00F91216BB8A088B0949
:100E3000EA4509605B90039D7404F09003B8E0906C
:100E4000039EF0750C00850882850983A3A3A3A3E4
:100E5000E493F8E50CC398504D850C0A749F250A5D
:100E6000F874033400F9E8FEE9FF8E828F83E4F022
:100E70007A00790412162C8A828B83A3A3A3E493AD
:100E8000F88E828F83E06870E7120C5D050C80B6E7
:100E90009003A47404F0800E90039EF090039D7460
:100EA00003F0F912158A7A007902121B2E7F0502CF
:100EB0001CE19003B8E0F8A3E0F9E8492274F612C7
:100EC0001B3090039DE0640470199003B6E06481C8
:100ED0007011120EB2700C9003BCE064017002A39A
:100EE000E060079003A47404801A9003BAE0249F82
:100EF000F508A3E03403F5099003B1E508F0A3E594
:100F000009120F0AF07F03021CE1F0A3E4F0A3042E
:100F1000120F1422F0A3E4F09003A4042274F71239
:100F20001B3090039DE0640470649003B6E064019C
:100F3000705C9003BC120EB570549003B8E0FB9047
:100F400003BAE0FA90039EE0F91216F38A088B09BF
:100F5000AE08AF09EE4F60369003BAE0FA7903129B
:100F60001B2E9003B8E0C0E09003BAE0249FF8A3E2
:100F7000E03403F988828983D0E0F0EEFAEFFB12C7
:100F80000C5D9003BAE0FA7904121B2E80069003E0
:100F9000A47404F07F02021CE1C082C083800312AB
:100FA0001993A2E840F9A823E8540460097823E6DD
:100FB00054FBF6121336A823E8541060097823E690
:100FC00054EFF6121354A823E8A2E05005782354F6
:100FD000FCF690620EE0FA7404F0906214E0A2E075
:100FE0005042E5A8F8C2AF906216E0F9A3E0E9FB31
:100FF000E8A2E792AF801F906228E0C0E0900391E2
:10100000E0F8747C28F58274053400F583D0E0F0B4
:10101000900391E004F0EBFC74FF2C1B0470D8905B
:101020006214E4F0EA90620EF0E0FD7404F0906265
:1010300011E0A2E04031900393E0F8900392E06861
:1010400060257A409003921210E9E0906228F090B7
:101050000392E004F008900393E06860041AEA70D9
:10106000E39062117401F0ED90620EF0D083D082B3
:101070002274F8121B30E9FE7900801F900390E083
:10108000FC747C2CF58274053400F583E08A828B35
:1010900083F0900390E0041210DE09900390E0F8D2
:1010A000900391E0686005E9C39E40D07F01021C77
:1010B000E1C082C083E9FC80188A828B83E0C0E0B3
:1010C0009003931210E9D0E01210DE900393E00435
:1010D000F0ECF874FF281C0470DF7901808EF08A30
:1010E000828B83A3AA82AB8322E0F8747C28F582EA
:1010F00074043400F58322790022020F9974FB12E4
:101100001E2A794A1212E6E59D54186410700302F3
:101110002000121262C280D291851882851983AA9A
:1011200082AB83120281E97003021215C291E0C3FF
:10113000943C500EE0F8743CC398F50895E0F5092E
:101140008006750800750900E4F50AF50B9003D6D2
:10115000780C121E9D7808790C121A347906120147
:101160004A120F9912016FE9F8740968700779063D
:1011700012014A80277407686016A2935012E86033
:10118000087406686003021215A292400F0212153D
:10119000750800750900750A00750B0085080C8537
:1011A000090D850A0E850B0F9003C07808121E5595
:1011B000E50C450D450E450F70A7D2807907120149
:1011C0004A7E007F007401121ED7E4F0A37426F05B
:1011D000A3E4F0A3F07401121ED77808121E9D85B7
:1011E000080C85090D850A0E850B0F9003C0780C3D
:1011F000121E557401121ED7780C121E8EE508457A
:1012000009450A450B70CEA29250FCA29350F812E9
:1012100012E1022000D280D291794E1212E67508B6
:1012200000750900750A00750B00790512014A1254
:101230000F9912016FE9F874096860EE7401687023
:10124000EE120F999003DA7808121E559003DE789B
:1012500008121D6F50EB1212E10220007405121DDE
:10126000C72274F8121B3053BEFBE59DA2E650FA6C
:101270000078F8790100E824FF18E934FFF9E8491B
:1012800070F375C6807480659E70FA43BE049062E8
:10129000707408F01212D653F4FEC29043FE01742B
:1012A00003F5D575D488900394E4F0A374C2F0A339
:1012B0007401F0A3E4F0A3F0A3F0A37408F01212F9
:1012C000FC7AFF7BFF12194E53F4FED29043FE01CD
:1012D0001212D60210ACD28043FD01C29143FE022D
:1012E00022D280C29122781075B60FE5B4A2E750E1
:1012F000FAE5BBC39940F118E870ED22C082C083C3
:101300007A0079011216BB8A828B83A3A3A3A3A3BD
:10131000A3A3E493A2E69003B0500474018001E417
:10132000F09003AFE4F090620F7403F0E0A2E75096
:10133000FBD083D08222C082C08390039D7402F0D0
:10134000A3E4F09003A4F0790312158A75210075C7
:10135000220080DD74F6121B3090620EE0FEE4F095
:10136000906211E0FFA2E4501D7480F09003A47419
:1013700007F0E52145226009852182852283121E1E
:10138000E99003A4E4F0EFA2E2500B906211E4F0C4
:101390009003A4F080629003A4E0F87402687041A6
:1013A000906216E0FF9003B1121D21EFF97A207BC5
:1013B000621215C27403121DC78F089003B4121570
:1013C0005F12156AE0F8A3E0F9E849600474408010
:1013D000027448906211F0E8496003021555021545
:1013E000317406687009852182852283121EE99076
:1013F00003A4E060030214E1EFA2E04003021555EC
:101400007508B6750903750A007808121E40790838
:101410007A207B621215C27403121DC775210075F4
:1014200022009003B6E054E0601D24E07003021433
:10143000BD24E0607224C0604824E070030214C838
:1014400024E0606E0214D3A3E014602624FE601D25
:1014500024FE600A24FC601F24FE60208075120AAE
:10146000789003A4E06404707274608070120A6C57
:1014700080EF120A6080EA120DEF80E5120F1D80E6
:10148000E0A3E0600E24FA600F24FE601024FE60EA
:1014900011804012088A80C9120AC080C4120DBF90
:1014A00080BF120EBD80BA75211975221B121B193F
:1014B00080AF75211B75221B121B1B80A47521B4E4
:1014C00075221A121AB480997521E475221A121A1B
:1014D000E4808E9003A47404F0808E7440906211B6
:1014E000F09003A4E0F8740168705C7F029003B48C
:1014F000E0F8A3E0F9C3E89420E994005007E8F588
:101500000A7F0A8003750A209003B1121D21A90ADF
:101510007A207B621215E77403121DC7850A081230
:10152000156A12155FEF906211F0E50AC39420501E
:1015300024E52145226009852182852283121EE946
:101540009003A4E4F0800E740568700985218285FB
:101550002283121EE9EE90620EF07F03021CE1C3AB
:10156000E09508F0A3E09400F0229003B1E0F9A325
:10157000E0FAA3E0FBE92508F9EA3400FA9003B1A8
:10158000E9F0A3EAF0A3EBF0A32274F7121B307882
:1015900000880874A52508F58274031215B640F179
:1015A0007800880874AA2508F58274031215B640DD
:1015B000F17F02021CE13400F583E9F008E8C394EE
:1015C000052274F6121B30EAFCEBFDE9F8740A12EE
:1015D0001ED7121617600D8C828D83E0121E141216
:1015E000160C70F302155A74F6121B30EAFCEBFD70
:1015F000E9F8740A121ED7121617600D121DE18C3D
:10160000828D83F012160C70F302155AE924010939
:10161000EA3400FA18E822E0F508A3E0F509A3E0AF
:10162000A908AA09FBE822D083D08222C082C08305
:10163000E9FCEAFD7A007B00800312167790039B99
:10164000E0F8A3E0F9900472E0687003A3E0696039
:101650002490039CE0F5838882A3E493F8EC6870FF
:101660000D90039BE0FAA3E0FB1216778007ED686C
:1016700070C8ED60C580B090039BE0F8A3E0F583EF
:101680008882E493F890039BE028F8A3E03400F903
:1016900090039BE8F0A3E9F022C082C0831216AA4F
:1016A0007A00790112162C021627900470E0F8A334
:1016B000E0F990039BE8F0A3E9F02274F7121B30E5
:1016C000E9FEEAFF1216AA7A00790212162CEA4BFA
:1016D000601CEE60108A828B83A3A3A3A3A3E49370
:1016E0006E70E48009EFF874FF281F0470D97F0240
:1016F000021CE174F5121B30EAFF8B087A00121607
:10170000BB7A02790412162CEA4B60188A828B830A
:10171000A3A3E4936F70EA8A828B83A3A3A3E493C9
:10172000650870DD7F04021CE174F7121B3074F051
:10173000121E2AE97A007B00600C146010146014F9
:101740001460180218347AEA7B030218347AEE7BAC
:10175000030218347A127B04021834900436E060D5
:10176000030218307408121ED7AC82AD8375830350
:101770007582E27408121D4E750808F50978081282
:101780001E447402121ED7AC82AD837AE87B0779BF
:101790007F12184C7402121DC77808121E44740A76
:1017A000121ED7AC82AD837402121ED7AA82AB83FD
:1017B000121C497402121DC78B09EA4509701D7578
:1017C00009007808121E447C0C7D787402121ED722
:1017D000AA82AB83121C9B7402121DC77C287D0059
:1017E0008D08851882851983E5822508F582E583B1
:1017F0003400F583E0FF8C0874362508F87404344F
:1018000000F9EF12183C88828983F0EFC412183C6B
:10181000C0E0E824FEF582E934FFF583D0E0F00D66
:1018200074FC2CFCEDC3940840B6900436742AF086
:101830007A367B047410121DC70216EE540FFA7428
:10184000602AF58274043400F583E02274F5121BDB
:10185000308908740F5508F50A750B00740B780A67
:10186000121E7BEA2400F8EB3480F9E82400E93505
:101870000BF9E5C7F509A2AFE433F50AC2AFE508F5
:10188000C4540FFAE5C754F84AF5C7740B121ED7B3
:10189000E0FAA3E0FB801C88828983E08C828D8340
:1018A000F088828983A3A882A9838C828D83A3ACCC
:1018B00082AD83EAFEEBFFEE24FF1AEF34FFFBEE6E
:1018C0004F70D48509C7E50AA2E092AF7F04021CDD
:1018D000E174F7121B30ED900388F0ECA3F0A374D1
:1018E00062F0A37473F0A3E0541FF07409121ED7C2
:1018F000E0F508A3E0F509E508333354FC90038DC7
:10190000F074067808121EBBE50890038CF0900373
:101910008E7412F0A37442F075D1FE75D601EA9070
:101920006271F0EBA3F0906270E0D2E1F0E0A2E728
:1019300040FB7F02021CE1C082C083E9C333906296
:1019400072F0906270E0D2E0F0D083D0822274F71F
:10195000121B307523007524007525008A268B27FD
:10196000EA90620BF08A088B0974047808121EBB97
:10197000E508906207F08A088B0974097808121E3E
:10198000BBE508543E906209F0758B00C2E87F0207
:10199000021CE174F7121B30E59DA2E650FA90623A
:1019A00006E0FAA2E25035A826E890620BF0F508AE
:1019B00085270974047808121EBBE508906207F0B9
:1019C00085260885270974097808121EBBE5085486
:1019D0003E906209F0906201E0D2E0F07823EA469E
:1019E000F6906202E0F50875090074047808121E8A
:1019F0007B7823E50846F608E50946F6906204E0A0
:101A0000F50875090074097808121E7B7824E50929
:101A100046F6EAA2E0500375250174065A60037584
:101A20002500E58BA2E55006758BDF752500121B9E
:101A30002F021989080808EAC0E0EBC0E086F0E749
:101A4000A4FA180986F0E7A42AFA180986F0E7A490
:101A50002AFA180986F0E7A42AFA1986F0E7A4FB07
:101A6000E5F02AFA190886F0E7A42BFBE5F03AFA2C
:101A7000190886F0E7A42BFBE5F03AFA1818098656
:101A8000F0E7A4C5F02BFBE43AFA1908E7C5F0C665
:101A9000A426F6E5F03BFBE43AFA1886F0E7A4F654
:101AA000E5F00826F6E43B08F6E43A08F6D0E0FB59
:101AB000D0E0FA22C082C0839003B7E0F8742268B5
:101AC00070089003A4E0701A80117420689003A439
:101AD000700DE0700D121B0B9003A4740280027451
:101AE00004F08043C082C0839003B7E06421900378
:101AF000A47013E07013121B0BA37407F0A3E4F09F
:101B00009003A40480027404F0801C9003B17494C8
:101B1000F0A37403F0A3E4F02280028000C082C02E
:101B2000839003A47404F0D083D0822280EF222219
:101B30002518C582C0E0E51934FFC583C0E0E5186B
:101B4000C3958224F910AF0885831985821880080F
:101B5000858319858218D2AFCEF0A3E520F0A37853
:101B600008E608F0A3DEFAEFF0A3E58124FBF8E62F
:101B700008F0A3E608F0A30808E608F0A3E608F0DA
:101B8000A315811581D0E0FED0E0F815811581E81C
:101B9000C0E0EEC0E0221201000202000020510469
:101BA000A816090001020301090243000201008096
:101BB00019090400000102020100052400100104BB
:101BC0002402020524060001052401000107058204
:101BD0000340004009040100020A000000070584D8
:101BE0000240000007050402400000B11B0000D4C1
:101BF0001B0000121EE6B90003021C43E4792178A1
:101C000007B800028004F709D8FCE490030278BF0B
:101C100079018002F0A3D8FCD9FA9003C0AA82AB64
:101C20008390008E78BD79018015E493A3AC82ADDA
:101C3000838A828B83F0A3AA82AB838C828D83D824
:101C4000E9D9E71210FD121EE174F5121B30740B76
:101C5000121ED7E0F8A3E08015A3AA82AB838C8282
:101C60008D83A3AC82AD83E824FF18E934FFF9E843
:101C700049601F8C828D83E0F5088A828B83E0F5B2
:101C80000AE508650A60D2E50AC39508FA95E0FB03
:101C900080047A007B007F04021CE174F7121B3081
:101CA000EAF8EBF97409121ED7E0FEA3E0FF8018F2
:101CB0008C828D83E088828983F0A3A882A9838C9B
:101CC000828D83A3AC82AD838E088F09E50824FF43
:101CD0001EE50934FFFFE508450970D47F02021CA8
:101CE000E1851983851882E0A3FEE0A3F52078083A
:101CF000E0A3F608DFFAE0A3FFE0A3C0E0E0A3C0A2
:101D0000E0E0A3C0E0E0A3C0E010AF088582188542
:101D100083198008858218858319D2AFD083D08239
:101D20002274038000CCC0E0EDC0E0E518C39CCC79
:101D3000AD1950011D10AF068C188D1980068C1836
:101D40008D19D2AF121D4ED0E0FDD0E0FC22CAC0EA
:101D5000E0E0A3C582CCC582C583CDC583F0A3C511
:101D600082CCC582C583CDC583DAE6D0E0CA22C065
:101D700008C3E096F50808A3E096420808A3E09699
:101D8000420808A3E09645087001D3D00822C58216
:101D90002518C582C583351910AF07F51985821836
:101DA0008007F519858218D2AFC583222518F582E0
:101DB00010AF08F518400215198008F518400215F3
:101DC00019D2AF85198322C0D0251810AF08F51895
:101DD000500205198008F51850020519D2AFD0D06D
:101DE00022BB0102E722C082C08389828A83BB00B2
:101DF00003E08002E493D083D082226016080808B2
:101E0000C6C313C618C613C618C613C618C613C64B
:101E1000D5E0EA22BB000EC082C0838A838982F0AB
:101E2000D083D08222BB0101F722251810AF08F51C
:101E300018400215198008F51840021519D2AF2272
:101E40007403800474028000C0E0F404121DACD05E
:101E5000E0121ECA22E026F608A3E036F608A3E048
:101E600036F608A3E036F622E627F60809E637F646
:101E70000809E637F60809E637F622700422600DF5
:101E800018C6C333C608C633C6D5E0F41822E6F038
:101E900008A3E6F008A3E6F008A3E6F022E0F608BF
:101EA000A3E0F608A3E0F608A3E0F62275D00075DB
:101EB000813F751802751903021BF3600C08C6C335
:101EC00013C618C613C6D5E0F422CAC0E0E6F0A3D4
:101ED00008DAFAD0E0FA222518F582E43519F583FC
:101EE0002200000080FB790122E473FFFFFFFFFF67
:101EF000FFFFFFFFFFFFFFFFFFFFFFFFFFFFFFFFF2
:101F0000FFFFFFFFFFFFFFFFFFFFFFFFFFFFFFFFE1
:101F1000FFFFFFFFFFFFFFFFFFFFFFFFFFFFFFFFD1
:101F2000FFFFFFFFFFFFFFFFFFFFFFFFFFFFFFFFC1
:101F3000FFFFFFFFFFFFFFFFFFFFFFFFFFFFFFFFB1
:101F4000FFFFFFFFFFFFFFFFFFFFFFFFFFFFFFFFA1
:101F5000FFFFFFFFFFFFFFFFFFFFFFFFFFFFFFFF91
:101F6000FFFFFFFFFFFFFFFFFFFFFFFFFFFFFFFF81
:101F7000FFFFFFFFFFFFFFFFFFFFFFFFFFFFFFFF71
:101F8000FFFFFFFFFFFFFFFFFFFFFFFFFFFFFFFF61
:101F9000FFFFFFFFFFFFFFFFFFFFFFFFFFFFFFFF51
:101FA000FFFFFFFFFFFFFFFFFFFFFFFFFFFFFFFF41
:101FB000FFFFFFFFFFFFFFFFFFFFFFFFFFFFFFFF31
:101FC000FFFFFFFFFFFFFFFFFFFFFFFFFFFFFFFF21
:101FD000FFFFFFFFFFFFFFFFFFFFFFFFFFFFFFFF11
:101FE000FFFFFFFFFFFFFFFFFFFFFFFFFFFFFFFF01
:101FF000FFFFFFFFFFFFFFFF094338861299000034
:020000040003F7
:01FFF000F020
:020000040000FA
:10200000022C3B02222FFFFFFFFFFFFFFFFFFFFF1E
:10201000FFFFFFFFFFFFFFFFFFFFFFFFFFFFFFFFD0
:10202000FFFFFFFFFFFFFFFFFFFFFF022918FFFF7A
:10203000FFFFFF022252FFFFFFFFFFFFFFFFFFFF37
:10204000FFFFFFFFFFFFFFFFFFFFFFFFFFFFFFFFA0
:10205000FFFFFF02216BFFFFFFFFFFFFFFFFFFFFFF
:10206000FFFFFFFFFFFFFFFFFFFFFFFFFFFFFFFF80
:10207000FFFFFFFFFFFFFFFFFFFFFF0227A9FFFF9B
:10208000FFFFFF0221CB01FFFFFFFFFFFFFFFFFF6D
:102090001020102001010000DF2F000000002B2F76
:1020A0004131792F93300000672F000000000000BD
:1020B0000000000000000000000096009600BF64D1
:1020C0000000000101FF010100B305000000E8036A
:1020D0002E0603E80364006400B801020200080051
:1020E000000502070401051E02051E020A0A01037B
:1020F000B80B02803E0102FEFFE8030A050001FF63
:10210000FF0A1401E0FF0020FD00E13FE13FE13F55
:10211000E13F0D3E073EE13F144D000000007C4DC5
:102120000000020000FF000000FF000F0610FEFF8D
:10213000050301FFFF00035F005F0030005800004F
:10214000000000000000000000000000000000008F
:10215000000000000000000000000000000000CAB5
:10216000251F261F261F261F262726C0E074F212D1
:10217000256BA2AFE433FED2AFE5A7FFE5A1F508DA
:102180005F54106006123CC975A1EFE5085F540862
:102190006008123CCF75A1F78024E508A2E092F018
:1021A000EFA2E082F05017906198E0F89007B4E059
:1021B000C398A2D265D0335002E8F075A1FE751A1B
:1021C00000EEA2E092AF7F01022627C0E074F21277
:1021D000256BA2AFE433FED2AF9061A4E0F8759B0B
:1021E00000E59158540860087591F7123DBF8023AF
:1021F000E59158541060087591EF123DC58014E5C3
:1022000091A2E092F0E8A2E082F05007E0C2E0F094
:102210001241259061A3E0F8E5E9585404600E12DC
:1022200040FB75E9FB906193E0A2E640F2808FC02D
:10223000E074F212256BA2AFE433FED2AF9061A539
:10224000E0F8E5BF585404600675BFFB12413D023B
:1022500021BEC0E074F112256BE59DA2E650FA9014
:102260006206E0FAA2E25035A82CE890620BF0F585
:1022700008852D0974047808122C5AE50890620725
:10228000F0852C08852D0974097808122C5AE50868
:10229000543E906209F0906201E0D2E0F07829EAC1
:1022A00046F6906202E0F508750900740478081299
:1022B0002B527829E50846F608E50946F6906204AF
:1022C000E0F50875090074097808122B52782AE5A0
:1022D0000946F6EAA2E05003752B0174065A600322
:1022E000752B00E58BA2E55006758BDF752B001270
:1022F0004893758B00C2E87F02022627C3E498F852
:10230000E499F912233D8026C3E49AFAE49BFBE9A1
:1023100020E7E912233DE498F8E499F922C3E49810
:10232000F8E499F912233DE498F8E499F9C3E49AA2
:10233000FAE49BFB22EB20E7CFE920E7E0B90010AD
:10234000BB0008E88AF084F8AAF022E4FBC8FA226D
:10235000EB70227B10C833C8C933C9335007C39A06
:10236000C3DBF280069A50012ADBEAC833F4C8C9FD
:1023700033F4C9FA2275F008E4C833C8C933C93345
:10238000C99AC99B5004C92AC93BD5F0ECFBC83394
:10239000F4C8E4C9FA22080808EAC0E0EBC0E08605
:1023A000F0E7A4FA180986F0E7A42AFA180986F0DB
:1023B000E7A42AFA180986F0E7A42AFA1986F0E7B2
:1023C000A4FBE5F02AFA190886F0E7A42BFBE5F058
:1023D0003AFA190886F0E7A42BFBE5F03AFA181848
:1023E0000986F0E7A4C5F02BFBE43AFA1908E7C523
:1023F000F0C6A426F6E5F03BFBE43AFA1886F0E7CF
:10240000A4F6E5F00826F6E43B08F6E43A08F6D030
:10241000E0FBD0E0FA22122C9DB90003022479E4FB
:102420007921780DB800028004F709D8FCE4900403
:10243000D1785E790B8002F0A3D8FCD9FA781A9093
:1024400020867A01BA00028007E493A3F608DAF93D
:10245000900F2EAA82AB8390209478D879018015B2
:10246000E493A3AC82AD838A828B83F0A3AA82AB70
:10247000838C828D83D8E9D9E77582357583BF74E3
:10248000061229DC75824B75834B74001229DCE43B
:10249000CFC0E0E4CEC0E0E4CDC0E0E4CCC0E07565
:1024A000F020C3E633F608E633F608E633F608E62E
:1024B00033F6181818EC33FCED33FDEE33FEEF3332
:1024C000FFC3EC9709ED9709EE9709EF97191919D2
:1024D000400FFFEC97FC09ED97FD09EE97FE1919E7
:1024E00006D5F0BEECF709EDF709EEF709EFF7199D
:1024F0001919D0E0FCD0E0FDD0E0FED0E0FF2225AD
:1025000018C582C0E0E51934FFC583C0E0E518C3F3
:10251000958224F810AF0885831985821880088574
:102520008319858218D2AFCEF0A3E520F0A37808F6
:10253000E608F0A3DEFAEFF0A3E58124FAF8E60856
:10254000F0A3E608F0A3E608F0A30808E608F0A365
:10255000E608F0A315811581D0E0FED0E0F81581E2
:1025600015811581E8C0E0EEC0E022C0D02518C575
:1025700082C0E0E51934FFC583C0E0E518C3958249
:1025800024F310AF08858319858218800885831984
:10259000858218D2AFC8F0A3E9F0A3EAF0A3EBF06C
:1025A000A37908E709F0A3D8FAECF0A3EDF0A3EEC5
:1025B000F0A3EFF0A3D0E0F0A3D0E0F0A3D0E0F0E0
:1025C000A3E520F0A3E5F0F0A3221201000202002F
:1025D00000205104A816090001020301090243006A
:1025E0000201008019090400000102020100052413
:1025F0000010010424020205240600010524010044
:10260000010705820340004009040100020A00009E
:10261000000705840240000007050402400000E5B1
:1026200025000008260000851983851882E0C0E097
:10263000A3E0F9A3E0FAA3E0FBA37808E0F608A37F
:10264000DFFAE0FCA3E0FDA3E0FEA3E0FFA3E0C00F
:10265000E0A3E0C0E0A3E0F5D0A3E0F520A3E0A371
:10266000F5F010AF088583198582188008858319D5
:10267000858218D2AFD082D083D0E0F8D0E0320586
:1026800075F0108E218F22858226858325851882FC
:10269000851983E0CEA3E0CF852682852583EBC90B
:1026A000EAC8EDCBECCAC3E833C8E933C9EA33CA98
:1026B000EB33CBC3EA9EF524EB9FF523B35004AB79
:1026C00023AA24EC33CCED33CDD5F0DAAE21AF2202
:1026D00022D083D082ECC0E0EDC0E0E493A3FCE420
:1026E00093A3FDED4C600D1227ECEC24FFFCED34C0
:1026F000FFFD80EFE493A3FCE493A3FDED4C600D9C
:102700001228C3EC24FFFCED34FFFD80EFD0E0FD88
:10271000D0E0FCE493A3C0E0E493C0E022D083D0F7
:1027200082E9C0E0E493A3C386F0C5F095F0F90810
:10273000E493A386F0C5F095F0700BE493A3C399DE
:102740004005E9048002A3E475F002A42582F58225
:10275000E5F03583F583D0E0F9E493A3C0E0E4939A
:10276000C0E022851983851882E0A3FEE0A3F5204E
:102770007808E0A3F608DFFAE0A3FFE0A3C0E0E0FA
:10278000A3C0E0E0A3C0E0E0A3C0E0E0A3C0E0108D
:10279000AF0885821885831980088582188583197A
:1027A000D2AFD083D0820229E2C0E074F212256B4E
:1027B000A2AFE433FED2AFE58AA2E2500790070051
:1027C000E0D2E0F0E58AA2E35007900700E0D2E112
:1027D000F0758A00C2EB7A107B009006FCE0F912DB
:1027E00033DBEEA2E092AF7F01022627C0E0C3E414
:1027F0009396087401939618400FE4936670080846
:10280000740193661870007019A3A3C3E49396082B
:102810007401939618A3A3400DD0E0D0E0D0E0025D
:10282000270DA3A3A3A3A3A3D0E022D083D082C566
:10283000F0E493A3C5F0C395F0F5F0E493A3C3953A
:10284000F04005E5F0048001E475F002A42582F56E
:1028500082E5F03583F583E493A3C0E0E493C0E020
:1028600022740480087403800474028000CCC0E0E9
:10287000EDC0E0E518C39CCCAD1950011D10AF06AA
:102880008C188D1980068C188D19D2AF12295ED044
:10289000E0FDD0E0FC2274028000CCC0E0EDC0E09E
:1028A000E518C39CCCAD1950011D10AF068C188DD6
:1028B0001980068C188D19D2AF12293CD0E0FDD0BA
:1028C000E0FC22C0E0C0F088F0E493667008087471
:1028D000019366187000A8F0A3A3700BD0F0D0E0AD
:1028E000D0E0D0E002270DA3A3D0F0D0E022D08327
:1028F000D082CCC0E0E493A3600612299E1470FA43
:10290000E493A36006122AAB1470FAD0E0FCE493BF
:10291000A3C0E0E493C0E022C0E0C0D0E8C0E0E99A
:10292000C0E0E5A8D2AFC2C7751A00A2E7A2E7923D
:10293000AFD0E0F9D0E0F8D0D0D0E032CAC0E0E4C7
:1029400093A3C582CCC582C583CDC583F0A3C582C0
:10295000CCC582C583CDC583DAE5D0E0CA22CAC022
:10296000E0E0A3C582CCC582C583CDC583F0A3C5F5
:1029700082CCC582C583CDC583DAE6D0E0CA22C049
:1029800008C3E096F50808A3E096420808A3E0967D
:10299000420808A3E09645087001D3D00822C0E0A1
:1029A000E493A3D39C5010E493A3C39C400AD0E0CB
:1029B000D0E0D0E002290BA3A3A3D0E02270090845
:1029C0000808226016181818C6C333C608C633C6CE
:1029D00008C633C608C633C6D5E0EA22C09FF59FB5
:1029E000E473D09F22D083D082C09FE493C0E07470
:1029F0000193C0E0740293F59F222518F58210AF71
:102A000008F518400215198008F51840021519D26A
:102A1000AF851983227404800A74038006740280CF
:102A2000027401C0E0F4041229FAD0E0122C7822DA
:102A3000C0D0251810AF08F518500205198008F508
:102A40001850020519D2AFD0D022BB0102E722C034
:102A500082C08389828A83BB0003E08002E493D032
:102A600083D082226016080808C6C313C618C6138E
:102A7000C618C613C618C613C6D5E0EA22C3E0C6F8
:102A800096F608A3E0C696F608A3E0C696F608A355
:102A9000E0C696F622BB000EC082C0838A8389827C
:102AA000F0D083D08222BB0101F722C0E0E493A3DF
:102AB0006C7009D0E0D0E0D0E002290BA3A3D0E0F5
:102AC00022251810AF08F518400215198008F518CE
:102AD00040021519D2AF22E76670100809E7667048
:102AE0000A0809E76670040809E76622C3E0960849
:102AF000A3E09608A3E09608A3E096A2D265D0339F
:102B000022E066701008A3E066700A08A3E0667011
:102B10000408A3E06622C3E697F60809E697F608DC
:102B200009E697F60809E697F622C3E49396087437
:102B30000193960874029396087403939622C3E057
:102B400096F008A3E096F008A3E096F008A3E096BC
:102B5000F022700422600D18C6C333C608C633C6FF
:102B6000D5E0F41822E026F608A3E036F608A3E044
:102B700036F608A3E036F622E026F008A3E036F0A9
:102B800008A3E036F008A3E036F022E647F608098D
:102B9000E647F60809E647F60809E647F622E6574B
:102BA000F60809E657F60809E657F60809E657F663
:102BB00022E056F008A3E056F008A3E056F008A380
:102BC000E056F022E627F60809E637F60809E63768
:102BD000F60809E637F622E056F608A3E056F608AE
:102BE000A3E056F608A3E056F622E4C396F608E4FE
:102BF00096F608E496F608E496F622C6F4C608C6E9
:102C0000F4C608C6F4C608C6F4C622600D08C6A2FB
:102C1000E713C618C613C6D5E0F322C3E796080922
:102C2000E7960809E7960809E79622C3E09608A305
:102C3000E09608A3E09608A3E0962275D00075817F
:102C4000407518D175190400022416E0F608A3E0B7
:102C5000F608A3E0F608A3E0F622600C08C6C3134A
:102C6000C618C613C6D5E0F422E6F008A3E6F008BD
:102C7000A3E6F008A3E6F022CAC0E0E6F0A308DA73
:102C8000FAD0E0FA22E0FAA3E0FBA3E0FCA3E0FD27
:102C900022EAF0A3EBF0A3ECF0A3EDF022E5C75499
:102CA000F84401F5C77901222518F582E43519F5B4
:102CB0008322C2AF75D69F020000221229E56C93D1
:102CC000031229E5E493031229E58995031229E506
:102CD0000596031229E53496031229E57A96031224
:102CE00029E5B296031229E58397031229E5A297F5
:102CF000031229E5CD97031229E50998031229E566
:102D00006E98031229E5159A031229E57C9A03129D
:102D100029E5A79A031229E5FF9C031229E5E79DFF
:102D2000031229E57F9E031229E5669F031229E518
:102D300011A0031229E525A0031229E539A00312E9
:102D400029E54DA0031229E50080061229E53E8001
:102D5000061229E56E80061229E51782061229E57A
:102D6000E582061229E59183061229E5FE83061203
:102D700029E57184061229E5B7A4051229E5C9A43D
:102D8000051229E51BA5051229E58EA5051229E5E1
:102D900020A6051229E5DAA6051229E535A70512B0
:102DA00029E561A7051229E5A3A7051229E50CA8C5
:102DB000051229E56FA8051229E58CA8051229E559
:102DC000B2A8051229E5D0A8051229E516A9051211
:102DD00029E569A9051229E592A9051229E5E0A9C5
:102DE000051229E5B3AA051229E562AB051229E50A
:102DF000F7AB051229E5EAAC051229E5A1D00412CA
:102E000029E5BDD0041229E5EFD0041229E5B9D295
:102E1000041229E57ED3041229E5A3D3041229E57F
:102E2000D0D3041229E5F4D3041229E503D4041203
:102E300029E50ED4041229E5C7D4041229E533D5B7
:102E4000041229E5B8D5041229E5CAD5041229E5EA
:102E50004FD6041229E5AAD6041229E5F6D60412A3
:102E600029E583D9041229E57EDA041229E5C8DAB6
:102E7000041229E59BDB041229E570DC041229E524
:102E8000C0DC041229E596E9041229E512EA0412CD
:102E900029E538EA041229E570EA041229E5CAEBAB
:102EA000041229E5E6EB041229E52BEC041229E5CE
:102EB000BAEC041229E513ED041229E5F3ED04122E
:102EC00029E5C3EE041229E50AEF041229E56BEFA8
:102ED000041229E5FBEF041229E551F0041229E55B
:102EE0009AF0041229E539F1041229E537F20412A7
:102EF00029E57BF2041229E5C9F2041229E5EBF277
:102F0000041229E592F3041229E53FF4041229E59D
:102F10003D9F061229E5A29F061229E54EA0061242
:102F200029E587A0061229E5428E041229E5EB8ED9
:102F3000041229E50690041229E58990041229E576
:102F4000C190041229E58E93041229E541950412DB
:102F500029E5FC95041229E56996041229E5899969
:102F6000041229E51F9B041229E59EC5061229E5D6
:102F7000C6C5061229E5BAC6061229E5DEDE051227
:102F800029E563DF051229E57ADF051229E5EFDF80
:102F9000051229E54DE0051229E576E0051229E53F
:102FA000F3E0051229E596E1051229E5FBE105129A
:102FB00029E55FE2051229E580E2051229E5B1E283
:102FC000051229E5CFE2051229E5F6E2051229E509
:102FD00026E3051229E56CE3051229E5D2E3051283
:102FE00029E54EAA041229E5FAAA041229E527AB1D
:102FF000041229E547AB041229E54EAC041229E579
:10300000AAAC041229E5DAAC041229E516AE0412C2
:1030100029E5BFAE041229E5A5AF041229E5F6AFF4
:10302000041229E534B0041229E594B0041229E50C
:1030300004B1041229E525B1041229E596B1041260
:1030400029E5CBB1041229E53BB2041229E5D2B33C
:10305000041229E5A8B4041229E5E6B4041229E50E
:1030600040B5041229E56AB5041229E53AB60412FE
:1030700029E54DB6041229E569B6041229E50DB714
:10308000041229E5D8BA061229E5E2BA061229E5A2
:1030900003BB061229E5EDEB011229E5B1EE0112A1
:1030A00029E5E7EF011229E5CEF1011229E552F2F7
:1030B000011229E500F3011229E529F3011229E59E
:1030C00062F3011229E530F4011229E5A7F4011297
:1030D00029E51AF5011229E59AF5011229E59DF570
:1030E000011229E5A0F5011229E5A3F5011229E550
:1030F000C1F5011229E5C4F5011229E5DDF501123A
:1031000029E539F6011229E53CF7011229E58EF887
:10311000011229E5DBF8011229E553F9011229E52D
:1031200002FB011229E54FFB011229E5CAFB01123E
:1031300029E5E6FC011229E5C8FD011229E54EA9A1
:10314000021229E586A9021229E54AAE021229E5F2
:1031500044AF021229E5C0AF021229E5E4AF021222
:1031600029E504B0021229E54EB0021229E586B025
:10317000021229E5C8B1021229E5E9B1021229E5D6
:1031800018B2021229E552B2021229E5DEB2021289
:1031900029E501B3021229E559B3021229E5BEB4AB
:1031A000021229E540B5021229E536B6021229E5D8
:1031B00084B6021229E597B6021229E5E1B7021298
:1031C00029E58AB8021229E5BCB8021229E510B92E
:1031D000021229E57CB9021229E5DBB9021229E5C0
:1031E0003ABA021229E5B5BA021229E5C5BB0212A4
:1031F00029E5E0BC021229E5A8BD021229E5DDBDE2
:10320000021229E541BE021229E5F2BE021229E5A9
:1032100020BF021229E5ABC0021229E539C1021212
:1032200029E56CC1021229E5A8C1021229E5C1C134
:10323000021229E577C2021229E556C3021229E5D6
:103240000AC4021229E59FC4021229E552C50212DE
:1032500029E5BCC5021229E542C6021229E5CFC6FE
:10326000021229E5EDC6021229E5B8C7021229E5C6
:103270007EC8021229E53AC9021229E5E1C9021203
:1032800029E5FCC3041229E520C4041229E530C451
:10329000041229E5ABC4041229E554C5041229E53A
:1032A000ADC5041229E597C6041229E5C2C6041269
:1032B00029E5DDC7041229E5FBC7041229E50EC87C
:1032C000041229E581C8041229E590C8041229E5F1
:1032D0001AC9041229E562C9041229E56CC904124D
:1032E00029E576C9041229E59FCB041229E50FCD03
:1032F000041229E526CD041229E565CE041229E53C
:10330000D7CE041229E51ED0041229E55DD004129F
:1033100029E58BF4051229E5C2F5051229E54BF8DC
:10332000051229E555F8051229E55FF8051229E58A
:1033300069F8051229E572F8051229E57CF80512ED
:1033400029E598F8051229E5A1F8051229E5AFF855
:10335000051229E5BCF8051229E5C6F8051229E58C
:10336000EDF8051229E5F7F8051229E567F90512C8
:1033700029E571F9051229E5A0CB051229E5ECCB69
:10338000051229E55ACC051229E57BCC051229E561
:1033900092CC051229E542CD051229E54BCD051247
:1033A00029E59ECD051229E5C7CD051229E5DCCD1D
:1033B000051229E545CE051229E5D6CE051229E5E7
:1033C00012CF051229E55ECF051229E5C5CF0512FA
:1033D00029E5FECF051229E584D0051229E5C3D0E1
:1033E000051229E504D1051229E53BD1051229E58D
:1033F0004DD1051229E55FD1051229E592D10512BB
:1034000029E5D2D1051229E5FBD1051229E5EFFA0C
:10341000021229E532FC021229E558FC021229E5C4
:1034200069FC021229E582FE021229E5A1FE0212C0
:1034300029E5C1FD031229E5F7FD031229E542FE46
:10344000031229E590FF031229E5E1D9031229E5CA
:103450002CDB031229E568DB031229E51FDD0312CB
:1034600029E548DD031229E5E0DF031229E520E024
:10347000031229E5C1E1031229E55BE2031229E504
:10348000C3E2031229E550E3031229E588E303129E
:1034900029E5C8E3031229E55BE5031229E5FAE60D
:1034A000031229E549E9031229E577E9031229E521
:1034B000A3E9031229E5ACE9031229E507EA03129F
:1034C00029E59DEA031229E5C6ED031229E54BEE35
:1034D000031229E5A8D0061229E5BED0061229E577
:1034E000C8D0061229E518D1061229E5248E061245
:1034F00029E53D8E061229E5E28E061229E5228F86
:10350000061229E53B8F061229E5748F061229E57C
:10351000C18F061229E5F38F061229E535900612B0
:1035200029E53892061229E5A292061229E523C858
:10353000061229E57DC8061229E5D6C8061229E536
:103540000AD0061229E54CD0061229E58ED00612C3
:1035500029E59ED0061229E561A0031229E5BCA049
:10356000031229E56EA1031229E584A2031229E5BD
:1035700070A3031229E548A4031229E55DA40312F0
:1035800029E5A7A4031229E5FDA4031229E569A5ED
:10359000031229E57CA5031229E5D4A5031229E528
:1035A0004DA6031229E565A6031229E503A9031216
:1035B00029E518AA031229E573AA031229E5C7AA67
:1035C000031229E5E3AC031229E543AD031229E513
:1035D000C4AD031229E5ABAE031229E5EBAE03122D
:1035E00029E50AAF031229E555AF031229E56BAFB0
:1035F000031229E582AF031229E5B1AF031229E5D1
:10360000C3AF031229E5BDB0031229E5C8B0031208
:1036100029E54AB1031229E5A2B1031229E5FFB158
:10362000031229E52FB3031229E560B3031229E53C
:10363000DDB5031229E50EB6031229E5ABB6031278
:1036400029E5E7B6031229E563B7031229E529B88E
:10365000031229E565B8031229E5D1B8031229E55B
:10366000B0B9031229E5E9B9031229E5F3B9031248
:1036700029E5F6B9031229E500BA031229E51CBAB7
:10368000031229E59ABA031229E5D3BA031229E5F0
:10369000EFBA031229E51BBB031229E556BB03123F
:1036A00029E571BB031229E57CBB031229E5BDBBEB
:1036B000031229E5D0BB031229E5EBBB031229E570
:1036C0001BBC031229E538BC031229E581BC031297
:1036D00029E5C9BC031229E5CCBD031229E562CB5B
:1036E000061229E573CB061229E5FCCB061229E563
:1036F00067B5051229E5B6B5051229E573B70512B8
:1037000029E551B9051229E595B9051229E58ABAC5
:10371000051229E5BBBB051229E5DDBB051229E52C
:1037200039BC051229E5BDBC051229E5008002124D
:1037300029E52280021229E57281021229E5BB8166
:10374000021229E51182021229E58D82021229E571
:10375000F682021229E53D83021229E5B6830212A0
:1037600029E56184021229E5E984021229E52A8506
:10377000021229E58A89021229E5AE8B021229E597
:10378000E78B021229E5268C021229E54D8D0212E3
:1037900029E55990021229E50591021229E5BE9208
:1037A000021229E50894021229E50C95021229E576
:1037B0007F95021229E54F96021229E5D89602124A
:1037C00029E5E896021229E59C97021229E5CA9894
:1037D000021229E5349B021229E5F49D021229E523
:1037E000D19E021229E5FF9F021229E565A302126C
:1037F00029E575A3021229E5B0A4021229E544A522
:10380000021229E573A6021229E5EBA6021229E5A8
:1038100022A8021229E59DA8021229E51EBF031263
:1038200029E5DBBF031229E558C0031229E567C06B
:10383000031229E5F0C0031229E547C1031229E567
:1038400052C2031229E57BC2031229E523C30312E6
:1038500029E576C3031229E5E1C3031229E540C433
:10386000031229E545C7031229E5F5C7031229E527
:1038700064C8031229E5FEC9031229E5B6CA03127A
:1038800029E553CB031229E5B4CB031229E52ECC4D
:10389000031229E535CD031229E51FCE031229E5D0
:1038A00065CE031229E59ECE031229E5B2CE03129E
:1038B00029E5FBCE031229E57FCF031229E5F5D0D8
:1038C000031229E5C9D2031229E500D4031229E520
:1038D0003FD5031229E554D6031229E501D7031277
:1038E00029E572D7031229E56CD8031229E5A6CA87
:1038F000021229E515CB021229E563CB021229E554
:10390000ADCB021229E507CC021229E55FCC0212E9
:1039100029E5A0CC021229E555CD021229E5AACD50
:10392000021229E533CF021229E5A7CF021229E5B9
:10393000AAD0021229E5CAD1021229E5F6D1021253
:1039400029E5FCD2021229E50DD3021229E523D381
:10395000021229E50FD4021229E532D4021229E518
:1039600000D5021229E528D5021229E53FD5021219
:1039700029E559D5021229E594D5021229E5C0D5C9
:10398000021229E5E6D5021229E5FDD5021229E544
:10399000E6D6021229E548D7021229E5D7D8021245
:1039A00029E55CD9021229E580D9021229E597D9C7
:1039B000021229E574DA021229E508DB021229E570
:1039C0002EDB021229E587DC021229E5B6DC0212A1
:1039D00029E54EDD021229E58ADD021229E5C7DD5F
:1039E000021229E575DE021229E5DFDE021229E561
:1039F000C3DF021229E5AEE1021229E588E20212D4
:103A000029E5EAE2021229E50FE4021229E52FE591
:103A1000021229E558E6021229E566E6021229E5B6
:103A200076E7021229E51EE8021229E571E8021282
:103A300029E586E8021229E58EE9021229E53AEA2B
:103A4000021229E59FEA021229E550AD061229E586
:103A50008BAD061229E554AE061229E5BAAE061260
:103A600029E52BAF061229E5BFAF061229E5B1BF44
:103A7000061229E50080041229E52E80041229E5AA
:103A80008780041229E5DF80041229E5638104128E
:103A900029E5C983041229E56C85041229E53D86D0
:103AA000041229E5A587041229E5708A041229E584
:103AB000A78D041229E5B68D041229E57CF90512BB
:103AC00029E535FA051229E57FFA051229E5D2FA2A
:103AD000051229E521FB051229E58CFB051229E5D4
:103AE000FCFB051229E518FC051229E54CFC051222
:103AF00029E594FC051229E594FD051229E51BEA48
:103B0000051229E583EC051229E508EE051229E5E1
:103B1000BBEE051229E53ECD061229E54FCD061272
:103B200029E5EFCD061229E54BC4061229E583C429
:103B3000061229E5A4C4061229E5E6C4061229E501
:103B40004AC5061229E56E8C031229E564C50612E2
:103B500029E555FE051229E563FE051229E58CF4D9
:103B6000041229E554F8041229E511FA041229E592
:103B700036FC041229E5F5FC041229E5C2FD041205
:103B800029E5E27F001229E555CC061229E565CC2E
:103B9000061229E57DCC061229E531CD061229E56C
:103BA0005ECA061229E5E3CA061229E549CB0612C8
:103BB00029E58092031229E5C0CE061229E5F9CE47
:103BC000061229E54CCF061229E55ECF061229E53B
:103BD00061CF061229E52C9B061229E53A9B0612B5
:103BE00029E5B49B061229E5989C061229E55C9EFE
:103BF000061229E5C19E061229E5249F061229E531
:103C0000F87F001229E525BD061229E55DBD0612E3
:103C100029E5AEBE061229E532BF061229E555B0E8
:103C2000061229E5F6B0061229E534B1061229E597
:103C300080B1061229E544B2061229E577B20612D0
:103C400029E59EB2061229E5B0B2061229E5C4B2F2
:103C5000061229E5C7B2061229E5D5B2061229E5F2
:103C6000ADD8051229E5D5D8051229E5F2DB0512F4
:103C700029E547DC051229E589DC051229E59DDCEB
:103C8000051229E5B6DC051229E5CEDD051229E588
:103C9000AADE051229E5C4DE051229E5D6C2061200
:103CA00029E5FAC2061229E513C3061229E552C313
:103CB000061229E585C3061229E5B5C3061229E5D2
:103CC000BFC3061229E527C4061229E52AC4061235
:103CD00029E534C4061229E541C4061229E554EB4E
:103CE000021229E599EB021229E555EC021229E5A9
:103CF0007CED021229E5ABEE021229E575F0021205
:103D000029E5EBF0021229E5AFF1021229E5D0F224
:103D1000021229E53BF3021229E57DF3021229E59F
:103D2000F6F3021229E52FF4021229E584F40212B7
:103D300029E51AF5021229E5ACF5021229E593F6F8
:103D4000021229E588F7021229E53CF8021229E55A
:103D500064F8021229E590F8021229E5B3F802127C
:103D600029E56DF9021229E563FA021229E57CFAC8
:103D7000021229E5CBFA021229E5D7FA021229E547
:103D8000E3FA021229E517B3061229E53FB306123A
:103D900029E580B3061229E59EB3061229E5B9B3D9
:103DA000061229E521B4061229E52DB4061229E5EB
:103DB0008CB4061229E5B0B4061229E571B50612D5
:103DC00029E57EB5061229E58FB5061229E5878912
:103DD000051229E5EB89051229E54E8A051229E528
:103DE000988A051229E5B38A051229E5E58A0512A4
:103DF00029E5028B051229E50E8B051229E5328D86
:103E0000051229E54F8D051229E5DB8D051229E5FF
:103E1000EE8D051229E5018E051229E5B38E0512F6
:103E200029E51F90051229E55091051229E5EF912A
:103E3000051229E5F991051229E56A92051229E58D
:103E40007B92051229E5BB92051229E548C40512AB
:103E500029E573C4051229E5D7C4051229E506C56D
:103E6000051229E53DC5051229E59BC5051229E581
:103E7000FAC6051229E559C7051229E59DC705129D
:103E800029E53DC8051229E565C8051229E59AC846
:103E9000051229E5A8C8051229E513C9051229E567
:103EA00084C9051229E5C3C9051229E5FEC9051211
:103EB00029E529CA051229E543CA051229E55DCA83
:103EC000051229E53BCB051229E54CCB051229E566
:103ED00086CB051229E595CB051229E5C4D2061239
:103EE00029E5DCD2061229E586E4051229E5D9E4A4
:103EF000051229E5F6E4051229E51AE6051229E579
:103F00002CE6051229E542E6051229E55BE60512D5
:103F100029E5FDE6051229E589E7051229E541E8CD
:103F2000051229E54DE8051229E59CE9051229E568
:103F3000BEE9051229E5A8EF051229E515F10512DC
:103F400029E51BF1051229E532F1051229E553F1A6
:103F5000051229E569F1051229E57DF1051229E52A
:103F6000FCF1051229E561F2051229E5E9F20512D5
:103F700029E562F3051229E53BF4051229E54BF426
:103F8000051229E55AF4051229E571CF061229E533
:103F900095CF061229E5BDCF061229E5E5CF061219
:103FA00029E55F9C041229E5919C041229E5AB9C4C
:103FB000041229E50D9D041229E5A69D041229E5A8
:103FC000F19D041229E546A0041229E501A104127D
:103FD00029E52AA2041229E5D6A2041229E52AA578
:103FE000041229E54CA5041229E54FA5041229E580
:103FF00057A5041229E574A5041229E57CA504122D
:1040000029E5B5A5041229E5CCA6041229E549A79E
:10401000041229E5C7A7041229E563A8041229E5BB
:104020003AA9041229E56AA9041229E50DAA041285
:1040300029E519AA041229E544AA041229E569B858
:10404000061229E590B8061229E5B1B8061229E54D
:1040500018B9061229E523D2061229E533D2061231
:1040600029E536D2061229E565D2061229E5107D2A
:10407000001229E5297D001229E5407D001229E57D
:10408000497D001229E5677D001229E5717D001246
:1040900029E57B7D001229E58E7D001229E51C7E35
:1040A000001229E58B7E001229E5B97E001229E570
:1040B0000A7F001229E55B7F001229E5767F001256
:1040C00029E5807F001229E5917F001229E5D77F3D
:1040D000001229E5C6D1061229E517D2061229E5F4
:1040E0000080051229E52C80051229E54A80051279
:1040F00029E55D80051229E57880051229E5D7803C
:10410000051229E50581051229E52385051229E512
:104110005986051229E58B86051229E5F3860512D5
:1041200029E57088051229E59888051229E5AD88EA
:10413000051229E5BD88051229E5FD88051229E546
:104140004989051229E55989051229E5EBC60612A8
:1041500029E5FBC6061229E519C7061229E534C769
:10416000061229E55BC7061229E57CC7061229E578
:1041700096C7061229E5CEC7061229E5F1C7061231
:1041800029E529D2051229E5A6D2051229E5F8D399
:10419000051229E594D5051229E52CD6051229E545
:1041A00076D7051229E530D8051229E568D8051219
:1041B00029E5A2D8051229E509CE061229E54FCE38
:1041C000061229E5AF92061229E5E392061229E5C7
:1041D000A093061229E55A94061229E5DE940612E8
:1041E00029E58895061229E5FB95061229E5329600
:1041F000061229E57596061229E5B096061229E5FC
:1042000043A3061229E54AA3061229E567A406126C
:1042100029E597A4061229E5BDA4061229E5F0A414
:10422000061229E502A5061229E53EA5061229E592
:10423000A4A5061229E5E0A5061229E527A606127F
:1042400029E554A6061229E580A6061229E51D5186
:10425000001229E56351001229E57654001229E580
:10426000B754001229E50355001229E56F560012D4
:1042700029E5DD56001229E52457001229E5765874
:10428000001229E5465C001229E5905D001229E53F
:104290003869001229E5C769001229E5CC6C0012C3
:1042A00029E5336E001229E59C6E001229E5DC6FCA
:1042B000001229E53A71001229E53272001229E54F
:1042C000E374001229E5EB76001229E57C770012F1
:1042D00029E56A78001229E50D79001229E51E7991
:1042E000001229E55679001229E50E7A001229E517
:1042F000107B001229E5FF7B001229E58C7C00125F
:1043000029E59F7C001229E5AB7C001229E5FA9291
:10431000051229E50893051229E53393051229E5CD
:104320006093051229E5BD95051229E5AE960512A3
:1043300029E5EE96051229E57397051229E54398BC
:10434000051229E57598051229E5CD98051229E58C
:10435000FE98051229E55A99051229E5AB9905122F
:1043600029E5B099051229E50E9A051229E5619A09
:10437000051229E5419B051229E5B49B051229E5A3
:1043800069FE011229E5A0FE011229E5C8FF01120C
:1043900029E5CBFF011229E5CEFF011229E5828133
:1043A000011229E5EB81011229E5F984011229E5C1
:1043B000CB85011229E54B87011229E54C8A0112B0
:1043C00029E5EC8A011229E55A8D011229E5FB8DB8
:1043D000011229E5398E011229E51D90011229E506
:1043E0003190011229E53B90011229E54590011217
:1043F00029E55190011229E57090011229E5A0925A
:10440000011229E5F592011229E5FF92011229E531
:104410000993011229E56593011229E5BA93011266
:1044200029E5D994011229E53A95011229E59F96CB
:10443000011229E50297011229E5A697011229E543
:104440008598011229E53299011229E51B9A01127A
:1044500029E5319B011229E50B9C011229E5229CDB
:10446000011229E55F9C011229E56B9C011229E5E7
:10447000749C011229E5869C011229E5A49C011275
:1044800029E5ED9C011229E5509D011229E5749D55
:10449000011229E5979D011229E5159E011229E5D2
:1044A000529E011229E58D9F011229E5CD9F01122F
:1044B00029E5E7A0011229E51DA1011229E597A12F
:1044C000011229E534A2011229E59AA3011229E576
:1044D000B9A4011229E574A5011229E55DA601120E
:1044E00029E5EFA6011229E573A7011229E51EA807
:1044F000011229E574A8011229E5DAA8011229E5BB
:1045000098A9011229E5C0A9011229E56BAA011297
:1045100029E58FAA011229E5B1AA011229E512ABFA
:10452000011229E571AD011229E557AE011229E505
:1045300027AF011229E570B1011229E5BEB10112C0
:1045400029E501B2011229E560B2011229E5BAB2EA
:10455000011229E5E7B2011229E50BB3011229E5A1
:104560003EB3011229E57CB3011229E5CAB3011259
:1045700029E529B4011229E585B4011229E597B589
:10458000011229E5FFB6011229E540B7011229E51C
:1045900069B7011229E506B8011229E550B80112E0
:1045A00029E574B8011229E5BDB8011229E5DDB885
:1045B000011229E598B9011229E5D1B9011229E5BD
:1045C0001BBA011229E571BA011229E576BD011263
:1045D00029E5A9BD011229E580BE011229E55EBFCA
:1045E000011229E5E9BF011229E5BDB5061229E549
:1045F000E8B5061229E50CB6061229E576B60612CC
:1046000029E5C4B6061229E5E0B6061229E54DB73C
:10461000061229E59AB7061229E5EBB7061229E535
:104620002AC0011229E5CAC0011229E59CC2011263
:1046300029E501C3011229E53AC4011229E560C444
:10464000011229E5D0C5011229E551C9011229E558
:1046500054CB011229E550CD011229E5ECCD011210
:1046600029E5E0CF011229E57BD0011229E5C4D06C
:10467000011229E52AD1011229E534D1011229E5D7
:104680006DD3011229E576D4011229E5E0D5011296
:1046900029E528D6011229E5DCD6011229E589D8B9
:1046A000011229E5EDD9011229E50CDA011229E5FB
:1046B00061DA011229E564DB011229E593DB0112BD
:1046C00029E5F8DB011229E5EDDC011229E55DDDC4
:1046D000011229E589DE011229E5F4DE011229E53E
:1046E0001DE0011229E5A1E2011229E5D9E201123A
:1046F00029E5D0E5011229E525E6011229E5E3E6E1
:10470000011229E58AE7011229E5E3E7011229E50B
:104710009CE8011229E542E9011229E5AAE9011202
:1047200029E5F4E9011229E525EA011229E57DEBE5
:10473000011229E54BC9061229E5BDC9061229E572
:10474000FBC9061229E53CCA061229E533AD05125C
:1047500029E539AD051229E586AD051229E5AAAF8F
:10476000051229E5E2AF051229E54EB0051229E54B
:104770001BB1051229E560B1051229E593B10512B7
:1047800029E51DB2051229E535B2051229E5D8B390
:10479000051229E5D0B4051229E52EB5051229E543
:1047A00026DD041229E54ADD041229E50EDE041295
:1047B00029E5CFDE041229E576E0041229E510E1AF
:1047C000041229E54FE1041229E5CBE1041229E5A1
:1047D0002AE3041229E5DEE3041229E51FE40412AA
:1047E00029E537E4041229E5E0E4041229E5A8E705
:1047F000041229E54EE9041229E576E9041229E5B7
:10480000BB84061229E5A485061229E55289061201
:1048100029E5149C051229E52A9C051229E5DC9C52
:10482000051229E5D79D051229E5CF9E051229E538
:10483000679F051229E5A69F051229E51EA005120E
:1048400029E580A0051229E590A0051229E5B7A069
:10485000051229E509A1051229E59CA2051229E501
:10486000A1A2051229E5C3A2051229E546D1061227
:1048700029E574D1061229E5A9D1061229E5ABD1A3
:10488000061229E5ADD1061229E5BED1061229E5A9
:10489000C0D1061229E5C3D1061229E544C106128A
:1048A00029E5B2C1061229E5D4C1061229E50CC2D8
:1048B000061229E542C2061229E521AA061229E5B7
:1048C00064AA061229E582AA061229E5B3AC0612EB
:1048D00029E5EBAC061229E510AD061229E579D2DF
:1048E000061229E5EDBC051229E5C0BD051229E532
:1048F000B7BE051229E5C8BE051229E5D9BE0512C5
:1049000029E525BF051229E516C1051229E573C25F
:10491000051229E5A3C2051229E56FC3051229E591
:10492000CCC3051229E51597061229E5339706121F
:1049300029E57797061229E59D97061229E5C49780
:10494000061229E5DC97061229E5F497061229E5F7
:104950000C98061229E5B298061229E5F09806127D
:1049600029E5FA98061229E51399061229E5219AF4
:10497000061229E53C9A061229E5459A061229E510
:104980004E9A061229E5579A061229E5619A0612EF
:1049900029E5C59A061229E57289061229E5998D3D
:1049A000061229E5B58D061229E5BA8D061229E50C
:1049B000D5A6061229E5EBA6061229E56DA8061272
:1049C00029E597A8061229E5DFA8061229E5F2A92C
:1049D000061229E570FE041229E502D3061229E524
:1049E000648B031229E5368A031229E55B890312D9
:1049F00029E5DC88031229E5D987031229E52E87EA
:104A0000031229E58586031229E53386031229E579
:104A10008C85031229E54985031229E5EC840312EC
:104A200029E5BD84031229E54B84031229E5068498
:104A3000031229E5AB83031229E57A83031229E5E2
:104A40000080031229E5DFFC031229E594FC031220
:104A500029E588FC031229E5D1FB031229E583FA35
:104A6000031229E52DF7031229E51FF4031229E5A6
:104A7000DDF3031229E582F2031229E510910312F6
:104A800029E5D790031229E5A990031229E5DE8FC5
:104A9000031229E51E8E031229E51FF2031229E5F0
:104AA0003AF1031229E5F4F0031229E51DEF031290
:104AB00029E5C88D031229E5DEEE031229E5A8EEEB
:104AC000031229E5C4C3041229E578C3041229E5B9
:104AD000998D031229E5BDCE061229E527C30412DC
:104AE00029E5F0C2041229E5BFC2041229E58FC2EC
:104AF000041229E567C2041229E507C2041229E558
:104B0000E9C1041229E5AEC1041229E50AC1041263
:104B100029E55BBD041229E56ABB041229E522B927
:104B2000041229E59EB8041229E54EB8041229E5BD
:104B3000DCB7041229E555B7041229E5A4B704121D
:104B400029E5968D031229E554C50600000080FB77
:104B5000E4738F000100C90687000100C806240025
:104B600002006D0F250002006F0F26000200710F7A
:104B700027000200730F28000100750F29000100B3
:104B8000760F84000400770F860001007B0F2A0057
:104B900001007C0F2B0001007D0F2C000100810F14
:104BA0002D000800B0062E000100820F2F0001002A
:104BB000830F30000100840F31000100850F3200A7
:104BC0000100B80633000100B90634000100860F69
:104BD00036000100BA0638000100870F39000100D5
:104BE000800F83000200990F63000100C506640076
:104BF00001007E0F650001007F0F6D000100C606F9
:104C000071000800A80666000100980F430001002B
:104C1000890F440002008A0F450001008C0F4600F6
:104C200002008D0F47000800BD06480001008F0FED
:104C30004B000100900F040001009B0FA100010038
:104C40009E0F370001009D0F880001009C0F3C0063
:104C50000100BB063D000100880F49000200910FD2
:104C600067000100C7064D000200930F4E000100CF
:104C7000950F4F000200960F3E000100BC06000099
:104C800000000000000136360101000102010001B0
:104C900003010001040106060502000007010034BB
:104CA0000801000F090401010D0100FF0E080000BA
:104CB00017020000190100FF1A0100011B0100FE8C
:104CC0001C0100081D0200001F010001200100015D
:104CD000210200002301000F240200002601000130
:104CE00027010008280200FF2A0100072B010240CB
:104CF0002C0100002D0100012E0100012F0100FFF9
:104D000030010B1C310800003A0100083B01000F84
:104D10003C010001030071003001600011007000CF
:104D200031022003500480001000610000001400D4
:104D3000630073007200620043000000130006006D
:104D4000000000000400120000000000000000004D
:104D500004000400370037003C024400000000005B
:104D60000000000065000000350081000000050023
:104D700000008300000066000000000001037103D2
:104D800001030103010301030103220302030103E1
:104D900010030003000300030003000300030003EB
:104DA0004203000324030603000300030403120369
:104DB0002503230325032303040304030003000343
:104DC00000034403000300032303000365032100E1
:104DD0003503810300030503000300030003000300
:104DE0002503230303047104020460041104700406
:104DF0000204020401040204100461040004140407
:104E0000630473047204620443040004130406047C
:104E1000000400040404120400040004000400045C
:104E2000510464000004000400044404000400046D
:104E300000040004650400043504810464000504D2
:104E400000048304000466040004000401017101ED
:104E50000101010111010101310101010101800183
:104E6000100161013B0014006301730172016201D2
:104E700043010001130106013D0135000401120147
:104E800000010001000100010401040133013301AC
:104E90003C014401320136000001000165010001BE
:104EA00035008101000105018201830100016601D5
:104EB0000001000103027102300160021102700260
:104EC0000102020202028002100261023A00410065
:104ED000630273027202620243020002130238008C
:104EE000000200020402120200020002000200029C
:104EF00004020402370037003C0244020002390079
:104F00000002000265020002350281020002050271
:104F100082028302000266020002000200005B3887
:104F20001300CB3701005B3802004D3703005337C5
:104F30000400593705005F3706006B3730008F37A4
:104F40003100893732009B373300A1373500A7374E
:104F50003400AD373600B3371100BF371400C53702
:104F600015007D371F008337FFFF0000360001006A
:104F7000060000000F00000000000000000000001C
:104F8000000003FFFF00000403FFFF0000FFFF0F0E
:104F9000F4010005C4040320000100000B00000020
:104FA000000000000003010F0001934206C94208FF
:104FB000C3420BE14210E9460AF34202994205B7A7
:104FC00042079F420C7B420D8742647D2EFF00000A
:104FD00007ECFDFDFDECDCDCCCBCACAC9C9C8C7C23
:104FE0007C6C6C5C5C5C4C4C3C3C2C2C1C1C673E14
:104FF000973E6D3E733E913E853E7F3E9D3EA33E75
:10500000A93EB53E793E613E5B3E03EAF5E5D5D566
:10501000C5B5A59595858575756565555545453520
:1050200035252515150500160F00000B150B020080
:1050300002220F3300000E01030507090B0D0F00BC
:10504000020406080A0C0D5A6967426565416C6CDA
:1050500069616E636530391D3D173D533D5F3D4DC0
:105060003D053D593DE13FF33FF93F313EFF3F2BC9
:105070003E373E00393D3F373C3C362C442D6330B3
:105080003017181921301B1D1F30338541A341A94A
:10509000418B4197419141303016181920231A1C39
:1050A0001E303200011916181616182303000003CB
:1050B0004A49434E181A2505020C0E020B040B0A2E
:1050C0000708000F594005400B40174011408B3E28
:1050D000AF3E9D41BB3EC13E0204020101010109F8
:1050E00002293D2F3D233D653D00BE040AE8030033
:1050F00000353D473D0E003C007F0000000000E809
:10510000033C00100C0A03030C0900040028FF1ED6
:105110001E09050C08150404011008080374F71291
:1051200024FFE99008C4F0900879E4F012437D125E
:10513000430B9008C5E4F0A3F01245399006C8E08F
:10514000600464017006122DF912461D124383900B
:105150000529E4F0A3F01249718003122A307F017F
:1051600002276374F01224FFEAFEEBFF54806068AC
:105170009008C4E0F91233B18A088B09EA45096046
:105180004F7C0080010CEC75F003A4F8A9F074A921
:1051900028F582744F39F583E493F4602CE493F896
:1051A0008508828B83E06870DCAA08EC75F003A4A4
:1051B000F874AA28F582744F39F583E493C0E0743B
:1051C0000193F583D082124B50AA08AB0912339F8A
:1051D000EEFAEF648002546CEF5420601E124377A5
:1051E0008A088B09EA4509600A124287AA08AB09B6
:1051F00012339FEEFAEF642002546C9006C8E0640C
:10520000027024EEA2E0501F90087EE0640F70113F
:105210007900124257E96009900F6D127130124205
:105220006FEE640102536FEE542070030253407519
:105230000C007A207B009008C4E0F9123513EA4B89
:105240004C4D70179081591228617A207B0090088C
:10525000C4E0F91235077404122A307C0079047A0C
:10526000007B001243418A088B09801885088285DB
:105270000983A3A3A3A3A3A3A3A3A37401F0850AF3
:1052800008850B09E508450970030253167C00796F
:1052900004AA08AB091243418A0A8B0B750C01E57D
:1052A000082404F8E5093400F988828983E024FFA2
:1052B000F0A3E034FF125C40126E9670C185088244
:1052C000850983A3A3A3A3A3A3A3A3A3A3E064012A
:1052D000709A850882850983A3A3A3A3A3A3E0549E
:1052E000047089850882850983A3A3A3A3A3A3A32C
:1052F000A3A37406F0E508240BF582E509125BDF31
:10530000700374B7F0E0FA8508828509831256634A
:1053100012426902527E1243117C0079017A007BAD
:10532000001243418B09EA45097010E50C700C7AB4
:10533000207B009008C4E0F912350DEE6420802F28
:10534000E060076401600302543FEE5410600812ED
:105350004659EE64108018EE544060081246D1EEB3
:105360006440800BEE5480600B1232B5EE6480FA1C
:10537000EF02546CEF54016016900EB0126E9660FE
:105380000612722E124B50EEFAEF640102546CEFCB
:10539000540860471246299006B8E06401703490C2
:1053A00006B9E0602EF508E4F509F50AF50B9081E1
:1053B0002D780C122C4B7808790C12239678081251
:1053C0002A157A007B089008C4E0F91235077404A6
:1053D000122A30EEFAEF640802546CEF5410601297
:1053E0009008D6E06005E4F0124629EEFAEF64106A
:1053F000807AEF54406048900EBA126E96603990F1
:105400000EC0126E9660319006BCE0640170299067
:105410000EBA12722B124B50900EC012722B124BFE
:10542000509081151228617A007B409008C4E0F901
:105430001235077404122A30EEFAEF6440802DEF23
:105440005402600A124503EEFAEF6402801EEF5424
:1054500004601C90052B12713012440779019008EA
:1054600077127130123333EEFAEF6404FB80047A62
:10547000007B00026CC7C082C08374EA122AC17428
:1054800008122CA87402F090086D126E2490087710
:105490001274B67409122CA8126E2D7413122CA853
:1054A0001254AE12495F7416122A30027917E412B0
:1054B0005BD1AA82AB832274F71224FF74DF122A15
:1054C000C1EAFEEBFFEE4F6033851882851983AC8D
:1054D00082AD831243BF7406122CA8E0601E7417BD
:1054E000122CA8E0FD7401122CA8E0FCEEFAEFFBF0
:1054F00079001247F1E9600479A4800279007421EF
:1055000002515B74F41224FFEAFEEBFF8E828F835C
:10551000A3A3A3A3A3A3E054406016125C341244D7
:1055200079E960077AFF7BFF02560F125C3402565E
:10553000059006C8E06007640160030255EB90081F
:1055400064E0A2E140030255EB125BF9125BEDE06F
:10555000FA88828983A3A3A3A3A3E0F9EA2400F530
:1055600008E439F5098E828F83A3A3A3A3A3A3A381
:10557000E054106004794080027900750AFE750BD2
:10558000FF780A122A1DEE240F127AF0122869AC55
:1055900008AD09125C3412462F7404122A30E50853
:1055A0006A7003E5096B600EEE240F125BDC6A7013
:1055B00003A3E06B704F750A00780A122A21790262
:1055C0008E828F83125868FCA3E0FDAA08AB0912F3
:1055D00044BB7401122A307508CDAA088E828F83CD
:1055E000125663124269E9606880739006C8E064ED
:1055F00002600FE06004640170DD900864E0A2E1E5
:1056000040D51243E374FE6A700374FF6B60C88E6A
:10561000828F8312722BEAF0A3EBF0124479E98EA9
:10562000828F836005127CE68003127CED127D037D
:10563000124965E9F50870A29006C8E0640270118D
:10564000900F71126E966009900F711271301242B4
:105650006FEE4F60097901EEFAEFFB12431DA908C6
:1056600002571F1268B9240CF582E8125D73227488
:10567000F61224FFE9FEEAFF7A0F7B00123399EA63
:105680004B601E8A828B83740CF0EEA3A3F0EF8A2A
:10569000828B83A3F09008C4E0F91233A5790080CF
:1056A00037EEF91243478A088B09A808A909E84987
:1056B000602488828983A3A3A3A3A3A3A3A3A37421
:1056C00006125C40A3A3A3A3A3A3A3A3E0F91246DD
:1056D000E3EEF912432379107F0202276374F41278
:1056E00024FF90087EE0640F7030EA4B602C900835
:1056F00079E064086005E06404701F8A088B09E49F
:10570000F50AF50B7808122A157A017B009008C477
:10571000E0F91235017404122A308003122A307F16
:105720000402276374F21224FFEAFEEBFF8C088D5B
:1057300009890A740E122CA8E0F50CA3E0F50D857A
:105740000C82F583E4F0A3F0125862F9124455E993
:105750006019127123124479E96402700E1274A95F
:10576000850C82850D83126E2D8003750A001258F8
:105770006214602514603A14605714605F14603F2F
:1057800014607724FE700302581214700302582626
:10579000147003025839025847780C122A1DAC08BD
:1057A000AD09EEFAEFFB1246417402122A3002589C
:1057B00042AC08AD09EEFAEFFB12464702584F1211
:1057C0007123124479E9707FEEFAEFFB124695805F
:1057D0007EA90AEEFAEFFB1244C180661258567099
:1057E00066E50A700A125D7A7003A3E0697060EEE4
:1057F000FAEFFBA90A1244498048125D7A7003A3AC
:10580000E0697043125856703EEEFAEFFB124431D5
:10581000803D900EB2126E966035EEFAEFFB12727A
:105820002E124B508029125D7A7003A3E069701725
:10583000EEFAEFFB1244CD8016EEFAEFFBA90A1246
:1058400044D9E9F50A8008750A00790112438FA945
:105850000A7F06022763EE2417F582EF126932648D
:105860000222EE241D1268ED12586C22E0F8A3E02B
:10587000F5838882E02274F41224FF74DC122AC1BA
:105880008A088B098A828B83A3A3E0F91243478A93
:105890000A8B0BAE0AAF0BEE4F70030259AE8508B0
:1058A00082850983A3A882A983E0C0E0127AEDD0A3
:1058B000E0125C40E064F16033850882850983A3CF
:1058C000E064CD6027850882850983A3E0641A60BF
:1058D0001B850882850983A3E064E9600F8508823F
:1058E000850983A3E064E16003025AC79006C8E01B
:1058F0006007640160030259C78E828F83A3A3A34C
:10590000A3A3A3A3E0540870030259C78E828F8318
:10591000A3A3A3A3A3A3A3A3A37405F09006C8E025
:10592000600464017059850882850983A3E064E9F5
:10593000604D900EB6126E96600612722E124B508B
:10594000900EB8126E966037900864E0A2E1502F76
:105950008E828F83125BEDA3A3A3A3A3126E208874
:10596000828983127130124569EA4B601285088280
:10597000850983A3E0F9900EB812722B124B508E5A
:10598000828F83A3A3A3A3A3A3A3A3A3E064027012
:10599000108E828F83A3A3A3A3A3A3A3A3A37406A0
:1059A000F0850882850983A3A3E0F91243231243FB
:1059B000119006C8E064027009900F7112713012E4
:1059C000426F742402571C790012431DE9700302D0
:1059D0005AC79006C8E0600764016003025A8E90BF
:1059E0000864E0A2E14003025A8E125BF9126E963F
:1059F0007003025A8E8E828F831271307403122CC0
:105A0000A8AC82AD83EA241EF582EB125D6FEA2416
:105A10001FF582EB127AF31271301243BF850882B0
:105A2000850983A3E064E97020125C09122A2185AC
:105A30000882850983A3E0F50A780A122A21125CFC
:105A40001A1243F57402122A30740C122CA8125B3D
:105A5000E3E0FAA3E0F5838A82126E2D7408122C1B
:105A6000A8E06004794080027900740E122CA8121C
:105A70006E20740C122CA812713012463BE9600E95
:105A80008E828F83A3A3A3A3A3A3E04420F0EE24DC
:105A900004F50AEF3400F50B8E828F83A3A3A3A332
:105AA000A3A3126E20850882850983A3E0F9850AE5
:105AB00082850B83127130124395850A82850B8390
:105AC000EAF0A3EB02591B850882850983A3E0C095
