:20000000003A0120A9A3010039FB021039FB021039FB021039FB021039FB021039FB021094
:1C00200039FB021039FB021039FB021039FB021039FB021039FB021011FB021002
:20003C002DE9F04FA74EB01CADF1640D00780F91C90BC9031BD10F98C00B38BF0020C1F0A1
:20005C00E183B64C04F10800006858B10746FD68384621F071FD38461DF0A4FE2F1CF6D1C2
:20007C000020A0600F9880F4804001F0CABB19F0A9FD0028109001F0C1830178F2784FF025
:20009C0000080846D22810DCD22801F0A7831A3801F03C831738052841F2A0839F3801F057
:2000BC009D83401E01F022830CE0D33801F09383401E022841F29283293801F0FA82401E16
:2000DC0001F0D382109DAF4C01223C29DFF8B892AF7894F83E00119227DC3C2901F0A68258
:2000FC00082913DC082901F00982002901F06A82891E01F05482491E01F0B082491E01F0C1
:20011C00A982C91E01F0378201F076BA093901F0F181B248C91F1C2928D92A3900F014862C
:20013C00491E01F0878201F067BAC42911DCAA2945DA413900F0DD85891E00F0C885891E0D
:20015C0000F0A6855B3907292FD90839012901F053BACD3901F04682491E00F0098309394F
:20017C0000F08081491E48D001F046BADFE811F0BA097E096309440A6D0A440A440A440AD5
:20019C0054094709440A2409F208440A690A660A2A08FF072107440A0907F306EA06DF0664
:2001BC00CD06440ABB06B5065006DFE811F03B0A370A330A6B052F0A2B0A270A6605AA3948
:2001DC00DFE811F01E05EE04C604B204A40495048B0483047A04150A720458043104F603B2
:2001FC00CF03C203530348033E031A0A1A0A1A0A1203F4021A0A1A0ADF026868129500282B
:20021C0000F02D810468A07E1FF06AFC071C08BF022000F00581D4F81C904646454699F883
:20023C000000A84200F30081042101EB0011C8B2801915F0C3F90028139000F0F0801CF017
:20025C00F1F8002840F0E880464615961398067048E04FEA860809EB080794F81AB0B4F88D
:20027C000CA0139DBA88584651461DF065FA149008AB09EB0800BA880E9058461BF079FAD4
:20029C00149905EB06152D1D07F10408FF291BD0D0B1AA489DF827700168F80838BF8C207E
:2002BC0013D39DF82600149A1627287107FB0210C188E980018900F10E0329811598EB6009
:2002DC0003E0C046AC440020862028700E9880786870B8F80000139968800878761CF6B257
:2002FC00401C087099F80000B042B2DC139FA07EB4F80CB094F80AA0159904F10E083A7824
:20031C000E903D460C468A426ADC204621F0F9FA5FEA00095BD0159E024640E0684400206E
:20033C00300129182818077902F8017B477902F8017B877902F8017BC7883F1202F8017B37
:20035C0007790B1D4FBB4F7907BB087A02F8010B887A02F8010B4889001202F8010B087B49
:20037C0002F8010B8889001202F8010B087A034620F0B9FA88B10969184611F0BDF902469C
:20039C000BE0C046C03F0020D43A0020987A02F8010B5889001202F8010B761CF6B2287818
:2003BC00B042BDDC159900911198019002900391CDF810A00594CDF8189007910E985A469E
:2003DC00092341460AF096FE484621F0DDF928461DF0E8FC20F05CF9159821E0983D0020E4
:2003FC00080143191F79241DA4B297B92818401D077867B9C078814620F075FA641DA4B26C
:20041C0038B1484615F038FA001984B201E0A41CA4B2491CC9B276E713981DF0C3FC1020E8
:20043C00129980460E9116E109EB85023878A189928808AB1BF09DF970B19DF826000146B3
:20045C0020F051FA40B1084615F016FA410824BF401CC0B23618F6B26D1CEDB2DFE6284686
:20047C000E9063E368680E95002800F05F8300681290807E1FF034FB002800F07581129811
:20049C00C06907781390002F00F06E81B800801C15F094F80028149000F0648120F028FF2A
:2004BC001BF0C0FF002840F05A8147461697159713980078B84200F3DF801698012840F0C7
:2004DC008B80C84DA878EA68162111FB00F081B2562021F0B5F805F10C0640B9A878326819
:2004FC00162111FB00F081B2562020F047FE607880211AF029FA2F78B80015F05FF8B9464F
:20051C001390002868D02E78B9F1000F0BD005F118014A7842704A8811F8144B42807F1E66
:20053C0000F8044BF5D1002E3CD037464FF0140BC246AEB305F1180412E0C046AC500020EE
:20055C00002808BF464607D04168066821611DF029FC207B401E207330461DF023FC2E788E
:20057C0020690028ECD1761EF6B216FB0BF2A0184188618041786170C188E1808188A180E7
:20059C0001890C30218109C804F10C0181E80900105D2070A318C3F810A083F80C802E70CA
:2005BC007F1EC6D10AF074FEB9F1000F11D0139C18354F46607861881DF0F8FCFF2804D097
:2005DC002678810001EB00116E547F1E04F10404F0D113981DF0E6FB15981499087018B98A
:2005FC0040468870119F0F70129890F81AB08689857A00F10E0A084600780C4680008146C0
:20061C0021F07FF9071C1FD0014640462278824223DC012A03D1A4780CB9DDF84490CDF8AB
:20063C00008011980190029044460394514604953246CDF8149007230697584607940AF026
:20065C0059FD384621F0A0F814981DF0ABFB20F01FF81EF015F8404687E004EB80029378F7
:20067C000B70D3784B7013798B709288401CC0B21212CA70091DC9E71298139DB0F80CA08C
:20069C000646B07E05EB071551462E1DAD1DB5F8009017904A461DF04FF88346179808AB19
:2006BC001BF067F8BBF1FF0F48D0002846D03378002B51D19DF82600A97888423CD19DF864
:2006DC002700C00836D3B948A98800684FF6FF728A4201D1ED88CDB1F388162101FB0B0567
:2006FC00EB8030892881307920F0FDF8F8B10E3541460422284616F007FC307915F0BCF8F1
:20071C00F1680246284614F0ABF810E0162101FB0B056889E880A889042205F10E06414693
:20073C002881304616F0F0FB1235286830601198169011E08C2102E08D2100E08721149875
:20075C00159A00EB820081703178C170718815468180681CC0B215907F1CFFB2A8E6149820
:20077C001DF020FB102000E002200E9D00F01FBC6868002800F0DA81686800681DF030FCD9
:20079C00D3E3AF68002F00F0D18146466E7050B1207F082807D14046414602F083FE002845
:2007BC0008BF404600D0119806468CE16F68002F00F0BC814046687069680F7857B984F829
:2007DC004200607F401E6077119801461DF070FF00F048BF20F004FF1198014604F0AEFCA3
:2007FC0000F040BFA05000206868002800F09E81067847684146082208A816F085FB002F94
:20081C0000F09481C74841460170B6B1761E0FD0761E0BD0761E04D0761E40F08781119989
:20083C000170384608A914F080FA80E111990170384608A91BF03AFE79E11AF0CBFC76E10E
:20085C006868002800F07281686800F112011BF02DFE6AE36868002800F068816A6810781F
:20087C005188928811F090F85FE36F68002F00F05D81B8880E903C787E88FB88B7F808B048
:20089C00C64807F10A0A07791293002F5AD0C2490F68002F00F08A83814678680078844211
:2008BC004CD11FF09DFF002848D0027C002A45D04369002B42D040460C27824240F37683C5
:2008DC0010FB07F1595A8E4235D10E2014F076FE071C37D0404607F10A0204235B1E02F87C
:2008FC00010BFBD1B880FF2139704FF6FF737B803881F8803C707E800E9ABA801299F98070
:20091C005346A7F808B01968082007F10A03196014F054FED9F8141018B938461DF042FAC1
:20093C0010E007604160C9F8140099F81000401C89F810009FE1401CC0B2BEE73F68002F77
:20095C00ABD133E3119832E36868002800F0EE8040466870686817F063FAA968088000F0BA
:20097C0081BEAF68002F00F0E180404668702678AD686178002E05F1010708BF28700FD031
:20099C00084640211BF0E6FF4FF47A710F2300F2E730B0FBF1F116FB03100F382870267805
:2009BC00002F00F05F863046ADE0C046AC50002094F842700E97218F94F83B2094F83A3082
:2009DC0094F83C60D4F834C094F83DE094F83F9094F840A094F841B0AF68002F00F0A680CA
:2009FC0047466F70AF683981A968CA72A9688B72A9680E73A9688873A868C0F804C0A86809
:200A1C0080F80DE0206BA9680860A86880F80F90A86880F810A0A8680E9F80F811B0A968EB
:200A3C008F7400F01FBE6F68002F7FD0404668706868077D17B1C07C84F841006868877D2E
:200A5C0017B1417D84F84210077C17B1C08920876868077B17B1806860636868877C1FB183
:200A7C00407C84F83D00686807790FB10068206300F0F8BD4146697070B194F83B00800974
:200A9C000AD208A8082216F03FFA20F06EFB08A81BF000FF00F0E6BD20F067FB4FF4FA7060
:200ABC001FF0F0FA00F0DEBDA86800283ED04046687020F02DFC25E0D348AF680678002FD5
:200ADC0034D04046687030461CE0686800282DD0686800781AF0D4FC27E26F6837B34046BF
:200AFC0068706868007805F07BF800F0BBBDA868E0B1404668701BF0C7F8002808BF119889
:200B1C0015D00078AF68387000F0ACBD686868B14046687069680888897819F03FFF00F064
:200B3C00A1BDC046F43D00206F6817B902208046A1E06868B54A036802F10C010B60406887
:200B5C004860686801895180807A107000F025BD6868002800F02A820188ADF83010408890
:200B7C00ADF832000CA953201CF07AFB50200DF132011CF075FBE1200DA91EF047FD6868E3
:200B9C009DF834100079884275D08DF834000DA9E1201CF065FB6EE0B8440020A050002082
:200BBC006868002800F0028200781DF093F84C46686894F834104078884213D084F8340056
:200BDC000DF13501E1201EF021FD68689DF835104078884206D08DF835000DF13501E120A7
:200BFC001CF03EFB6868119E407806FA00F060641FF008FDA4F88C8030461DF019FEBEE1B4
:200C1C006F68002F00F0D2817E884C466686387884F842007B6884F8343063643989E186CA
:200C3C007889A4F84000387B84F85400787B84F82100B87BE0773A69E264786994F88E60DA
:200C5C002065387EB04201D01DF044F8696804F15500193120F0F0F994F8420004F11C06EE
:200C7C00082808D121207421324620F087FA404602211CF03DFF404699E16F68002F00F089
:200C9C00958103E06F68002F00F0908112208EE16868002800F08A810A30077807B190465D
:200CBC0047780FB148F0020887780FB148F00408C7780FB148F00808007908B148F040085B
:200CDC00696808884246891C1CF0FEFC2DE16868002800F06B8102208DF82800686800885B
:200CFC00ADF8200068688178C27808A819F0CAFA1BE16868002800F0598102208DF8280006
:200D1C00686801884FF6FF70884205D0821E8A4202D0C01E88420BD120F0DEFBADF820009B
:200D3C006868C27A837A811C08A81BF037FB687068680088ADF820006868C27A837A811C69
:200D5C0008A81BF02BFBF0E06F68002F00F02E8102238DF828306968001D09880468ADF88F
:200D7C0020106A680F2092F804C0B2F80680167AD2F80CB0177CD2F814A05188CDF838C0EB
:200D9C00F21900EB42005FFA80F9B9F14E0F00F3A28020F0A1FB884233D12170081260701C
:200DBC0020F03CF8A41C0146204620F045F904460E98207084F801804FEA2823A370E670AE
:200DDC00241D66B15846A41E017804F8021F30F8021B761E4FEA21216170F5D1A41C277067
:200DFC005FB1641E5046017804F8021F30F8021B7F1E4FEA21216170F5D1944820224B4676
:200E1C0065E01846D3E0C046144200202C3F00206F68002F00F0CA8002218DF82810696868
:200E3C000988ADF82010696842684B888C888E79D1F808800F7BD1F810904FF0060EF11926
:200E5C000EEB41015FFA81FCBCF14E0F43DC82469DF828000F2818BF022808D1BDF82000D1
:200E7C004FF6FF71814204BF891EADF820104FF6FF71994208BF8B1E02F8013B191202F844
:200E9C00011B02F8014B201202F8010B02F8016B66B14046921E017802F8021F30F8021B10
:200EBC00761E4FEA21215170F5D1921C17705FB1521E4846017802F8021F30F8021B7F1EC7
:200EDC004FEA21215170F5D150467246634608A918F0BAFF6BE0102069E06A68002A65D096
:200EFC000220052216E0686800285FD002208DF8280068680088ADF8200068684188027970
:200F1C0008A81FF0CFF8804647E3686800284DD0022002468DF8280068680088ADF82000F6
:200F3C006868418808A81FF07BFB2C461AE1686800283BD06A6810889178D2781DF01CF879
:200F5C0080461CE06868002830D06868017A427A18F032FCE9E7686840B340788DF820008E
:200F7C00686880788DF82100686800781FF074FB00283FF4DBAD08A909880C3001804046B9
:200F9C00D5E5696891B1A86880B1087808A91FF055FB6868A968007808709DF82000A96800
:200FBC0048709DF82100A9688870F6E202202C46DBE02C466368002B00F0D680187D1FF025
:200FDC0083FB002800F0D080187E19331F788DF83600002F0CBF404602205F780FB140F072
:200FFC0010009F780FB140F00800DF780FB140F020001F790FB140F040005F790FB140F0BF
:20101C00800083466068007D20F06AF9051C00F0AB806068807A8DF8290060688089ADF891
:20103C002A006068007802288DF8280010D001280ED00F280CD003280ED16168891C0A686F
:20105C0008A802604968416006E0C046983D002060684088ADF820006068877B002F72D09F
:20107C00780014F0ABFA061C08BF10207DD041466068877B8F4260DCC18A038C426A0E9546
:20109C000C2F129190F81FA01393BDF8209014924DDA484618F07CFE0C2816D14FF6FE7059
:2010BC0018F076FE0C2810D1DFF804C311999CF82C3140460CF59A7C1CF8082B9342C4BF0E
:2010DC00131C081C491C0C29F6DBBA4D4FF6FE7305EBC00568686B8018B11CF063FE40464D
:2010FC00686077B14FEA4708404614F067FA6860002808BF10201BD068683146424613F0CD
:20111C00AFFBC448A5F80290149B00786F700DF1360728700E990093129A019708A8CDF802
:20113C0008B0139BCDF80CA008F000FB00E00220607030461CF036FE94E200694A00105AAE
:20115C00491CB05294E7416A00910DF136070197CDF808B0C17F0391C28A038C294608A837
:20117C0008F0E4FA60707DE20220254699E16868002800F0468100781FF0A6FA071C00F05E
:20119C004081387B1AF056F90028687040F06A8274683D46002C00F065822746404617B925
:2011BC00BD4202D05EE2BD4209D1AC4219BF2968016028687060284620F0D6FA52E2384611
:2011DC003F68ECE76868B946002800F01A8100781FF07AFA002840F0BB801FF039FC0428F9
:2011FC0000F35E81474648466F701FF05FFA041C01D0237B6BB11C2014F0E0F9041C00F0CB
:20121C00318241461C2215F07FFE84F80490DDF844806868007820736868007AB61C207682
:20123C001420266114F0CAF90028606141D03946142215F069FE696862694968907989799D
:20125C0000F0F00001F00F01014391716868406861698088888068684068616900780870C7
:20127C0068684068616940884880686840686169C079C871686840686169007B08736069CB
:20129C00C079400014F09AF9616988606669B3681BB13846F179814250DC307B400014F0F4
:2012BC008DF9306161690E691EB138460A7B82423ADC04F10C00814611F0BCF80646022E15
:2012DC0018BFB82E06D1207B1AF0B4F8484611F0B1F806463EB9B8F1010F20D120461CF076
:2012FC0063FAC8B11BE0B8F1010F15D0606968B183681BB118461CF055FD606903691BB10D
:20131C0018461CF04FFD60691CF04CFD48463946102215F0F9FD02E0204620F025FA022EFC
:20133C0016D0B82E14D09DE16B685B6842001B690969D35A53526169401CB7E76A68526873
:20135C0041009268B3688A5ACA526669401CA1E7D020A6E06868002853D0A868002850D07F
:20137C004146082215F0D0FD6968087849881DF06DFD071C19D040466870A9683888088072
:20139C00B878A9688870AC68A078002800F06A8114F014F96060AA685068002800F0628133
:2013BC009278F91C13F05CFA5CE1B12079E0C0467C2E0020A82F0020686810B3A86800B315
:2013DC004046C94A68706968176809783FB13A79914204BF401CC0B23F68002FF7D1A968F9
:2013FC000870A8680078400014F0E8F8A96848606868A968007849681EF01CF932E16F68DD
:20141C000FB902204DE040466870686800781BF045FF27E14C3D00200220687069680029FF
:20143C0000F02081087849881BF056FF002800F01981404667E56868002863D06968091DA8
:20145C000A6808A802604968416003201FF0B8FA6868C07B1CF076FD6868817B0091027855
:20147C008389418808A810F079FD5EE56868002848D038461FF01AF9041C14D11C2014F01D
:20149C009DF8041C00F0EE8041461C2215F03CFD277120461CF088F928B920461CF082FCBE
:2014BC00D1208046C5E7E088D04940F00800E08040F00400E080022020F07AF8CC49032024
:2014DC0020F076F8686800680890686800798DF82400119F8DF825708DF8267008A817F014
:2014FC00EBFF22E5686868B168680088414601F0D9FFB7E06F682FB1C22004E5C3486F6853
:20151C0004780FB90220FEE4414669706868242215F0FAFC4E466968708E08806868B6F88D
:20153C004070847269688F81F08E696806F11C0707F13903C88268681A680E30026059686E
:20155C0041601FF06BFC6968891C026840680A6007F11C03486068685C68183044601968A6
:20157C000160686896F83410119A80F82310696881F8222076E06868002831D090F9004052
:20159C00A34800680DF13701D0F830248DF83740E0209047A86800B104704046C5E4686883
:2015BC00F0B140466870696817460F706868022646706868867068680624C47069680323CA
:2015DC000B714FE0686858B1407818B1FF2003211CF08EFA1FF098FF11988E490860FEE7A0
:2015FC000220A2E44046687012F018FE3AE0404668701DF041FC35E0122096E4294617F0B8
:20161C00B3F92EE029460DF06BFF2AE0294612F017F926E029461FF093FE22E0294619F004
:20163C00B2FD1EE0294619F0DEFA1AE0294616F09EFC16E0294613F025F812E01FF0E4F925
:20165C002FE7294618F026FF0BE03846294605F0F9F806E0294604F00FF902E0294604F068
:20167C0055FC119011988046B8E0109C16201EF0AFFB071C00F0B2804146162215F044FC72
:20169C009320387046467E7060783871A07838742079012814BF02200120B871E0883881F2
:2016BC00E0783875A0781FF00FF8002800F08A808CE006201EF08CFB071C00F08F804146E9
:2016DC00062215F021FC464691203870109D7E70A97839716978F970E9787971A8781EF096
:2016FC00F3FF00286ED071E06C45002010984078904273D0484BF070F21C41464FF00070A8
:20171C001DF00EF970784549087067E0109C30201EF05EFB071C61D04146302215F0F4FBE0
:20173C009220387040467870A17B032939711CBFE188F98005D1A21D1368B91D0B6052680B
:20175C004A60E17BB973218A398261887982A188B982618AF982217D3976667D414606B1B9
:20177C0001217976607E414600B10121B976A07DF876E07D387794F918007877E0693862C7
:20179C0094F8200087F82400A08DF88494F8240087F8280094F82E0087F8290094F82600CA
:2017BC0087F82A00E08C13F009FFF862B0B1A16AE28C13F055F8207D1EF086FF30B9F86AEE
:2017DC001CF0F0FA38461EF0CDFB07E00079394619F072FD02E0109809F0EAFAB8F1010F2C
:2017FC0008D010981EF0BEFB08E0C046E9C60100A51002001099887819F05EFD0F9880F409
:20181C00004080B219B0BDE8F08FC046F43B0020140100207C05204381F80100583B0020B2
:20183C002DE9F04FC34D2021352205F1B004ADF1140D204615F068FB04F10109A04605F17D
:20185C004C0605F1480005F1B10100F17B070160044605F1C30105F1D5002865686C31609F
:20187C004FF4FA711FF037FF05F18C0020F00BF8A86A696B0346686A8936884200F00883BF
:20189C00AE7ABD4A03962E79118D6F7A287A0296DFF8E8A2DFF8E892AE6B0FF2003E0FF2F1
:2018BC00243CC6A2152B0196C1A600F26C83DFE813F0E302D502AD00D00238029B00AC019E
:2018DC00AA018D007F006F009E0192015600F202690156013D0043011600F2022301206852
:2018FC00D0A10C2212F0BCFF381C15D0FF380CD06068D0A1102212F0B3FF6168384610228C
:20191C000223093118F022FF0EE0CFA160680A8802808978817007E0CCA160680A68026007
:20193C008F8887808E798671CAA1B5E24FF6FF7088420DD02068CCA1102212F091FF8E4883
:20195C002168008D10220423891D18F0FFFE04E020687146102212F083FFC8A19CE24FF64C
:20197C00FF7088420DD02068BFA1102212F078FF81482168008D10220423891D18F0E6FED8
:20199C0004E020687146102212F06AFFC0A183E2000904D2324660685168416004E0606880
:2019BC009188818097798771BEA11268026073E2800804D2324660685168416004E06068B5
:2019DC009188818097798771BBA1EEE7C00804D2324660685168416004E06068918881809A
:2019FC0097798771B9A1E0E70398012818BFBCA140F05282BFA120680A6802604F6847608C
:201A1C000E8906816668BEA10E22B9E20298EF7AD5F82C9000260128A7F107072AD0206891
:201A3C00BBA1102212F01CFF494620680988B7F1FF3F018003D0022F18BF002F12D1286B50
:201A5C0038B1296B20680968C01C016020682023C37137F0020012D1E0A120688A88083059
:201A7C00828004E0DFA120684A68C01C42600968016004E02068DEA1102212F0F1FE606884
:201A9C00E0A1102212F0ECFEA869616800880A220323891C18F05AFE287B6B46B82132462D
:201ABC0016F0CAFF61689DF800000A2203230A3118F04CFE6168E87802230E3118F046FE25
:201ADC00A8699DF80070018857EA010003D1E86AE1A1814200D00126A068E1A1102212F0E9
:201AFC00BFFE002E00F04F82686CFA211FF0F3FDE0481FF0C6FE46E2216805F15400102208
:201B1C001CF03CFC6168102205F15C001CF036FC21680020087461680874A0681022DFA1B6
:201B3C0012F09EFEA16805F1640004221CF026FC29E2C046A4380020216805F15400102222
:201B5C001CF01CFC6168102205F15C001CF016FC21680020087461680874D5A19CE12068F5
:201B7C006146102212F07CFE5046616800681EF0A6F9D4A190E1C046343D0020F03F0020B4
:201B9C00F43F002020686146102212F069FE4846616800681EF093F9CFA17DE12020202065
:201BBC003078464646462028616E792900C046C044495341424C454400C046C0454E4142B6
:201BDC004C4544003132333435363738393031323334353600C020686146102212F040FE71
:201BFC005046616800681EF06AF9C0A154E120686146102212F034FE4846616800681EF099
:201C1C005EF9BFA148E1C3A146E12068C6A1102212F026FE6068C9A1102212F021FECCA104
:201C3C003AE1C0464C617374207374617475733A00C046C04552524F52202830782020292C
:201C5C002020202000C046C02D2D2D0053554343455353003C41504C5920494E535420434F
:201C7C004F44453E00C046C02020202030782020202020202020202000C046C020202020BE
:201C9C002050414E204944202020202000C046C03C2020202050414E204944202020203E10
:201CBC0000C046C03C46494E444E472B42494E444E47203E00C046C03C204E574B2053543C
:201CDC00454552494E47203E00C046C03C4E574B20464F524D4154494F4E203E00C046C0EB
:201CFC003C20524553455420544F20464E20203E00C046C0526573657474696E672C00C08D
:201D1C00506C6561736520776169742E2E2E00C0787820202020202020202020202020207E
:201D3C0000C0AE4A002011780B110A2BACBF37213021C9182368C15412F8011901F00F0319
:201D5C0001F00E010A29B4BF30213721C9182368401CC0B2C154401CC0B21028E3DB20687D
:201D7C000021017460681022A2A112F079FDC94E6168B6F8400010220423491C18F0E6FC86
:201D9C00606820274771616896F8340002230A22C91D18F0DBFC606847726168708E042350
:201DBC0010220B3118F0D2FCA06897A112F058FDE87A821F43D0521E02D0921E3AD02AE010
:201DDC001FF006FA00280CBF94A196A1A0680A6802608A88828089798171D4E0434C4F53B0
:201DFC00454400C04E6F744F6E4E776B00C046C0506C6561736520776169742E2E2E2020A1
:201E1C0000C046C0496430303020537263683030302F303000C085A2A168136857680B603F
:201E3C00167A4F600A220E720323A168491D18F08DFCA8E080A1A06809880180A3E07FA10F
:201E5C00A0680A68026009790171F08E04231022EBE77CA120E0C0462D2D00C07EA11BE096
:201E7C003C2020434F4D4D495353494F4E20203E00C046C03039002020680199102212F0A6
:201E9C00EFFC606879A1102212F0EAFC7CA103E02A6A002B65D152A1A66870E02020202079
:201EBC00202020494E535420434F444500C046C03C53455420494E53544C20434F44453E1C
:201EDC0000C046C020534543204348414E4C204D41534B2000C046C0205052492043484176
:201EFC004E4C204D41534B2000C046C03C534543204348414E4C204D41534B3E00C046C00D
:201F1C003C505249204348414E4C204D41534B3E00C046C03C41444420494E53544C204396
:201F3C004F44453E00C046C041204420746F206D6F7665202020202000C046C057205320DA
:201F5C006368616E67652076616C756500C046C04520746F20657865637574652020202021
:201F7C0000C0D8B22146904721684846102212F077FC61683846102212F072FCA1681022DB
:201F9C00304612F06DFC6979EF79FF2910D0686C27B954F82120A9792023535487F0010726
:201FBC004FF4FA71EF711FF096FB3B481FF069FC0A2788F8117088F823700C2088F800006F
:201FDC000D2188F8121088F82410686918B1414635221FF08AFB05B0BDE8F08FD327002062
:201FFC003C20202020204241434B20202020203E00C046C06E78787878206378782061787A
:20201C007878782000C046C0202020202020202020203C494E464F3E00C046C05A5220439B
:20203C00454E54005A522044495354005A454420282020202900C0465A4300C05A45442083
:20205C007000C0463C202020415050204D454E552020203E00C046C03C2020434F4E4649CD
:20207C00475552452020203E00C046C07072657373204520666F722068656C7000C046C025
:20209C003C202020202048454C5020202020203E00C046C0D43A0020303900202DE9F04F6F
:2020BC00B44CDFF8D4A2C808ADF11C0D277F059180F09C820846C00BC60318BFDFF8BCB258
:2020DC0040F05E8152461078490BA0F1020080F03581BD4D059BA91D09881B0A80F0F080A2
:2020FC000599890880F0D3800598000B24BF059880F4006080F043830598C00980F0A280A8
:20211C000598A768800B5CD205986669C00B38BF0020C0F03583AB4828C8694628C1008885
:20213C00088027693EB938461EF019FE6061B0B987B90B200FE0307B30F07F060FD0A6690F
:20215C0000F07C0004280ADB46B938461EF007FE606120B900201FF0D3F82EE06661926BF0
:20217C0060784FF4804102EB42021FF02DFB217F6069082919D00188ADF80010017A8DF83E
:20219C000810017B491CC9B231F07F07017306D10188427A68461DF085FF606909E00088FF
:2021BC0000210A461BF0E8FEF7E7017B41F04001017340691EF0D3FDA061059880F4804008
:2021DC00DDE2DFF8D4A200264FF00309B0468FB96078012E04D04FF4005118F0B5FB05E01C
:2021FC004FF400514FF47A721FF0EEFA059880F40050C4E27D68287810B3F02820DC494617
:20221C0042466B4619F0B5FAD0B1029803889BB984F83A808DF80D908DF80C8003AB0A2076
:20223C0041464A461AF020F9DAF8001084F83A8031B12878884703E001880126491E018064
:20225C003F68C4E719F020FD07462078BFB1401EC0B22070A0B160784FF480411AF07AFB89
:20227C0030B920691EF07BFD10B9387817F0D4FA6078402143F698221FF0A6FA207810B9C0
:20229C000B201FF03DF8059880F0400077E2B0F1FF3F18BF00280FD168460021082214F052
:2022BC0033FE00201CF0FEFD68461AF0F3FA18B16078022117F0B4FC059880F002005EE23B
:2022DC000846002119F0BCFC2C462678FF25C6B14FF6FF73201D00219C4610F8142F52086B
:2022FC000BD3C7884FB1BC4507D053B10289BF1ABAB29342C4BF0D1C131C761E01F10101B1
:20231C00EBD1FF2D16D0A80000EB0510001918300189C088401A80B248B96570FF2008F07F
:20233C00F1F9FF2128460A461AF0E2F80020E0801DF0E8FE059880F0800020E2B0F1FF3FF4
:20235C0018BF002811D13846401E0AD0801E0CD1A07F022809D10120A07700201AF0FAFBD5
:20237C0003E0617F00201CF0A3F9059880F4805005E2C046C03F0020343D0020D43A00200A
:20239C00607817F01FFC5FEA000904BF059880F4004000F0F48199F80060D32E00F00D81EC
:2023BC00207FB04212D00A2E40F01C8194F83B0089F80400616A002900F0148109F10200C8
:2023DC0088470FE1402E0200A05000209AF80000761E4F4600F09B80B61E40F0038101282B
:2023FC0018BF022840F0FE80BE7876B3761E40F0F9807A7860781AB31FF06EF84FF6FE72B5
:20241C000021824218BF0121081C04D15846408E1146814209D010465946ADF81000174663
:20243C004F86532004A91AF01BFF1BF0A9FE1DF0EDFF5946002081F8420011F0EFFED1E0A3
:20245C00022140F6B832A177ACE0787800285AD11FF0F0F800220BF10401206215460A60D5
:20247C00011C47D089696D1C0029EDB2FAD11646071C3CD04FF0000836E0C3481DF0FDFC05
:20249C0001280BD0BAF828004FF6FF7181420BD03988884208D01DE018420020BA4807F11B
:2024BC000C011EF065F9A8B1BBF836003989884203D14FF6FE71814201D13B7953B19BF851
:2024DC002E00797988420AD19AF80E00B979884205D026B938461BF083FD6D1EEDB2BF6970
:2024FC0008F101005FFA80F84545C6DC206A761C022EBDDBE26A002A9FD029469047E06A70
:20251C0000286FD199E700201AF004FF6AE0012818BF022866D17F7894F841003FB194F89F
:20253C004010491CC9B2884284F8401042DB607F401E04D0401E3AD0401E1ED052E01EF097
:20255C0047FE98B994F8420020B1A06A002849D0804747E0002102200F468DF80800024684
:20257C00ADF8007068461EF05BF813E001201FF037F8014602F0E2FD34E0AB2000216A4601
:20259C001AF028F9CDF808D004208DF80C0002A80EF05EFF60784FF4805118F0D5F9607803
:2025BC0041F288324FF480511FF00EF91AE01BF031FD17E001200021DCE70746F88948F2B1
:2025DC000101401A0BD0401E05D0801E0AD1384613F056FE06E0484614F0B0FE02E0484691
:2025FC0012F05CFF48461DF0BDFCC9E660784FB17F1E00F0BD80FF1E00F0B380BF1E00F0B0
:20261C00A780B9E094F83B00810980F0B580810878D2C10872D20009C0F0AE800620207764
:20263C001EF0D8FF002865D019F02EFBE568071C60D068684078800837D33878032100225A
:20265C006B4619F096F828B968684078410830D20E201BE002980188B52912DAB4210180F6
:20267C0060784FF47A724FF400511FF0ADF84748416829B10078FF2814BF3878FF208847CD
:20269C00E56868684078400803D209201EF038FE0AE0092003228DF80C0003AB00218DF8A2
:2026BC000D200A2019F0E0FEE56868684078410862D337490E6816B980081BD35CE0387846
:2026DC0017F0AAF8002600B101260325301C02D00E201EF015FE0C2020706078402143F674
:2026FC0098221FF071F80A208DF80D5003AB8DF80C0028E00E201EF003FE3DE00520002199
:20271C00207732E0042294F83C002277400833D394F83E702FBB50460078012818BF0228C3
:20273C002AD1012604F11C000021E67014F0ECFB03252577304618F0C1FB0A208DF80160DA
:20275C006B468DF8006000212A4619F08DFE13E0002184F83A102177322204211FF034F87C
:20277C000AE01DF087FF0420012102F0E7FC03E0012001461BF09CFF059880F0040080B271
:20279C0007B0BDE8F08FC046103C0020144200202C4300202DE9F04F714C04F1200000683C
:2027BC00ADF14C0D10B1002180F8311034301CF0CDFF1FF042F81190082010F05FF914F0C1
:2027DC0009FD002510B14FA01FF0B2F918F0C0FD0CA81EF05DFD04200CA98DF8300028466B
:2027FC001EF05EFD60631EF0E7FA04A81EF0D8FC042004A98DF81000284617F059F9E062A5
:20281C001EF0E4FA08A81EF0D3FC042008A98DF82000284617F07AF9E16A206319B941A040
:20283C001FF086F9206B10B943A01FF081F9606B10B946A01FF07CF9DFF82881D8F80000E0
:20285C00D0F8E0038047D8F80000D0F8F0028047D8F8000007262F46A03001687B5823B147
:20287C0018468047D8F80000A030761E07F10407F3D1D0F8B8028047EB201EF033FE206AFF
:20289C002F4670B16846FF21082214F03DFB206A694608221DF056FB04F12006012818BF76
:2028BC00376868463049129006C980E80600082012F084FE5FEA000A75D0FF21082214F0C5
:2028DC0023FB0120082152461EF0BAFE40B904F13C030120294608221EF09AFB00285FD035
:2028FC00002F04F13C0941D04846694608221DF029FB002854D13868494608607E684E6032
:20291C0049E0C04652616E646F6D5F736565644175746F6D617469632829206661696C65F2
:20293C006400C04641455343434D206F70656E206661696C656400C0414553454342206F1C
:20295C0070656E206661696C656400C054524E47206F70656E206661696C656400C046C07B
:20297C00902700201401002030370200A9F1020603271EF09CFE06F8020F7F1E4FEA20202D
:20299C007070F6D130210620F82789F80610401CC0B209F80070012008214A461EF0EEFB37
:2029BC0050461BF0FFF904F13C01E2201AF058FC1CF0E0FF400834BF2F1C0127D64E55209E
:2029DC00012106F13E021EF03BFEB14618B917B128461CF067FA24201CF040FB8246352028
:2029FC001CF03CFBCD4EA8B9BAF1020F12D124202946022210AB1EF00BFBBDF8400032464A
:202A1C0004213832106035201EF01AFE242002211AF060F906F15401E2201CF0F7FD38468A
:202A3C0018F08EF868462946102214F06DFA622010216A461EF004FE28B927B16220102153
:202A5C006A461EF09BFB68462946102214F05CFA38460FF0BBFB38461AF0A8FB384611F080
:202A7C0043FA1FB1284601211BF042F81C2012F0A5FD0028A06300F0F880606AA16A221DD1
:202A9C0015F06AFDD8F80010D1F84C138847A16B201D0860606AA16A04F1080215F05CFDF4
:202ABC0018F024F8A16B04F108004860606AA16A04F10C0215F050FDBB4FB870B94806F1D1
:202ADC004C013D701EF0B8FA96F82100A16B04F10C0378705C3604F110028B60606AA16A20
:202AFC00BE6015F039FD04F1140AB14EAF497E60B04A0870B04B3A6204F11006A06BA16A4F
:202B1C00C660606A7B62524615F026FDAB4E3072022286F82C204FF6FE70B0841EF07EF917
:202B3C00A748A04906F11C0B056058461EF084FAA448FF21382214F0E7F9A348A54AC260AE
:202B5C00A34B8360A14941600570A44A4261A24B0361A449C161A44AFA60A14B8361A44992
:202B7C007961A44ABA61A14B3B6106F138000FF061FC09270BF12C007F1E40F8045BFBD1EB
:202B9C00307A48F2010119F013F8307A4FF4004119F00EF8307A212119F00AF8307A2221FE
:202BBC0019F006F8A06BA16AC0F810A0606A04F1180215F0D1FC074689F801708E48C5806F
:202BDC00C5608570456105740126057048F202010671384618F0ECFF48F20101384618F01D
:202BFC00E7FF48F20401384618F0E2FFA16B04F118004861606AA16A04F11C0215F0ACFCD6
:202C1C007E4B20707E49987028461EF0D1FC7D4930461EF0CDFC7C4904201EF0C9FC7B4994
:202C3C0006201EF0C5FC7A4907201EF0C1FC794908201EF0BDFC98784FF6FE71491C18F0EC
:202C5C00B7FF7548754FC9F82400764BBB6074497960754AC9F82820A06B89F8426004F1DF
:202C7C001C038361714FC9F82C707248704C0570D8F800102570704F6570D1F80061656134
:202C9C00F089D1F850123D70103080B28847206128B9D8F80000D0F84C058047206900905B
:202CBC008DF804509DF8051065F301018DF805109DF8051065F383018DF805109DF80510B7
:202CDC0065F307118DF80510D8F80010D1F80011C9896A461031ADF80610216913680B60A6
:202CFC0052684A60E061256211F07CFCD8F80400C168087848B9D8F80000D0F85824284613
:202D1C0001469047D8F80400C1684C4805704C4F3D70087858B903E0C03F0020343D002007
:202D3C00D8F80000D0F8582428460146904711981EF0FAFE0BF030FC1CF050FFD8F80000D6
:202D5C00D0F8D40090F843001CF014FDD8F80000D0F858242946012090471EF01DF93948B3
:202D7C00D8F804700570F868007830B9D8F80000D0F8582428460146904711F00DF832489D
:202D9C00324A07212B461CF0B5FB1AF04BFA10200DF142018DF842005A201AF061FA13B01D
:202DBC00BDE8F08FB040002080400020744400203DF7000079520100DD110200F43B0020CC
:202DDC00343F0020D82E0020284300200179000061010200E58701006DE2010001EC01000A
:202DFC0089DC0100DDF901001129010055150100A9FD010089870000A0500020AC440020FD
:202E1C00F5100200B9100200CD100200E1100200DD0C0200F50C02003DB20100144200209E
:202E3C0031C80100C1A7010025D0010001C00100C0540020185900201A5900201D5900206D
:202E5C00BA5700201959002080420020E71802002DE9F04FBC48BB4CADF12C0D4FF0E04713
:202E7C000125069040682169C06809931F400570B64808924FF0000505704FF0020000EA34
:202E9C00020008BF002840F0C382DFF82893DFF828834FF480301E462F461040374008BF42
:202EBC00002833D14FF4003015EA060700EA020008BF00280ED137464FF480003D4000EAEA
:202EDC00020008BF002800F094820020087115F0E3FC8EE228460871EB201BF003F94B4668
:202EFC002846414618700878862802D1284619F065FB1EF0A2FCE1690A682B461371096893
:202F1C00E1611EF011FE1DF025FC72E22846069F08713868B8300268DFF8F8A217784FB92E
:202F3C0053461F7837B1D0F894048047069821690068B830B84E81225346FF251A7027782F
:202F5C003570806CA7700023A3814E461D46097AC0893570891E8DB2A842C0F23E82E16972
:202F7C000831096804F1180001604FF0040BA4F80CB0607EA17EE67E00EB0120608104F134
:202F9C0019032671069E59783268C1F30119B8321168ED1EADB209780793002908BFB9F103
:202FBC00020F00F01A82B9F1020F00F3168261B110F0070F00F0118241460978862904D1DB
:202FDC0000F00701022940F00882011301F0020102296FDA667800F00700022862D1002E1C
:202FFC0060D1D06990F88300022858D0E1690C31097805A801700527A7811EF01EFC4546C1
:20301C0006462878862847D106980068403001680F6837B9D0F80C05804706980068006C8A
:20303C0007689DF914001EF04CFC787706980068016C096800228A77006C9DF91410006881
:20305C00C17730461EF070FD267967891EF0F5FB80462946087807F0100786281BD1C34D31
:20307C0005F11E021088401C1080872008701DF013FD40461EF058FD08201BF061FBE87985
:20309C00B04206D11FB9002014F002FF07E01B20FAE7E920F8E7464630461EF045FD1DF004
:2030BC0059FB9CE141460878862804D1002019F085FAA77866788FB186B9012F00F08D8147
:2030DC006089022F03D110F0070F40F08681032F05D100F00701032901D07EE1608901094A
:2030FC0080F07B81011301F00201022902DA810A80F0738107994978C1F3810A8F11BAF15F
:20311C00010F00F06A81012F00F06781BF49B9F1020F09D0CA5D11F80A108918CEB2DFB109
:20313C00C10919D3B61E0BE07A185144127909798918CEB2C1090BD25AEA07030CD0B61C06
:20315C00F6B209E0C054002014010020E84400205AEA070308BF0226C0F30020311A6071E1
:20317C008D42C0F23A8106990968AD1B2D18A8B2D1F850122081743080B28847002865780A
:20319C00606100F02A810021742213F0BDFE0020E07062891DB9074902F0200008700548EA
:2031BC00617905784FF0000C002D3AD0002938D104E0C0461A5900201D59002002F00700DC
:2031DC00032808D001282CD106980068D0F8D40090F882502DB306984068406905781DB194
:2031FC001DF012FEFE2819D006980068D0F84C02804750B906980068D0F84402804720B9E7
:20321C006289617994F803C00BE084F803B06289617905E018590020753F002084F803B026
:20323C00DC46656905F17403AB6505F17400686023892B81079B208993F801B00029CBF30D
:20325C000118A5F85C001878AA8100F0780048EA00004CEA000028744FF0FF03AB730CBFEF
:20327C002079002085F8307085F83AA085F84900A089002EA0EB010087B2A78100F0AA80E1
:20329C00E169E68068463246C919083111F0E8FAF619B0B2A0812846027C4FEAAB0111F0DA
:2032BC00030F01F003076D4602F0400940D0B8F1020F4FF0000301D1D1090BD29DF80120AC
:2032DC009DF8001001EB0221A0F844100DF10205A0F842106D4EB0F84410B6F842208A42B0
:2032FC0003D04FF6FF728A4220D1032F11D06A78297801EB022189B24186B6F84020AD1CEE
:20331C0001208A4211D04FF6FF728A4218BF181C0BE06069294632301DF08EFE60693736E2
:20333C00314632301DF024FA08350346002B48D007984078861120D06069B8F1020F03D070
:20335C00017CC90903D309E059EA070706D16A782978AD1C01EB0221A0F84210032E07D0CE
:20337C0069782A7802EB0122028506E0E04200206069294628301DF05FFE608900F0070015
:20339C00032809D0012825D106980168D431086890F88200F0B102E006980168D431D1F810
:2033BC00741160698847A8B90020079FE070B97866697878C1F3011100F078000843307450
:2033DC0008E006980068D0F8FC143148884715F063FA04E00AF046F901E01DF0BDFB1EF090
:2033FC002CFAE1690A68002313710968E1611EF09BFB089A099F202100201140384008BF96
:20341C00002919D01DF07CF916E0C046E43A0200204B214A93F90000401E187092F900000D
:20343C00401E107093F9007017B91C482A4602802846087115F030FA174A92F9000098B125
:20345C00089B099F02214FF0E0401940384008BF002912D092F9000000280EDC069800683D
:20347C00D0F84C05804708E00D480021069F01703868D0F858240846904706984068C06865
:20349C0000210BB00170BDE8F08FC046643B00209C420020EA440020E9440020023A0020E5
:2034BC00E64400202DE9F04F0222ADF1340D502600230A9193490990081D027040224A71F1
:2034DC0081464E721846C87380228A710022CA7188890A7240F430508881A0228A72184650
:2034FC000874C9488A7300F138021768CB722FB90A6822F00F0242F0020204E00A6822F024
:20351C000F0242F00102C148CC4F6FF30F1248F220230025134300780B6089790C9587F8A5
:20353C002A1060B9284617F00BFB384690F82A00000911D3284608A98DF8200009E0384659
:20355C0090F82A00000907D301200DF121018DF82100522019F084FE1DF03EFAB84FDFF8B3
:20357C00E4B200280B9040F0BC800DF0ADFB5FEA000A40F0A980B14ADDF8308021207421C3
:20359C001C3215461EF05CF8002858D12120414674222B461DF03CFD002850D1A748408E98
:2035BC004FF6FE7181424AD0A44890F842004FF00108082806D0042804D00DF05DFEDDF82D
:2035DC0030803CE0444642200DF122018DF8224019F046FE05F12F01432019F041FE05F1FB
:2035FC002C01472019F03CFE05F11C014A2019F037FE05F11A014B2019F032FE05F124014D
:20361C00304619F02DFE05F11601532019F028FE05F12D01542019F023FE05F11801E12063
:20363C0019F01EFE854890F82A00000938BF0C9C52200DF122018DF8224019F011FE0C9CE8
:20365C0012E078680C9AA60006EBC40621460C2336180096012019F02FFF18B9307880F0BA
:20367C00FF003070641CA4B20BF1040039880068A142E6DC00B1804718F031F8B8F1000F8A
:20369C0018D01DF029FF6149888428B999F8000000F0F80089F80000684F03200C4600260E
:2036BC00487005F1390187F8426004F11C001DF0C3FC01E04FF0090A7D480021BAF1000F35
:2036DC00418008BF0B9102D0012779480B9780465A484E4E90F83410012707FA01F03061D2
:2036FC007FE00DF0F1FA0DF0C7FD544A212074211C321DF043FD02A8FF210C2213F004FC9C
:20371C002C460BE0BC57002002A8009021462A460C23012017F04CFF641CA4B23888A042D2
:20373C00F2DC5846006800B180472846ADF808004FF4A17011F042FF071C10D0FF214FF40A
:20375C00A17213F0E1FB02A800884FF4A1713A46388042201DF012FD38461AF023FB28460A
:20377C00ADF810002946062202A813F0CDFB142011F024FF071C1AD09C480C30006898B136
:20379C000326022002AA136881B2C919801D92880B60761E8A80F5D104A8008814213A4617
:2037BC0038804C201DF0EAFC38461AF0FBFA182011F004FF071C10D02946182213F0A4FBCF
:2037DC002C4604F2012018213A461DF0D7FC641C032CF6DB38461AF0E5FA19F005FD34483D
:2037FC0080460B98012871D10748144C00781C3450B301280CD0022812D199F8000000F0CC
:20381C00F80040F0020009E0343D0020F43B002099F8000000F0F80040F0010089F800006E
:20383C009D481CF02AFB002808BF002003D0A04A04210320D1729E4948700EE0D43A002044
:20385C00BC4400203C4300209949022099F80070487007F0F80089F800001DF028FF09998A
:20387C00944F934E00F07F000818643080B20C90786C02213061FF201AF03AF98E494FF667
:20389C00FE700D464886471CE8860020A1F840701AF020FA8748007801280ED10A98012805
:2038BC0008D002A80021082213F02EFB02A802E010440020002019F00DF921207421224686
:2038DC001DF05CFC002002211AF012F97948DDF82CB0C07804287BD1444DE86878B91220A9
:2038FC0011F06CFE0028E86072D04FF6FE71861F032726F8061F00207F1E7080F9D1BBF1A6
:20391C00000F65D106AB4C20002102221DF080FB002856D1BDF81800002852D0042850DAA0
:20393C00182011F04BFE4FF003090227002441F2D87A0646EB68B9B24C2006221B191DF0ED
:20395C0067FB98BBE868015B4FF6FE728A422DD066B3201840880021182233461DF058FB1F
:20397C003069EB6800F2E932326118194188EB68880000EBC1004019A0EB0A00026018199D
:20399C0041887369880000EBC100E96841F2D4724019801A036008194088324618211DF06B
:2039BC00EDFB30460021182213F0AEFAB9F1010904F1060407F10607BCD116B130461AF0FB
:2039DC00F1F93C4B7120002108225C331DF020FB3248384E324FC8F80C00F078C8F81070D2
:2039FC00042805D01BF00EFD2F4804E0F43D00201BF0F4FC2D482B49BBF1000F08601AD0F7
:203A1C002D4890F85D00B0B93046C078012812D13046007B78B1622002A913F055FF02A8C5
:203A3C0000211BF083F8002010F09CFC02A80021102213F069FA1E48806950B11C4C1834A4
:203A5C00076820681AF0AEF91949384600288861F6D109984FF6FF71814217D01448012568
:203A7C00024600271146057014468F7285200A3229461DF0E5FD0A3428B9852039462A46A2
:203A9C0023461DF0C5FA0C981CF0ECFA1BF0BCFF58460DB0BDE8F08FB0400020DDC8000045
:203ABC008D120200D04200200D0D0200FF020200F43B0020343D0020D43A00202DE9F04F95
:203ADC00C84DDFF824B3CC4E0C46E00BADF1140DC00340F0A781DFF81483DFF8189360087E
:203AFC0080F03E812878DFF808A3A10B80F00F81CB480768600980F0EC80200928BF84F062
:203B1C00080480F0AF82600A80F0A280E00880F09580200A63D2A00A5CD2C54D200B2BD202
:203B3C00E00A27D3142011F049FD071C1FD00026B146287A012813D106F211184946142246
:203B5C003B4640461DF064FA50B928683860686814213A46786040461DF010FB85F8089096
:203B7C00761C0C35032EE4DB38461AF01BF984F4806078E2002076E2182011F01FFD071C28
:203B9C0025D000262435B046287A012813D106F20129414618223B4648461DF039FA50B9B5
:203BBC0028683861686818213A46786148461DF0E5FA85F80880761C0C35032EE4DB38469E
:203BDC004146182213F0A0F938461AF0EBF884F4006048E212F0E0FD84F4007043E215F00E
:203BFC00BBFD287805281DD1287A042116F0ACFE287A042115F082F806201CF0E1FE1DF05B
:203C1C005FFB12F0C9FD17F0AFFF58460078000904D35146C91D0878012805D168691AF0E4
:203C3C00F7FF01E01DF04CFB01201BF03BF90320012101F083FA84F0800014E2FF200321FD
:203C5C0019F056FF1DF060FCBE4901200860FEE7424692F84200082818BF042815D11C3251
:203C7C00212074211DF08AFABE4EBF4871683288C3690025B1468046AA4209DC0BB1184622
:203C9C0080470020022119F033FF84F48074E9E1A80000EBC5000F5C37F07F0C16D017F02B
:203CBC007F070F54084405D101A8FF210C2213F02BF901A80090294600220C23012017F09E
:203CDC0077FCD9F80410D8F81C3032886D1CADB2D2E74FB17968087818B14868007813F0A4
:203CFC00A1FE3F68002FF5D11DF0F6FBA8841DF095F851460878012806D1454628784FF424
:203D1C00006164221DF060FD84F01004AAE10C280FD00C201CF054FE2878012803D00228C0
:203D3C0018BF0C2801D100206871504600F134010DE002201CF044FE2878012818BF0228AE
:203D5C0004D10120687100201CF08CF949460A68287A4FF400511DF037FD84F4005481E121
:203D7C0001201CF02DFE30786F7800F007011220012918BF022949D14FB3032F27D0012F75
:203D9C0044D101290CD00A201CF01AFE4946287A0A684FF400511DF017FD10F0F7F835E042
:203DBC000A201CF00DFE454628784FF4806116F0CBFD502004A91BF029FCBDF81000A5F8DA
:203DDC004000BDF81000002113F040FA25E01DF0FFF998B1032F11D01DF069FC0DF0C2FAD3
:203DFC0014E0C046F43B0020C2570020D43A00203C3D0020743D0020C057002002201CF028
:203E1C00DFFD9A492869097816F08CF928B1287A01214FF47A721DF0D7FC84F0010421E103
:203E3C00B8440020924FDFF84C924FF0000A10E1043E00200246167839782B783046401E1A
:203E5C0000F0E580401E21D0183800F0FC80B93800F0F5802A3800F0F980361F0DD0361F3E
:203E7C0040F0F480012918BF022940F0EF80107910F078FA1DF024FAE8E0012918BF02299D
:203E9C0040F0E480404606F065FBDFE0012918BF022940F0DB8099F81C004E46072818BFD9
:203EBC00082805D16A7A1AB9012101F047F92B78032B00F084800A2B11D0042B15D00E2BAE
:203EDC0013D00F2B11D00D2B0FD0002B00F0BE8017F04AFE287A102115F0A2FEB6E068484B
:203EFC00007800F00700012869D06E7A68785EBB5046287318F030FAC0B106201CF060FD91
:203F1C00287A4FF4005116F01FFD9BF80000000909D3FE7B3EB950461AF07AFE50461DF08A
:203F3C00E7FA1DF0EBFA17F01FFE8FE0788E1AF06FFE05201CF044FD42F210701CF0A2F8B6
:203F5C0084E0C0467C052043297B01280ED0032823D10320494B6870981C80F800A00126AB
:203F7C00AE711AE0BC44002028430020491CC8B20428287304DB4048007801280BD00CE0EC
:203F9C003E4800884FF6FF71814204D0032068700423EB72E3E785F801A01AF0F1F81CF045
:203FBC0035FA9BF80000000902D3F87B01284DD1687803284AD1788E1AF02AFE46E06B7A22
:203FDC001BBB287A102115F02BFE18F0C5F990B1287803280BD117F0C7FD307F022806D1C5
:203FFC0001201AF05FFF0220012101F0A7F806201CF0E6FC2AE0788E1AF00AFE05201CF0E1
:20401C00DFFC012018F0A6FD20E05046FAE7022B1CD1012918BF022918D11DF0DBFA40B95C
:20403C001DF008FB00280CBF5046012019F072F90CE012F067F948B116F07CF906E0404608
:20405C000FF0FEFE02E040460BF0BAF940461BF089FF287A15F0B6FD5FEA00087FF4EAAE64
:20407C0084F40044A0B205B0BDE8F08FFD3F0020343D0020C03F002081400020143B0020E1
:20409C00C05700202DE9F04F04462089ADF1440D28B1C2482A30008808B11BF0A7FB4FF02C
:2040BC00000B52200FA98DF83CB019F0D9F86068217A01AA0BF000FF002800F069829DF8C4
:2040DC0006000228B4BF01275F469DF808000228A8BF5F46BDF80E004FF6F87880450BD069
:2040FC0008F10101814207D008F10201814203D008F10301814200D15F461DF0E7F99DF8C5
:20411C000710884240F04482002F00F041829DF83500002840F03C82208D9DF80A60678E49
:20413C00ADF83000ADF8127056B161689DF805209DF8203001201CF01FFC002840F02882AE
:20415C009DF809709DF80A50DFF87492002F4CD19DF821005E4658BBBDF80E00034618F09C
:20417C0079FB3746022808BF0127002F9DF8067018BF012649460988994208BF46F00206E1
:20419C0026B1002F14BF402120210E43184618F061FB012808BF46F00106002F3DD00B9A67
:2041BC0010781CF0A3FF012818BF26F0010635E09DF8250088B1FF280FD09DF824700C2F1E
:2041DC002BDA57B30A99891E1DF086F931F8022F904222D07F1EF7D11FE04946BDF80E709A
:2041FC000888B84208BF222617E0BDF80E10FF201AF02CFE002808BF082608D09DF809005A
:20421C0047F001072C2640F001008DF8090007F00307012F08BF46F011060B9A8DB9C748F3
:20423C00007870B106F0220022280AD006F04200422840F0AD811078062818BF072840F0A1
:20425C00A781F0094FEAA61A48D317783846C01E012825D9001F23D0C01E21D0801E1FD08D
:20427C004946BDF80E600888B04240F091810520BDF810408DF839000EA81BF053FE00288A
:20429C0000F086810269032313261370511C0E704C7022128A70CF70448008F03BF877E163
:2042BC005FEA5A001AD3032F02D150780D2815D09DF80C0038B1BDF8100007990CF0ECFE96
:2042DC00012800F061819DF80B0038B1BDF80E0006990CF0E1FE012800F05381B4F84470B4
:2042FC0049460E310888B84209D1CDF800B0208DB4F8421094F846205B460DF097FE9DF896
:20431C000A00A54DDFF89492002872D0208DB4F842101DF00DF8071C54D19DF83500002827
:20433C003ED195F88800012863D10B980078062802D15FEA5A005CD2BDF8121008F107001C
:20435C00884200F02581BDF80E0049460831097811B1698E81421DD0594613F041FA80B15E
:20437C008079BDF81020BDF80E1010F0180F0CD0608E00901046238D9DF8212016F08EFE81
:20439C0006E1BDF80E10BDF8102010465A4613F00FFDFDE017F058FFFAE0C046343D0020B1
:2043BC0004201BF015FD011C00F0F2806420087001274F70208D4880287816F07DFFE7E0E0
:2043DC00063B00209DF805106068FB780A18527B9A4203D0FA7058467860606840180421B8
:2043FC00401C1BF09CFF7968814200F2D180401C786095F84200042818BF092840F0C88009
:20441C009DF81610B00980F09B800B995FEA5A00C0F0BE800878042804D19DF820000228EC
:20443C0000F086800A78072A04D19DF820302878042B45D0032A3ED00C2A40F0A98048788F
:20445C008E7878BB4C4604F11B0251200121167090461CF093FE52480127077028780221DB
:20447C0018F078FAA8B9E07EA37F022811D1002B14BF4EF660204FF47A704A4951F82310BB
:20449C002B7803224843B0FBF2F2022118461DF098F970087CD3E6765120394642461CF058
:2044BC006DFE75E0E98E01201BF088F82878012116F04AFA6CE001A8594618F00BFA67E009
:2044DC004FF4806116F040FA374A90881DF016F8D0881DF00DF84C465F461B3427700920F8
:2044FC0085F842001CF09AFC014606981CF040F901284DD110201BF06BFC074607990B989C
:20451C00002F00F1010043D002223A704378027802EB03227A80807878704A2018F0A0FE4C
:20453C009DF80A0010B9214905200870394643E7584601A907F08AFA2AE0C046FB3A00201F
:20455C0094F8460094F847708DF8380094F948608DF8397001298DF83A600CD1208DBDF882
:20457C001010884207D1BDF80E0018F073F9022808BF8DF816B0E26B01A80EA900F010FA43
:20459C0006E0BDF80E0001E0BDF8100017F054FC11B0BDE8F08FC046D43A0020343D0020AF
:2045BC004C3E002078330200E0430020F43B00202DE9F84FDFF834830F460646F80B80F0F7
:2045DC009B81C74DCA4C2878B90F80F03581DFF824B3B90880F02881DFF80893DFF808A36F
:2045FC00F90A80F08B80390B54D2380907D2F80FC0F0BA8127F0804715F01EF8B4E11DF010
:20461C001CF905461BF048FA00283DD01AF06EFB002839D04C4603202070D0481DF007F98E
:20463C0028461DF081FA0EF0CDFC022000211BF021FA022019F0D0FB11200EF0F7F8CE480E
:20465C00007820B95546286848301DF00CF9CB48007810B90E200EF0E9F8607B20B100200B
:20467C006073052019F0B8FB002041462070C44AB1F91C00B1F91E106260884214BF022006
:20469C00072012F02FFD02E028461DF04DFA27F00807B1E720B1042019F09EFB00202870F8
:2046BC0055462E6819F0E6FB40B1F0696FF4807100224FF0007384463046E047B14E306853
:2046DC0058B12068006B8047326829680024801AC860C8683460000BC860AB48AB490022EA
:2046FC001DF0B3F84C46584602210068217010B1A7481DF0C0F827F400677DE71DF09DF89D
:20471C0000901BF0C9F9002840460068834600F08580002800F082804846042606709D491E
:20473C00994800221DF091F800981DF0FDF98B481DF07DF82068006B80474FF00108DFF8FB
:20475C0044C285F8008064462060304619F05EFBDBF810005546416A2860C90804D3016A74
:20477C0000220B4631469847404614F035FF286880F815800DF04AFA2D68D5F8089040F688
:20479C000A01A446C81F421C4E4600E02646746834B12388994203D0984218BF9A42F5D176
:2047BC0000217160737B08F00F0423F00F031C437473DBF80C301B88984225D09A4223D037
:2047DC002C8E1CB3696305F13002518095F83C000B4603F00F0320F00F00034385F83C3002
:2047FC0095F83D0008F00F0420F00F0044EA000385F83D307260707B01F00F0420F00F00AE
:20481C0044EA0001717301E0CCF8001048461CF017FD014640461BF02DF902E000981DF081
:20483C0083F927F480679FE010F050F95846006808B927F0020797E0574A116841F08001EC
:20485C00116020B1042019F0C7FA002028701CF0F4FF8146606D0068014604208847D8B196
:20487C00307DC8B14D480568B5B120683469006B8047401B30613069000B30613069A0429B
:20489C0003D2001940083061306940F6C41181422CBFB0F5967F316148461DF045F919F0B5
:2048BC00E9FA88B1F0696FF4807100224FF0007304463046A04741460868002808BF47F07B
:2048DC00020701D014F0B8FEB06900214FF0806304460A463046A04727F0005744E0C0463D
:2048FC00B957002034580020A8570020505500208C010010585500201CF09FFF41461831F8
:20491C000E686EB306F1280191E80C004FF0E0450A241D4004EA020108BF002920D106F187
:20493C00280191E8300006F1280393E8060006F12803AA43A14383E806001DF0F5F8B1686F
:20495C0081B1002D08BF002C0CD03069B6F93C10B2682B4616462246B04703E0E4540020F8
:20497C001DF0E2F827F480471FB1094839461CF082FFBDE8F88FC046B85700209E3A0200EA
:20499C00F5010100B05700200C5600208523010048530020E1FF0100CC210840AC570020BE
:2049BC002DE9F04FADF1840D1B9100241C9206468DF84240D6F828C08DF84340317F8DF893
:2049DC004D40B28DADF844400F46ADF85A20F2898DF854706046ADF84A20027802F0030367
:2049FC00022B8DF8402000F3C08123461D93401C1F9353083CD202F00C0EBEF10C0F0CD013
:204A1C0053093CBF10F8013B8DF84230BEF1080F04BF01238DF84C3001D08DF84C40BEF1A9
:204A3C000C0F0AD0737903F00303012B0CD142F00C0273898DF8402004E045780378801C9E
:204A5C0003EB0523ADF84430530911D245780378801C03EB0523ADF8463003784578801CF3
:204A7C0003EB0523ADF8483010F8013B8DF8433010F8013B32F07F058DF855301ED003784E
:204A9C0033F003058DF8413040F06B8103F0030EBEF1030F00F0658113F0030F00F101001B
:204ABC000ED010F8013B02F00305022D8DF8573004BF10F8013B8DF8583001E08DF8414088
:204ADC001490A0EB0C003F1AFFB2B942C0F24981C91B8DF85470C8B28DF84D00074300F04B
:204AFC004481D00907D3708917F0B4FE002840F03C819DF8402002F00C002146001F08BF1B
:204B1C0001211E91910933D301211F9180B3B2891CF0E2FC904202D1F08D000A0ED21CF0C6
:204B3C00DBFC904222D0F08D01460B0A38BF101C07D39DF8402002F0030C2EE07089ADF846
:204B5C005A2080461CF0C8FCBDF85A10884205D0404615F0A5FD002800F007818448026868
:204B7C0010A940469047002840F0FF809DF84020F08D02F0030C01460B0A0ED2D3090CD3C2
:204B9C009DF8413013F0030F07D102F00C030C2B03D0082B1CBF01231D93DFF8DC81BCF138
:204BBC00020F00F0BF80BCF1010F00F08D8012F0030F40F0DA806F4A92F82720012A03D1B8
:204BDC00B779002F00F0D1809DF8542002231A92040A9DF84250BDF846B0BDF848A09DF82D
:204BFC0055E09DF857C0DDF850908DF86430B2899DF84370ADF85C2034D21E9F40461630B7
:204C1C00046897B91D9F1FB1104610A910F0DCFA1F9800901C9F0197B07C1B9A0290F37CCF
:204C3C0017A910A80DF0EEFF9FE0307C002C8DF8560000F09A801CF04FFCBDF85C20904260
:204C5C0040F0938030791F9F00901C9D01971B9A02951D9B039196F8300010A9049017A84B
:204C7C00A04782E0ADF830008DF820308DF8227034798DF833407189ADF818108DF835E008
:204C9C008DF82350ADF826B0ADF828A0CDF82C90307C8DF836C0B27C8DF8320096F830309D
:204CBC008DF83420334C8DF83730B4F8401096F83270ADF824101A998DF8387006A8ADF85C
:204CDC002A1004F06DF850E01D9FB58937B1000A04D2284610A910F077FAB5899DF8540074
:204CFC00B6791030C0B21BF073F8071C3DD07D81022038703E737C709DF854203A7207F1FF
:204D1C0010057D609DF84000800928BF01247C72149978680FF0A4FD40460078394616F07D
:204D3C00CBFA22E09DF8417040461E30B189036817F0030F10D110A807901048ADF8181063
:204D5C0006A919F05DFD80B1062141730068407B214617F095F808E03BB110A82246984728
:204D7C0003E08DF84D408DF8544021B0BDE8F08FCC420020D43A00208240002055B10100CF
:204D9C002DE9F04FCC4CD74DDFF85C83C80BADF1140DC003019140F0C1810846400838BFCA
:204DBC000020C0F0C68167681CF0BAFE4FF6FF7281B267B13B887888CB1A9BB2984210DD70
:204DDC00C01A8242C8BF82B2FF68002FF2D14FF6FF70904200F08E80207801211CF0F4FCCB
:204DFC0088E0B879022878D01CF09AFE97F83810388005F10A000078884267DD97F836000E
:204E1C00FF2808D197F83800401C87F8380097F8370087F8360097F8356097F839300020E5
:204E3C00012101E0401CC0B2834210DD97F836C001FA00F28CF0FF0C12EA0C0FF2D03618B3
:204E5C00814097F83600F6B2014387F8361097F83400B98F10FB06F2891A89B28842C7BFC3
:204E7C00FF2087F83600011C97F8360095F82020FF2818BF97F83A0006D14046007864256E
:204E9C0010FB02F212FB05F0788046B9388D3E7A40F020003885386C87F82E600BE03A8D11
:204EBC004FF6DF70104038853D6C87F82E6097F8342012FB06507862F879CEB287F82D00C2
:204EDC0007F110007E8403F06BFF0FE0B87E97F82A10E92219F041FE05E0387CFF2802D07C
:204EFC00B8691BF03FF8384619F062FA2078012114F096FE019880F0010019E12878012831
:204F1C0040F0098195F8338095F813A06F6995F831006988022219F04FFE05F11C0405F12E
:204F3C00020B06460020002E02907DD1687F400878D3A87FCDF80CA01CF0D2F9BA4605F1EF
:204F5C001009071C63D01C2010F038FB061C5CD000211C2211F0D8FFA87F69461BF06EFB88
:204F7C009DF8010002213075304618F065FE6888317DB08095F83100FF23F07103FA01F0D9
:204F9C00707478680078307495F83000B07495F8331011FB00F0303080B21AF019FF074667
:204FBC00B76127B9304619F003FA00262DE01A20387000237B701A467A80E0885946B880A5
:204FDC00B81D1BF08FF8E078474BF87303F1200000883882608BB88560897882A0783875D3
:204FFC00207B787599F80000B87599F80100F87599F902003876039A7A76C7F81CA007F10E
:20501C003001B962A07D87F82400304600E00020002806467FD0284886F80880007801211F
:20503C0014F0FEFD002E76D0307AA8EB0000B0F1FF3F04BF01200290307CFF2856D060787E
:20505C00400828BF4FF00008317DF07C4018404503DCF074FF2088407074B069B17C227DD4
:20507C00806A08FB010021690FF0FAFB029F317D727C012398FBF1F04843A8EB000003FAB8
:20509C0000F11143C9B27174C7B1401CFF2202FA00F001437174B769B17C207D08FB010057
:2050BC00F884707CFF2809D1307CB16916F004F9FF2030741AE0C046744400201CF030FDCE
:2050DC003080094F0748074B90F82010387810FB01F1987A6422401C10FB01F010FB02F0B9
:2050FC00708003E0343D0020F43A0020F17C327DA8EB0100801AB0F1FF3F04D0707CFF28D2
:20511C0001D0029F3FB1E175707C2076BBF80000214610F059F828461AF024FF064800786D
:20513C0014F050FD051C7FF4E9AE019880F4004080B205B0BDE8F08F744400202DE9FE4350
:20515C000E46C24ADFF808831178401E072800F29C81DFE810F07F015C01F600DF00BF0014
:20517C007D0046000800052044468DF8010094F83B005EB3E07F20770027E7774FF47A7093
:20519C0019F046FD0D2694F83B0084F83A6000F0DF0084F83B0004201BF012FC217F3846B6
:2051BC0006290BD1216949B10A7BD30903D302F0BF0201200A7349690029F5D1002800F003
:2051DC0064814FF480414FF47A725BE140F02000022784F83B00002084F83A7019F018FDCB
:2051FC0053E10025012E8DF8015014D01CF0F2F960B1052044468DF8010004F13B01087863
:20521C0040F0200008700A201BF0DAFB4446022084F83A0017E04FF47A7019F0F9FC642098
:20523C001CF06CF91CF064F904201BF0C9FB11F031FD44460D200421C82284F83A00607802
:20525C0025771CF0C1FA94F83B0000F0EF005EE0032044468DF8010094F83A0008B9012010
:20527C00A0712078002840F03381627820691BF076FD002840F02C8110464FF4804117F016
:20529C0069FB002840F0248100256561A56119F01FFE60784FF4804115F056FBA07928B156
:2052BC0094F83A000B2808BF84F83A50A571217F6078062904D0E07F062808BFE57704E0E7
:2052DC002577042132221CF07FFA94F83B0000F0F7001CE00220012E8DF8010005D0444638
:2052FC000820002684F83A0007E0002644460321304684F83A6018F0FBFB607826770421AF
:20531C0032221CF061FA94F83B0000F0FB0084F83B00BAE001208DF801002EB16D49002057
:20533C00087006201BF04CFB4446002020776078042132221CF048FA94F83B0000F0FD00CD
:20535C00E5E7012918BF022940F09F8045466878042132221CF038FA286A012E49D00026C8
:20537C004FF47A708DF8046019F052FC0127022085F83A0095F83B408DF8017001A92E7756
:20539C0004F0FD0085F83B00522017F069FF1BF0ECFE17F047FF504C606820B1606818F020
:2053BC0001FD26806660DFF83491D9F800407CB120686768006A18F0F5FC206818F0F2FC55
:2053DC00606918F0EFFC204618F0ECFC3C1CEFD1484606601AF026FF4148007815F086FBDD
:2053FC0030461BF0EDFA286A00284ED018F0F8FDF9E70121297720B118F0F2FD286A002830
:20541C00FAD14FF47A7019F003FCBDE8FE8300201BF0F4FD042701208DF80170107446B171
:20543C000020444684F83A0084F83B0006201BF0C7FA4446002020776078394632221CF04F
:20545C00C3F994F83B0000F0FE0060E7343D0020C03F0020012918BF022916D1012E23D093
:20547C000120444607278DF801004FF48051607884F83A7015F068FA0020022141F2883208
:20549C0084F83B0060781CF09FF94446606AF8B194F83A00002103226B468DF800000A2054
:2054BC0016F0E2FFBDE8FE830020032118F020FB444604213222607821771CF085F94FF41C
:2054DC007A7019F0A5FB60784FF4805115F03CFABDE8FE83FA3F0020BC440020C44400202F
:2054FC00D43A00202DE9F84F9D489F4A01789D4811709E4C41705C3060619D4908600AF028
:20551C007FF89D4DDFF86C9200264FF00A0A05F1010BA0684FF0FF311CF0FEFA0028F8D053
:20553C00207814F04FFB5FEA000800F032810146AB690A782078923A00F09580921E73D03C
:20555C00921E00F08D802F3A1ED0521E0CD0521E04D0D21E7CD0521E76D087E0E878FF28BB
:20557C00BCBF401CE87081E01F885FB9EF7ABF1F012F05D9FF1E03D0304611F077FD75E03B
:20559C000120FAE70320F8E70B79CF1C9B1E0DD0DB1E15D1C8780D2812D0206942F2107172
:2055BC001CF099F89B481CF06CF909E03B783BB9B97841F002018DF8001069461CF0A4F8FD
:2055DC002E7178780FF28C2C00B3401E13D0401E09D0401E18D0801E1AD138780D2814BFB5
:2055FC009BA0604613E09CA0E8623B7883B92B6B73B99AA006E09BA0E8623B7843B92B6B9A
:20561C0033B999A0286303E099A000E099A0E8623878012824D0092822D00A2820D0BF78F6
:20563C000FB96046E8621BE01F88C878E872BFB9CF78BF1F012F03D9FF1E18BF301C00D1A0
:20565C00012011F013FD0BE0CD213246032304E08DF80060C1216A46082313F0B9F905E065
:20567C00FCF7DEF802E0081D0EF041F947463878712821DC71284BD065280FDC65285ED04C
:20569C00801F7BD042387ED0183865D0401E60D0401E012877D9801E54D077E066384BD080
:2056BC00801E45D0801E03286DD9001F3CD0401E36D0401E30D069E091280FDC912862D047
:2056DC00723802285FD9C01E1ED0401E18D0401E59D0C01E57D0801E55D057E092380BD065
:2056FC00C01E01284FD9303806284CD91B384AD0801E012847D949E0FB6A002B43D03FE065
:20571C00BB68002B3FD03BE07B69002B3BD037E0FB68002B37D033E0FB68002B33D02FE07C
:20573C00FB68002B2FD02BE0FB68002B2BD027E0FB68002B27D023E0FB6823B320E0FB6801
:20575C000BB31DE0786908B118F02CFBFB69D3B116E07B69BBB113E07B69A3B110E0C0465A
:20577C0090270020201B0020205900203C3A0020CC3C0020343D0020A4380020BB6813B110
:20579C00184618F00FFB40461AF0ECFB38461AF0E9FBE068C10B13D3617808290CD199F828
:2057BC000010012918BF022906D120788DF800A069461BF0A9FFE068667020F48040E06069
:2057DC00410905D3FCF72CF8E06820F01000E060C1092ED3287861280CDC61281CD0413802
:2057FC001AD0C01E14D0401E10D00E380CD0001F08D014E064380BD0401E07D00E3803D0D1
:20581C00001F0CD1012008E0042006E0102004E0022002E0B03A0020082013F069FB6869DB
:20583C002E70594601221BF05BFFE06820F04000E0608008FFF46DAE2078C42132466B4673
:20585C0013F0FAF8E06820F00200E06061E6C046504C00C02D2D00C04E4600C0464F524D52
:20587C0000C046C04E5300C04A4F494E00C046C0464200C0494E00002DE9F0410D466868A6
:20589C00ADF1180D002800F09D81002669686E70CB4C087860B1487800280CBF301C012056
:2058BC002246234601210C32187363201BF066FC6A68977867B1D078234600280CBF301C37
:2058DC0001200121DA1CD87064201BF057FC6A6817796FB15079234600280CBF301C012035
:2058FC00012103F10D0258736D201BF047FC6A6897794FB190682346383304211A46186016
:20591C0035201BF03BFC6A68177B4FB1D08923462A3302211A46188025201BF02FFC6A68E9
:20593C00177C4FB1508A23462C3302211A46188026201BF023FC6A68177D4FB1D08A234662
:20595C002E3302211A46188044201BF017FC6A68177E4FB1508B2346303302211A46188004
:20597C0046201BF00BFC6A68177F4FB1D08B2346283302211A46188083201BF0FFFB6A6877
:20599C0092F8207057B192F8210023465B1C01211A46187029201BF0F1FB6A6892F8227006
:2059BC0057B192F8230023469B1C01211A4618702B201BF0E3FB6A6892F8247057B192F836
:2059DC00250023460A3301211A46187043201BF0D5FB6A6892F8267057B192F82700234684
:2059FC005B1D01211A4618702E201BF0C7FB6A6892F8287057B192F8290023469B1D0121FC
:205A1C001A4618702F201BF0B9FB6A6892F82A7057B192F82B002346DB1D01211A46187056
:205A3C0030201BF0ABFB6A6892F82C7057B192F82D0023461B1D01211A4618702C201BF090
:205A5C009DFB6A6892F82E70AFB192F82F30102B8DF8003003DD10208DF800000346116B05
:205A7C000DF101001A460EF0FBFE812011216A461BF084FB6A6892F834704FB192F83510D8
:205A9C001029C8BF1021926B62201BF077FB6A6892F83C704FB1106C2346443304211A4614
:205ABC00186084201BF06AFB6A6892F8447057B192F8450023460B3301211A4618704B203B
:205ADC001BF05CFB6A6892F846706FB102F147000168406823464C331A46506011604720FB
:205AFC0008211BF04BFB6A6892F84F702FB15032012008211BF042FB6A6892F858704FB1DD
:205B1C0092F859000DF111018DF81100522017F0A7FB6A6892F85E70DFF8B4804FB192F806
:205B3C005F00434601214246187033201BF026FB6A6892F85C7037B392F85D0004F10807B3
:205B5C0001213A46387032201BF018FB3220314601223B461BF05CFA04F1090333203146D6
:205B7C0001221BF055FA1B48217A0078012904D04FF4006114F0E8FE04E04FF4006164227C
:205B9C001BF022FE6A6892F8607047B192F8610011496A68114F087092F86100387092F88E
:205BBC00627027B1506E6A6843463333186092F868704FB1D06E43463733186004E0C04633
:205BDC00343D00200220687006B00120BDE8F0813D3D0020D43A0020AD440020583B0020A5
:205BFC002DE9F04FC34D014695F83B0021F03101ADF1340D00280B9140F05E81687804211B
:205C1C0016F0A8FE002840F055810B99AF7895F83B0001F03F01012F40EA010085F83B00B7
:205C3C00014600F034810120A8701AF0D5FE012807D1562019F012FA011C02D0562017F04E
:205C5C0049F8AD4C00202071E06808B11AF020FDAA4847680023A24680467FB10C24786863
:205C7C0000781AF0BDFD061C05D0327C1AB10020824200F314813F68002FF0D1184619F0F2
:205C9C0015FD002859D1D8F80470002F55D0786800781AF0A5FD061C4CD0337C002B49D0B7
:205CBC004FF0000844E074690C2018FB00F94C44E079C00838D3786800788DF814002088F3
:205CDC00ADF81600A088ADF81800079A089B0699059816F02FFCB0B90DF1240B002104227A
:205CFC00584611F011F974694FF6FF700090CDF804B00A23029302460392CDF810B034F8F5
:205D1C0009104C440AE002681189D388009102F10A00019002930391049021887868A288E6
:205D3C00007811F047FB337C08F101005FFA80F84345B8DC3F68002FA9D19AF80200DAF840
:205D5C000C20162410FB04F081B256201BF078FC0AF10C060A282BD0092825D01AF098FC9C
:205D7C00562019F07BF9B0FBF4F0C7B2384619F09DFC01281CD0336814FB07F082B20021E1
:205D9C0056201BF045F98AF802700DE041680468CAF8141018F006F89AF81000401E8AF8C4
:205DBC001000204617F0FEFFDAF814000028EDD105F06EFA1AF06CFC05F13E0355200021E5
:205DDC0001221E461BF024F9307801285DD14C480078012818BF02283BD14A48006800219C
:205DFC001AF019FD002834D11BF0F2F988BB40F21110102101220AAB1BF00AF99DF82800DA
:205E1C00FD2826D09DF82800022822D005A80021142211F079F8FF2740F21110142105AA9F
:205E3C008DF824701BF0AAF90024374885F83E40012104613246446155201BF09FF9032101
:205E5C00384617F055FE68782C77042113F0E8FE4CE00B9895F83B10072400F02F002C7729
:205E7C00084340F0100085F83B0000200146FDF719FB10B90DF0DAFB38E0002019F012F86E
:205E9C0000212046FFF75AF930E095F83B106878002904BF07242C77F2D00024D4E7716919
:205EBC0010FB0411C979C90824BF5B1CDBB2401CC0B2DDE695F83B00810917D295F83E70A5
:205EDC0077B10B9989080BD31AF0D4FB04200121FFF734F90B9995F83B0081F002010B91AD
:205EFC000B9901F03F01014385F83B100DB0BDE8F08FC046C03F0020A0500020B444002077
:205F1C00343D002088400020F43D0020F0B50E467068ADF1140D002800F08381B0680028AF
:205F3C0000F07F810025C14C7268757004F10C00177803783FB1B06801210170284603B19C
:205F5C000846B16848707068E378477847B1B06801218170284603B10846B168C870706858
:205F7C008778637B47B1B06801210171284603B10846B16848717068C778A16B2FB1B06827
:205F9C0001228271B068018170680779618D2FB1B06801228272B068818170684779A18D00
:205FBC002FB1B06801228273B068018270688779E18D2FB1B06801228274B06881827068D0
:205FDC00C779218E2FB1B06801228275B06801837068077A218D2FB1B06801228276B068D6
:205FFC0081837068477A61782FB1B06801228277B068C1777068877AA1783FB1B06801228E
:20601C0080F82020B06880F821107068C77AA17A3FB1B068012280F82220B06880F823100F
:20603C007068077B61793FB1B068012280F82420B06880F825107068477BA1793FB1B068A8
:20605C00012280F82620B06880F827107068877BE1793FB1B068012280F82820B06880F8CD
:20607C0029107068C77B21793FB1B068012280F82A20B06880F82B107068077C37B3B06802
:20609C00012111226B4680F82C10294681201AF0BFFF9DF80000B16881F82D00B26892F85A
:2060BC002D1089B10FF08AFAB1680863B268106B002808BF82F82D5006D09DF800200DF142
:2060DC0001010EF0CDFB00E015637068407C80B110200FF073FAB1688863B168886B40B122
:2060FC00012081F834008B6B1022622029461AF08FFF7068616C877C37B1B068012280F8C2
:20611C003C20B06801647068C77CE17A3FB1B068012280F84420B06880F845107068077DCC
:20613C0067B1B068012104F14C0780F84610B0683A6847300260796841607068477D67B112
:20615C00B068012180F84F101AF068FEB168026850310A60406848607068877D87B152205E
:20617C000DF1110119F052FA9DF81170B068012180F8581007B92946B06880F8591070686E
:20619C00C77D3FB1B068012180F85A10B06880F85B507068077E237A57B1B06801212A46AC
:2061BC0080F85C1003B10A46B06880F85D207068477E617A3FB1B068012280F85E20B0681D
:2061DC0080F85F107068877E5FB1B1680120184B81F860001F7807B10546B06880F861507E
:2061FC007068C77E4FB1B068012180F8621015F0DBFDB16881F863007068077F3FB1B0680A
:20621C00012180F86410B168E06B88667068407F48B1B068012180F86C10B168206C086730
:20623C0001E00220707005B00120F0BD343D0020AD4400202DE9F04FA34CADF1340DDFF840
:20625C008C82DFF88CB2A0780591C90BCF035FD10598800805D30120059FE07087F00200F0
:20627C0066E10598000938BF0020C0F0628158462A30A76A00780026B14600091BD21BF0CC
:20629C004FFC45468446AB8EE06A95F82220ACEB00018B4238D8B1FBF3F080B28242ACBF8B
:2062BC00C5B2151CB1FBF3F25A43891A88B2ACEB0000E06200E00125EFB1C846F878A84228
:2062DC000ADD401BC0B2F87040B109F101061FFA86F93E467F680CE087F803807868002E95
:2062FC0082460CBFC4F828A07060384617F05AFD5746002FE2D1A078B9F1000F04D1002179
:20631C00E162082114F020FB059880F008000FE113F058FC071C00F00881B87FC0B9788C2A
:20633C00A56A132815D1B7F80290281C11D000260188894508D14568002E0CBFA5627560D3
:20635C0017F030FD284601E0064640680028EFD1A56AB87A97F831102E4602284BD17888F7
:20637C0066B1DFF8D4C13288904204D1B2789CF8003091423DD07668002EF4D181468A46E7
:20639C004646002D08BF002003D001200DB16B685BBBF18E81422EDD08200FF00FF996F89C
:2063BC00221040B3A0F8009080F802A0C17000234360A36A43B9A0629BF82A00000909D2B7
:2063DC001BF0AEFBE06200E06860584690F82A00000910D3A078082116F0BCFA58B9A078A1
:2063FC00B28E08211BF0EDF905E0401C1D4680B2CCE7F37096E0514805683878012806D010
:20641C00022840F08F80384612F0B0FB8AE007F11004B81CBE8908943B7E0690FA7C07963D
:20643C007969099397F819B00A923C7F0B9107F11C0604F00C000C280DD0B87F4FF0FE09CF
:20645C00FF2804D01AF04CFF041C10D16AE0002D68D06C680FE0B088FE2117F051F98146EE
:20647C00B9F1FE0F5ED01AF03BFF041C5AD020781AF0F2F805464FF6FF7A0BE020781AF06B
:20649C00EBF8054606E0B078FF284BD12D68002D48D06C68002C45D0AB68AAF1010823B9DF
:2064BC00A3680BB1B3F8028007E021780220984718B1B0F8008017F075FC338922789845AF
:2064DC000AD03AB943B11CE080400020343D0020D43A00209A4514D196F80280B2700898AE
:2064FC000090099B01930A9902910B9A0392CDF810B0079B069A304621460DF0F9FB86F835
:20651C000280307800F00C000C28BCD1B088494617F0F6F88146B9F1FE0F03D01AF0E0FE83
:20653C00041CABD1384619F01DFD059880F4004080B20DB0BDE8F08F563D0020B8440020CF
:20655C002DE9F04FADF1440D0B908069007800210DF12A020F909C2012F03AFBB54D287860
:20657C0030F0010009D10020042118F073FF5FFA80FA9DF82A00504402E001204FF0000AD3
:20659C008DF82A000F989DF82A10884280F2DE809DF82A000F99401AC0B20D900228C4BFA3
:2065BC0002200D901A2110FB01F000B20FF006F80E90002800F0CD800F980D9F0E9C0C907E
:2065DC00002F08BF002074D04FF00008B946012645460C9882450ADC0F9940468A4504DA21
:2065FC00A1EB0A01C9B20C9163E00C9561E0411CC9B20C9118F042FF071C54D08E48014689
:20661C00B0F8400055312080A01C1AF015FD388860820223E375FF222276B87A60768DF813
:20663C001C503888ADF81E0007A810F0E3FCAB46012808BFB34604F10A00BBF1000F06D156
:20665C0004F10A00FF21082210F05EFC02E008A91AF0F2FC3B797BB93F88002F04BF2575B5
:20667C00281C04D07448267590F85400401E207602206075A57515E06F4890F85400401CCA
:20669C0020763879032804DB26753879032805D106E0022020753879012801D0667500E03D
:2066BC006575A6751A34B9F1010908F1010890D140460D9981424CDD0D9DDFF87CB104F1A9
:2066DC00020804F10A0702264FF0000A4FF001091A3C2D1A0C9987206A4612F079FA584925
:2066FC00BDF80A0024F81A0F40461AF0A5FC0DF1020138461AF0A0FCBDF800004D4B6082F5
:20671C00187830F0010003D16675A675FF2006E084F8159084F816A09BF85400401E2076AF
:20673C00E675638A9DF81200002B60760CBF84F814A084F814900C9808F11A081A376D1E97
:20675C0000F10100C0B20C90C4D102E000200E900D900B98417C0D9F0E9D8DF82B10801C38
:20677C0016210B9017FB01F0001DC0B28346401C0EF024FF5FEA000854D008F101040020C0
:20679C00A2468AF800009DF82A000F9F88F802000D9E88F8037088F8046096B30D9F2E4699
:2067BC00241D06F102090A36204649461AF044FC0834314620461AF03FFC0446A87C04F833
:2067DC00010B688A001204F8010B287D2070697D40EA8100C0B22070A97D40EA011004F860
:2067FC00010BE87D04F8010B287E04F8010B687E09F11A091A367F1E05F11A0504F8010B49
:20681C00D2D10E4D0B990DF12B0048F231025B462C1DC4F800A013F017FB404617F0C2FA80
:20683C0009346C600E9808B117F0BCFA11B0BDE8F08FC046343D0020D43A0020983D002078
:20685C00293B0020F8B50D4606466868002800F07181002730466F7019F028FF041C13D1C2
:20687C001C200EF0ABFE041C00F0668139461C2210F04AFB2671204616F096FF20B9204649
:20689C0017F090FAD12056E1686807785FB1407820B9E1884FF6FE70084002E0E08840F055
:2068BC000100E080686887785FB1C07820B9E1884FF6FD70084002E0E08840F00200E0802C
:2068DC00686807795FB1407920B9E1884FF6FB70084002E0E08840F00400E080686887799B
:2068FC005FB1C07920B9E1884FF6F770084002E0E08840F00800E0806868077A5FB1407A00
:20691C0020B9E1884FF6EF70084002E0E08840F01000E0806868877A5FB1C07A20B9E188E6
