:20000000003A0120E994010039FB021039FB021039FB021039FB021039FB021039FB021063
:1C00200039FB021039FB021039FB021039FB021039FB021039FB021011FB021002
:20003C002DE9F04FB34FB81CADF1440D00780B91C90BC9031BD10B98C00B38BF0020C1F0B4
:20005C001B82AB4C04F10800006858B10746FD68384620F037FD38461CF018FF2F1CF6D15B
:20007C000020A0600B9880F4804001F004BA18F049FE00280C9001F0FB810178FA7800242F
:20009C000846D22810DCD22801F0E5811A3801F07A811738052841F2DE819F3801F0DB814F
:2000BC00401E01F060810CE0D33801F0D181401E022841F2D081293801F03A81401E01F052
:2000DC0013810C9DBB4E01223B29DFF8EC9295F8028096F83E000D9224DC3B2901F0EE80A5
:2000FC00072910DC072901F08A80002901F0AE80891E01F09880491E01F0EF80491E01F086
:20011C00E88001F0BDB8083901F03B80491E01F03380AA48C91F1C2924D92A3900F0D58237
:20013C0001F0AEB8A7290FDCA0293ADA3C3901F0C180491F00F09E82891E00F08982891E4C
:20015C0000F0678201F09CB8A839012941F29880891E1A2930D9233901F08880491E48D048
:20017C0001F08EB8DFE811F00008C307A8078C082D068C088C088C081E0611068C08EE059E
:20019C00BD058C08B108AE08F404C904EE038C08D403BB03B103A50393038C087F0378031C
:2001BC001403A039DFE811F082087E087A082F02760872086E082A02DFE811F0E201B001B2
:2001DC008C0179016F0160015701500149015D08420128010201C1009E008D0062086208A4
:2001FC008200620862086208540038006208620824006868002800F05C81686800681CF096
:20021C0049FF41E3AF68002F00F053816C7058B1307F082808D12046014602F033FF0028B6
:20023C0008BF201C00F035810D9832E16F68002F00F03F812046687069680F7857B986F867
:20025C004200707F401E70770D9801461DF05AFA01F047B820F08CF90D98014605F092F9CE
:20027C0001F03FB86868002800F02381067847682146082204A815F02BFF002F00F087852A
:20029C00BE480470C6B1761E10D0761E0CD0761E04D0761E40F07B850D990170384604A9FF
:2002BC0013F0FDFE00F0ACBD0D990170384604A91BF0CEF900F0A4BD1AF0A2F800F0A0BD75
:2002DC006868002800F0F580686800F112011BF0BFF900F010BC6868002800F0EA806C7024
:2002FC00686816F043FEA968088000F0FABFC0461C45002060450020AF68002F00F0D980AE
:20031C0020466870AC6871783578671C002D08BF20700FD0084640211BF08AFB4FF47A7186
:20033C000F2300F2E730B0FBF1F115FB03100F3820703578002F00F0D4872846AAE096F832
:20035C0042700A97318F96F83B2096F83A3096F83CC0D6F834E096F83D8096F83F9096F8EB
:20037C0040A096F841B0AF68002F00F0A2806C70AC682181A968CA72A9688B72A96881F833
:20039C000CC0A9688873A868C0F804E0A86880F80D80306BA9680860A86880F80F90A8685D
:2003BC0080F810A0A8680A9F80F811B0A9688F7400F097BF78400020F43B0020503E0020D8
:2003DC006F68002F75D06C706868077D17B1C07C86F841006868877D17B1417D86F8421099
:2003FC00077C17B1C08930876868077B17B1806870636868877C1FB1407C86F83D006868D7
:20041C0007790FB10068306300F06BBF6C7078B196F83B0080090BD204A82146082215F0F5
:20043C0057FE1FF08AFE04A81BF0A2FA00F059BF1FF083FE4FF4FA701EF02CFE00F051BFE4
:20045C00A868002835D06C701FF03AFF21E0CE48AF680078002F2CD06C701AE0686840B3B5
:20047C00686800781AF022F945E36F680FB36C70686800780BF048FD00F033BFA868C0B16B
:20049C006C701AF0F5FC002808BF0D9C00F0B3800078AF68387000F024BF686848B16C70FF
:2004BC0069680888897819F019FB00F01ABF6F680FB902249FE06868B44A036802F10C015B
:2004DC000B6040684860686801895180807A107000F0A7BE6868002800F059840188ADF858
:2004FC0020104088ADF8220008A953201BF046FF50200DF122011BF041FFE12009A91EF010
:20051C00C5F868689DF824100079884273D08DF8240009A9E1201BF031FF6CE06868002808
:20053C0000F0358400781CF049FC4E46686896F834104078884213D086F834000DF12501BC
:20055C00E1201EF0A3F868689DF825104078884206D08DF825000DF12501E1201BF00EFFFC
:20057C0068680D9F407807FA00F070641FF052F8A6F88C4038461DF085F93CE0AC3E002074
:20059C006F68002F00F003847B884E467386387886F842007A6886F8342072643989F186FF
:2005BC007889A6F84000387B86F85400787B86F82100B87BF0773B69F364786996F88E2077
:2005DC003065387E904201D01CF0F8FB696806F1550019311FF00EFD96F8420006F11C07A7
:2005FC00082808D1212074213A461FF0AFFD204602211CF0F1FA204600F002BC6F68002F2B
:20061C0000F0C58303E06F68002F00F0C0831220F6E36868002800F0BA830A30077807B1C9
:20063C00144647780FB144F0020487780FB144F00404C7780FB144F00804007908B144F0EB
:20065C004004696808882246891C1CF0E9F852E26868002800F09B8302208DF81800686816
:20067C000088ADF8100068688178C27804A818F0A9FE40E26868002800F0898302208DF806
:20069C001800686801884FF6FF70884205D0821E8A4202D0C01E88420BD11FF0E5FEADF821
:2006BC0010006868C27A837A811C04A81AF06AFF687068680088ADF810006868C27A837A5B
:2006DC00811C04A81AF05EFF15E26F68002F00F05E8302238DF818306968001D09880468A3
:2006FC00ADF810106A680F2092F804C0B2F80680167AD2F80CB0177CD2F814A05188CDF8D5
:20071C0028C0F21900EB42005FFA80F9B9F14E0F00F371811FF0A8FE884233D121700812B1
:20073C0060701FF04FFBA41C014620461FF062FC04460A98207084F801804FEA2823A3708A
:20075C00E670241D66B15846A41E017804F8021F30F8021B761E4FEA21216170F5D1A41C2E
:20077C0027705FB1641E5046017804F8021F30F8021B7F1E4FEA21216170F5D1CE482022BC
:20079C004B4664E018463BE3CC420020E43F00206F68002F00F0FB8202218DF81810696867
:2007BC000988ADF81010696842684B888C888E79D1F808800F7BD1F810904FF0060EF119BD
:2007DC000EEB41015FFA81FCBCF14E0F43DC82469DF818000F2818BF022808D1BDF8100078
:2007FC004FF6FF71814204BF891EADF810104FF6FF71994208BF8B1E02F8013B191202F8DB
:20081C00011B02F8014B201202F8010B02F8016B66B14046921E017802F8021F30F8021B96
:20083C00761E4FEA21215170F5D1921C17705FB1521E4846017802F8021F30F8021B7F1E4D
:20085C004FEA21215170F5D150467246634604A918F09AFBD4E2CEE06A68002A00F09782D0
:20087C000220052219E06868002800F0908202208DF8180068680088ADF8100068684188BB
:20089C00027904A81EF016FC044600F0CABC6868002800F07C82022002468DF81800686878
:2008BC000088ADF810006868418804A81EF0C0FE21E16868002800F06A826A681088917885
:2008DC00D2781CF0CDFB044695E66868002800F05E826868017A427A17F0DEFF0BE16868AA
:2008FC00002800F0548240788DF81000686880788DF81100686800781EF0B6FE002808BF4A
:20091C000220E0D004A909880C3001802046DAE76968002900F03B82A868002800F037823F
:20093C00087804A91EF092FE6868A968007808709DF81000A96848709DF81100A9688870E2
:20095C0000F06FBC6B68002B00F02182187D1EF0B5FE002800F01B82187E19331F788DF8C6
:20097C002600002F0CBF201C02205F780FB140F010009F780FB140F00800DF780FB140F0B0
:20099C0020001F790FB140F040005F790FB140F0800083466868007D1FF08AFC061C00F04E
:2009BC00F6816868807A8DF8190068688089ADF81A006868007802288DF818000DD001288F
:2009DC000BD00F2809D003280BD16968891C0A6804A802604968416003E068684088ADF8A1
:2009FC0010006868877B002F76D0780013F056FF5FEA000801D1102002E221466868877B44
:200A1C008F4262DCC18A038C426A0A960C2F0E9190F81FA00F93BDF8109010924EDA484615
:200A3C0018F056FA0C2816D14FF6FE7018F050FA0C2810D1DFF804C30D999CF82C31204672
:200A5C000CF59A7C1CF8082B9342C4BF131C081C491C0C29F6DBBA4E4FF6FE7306EBC00691
:200A7C007068738010B11CF011FA74606FB17C00204613F013FF7060002808BF10201ED0EF
:200A9C0070684146224613F0A5F8A6F80290C448777000783070109C00940DF1260301939D
:200ABC000E9ACDF808B00F9BCDF80CA00A9904A808F0C4FC03E0C046503E00200220687042
:200ADC0040461CF0E3F900F00CBC00694A00105A491C28F8020091E7416A00910DF1260751
:200AFC000197CDF808B0C17F0391C28A038C314604A808F0A3FC6870F3E36868002800F0C6
:200B1C00468100781EF0DAFD061C00F04081307B19F0A6FD0028687040F0E3837B68354677
:200B3C00002B00F0DE831E46204616B9B54202D0D7E3B54209D1AB4219BF296801602868E9
:200B5C00786028461FF0DCFDCBE330463668ECE76868002800F01B8100781EF0AFFD0028D8
:200B7C0040F0BD801EF048FF042800F34881264640466E701EF094FD041C01D0237B73B18D
:200B9C001C2013F08BFE041C00F0AB8331461C2215F09EFA84F80480DDF8348000E0B04682
:200BBC006868007820736868007ABF1C20761420276113F073FE0028606141D031461422AC
:200BDC0015F086FA6968626949689079897900F0F00001F00F0101439171686840686169B3
:200BFC00808888806868406861690078087068684068616940884880686840686169C0794A
:200C1C00C871686840686169007B08736069C079400013F043FE616988606769BB681BB150
:200C3C003046F979814250DC387B400013F036FE386161690F691FB130460A7B82423ADC17
:200C5C0004F10C00814610F063FD0746022F18BFB82F06D1207B19F003FD484610F058FDB6
:200C7C0007463FB9B8F1010F20D120461BF02CFEC8B11BE0B8F1010F15D0606968B18368EF
:200C9C001BB118461CF002F9606903691BB118461CF0FCF860691CF0F9F8484631461022AB
:200CBC0015F016FA02E020461FF02AFD022F16D0B82F14D015E36B685B6842001B690969DD
:200CDC00D35A53526169401CB7E76A68526841009268BB688A5ACA526769401CA1E7D020D4
:200CFC008EE06868002852D0A86800284FD02146082215F0EDF96968087849881DF0D0F886
:200D1C00071C19D020466870A96838880880B878A9688870AC68A078002800F0E28213F030
:200D3C00BDFD6060AA685068002800F0DA829278F91C12F04FFFD4E2B12061E07C2E0020DE
:200D5C00A82F0020686810B3A86800B320465C4A68706968176809783FB13A79914204BF3C
:200D7C00401CC0B23F68002FF7D1A9680870A8680078400013F092FDA96848606868A9686E
:200D9C00007849681DF096FCABE26F680FB9022036E020466870686800781BF00DFBA0E2F0
:200DBC00043E0020022068706968002900F09982087849881BF01EFB002800F092822046AF
:200DDC0062E56868002800F0E081264640466E701EF066FC041C15D11C2013F05FFD041C66
:200DFC0000F07F8231461C2215F072F984F8048020461BF069FD28B920461CF047F8D12067
:200E1C000446DCE7686807785FB1407820B9E1884FF6FE70084002E0E08840F00100E0807A
:200E3C00686887785FB1C07820B9E1884FF6FD70084002E0E08840F00200E0806868077917
:200E5C005FB1407920B9E1884FF6FB70084002E0E08840F00400E080686887795FB1C0797C
:200E7C0020B9E1884FF6F770084002E0E08840F00800E0806868077A5FB1407A20B9E188E1
:200E9C004FF6EF70084002E0E08840F01000E0806868877A5FB1C07A20B9E1884FF6DF706F
:200EBC00084002E0E08840F02000E0806868077B6FB1407B30B9E1884FF6BF70084004E0B5
:200EDC0020460020E08840F04000E0806868877B57B1C07B002807BFA06820F00100A06814
:200EFC0040F00100A0606868077C57B1407C002807BFA06820F00200A06840F00200A0604C
:200F1C006868877C57B1C07C002807BFA06820F00400A06840F00400A0606868877D57B17C
:200F3C00C07D002807BFA06820F01000A06840F01000A0606868077E57B1407E002807BFF1
:200F5C00A06820F02000A06840F02000A0606868877E57B1C07E002807BFA06820F0400084
:200F7C00A06840F04000A060686890F822705FB190F82300002807BFA06820F48060A06846
:200F9C0040F48060A060686890F826705FB190F82700002807BFA06820F40050A06840F4DE
:200FBC000050A060686890F828705FB190F82900002807BFA06820F48040A06840F480404E
:200FDC00A060686890F82A705FB190F82B00002807BFA06820F40040A06840F40040A0607A
:200FFC00686890F834705FB190F83500002807BFA06820F48010A06840F48010A0606868D6
:20101C0090F838705FB190F83900002807BFA06820F48000A06840F48000A060686890F815
:20103C003C705FB190F83D00002807BFA06820F08070A06840F08070A060686890F83E70EF
:20105C005FB190F83F00002807BFA06820F00070A06840F00070A060686890F840705FB167
:20107C0090F84100002807BFA06820F08060A06840F08060A060686890F842705FB190F8EB
:20109C004300002807BFA06820F00060A06840F00060A060686890F84470002F00F0218126
:2010BC0090F84500002807BFA06820F08050A06840F08050A06014E16868002865D0696876
:2010DC00091D0A6804A802604968416003201EF057FC6868C07B1BF0A9FF6868817B00915D
:2010FC0002788389418804A810F0A6F803E5686800284AD040461EF0D3FA061C15D11C209C
:20111C0013F0CCFB061C00F0EC8021461C2214F0DFFF86F8048030461BF0D6FB28B9304639
:20113C001BF0B4FED120FFF7AFBBF088CD4940F00800F08040F00400F08002201FF000FA80
:20115C00CF4903201FF0FCF9686800680490686800798DF814000D9F8DF815708DF81670C5
:20117C0004A817F019FAC6E4686870B168680088214601F087FFB4E0686830B1C220FFF79F
:20119C0083BBC0486F68067817B90220FFF77CBB214669706868242214F09AFF4C46696823
:2011BC00608E08806868B4F84070867269688F81E08E696804F11C0707F13903C8826868F3
:2011DC001A680E300260596841601EF0FBFD6968891C026840680A6007F11C0348606868E8
:2011FC005E681830466019680160686894F834100D9A80F82310696881F8222071E068689E
:20121C00002831D090F900609F4800680DF12701D0F830248DF82760E0209047A86800B16B
:20123C000670204667E46868F0B120466870696817460F70686802264670686886706868CB
:20125C000624C470696803230B714AE0686858B1407818B1FF2003211BF0BEFC1FF01CF9F1
:20127C000D988A490860FEE7022044E42046687012F03EF935E0204668701CF027FE30E038
:20129C00122038E4294616F0DFFB29E029460DF007FB25E0294611F0E1FB21E029461FF04E
:2012BC001FF81DE0294619F036F819E0294618F03AFD15E0294615F000FF11E0294612F0E7
:2012DC009BFB0DE01EF074FB9AE5294618F082F906E0294604F02AFB02E0294604F0DAFCF8
:2012FC000D900D980446B6E00C9D16201DF078FD071C00F0B0802146162214F0E9FE9320CF
:20131C00387026467E7068783871A87838742879012814BF02200120B871E8883881E878C8
:20133C003875A8781EF0CAF9002800F088808AE006201DF055FD071C00F08D802146062235
:20135C0014F0C6FE2646912038700C9D7E70A97839716978F970E9787971A8781EF0AEF918
:20137C0000286CD06FE00C984078904273D0484BF870FA1C21464FF000701CF0FBFA787815
:20139C004449087067E00C9D30201DF029FD071C61D02146302214F09BFE9220387020464F
:2013BC007870A97B032939711CBFE988F98005D1AA1D1368B91D0B6052684A60E97BB9731D
:2013DC00298A398269887982A988B982698AF982297D39766E7D214606B101217976687E68
:2013FC00214600B10121B976A87DF876E87D387795F918007877E869386295F8200087F815
:20141C002400A88DF88495F8240087F8280095F82E0087F8290095F8260087F82A00E88C50
:20143C0013F03CFAF862B0B1A96AEA8C12F0D2FB287D1EF043F930B9F86A1BF027FD38465D
:20145C001DF098FD07E00079394619F04BF802E00C9809F09BF8012C06D00C981DF08AFD56
:20147C0006E0C04605B801000C99887819F03AF80B9880F4004080B211B0BDE8F08FC04652
:20149C0075000200143D0020140100207C052043B1E80100783C00202DE9F04FC34D20211B
:2014BC00352205F1B004ADF1140D204614F010FE04F10109A04605F14C0605F1480005F177
:2014DC00B10100F17B070160044605F1C30105F1D5002865686C31604FF4FA711FF0C3F831
:2014FC0005F18C001FF097F9A86A696B0346686A8936884200F00883AE7ABD4A03962E793B
:20151C00118D6F7A287A0296DFF8E8A2DFF8E892AE6B0FF2003E0FF2243CC6A2152B019644
:20153C00C1A600F26C83DFE813F0E302D502AD00D00238029B00AC01AA018D007F006F009A
:20155C009E0192015600F202690156013D0043011600F20223012068D0A10C2212F03AFB25
:20157C00381C15D0FF380CD06068D0A1102212F031FB6168384610220223093118F086F90B
:20159C000EE0CFA160680A8802808978817007E0CCA160680A6802608F8887808E798671F7
:2015BC00CAA1B5E24FF6FF7088420DD02068CCA1102212F00FFB8E482168008D102204233A
:2015DC00891D18F063F904E020687146102212F001FBC8A19CE24FF6FF7088420DD02068C8
:2015FC00BFA1102212F0F6FA81482168008D10220423891D18F04AF904E0206871461022CD
:20161C0012F0E8FAC0A183E2000904D2324660685168416004E060689188818097798771BD
:20163C00BEA11268026073E2800804D2324660685168416004E06068918881809779877138
:20165C00BBA1EEE7C00804D2324660685168416004E060689188818097798771B9A1E0E716
:20167C000398012818BFBCA140F05282BFA120680A6802604F6847600E8906816668BEA1ED
:20169C000E22B9E20298EF7AD5F82C9000260128A7F107072AD02068BBA1102212F09AFA3C
:2016BC00494620680988B7F1FF3F018003D0022F18BF002F12D1286B38B1296B2068096809
:2016DC00C01C016020682023C37137F0020012D1E0A120688A880830828004E0DFA1206865
:2016FC004A68C01C42600968016004E02068DEA1102212F06FFA6068E0A1102212F06AFA63
:20171C00A869616800880A220323891C18F0BEF8287B6B46B821324616F0FEF961689DF896
:20173C0000000A2203230A3118F0B0F86168E87802230E3118F0AAF8A8699DF8007001887A
:20175C0057EA010003D1E86AE1A1814200D00126A068E1A1102212F03DFA002E00F04F82E5
:20177C00686CFA211EF07FFFE0481FF052F846E2216805F1540010221BF05AFE61681022C6
:20179C0005F15C001BF054FE21680020087461680874A0681022DFA112F01CFAA16805F143
:2017BC00640004221BF044FE29E2C046B0390020216805F1540010221BF03AFE61681022D9
:2017DC0005F15C001BF034FE21680020087461680874D5A19CE120686146102212F0FAF9AB
:2017FC005046616800681DF072FBD4A190E1C046EC3D0020A8400020AC4000202068614614
:20181C00102212F0E7F94846616800681DF05FFBCFA17DE12020202030784646464620281C
:20183C00616E792900C046C044495341424C454400C046C0454E41424C45440031323334A2
:20185C0035363738393031323334353600C020686146102212F0BEF95046616800681DF046
:20187C0036FBC0A154E120686146102212F0B2F94846616800681DF02AFBBFA148E1C3A199
:20189C0046E12068C6A1102212F0A4F96068C9A1102212F09FF9CCA13AE1C0464C61737425
:2018BC00207374617475733A00C046C04552524F52202830782020292020202000C046C01F
:2018DC002D2D2D0053554343455353003C41504C5920494E535420434F44453E00C046C03D
:2018FC002020202030782020202020202020202000C046C0202020202050414E2049442052
:20191C002020202000C046C03C2020202050414E204944202020203E00C046C03C46494E80
:20193C00444E472B42494E444E47203E00C046C03C204E574B205354454552494E47203E86
:20195C0000C046C03C4E574B20464F524D4154494F4E203E00C046C03C2052455345542087
:20197C00544F20464E20203E00C046C0526573657474696E672C00C0506C6561736520771E
:20199C006169742E2E2E00C07878202020202020202020202020202000C0AE4A0020117892
:2019BC000B110A2BACBF37213021C9182368C15412F8011901F00F0301F00E010A29B4BF58
:2019DC0030213721C9182368401CC0B2C154401CC0B21028E3DB2068002101746068102217
:2019FC00A2A112F0F7F8C94E6168B6F8400010220423491C17F04AFF60682027477161682B
:201A1C0096F8340002230A22C91D17F03FFF606847726168708E042310220B3117F036FF53
:201A3C00A06897A112F0D6F8E87A821F43D0521E02D0921E3AD02AE01EF0B2FB00280CBFB0
:201A5C0094A196A1A0680A6802608A88828089798171D4E0434C4F53454400C04E6F744F6C
:201A7C006E4E776B00C046C0506C6561736520776169742E2E2E202000C046C0496430301A
:201A9C003020537263683030302F303000C085A2A168136857680B60167A4F600A220E72AB
:201ABC000323A168491D17F0F1FEA8E080A1A06809880180A3E07FA1A0680A6802600979BB
:201ADC000171F08E04231022EBE77CA120E0C0462D2D00C07EA11BE03C2020434F4D4D4987
:201AFC005353494F4E20203E00C046C03C3A002020680199102212F06DF8606879A1102295
:201B1C0012F068F87CA103E02A6A002B65D152A1A66870E020202020202020494E535420C3
:201B3C00434F444500C046C03C53455420494E53544C20434F44453E00C046C0205345439C
:201B5C00204348414E4C204D41534B2000C046C020505249204348414E4C204D41534B20B4
:201B7C0000C046C03C534543204348414E4C204D41534B3E00C046C03C5052492043484183
:201B9C004E4C204D41534B3E00C046C03C41444420494E53544C20434F44453E00C046C051
:201BBC0041204420746F206D6F7665202020202000C046C0572053206368616E676520763E
:201BDC00616C756500C046C04520746F20657865637574652020202000C0D8B22146904719
:201BFC0021684846102211F0F5FF61683846102211F0F0FFA1681022304611F0EBFF6979A4
:201C1C00EF79FF2910D0686C27B954F82120A9792023535487F001074FF4FA71EF711EF050
:201C3C0022FD3B481EF0F5FD0A2788F8117088F823700C2088F800000D2188F8121088F8A5
:201C5C002410686918B1414635221EF016FD05B0BDE8F08FD32700203C2020202020424149
:201C7C00434B20202020203E00C046C06E78787878206378782061787878782000C046C00E
:201C9C00202020202020202020203C494E464F3E00C046C05A522043454E54005A52204476
:201CBC00495354005A454420282020202900C0465A4300C05A4544207000C0463C202020EC
:201CDC00415050204D454E552020203E00C046C03C2020434F4E4649475552452020203E92
:201CFC0000C046C07072657373204520666F722068656C7000C046C03C2020202020484511
:201D1C004C5020202020203E00C046C0F43B00203C3A00202DE9F04F6F4C04F120000068F5
:201D3C00ADF14C0D10B1002180F8311034301CF025FD1EF04AFD119008200FF0ABFF14F098
:201D5C002DFB10B14DA01EF0B9FE18F017FC0CA81EF086FA04200CA98DF8300000201EF0B3
:201D7C0087FA60631DF0FCFF04A81EF001FA042004A98DF81000002016F03AFFE0621DF032
:201D9C00F9FF08A81EF0FCF9042008A98DF82000002016F05BFFE16A206319B93FA01EF0F5
:201DBC008DFE206B10B942A01EF088FE606B10B944A01EF083FEDFF82491D9F80000D0F886
:201DDC00E0038047D9F80000D0F8F0028047D9F8000007260025A03001686F5827B1384672
:201DFC008047D9F80000A030761E05F10405F3D1D0F8B8028047EB201EF03CFB206A0027BE
:201E1C0070B16846FF21082214F062F9206A694608221DF09FF804F12005012818BF2F6876
:201E3C002F4803C8EA468AE80300082012F036FD061C74D0FF21082214F04AF90120082101
:201E5C0032461EF0C5FB40B904F13C030120002108221EF0BBF800285ED0002F04F13C0808
:201E7C0040D04046694608221DF074F8002853D13868414608607D684D6048E052616E6444
:201E9C006F6D5F736565644175746F6D617469632829206661696C656400C04641455343AB
:201EBC00434D206F70656E206661696C656400C0414553454342206F70656E206661696C2E
:201EDC00656400C054524E47206F70656E206661696C656400C046C09027002014010020F9
:201EFC0088260200A8F1020503271EF0A8FB05F8020F7F1E4FEA20206870F6D13021062061
:201F1C00F82788F80610401CC0B208F800700120082142461EF01AF930461AF0B7FF04F194
:201F3C003C01E2201AF02AFA1CF050FD400834BF00260126D64D5520012105F13E021EF039
:201F5C0047FBA84618B916B100201BF0D5FF24201CF0AEF8074635201CF0AAF8CD4DA0B9E5
:201F7C00022F12D124200021022210AB1EF02EF8BDF840002A4604213832106035201EF0F2
:201F9C0027FB2420022119F013FF05F15401E2201CF07CFB304617F073FE684600211022C2
:201FBC0014F096F8622010216A461EF011FB28B926B1622010216A461EF0C8F8684600213E
:201FDC00102214F085F830460FF06EFA30461AF07BF9304611F044F91EB1002001211AF092
:201FFC00FBFD1C2012F05AFC0028A06300F0F080606AA16A221D15F01FFBD9F80010D1F8D1
:20201C004C138847A16B201D0860606AA16A04F1080215F011FB17F009FEA16B04F10800C9
:20203C004860606AA16A04F10C0215F005FBBC4FB870BA480021397005F14C011DF0DAFFD7
:20205C0095F82100A16B04F10C0678705C3504F110028E60606AA16ABD6015F0EDFA04F162
:20207C00140BB049B24AB04E087004F110037A62AE4D7E60A06BA16AC360606A3D625A46BB
:20209C0015F0DAFAAB4D2872022685F82C604FF6FE70A8841DF096FEA748A04900260660A4
:2020BC00C8481DF0A7FFA548FF21382214F010F8A348A54B8360A54AC260A2494160A44B84
:2020DC000361A44A426131460170A34B8361A34AC261A5497961A24BA24AFB60A34B3A61A0
:2020FC0005F13800BB610FF013FBB64809272C307F1E40F8046BFBD1287A48F2010118F0ED
:20211C006FFE287A4FF4004118F06AFE287A212118F066FE287A222118F062FEA06BA16AED
:20213C00C0F810B0606A04F1180215F085FA48F20201054688F8015018F052FE48F20101C1
:20215C00284618F04DFE48F20401284618F048FEA16B04F118004861606AA16A04F11C02FD
:20217C0015F06AFA824B20708249987030461EF0E7F9814901201EF0E3F9804904201EF076
:20219C00DFF97F4906201EF0DBF97E4907201EF0D7F97D4908201EF0D3F998784FF6FE7123
:2021BC00491C18F01DFE7948794F7B4EC8F824007849BE60794D79600123C8F82850A06B60
:2021DC0088F8423004F11C078761754AC8F82C20744C754ED9F80020002007463946734D06
:2021FC0020703B463170D2F800016770C089D2F850122B7010303D4680B265618847206154
:20221C0028B9D9F80000D0F84C0580472069009039468DF804109DF805103A4662F301015E
:20223C008DF805109DF8051067F383018DF805109DF805103E4666F307118DF80510D9F8BC
:20225C000010D1F80011C9896F461031ADF8061021693B680B607A684A60E061256211F088
:20227C007BFBD9F80400C06807784FB9D9F80000D0F85824314630469047D9F80400C06872
:20229C004B4932460A704B4F3E70007858B903E078400020EC3D0020D9F80000D0F85824B2
:2022BC0031463046904711981EF004FC0BF0EAFB1CF09CFCD9F80000D0F8D40090F84300CB
:2022DC001CF070FAD9F80000D0F858243146012090471DF03FFE31463748D9F804700170F2
:2022FC00F868007828B9D9F80000D0F858243046904710F00DFF3148314A072133461CF0FA
:20231C0039F91AF01DF810200DF142018DF842005A201AF033F813B0BDE8F08F30410020F1
:20233C000041002028450020DDE9000059450100AD010200143D0020EC3F0020D82E00209C
:20235C00E04300209984000051F10100C578010021D3010055DC010071CD010035EA0100FA
:20237C00F921010009090100B9ED01007D82000060450020C5000200890002009D000200B7
:20239C00B10002009DFC0100B5FC010069A40100CC4200200DB901000199010041C1010081
:2023BC00E9B10100F85400204C5900204E59002051590020F25700204D59002038430020DA
:2023DC0077080200303D00202DE9F04FBF4CDFF800B3277F0E46F008ADF1140D80F05382F3
:2023FC00F00BC50340F010815A461078710BA0F1020080F0EF80310A28BF86F0800680F099
:20241C000F83B10880F0CE80300B28BF86F4006680F00683F00980F0A180A768B00B5AD21C
:20243C006569F00B38BF0020C0F0FB82BD4888C8694688C10088088027693DB938461DF005
:20245C0063FC6061B0B987B90B200FE0287B30F07F050FD0A56900F07C0004280ADB45B9CE
:20247C0038461DF051FC606120B900201DF05EFD2EE06561926B60784FF4804102EB420268
:20249C001EF06AF9217F6069082919D00188ADF80010017A8DF80810017B491CC9B231F059
:2024BC007F07017306D10188427A68461CF002FE606909E0008800210A461AF0D1FDF7E7CF
:2024DC00017B41F04001017340691DF01DFCA06186F48046A4E2DFF8FCB24FF000094FF0DC
:2024FC00030AC8468FB96078B9F1010F04D04FF4005117F0C9FA05E04FF400514FF47A72F1
:20251C001EF02AF986F400568AE27D68287818B3F02821DC514642466B4618F066FAD8B10C
:20253C00029803889BB984F83A808DF80DA08DF80C8003AB0A204146524619F067F8DBF85B
:20255C00001084F83A8039B12878884704E001884FF00109491E01803F68C3E718F088FC45
:20257C0007462078BFB1401EC0B22070A0B160784FF4804119F05CFA30B920691DF0C4FBC0
:20259C0010B9387816F0B8F96078402143F698221EF0E2F8207810B90B201DF0C7FC86F009
:2025BC0040063DE2B0F1FF3F18BF00280FD168460021082213F08CFD00201BF09DFC6846E5
:2025DC0019F0D6F918B16078022116F0C9FB86F0020625E2B0F1FF3F18BF002811D13846B6
:2025FC00401E0AD0801E0CD1A07F022809D10120A077002019F01CFB03E0617F00201BF083
:20261C0081F886F480560BE2607816F07BFB5FEA000A08BF86F4004600F002829AF8005064
:20263C00D32D00F01781207FA8420ED00A2D40F0268194F83B008AF80400616A002900F050
:20265C001E810AF10200884719E19BF800006D1E574600F0A780AD1E40F01181012818BF9A
:20267C00022840F00C81BD78002D33D06D1E40F006817A7860781AB31DF0F6FE4FF6FE7263
:20269C000021824218BF0121081C04D1C248408E1146814209D01046BF49ADF8100017460C
:2026BC004F86532004A919F069FE1AF0C3FD1CF0B5FEB949002081F8420010F019FFDEE05D
:2026DC00022140F6B832A177B9E0C04678400020EC3D00207878002860D11DF073FF0022D9
:2026FC001546AD492062091D0A60011C4DD089696D1C0029EDB2FAD19146071C40D04FF0CA
:20271C0000083AE0C2481CF0C0FB01280CD0BBF828004FF6FF7181420CD03988884209D012
:20273C0021E0C046CC1D0200B94807F10C011DF019F8C0B198483989C08E884203D14FF623
:20275C00FE71814201D13B796BB19348797990F82E0088420CD19BF80E00B979884207D0EB
:20277C00B9F1000F04D138461AF094FC6D1EEDB2BF6908F101005FFA80F84545C2DC206AC8
:20279C0009F10109B9F1020FB7DBE26A002A94D029469047E06A002871D18EE7002019F05A
:2027BC0047FE6CE0012818BF022868D17F7894F841103FB194F84000401CC0B2814284F86C
:2027DC00400044DB607F401E06D0401E3CD0401E20D054E0D04200201DF0E2FC98B994F885
:2027FC00420020B1A06A002849D0804747E0002102200F468DF808000246ADF80070684641
:20281C001CF016FF13E001201DF0B2FE014602F0B9FE34E0AB2000216A4619F049F8CDF8FB
:20283C0008D004208DF80C0002A80DF0EBFF60784FF4805117F028F9607841F288324FF442
:20285C0080511DF089FF1AE01AF03EFC17E001200021DCE70746F88948F20101401A0BD07D
:20287C00401E05D0801E0AD1384612F0EFFD06E0504613F047FE02E0504611F07FFF5046D3
:20289C001CF078FBC0E660784FB17F1E00F0C280FF1E00F0B680BF1E00F0AA80BEE094F8EC
:2028BC003B00810980F0BA8081087BD2C10875D20009C0F0B380062020771DF053FE002878
:2028DC0065D018F0D5FAE568071C60D068684078800837D33878032100226B4618F085F8EA
:2028FC0028B968684078410830D20E201BE002980188B52912DAB421018060784FF47A7295
:20291C004FF400511DF028FF4748416829B10078FF2814BF3878FF208847E56868684078DC
:20293C00400803D209201DF001FB0AE0092003228DF80C0003AB00218DF80D200A2018F0B0
:20295C0065FEE56868684078410867D337490D6815B980081BD361E0387815F0CDFF002580
:20297C0000B101252846032510B10E201DF0DEFA0C2020706078402143F698221DF0ECFE1B
:20299C000A208DF80D5003AB8DF80C002BE00E201DF0CCFA42E0C046F43B00200520002107
:2029BC00207732E0042294F83C002277400835D394F83E702FBB58460078012818BF022817
:2029DC002CD1012704F11C000021E77013F080FB03252577384617F011FB0A208DF801703A
:2029FC006B468DF8007000212A4618F00FFE15E0002184F83A102177322204211DF0ACFECB
:202A1C000CE01CF03FFE0420012102F0BBFD05E0303D0020012001461AF074FE86F004069F
:202A3C00B0B205B0BDE8F08FCC420020E44300202DE9F04FBC48BB4CADF12C0D4FF0E0472D
:202A5C000125069040682169C06809931F400570B64808924FF0000505704FF0020000EA58
:202A7C00020008BF002840F0C382DFF82893DFF828834FF480301E462F461040374008BF66
:202A9C00002833D14FF4003015EA060700EA020008BF00280ED137464FF480003D4000EA0E
:202ABC00020008BF002800F094820020087114F063FF8EE228460871EB201AF06DFB4B469F
:202ADC002846414618700878862802D1284618F003FE1DF07AFEE1690A682B46137109683E
:202AFC00E1611DF0E7FF1CF02FFE72E22846069F08713868B8300268DFF8F8A217784FB972
:202B1C0053461F7837B1D0F894048047069821690068B830B84E81225346FF251A70277853
:202B3C003570806CA7700023A3814E461D46097AC0893570891E8DB2A842C0F23E82E16996
:202B5C000831096804F1180001604FF0040BA4F80CB0607EA17EE67E00EB0120608104F158
:202B7C0019032671069E59783268C1F30119B8321168ED1EADB209780793002908BFB9F127
:202B9C00020F00F01A82B9F1020F00F3168261B110F0070F00F0118241460978862904D1FF
:202BBC0000F00701022940F00882011301F0020102296FDA667800F00700022862D1002E40
:202BDC0060D1D06990F88300022858D0E1690C31097805A801700527A7811DF0F6FD45460D
:202BFC0006462878862847D106980068403001680F6837B9D0F80C05804706980068006CAF
:202C1C0007689DF914001DF024FE787706980068016C096800228A77006C9DF914100068CC
:202C3C00C17730461DF046FF267967891DF0CDFD80462946087807F0100786281BD1C34DA5
:202C5C0005F11E021088401C1080872008701CF0F7FE40461DF02EFF08201AF09BFDE879B3
:202C7C00B04206D11FB9002014F0B8F907E01B20FAE7E920F8E7464630461DF01BFF1CF0A2
:202C9C0063FD9CE141460878862804D1002018F023FDA77866788FB186B9012F00F08D81BF
:202CBC006089022F03D110F0070F40F08681032F05D100F00701032901D07EE1608901096E
:202CDC0080F07B81011301F00201022902DA810A80F0738107994978C1F3810A8F11BAF183
:202CFC00010F00F06A81012F00F06781BF49B9F1020F09D0CA5D11F80A108918CEB2DFB12E
:202D1C00C10919D3B61E0BE07A185144127909798918CEB2C1090BD25AEA07030CD0B61C2A
:202D3C00F6B209E0F8540020140100209C4500205AEA070308BF0226C0F30020311A607118
:202D5C008D42C0F23A8106990968AD1B2D18A8B2D1F850122081743080B28847002865782E
:202D7C00606100F02A810021742213F0B1F90020E07062891DB9074902F02000087005481F
:202D9C00617905784FF0000C002D3AD0002938D104E0C0464E5900205159002002F0070098
:202DBC00032808D001282CD106980068D0F8D40090F882502DB306984068406905781DB1B8
:202DDC001CF0F6FFFE2819D006980068D0F84C02804750B906980068D0F84402804720B927
:202DFC006289617994F803C00BE084F803B06289617905E04C5900202D40002084F803B05E
:202E1C00DC46656905F17403AB6505F17400686023892B81079B208993F801B00029CBF331
:202E3C000118A5F85C001878AA8100F0780048EA00004CEA000028744FF0FF03AB730CBF13
:202E5C002079002085F8307085F83AA085F84900A089002EA0EB010087B2A78100F0AA8005
:202E7C00E169E68068463246C919083110F0B2FEF619B0B2A0812846027C4FEAAB0111F031
:202E9C00030F01F003076D4602F0400940D0B8F1020F4FF0000301D1D1090BD29DF80120D0
:202EBC009DF8001001EB0221A0F844100DF10205A0F842106D4EB0F84410B6F842208A42D4
:202EDC0003D04FF6FF728A4220D1032F11D06A78297801EB022189B24186B6F84020AD1C12
:202EFC0001208A4211D04FF6FF728A4218BF181C0BE06069294632301DF07CF8606937361F
:202F1C00314632301CF02EFC08350346002B48D007984078861120D06069B8F1020F03D089
:202F3C00017CC90903D309E059EA070706D16A782978AD1C01EB0221A0F84210032E07D0F2
:202F5C0069782A7802EB0122028506E0984300206069294628301DF04DF8608900F0070098
:202F7C00032809D0012825D106980168D431086890F88200F0B102E006980168D431D1F834
:202F9C00741160698847A8B90020079FE070B97866697878C1F3011100F078000843307474
:202FBC0008E006980068D0F8FC143148884714F0E3FC04E009F0CCFD01E01CF0A1FD1DF0C6
:202FDC0004FCE1690A68002313710968E1611DF071FD089A099F202100201140384008BF09
:202FFC00002919D01CF086FB16E0C046382A0200204B214A93F90000401E187092F90000E3
:20301C00401E107093F9007017B91C482A4602802846087114F0B0FC174A92F9000098B1C8
:20303C00089B099F02214FF0E0401940384008BF002912D092F9000000280EDC0698006861
:20305C00D0F84C05804708E00D480021069F01703868D0F858240846904706984068C06889
:20307C0000210BB00170BDE8F08FC046843C0020544300209E4500209D4500200E3B0020B8
:20309C009A4500202DE9F04F0222ADF1340D502600230A9197490990081D027040224A715C
:2030BC0081464E721846C87380228A710022CA7188890A7240F430508881A0228A72184674
:2030DC000874CA488A7300F138021768CB722FB90A6822F00F0242F0020204E00A6822F047
:2030FC000F0242F00102C748C54F6FF30F1248F220230025134300780B6089790C9587F8CB
:20311C002A1060B9284616F0BBFD384690F82A00000911D3284608A98DF8200009E03846CC
:20313C0090F82A00000907D301200DF121018DF82100522019F022F91BF048FC800838BF93
:20315C00281C03D328461AF0D7FE01200028B94FDFF8E4B20B9040F0BC800DF077F95FEA71
:20317C00000A40F0A980A64ADDF83080212074211C3215461DF02CFA002858D12120414690
:20319C0074222B461CF022FF002850D19C48408E4FF6FE7181424AD0994890F842004FF069
:2031BC000108082806D0042804D00DF03FFADDF830803CE0444642200DF122018DF8224019
:2031DC0019F0DCF805F12F01432019F0D7F805F12C01472019F0D2F805F11C014A2019F0B2
:2031FC00CDF805F11A014B2019F0C8F805F12401304619F0C3F805F11601532019F0BEF815
:20321C0005F12D01542019F0B9F805F11801E12019F0B4F87A4890F82A00000938BF0C9C5F
:20323C0052200DF122018DF8224019F0A7F80C9C12E078680C9AA60006EBC40621460C2339
:20325C0036180096012019F0C5F918B9307880F0FF003070641CA4B20BF1040039880068FF
:20327C00A142E6DC00B1804717F075FBB8F1000F18D01DF0F9F86349888428B999F80000D6
:20329C0000F0F80089F800005D4F03200C460026487005F1390187F8426004F11C001CF03C
:2032BC00A9FE01E04FF0090A7E480021BAF1000F418008BF0B9102D001277A480B9780462F
:2032DC004F48504E90F83410012707FA01F030617FE00DF0BBF80DF0A9F9494A212074210F
:2032FC001C321CF033FF02A8FF210C2212F0F0FE2C460BE0F457002002A8009021462A4665
:20331C000C23012017F06AFA641CA4B23888A042F2DC5846006800B180472846ADF80800F7
:20333C004FF4A17011F0BAFA071C10D0FF214FF4A17212F0CDFE02A800884FF4A1713A461B
:20335C00388042201CF002FF384619F09FFD2846ADF810002946062202A812F0B9FE1420B6
:20337C0011F09CFA071C1AD09D480C30006898B10326022002AA136881B2C919801D92887D
:20339C000B60761E8A80F5D104A8008814213A4638804C201CF0DAFE384619F077FD18201E
:2033BC0011F07CFA071C10D02946182212F090FE2C4604F2012018213A461CF0C7FE641CAB
:2033DC00032CF6DB384619F061FD18F09BFF354880460B98012873D10448094C00781C348E
:2033FC0060B3012810D0022816D101E0EC3D002099F8000000F0F80040F002000AE0C046BF
:20341C00F43B0020143D002099F8000000F0F80040F0010089F800009C481BF036FD00285B
:20343C0008BF002003D09F4A04210320D1729D4948700CE070450020F44300209949022088
:20345C0099F80070487007F0F80089F800001DF0F6F80999944F934E00F07F0008186430A3
:20347C0080B20C90786C02213061FF2019F0B4FB8E494FF6FE700D464886471CE886002057
:20349C00A1F8407019F09AFC8748007801280ED10A98012808D002A80021082212F018FE29
:2034BC0002A802E0C4440020002018F081FB2120742122461CF04AFE0020022119F08CFB33
:2034DC007948DDF82CB0C07804287BD1444DE86878B9122011F0E2F90028E86072D04FF697
:2034FC00FE71861F032726F8061F00207F1E7080F9D1BBF1000F65D106AB4C200021022265
:20351C001CF064FD002856D1BDF81800002852D0042850DA182011F0C1F94FF003090227FF
:20353C00002441F2D87A0646EB68B9B24C2006221B191CF04BFD98BBE868015B4FF6FE72EC
:20355C008A422DD066B3201840880021182233461CF03CFD3069EB6800F2E9323261181997
:20357C004188EB68880000EBC1004019A0EB0A000260181941887369880000EBC100E96834
:20359C0041F2D4724019801A036008194088324618211CF0DBFD30460021182212F098FD5A
:2035BC00B9F1010904F1060407F10607BCD116B1304619F06BFC3C4B7120002108225C330B
:2035DC001CF004FD3248384E324FC8F80C00F078C8F81070042805D01AF054FF2F4804E014
:2035FC00AC3E00201AF03AFF2D482B49BBF1000F08601AD02D4890F85D00B0B93046C078FB
:20361C00012812D13046007B78B1622002A913F0C7F902A800211AF0B3FA002010F05CF882
:20363C0002A80021102212F053FD1E48806950B11C4C18340768206819F028FC1949384617
:20365C0000288861F6D109984FF6FF71814217D014480125024600271146057014468F725E
:20367C0085200A3229461CF0B3FF0A3428B9852039462A4623461CF0A9FC0C981BF0FAFCAE
:20369C001BF0EEF958460DB0BDE8F08F304100208DC000005D02020088430020CDFC0100A9
:2036BC000FF30100143D0020EC3D0020F43B00202DE9F04FC84DDFF824B3CC4E0C46E00B73
:2036DC00ADF1140DC00340F0A781DFF81483DFF81893600880F03E812878DFF808A3A10B9F
:2036FC0080F00F81CB480768600980F0EC80200928BF84F0080480F0AF82600A80F0A280BA
:20371C00E00880F09580200A63D2A00A5CD2C54D200B2BD2E00A27D3142011F0BFF8071CBC
:20373C001FD00026B146287A012813D106F21118494614223B4640461CF048FC50B92868DC
:20375C003860686814213A46786040461CF0FEFC85F80890761C0C35032EE4DB384619F06D
:20377C0095FB84F4806078E2002076E2182011F095F8071C25D000262435B046287A012855
:20379C0013D106F20129414618223B4648461CF01DFC50B928683861686818213A4678617E
:2037BC0048461CF0D3FC85F80880761C0C35032EE4DB38464146182212F08AFC384619F06E
:2037DC0065FB84F4006048E211F07AFD84F4007043E215F031F8287805281DD1287A042136
:2037FC0016F052F9287A042114F0F8FA06201CF0C7F81CF04DFD11F063FD17F0CDFA58468B
:20381C000078000904D35146C91D0878012805D168691AF027FA01E01CF03AFD01201AF0ED
:20383C006BFB0320012101F0ADFE84F0800014E2FF20032119F0D0F91CF02EFEBE490120C6
:20385C000860FEE7424692F84200082818BF042815D11C32212074211CF078FCBE4EBF48DB
:20387C0071683288C3690025B1468046AA4209DC0BB1184680470020022119F0ADF984F46F
:20389C008074E9E1A80000EBC5000F5C37F07F0C16D017F07F070F54084405D101A8FF2118
:2038BC000C2212F015FC01A80090294600220C23012016F093FFD9F80410D8F81C3032883E
:2038DC006D1CADB2D2E74FB17968087818B14868007813F04DF93F68002FF5D11CF0C4FD27
:2038FC00A8841CF06FFA51460878012806D1454628784FF4006164221CF02EFF84F01004DE
:20391C00AAE10C280FD00C201CF03AF82878012803D0022818BF0C2801D100206871504651
:20393C0000F134010DE002201CF02AF82878012818BF022804D10120687100201BF09AFBAF
:20395C0049460A68287A4FF400511CF005FF84F4005481E101201CF013F830786F7800F01F
:20397C0007011220012918BF022949D14FB3032F27D0012F44D101290CD00A201CF000F807
:20399C004946287A0A684FF400511CF0E5FE0FF053FE35E00A201BF0F3FF454628784FF4EB
:2039BC00806116F071F8502004A91AF06FFEBDF81000A5F84000BDF81000002112F02AFD56
:2039DC0025E01CF0EDFB98B1032F11D01CF037FE0CF0A2FE14E0C046143D0020FA570020BD
:2039FC00F43B0020F43D00202C3E0020F857002002201BF0C5FF9A492869097815F032FCF9
:203A1C0028B1287A01214FF47A721CF0A5FE84F0010421E16C450020924FDFF84C924FF0EE
:203A3C00000A10E1BC3E00200246167839782B783046401E00F0E580401E21D0183800F073
:203A5C00FC80B93800F0F5802A3800F0F980361F0DD0361F40F0F480012918BF022940F026
:203A7C00EF8010790FF038FE1CF012FCE8E0012918BF022940F0E480404606F031FADFE0F5
:203A9C00012918BF022940F0DB8099F81C004E46072818BF082805D16A7A1AB9012101F03C
:203ABC0071FD2B78032B00F084800A2B11D0042B15D00E2B13D00F2B11D00D2B0FD0002B14
:203ADC0000F0BE8017F068F9287A102115F048F9B6E06848007800F00700012869D06E7A1C
:203AFC0068785EBB5046287317F02AFDC0B106201BF046FF287A4FF4005115F0C5FF9BF8D9
:203B1C000000000909D3FE7B3EB950461AF0AAF850461CF0B5FC1CF0B9FC17F03DF98FE032
:203B3C00788E1AF09FF805201BF02AFF42F210701BF0B0FA84E0C0467C052043297B0128E5
:203B5C000ED0032823D10320494B6870981C80F800A00126AE711AE070450020E043002099
:203B7C00491CC8B20428287304DB4048007801280BD00CE03E4800884FF6FF71814204D05A
:203B9C00032068700423EB72E3E785F801A019F051FB1BF043FC9BF80000000902D3F87B1F
:203BBC0001284DD1687803284AD1788E1AF05AF846E06B7A1BBB287A102115F0D1F817F091
:203BDC00BFFC90B1287803280BD117F0E5F8307F022806D101201AF08FF90220012101F0AA
:203BFC00D1FC06201BF0CCFE2AE0788E1AF03AF805201BF0C5FE012018F01AF820E05046D1
:203C1C00FAE7022B1CD1012918BF022918D11CF0A9FC40B91CF0D6FC00280CBF5046012046
:203C3C0018F006FC0CE011F053FC48B115F022FC06E040460FF0C0FA02E040460AF0A0FDE2
:203C5C0040461BF097F9287A15F05CF85FEA00087FF4EAAE84F40044A0B205B0BDE8F08FE9
:203C7C00B5400020EC3D00207840002001410020343C0020F85700202DE9F04F0446208949
:203C9C00ADF1440D28B1C2482A30008808B11AF0C5FD4FF0000B52200FA98DF83CB018F0E2
:203CBC006DFB6068217A01AA0BF0E0FA002800F069829DF806000228B4BF01275F469DF800
:203CDC0008000228A8BF5F46BDF80E004FF6F87880450BD008F10101814207D008F10201E1
:203CFC00814203D008F10301814200D15F461CF0B5FB9DF80710884240F04482002F00F095
:203D1C0041829DF83500002840F03C82208D9DF80A60678EADF83000ADF8127056B1616877
:203D3C009DF805209DF8203001201BF005FE002840F028829DF809709DF80A50DFF87492BD
:203D5C00002F4CD19DF821005E4658BBBDF80E00034617F0EDFD3746022808BF0127002FCC
:203D7C009DF8067018BF012649460988994208BF46F0020626B1002F14BF402120210E4352
:203D9C00184617F0D5FD012808BF46F00106002F3DD00B9A10781CF091F9012818BF26F08E
:203DBC00010635E09DF8250088B1FF280FD09DF824700C2F2BDA57B30A99891E1CF054FBBA
:203DDC0031F8022F904222D07F1EF7D11FE04946BDF80E700888B84208BF222617E0BDF83E
:203DFC000E10FF201AF05CF8002808BF082608D09DF8090047F001072C2640F001008DF832
:203E1C00090007F00307012F08BF46F011060B9A8DB9C748007870B106F0220022280AD069
:203E3C0006F04200422840F0AD811078062818BF072840F0A781F0094FEAA61A48D31778B6
:203E5C003846C01E012825D9001F23D0C01E21D0801E1FD04946BDF80E600888B04240F0F1
:203E7C0091810520BDF810408DF839000EA81BF061F8002800F086810269032313261370A6
:203E9C00511C0E704C7022128A70CF70448007F065FD77E15FEA5A001AD3032F02D1507820
:203EBC000D2815D09DF80C0038B1BDF8100007990CF054FA012800F061819DF80B0038B10F
:203EDC00BDF80E0006990CF049FA012800F05381B4F8447049460E310888B84209D1CDF8E1
:203EFC0000B0208DB4F8421094F846205B460DF00BFA9DF80A00A54DDFF89492002872D0BE
:203F1C00208DB4F842101CF0E3F9071C54D19DF8350000283ED195F88800012863D10B9894
:203F3C000078062802D15FEA5A005CD2BDF8121008F10700884200F02581BDF80E00494692
:203F5C000831097811B1698E81421DD0594612F0B3FC80B18079BDF81020BDF80E1010F0F0
:203F7C00180F0CD0608E00901046238D9DF8212016F05CF906E1BDF80E10BDF81020104678
:203F9C005A4612F0BBFFFDE017F052FAFAE0C046EC3D002004201AF023FF011C00F0F28081
:203FBC006420087001274F70208D4880287816F099FAE7E0263C00209DF805106068FB7826
:203FDC000A18527B9A4203D0FA7058467860606840180421401C1BF0AAF97968814200F262
:203FFC00D180401C786095F84200042818BF092840F0C8809DF81610B00980F09B800B9902
:20401C005FEA5A00C0F0BE800878042804D19DF82000022800F086800A78072A04D19DF880
:20403C0020302878042B45D0032A3ED00C2A40F0A98048788E7878BB4C4604F11B02512058
:20405C000121167090461CF081F85248012707702878022117F0ECFCA8B9E07EA37F02284B
:20407C0011D1002B14BF4EF660204FF47A704A4951F823102B7803224843B0FBF2F202213F
:20409C0018461CF066FB70087CD3E6765120394642461CF05BF875E0E98E01201AF0CEFA80
:2040BC002878012115F0F0FC6CE001A8594617F07FFC67E04FF4806115F0E6FC374A908830
:2040DC001CF0E4F9D0881CF0DBF94C465F461B342770092085F842001BF074FE014606983C
:2040FC001BF040FB01284DD110201AF079FE074607990B98002F00F1010043D002223A70D4
:20411C004378027802EB03227A80807878704A2018F034F99DF80A0010B921490520087054
:20413C00394643E7584601A906F0B4FF2AE0C0461B3C002094F8460094F847708DF8380070
:20415C0094F948608DF8397001298DF83A600CD1208DBDF81010884207D1BDF80E0017F0CC
:20417C00E7FB022808BF8DF816B0E26B01A80EA900F04EFC06E0BDF80E0001E0BDF81000CF
:20419C0016F04EFF11B0BDE8F08FC046F43B0020EC3D0020043F0020782202009444002036
:2041BC00143D00202DE9F04F0446E5680E4600271E22ADF1540D39460AA88DF846701CF054
:2041DC006AFB6978287800EB0120ADF8280015F8020F8DF82A00E07A002800F08F81401E57
:2041FC0000F00F81401E00F0EC80401E00F0CD80401E00F08A80401E71D0401E40F00A82BD
:20421C00BDF828103E4621B12068007D19F048FEB8B105201CF03DFB5FEA00080FD0206861
:20423C00BDF82810007D424616F024FB06462068437D3D460BB943882BB126B94AE0892512
:20425C0001E0B04685252068017D1291801D139019F0F4FFA94694F80AB0BDF82850C0F1C9
:20427C000500B9F1000FC0B2149006BF701DC4B2042420461CF00DFB5FEA000A2AD000F89F
:20429C00019B149900F8011B2B1200F8015BB9F1000F03700AD100F8016F3EB1401C4546CF
:2042BC0015F8011B761E00F8011BF9D101200090019002900397CDF810B00594CDF818A03E
:2042DC001399079012980522062306F001FB50461CF026FAB8F1000F00F09A810AE120689B
:2042FC00BDF828109DF82A20007D12F007FC002800F09181F16A002900F08D812268099085
:20431C0008A8921D0892884785E1BDF828100D1C04D02068007D19F0C3FD30B320689DF89B
:20433C002A20007D12F0EAFB051C06D119F086FF0528A8BF892719DA0AADB16A3E4639B1B6
:20435C0020680995801D089008A8884700B101260AA8A84203D04EB11AF0B0FA06E02068FF
:20437C00007D0AA911F0FDFC00E085272568687D002840F04D816888002840F049819DF82C
:20439C002A003E460422074637E1BDF828100E1C07D02568287D19F083FD002808BF852685
:2043BC0005D02068007D15F0DDFF25683E466A7D002A40F02D816A88002A40F0298103220B
:2043DC001BE12068BDF828109DF82A20007D14F023FB50B92568BDF82810287D19F060FD44
:2043FC0000280CBF85278B2700E02568687D002840F00E816888002840F00A8102223E469C
:20441C00F9E02068BDF828109DF82A20007D12F075FB061C0ED1BDF8281039B12568287D5A
:20443C0019F03EFD002808BF852001D025688B200AAE01E0256838466B7D002B40F0E88030
:20445C006B88002B40F0E480E17A012940F0E080297D5FEA000905F1060B94F80AA01291A1
:20447C0005D1307E317A0918C91DCDB200E0042528461CF00EFA5FEA000800F0C98004460C
:20449C0004F8019B307804F8010B3088001204F8010BB078B9F1000F20701BD1B088641CD1
:2044BC0004F8010B001204F8010B307A04F8010B337A3BB106F1090120461A461BF0D4FBD2
:2044DC00307A2418337E2BB1193620461A4631461BF0CAFB01230093019302930397CDF8B2
:2044FC0010A0129805955946CDF818800522079306F0EEF940461CF013F989E06D1C6978A1
:20451C002878236800EB0120ADF82C00AE78187D042205210DF1460318F02DF99DF8460020
:20453C00ED1C50B1102EA8BF0F260DF1310029468DF8306032461BF097FBE068238AAD19F8
:20455C00291A581AC0B28DF8400088B10428C4BF04208DF840000DF14106FF210422304681
:20457C001CF099F99DF84020294630461BF07CFBBDF828100E1C05D02568287D19F090FC72
:20459C00002830D020689DF82A20007D12F0B6FA051C06D119F052FE052802DB89262568AA
:2045BC0022E03E46CDB19DF84630BDF82C00A8802BB105F108000CA910221BF055FB9DF816
:2045DC00402005F119000DF141011BF04DFB9DF8400028761AF072F9E1E72068007D0AA955
:2045FC0011F0BFFBDBE78526687D88B9688878B9E07A68B93A469DF82A70BDF82800009099
:20461C000197A07A0290287DA91D334615F0D1FEFF2700E00127384615B0BDE8F08F704736
:20463C002DE9F84FDFF834830F460646F80B80F09B81C74DCA4C2878B90F80F03581DFF8B4
:20465C0024B3B90880F02881DFF80893DFF808A3F90A80F08B80390B54D2380907D2F80F90
:20467C00C0F0BA8127F0804714F056F8B4E11CF0ACF805461AF03CFA00283DD019F060FB9A
:20469C00002839D04C4603202070D0481CF097F828461CF00FFA0DF0FDFD022000211AF00E
:2046BC0015FA022018F00CFC11200DF02DFACE48007820B95546286848301CF09CF8CB488B
:2046DC00007810B90E200DF01FFA607B20B100206073052018F0F4FB002041462070C44A39
:2046FC00B1F91C00B1F91E106260884214BF0220072011F0DBFD02E028461CF0DBF927F038
:20471C000807B1E720B1042018F0DAFB0020287055462E6818F022FC40B1F0696FF4807157
:20473C0000224FF0007384463046E047B14E306858B12068006B8047326829680024801ADF
:20475C00C860C8683460000BC860AB48AB4900221CF043F84C46584602210068217010B1C1
:20477C00A7481CF050F827F400677DE71CF02DF800901AF0BDF9002840460068834600F0A4
:20479C008580002800F082804846042606709D49994800221CF021F800981CF08BF98B48A7
:2047BC001CF00DF82068006B80474FF00108DFF844C285F8008064462060304618F09AFBB3
:2047DC00DBF810005546416A2860C90804D3016A00220B4631469847404613F06DFF2868AB
:2047FC0080F815800CF080FB2D68D5F8089040F60A01A446C81F421C4E4600E026467468F3
:20481C0034B12388994203D0984218BF9A42F5D100217160737B08F00F0423F00F031C437C
:20483C007473DBF80C301B88984225D09A4223D02C8E1CB3696305F13002518095F83C000E
:20485C000B4603F00F0320F00F00034385F83C3095F83D0008F00F0420F00F0044EA000373
:20487C0085F83D307260707B01F00F0420F00F0044EA0001717301E0CCF8001048461BF0F1
:20489C00C7FC014640461AF021F902E000981CF011F927F480679FE00FF0D2FA5846006866
:2048BC0008B927F0020797E0574A116841F08001116020B1042018F003FB002028701BF089
:2048DC0084FF8146606D0068014604208847D8B1307DC8B14D480568B5B120683469006B5C
:2048FC008047401B30613069000B30613069A04203D2001940083061306940F6C41181420B
:20491C002CBFB0F5967F316148461CF0D3F818F025FB88B1F0696FF4807100224FF00073FD
:20493C0004463046A04741460868002808BF47F0020701D013F0F0FEB06900214FF0806370
:20495C0004460A463046A04727F0005744E0C046F15700206C580020E0570020885500200C
:20497C008C010010905500201BF02FFF414618310E686EB306F1280191E80C004FF0E045D0
:20499C000A241D4004EA020108BF002920D106F1280191E8300006F1280393E8060006F13B
:2049BC002803AA43A14383E806001CF083F8B16881B1002D08BF002C0CD03069B6F93C100C
:2049DC00B2682B4616462246B04703E01C5500201CF070F827F480471FB1094839461BF000
:2049FC0012FFBDE8F88FC046F0570020F2290200A9F50000E85700204456002061160100A5
:204A1C0080530020F1EF0100CC210840E45700202DE9F04FADF1840D1B9100241C920646C8
:204A3C008DF84240D6F828C08DF84340317F8DF84D40B28DADF844400F46ADF85A20F2897C
:204A5C008DF854706046ADF84A20027802F00303022B8DF8402000F3C08123461D93401C0F
:204A7C001F9353083CD202F00C0EBEF10C0F0CD053093CBF10F8013B8DF84230BEF1080FF5
:204A9C0004BF01238DF84C3001D08DF84C40BEF10C0F0AD0737903F00303012B0CD142F06C
:204ABC000C0273898DF8402004E045780378801C03EB0523ADF84430530911D2457803788D
:204ADC00801C03EB0523ADF8463003784578801C03EB0523ADF8483010F8013B8DF84330AA
:204AFC0010F8013B32F07F058DF855301ED0037833F003058DF8413040F06B8103F0030EFC
:204B1C00BEF1030F00F0658113F0030F00F101000ED010F8013B02F00305022D8DF8573084
:204B3C0004BF10F8013B8DF8583001E08DF841401490A0EB0C003F1AFFB2B942C0F24981A2
:204B5C00C91B8DF85470C8B28DF84D00074300F04481D00907D3708916F0EAFE002840F0CF
:204B7C003C819DF8402002F00C002146001F08BF01211E91910933D301211F9180B3B2896B
:204B9C001BF072FC904202D1F08D000A0ED21BF06BFC904222D0F08D01460B0A38BF101C42
:204BBC0007D39DF8402002F0030C2EE07089ADF85A2080461BF058FCBDF85A10884205D000
:204BDC00404614F00DFE002800F007818448026810A940469047002840F0FF809DF840206C
:204BFC00F08D02F0030C01460B0A0ED2D3090CD39DF8413013F0030F07D102F00C030C2BF9
:204C1C0003D0082B1CBF01231D93DFF8DC81BCF1020F00F0BF80BCF1010F00F08D8012F0E6
:204C3C00030F40F0DA806F4A92F82720012A03D1B779002F00F0D1809DF8542002231A92B9
:204C5C00040A9DF84250BDF846B0BDF848A09DF855E09DF857C0DDF850908DF86430B2893C
:204C7C009DF84370ADF85C2034D21E9F40461630046897B91D9F1FB1104610A90FF014FCBA
:204C9C001F9800901C9F0197B07C1B9A0290F37C17A910A80DF0C2F89FE0307C002C8DF871
:204CBC00560000F09A801BF0DFFBBDF85C20904240F0938030791F9F00901C9D01971B9A50
:204CDC0002951D9B039196F8300010A9049017A8A04782E0ADF830008DF820308DF8227001
:204CFC0034798DF833407189ADF818108DF835E08DF82350ADF826B0ADF828A0CDF82C9031
:204D1C00307C8DF836C0B27C8DF8320096F830308DF83420334C8DF83730B4F8401096F8AF
:204D3C003270ADF824101A998DF8387006A8ADF82A1003F0BDFE50E01D9FB58937B1000AA5
:204D5C0004D2284610A90FF0AFFBB5899DF85400B6791030C0B21AF043F8071C3DD07D8116
:204D7C00022038703E737C709DF854203A7207F110057D609DF84000800928BF01247C72B9
:204D9C00149978680EF026FF40460078394615F0A9FB22E09DF8417040461E30B189036860
:204DBC0017F0030F10D110A807901048ADF8181006A918F04FFD80B1062141730068407B37
:204DDC00214616F051F908E03BB110A82246984703E08DF84D408DF8544021B0BDE8F08F2A
:204DFC0084430020F43B002002410020E5A201002DE9F04F9D489F4A01789D48117001274C
:204E1C0041709E499C4C4F805C302061ADF1240D486001F0BBFE0026BB46B146B246984DFE
:204E3C0060684FF0FF311BF041FE0028F8D0207813F068FF5FEA000800F02F810146AB6997
:204E5C000A782078923A00F09580921E73D0921E00F08D802F3A1ED0521E0CD0521E04D0C4
:204E7C00D21E7CD0521E76D087E0E878FF28BCBF401CE87081E01F885FB9EF7ABF1F012F70
:204E9C0005D9FF1E03D0484611F0D4F975E05846FAE70320F8E70B79CF1C9B1E0DD0DB1EF8
:204EBC0015D1C8780D2812D0E06842F210711BF0DAFBA1481BF0ADFC09E03B783BB9B9785E
:204EDC0041F002018DF8201008A91BF0E5FB2E7178780FF28C2C00B3401E13D0401E09D0BE
:204EFC00401E18D0801E1AD138780D2814BF9BA0604613E09BA0E8623B7883B92B6B73B905
:204F1C00A7A006E0A8A0E8623B7843B92B6B33B9A6A0286303E0A7A000E0A7A0E862387869
:204F3C00012824D0092822D00A2820D0BF780FB96046E8621BE01F88C878E872BFB9CF7809
:204F5C00BF1F012F03D9FF1E18BF484600D1584611F070F90BE0CD214A46032304E08DF8F8
:204F7C002060C12108AA082312F0A2FD05E0FCF793FA02E0081D0DF01FFE474638787128D9
:204F9C0021DC71284BD065280FDC65285ED0801F78D042387BD0183865D0401E60D0401EF4
:204FBC00012874D9801E54D074E066384BD0801E45D0801E03286AD9001F3CD0401E36D042
:204FDC00401E30D066E091280FDC91285FD0723802285CD9C01E1ED0401E18D0401E56D0E6
:204FFC00C01E54D0801E52D054E092380BD0C01E01284CD93038062849D91B3847D0801E0E
:20501C00012844D946E0FB6A002B40D03CE0BB68002B3CD038E07B69002B38D034E0FB684C
:20503C00002B34D030E0FB68002B30D02CE0FB68002B2CD028E0FB68002B28D024E0FB68FC
:20505C00002B24D020E0FB680BB31DE0FB68F3B11AE0786908B117F019FFFB69BBB113E07A
:20507C007B69A3B110E07B698BB10DE090270020201B002054590020483B0020AC3600203B
:20509C00B0390020BB6813B1184617F0FFFE404619F070FF384619F06DFFA068C10B31D3D9
:2050BC006778082F0CD145480078012818BF022806D10A2120788DF8201008A91BF0ECFAC1
:2050DC00102F18D108A81AF01DFFCDF800B00196CDF808903A49CDF80C909DF82000049020
:2050FC000622CDF814A00223CDF818A00820CDF81CB005F0EDFBA068667020F48041A16007
:20511C0020F48040810905D3FCF7C6F9A06820F02000A060C10934D3287861280EDC6128E6
:20513C0022D0413820D0C01E16D0401E12D00E380ED0001F0AD01AE0943B002064380BD077
:20515C00401E07D00E3803D0001F10D158460CE004200AE0102008E0022006E0504C00C0D1
:20517C002D2D00C04E4600C0082012F031FF154968692E705A461BF07BFAA06820F0400006
:20519C00A0604008FFF44CAE2078C4214A4608AB12F0C2FCA06820F00100A06040E6C046F9
:2051BC00464F524D00C046C04E5300C04A4F494E00C046C0464200C0494E00C0EC3D00209A
:2051DC005C3B0020B13900202DE9F04FCC4CD74DDFF85C83C80BADF1140DC003019140F094
:2051FC00C1810846400838BF0020C0F0C68167681BF058FC4FF6FF7281B267B13B887888BB
:20521C00CB1A9BB2984210DDC01A8242C8BF82B2FF68002FF2D14FF6FF70904200F08E8043
:20523C00207801211BF098FA88E0B879022878D01BF038FC97F83810388005F10A000078AA
:20525C00884267DD97F83600FF2808D197F83800401C87F8380097F8370087F8360097F87B
:20527C00356097F839300020012101E0401CC0B2834210DD97F836C001FA00F28CF0FF0CE9
:20529C0012EA0C0FF2D03618814097F83600F6B2014387F8361097F83400B98F10FB06F286
:2052BC00891A89B28842C7BFFF2087F83600011C97F8360095F82020FF2818BF97F83A005A
:2052DC0006D140460078642510FB02F212FB05F0788046B9388D3E7A40F020003885386C2E
:2052FC0087F82E600BE03A8D4FF6DF70104038853D6C87F82E6097F8342012FB065078625C
:20531C00F879CEB287F82D0007F110007E8403F0CFFB0FE0B87E97F82A10E92218F047FCC9
:20533C0005E0387CFF2802D0B86919F023FE384618F098F82078012113F012FD019880F089
:20535C00010019E12878012840F0098195F8338095F813A06F6995F831006988022218F080
:20537C0055FC05F11C0405F1020B06460020002E02907DD1687F400878D3A87FCDF80CA01B
:20539C001AF096FFBA4605F11009071C63D01C200FF084FA061C5CD000211C2210F098FEF1
:2053BC00A87F69461AF052F99DF8010002213075304617F0B5FC6888317DB08095F831008E
:2053DC00FF23F07103FA01F0707478680078307495F83000B07495F8331011FB00F0303053
:2053FC0080B219F0FDFC0746B76127B9304618F039F800262DE01A20387000237B701A46E6
:20541C007A80E0885946B880B81D19F073FEE078474BF87303F1200000883882608BB88515
:20543C0060897882A0783875207B787599F80000B87599F80100F87599F902003876039A84
:20545C007A76C7F81CA007F13001B962A07D87F82400304600E00020002806467FD0284818
:20547C0086F808800078012113F07AFC002E76D0307AA8EB0000B0F1FF3F04BF01200290F1
:20549C00307CFF2856D06078400828BF4FF00008317DF07C4018404503DCF074FF20884088
:2054BC007074B069B17C227D806A08FB010021690EF090FB029F317D727C012398FBF1F031
:2054DC004843A8EB000003FA00F11143C9B27174C7B1401CFF2202FA00F001437174B769C6
:2054FC00B17C207D08FB0100F884707CFF2809D1307CB16914F0F6FFFF2030741AE0C046D7
:20551C00284500201BF0CEFA3080094F0748074B90F82010387810FB01F1987A6422401C0D
:20553C0010FB01F010FB02F0708003E0EC3D0020143C0020F17C327DA8EB0100801AB0F1DF
:20555C00FF3F04D0707CFF2801D0029F3FB1E175707C2076BBF8000021460EF0A5FF2846A6
:20557C0019F008FD0648007813F0CCFB051C7FF4E9AE019880F4004080B205B0BDE8F08FEE
:20559C00284500202DE9FE430E46C24ADFF808831178401E072800F29C81DFE810F07F01DD
:2055BC005C01F600DF00BF007D0046000800052044468DF8010094F83B005EB3E07F207710
:2055DC000027E7774FF47A7018F04CFB0D2694F83B0084F83A6000F0DF0084F83B000420F4
:2055FC001AF0CEF9217F384606290BD1216949B10A7BD30903D302F0BF0201200A734969D7
:20561C000029F5D1002800F064814FF480414FF47A725BE140F02000022784F83B000020C3
:20563C0084F83A7018F01EFB53E10025012E8DF8015014D01AF096FF60B1052044468DF8E1
:20565C00010004F13B01087840F0200008700A201AF096F94446022084F83A0017E04FF455
:20567C007A7018F0FFFA64201AF010FF1AF008FF04201AF085F910F0F1FB44460D20042101
:20569C00C82284F83A00607825771BF065F894F83B0000F0EF005EE0032044468DF801005B
:2056BC0094F83A0008B90120A0712078002840F03381627820691AF027FB002840F02C81DD
:2056DC0010464FF4804116F0B3F9002840F0248100256561A56118F025FC60784FF48041AF
:2056FC0014F0D2F9A07928B194F83A000B2808BF84F83A50A571217F6078062904D0E07F17
:20571C00062808BFE57704E02577042132221BF023F894F83B0000F0F7001CE00220012E02
:20573C008DF8010005D044460820002684F83A0007E0002644460321304684F83A6017F016
:20575C004BFA60782677042132221BF005F894F83B0000F0FB0084F83B00BAE001208DF849
:20577C0001002EB16D490020087006201AF008F94446002020776078042132221AF0ECFF27
:20579C0094F83B0000F0FD00E5E7012918BF022940F09F8045466878042132221AF0DCFF29
:2057BC00286A012E49D000264FF47A708DF8046018F058FA0127022085F83A0095F83B4054
:2057DC008DF8017001A92E7704F0FD0085F83B00522016F0D3FD1AF0B0FC16F0B1FD504C71
:2057FC00606820B1606817F051FB26806660DFF83491D9F800407CB120686768006A17F0CB
:20581C0045FB206817F042FB606917F03FFB204617F03CFB3C1CEFD14846066019F0FAFCA7
:20583C004148007814F002FA30461AF0A9F8286A00284ED017F02EFCF9E70121297720B1AE
:20585C0017F028FC286A0028FAD14FF47A7018F009FABDE8FE8300201AF0AEFB04270120FF
:20587C008DF80170107446B10020444684F83A0084F83B0006201AF083F844460020207798
:20589C006078394632221AF067FF94F83B0000F0FE0060E7EC3D002078400020012918BFB3
:2058BC00022916D1012E23D00120444607278DF801004FF48051607884F83A7014F0E4F847
:2058DC000020022141F2883284F83B0060781AF043FF4446606AF8B194F83A000021032298
:2058FC006B468DF800000A2015F090FEBDE8FE830020032117F070F94446042132226078E4
:20591C0021771AF029FF4FF47A7018F0ABF960784FF4805114F0B8F8BDE8FE83B2400020F0
:20593C007045002078450020F43B00202DE9F0410D466868ADF1180D002800F09D810026C1
:20595C0069686E70CB4C087860B1487800280CBF301C01202246234601210C321873632075
:20597C001AF0F4FB6A68977867B1D078234600280CBF301C01200121DA1CD87064201AF01A
:20599C00E5FB6A6817796FB15079234600280CBF301C0120012103F10D0258736D201AF070
:2059BC00D5FB6A6897794FB190682346383304211A46186035201AF0C9FB6A68177B4FB1C9
:2059DC00D08923462A3302211A46188025201AF0BDFB6A68177C4FB1508A23462C33022140
:2059FC001A46188026201AF0B1FB6A68177D4FB1D08A23462E3302211A46188044201AF084
:205A1C00A5FB6A68177E4FB1508B2346303302211A46188046201AF099FB6A68177F4FB135
:205A3C00D08B2346283302211A46188083201AF08DFB6A6892F8207057B192F821002346D3
:205A5C005B1C01211A46187029201AF07FFB6A6892F8227057B192F8230023469B1C0121F7
:205A7C001A4618702B201AF071FB6A6892F8247057B192F8250023460A3301211A4618700A
:205A9C0043201AF063FB6A6892F8267057B192F8270023465B1D01211A4618702E201AF031
:205ABC0055FB6A6892F8287057B192F8290023469B1D01211A4618702F201AF047FB6A6833
:205ADC0092F82A7057B192F82B002346DB1D01211A46187030201AF039FB6A6892F82C70D8
:205AFC0057B192F82D0023461B1D01211A4618702C201AF02BFB6A6892F82E70AFB192F8C0
:205B1C002F30102B8DF8003003DD10208DF800000346116B0DF101001A460EF05BF881206F
:205B3C0011216A461AF012FB6A6892F834704FB192F835101029C8BF1021926B62201AF007
:205B5C0005FB6A6892F83C704FB1106C2346443304211A46186084201AF0F8FA6A6892F8CC
:205B7C00447057B192F8450023460B3301211A4618704B201AF0EAFA6A6892F846706FB142
:205B9C0002F147000168406823464C331A4650601160472008211AF0D9FA6A6892F84F70AD
:205BBC002FB15032012008211AF0D0FA6A6892F858704FB192F859000DF111018DF811009C
:205BDC00522016F0DBFB6A6892F85E70DFF8B4804FB192F85F00434601214246187033202F
:205BFC001AF0B4FA6A6892F85C7037B392F85D0004F1080701213A46387032201AF0A6FA8E
:205C1C003220314601223B461AF0E0F904F109033320314601221AF0D9F91B48217A0078D8
:205C3C00012904D04FF4006113F02EFF04E04FF4006164221AF090FD6A6892F8607047B1AD
:205C5C0092F8610011496A68114F087092F86100387092F8627027B1506E6A6843463333F3
:205C7C00186092F868704FB1D06E43463733186004E0C046EC3D00200220687006B0012081
:205C9C00BDE8F081F53D0020F43B002061450020783C0020F0B50E467068ADF1140D0028DF
:205CBC0000F08381B068002800F07F810025C14C7268757004F10C00177803783FB1B068A0
:205CDC0001210170284603B10846B16848707068E378477847B1B06801218170284603B19D
:205CFC000846B168C87070688778637B47B1B06801210171284603B10846B1684871706876
:205D1C00C778A16B2FB1B06801228271B068018170680779618D2FB1B06801228272B06807
:205D3C00818170684779A18D2FB1B06801228273B068018270688779E18D2FB1B068012273
:205D5C008274B06881827068C779218E2FB1B06801228275B06801837068077A218D2FB1BA
:205D7C00B06801228276B06881837068477A61782FB1B06801228277B068C1777068877A09
:205D9C00A1783FB1B068012280F82020B06880F821107068C77AA17A3FB1B068012280F853
:205DBC002220B06880F823107068077B61793FB1B068012280F82420B06880F8251070680A
:205DDC00477BA1793FB1B068012280F82620B06880F827107068877BE1793FB1B0680122BC
:205DFC0080F82820B06880F829107068C77B21793FB1B068012280F82A20B06880F82B1092
:205E1C007068077C37B3B068012111226B4680F82C10294681201AF0D9F89DF80000B168B6
:205E3C0081F82D00B26892F82D1089B10EF036FDB1680863B268106B002808BF82F82D5055
:205E5C0006D09DF800200DF101010DF0C3FE00E015637068407C80B110200EF01FFDB1685D
:205E7C008863B168886B40B1012081F834008B6B1022622029461AF0A9F87068616C877CE4
:205E9C0037B1B068012280F83C20B06801647068C77CE17A3FB1B068012280F84420B068DD
:205EBC0080F845107068077D67B1B068012104F14C0780F84610B0683A68473002607968C1
:205EDC0041607068477D67B1B068012180F84F1019F078FFB168026850310A604068486002
:205EFC007068877D87B152200DF1110118F0CEFB9DF81170B068012180F8581007B92946C0
:205F1C00B06880F859107068C77D3FB1B068012180F85A10B06880F85B507068077E237A0F
:205F3C0057B1B06801212A4680F85C1003B10A46B06880F85D207068477E617A3FB1B0681E
:205F5C00012280F85E20B06880F85F107068877E5FB1B1680120184B81F860001F7807B15B
:205F7C000546B06880F861507068C77E4FB1B068012180F8621015F00BF8B16881F863003B
:205F9C007068077F3FB1B068012180F86410B168E06B88667068407F48B1B068012180F8DD
:205FBC006C10B168206C086701E00220707005B00120F0BDEC3D0020614500202DE9F04F6B
:205FDC00A34CADF1340DDFF88C82DFF88CB2A0780591C90BCF035FD10598800805D301203B
:205FFC00059FE07087F0020066E10598000938BF0020C0F0628158462A30A76A00780026DA
:20601C00B14600091BD21AF04DFD45468446AB8EE06A95F82220ACEB00018B4238D8B1FB5B
:20603C00F3F080B28242ACBFC5B2151CB1FBF3F25A43891A88B2ACEB0000E06200E001256E
:20605C00EFB1C846F878A8420ADD401BC0B2F87040B109F101061FFA86F93E467F680CE01F
:20607C0087F803807868002E82460CBFC4F828A07060384616F00AFF5746002FE2D1A078E9
:20609C00B9F1000F04D10021E162082113F0FCFC059880F008000FE112F034FE071C00F082
:2060BC000881B87FC0B9788CA56A132815D1B7F80290281C11D000260188894508D14568EE
:2060DC00002E0CBFA562756016F0E0FE284601E0064640680028EFD1A56AB87A97F83110AF
:2060FC002E4602284BD1788866B1DFF8D4C13288904204D1B2789CF8003091423DD076683A
:20611C00002EF4D181468A464646002D08BF002003D001200DB16B685BBBF18E81422EDD51
:20613C0008200EF0BBFB96F8221040B3A0F8009080F802A0C17000234360A36A43B9A06270
:20615C009BF82A00000909D21AF0ACFCE06200E06860584690F82A00000910D3A078082169
:20617C0015F066FC58B9A078B28E08211AF0F1FA05E0401C1D4680B2CCE7F37096E051481A
:20619C0005683878012806D0022840F08F80384611F05CFD8AE007F11004B81CBE89089459
:2061BC003B7E0690FA7C07967969099397F819B00A923C7F0B9107F11C0604F00C000C284A
:2061DC000DD0B87F4FF0FE09FF2804D01AF070F8041C10D16AE0002D68D06C680FE0B08831
:2061FC00FE2116F039FB8146B9F1FE0F5ED01AF05FF8041C5AD0207819F036FA05464FF672
:20621C00FF7A0BE0207819F02FFA054606E0B078FF284BD12D68002D48D06C68002C45D0A9
:20623C00AB68AAF1010823B9A3680BB1B3F8028007E021780220984718B1B0F8008016F043
:20625C0025FE3389227898450AD03AB943B11CE000410020EC3D0020F43B00209A4514D152
:20627C0096F80280B27008980090099B01930A9902910B9A0392CDF810B0079B069A3046BB
:20629C0021460CF0F1FE86F80280307800F00C000C28BCD1B088494616F0DEFA8146B9F115
:2062BC00FE0F03D01AF004F8041CABD1384618F061FE059880F4004080B20DB0BDE8F08FF7
:2062DC000E3E00206C4500202DE9F04FADF1440D0B908069007800210DF12A020F909C207F
:2062FC0011F0E6FCB54D287830F0010009D10020042118F0EFF85FFA80FA9DF82A005044A8
:20631C0002E001204FF0000A8DF82A000F989DF82A10884280F2DE809DF82A000F99401A95
:20633C00C0B20D900228C4BF02200D901A2110FB01F000B20EF0B2FA0E90002800F0CD8030
:20635C000F980D9F0E9C0C90002F08BF002074D04FF00008B946012645460C9882450ADCE5
:20637C000F9940468A4504DAA1EB0A01C9B20C9163E00C9561E0411CC9B20C9118F0BEF81F
:20639C00071C54D08E480146B0F8400055312080A01C19F02FFE388860820223E375FF223D
:2063BC002276B87A60768DF81C503888ADF81E0007A80FF003FFAB46012808BFB34604F12E
:2063DC000A00BBF1000F06D104F10A00FF2108220FF07EFE02E008A919F00CFE3B797BB9B3
:2063FC003F88002F04BF2575281C04D07448267590F85400401E207602206075A57515E0E9
:20641C006F4890F85400401C20763879032804DB26753879032805D106E002202075387985
:20643C00012801D0667500E06575A6751A34B9F1010908F1010890D140460D9981424CDD19
:20645C000D9DDFF87CB104F1020804F10A0702264FF0000A4FF001091A3C2D1A0C998720CA
:20647C006A4611F025FC5849BDF80A0024F81A0F404619F0BFFD0DF10201384619F0BAFDFF
:20649C00BDF800004D4B6082187830F0010003D16675A675FF2006E084F8159084F816A0DE
:2064BC009BF85400401E2076E675638A9DF81200002B60760CBF84F814A084F814900C9836
:2064DC0008F11A081A376D1E00F10100C0B20C90C4D102E000200E900D900B98417C0D9FCB
:2064FC000E9D8DF82B10801C16210B9017FB01F0001DC0B28346401C0EF0D0F95FEA0008D8
:20651C0054D008F101040020A2468AF800009DF82A000F9F88F802000D9E88F8037088F8A6
:20653C00046096B30D9F2E46241D06F102090A362046494619F05EFD08343146204619F074
:20655C0059FD0446A87C04F8010B688A001204F8010B287D2070697D40EA8100C0B220707F
:20657C00A97D40EA011004F8010BE87D04F8010B287E04F8010B687E09F11A091A367F1E8B
:20659C0005F11A0504F8010BD2D10E4D0B990DF12B0048F231025B462C1DC4F800A012F042
:2065BC00F3FC404616F072FC09346C600E9808B116F06CFC11B0BDE8F08FC046EC3D0020CC
:2065DC00F43B0020503E0020493C00202DE9FE4F0D46074628687C68BE6800283AD01AF024
:2065FC00F4F8D4F8BC1081460120019008294FF0000088BF0198A968084202D169680842E9
:20661C0005D0019880F00100C0B201281DD1D4F89400B8B9C4F89450C4F898500020C4F805
:20663C00A4000146C4F8A81094F8D030C4F8AC10002BC4F8B0100CBF01980520D4F8981037
:20665C00087411E094F8CC0038B90320287448461AF030FA0020BDE8FE8FD4F8980045618B
:20667C00C4F8985006232B74D4F898000021416194F8D000012809D1022294F8CF308C4988
:20669C00E06984F8D020194315F0C4FD686810F0704F06D128B1042016F02CFC062016F04A
:2066BC0029FC022016F026FC94F8CC00DFF80482002840F08A80F0692968884240F285804D
:2066DC0094F8CD0020B1D4F8C000B0F1FF3F7CD148461AF0EFF9A868B24600280CBF04F14C
:2066FC00C807071C6868031C0CBF04F1CA061E1CD4F8BC0009282CBF4FF0020BDDF804B05A
:20671C00DAF80000D5F800904168B9F1000F41F00201416008BF191C32D04146A1F11008C8
:20673C00D4F8BC10092910D3D8F800104A6831889047D8F80000C168DAF800000A466946A4
:20675C009047BDF8000038800FE0D8F800104A6831789047D8F80000C168DAF800000A46BD
:20677C00694690479DF800003870AB6803B15F44696801B15E44DAF80000B9F10109CFD185
:20679C00D4F8C450C36800221D4218BF019A102D18BF82F00102002AF4D111F0704F06D1D0
:2067BC0029B1062016F08CFB042016F089FB022016F086FBD4F89410002008740746C4F8C4
:2067DC0098703E46C4F894606EE0D4F8AC00002843D1D4F8B000002842D1307919F0F7FF00
:2067FC004546D4F8A0002A68316940685268006891FAA1F1B1FA81F1134602229847D4F82E
:20681C00A0002A68716940685268006891FAA1F1B1FA81F1134602229847307919F0D1FF6E
:20683C00307919F0D6FF2046314604F06DFE0021D4F89400C4F8B4100068B0F5806F03D9A0
:20685C002046314604F060FE94F8D20060B93168486840F00200486006E0D4F8B00018B920
:20687C002046314604F050FE3168486940F00100486148461AF01EF994F8CC00A0B9D4F88D
:20689C00C01004F17405284619F04EFC60B1D4F8940003210174384604F0A8FF284600212B
:2068BC0019F042FC002001900198BDE8FE8FC04600000780D40100102DE9F04F0546ADF149
:2068DC00240D069119F081FFA44CA54F012D079000F0D68020460068D0F83803804700289C
:2068FC0000F0CA8013F0DAFB002800F0C580214649683846896980690F783C30002F40F04A
:20691C00BB80984C0068257880476168DFF850B2DFF85882AF00401AB0FBF7F6E068A1682B
