:20000000003A012089A4010039FB021039FB021039FB021039FB021039FB021039FB0210B3
:1C00200039FB021039FB021039FB021039FB021039FB021039FB021011FB021002
:20003C002DE9F04FA94EB01CADF1640D00781091C90BC9031BD11098C00B38BF0020C1F09D
:20005C002F84B84C04F10800006858B10746FD68384621F075FD38461DF0D2FE2F1CF6D13F
:20007C000020A060109880F4804001F018BC19F0EBFD0028119001F00F840078F2784FF044
:20009C0000080146D22910DCD22901F0F5831A3901F08A831739052941F2EE839F3901F06E
:2000BC00EB83491E01F070830CE0D33901F0E183491E022941F2E083293901F04A83491E6F
:2000DC0001F02383B14C119D4FF0010C3C28DFF8C09294F83E10CDF848C0AF780F912ADC75
:2000FC003C2801F0F382082813DC082801F05582002801F0B782801E01F0A182401E01F0B0
:20011C00FD82401E01F0F682C01E01F0848201F0C3BAB0F1090101F03C82B248DFF8C8C285
:20013C00C91F1C2928D92A3900F01C86481E01F0D18201F0B1BAC42811DCAA2845DA413837
:20015C0000F0E585801E00F0D085801E00F0AE855B3807282FD90838012801F09DBACD3805
:20017C0001F09082401E00F00983093800F08181401E48D001F090BADFE811F0030AC809FC
:20019C00AD098E0AB70A8E0A8E0A8E0A890968098E0A3009FC088E0AB30AB00A320807083C
:2001BC002A078E0A1007FA06F106E606D4068E0AC306BD065806DFE810F0850A810A7D0A9C
:2001DC007305790A750A710A6E05AA38DFE810F02605F604CD04B904AE049D0493048B04C6
:2001FC0082045F0A7A045F043804FC03D503C80355034A034003640A640A640A1403F502F5
:20021C00640A640ADF0268680F95002800F02E810468A07E1FF07EFC071C08BF022000F0BB
:20023C000581E06946464546139013980078A84200F30081042101EB0011C8B2801915F05E
:20025C0045FA0028149000F0F0801CF05BF9002840F0E880454615951498057046E0139FC9
:20027C0094F81AA0B4F80C90149E4FEA850B5F44BA88504649461DF071FA80461398BA8824
:20029C0008AB58440E9050461BF0E3FA06EB0516361D07F1040BB8F1FF0F19D0C0B1AA486E
:2002BC009DF827700168F80838BF8C2011D39DF826001627307107FB0810C188F18001890F
:2002DC0000F10E0331811598F36002E0B4440020862030700E9880787070BBF80000149930
:2002FC00708008786D1CEDB2401C087013980078A842B4DC149FA07EB4F80CB094F80AA06A
:20031C00159904F10E083A780E903D460C468A426CDC204621F0F9FA5FEA00095BD0159E35
:20033C00024640E068440020300129182818077902F8017B477902F8017B877902F8017B19
:20035C00C7883F1202F8017B07790B1D4FBB4F7907BB087A02F8010B887A02F8010B4889CE
:20037C00001202F8010B087B02F8010B8889001202F8010B087A034620F0CFFA88B1096948
:20039C00184611F0EFF902460BE0C046C03F0020EC3A0020987A02F8010B5889001202F857
:2003BC00010B761CF6B22878B042BDDC159900911298019002900391CDF810A00594CDF83D
:2003DC00189007910E985A46092341460AF024FE484621F0DBF928461DF012FD20F064F942
:2003FC00159823E0483D002078450020080143191F79241DA4B297B92818401D077867B98F
:20041C00C078814620F089FA641DA4B238B1484615F0BAFA001984B201E0A41CA4B2491C7C
:20043C00C9B274E714981DF0EBFC10200F9980460E9116E1139A3878A18902EB85029288E1
:20045C0008AB1BF006FA70B19DF82600014620F064FA40B1084615F097FA410824BF401CD4
:20047C00C0B23618F6B26D1CEDB2DEE628460E9069E368680E95002800F0658300680F903A
:20049C00807E1FF047FB002800F074810F98C06907781390002F00F06D81B800801C15F08C
:2004BC0015F90028149000F0638120F029FF1CF029F8002840F0598147461697159713984A
:2004DC000078B84200F3DE801698012840F08A80C84DA878EA68162111FB00F081B25620C9
:2004FC0021F0B6F805F10C0640B9A8783268162111FB00F081B2562020F050FE60788021B3
:20051C001AF092FA2F78B80015F0E0F8B9461390002867D02E78B9F1000F0BD005F11801A3
:20053C004A7842704A8811F8144B42807F1E00F8044BF5D1002E3BD037464FF0140BC24669
:20055C00A6B305F1180411E0B4500020002808BF464607D04168066821611DF051FC207B1F
:20057C00401E207330461DF04BFC2E7820690028ECD1761EF6B216FB0BF2A01841886180E4
:20059C0041786170C188E1808188A18001890C30218109C804F10C0181E80900105D207037
:2005BC00A318C3F810A083F80C802E707F1EC7D10AF0FEFDB9F1000F11D0139C18354F46FF
:2005DC00607861881DF020FDFF2804D02678810001EB00116E547F1E04F10404F0D1139835
:2005FC001DF00EFC15981499087018B940468870129F0F700F9890F81AB08689857A00F17F
:20061C000E0A084600780C468000814621F07DF9071C1FD0014640462278824223DC012A59
:20063C0003D1A4780CB9DDF84890CDF8008012980190029044460394514604953246CDF89C
:20065C00149007230697584607940AF0E5FC384621F09CF814981DF0D3FB20F025F81EF01A
:20067C003DF8404687E004EB800293780B70D3784B7013798B709288401CC0B21212CA7072
:20069C00091DC9E70F98139DB0F80CA00646B07E05EB071551462E1DAD1DB5F800901790A7
:2006BC004A461DF05BF88346179808AB1BF0D1F8BBF1FF0F48D0002846D03378002B51D127
:2006DC009DF82600A97888423CD19DF82700C00836D3BC48A98800684FF6FF728A4201D1CD
:2006FC00ED88CDB1F388162101FB0B05EB8030892881307920F011F9F8B10E354146042204
:20071C00284616F0C7FC307915F03EF9F1680246284614F02DF910E0162101FB0B05688944
:20073C00E880A889042205F10E0641462881304616F0B0FC1235286830601298169011E0D4
:20075C008C2102E08D2100E087211498159A00EB820081703178C170718815468180681C4C
:20077C00C0B215907F1CFFB2A9E614981DF048FB102000E002200E9D00F028BC68680028C6
:20079C0000F0E181686800681DF058FCDAE3AF68002F00F0D8814646081C6E700AD0207FFF
:2007BC00082807D14046414602F0CAFE002808BF404600D01298064693E16F68002F00F0A9
:2007DC00C2814046687069680F7857B984F84200607F401E6077129801461DF097FF00F09E
:2007FC0091BF20F005FF1298014604F0F5FC00F089BFC046A85000206868002800F0A38141
:20081C00067847684146082208A816F043FC002F00F09981C44841460170B6B1761E0FD0D2
:20083C00761E0BD0761E04D0761E40F08C8112990170384608A914F000FB85E11299017028
:20085C00384608A91BF0A2FE7EE11AF033FD7BE16868002800F07781686800F112011BF0EE
:20087C0095FE6FE36868002800F06D816A6810785188928811F0BEF864E36F68002F00F060
:20089C0062817888BE883C78FB88B7F808B007F10A0A0E90C8480F9607791393002F5DD094
:2008BC00C4490F68002F00F0908381467868007884424FD11FF0A0FF00284BD0037C002BC6
:2008DC0048D04669002E45D040460C22834240F37C8310FB02F1DDF838C0715A8C4536D1D9
:2008FC000E2014F0F3FE071C38D0404607F10A020426761E02F8010BFBD1B880FF21397073
:20091C004FF6FF767E803881F8803C700E9B7B800F9ABA801399F9805646A7F808B03168EE
:20093C00082007F10A06316014F0D0FED9F8141018B938461DF064FA10E007604160C9F8A0
:20095C00140099F81000401C89F81000A1E1401CC0B2BBE73F68002FA8D136E3129835E3BD
:20097C006868002800F0EF8040466870686817F06BFAA968088000F0C5BEAF68002F00F028
:20099C00E280404668702678AD686178002E05F1010708BF28700FD0084640211CF04AF888
:2009BC004FF47A710F2300F2E730B0FBF1F116FB03100F3828702678002F00F0A3863046C6
:2009DC00AFE0C046B4500020AF6894F84260208F94F83B1094F83A2094F83C30D4F834C0D9
:2009FC0094F83DE094F83F9094F840A094F841B0002F0E9600F0A78046466E70AE683081D3
:200A1C00A868C172A8688272A8680F9F0373A8688773A868C0F804C0A86880F80DE0206BA9
:200A3C00A9680860A86880F80F90A86880F810A0A8680E9E80F811B0A9688E7400F062BEAA
:200A5C006F68002F7FD0404668706868077D17B1C07C84F841006868877D17B1417D84F8DC
:200A7C004210077C17B1C08920876868077B17B1806860636868877C1FB1407C84F83D00F0
:200A9C00686807790FB10068206300F03BBE41460F98697070B194F83B0080090AD208A852
:200ABC00082216F0F7FA20F070FB08A81BF062FF00F028BE20F069FB4FF4FA701FF0FCFA66
:200ADC0000F020BEA86800283DD04046687020F027FC25E0D348AF680678002F33D04046E9
:200AFC00687030461CE0686800282CD0686800781AF036FD26E26F682FB340466870686828
:200B1C00007805F0BFF800F0FDBDA868D8B1404668701BF029F9002808BF129814D00078D2
:200B3C00AF68387000F0EEBDA43D0020686850B14046687069680888897819F09FFF00F016
:200B5C00E1BD6F6817B902208046A2E06868B64A036802F10C010B6040684860686801897A
:200B7C005180807A107000F0B3BC6868002800F02C820188ADF830104088ADF832000CA957
:200B9C0053201CF09DFB50200DF132011CF098FBE1200DA91EF068FD68689DF83410007996
:200BBC00884276D08DF834000DA9E1201CF088FB6FE0C046C0440020A85000206868002881
:200BDC0000F0038200781DF0B3F84C46686894F834104078884213D084F834000DF13501D9
:200BFC00E1201EF041FD68689DF835104078884206D08DF835000DF13501E1201CF060FB34
:200C1C006868129E407806FA00F060641FF006FDA4F88C8030461DF039FEBDE16F68002FB4
:200C3C0000F0D3817E884C466686387884F842007B6884F8343063643989E1867889A4F812
:200C5C004000387B84F85400787B84F82100B87BE0773A69E264786994F88E602065387E1C
:200C7C00B04201D01DF064F8696804F15500193120F0F2F994F8420004F11C06082808D1DE
:200C9C0021207421324620F089FA404602211CF05DFF40469AE16F68002F00F0968103E055
:200CBC006F68002F00F0918112208FE16868002800F08B810A30077807B1E04647780FB164
:200CDC0048F0020887780FB148F00408C7780FB148F00808007908B148F040086968088859
:200CFC004246891C1CF002FD2CE16868002800F06C8102208DF8280068680088ADF82000D2
:200D1C0068688178C27808A819F02CFB1AE16868002800F05A8102208DF8280068680188EE
:200D3C004FF6FF70884205D0821E8A4202D0C01E88420BD120F0D8FBADF820006868C27ACE
:200D5C00837A811C08A81BF099FB687068680088ADF820006868C27A837A811C08A81BF038
:200D7C008DFBEFE06F68002F00F02F8102238DF828306968001D09880468ADF820106A68C6
:200D9C000F2092F804C0B2F80680167AD2F80CB0177CD2F814A05188CDF838C0F21900EBD7
:200DBC0042005FFA80F9B9F14E0F00F3A28020F09BFB884233D121700812607020F048F8A8
:200DDC00A41C0146204620F047F904460E98207084F801804FEA2823A370E670241D66B178
:200DFC005846A41E017804F8021F30F8021B761E4FEA21216170F5D1A41C27705FB1641E0D
:200E1C005046017804F8021F30F8021B7F1E4FEA21216170F5D1944820224B4665E0184644
:200E3C00D4E0C04624430020303F00206F68002F00F0CB8002218DF8281069680988ADF89E
:200E5C002010696842684B888C888E79D1F808800F7BD1F810904FF0060EF1190EEB410101
:200E7C005FFA81FCBCF14E0F43DC82469DF828000F2818BF022808D1BDF820004FF6FF7137
:200E9C00814204BF891EADF820104FF6FF71994208BF8B1E02F8013B191202F8011B02F8C3
:200EBC00014B201202F8010B02F8016B66B14046921E017802F8021F30F8021B761E4FEA39
:200EDC0021215170F5D1921C17705FB1521E4846017802F8021F30F8021B7F1E4FEA2121F9
:200EFC005170F5D150467246634608A918F0EEFF6CE010206AE06A68002A66D00220052271
:200F1C0015E06868002860D002208DF8280068680088ADF8200068684188027908A81FF0D9
:200F3C00DBF80FE0686800284FD0022002468DF8280068680088ADF820006868418808A83F
:200F5C001FF07AFB8046C3E2686800283DD06A6810889178D2781DF03DF880461CE06868F0
:200F7C00002832D06868017A427A18F067FCE9E7686850B340788DF82000686880788DF86C
:200F9C002100686800781FF073FB00283FF4DBAD08A909880C3001804046D5E56968A1B10A
:200FBC00A86890B1087808A91FF054FB6868A968007808709DF82000A96848709DF8210030
:200FDC00A9682C4688704046DAE002202C46DAE02C466368002B00F0D580187D1FF080FB20
:200FFC00002800F0CF80187E19331F788DF83600002F0CBF404602205F780FB140F01000C1
:20101C009F780FB140F00800DF780FB140F020001F790FB140F040005F790FB140F080002E
:20103C0083466068007D20F063F9051C00F0AA806068807A8DF8290060688089ADF82A00CF
:20105C006068007802288DF828000FD001280DD00F280BD003280DD16168891C0A6808A8CD
:20107C0002604968416005E0483D002060684088ADF820006068877B002F72D0780014F00A
:20109C0025FB061C08BF10207DD041466068877B8F4260DCC18A038C426A0E950C2F0F914C
:2010BC0090F81FA01393BDF8209014924DDA484618F0B0FE0C2816D14FF6FE7018F0AAFE33
:2010DC000C2810D1DFF80CC312999CF82C3140460CF59A7C1CF8082B9342C4BF131C081C0E
:2010FC00491C0C29F6DBBC4D4FF6FE7305EBC00568686B8018B11CF083FE4046686077B16E
:20111C004FEA4708404614F0E1FA6860002808BF10201BD068683146424613F029FCCA48EB
:20113C00A5F80290149B00786F700DF1360728700E9900930F9A019708A8CDF808B0139B35
:20115C00CDF80CA008F06AFB00E00220607030461CF056FED6E200694A00105A491CB052C1
:20117C0094E7416A00910DF136070197CDF808B0C17F0391C28A038C294608A808F04EFB3D
:20119C002546DFE6022025460CE26868002800F0088200781FF0A4FA071C00F00282387BA7
:2011BC001AF0B8F90028687040F0AC8274683D46002C00F0A7822746404617B9BD4202D0C2
:2011DC00A0E2BD4209D1AC4219BF2968016028687060284620F0CAFA94E238463F68ECE7D0
:2011FC006868B946002800F0DC8100781FF078FA002840F0BD801FF045FC042800F3B6805C
:20121C00474648466F701FF05DFA041C01D0237B6BB11C2014F05AFA041C00F07382414687
:20123C001C2215F037FF84F80490DDF848806868007820736868007AB61C20761420266124
:20125C0014F044FA0028606141D03946142215F021FF6968626949689079897900F0F00024
:20127C0001F00F01014391716868406861698088888068684068616900780870686840680F
:20129C00616940884880686840686169C079C871686840686169007B08736069C0794000AA
:2012BC0014F014FA616988606669B3681BB13846F179814250DC307B400014F007FA306140
:2012DC0061690E691EB138460A7B82423ADC04F10C00814611F0E4F80646022E18BFB82E27
:2012FC0006D1207B1AF016F9484611F0D9F806463EB9B8F1010F20D120461CF067FAC8B1AE
:20131C001BE0B8F1010F15D0606968B183681BB118461CF075FD606903691BB118461CF038
:20133C006FFD60691CF06CFD48463946102215F0B1FE02E0204620F019FA022E18D0B82E8B
:20135C0016D0DFE16B685B6842001B690969D35A53526169401CB7E76A68526841009268A0
:20137C00B3688A5ACA526669401CA1E7D12019E1D02017E16868002800F01381A8680028FC
:20139C0000F00F814146082215F084FE6968087849881DF089FD071C19D040466870A96849
:2013BC0038880880B878A9688870AC68A078002800F0A88114F08AF96060AA6850680028EA
:2013DC0000F0A0819278F91C13F0D2FA9AE1B120E8E0C0467C2E0020A82F00206F68002F11
:2013FC0000F0DF80AF68002F00F0DB80444666466C7068683768017840463FB13A799142FB
:20141C0004BF401CC0B23F68002FF7D1A9680870A8680078400014F059F9A9683768486082
:20143C00AB6868685A680178002F00F06B8140463B79994204D1FB88461C22F81030F0B29C
:20145C003F68002FF4D15DE1FC3C00206F68002F00F0A78047466F70686864460678206836
:20147C0090B101798E420BD1002F04BF0568256002D00168396005681CF0C2FC284601E0AB
:20149C00074600680028ECD113F094F83AE1022068706F68002F00F0358166463A787988E7
:2014BC003068002800F02E81474603799A4202D1C388994204D0074600680028F5D121E15A
:2014DC0007B96746016839601CF09AFC13F072F84046687016E16868002862D06968091DFC
:2014FC000A6808A802604968416003201FF082FA6868C07B1CF054FD6868817B009102780D
:20151C008389418808A810F05FFD1BE56868002847D038461FF0D6F8041C13D11C2014F020
:20153C00D5F8041C00F0EE8041461C2215F0B2FD277120461CF04AF920B920461CF060FCD7
:20155C00D120FFE4E088D04940F00800E08040F00400E080022020F033F8CC49032020F049
:20157C002FF8686800680890686800798DF82400129F8DF825708DF8267008A817F0DEFFEC
:20159C00E0E4686868B168680088414601F0D8FFB8E06F682FB1C22004E0C3486F68047868
:2015BC0017B90220804648E0414669706868242215F070FD4E466968708E08806868B6F8DE
:2015DC004070847269688F81F08E696806F11C0707F13903C88268681A680E3002605968CE
:2015FC0041601FF035FC6968891C026840680A6007F11C03486068685C681830446019683C
:20161C000160686896F83410129A80F82310696881F8222076E06868002831D090F90040B0
:20163C00A24800680DF13701D0F830248DF83740E0209047A86800B10470404682E46F681F
:20165C00F7B140466870696867460F706868022646706868867068680624C47069680323D2
:20167C000B714FE0686858B1407818B1FF2003211CF06CFA1FF050FF12988D490860FEE769
:20169C0002205FE44046687012F0FEFD3AE0404668701DF01FFC35E0122053E4294617F0DA
:2016BC0041F92EE029460DF049FF2AE0294612F0FDF826E029461FF04BFE22E0294619F05B
:2016DC00D2FD1EE0294619F0FEFA1AE0294616F062FC16E0294613F05DF812E01FF0AEF97F
:2016FC0030E4294618F046FF0BE03846294605F079FA06E0294604F011F902E0294604F026
:20171C0057FC129012988046B6E0119C16201EF079FB071C00F0B0804146162215F0BAFC90
:20173C009320387046467E7060783871A07838742079012814BF02200120B871E088388151
:20175C00E0783875A0781EF0CBFF002800F088808AE006201EF056FB071C00F08D804146C2
:20177C00062215F097FC464691203870119D7E70A97839716978F970E9787971A8781EF07E
:20179C00AFFF00286CD06FE011984078904273D0484BF070F21C41464FF000701DF0EEF82C
:2017BC0070784549087067E0119C30201EF02AFB071C61D04146302215F06CFC92203870B4
:2017DC0040467870A17B032939711CBFE188F98005D1A21D1368B91D0B6052684A60E17BBF
:2017FC00B973218A398261887982A188B982618AF982217D3976667D414606B1012179760E
:20181C00607E414600B10121B976A07DF876E07D387794F918007877E069386294F820008B
:20183C0087F82400A08DF88494F8240087F8280094F82E0087F8290094F8260087F82A002C
:20185C00E08C13F043FFF862B0B1A16AE28C13F08FF8207D1EF044FF30B9F86A1CF0D0FAEE
:20187C0038461EF099FB07E00079394619F094FD02E0119809F02EFAB8F1010F08D01198CD
:20189C001EF08AFB08E0C046C9C70100C51002001199887819F080FD109880F4004080B285
:2018BC0019B0BDE8F08FC0460C3C0020140100207C052043B5F80100703B00202DE9F04FCA
:2018DC00C34D2021352205F1B004ADF1140D204615F0E0FB04F10109A04605F14C0605F172
:2018FC00480005F1B10100F17B070160044605F1C30105F1D5002865686C31604FF4FA7199
:20191C001FF0EBFE05F18C001FF0BFFFA86A696B0346686A8936884200F00883AE7ABD4A30
:20193C0003962E79118D6F7A287A0296DFF8E8A2DFF8E892AE6B0FF2003E0FF2243CC6A2B7
:20195C00152B0196C1A600F26C83DFE813F0E302D502AD00D00238029B00AC01AA018D008D
:20197C007F006F009E0192015600F202690156013D0043011600F20223012068D0A10C224A
:20199C0012F0F6FF381C15D0FF380CD06068D0A1102212F0EDFF61683846102202230931B7
:2019BC0018F044FF0EE0CFA160680A8802808978817007E0CCA160680A6802608F88878086
:2019DC008E798671CAA1B5E24FF6FF7088420DD02068CCA1102212F0CBFF8E482168008DB1
:2019FC0010220423891D18F021FF04E020687146102212F0BDFFC8A19CE24FF6FF7088422C
:201A1C000DD02068BFA1102212F0B2FF81482168008D10220423891D18F008FF04E02068A7
:201A3C007146102212F0A4FFC0A183E2000904D2324660685168416004E0606891888180F7
:201A5C0097798771BEA11268026073E2800804D2324660685168416004E060689188818014
:201A7C0097798771BBA1EEE7C00804D2324660685168416004E0606891888180977987710B
:201A9C00B9A1E0E70398012818BFBCA140F05282BFA120680A6802604F6847600E890681D5
:201ABC006668BEA10E22B9E20298EF7AD5F82C9000260128A7F107072AD02068BBA1102281
:201ADC0012F056FF494620680988B7F1FF3F018003D0022F18BF002F12D1286B38B1296B87
:201AFC0020680968C01C016020682023C37137F0020012D1E0A120688A880830828004E050
:201B1C00DFA120684A68C01C42600968016004E02068DEA1102212F02BFF6068E0A11022DB
:201B3C0012F026FFA869616800880A220323891C18F07CFE287B6B46B821324616F05AFF83
:201B5C0061689DF800000A2203230A3118F06EFE6168E87802230E3118F068FEA8699DF869
:201B7C000070018857EA010003D1E86AE1A1814200D00126A068E1A1102212F0F9FE002EC9
:201B9C0000F04F82686CFA211FF0A7FDE0481FF07AFE46E2216805F1540010221CF01CFCC6
:201BBC006168102205F15C001CF016FC21680020087461680874A0681022DFA112F0D8FEA2
:201BDC00A16805F1640004221CF006FC29E2C046A4380020216805F1540010221CF0FCFB3D
:201BFC006168102205F15C001CF0F6FB21680020087461680874D5A19CE1206861461022C1
:201C1C0012F0B6FE5046616800681EF072F9D4A190E1C046E43C0020F03F0020F43F0020E4
:201C3C0020686146102212F0A3FE4846616800681EF05FF9CFA17DE12020202030784646DD
:201C5C0046462028616E792900C046C044495341424C454400C046C0454E41424C45440074
:201C7C003132333435363738393031323334353600C020686146102212F07AFE504661680C
:201C9C0000681EF036F9C0A154E120686146102212F06EFE4846616800681EF02AF9BFA1CE
:201CBC0048E1C3A146E12068C6A1102212F060FE6068C9A1102212F05BFECCA13AE1C04686
:201CDC004C617374207374617475733A00C046C04552524F5220283078202029202020202D
:201CFC0000C046C02D2D2D0053554343455353003C41504C5920494E535420434F44453E19
:201D1C0000C046C02020202030782020202020202020202000C046C0202020202050414E34
:201D3C00204944202020202000C046C03C2020202050414E204944202020203E00C046C0A8
:201D5C003C46494E444E472B42494E444E47203E00C046C03C204E574B205354454552493C
:201D7C004E47203E00C046C03C4E574B20464F524D4154494F4E203E00C046C03C2052457C
:201D9C0053455420544F20464E20203E00C046C0526573657474696E672C00C0506C65615D
:201DBC00736520776169742E2E2E00C07878202020202020202020202020202000C0AE4AA8
:201DDC00002011780B110A2BACBF37213021C9182368C15412F8011901F00F0301F00E0131
:201DFC000A29B4BF30213721C9182368401CC0B2C154401CC0B21028E3DB20680021017447
:201E1C0060681022A2A112F0B3FDC94E6168B6F8400010220423491C18F008FD606820270F
:201E3C004771616896F8340002230A22C91D18F0FDFC606847726168708E042310220B312E
:201E5C0018F0F4FCA06897A112F092FDE87A821F43D0521E02D0921E3AD02AE01FF0C0F9B9
:201E7C0000280CBF94A196A1A0680A6802608A88828089798171D4E0434C4F53454400C0D5
:201E9C004E6F744F6E4E776B00C046C0506C6561736520776169742E2E2E202000C046C083
:201EBC00496430303020537263683030302F303000C085A2A168136857680B60167A4F6026
:201EDC000A220E720323A168491D18F0AFFCA8E080A1A06809880180A3E07FA1A0680A6812
:201EFC00026009790171F08E04231022EBE77CA120E0C0462D2D00C07EA11BE03C202043B1
:201F1C004F4D4D495353494F4E20203E00C046C03039002020680199102212F029FD6068D6
:201F3C0079A1102212F024FD7CA103E02A6A002B65D152A1A66870E02020202020202049A7
:201F5C004E535420434F444500C046C03C53455420494E53544C20434F44453E00C046C05E
:201F7C0020534543204348414E4C204D41534B2000C046C020505249204348414E4C204D94
:201F9C0041534B2000C046C03C534543204348414E4C204D41534B3E00C046C03C5052494C
:201FBC00204348414E4C204D41534B3E00C046C03C41444420494E53544C20434F44453E07
:201FDC0000C046C041204420746F206D6F7665202020202000C046C0572053206368616EB6
:201FFC0067652076616C756500C046C04520746F20657865637574652020202000C0D8B2D1
:20201C002146904721684846102212F0B1FC61683846102212F0ACFCA1681022304612F098
:20203C00A7FC6979EF79FF2910D0686C27B954F82120A9792023535487F001074FF4FA7115
:20205C00EF711FF04AFB3B481FF01DFC0A2788F8117088F823700C2088F800000D2188F866
:20207C00121088F82410686918B1414635221FF03EFB05B0BDE8F08FD32700203C2020201F
:20209C0020204241434B20202020203E00C046C06E787878782063787820617878787820ED
:2020BC0000C046C0202020202020202020203C494E464F3E00C046C05A522043454E54009C
:2020DC005A522044495354005A454420282020202900C0465A4300C05A4544207000C04654
:2020FC003C202020415050204D454E552020203E00C046C03C2020434F4E46494755524570
:20211C002020203E00C046C07072657373204520666F722068656C7000C046C03C2020201B
:20213C00202048454C5020202020203E00C046C0EC3A0020303900202DE9F04FB44CDFF87B
:20215C00D4A2C808ADF11C0D277F059180F09C820846C00BC60318BFDFF8BCB240F05E817F
:20217C0052461078490BA0F1020080F03581BD4D059BA91D09881B0A80F0F08005998908E1
:20219C0080F0D3800598000B24BF059880F4006080F043830598C00980F0A2800598A7688A
:2021BC00800B5CD205986669C00B38BF0020C0F03583AB4828C8694628C100880880276979
:2021DC003EB938461EF0E5FD6061B0B987B90B200FE0307B30F07F060FD0A66900F07C0050
:2021FC0004280ADB46B938461EF0D3FD606120B900201FF08DF82EE06661926B60784FF41C
:20221C00804102EB42021FF0E1FA217F6069082919D00188ADF80010017A8DF80810017B71
:20223C00491CC9B231F07F07017306D10188427A68461DF051FF606909E0008800210A46B5
:20225C001BF0C8FEF7E7017B41F04001017340691EF09FFDA061059880F48040DDE2DFF896
:20227C00D4A200264FF00309B0468FB96078012E04D04FF4005118F0D7FB05E04FF400515B
:20229C004FF47A721FF0A2FA059880F40050C4E27D68287810B3F02820DC494642466B461D
:2022BC0019F0D7FAD0B1029803889BB984F83A808DF80D908DF80C8003AB0A2041464A46D6
:2022DC001AF042F9DAF8001084F83A8031B12878884703E001880126491E01803F68C4E767
:2022FC0019F042FD07462078BFB1401EC0B22070A0B160784FF480411AF09CFB30B9206985
:20231C001EF047FD10B9387817F0C8FA6078402143F698221FF05AFA207810B90B201EF0E4
:20233C00F7FF059880F0400077E2B0F1FF3F18BF00280FD168460021082214F0ABFE002061
:20235C001CF0DEFD68461AF015FB18B16078022117F0A8FC059880F002005EE20846002185
:20237C0019F0DEFC2C462678FF25C6B14FF6FF73201D00219C4610F8142F52080BD3C788EA
:20239C004FB1BC4507D053B10289BF1ABAB29342C4BF0D1C131C761E01F10101EBD1FF2D55
:2023BC0016D0A80000EB0510001918300189C088401A80B248B96570FF2008F035F9FF2179
:2023DC0028460A461AF004F90020E0801DF0B4FE059880F0800020E2B0F1FF3F18BF002870
:2023FC0011D13846401E0AD0801E0CD1A07F022809D10120A07700201AF01CFC03E0617F4E
:20241C0000201CF083F9059880F4805005E2C046C03F0020E43C0020EC3A0020607817F0A6
:20243C0013FC5FEA000904BF059880F4004000F0F48199F80060D32E00F00D81207FB042A5
:20245C0012D00A2E40F01C8194F83B0089F80400616A002900F0148109F1020088470FE1F9
:20247C00242F0200A85000209AF80000761E4F4600F09B80B61E40F00381012818BF02285B
:20249C0040F0FE80BE7876B3761E40F0F9807A7860781AB31FF028F84FF6FE720021824276
:2024BC0018BF0121081C04D15846408E1146814209D010465946ADF8100017464F86532060
:2024DC0004A91AF0FDFE1BF089FE1DF0ABFF5946002081F8420011F0D7FED1E0022140F68B
:2024FC00B832A177ACE0787800285AD11FF0AAF800220BF10401206215460A60011C47D0A0
:20251C0089696D1C0029EDB2FAD11646071C3CD04FF0000836E0C3481DF0C9FC01280BD0C8
:20253C00BAF828004FF6FF7181420BD03988884208D01DE028430020BA4807F10C011EF052
:20255C0023F9A8B1BBF836003989884203D14FF6FE71814201D13B7953B19BF82E007979ED
:20257C0088420AD19AF80E00B979884205D026B938461BF063FD6D1EEDB2BF6908F1010015
:20259C005FFA80F84545C6DC206A761C022EBDDBE26A002A9FD029469047E06A00286FD161
:2025BC0099E700201AF0AAFE6AE0012818BF022866D17F7894F841003FB194F84010491C0D
:2025DC00C9B2884284F8401042DB607F401E04D0401E3AD0401E1ED052E01EF001FE98B95C
:2025FC0094F8420020B1A06A002849D0804747E0002102200F468DF808000246ADF8007065
:20261C0068461EF019F813E001201EF0F1FF014602F0E2FD34E0AB2000216A461AF04AF9AA
:20263C00CDF808D004208DF80C0002A80EF046FF60784FF4805118F0F7F9607841F2883296
:20265C004FF480511FF0C2F81AE01BF011FD17E001200021DCE70746F88948F20101401A0E
:20267C000BD0401E05D0801E0AD1384613F090FE06E0484614F0ECFE02E0484612F096FF3F
:20269C0048461DF089FCC9E660784FB17F1E00F0BD80FF1E00F0B380BF1E00F0A780B9E0E0
:2026BC0094F83B00810980F0B580810878D2C10872D20009C0F0AE80062020771EF092FFE5
:2026DC00002865D019F050FBE568071C60D068684078800837D33878032100226B4619F0C3
:2026FC00B8F828B968684078410830D20E201BE002980188B52912DAB421018060784FF4D3
:20271C007A724FF400511FF061F84748416829B10078FF2814BF3878FF208847E568686876
:20273C004078400803D209201EF0F2FD0AE0092003228DF80C0003AB00218DF80D200A200E
:20275C0019F002FFE56868684078410862D337490E6816B980081BD35CE0387817F09EF83C
:20277C00002600B101260325301C02D00E201EF0CFFD0C2020706078402143F698221FF0FA
:20279C0025F80A208DF80D5003AB8DF80C0028E00E201EF0BDFD3DE005200021207732E0AB
:2027BC00042294F83C002277400833D394F83E702FBB50460078012818BF02282AD10126AA
:2027DC0004F11C000021E67014F064FC03252577304618F0E3FB0A208DF801606B468DF88B
:2027FC00006000212A4619F0AFFE13E0002184F83A102177322204211EF0E8FF0AE01DF03F
:20281C0045FF0420012102F0E7FC03E0012001461BF07CFF059880F0040080B207B0BDE8CD
:20283C00F08FC046283C002024430020484300202DE9F04F714C04F120000068ADF14C0DBB
:20285C0010B1002180F8311034301CF099FF1EF0F6FF1190082010F047F914F045FD002542
:20287C0010B14FA01FF068F918F0E2FD0CA81EF017FD04200CA98DF8300028461EF018FD40
:20289C0060631EF0B3FA04A81EF092FC042004A98DF81000284617F04DF9E0621EF0B0FA3B
:2028BC0008A81EF08DFC042008A98DF82000284617F06EF9E16A206319B941A01FF03CF99A
:2028DC00206B10B943A01FF037F9606B10B946A01FF032F9DFF82881D8F80000D0F8E003B7
:2028FC008047D8F80000D0F8F0028047D8F8000007262F46A03001687B5823B1184680472D
:20291C00D8F80000A030761E07F10407F3D1D0F8B8028047EB201EF0EDFD206A2F4670B134
:20293C006846FF21082214F0B5FB206A694608221DF022FB04F12006012818BF37686846DA
:20295C003049129006C980E80600082012F0BEFE5FEA000A75D0FF21082214F09BFB012080
:20297C00082152461EF074FE40B904F13C030120294608221EF05CFB00285FD0002F04F133
:20299C003C0941D04846694608221DF0F5FA002854D13868494608607E684E6049E0C046BB
:2029BC0052616E646F6D5F736565644175746F6D617469632829206661696C656400C04617
:2029DC0041455343434D206F70656E206661696C656400C0414553454342206F70656E2083
:2029FC006661696C656400C054524E47206F70656E206661696C656400C046C09027002067
:202A1C001401002098370200A9F1020603271EF050FE06F8020F7F1E4FEA20207070F6D1A0
:202A3C0030210620F82789F80610401CC0B209F80070012008214A461EF0B0FB50461BF0DA
:202A5C00DFF904F13C01E2201AF03AFC1CF0ACFF400834BF2F1C0127D64E5520012106F1F7
:202A7C003E021EF0F5FDB14618B917B128461CF047FA24201CF020FB824635201CF01CFB04
:202A9C00CD4EA8B9BAF1020F12D124202946022210AB1EF0CDFABDF840003246042138329C
:202ABC00106035201EF0D4FD242002211AF082F906F15401E2201CF0D7FD384618F0B0F80E
:202ADC0068462946102214F0E5FA622010216A461EF0BEFD28B927B1622010216A461EF052
:202AFC005DFB68462946102214F0D4FA38460FF0A3FB38461AF08AFB384611F02BFA1FB1A5
:202B1C00284601211BF022F81C2012F0DFFD0028A06300F0F880606AA16A221D15F0FAFC28
:202B3C00D8F80010D1F84C138847A16B201D0860606AA16A04F1080215F0ECFC18F046F8EA
:202B5C00A16B04F108004860606AA16A04F10C0215F0E0FCBB4FB870B94806F14C013D70CB
:202B7C001EF07AFA96F82100A16B04F10C0378705C3604F110028B60606AA16ABE6015F094
:202B9C00C9FC04F1140AB14EAF497E60B04A0870B04B3A6204F11006A06BA16AC660606A52
:202BBC007B62524615F0B6FCAB4E3072022286F82C204FF6FE70B0841EF04AF9A748A04934
:202BDC0006F11C0B056058461EF046FAA448FF21382214F05FFAA348A54AC260A34B8360DA
:202BFC00A14941600570A44A4261A24B0361A449C161A44AFA60A14B8361A4497961A44AFB
:202C1C00BA61A14B3B6106F138000FF049FC09270BF12C007F1E40F8045BFBD1307A48F246
:202C3C00010119F035F8307A4FF4004119F030F8307A212119F02CF8307A222119F028F8B2
:202C5C00A06BA16AC0F810A0606A04F1180215F061FC074689F801708E48C580C56085702B
:202C7C00456105740126057048F202010671384619F00EF848F20101384619F009F848F23E
:202C9C000401384619F004F8A16B04F118004861606AA16A04F11C0215F03CFC7E4B207050
:202CBC007E49987028461EF08BFC7D4930461EF087FC7C4904201EF083FC7B4906201EF0EB
:202CDC007FFC7A4907201EF07BFC794908201EF077FC98784FF6FE71491C18F0D9FF7548BD
:202CFC00754FC9F82400764BBB6074497960754AC9F82820A06B89F8426004F11C038361AF
:202D1C00714FC9F82C707248704C0570D8F800102570704F6570D1F800616561F089D1F854
:202D3C0050123D70103080B28847206128B9D8F80000D0F84C058047206900908DF8045023
:202D5C009DF8051065F301018DF805109DF8051065F383018DF805109DF8051065F307117F
:202D7C008DF80510D8F80010D1F80011C9896A461031ADF80610216913680B6052684A6011
:202D9C00E061256211F0B6FCD8F80400C168087848B9D8F80000D0F858242846014690477E
:202DBC00D8F80400C1684C4805704C4F3D70087858B903E0C03F0020E43C0020D8F8000006
:202DDC00D0F8582428460146904711981EF0B0FE0BF010FC1CF01CFFD8F80000D0F8D40008
:202DFC0090F843001CF0E0FCD8F80000D0F858242946012090471EF0DFF83948D8F80470DF
:202E1C000570F868007830B9D8F80000D0F8582428460146904710F0F5FF3248324A0721AE
:202E3C002B461CF095FB1AF02DFA10200DF142018DF842005A201AF043FA13B0BDE8F08F58
:202E5C00B0400020804000207444002099F7000089530100ED1102000C3C0020383F002022
:202E7C00D82E002044430020A17C000095010200A1870100C9E201005DEC0100E5DC0100D3
:202E9C0011FA01007D290100C1150100DDFD010061860000A8500020B44400201511020072
:202EBC00D9100200ED10020001110200110D0200290D02001DB301002443002011C901006D
:202EDC00A1A8010085D00100E1C00100C8540020205900202259002025590020C25700204D
:202EFC00215900207C420020EB1802002DE9F04FBC48BB4CADF12C0D4FF0E04701250690E0
:202F1C0040682169C06809931F400570B64808924FF0000505704FF0020000EA020008BF86
:202F3C00002840F0C382DFF82893DFF828834FF480301E462F461040374008BF002833D13E
:202F5C004FF4003015EA060700EA020008BF00280ED137464FF480003D4000EA020008BFAC
:202F7C00002800F094820020087115F073FC8EE228460871EB201BF0E3F84B46284641462C
:202F9C0018700878862802D1284619F087FB1EF056FCE1690A682B4613710968E1611EF0C1
:202FBC00C7FD1DF0E3FB72E22846069F08713868B8300268DFF8F8A217784FB953461F783C
:202FDC0037B1D0F894048047069821690068B830B84E81225346FF251A7027783570806C2E
:202FFC00A7700023A3814E461D46097AC0893570891E8DB2A842C0F23E82E16908310968B9
:20301C0004F1180001604FF0040BA4F80CB0607EA17EE67E00EB0120608104F1190326718A
:20303C00069E59783268C1F30119B8321168ED1EADB209780793002908BFB9F1020F00F014
:20305C001A82B9F1020F00F3168261B110F0070F00F0118241460978862904D100F0070143
:20307C00022940F00882011301F0020102296FDA667800F00700022862D1002E60D1D06909
:20309C0090F88300022858D0E1690C31097805A801700527A7811EF0D2FB454606462878EB
:2030BC00862847D106980068403001680F6837B9D0F80C05804706980068006C07689DF9D1
:2030DC0014001EF000FC787706980068016C096800228A77006C9DF914100068C177304684
:2030FC001EF026FD267967891EF0A9FB80462946087807F0100786281BD1C34D05F11E02BF
:20311C001088401C1080872008701DF0DFFC40461EF00EFD08201BF041FBE879B04206D1D0
:20313C001FB9002014F0C8FE07E01B20FAE7E920F8E7464630461EF0FBFC1DF017FB9CE123
:20315C0041460878862804D1002019F0A7FAA77866788FB186B9012F00F08D816089022F3B
:20317C0003D110F0070F40F08681032F05D100F00701032901D07EE16089010980F07B8157
:20319C00011301F00201022902DA810A80F0738107994978C1F3810A8F11BAF1010F00F02A
:2031BC006A81012F00F06781BF49B9F1020F09D0CA5D11F80A108918CEB2DFB1C10919D3B3
:2031DC00B61E0BE07A185144127909798918CEB2C1090BD25AEA07030CD0B61CF6B209E08B
:2031FC00C854002014010020F04400205AEA070308BF0226C0F30020311A60718D42C0F241
:20321C003A8106990968AD1B2D18A8B2D1F850122081743080B2884700286578606100F039
:20323C002A810021742213F035FF0020E07062891DB9074902F0200008700548617905782A
:20325C004FF0000C002D3AD0002938D104E0C046225900202559002002F00700032808D07F
:20327C0001282CD106980068D0F8D40090F882502DB306984068406905781DB11DF0DEFD0E
:20329C00FE2819D006980068D0F84C02804750B906980068D0F84402804720B9628961799E
:2032BC0094F803C00BE084F803B06289617905E0205900206D45002084F803B0DC46656955
:2032DC0005F17403AB6505F17400686023892B81079B208993F801B00029CBF30118A5F8A7
:2032FC005C001878AA8100F0780048EA00004CEA000028744FF0FF03AB730CBF207900204C
:20331C0085F8307085F83AA085F84900A089002EA0EB010087B2A78100F0AA80E169E68049
:20333C0068463246C919083111F022FBF619B0B2A0812846027C4FEAAB0111F0030F01F0AB
:20335C0003076D4602F0400940D0B8F1020F4FF0000301D1D1090BD29DF801209DF8001069
:20337C0001EB0221A0F844100DF10205A0F842106D4EB0F84410B6F842208A4203D04FF69C
:20339C00FF728A4220D1032F11D06A78297801EB022189B24186B6F84020AD1C01208A4278
:2033BC0011D04FF6FF728A4218BF181C0BE06069294632301DF050FE606937363146323094
:2033DC001DF0E2F908350346002B48D007984078861120D06069B8F1020F03D0017CC9099D
:2033FC0003D309E059EA070706D16A782978AD1C01EB0221A0F84210032E07D069782A78FA
:20341C0002EB0122028506E0DC4200206069294628301DF021FE608900F00700032809D035
:20343C00012825D106980168D431086890F88200F0B102E006980168D431D1F87411606925
:20345C008847A8B90020079FE070B97866697878C1F3011100F078000843307408E0069877
:20347C000068D0F8FC143148884715F0F3F904E00AF082F801E01DF089FB1EF0E0F9E169BC
:20349C000A68002313710968E1611EF051FB089A099F202100201140384008BF002919D09D
:2034BC001DF03AF916E0C046483B0200204B214A93F90000401E187092F90000401E10707E
:2034DC0093F9007017B91C482A4602802846087115F0C0F9174A92F9000098B1089B099F89
:2034FC0002214FF0E0401940384008BF002912D092F9000000280EDC06980068D0F84C05CF
:20351C00804708E00D480021069F01703868D0F858240846904706984068C06800210BB001
:20353C000170BDE8F08FC0467C3B002098420020F2440020F1440020B23A0020EE440020FA
:20355C002DE9F04F0222ADF1340D502600230A9193490990081D027040224A7181464E7213
:20357C001846C87380228A710022CA7188890A7240F430508881A0228A7218460874C948A9
:20359C008A7300F138021768CB722FB90A6822F00F0242F0020204E00A6822F00F0242F0CD
:2035BC000102C148CC4F6FF30F1248F220230025134300780B6089790C9587F82A1060B9F5
:2035DC00284617F02DFB384690F82A00000911D3284608A98DF8200009E0384690F82A0038
:2035FC00000907D301200DF121018DF82100522019F066FE1DF00AFAB84FDFF8E4B2002859
:20361C000B9040F0BC800DF095FB5FEA000A40F0A980B14ADDF83080212074211C3215464F
:20363C001EF016F8002858D12120414674222B461DF0FEFC002850D1A748408E4FF6FE7171
:20365C0081424AD0A44890F842004FF00108082806D0042804D00DF045FEDDF830803CE08C
:20367C00444642200DF122018DF8224019F028FE05F12F01432019F023FE05F12C014720CE
:20369C0019F01EFE05F11C014A2019F019FE05F11A014B2019F014FE05F12401304619F01B
:2036BC000FFE05F11601532019F00AFE05F12D01542019F005FE05F11801E12019F000FE95
:2036DC00854890F82A00000938BF0C9C52200DF122018DF8224019F0F3FD0C9C12E07868BA
:2036FC000C9AA60006EBC40621460C2336180096012019F0D5FE18B9307880F0FF003070A8
:20371C00641CA4B20BF1040039880068A142E6DC00B1804718F053F8B8F1000F18D01DF071
:20373C00E3FE6149888428B999F8000000F0F80089F80000684F03200C460026487005F1FB
:20375C00390187F8426004F11C001DF085FC01E04FF0090A7D480021BAF1000F418008BFF8
:20377C000B9102D0012779480B9780465A484E4E90F83410012707FA01F030617FE00DF05D
:20379C00D9FA0DF0AFFD544A212074211C321DF005FD02A8FF210C2213F07CFC2C460BE0F0
:2037BC00C457002002A8009021462A460C23012017F06EFF641CA4B23888A042F2DC5846F9
:2037DC00006800B180472846ADF808004FF4A17011F07CFF071C10D0FF214FF4A17213F086
:2037FC0059FC02A800884FF4A1713A46388042201DF0D4FC38461AF003FB2846ADF81000B1
:20381C002946062202A813F045FC142011F05EFF071C1AD09C480C30006898B1032602204C
:20383C0002AA136881B2C919801D92880B60761E8A80F5D104A8008814213A4638804C209D
:20385C001DF0ACFC38461AF0DBFA182011F03EFF071C10D02946182213F01CFC2C4604F295
:20387C00012018213A461DF099FC641C032CF6DB38461AF0C5FA19F0E7FC344880460B9818
:20389C00012871D10748144C00781C3450B301280CD0022812D199F8000000F0F80040F06C
:2038BC00020009E0E43C00200C3C002099F8000000F0F80040F0010089F800009D481CF03D
:2038DC00F6FA002808BF002003D0A04A04210320D1729E4948700EE0EC3A0020C44400208A
:2038FC00584300209949022099F80070487007F0F80089F800001DF0DCFE0999944F934E77
:20391C0000F07F000818643080B20C90786C02213061FF201AF01AF98E494FF6FE700D46E9
:20393C004886471CE8860020A1F840701AF000FA8748007801280ED10A98012808D002A8C3
:20395C000021082213F0A6FB02A802E010440020002019F02FF92120742122461DF01EFCA6
:20397C00002002211AF0F2F87948DDF82CB0C07804287BD1444DE86878B9122011F0A6FEE9
:20399C000028E86072D04FF6FE71861F032726F8061F00207F1E7080F9D1BBF1000F65D12B
:2039BC0006AB4C20002102221DF042FB002856D1BDF81800002852D0042850DA182011F04A
:2039DC0085FE4FF003090227002441F2D87A0646EB68B9B24C2006221B191DF029FB98BBD5
:2039FC00E868015B4FF6FE728A422DD066B3201840880021182233461DF01AFB3069EB6886
:203A1C0000F2E932326118194188EB68880000EBC1004019A0EB0A00026018194188736943
:203A3C00880000EBC100E96841F2D4724019801A036008194088324618211DF0AFFB30464F
:203A5C000021182213F026FBB9F1010904F1060407F10607BCD116B130461AF0D1F93C4BEE
:203A7C007120002108225C331DF0E2FA3248384E324FC8F80C00F078C8F81070042805D0E0
:203A9C001BF0EEFC2F4804E0A43D00201BF0D4FC2D482B49BBF1000F08601AD02D4890F8EB
:203ABC005D00B0B93046C078012812D13046007B78B1622002A913F055FF02A800211BF0F6
:203ADC0063F8002010F0D6FC02A80021102213F0E1FA1E48806950B11C4C183407682068A7
:203AFC001AF08EF91949384600288861F6D109984FF6FF71814217D0144801250246002770
:203B1C001146057014468F7285200A3229461DF09FFD0A3428B9852039462A4623461DF040
:203B3C0087FA0C981CF0B8FA1BF088FF58460DB0BDE8F08FB0400020FDC700009D120200F0
:203B5C00CC420020410D0200330302000C3C0020E43C0020EC3A00202DE9F04FC84DDFF864
:203B7C0024B3CC4E0C46E00BADF1140DC00340F0A781DFF81483DFF81893600880F03E819A
:203B9C002878DFF808A3A10B80F00F81CB480768600980F0EC80200928BF84F0080480F074
:203BBC00AF82600A80F0A280E00880F09580200A63D2A00A5CD2C54D200B2BD2E00A27D3FA
:203BDC00142011F083FD071C1FD00026B146287A012813D106F21118494614223B46404649
:203BFC001DF026FA50B928683860686814213A46786040461DF0D2FA85F80890761C0C35A7
:203C1C00032EE4DB38461AF0FBF884F4806078E2002076E2182011F059FD071C25D0002626
:203C3C002435B046287A012813D106F20129414618223B4648461DF0FBF950B92868386145
:203C5C00686818213A46786148461DF0A7FA85F80880761C0C35032EE4DB384641461822A3
:203C7C0013F018FA38461AF0CBF884F4006048E212F01AFE84F4007043E215F0AFFD28784E
:203C9C0005281DD1287A042116F0CEFE287A042115F012F806201CF0ADFE1DF019FB12F07E
:203CBC0003FE17F0D1FF58460078000904D35146C91D0878012805D168691AF0D7FF01E08C
:203CDC001DF006FB01201BF01BF90320012101F083FA84F0800014E2FF20032119F036FF5C
:203CFC001DF01AFCBE4901200860FEE7424692F84200082818BF042815D11C32212074217F
:203D1C001DF04CFABE4EBF4871683288C3690025B1468046AA4209DC0BB1184680470020AE
:203D3C00022119F013FF84F48074E9E1A80000EBC5000F5C37F07F0C16D017F07F070F54A8
:203D5C00084405D101A8FF210C2213F0A3F901A80090294600220C23012017F099FCD9F808
:203D7C000410D8F81C3032886D1CADB2D2E74FB17968087818B14868007813F0A1FE3F6801
:203D9C00002FF5D11DF0B0FBA8841DF061F851460878012806D1454628784FF4006164225C
:203DBC001DF014FD84F01004AAE10C280FD00C201CF020FE2878012803D0022818BF0C287C
:203DDC0001D100206871504600F134010DE002201CF010FE2878012818BF022804D1012057
:203DFC00687100201CF058F949460A68287A4FF400511DF0EBFC84F4005481E101201CF0CB
:203E1C00F9FD30786F7800F007011220012918BF022949D14FB3032F27D0012F44D10129F7
:203E3C000CD00A201CF0E6FD4946287A0A684FF400511DF0CBFC10F0DFF835E00A201CF044
:203E5C00D9FD454628784FF4806116F0EDFD502004A91BF009FCBDF81000A5F84000BDF8AD
:203E7C001000002113F07CFA25E01DF0B9F998B1032F11D01DF01DFC0DF0AAFA14E0C0469B
:203E9C000C3C0020CA570020EC3A0020EC3C0020243D0020C857002002201CF0ABFD9A4956
:203EBC002869097816F0AEF928B1287A01214FF47A721DF08BFC84F0010421E1C044002028
:203EDC00924FDFF84C924FF0000A10E1B43D00200246167839782B783046401E00F0E58092
:203EFC00401E21D0183800F0FC80B93800F0F5802A3800F0F980361F0DD0361F40F0F4804F
:203F1C00012918BF022940F0EF80107910F0B2FA1DF0DEF9E8E0012918BF022940F0E48019
:203F3C00404606F0A9FADFE0012918BF022940F0DB8099F81C004E46072818BF082805D183
:203F5C006A7A1AB9012101F047F92B78032B00F084800A2B11D0042B15D00E2B13D00F2BF6
:203F7C0011D00D2B0FD0002B00F0BE8017F06CFE287A102115F096FEB6E06848007800F049
:203F9C000700012869D06E7A68785EBB5046287318F052FAC0B106201CF02CFD287A4FF485
:203FBC00005116F041FD9BF80000000909D3FE7B3EB950461AF05AFE50461DF0A1FA1DF025
:203FDC00A5FA17F041FE8FE0788E1AF04FFE05201CF010FD42F210701CF06EF884E0C04646
:203FFC007C052043297B01280ED0032823D10320494B6870981C80F800A00126AE711AE05C
:20401C00C444002044430020491CC8B20428287304DB4048007801280BD00CE03E48008832
:20403C004FF6FF71814204D0032068700423EB72E3E785F801A01AF0D1F81CF0F3F99BF853
:20405C000000000902D3F87B01284DD1687803284AD1788E1AF00AFE46E06B7A1BBB287AEB
:20407C00102115F01FFE18F0E7F990B1287803280BD117F0E9FD307F022806D101201AF039
:20409C003FFF0220012101F0A7F806201CF0B2FC2AE0788E1AF0EAFD05201CF0ABFC012018
:2040BC0018F0C8FD20E05046FAE7022B1CD1012918BF022918D11DF095FA40B91DF0C2FA13
:2040DC0000280CBF5046012019F018F90CE012F0A1F948B116F09EF906E040460FF0E6FE93
:2040FC0002E040460BF09AF940461BF055FF287A15F0AAFD5FEA00087FF4EAAE84F4004463
:20411C00A0B205B0BDE8F08FFD3F0020E43C0020C03F0020814000202C3B0020C8570020F6
:20413C002DE9F04F04462089ADF1440D28B1C2482A30008808B11BF073FB4FF0000B522079
:20415C000FA98DF83CB019F0BBF86068217A01AA0BF0E0FE002800F069829DF806000228AF
:20417C00B4BF01275F469DF808000228A8BF5F46BDF80E004FF6F87880450BD008F10101FD
:20419C00814207D008F10201814203D008F10301814200D15F461DF0A1F99DF80710884284
:2041BC0040F04482002F00F041829DF83500002840F03C82208D9DF80A60678EADF83000B5
:2041DC00ADF8127056B161689DF805209DF8203001201CF0EBFB002840F028829DF809700A
:2041FC009DF80A50DFF87492002F4CD19DF821005E4658BBBDF80E00034618F09BFB3746F7
:20421C00022808BF0127002F9DF8067018BF012649460988994208BF46F0020626B1002F2B
:20423C0014BF402120210E43184618F083FB012808BF46F00106002F3DD00B9A10781CF016
:20425C0065FF012818BF26F0010635E09DF8250088B1FF280FD09DF824700C2F2BDA57B340
:20427C000A99891E1DF040F931F8022F904222D07F1EF7D11FE04946BDF80E700888B842C4
:20429C0008BF222617E0BDF80E10FF201AF00CFE002808BF082608D09DF8090047F0010724
:2042BC002C2640F001008DF8090007F00307012F08BF46F011060B9A8DB9C748007870B1F9
:2042DC0006F0220022280AD006F04200422840F0AD811078062818BF072840F0A781F00979
:2042FC004FEAA61A48D317783846C01E012825D9001F23D0C01E21D0801E1FD04946BDF8CA
:20431C000E600888B04240F091810520BDF810408DF839000EA81BF01FFE002800F086816A
:20433C000269032313261370511C0E704C7022128A70CF70448007F07DFF77E15FEA5A00CE
:20435C001AD3032F02D150780D2815D09DF80C0038B1BDF8100007990CF0D4FE012800F097
:20437C0061819DF80B0038B1BDF80E0006990CF0C9FE012800F05381B4F8447049460E3176
:20439C000888B84209D1CDF800B0208DB4F8421094F846205B460DF07FFE9DF80A00A54DDF
:2043BC00DFF89492002872D0208DB4F842101CF0C7FF071C54D19DF8350000283ED195F827
:2043DC008800012863D10B980078062802D15FEA5A005CD2BDF8121008F10700884200F05E
:2043FC002581BDF80E0049460831097811B1698E81421DD0594613F041FA80B18079BDF8CA
:20441C001020BDF80E1010F0180F0CD0608E00901046238D9DF8212016F0B0FE06E1BDF8D0
:20443C000E10BDF8102010465A4613F0D5FCFDE017F07AFFFAE0C046E43C002004201BF0E7
:20445C00E1FC011C00F0F2806420087001274F70208D4880287816F09FFFE7E01E3B002008
:20447C009DF805106068FB780A18527B9A4203D0FA7058467860606840180421401C1BF011
:20449C0068FF7968814200F2D180401C786095F84200042818BF092840F0C8809DF8161048
:2044BC00B00980F09B800B995FEA5A00C0F0BE800878042804D19DF82000022800F0868011
:2044DC000A78072A04D19DF820302878042B45D0032A3ED00C2A40F0A98048788E7878BBAC
:2044FC004C4604F11B0251200121167090461CF055FE5248012707702878022118F09AFA16
:20451C00A8B9E07EA37F022811D1002B14BF4EF660204FF47A704A4951F823102B780322CC
:20453C004843B0FBF2F2022118461DF04CF970087CD3E6765120394642461CF02FFE75E049
:20455C00E98E01201BF068F82878012116F06CFA6CE001A8594618F02DFA67E04FF48061E0
:20457C0016F062FA374A90881CF0D0FFD0881CF0C7FF4C465F461B342770092085F842001A
:20459C001CF066FC014606981CF0FEF801284DD110201BF037FC074607990B98002F00F145
:2045BC00010043D002223A704378027802EB03227A80807878704A2018F082FE9DF80A004B
:2045DC0010B9214905200870394643E7584601A907F0CCF92AE0C046133B002094F84600F2
:2045FC0094F847708DF8380094F948608DF8397001298DF83A600CD1208DBDF810108842CA
:20461C0007D1BDF80E0018F095F9022808BF8DF816B0E26B01A80EA900F010FA06E0BDF8CF
:20463C000E0001E0BDF8100017F076FC11B0BDE8F08FC046EC3A0020E43C0020503E002012
:20465C00E0330200E04300200C3C00202DE9F84FDFF834830F460646F80B80F09B81C74D4F
:20467C00CA4C2878B90F80F03581DFF824B3B90880F02881DFF80893DFF808A3F90A80F08B
:20469C008B80390B54D2380907D2F80FC0F0BA8127F0804715F012F8B4E11DF0D0F80546DB
:2046BC001BF014FA00283DD01AF04EFB002839D04C4603202070D0481DF0BBF828461DF074
:2046DC0037FA0EF0B5FC022000211BF0EDF9022019F0B0FB11200EF0DFF8CE48007820B967
:2046FC005546286848301DF0C0F8CB48007810B90E200EF0D1F8607B20B100206073052029
:20471C0019F098FB002041462070C44AB1F91C00B1F91E106260884214BF0220072012F054
:20473C006BFD02E028461DF003FA27F00807B1E720B1042019F07EFB0020287055462E687D
:20475C0019F0C6FB40B1F0696FF4807100224FF0007384463046E047B14E306858B1206872
:20477C00006B8047326829680024801AC860C8683460000BC860AB48AB4900221DF067F86E
:20479C004C46584602210068217010B1A7481DF074F827F400677DE71DF051F800901BF0B1
:2047BC0095F9002840460068834600F08580002800F082804846042606709D49994800224A
:2047DC001DF045F800981DF0B3F98B481DF031F82068006B80474FF00108DFF844C285F8BD
:2047FC00008064462060304619F03EFBDBF810005546416A2860C90804D3016A00220B4604
:20481C0031469847404614F029FF286880F815800DF032FA2D68D5F8089040F60A01A44689
:20483C00C81F421C4E4600E02646746834B12388994203D0984218BF9A42F5D100217160D8
:20485C00737B08F00F0423F00F031C437473DBF80C301B88984225D09A4223D02C8E1CB3FF
:20487C00696305F13002518095F83C000B4603F00F0320F00F00034385F83C3095F83D0020
:20489C0008F00F0420F00F0044EA000385F83D307260707B01F00F0420F00F0044EA0001A8
:2048BC00717301E0CCF8001048461CF0D1FC014640461BF0F9F802E000981DF039F927F43F
:2048DC0080679FE010F08AF95846006808B927F0020797E0574A116841F08001116020B167
:2048FC00042019F0A7FA002028701CF0A8FF8146606D0068014604208847D8B1307DC8B17E
:20491C004D480568B5B120683469006B8047401B30613069000B30613069A04203D2001932
:20493C0040083061306940F6C41181422CBFB0F5967F316148461DF0FBF819F0C9FA88B151
:20495C00F0696FF4807100224FF0007304463046A04741460868002808BF47F0020701D01C
:20497C0014F0ACFEB06900214FF0806304460A463046A04727F0005744E0C046C15700204A
:20499C003C580020B0570020585500208C010010605500201CF053FF414618310E686EB31C
:2049BC0006F1280191E80C004FF0E0450A241D4004EA020108BF002920D106F1280191E8DC
:2049DC00300006F1280393E8060006F12803AA43A14383E806001DF0ABF8B16881B1002D5C
:2049FC0008BF002C0CD03069B6F93C10B2682B4616462246B04703E0EC5400201DF098F812
:204A1C0027F480471FB1094839461CF036FFBDE8F88FC046C0570020023B02005D030100AE
:204A3C00B857002014560020F12301005053002015000200CC210840B45700202DE9F04FFD
:204A5C00ADF1840D1B9100241C9206468DF84240D6F828C08DF84340317F8DF84D40B28D7B
:204A7C00ADF844400F46ADF85A20F2898DF854706046ADF84A20027802F00303022B8DF8E0
:204A9C00402000F3C08123461D93401C1F9353083CD202F00C0EBEF10C0F0CD053093CBFCD
:204ABC0010F8013B8DF84230BEF1080F04BF01238DF84C3001D08DF84C40BEF10C0F0AD06B
:204ADC00737903F00303012B0CD142F00C0273898DF8402004E045780378801C03EB0523DD
:204AFC00ADF84430530911D245780378801C03EB0523ADF8463003784578801C03EB052353
:204B1C00ADF8483010F8013B8DF8433010F8013B32F07F058DF855301ED0037833F0030598
:204B3C008DF8413040F06B8103F0030EBEF1030F00F0658113F0030F00F101000ED010F8BF
:204B5C00013B02F00305022D8DF8573004BF10F8013B8DF8583001E08DF841401490A0EB9E
:204B7C000C003F1AFFB2B942C0F24981C91B8DF85470C8B28DF84D00074300F04481D0093B
:204B9C0007D3708917F0D6FE002840F03C819DF8402002F00C002146001F08BF01211E9125
:204BBC00910933D301211F9180B3B2891CF09CFC904202D1F08D000A0ED21CF095FC9042DA
:204BDC0022D0F08D01460B0A38BF101C07D39DF8402002F0030C2EE07089ADF85A2080460F
:204BFC001CF082FCBDF85A10884205D0404615F0C7FD002800F007818448026810A94046ED
:204C1C009047002840F0FF809DF84020F08D02F0030C01460B0A0ED2D3090CD39DF841305A
:204C3C0013F0030F07D102F00C030C2B03D0082B1CBF01231D93DFF8DC81BCF1020F00F09C
:204C5C00BF80BCF1010F00F08D8012F0030F40F0DA806F4A92F82720012A03D1B779002FB9
:204C7C0000F0D1809DF8542002231A92040A9DF84250BDF846B0BDF848A09DF855E09DF821
:204C9C0057C0DDF850908DF86430B2899DF84370ADF85C2034D21E9F40461630046897B924
:204CBC001D9F1FB1104610A910F016FB1F9800901C9F0197B07C1B9A0290F37C17A910A838
:204CDC000DF0D6FF9FE0307C002C8DF8560000F09A801CF009FCBDF85C20904240F0938053
:204CFC0030791F9F00901C9D01971B9A02951D9B039196F8300010A9049017A8A04782E0A5
:204D1C00ADF830008DF820308DF8227034798DF833407189ADF818108DF835E08DF82350B8
:204D3C00ADF826B0ADF828A0CDF82C90307C8DF836C0B27C8DF8320096F830308DF834201B
:204D5C00334C8DF83730B4F8401096F83270ADF824101A998DF8387006A8ADF82A1004F066
:204D7C0097F850E01D9FB58937B1000A04D2284610A910F0B1FAB5899DF85400B67910302E
:204D9C00C0B21BF03FF8071C3DD07D81022038703E737C709DF854203A7207F110057D600F
:204DBC009DF84000800928BF01247C72149978680FF0DEFD40460078394616F0EDFA22E0AC
:204DDC009DF8417040461E30B189036817F0030F10D110A807901048ADF8181006A919F0D2
:204DFC003DFD80B1062141730068407B214617F0B7F808E03BB110A82246984703E08DF8D6
:204E1C004D408DF8544021B0BDE8F08FC8420020EC3A00208240002035B201002DE9F04F4C
:204E3C00CC4CD74DDFF85C83C80BADF1140DC003019140F0C1810846400838BF0020C0F0AE
:204E5C00C68167681CF070FE4FF6FF7281B267B13B887888CB1A9BB2984210DDC01A82424B
:204E7C00C8BF82B2FF68002FF2D14FF6FF70904200F08E80207801211CF0A8FC88E0B8797B
:204E9C00022878D01CF050FE97F83810388005F10A000078884267DD97F83600FF2808D150
:204EBC0097F83800401C87F8380097F8370087F8360097F8356097F839300020012101E042
:204EDC00401CC0B2834210DD97F836C001FA00F28CF0FF0C12EA0C0FF2D03618814097F8C6
:204EFC003600F6B2014387F8361097F83400B98F10FB06F2891A89B28842C7BFFF2087F8D5
:204F1C003600011C97F8360095F82020FF2818BF97F83A0006D140460078642510FB02F26C
:204F3C0012FB05F0788046B9388D3E7A40F020003885386C87F82E600BE03A8D4FF6DF70DB
:204F5C00104038853D6C87F82E6097F8342012FB06507862F879CEB287F82D0007F11000AD
:204F7C007E8403F095FF0FE0B87E97F82A10E92219F021FE05E0387CFF2802D0B8691BF0AD
:204F9C000BF8384619F042FA2078012114F08AFE019880F0010019E12878012840F0098162
:204FBC0095F8338095F813A06F6995F831006988022219F02FFE05F11C0405F1020B06460F
:204FDC000020002E02907DD1687F400878D3A87FCDF80CA01CF08CF9BA4605F11009071CB2
:204FFC0063D01C2010F072FB061C5CD000211C2212F050F8A87F69461BF02CFB9DF8010024
:20501C0002213075304618F045FE6888317DB08095F83100FF23F07103FA01F0707478682A
:20503C000078307495F83000B07495F8331011FB00F0303080B21AF0E5FE0746B76127B9C7
:20505C00304619F0E3F900262DE01A20387000237B701A467A80E0885946B880B81D1BF03D
:20507C005BF8E078474BF87303F1200000883882608BB88560897882A0783875207B7875BE
:20509C0099F80000B87599F80100F87599F902003876039A7A76C7F81CA007F13001B962A9
:2050BC00A07D87F82400304600E00020002806467FD0284886F808800078012114F0F2FDD8
:2050DC00002E76D0307AA8EB0000B0F1FF3F04BF01200290307CFF2856D06078400828BFAE
:2050FC004FF00008317DF07C4018404503DCF074FF2088407074B069B17C227D806A08FB76
:20511C00010021690FF034FC029F317D727C012398FBF1F04843A8EB000003FA00F1114384
:20513C00C9B27174C7B1401CFF2202FA00F001437174B769B17C207D08FB0100F884707C93
:20515C00FF2809D1307CB16916F026F9FF2030741AE0C046744400201CF0E6FC3080094FB6
:20517C000748074B90F82010387810FB01F1987A6422401C10FB01F010FB02F0708003E04D
:20519C00E43C00200C3B0020F17C327DA8EB0100801AB0F1FF3F04D0707CFF2801D0029FCA
:2051BC003FB1E175707C2076BBF80000214610F093F828461AF0F0FE0648007814F044FDF5
:2051DC00051C7FF4E9AE019880F4004080B205B0BDE8F08F744400202DE9FE430E46C24AA1
:2051FC00DFF808831178401E072800F29C81DFE810F07F015C01F600DF00BF007D00460011
:20521C000800052044468DF8010094F83B005EB3E07F20770027E7774FF47A7019F026FD89
:20523C000D2694F83B0084F83A6000F0DF0084F83B0004201BF0DEFB217F384606290BD18B
:20525C00216949B10A7BD30903D302F0BF0201200A7349690029F5D1002800F064814FF445
:20527C0080414FF47A725BE140F02000022784F83B00002084F83A7019F0F8FC53E100251A
:20529C00012E8DF8015014D01CF0ACF960B1052044468DF8010004F13B01087840F0200011
:2052BC0008700A201BF0A6FB4446022084F83A0017E04FF47A7019F0D9FC64201CF026F971
:2052DC001CF01EF904201BF095FB11F0A9FD44460D200421C82284F83A00607825771CF02D
:2052FC0075FA94F83B0000F0EF005EE0032044468DF8010094F83A0008B90120A0712078BB
:20531C00002840F03381627820691BF042FD002840F02C8110464FF4804117F08BFB0028A4
:20533C0040F0248100256561A56119F0FFFD60784FF4804115F078FBA07928B194F83A007A
:20535C000B2808BF84F83A50A571217F6078062904D0E07F062808BFE57704E0257704214B
:20537C0032221CF033FA94F83B0000F0F7001CE00220012E8DF8010005D044460820002656
:20539C0084F83A0007E0002644460321304684F83A6018F0DBFB60782677042132221CF01C
:2053BC0015FA94F83B0000F0FB0084F83B00BAE001208DF801002EB16D49002008700620C5
:2053DC001BF018FB4446002020776078042132221CF0FCF994F83B0000F0FD00E5E7012956
:2053FC0018BF022940F09F8045466878042132221CF0ECF9286A012E49D000264FF47A703E
:20541C008DF8046019F032FC0127022085F83A0095F83B408DF8017001A92E7704F0FD0011
:20543C0085F83B00522017F04BFF1BF0AEFE17F029FF504C606820B1606818F0E1FC268067
:20545C006660DFF83491D9F800407CB120686768006A18F0D5FC206818F0D2FC606918F0C7
:20547C00CFFC204618F0CCFC3C1CEFD1484606601AF0F2FE4148007815F0A8FB30461BF0DF
:20549C00B9FA286A00284ED018F0D8FDF9E70121297720B118F0D2FD286A0028FAD14FF476
:2054BC007A7019F0E3FBBDE8FE8300201BF0B6FD042701208DF80170107446B10020444694
:2054DC0084F83A0084F83B0006201BF093FA4446002020776078394632221CF077F994F891
:2054FC003B0000F0FE0060E7E43C0020C03F0020012918BF022916D1012E23D001204446E1
:20551C0007278DF801004FF48051607884F83A7015F08AFA0020022141F2883284F83B0039
:20553C0060781CF053F94446606AF8B194F83A00002103226B468DF800000A2017F004F8B3
:20555C00BDE8FE830020032118F000FB444604213222607821771CF039F94FF47A7019F0DB
:20557C0085FB60784FF4805115F05EFABDE8FE83FA3F0020C4440020CC440020EC3A002029
:20559C002DE9F84F9F48A14A01789F481170A04C41705C3020619F4908600AF05FF89F4DA8
:2055BC00DFF8749200264FF00A0A05F1010B60684FF0FF311CF0B4FA0028F8D0207814F0FA
:2055DC0043FB5FEA000800F036810146AB690A782078923A00F09A80921E76D0921E00F098
:2055FC0092802F3A21D0521E0DD0521E05D0D21E00F08180521E7AD08BE0E878FF28BCBF89
:20561C00401CE87085E01F886FB9EF7ABF1F012F06D9FF1E04D03146012011F085FB78E0CE
:20563C0001200146F9E70321F6E70B79CF1C9B1E0DD0DB1E15D1C8780D2812D0E06842F24E
:20565C0010711CF04AF89C481CF01DF909E03B783BB9B97841F002018DF8001069461CF014
:20567C0055F82E7178780FF2902C00B3401E13D0401E09D0401E18D0801E1AD138780D2896
:20569C0014BF9CA0604613E09CA0E8623B7883B92B6B73B99AA006E09BA0E8623B7843B9BB
:2056BC002B6B33B999A0286303E09AA000E09AA0E8623878012826D0092824D00A2822D0EF
:2056DC00BF780FB96046E8621DE01F88C878E872CFB9CF78BF1F012F04D9FF1E1CBF0120AE
:2056FC00311C01D10120014611F01EFB0BE0CD213246032304E08DF80060C1216A460823F0
:20571C0013F044F905E0FCF7D9F802E0081D0EF024F947463878712821DC71284BD065284E
:20573C000FDC65285ED0801F7AD042387DD0183865D0401E60D0401E012876D9801E54D04C
:20575C0076E066384BD0801E45D0801E03286CD9001F3CD0401E36D0401E30D068E091286F
:20577C000FDC912861D0723802285ED9C01E1ED0401E18D0401E58D0C01E56D0801E54D0CF
:20579C0056E092380BD0C01E01284ED9303806284BD91B3849D0801E012846D948E0FB6A4B
:2057BC00002B42D03EE0BB68002B3ED03AE07B69002B3AD036E0FB68002B36D032E0FB68C4
:2057DC00002B32D02EE0FB68002B2ED02AE0FB68002B2AD026E0FB68002B26D022E0FB6865
:2057FC001BB31FE0FB6803B31CE0786908B118F007FBFB69CBB115E07B69B3B112E07B6914
:20581C009BB10FE090270020201B0020285900208C390020FC3D0020E43C0020A4380020E4
:20583C00BB6813B1184618F0EBFA40461AF0B4FB38461AF0B1FBA068C10B13D361780829E3
:20585C000CD199F80010012918BF022906D120788DF800A069461BF059FFA068667020F4EA
:20587C008040A060410905D3FCF728F8A06820F01000A060C1092ED3287861280CDC61288A
:20589C001CD041381AD0C01E14D0401E10D00E380CD0001F08D014E064380BD0401E07D0E4
:2058BC000E3803D0001F0CD1012008E0042006E0102004E0022002E0183A0020082013F0EF
:2058DC00F5FA68692E70594601221BF00BFFA06820F04000A0608008FFF469AE2078C42110
:2058FC0032466B4613F086F8A06820F00200A0605DE6C046504C00C02D2D00C04E4600C0B5
:20591C00464F524D00C046C04E5300C04A4F494E00C046C0464200C0494E00002DE9F041F4
:20593C000D466868ADF1180D002800F09D81002669686E70CB4C087860B1487800280CBFFF
:20595C00301C01202246234601210C32187363201BF024FC6A68977867B1D0782346002882
:20597C000CBF301C01200121DA1CD87064201BF015FC6A6817796FB15079234600280CBF2C
:20599C00301C0120012103F10D0258736D201BF005FC6A6897794FB1906823463833042122
:2059BC001A46186035201BF0F9FB6A68177B4FB1D08923462A3302211A46188025201BF0B1
:2059DC00EDFB6A68177C4FB1508A23462C3302211A46188026201BF0E1FB6A68177D4FB10E
:2059FC00D08A23462E3302211A46188044201BF0D5FB6A68177E4FB1508B234630330221DC
:205A1C001A46188046201BF0C9FB6A68177F4FB1D08B2346283302211A46188083201BF0ED
:205A3C00BDFB6A6892F8207057B192F8210023465B1C01211A46187029201BF0AFFB6A6839
:205A5C0092F8227057B192F8230023469B1C01211A4618702B201BF0A1FB6A6892F824704D
:205A7C0057B192F8250023460A3301211A46187043201BF093FB6A6892F8267057B192F823
:205A9C00270023465B1D01211A4618702E201BF085FB6A6892F8287057B192F829002346E7
:205ABC009B1D01211A4618702F201BF077FB6A6892F82A7057B192F82B002346DB1D012106
:205ADC001A46187030201BF069FB6A6892F82C7057B192F82D0023461B1D01211A461870A1
:205AFC002C201BF05BFB6A6892F82E70AFB192F82F30102B8DF8003003DD10208DF8000015
:205B1C000346116B0DF101001A460EF031FF812011216A461BF042FB6A6892F834704FB14C
:205B3C0092F835101029C8BF1021926B62201BF035FB6A6892F83C704FB1106C234644336B
:205B5C0004211A46186084201BF028FB6A6892F8447057B192F8450023460B3301211A464A
:205B7C0018704B201BF01AFB6A6892F846706FB102F147000168406823464C331A46506081
:205B9C001160472008211BF009FB6A6892F84F702FB15032012008211BF000FB6A6892F8B0
:205BBC0058704FB192F859000DF111018DF81100522017F085FB6A6892F85E70DFF8B4804A
:205BDC004FB192F85F00434601214246187033201BF0E4FA6A6892F85C7037B392F85D00D0
:205BFC0004F1080701213A46387032201BF0D6FA3220314601223B461BF01AFA04F1090381
:205C1C003320314601221BF013FA1B48217A0078012904D04FF4006114F006FF04E04FF41B
:205C3C00006164221BF0D2FD6A6892F8607047B192F8610011496A68114F087092F8610089
:205C5C00387092F8627027B1506E6A6843463333186092F868704FB1D06E4346373318604A
:205C7C0004E0C046E43C00200220687006B00120BDE8F081ED3C0020EC3A0020B54400204F
:205C9C00703B00202DE9F04FC34D014695F83B0021F03101ADF1340D00280B9140F05E81B4
:205CBC006878042116F0C6FE002840F055810B99AF7895F83B0001F03F01012F40EA0100AC
:205CDC0085F83B00014600F034810120A8701AF09DFE012807D1562019F0EEF9011C02D0D0
:205CFC00562017F067F8AD4C00202071E06808B11AF0DAFCAA4847680023A24680467FB17F
:205D1C000C24786800781AF077FD061C05D0327C1AB10020824200F314813F68002FF0D1EE
:205D3C00184619F0DDFC002859D1D8F80470002F55D0786800781AF05FFD061C4CD0337C72
:205D5C00002B49D04FF0000844E074690C2018FB00F94C44E079C00838D3786800788DF8CA
:205D7C0014002088ADF81600A088ADF81800079A089B0699059816F04DFCB0B90DF1240B46
:205D9C0000210422584611F085F974694FF6FF700090CDF804B00A23029302460392CDF885
:205DBC0010B034F809104C440AE002681189D388009102F10A000190029303910490218864
:205DDC007868A288007811F07FFB337C08F101005FFA80F84345B8DC3F68002FA9D19AF832
:205DFC000200DAF80C20162410FB04F081B256201BF02EFC0AF10C060A282BD0092825D010
:205E1C001AF052FC562019F057F9B0FBF4F0C7B2384619F065FC01281CD0336814FB07F099
:205E3C0082B2002156201BF003F98AF802700DE041680468CAF8141017F0E2FF9AF810000E
:205E5C00401E8AF81000204617F0DAFFDAF814000028EDD105F0ACF91AF026FC05F13E0327
:205E7C005520002101221E461BF0E2F8307801285DD14C480078012818BF02283BD14A4831
:205E9C00006800211AF0E1FC002834D11BF0A8F988BB40F21110102101220AAB1BF0C8F833
:205EBC009DF82800FD2826D09DF82800022822D005A80021142211F0EDF8FF2740F21110B2
:205EDC00142105AA8DF824701BF068F90024374885F83E40012104613246446155201BF07B
:205EFC005DF90321384617F031FE68782C77042113F0D8FE4CE00B9895F83B10072400F015
:205F1C002F002C77084340F0100085F83B0000200146FDF715FB10B90DF0BEFB38E000202E
:205F3C0018F0EEFF00212046FFF756F930E095F83B106878002904BF07242C77F2D000241C
:205F5C00D4E7716910FB0411C979C90824BF5B1CDBB2401CC0B2DDE695F83B00810917D2AA
:205F7C0095F83E7077B10B9989080BD31AF08EFB04200121FFF730F90B9995F83B0081F0BA
:205F9C0002010B910B9901F03F01014385F83B100DB0BDE8F08FC046C03F0020A850002047
:205FBC00BC440020E43C002088400020A43D0020F0B50E467068ADF1140D002800F08381D0
:205FDC00B068002800F07F810025C14C7268757004F10C00177803783FB1B06801210170DE
:205FFC00284603B10846B16848707068E378477847B1B06801218170284603B10846B168A6
:20601C00C87070688778637B47B1B06801210171284603B10846B16848717068C778A16B6E
:20603C002FB1B06801228271B068018170680779618D2FB1B06801228272B0688181706855
:20605C004779A18D2FB1B06801228273B068018270688779E18D2FB1B06801228274B0681C
:20607C0081827068C779218E2FB1B06801228275B06801837068077A218D2FB1B06801226A
:20609C008276B06881837068477A61782FB1B06801228277B068C1777068877AA1783FB118
:2060BC00B068012280F82020B06880F821107068C77AA17A3FB1B068012280F82220B068DF
:2060DC0080F823107068077B61793FB1B068012280F82420B06880F825107068477BA17965
:2060FC003FB1B068012280F82620B06880F827107068877BE1793FB1B068012280F82820B5
:20611C00B06880F829107068C77B21793FB1B068012280F82A20B06880F82B107068077CD3
:20613C0037B3B068012111226B4680F82C10294681201AF07DFF9DF80000B16881F82D009D
:20615C00B26892F82D1089B10FF0C0FAB1680863B268106B002808BF82F82D5006D09DF8E5
:20617C0000200DF101010EF003FC00E015637068407C80B110200FF0A9FAB1688863B168DA
:20619C00886B40B1012081F834008B6B1022622029461AF04DFF7068616C877C37B1B0681A
:2061BC00012280F83C20B06801647068C77CE17A3FB1B068012280F84420B06880F84510ED
:2061DC007068077D67B1B068012104F14C0780F84610B0683A6847300260796841607068F2
:2061FC00477D67B1B068012180F84F101AF030FEB168026850310A60406848607068877DC4
:20621C0087B152200DF1110119F02EFA9DF81170B068012180F8581007B92946B06880F888
:20623C0059107068C77D3FB1B068012180F85A10B06880F85B507068077E237A57B1B0685C
:20625C0001212A4680F85C1003B10A46B06880F85D207068477E617A3FB1B068012280F880
:20627C005E20B06880F85F107068877E5FB1B1680120184B81F860001F7807B10546B06870
:20629C0080F861507068C77E4FB1B068012180F8621015F0F9FDB16881F863007068077F2A
:2062BC003FB1B068012180F86410B168E06B88667068407F48B1B068012180F86C10B16883
:2062DC00206C086701E00220707005B00120F0BDE43C0020B54400202DE9F04FA34CADF106
:2062FC00340DDFF88C82DFF88CB2A0780591C90BCF035FD10598800805D30120059FE070B1
:20631C0087F0020066E10598000938BF0020C0F0628158462A30A76A00780026B1460009AA
:20633C001BD21BF001FC45468446AB8EE06A95F82220ACEB00018B4238D8B1FBF3F080B26F
:20635C008242ACBFC5B2151CB1FBF3F25A43891A88B2ACEB0000E06200E00125EFB1C846B2
:20637C00F878A8420ADD401BC0B2F87040B109F101061FFA86F93E467F680CE087F80380A8
:20639C007868002E82460CBFC4F828A07060384617F036FD5746002FE2D1A078B9F1000FE4
:2063BC0004D10021E162082114F03EFB059880F008000FE113F048FC071C00F00881B87F03
:2063DC00C0B9788CA56A132815D1B7F80290281C11D000260188894508D14568002E0CBF92
:2063FC00A562756017F00CFD284601E0064640680028EFD1A56AB87A97F831102E460228BB
:20641C004BD1788866B1DFF8D4C13288904204D1B2789CF8003091423DD07668002EF4D1C1
:20643C0081468A464646002D08BF002003D001200DB16B685BBBF18E81422EDD08200FF0FA
:20645C0045F996F8221040B3A0F8009080F802A0C17000234360A36A43B9A0629BF82A002E
:20647C00000909D21BF060FBE06200E06860584690F82A00000910D3A078082116F0DAFA75
:20649C0058B9A078B28E08211BF09DF905E0401C1D4680B2CCE7F37096E051480568387895
:2064BC00012806D0022840F08F80384612F03CFB8AE007F11004B81CBE8908943B7E069025
:2064DC00FA7C07967969099397F819B00A923C7F0B9107F11C0604F00C000C280DD0B87F62
:2064FC004FF0FE09FF2804D01AF002FF041C10D16AE0002D68D06C680FE0B088FE2117F063
:20651C0011F98146B9F1FE0F5ED01AF0F1FE041C5AD020781AF0ACF805464FF6FF7A0BE02C
:20653C0020781AF0A5F8054606E0B078FF284BD12D68002D48D06C68002C45D0AB68AAF1C7
:20655C00010823B9A3680BB1B3F8028007E021780220984718B1B0F8008017F051FC3389C4
:20657C00227898450AD03AB943B11CE080400020E43C0020EC3A00209A4514D196F8028091
:20659C00B27008980090099B01930A9902910B9A0392CDF810B0079B069A304621460DF044
:2065BC00DDFB86F80280307800F00C000C28BCD1B088494617F0B6F88146B9F1FE0F03D0B5
:2065DC001AF096FE041CABD1384619F0E5FC059880F4004080B20DB0BDE8F08F063D002036
:2065FC00C04400202DE9F04FADF1440D0B908069007800210DF12A020F909C2012F0C6FAB3
:20661C00B54D287830F0010009D10020042118F04FFF5FFA80FA9DF82A00504402E00120FD
:20663C004FF0000A8DF82A000F989DF82A10884280F2DE809DF82A000F99401AC0B20D9066
:20665C000228C4BF02200D901A2110FB01F000B20FF03CF80E90002800F0CD800F980D9F40
:20667C000E9C0C90002F08BF002074D04FF00008B946012645460C9882450ADC0F994046E7
:20669C008A4504DAA1EB0A01C9B20C9163E00C9561E0411CC9B20C9118F01EFF071C54D07C
:2066BC008E480146B0F8400055312080A01C1AF0D3FC388860820223E375FF222276B87AF4
:2066DC0060768DF81C503888ADF81E0007A810F057FDAB46012808BFB34604F10A00BBF1CC
:2066FC00000F06D104F10A00FF21082210F0D2FC02E008A91AF0B0FC3B797BB93F88002F5A
:20671C0004BF2575281C04D07448267590F85400401E207602206075A57515E06F4890F87C
:20673C005400401C20763879032804DB26753879032805D106E0022020753879012801D0A7
:20675C00667500E06575A6751A34B9F1010908F1010890D140460D9981424CDD0D9DDFF86F
:20677C007CB104F1020804F10A0702264FF0000A4FF001091A3C2D1A0C9987206A4612F076
:20679C0005FA5849BDF80A0024F81A0F40461AF063FC0DF1020138461AF05EFCBDF80000B2
:2067BC004D4B6082187830F0010003D16675A675FF2006E084F8159084F816A09BF8540089
:2067DC00401E2076E675638A9DF81200002B60760CBF84F814A084F814900C9808F11A08DF
:2067FC001A376D1E00F10100C0B20C90C4D102E000200E900D900B98417C0D9F0E9D8DF893
:20681C002B10801C16210B9017FB01F0001DC0B28346401C0EF05AFF5FEA000854D008F137
:20683C0001040020A2468AF800009DF82A000F9F88F802000D9E88F8037088F8046096B3F3
:20685C000D9F2E46241D06F102090A36204649461AF002FC0834314620461AF0FDFB044617
:20687C00A87C04F8010B688A001204F8010B287D2070697D40EA8100C0B22070A97D40EAAC
:20689C00011004F8010BE87D04F8010B287E04F8010B687E09F11A091A367F1E05F11A05A3
:2068BC0004F8010BD2D10E4D0B990DF12B0048F231025B462C1DC4F800A013F007FB4046AB
:2068DC0017F09EFA09346C600E9808B117F098FA11B0BDE8F08FC046E43C0020EC3A00208B
:2068FC00483D0020413B00202DE9F04F04466168ADF1140D01F00300012840F06C81C8080A
:20691C0080F06981B64A20681768037D002F00F062813A79934203D03F68002FF9D15AE142
