:20000000003A012095AE010039FB021039FB021039FB021039FB021039FB021039FB02109D
:1C00200039FB021039FB021039FB021039FB021039FB021039FB021011FB021002
:20003C002DE9F04FA74EB01CADF1640D00780F91C90BC9031BD10F98C00B38BF0020C1F0A1
:20005C00E183B64C04F10800006858B10746FD68384622F0A3FC38461EF032FD2F1CF6D102
:20007C000020A0600F9880F4804001F0CABB1AF0F1FA0028109001F0C1830178F2784FF0DF
:20009C0000080846D22810DCD22801F0A7831A3801F03C831738052841F2A0839F3801F057
:2000BC009D83401E01F022830CE0D33801F09383401E022841F29283293801F0FA82401E16
:2000DC0001F0D382109DAF4C01223C29DFF8B892AF7894F83E00119227DC3C2901F0A68258
:2000FC00082913DC082901F00982002901F06A82891E01F05482491E01F0B082491E01F0C1
:20011C00A982C91E01F0378201F076BA093901F0F181B248C91F1C2928D92A3900F014862C
:20013C00491E01F0878201F067BAC42911DCAA2945DA413900F0DD85891E00F0C885891E0D
:20015C0000F0A6855B3907292FD90839012901F053BACD3901F04682491E00F0098309394F
:20017C0000F08081491E48D001F046BADFE811F0BA097E096309440A6D0A440A440A440AD5
:20019C0054094709440A2409F208440A690A660A2A08FF072107440A0907F306EA06DF0664
:2001BC00CD06440ABB06B5065006DFE811F03B0A370A330A6B052F0A2B0A270A6605AA3948
:2001DC00DFE811F01E05EE04C604B204A40495048B0483047A04150A720458043104F603B2
:2001FC00CF03C203530348033E031A0A1A0A1A0A1203F4021A0A1A0ADF026868129500282B
:20021C0000F02D810468A07E20F062FB071C08BF022000F00581D4F81C904646454699F88B
:20023C000000A84200F30081042101EB0011C8B2801915F0D1FD0028139000F0F0801CF005
:20025C002BFF002840F0E880464615961398067048E04FEA860809EB080794F81AB0B4F84C
:20027C000CA0139DBA88584651461EF0BDF8149008AB09EB0800BA880E9058461CF0B3F844
:20029C00149905EB06152D1D07F10408FF291BD0D0B1AA489DF827700168F80838BF8C207E
:2002BC0013D39DF82600149A1627287107FB0210C188E980018900F10E0329811598EB6009
:2002DC0003E0C04674460020862028700E9880786870B8F80000139968800878761CF6B28D
:2002FC00401C087099F80000B042B2DC139FA07EB4F80CB094F80AA0159904F10E083A7824
:20031C000E903D460C468A426ADC204622F02DFA5FEA00095BD0159E024640E02846002077
:20033C00300129182818077902F8017B477902F8017B877902F8017BC7883F1202F8017B37
:20035C0007790B1D4FBB4F7907BB087A02F8010B887A02F8010B4889001202F8010B087B49
:20037C0002F8010B8889001202F8010B087A034621F0C3F988B10969184611F019FD024632
:20039C000BE0C04680410020003D0020987A02F8010B5889001202F8010B761CF6B2287827
:2003BC00B042BDDC159900911198019002900391CDF810A00594CDF8189007910E985A469E
:2003DC00092341460BF046F9484622F015F928461EF076FB21F074F8159821E05C3F002093
:2003FC00080143191F79241DA4B297B92818401D077867B9C078814621F07FF9641DA4B262
:20041C0038B1484615F08CFE001984B201E0A41CA4B2491CC9B276E713981EF051FB102002
:20043C00129980460E9116E109EB85023878A189928808AB1BF0D7FF70B19DF82600014673
:20045C0021F05BF940B1084615F06AFE410824BF401CC0B23618F6B26D1CEDB2DFE6284624
:20047C000E9063E368680E95002800F05F8300681290807E20F02CFA002800F07581129819
:20049C00C06907781390002F00F06E81B800801C15F0A2FC0028149000F0648121F070FED0
:2004BC001CF0FAFD002840F05A8147461697159713980078B84200F3DF801698012840F08E
:2004DC008B80C84DA878EA68162111FB00F081B2562021F0EDFF05F10C0640B9A8783268DA
:2004FC00162111FB00F081B2562021F097FD607880211AF09FFF2F78B80015F06DFCB94672
:20051C001390002868D02E78B9F1000F0BD005F118014A7842704A8811F8144B42807F1E66
:20053C0000F8044BF5D1002E3CD037464FF0140BC246AEB305F1180412E0C0467C5200201C
:20055C00002808BF464607D04168066821611EF0B7FA207B401E207330461EF0B1FA2E7874
:20057C0020690028ECD1761EF6B216FB0BF2A0184188618041786170C188E1808188A180E7
:20059C0001890C30218109C804F10C0181E80900105D2070A318C3F810A083F80C802E70CA
:2005BC007F1EC6D10BF024F9B9F1000F11D0139C18354F46607861881EF086FBFF2804D05D
:2005DC002678810001EB00116E547F1E04F10404F0D113981EF074FA15981499087018B9FC
:2005FC0040468870119F0F70129890F81AB08689857A00F10E0A084600780C4680008146C0
:20061C0022F0B3F8071C1FD0014640462278824223DC012A03D1A4780CB9DDF84490CDF877
:20063C00008011980190029044460394514604953246CDF8149007230697584607940BF025
:20065C0009F8384621F0D8FF14981EF039FA20F037FF1EF0A3FE404687E004EB80029378CC
:20067C000B70D3784B7013798B709288401CC0B21212CA70091DC9E71298139DB0F80CA08C
:20069C000646B07E05EB071551462E1DAD1DB5F8009017904A461DF0A7FE8346179808ABBB
:2006BC001BF0A1FEBBF1FF0F48D0002846D03378002B51D19DF82600A97888423CD19DF824
:2006DC002700C00836D3B948A98800684FF6FF728A4201D1ED88CDB1F388162101FB0B0567
:2006FC00EB8030892881307921F007F8F8B10E3541460422284617F04FF8307915F010FD48
:20071C00F1680246284614F071FC10E0162101FB0B056889E880A889042205F10E064146C9
:20073C002881304617F038F81235286830601198169011E08C2102E08D2100E0872114982F
:20075C00159A00EB820081703178C170718815468180681CC0B215907F1CFFB2A8E6149820
:20077C001EF0AEF9102000E002200E9D00F01FBC6868002800F0DA81686800681EF0BEFABF
:20079C00D3E3AF68002F00F0D18146466E7050B1207F082807D14046414602F083FE002845
:2007BC0008BF404600D0119806468CE16F68002F00F0BC814046687069680F7857B984F829
:2007DC004200607F401E6077119801461EF0FEFD00F048BF21F03CFE1198014605F0CCF8C3
:2007FC0000F040BF705200206868002800F09E81067847684146082208A816F0CDFF002F76
:20081C0000F09481C74841460170B6B1761E0FD0761E0BD0761E04D0761E40F08781119989
:20083C000170384608A914F046FE80E111990170384608A91CF074FC79E11BF0DFFA76E1F8
:20085C006868002800F07281686800F112011CF067FC6AE36868002800F068816A681078E6
:20087C005188928811F0ECFB5FE36F68002F00F05D81B8880E903C787E88FB88B7F808B0E9
:20089C00C64807F10A0A07791293002F5AD0C2490F68002F00F08A83814678680078844211
:2008BC004CD120F017FC002848D0027C002A45D04369002B42D040460C27824240F376834D
:2008DC0010FB07F1595A8E4235D10E2015F084FA071C37D0404607F10A0204235B1E02F871
:2008FC00010BFBD1B880FF2139704FF6FF737B803881F8803C707E800E9ABA801299F98070
:20091C005346A7F808B01968082007F10A03196015F062FAD9F8141018B938461EF0D0F829
:20093C0010E007604160C9F8140099F81000401C89F810009FE1401CC0B2BEE73F68002F77
:20095C00ABD133E3119832E36868002800F0EE8040466870686817F0E5FEA968088000F034
:20097C0081BEAF68002F00F0E180404668702678AD686178002E05F1010708BF28700FD031
:20099C00084640211CF0FEFD4FF47A710F2300F2E730B0FBF1F116FB03100F3828702678EE
:2009BC00002F00F05F863046ADE0C0467C52002094F842700E97218F94F83B2094F83A30B0
:2009DC0094F83C60D4F834C094F83DE094F83F9094F840A094F841B0AF68002F00F0A680CA
:2009FC0047466F70AF683981A968CA72A9688B72A9680E73A9688873A868C0F804C0A86809
:200A1C0080F80DE0206BA9680860A86880F80F90A86880F810A0A8680E9F80F811B0A968EB
:200A3C008F7400F01FBE6F68002F7FD0404668706868077D17B1C07C84F841006868877D2E
:200A5C0017B1417D84F84210077C17B1C08920876868077B17B1806860636868877C1FB183
:200A7C00407C84F83D00686807790FB10068206300F0F8BD4146697070B194F83B00800974
:200A9C000AD208A8082216F087FE21F0BEFA08A81CF018FD00F0E6BD21F0B7FA4FF4FA705D
:200ABC0020F0F8F900F0DEBDA86800283ED04046687021F06DFB25E0D348AF680678002F8D
:200ADC0034D04046687030461CE0686800282DD0686800781BF0E8FA27E26F6837B34046AC
:200AFC0068706868007805F0CFFA00F0BBBDA868E0B1404668701BF001FF002808BF1198F2
:200B1C0015D00078AF68387000F0ACBD686868B1404668706968088889781AF0B5FC00F0F0
:200B3C00A1BDC046B83F00206F6817B902208046A1E06868B54A036802F10C010B604068C1
:200B5C004860686801895180807A107000F025BD6868002800F02A820188ADF83010408890
:200B7C00ADF832000CA953201DF0D2F950200DF132011DF0CDF9E1200DA91FF017FC686865
:200B9C009DF834100079884275D08DF834000DA9E1201DF0BDF96EE080460020705200208F
:200BBC006868002800F0028200781DF021FF4C46686894F834104078884213D084F83400C1
:200BDC000DF13501E1201FF0F1FB68689DF835104078884206D08DF835000DF13501E120D8
:200BFC001DF096F96868119E407806FA00F0606420F020FCA4F88C8030461EF0A7FCBEE1B8
:200C1C006F68002F00F0D2817E884C466686387884F842007B6884F8343063643989E186CA
:200C3C007889A4F84000387B84F85400787B84F82100B87BE0773A69E264786994F88E60DA
:200C5C002065387EB04201D01DF0D2FE696804F15500193121F02CF994F8420004F11C061D
:200C7C00082808D121207421324621F0D7F9404602211DF0B1FD404699E16F68002F00F0C6
:200C9C00958103E06F68002F00F0908112208EE16868002800F08A810A30077807B190465D
:200CBC0047780FB148F0020887780FB148F00408C7780FB148F00808007908B148F040085B
:200CDC00696808884246891C1DF056FB2DE16868002800F06B8102208DF828006868008803
:200CFC00ADF8200068688178C27808A81AF040F81BE16868002800F0598102208DF8280091
:200D1C00686801884FF6FF70884205D0821E8A4202D0C01E88420BD121F016FBADF8200062
:200D3C006868C27A837A811C08A81CF071F9687068680088ADF820006868C27A837A811C30
:200D5C0008A81CF065F9F0E06F68002F00F02E8102238DF828306968001D09880468ADF856
:200D7C0020106A680F2092F804C0B2F80680167AD2F80CB0177CD2F814A05188CDF838C0EB
:200D9C00F21900EB42005FFA80F9B9F14E0F00F3A28021F0D9FA884233D1217008126070E4
:200DBC0020F078FFA41C0146204621F081F804460E98207084F801804FEA2823A370E6702F
:200DDC00241D66B15846A41E017804F8021F30F8021B761E4FEA21216170F5D1A41C277067
:200DFC005FB1641E5046017804F8021F30F8021B7F1E4FEA21216170F5D1944820224B4676
:200E1C0065E01846D3E0C046D4430020F04000206F68002F00F0CA8002218DF828106968E2
:200E3C000988ADF82010696842684B888C888E79D1F808800F7BD1F810904FF0060EF11926
:200E5C000EEB41015FFA81FCBCF14E0F43DC82469DF828000F2818BF022808D1BDF82000D1
:200E7C004FF6FF71814204BF891EADF820104FF6FF71994208BF8B1E02F8013B191202F844
:200E9C00011B02F8014B201202F8010B02F8016B66B14046921E017802F8021F30F8021B10
:200EBC00761E4FEA21215170F5D1921C17705FB1521E4846017802F8021F30F8021B7F1EC7
:200EDC004FEA21215170F5D150467246634608A919F030FD6BE0102069E06A68002A65D021
:200EFC000220052216E0686800285FD002208DF8280068680088ADF8200068684188027970
:200F1C0008A81FF0D7FF804647E3686800284DD0022002468DF8280068680088ADF82000E7
:200F3C006868418808A820F093FA2C461AE1686800283BD06A6810889178D2781DF0AAFECD
:200F5C0080461CE06868002830D06868017A427A19F01AF9E9E7686840B340788DF82000A8
:200F7C00686880788DF821006868007820F08CFA00283FF4DBAD08A909880C3001804046A1
:200F9C00D5E5696891B1A86880B1087808A920F06DFA6868A968007808709DF82000A968E8
:200FBC0048709DF82100A9688870F6E202202C46DBE02C466368002B00F0D680187D20F024
:200FDC009BFA002800F0D080187E19331F788DF83600002F0CBF404602205F780FB140F05B
:200FFC0010009F780FB140F00800DF780FB140F020001F790FB140F040005F790FB140F0BF
:20101C00800083466068007D21F0B2F8051C00F0AB806068807A8DF8290060688089ADF849
:20103C002A006068007802288DF8280010D001280ED00F280CD003280ED16168891C0A686F
:20105C0008A802604968416006E0C0465C3F002060684088ADF820006068877B002F72D0D9
:20107C00780014F0B9FE061C08BF10207DD041466068877B8F4260DCC18A038C426A0E9534
:20109C000C2F129190F81FA01393BDF8209014924DDA484619F0C4FB0C2816D14FF6FE7013
:2010BC0019F0BEFB0C2810D1DFF804C311999CF82C3140460CF59A7C1CF8082B9342C4BFC8
:2010DC00131C081C491C0C29F6DBBA4D4FF6FE7305EBC00568686B8018B11DF0F1FC4046C0
:2010FC00686077B14FEA4708404614F075FE6860002808BF10201BD068683146424613F0BB
:20111C0075FFC448A5F80290149B00786F700DF1360728700E990093129A019708A8CDF838
:20113C0008B0139BCDF80CA008F09AFE00E00220607030461DF0C4FC94E200694A00105A84
:20115C00491CB05294E7416A00910DF136070197CDF808B0C17F0391C28A038C294608A837
:20117C0008F07EFE60707DE20220254699E16868002800F04681007820F0BEF9071C00F0A8
:20119C004081387B1AF06AFF0028687040F06A8274683D46002C00F065822746404617B90B
:2011BC00BD4202D05EE2BD4209D1AC4219BF2968016028687060284621F00EFA52E23846D8
:2011DC003F68ECE76868B946002800F01A81007820F092F9002840F0BB8020F051FB0428C9
:2011FC0000F35E81474648466F7020F077F9041C01D0237B6BB11C2014F0EEFD041C00F0A1
:20121C00318241461C2216F0C7FA84F80490DDF844806868007820736868007AB61C20763D
:20123C001420266114F0D8FD0028606141D03946142216F0B1FA6968626949689079897946
:20125C0000F0F00001F00F01014391716868406861698088888068684068616900780870C7
:20127C0068684068616940884880686840686169C079C871686840686169007B08736069CB
:20129C00C079400014F0A8FD616988606669B3681BB13846F179814250DC307B400014F0E2
:2012BC009BFD306161690E691EB138460A7B82423ADC04F10C00814611F084FC0646022E37
:2012DC0018BFB82E06D1207B1AF0C8FE484611F079FC06463EB9B8F1010F20D120461DF08F
:2012FC00BBF8C8B11BE0B8F1010F15D0606968B183681BB118461DF0E3FB606903691BB12A
:20131C0018461DF0DDFB60691DF0DAFB48463946102216F041FA02E0204621F05DF9022E64
:20133C0016D0B82E14D09DE16B685B6842001B690969D35A53526169401CB7E76A68526873
:20135C0041009268B3688A5ACA526669401CA1E7D020A6E06868002853D0A868002850D07F
:20137C004146082216F018FA6968087849881EF011FC071C19D040466870A9683888088088
:20139C00B878A9688870AC68A078002800F06A8114F022FD6060AA685068002800F0628121
:2013BC009278F91C13F022FE5CE1B12079E0C0467C2E0020A82F0020686810B3A86800B34B
:2013DC004046C94A68706968176809783FB13A79914204BF401CC0B23F68002FF7D1A968F9
:2013FC000870A8680078400014F0F6FCA96848606868A968007849681EF0ECFF32E16F68F5
:20141C000FB902204DE040466870686800781CF09DFD27E1103F00200220687069680029E2
:20143C0000F02081087849881CF0AEFD002800F01981404667E56868002863D06968091D51
:20145C000A6808A8026049684160032020F0D0F96868C07B1DF004FC6868817B00910278AF
:20147C008389418808A811F041F95EE56868002848D0384620F032F8041C14D11C2014F040
:20149C00ABFC041C00F0EE8041461C2216F084F9277120461CF0E0FF28B920461DF010FB7B
:2014BC00D1208046C5E7E088D04940F00800E08040F00400E080022020F0B2FFCC490320E5
:2014DC0020F0AEFF686800680890686800798DF82400119F8DF825708DF8267008A818F0D4
:2014FC00D3FC22E5686868B168680088414601F0D9FFB7E06F682FB1C22004E5C3486F686E
:20151C0004780FB90220FEE4414669706868242216F042F94E466968708E08806868B6F847
:20153C004070847269688F81F08E696806F11C0707F13903C88268681A680E30026059686E
:20155C00416020F0A7FB6968891C026840680A6007F11C03486068685C681830446019686A
:20157C000160686896F83410119A80F82310696881F8222076E06868002831D090F9004052
:20159C00A34800680DF13701D0F830248DF83740E0209047A86800B104704046C5E4686883
:2015BC00F0B140466870696817460F706868022646706868867068680624C47069680323CA
:2015DC000B714FE0686858B1407818B1FF2003211DF002F920F0D0FE11988E490860FEE7F4
:2015FC000220A2E44046687013F08EF93AE0404668701EF0E5FA35E0122096E4294617F0A3
:20161C0035FE2EE029460EF0CBFA2AE0294612F0DFFC26E0294620F0D3FD22E029461AF015
:20163C0078FB1EE029461AF054F81AE0294617F020F916E0294613F0EBFB12E020F0FCF88B
:20165C002FE7294619F09CFC0BE03846294605F04DFB06E0294604F063FB02E0294604F047
:20167C00A9FE119011988046B8E0109C16201FF0A7FA071C00F0B2804146162216F08CF8DF
:20169C009320387046467E7060783871A07838742079012814BF02200120B871E0883881F2
:2016BC00E0783875A0781FF027FF002800F08A808CE006201FF084FA071C00F08F804146D2
:2016DC00062216F069F8464691203870109D7E70A97839716978F970E9787971A8781FF050
:2016FC000BFF00286ED071E03847002010984078904273D0484BF070F21C41464FF00070C2
:20171C001DF09CFF70784549087067E0109C30201FF056FA071C61D04146302216F03CF80E
:20173C009220387040467870A17B032939711CBFE188F98005D1A21D1368B91D0B6052680B
:20175C004A60E17BB973218A398261887982A188B982618AF982217D3976667D414606B1B9
:20177C0001217976607E414600B10121B976A07DF876E07D387794F918007877E0693862C7
:20179C0094F8200087F82400A08DF88494F8240087F8280094F82E0087F8290094F82600CA
:2017BC0087F82A00E08C14F017FBF862B0B1A16AE28C13F01BFC207D1FF09EFE30B9F86A01
:2017DC001DF07EF938461FF0D5FA07E0007939461AF086FB02E0109809F09AFDB8F1010FD0
:2017FC0008D010981FF0C6FA08E0C04619D30100451F0200109988781AF072FB0F9880F402
:20181C00004080B219B0BDE8F08FC046203E0020140100207C05204321060200843D0020A6
:20183C002DE9F04FC34D2021352205F1B004ADF1140D204615F0B0FF04F10109A04605F131
:20185C004C0605F1480005F1B10100F17B070160044605F1C30105F1D5002865686C31609F
:20187C004FF4FA7120F06FFE05F18C0020F03FFFA86A696B0346686A8936884200F008834C
:20189C00AE7ABD4A03962E79118D6F7A287A0296DFF8E8A2DFF8E892AE6B0FF2003E0FF2F1
:2018BC00243CC6A2152B0196C1A600F26C83DFE813F0E302D502AD00D00238029B00AC019E
:2018DC00AA018D007F006F009E0192015600F202690156013D0043011600F2022301206852
:2018FC00D0A10C2213F082FB381C15D0FF380CD06068D0A1102213F079FB61683846102206
:20191C000223093119F098FC0EE0CFA160680A8802808978817007E0CCA160680A68026093
:20193C008F8887808E798671CAA1B5E24FF6FF7088420DD02068CCA1102213F057FB8E48C0
:20195C002168008D10220423891D19F075FC04E020687146102213F049FBC8A19CE24FF614
:20197C00FF7088420DD02068BFA1102213F03EFB81482168008D10220423891D19F05CFCA0
:20199C0004E020687146102213F030FBC0A183E2000904D2324660685168416004E06068BD
:2019BC009188818097798771BEA11268026073E2800804D2324660685168416004E06068B5
:2019DC009188818097798771BBA1EEE7C00804D2324660685168416004E06068918881809A
:2019FC0097798771B9A1E0E70398012818BFBCA140F05282BFA120680A6802604F6847608C
:201A1C000E8906816668BEA10E22B9E20298EF7AD5F82C9000260128A7F107072AD0206891
:201A3C00BBA1102213F0E2FA494620680988B7F1FF3F018003D0022F18BF002F12D1286B8E
:201A5C0038B1296B20680968C01C016020682023C37137F0020012D1E0A120688A88083059
:201A7C00828004E0DFA120684A68C01C42600968016004E02068DEA1102213F0B7FA6068C1
:201A9C00E0A1102213F0B2FAA869616800880A220323891C19F0D0FB287B6B46B8213246F6
:201ABC0017F04CFC61689DF800000A2203230A3119F0C2FB6168E87802230E3119F0BCFBBD
:201ADC00A8699DF80070018857EA010003D1E86AE1A1814200D00126A068E1A1102213F0E8
:201AFC0085FA002E00F04F82686CFA2120F02BFDE04820F0FAFD46E2216805F154001022D9
:201B1C001DF0CAFA6168102205F15C001DF0C4FA21680020087461680874A0681022DFA19C
:201B3C0013F064FAA16805F1640004221DF0B4FA29E2C046683B0020216805F1540010220B
:201B5C001DF0AAFA6168102205F15C001DF0A4FA21680020087461680874D5A19CE12068DB
:201B7C006146102213F042FA5046616800681FF09EF8D4A190E1C046F83E0020B041002072
:201B9C00B441002020686146102213F02FFA4846616800681FF08BF8CFA17DE120202020E8
:201BBC003078464646462028616E792900C046C044495341424C454400C046C0454E4142B6
:201BDC004C4544003132333435363738393031323334353600C020686146102213F006FAAE
:201BFC005046616800681FF062F8C0A154E120686146102213F0FAF94846616800681FF0DE
:201C1C0056F8BFA148E1C3A146E12068C6A1102213F0ECF96068C9A1102213F0E7F9CCA189
:201C3C003AE1C0464C617374207374617475733A00C046C04552524F52202830782020292C
:201C5C002020202000C046C02D2D2D0053554343455353003C41504C5920494E535420434F
:201C7C004F44453E00C046C02020202030782020202020202020202000C046C020202020BE
:201C9C002050414E204944202020202000C046C03C2020202050414E204944202020203E10
:201CBC0000C046C03C46494E444E472B42494E444E47203E00C046C03C204E574B2053543C
:201CDC00454552494E47203E00C046C03C4E574B20464F524D4154494F4E203E00C046C0EB
:201CFC003C20524553455420544F20464E20203E00C046C0526573657474696E672C00C08D
:201D1C00506C6561736520776169742E2E2E00C0787820202020202020202020202020207E
:201D3C0000C0AE4A002011780B110A2BACBF37213021C9182368C15412F8011901F00F0319
:201D5C0001F00E010A29B4BF30213721C9182368401CC0B2C154401CC0B21028E3DB20687D
:201D7C000021017460681022A2A113F03FF9C94E6168B6F8400010220423491C19F05CFA4E
:201D9C00606820274771616896F8340002230A22C91D19F051FA606847726168708E0423DB
:201DBC0010220B3119F048FAA06897A113F01EF9E87A821F43D0521E02D0921E3AD02AE0D8
:201DDC0020F04EF900280CBF94A196A1A0680A6802608A88828089798171D4E0434C4F5368
:201DFC00454400C04E6F744F6E4E776B00C046C0506C6561736520776169742E2E2E2020A1
:201E1C0000C046C0496430303020537263683030302F303000C085A2A168136857680B603F
:201E3C00167A4F600A220E720323A168491D19F003FAA8E080A1A06809880180A3E07FA19A
:201E5C00A0680A68026009790171F08E04231022EBE77CA120E0C0462D2D00C07EA11BE096
:201E7C003C2020434F4D4D495353494F4E20203E00C046C0F43B002020680199102213F0DF
:201E9C00B5F8606879A1102213F0B0F87CA103E02A6A002B65D152A1A66870E020202020F4
:201EBC00202020494E535420434F444500C046C03C53455420494E53544C20434F44453E1C
:201EDC0000C046C020534543204348414E4C204D41534B2000C046C0205052492043484176
:201EFC004E4C204D41534B2000C046C03C534543204348414E4C204D41534B3E00C046C00D
:201F1C003C505249204348414E4C204D41534B3E00C046C03C41444420494E53544C204396
:201F3C004F44453E00C046C041204420746F206D6F7665202020202000C046C057205320DA
:201F5C006368616E67652076616C756500C046C04520746F20657865637574652020202021
:201F7C0000C0D8B22146904721684846102213F03DF861683846102213F038F8A168102255
:201F9C00304613F033F86979EF79FF2910D0686C27B954F82120A9792023535487F0010763
:201FBC004FF4FA71EF7120F0CEFA3B4820F09DFB0A2788F8117088F823700C2088F8000003
:201FDC000D2188F8121088F82410686918B14146352220F0C2FA05B0BDE8F08FD32700202A
:201FFC003C20202020204241434B20202020203E00C046C06E78787878206378782061787A
:20201C007878782000C046C0202020202020202020203C494E464F3E00C046C05A5220439B
:20203C00454E54005A522044495354005A454420282020202900C0465A4300C05A45442083
:20205C007000C0463C202020415050204D454E552020203E00C046C03C2020434F4E4649CD
:20207C00475552452020203E00C046C07072657373204520666F722068656C7000C046C025
:20209C003C202020202048454C5020202020203E00C046C0003D0020F43B00202DE9F04F7A
:2020BC00B44CDFF8D4A2C808ADF11C0D277F059180F09C820846C00BC60318BFDFF8BCB258
:2020DC0040F05E8152461078490BA0F1020080F03581BD4D059BA91D09881B0A80F0F080A2
:2020FC000599890880F0D3800598000B24BF059880F4006080F043830598C00980F0A280A8
:20211C000598A768800B5CD205986669C00B38BF0020C0F03583AB4828C8694628C1008885
:20213C00088027693EB938461FF055FD6061B0B987B90B200FE0307B30F07F060FD0A669D3
:20215C0000F07C0004280ADB46B938461FF043FD606120B900201FF047FE2EE06661926B3A
:20217C0060784FF4804102EB420220F061FA217F6069082919D00188ADF80010017A8DF80A
:20219C000810017B491CC9B231F07F07017306D10188427A68461EF08DFE606909E00088F7
:2021BC0000210A461CF076FDF7E7017B41F04001017340691FF00FFDA061059880F480403D
:2021DC00DDE2DFF8D4A200264FF00309B0468FB96078012E04D04FF4005119F02BF905E0A7
:2021FC004FF400514FF47A7220F022FA059880F40050C4E27D68287810B3F02820DC4946E2
:20221C0042466B461AF0EFF8D0B1029803889BB984F83A808DF80D908DF80C8003AB0A203D
:20223C0041464A461AF05AFFDAF8001084F83A8031B12878884703E001880126491E018024
:20225C003F68C4E71AF05AFB07462078BFB1401EC0B22070A0B160784FF480411BF092F939
:20227C0030B920691FF0B7FC10B9387817F0BCFF6078402143F6982220F0DAF9207810B963
:20229C000B201FF0B1FD059880F0400077E2B0F1FF3F18BF00280FD168460021082215F0D8
:2022BC007BFA00201DF0A2FC68461BF00BF918B16078022118F0FCF9059880F002005EE2F5
:2022DC00084600211AF0F6FA2C462678FF25C6B14FF6FF73201D00219C4610F8142F520832
:2022FC000BD3C7884FB1BC4507D053B10289BF1ABAB29342C4BF0D1C131C761E01F10101B1
:20231C00EBD1FF2D16D0A80000EB0510001918300189C088401A80B248B96570FF2008F07F
:20233C0051FEFF2128460A461AF01CFF0020E0801EF0F0FD059880F0800020E2B0F1FF3F46
:20235C0018BF002811D13846401E0AD0801E0CD1A07F022809D10120A07700201BF012FABD
:20237C0003E0617F00201DF031F8059880F4805005E2C04680410020F83E0020003D0020C6
:20239C00607818F067F95FEA000904BF059880F4004000F0F48199F80060D32E00F00D81A6
:2023BC00207FB04212D00A2E40F01C8194F83B0089F80400616A002900F0148109F10200C8
:2023DC0088470FE1543E0200705200209AF80000761E4F4600F09B80B61E40F00381012835
:2023FC0018BF022840F0FE80BE7876B3761E40F0F9807A7860781AB31FF0A6FF4FF6FE7276
:20241C000021824218BF0121081C04D15846408E1146814209D010465946ADF81000174663
:20243C004F86532004A91BF073FD1CF037FD1EF005FF5946002081F8420012F065FAD1E032
:20245C00022140F6B832A177ACE0787800285AD120F028F800220BF10401206215460A609C
:20247C00011C47D089696D1C0029EDB2FAD11646071C3CD04FF0000836E0C3481EF0F5FB0D
:20249C0001280BD0BAF828004FF6FF7181420BD03988884208D01DE0D8430020BA4807F15A
:2024BC000C011FF07DF8A8B1BBF836003989884203D14FF6FE71814201D13B7953B19BF839
:2024DC002E00797988420AD19AF80E00B979884205D026B938461CF011FC6D1EEDB2BF69E2
:2024FC0008F101005FFA80F84545C6DC206A761C022EBDDBE26A002A9FD029469047E06A70
:20251C0000286FD199E700201BF05CFD6AE0012818BF022866D17F7894F841003FB194F848
:20253C004010491CC9B2884284F8401042DB607F401E04D0401E3AD0401E1ED052E01FF096
:20255C008FFD98B994F8420020B1A06A002849D0804747E0002102200F468DF8080002463D
:20257C00ADF8007068461EF073FF13E001201FF06FFF014603F000FA34E0AB2000216A4687
:20259C001AF040FFCDF808D004208DF80C0002A80FF0BAFA60784FF4805118F04BFF607811
:2025BC0041F288324FF4805120F042F81AE01CF0BFFB17E001200021DCE70746F88948F2F0
:2025DC000101401A0BD0401E05D0801E0AD1384614F022FA06E0484615F0F8FA02E0484683
:2025FC0013F022FB48461EF0C5FBC9E660784FB17F1E00F0BD80FF1E00F0B380BF1E00F0E5
:20261C00A780B9E094F83B00810980F0B580810878D2C10872D20009C0F0AE800620207764
:20263C001FF010FF002865D01AF068F9E568071C60D068684078800837D3387803210022E8
:20265C006B4619F0D0FE28B968684078410830D20E201BE002980188B52912DAB4210180B6
:20267C0060784FF47A724FF400511FF0E1FF4748416829B10078FF2814BF3878FF20884792
:20269C00E56868684078400803D209201FF0ACFB0AE0092003228DF80C0003AB00218DF830
:2026BC000D200A201AF01AFDE56868684078410862D337490E6816B980081BD35CE038780C
:2026DC0017F092FD002600B101260325301C02D00E201FF089FB0C2020706078402143F615
:2026FC0098221FF0A5FF0A208DF80D5003AB8DF80C0028E00E201FF077FB3DE005200021EC
:20271C00207732E0042294F83C002277400833D394F83E702FBB50460078012818BF0228C3
:20273C002AD1012604F11C000021E67015F034F803252577304619F037F90A208DF801601F
:20275C006B468DF8006000212A461AF0C7FC13E0002184F83A102177322204211FF068FF08
:20277C000AE01EF09FFE0420012103F005F903E0012001461CF02AFE059880F0040080B2AF
:20279C0007B0BDE8F08FC0463C3E0020D4430020EC4400202DE9F04F714C04F1200000688C
:2027BC00ADF14C0D10B1002180F8311034301DF09DFE1FF076FF1190082010F027FD15F0E9
:2027DC0015F9002510B14FA020F0E4F819F0D4FB0CA81FF0A5FC04200CA98DF830002846D6
:2027FC001FF0A6FC60631FF023FA04A81FF020FC042004A98DF81000284617F0A1FEE0628A
:20281C001FF020FA08A81FF01BFC042008A98DF82000284617F0C2FEE16A206319B941A06D
:20283C0020F0B8F8206B10B943A020F0B3F8606B10B946A020F0AEF8DFF82881D8F800004A
:20285C00D0F8E0038047D8F80000D0F8F0028047D8F8000007262F46A03001687B5823B147
:20287C0018468047D8F80000A030761E07F10407F3D1D0F8B8028047EB201FF06BFD206AC7
:20289C002F4670B16846FF21082214F085FF206A694608221EF05EFA04F12006012818BF22
:2028BC00376868463049129006C980E80600082013F092FA5FEA000A75D0FF21082214F0BA
:2028DC006BFF0120082152461FF0F2FD40B904F13C030120294608221FF0D6FA00285FD075
:2028FC00002F04F13C0941D04846694608221EF031FA002854D13868494608607E684E602A
:20291C0049E0C04652616E646F6D5F736565644175746F6D617469632829206661696C65F2
:20293C006400C04641455343434D206F70656E206661696C656400C0414553454342206F1C
:20295C0070656E206661696C656400C054524E47206F70656E206661696C656400C046C07B
:20297C0090270020140100204C460200A9F1020603271FF0D4FD06F8020F7F1E4FEA2020CA
:20299C007070F6D130210620F82789F80610401CC0B209F80070012008214A461FF03EFBE6
:2029BC0050461CF08DF804F13C01E2201BF0B0FA1DF0D8FE400834BF2F1C0127D64E5520C1
:2029DC00012106F13E021FF073FDB14618B917B128461DF00BF924201DF0E4F982463520A9
:2029FC001DF0E0F9CD4EA8B9BAF1020F12D124202946022210AB1FF047FABDF8400032466B
:202A1C0004213832106035201FF052FD242002211AF098FF06F15401E2201DF0C7FC384644
:202A3C0018F004FE68462946102214F0B5FE622010216A461FF03CFD28B927B16220102153
:202A5C006A461FF0EBFA68462946102214F0A4FE38460FF083FF38461BF000FA384611F0C0
:202A7C000BFE1FB1284601211BF0B6FE1C2013F0B3F90028A06300F0F880606AA16A221D80
:202A9C0016F0ECF9D8F80010D1F84C138847A16B201D0860606AA16A04F1080216F0DEF9F6
:202ABC0018F09AFDA16B04F108004860606AA16A04F10C0216F0D2F9BB4FB870B94806F1D7
:202ADC004C013D701FF0F4F996F82100A16B04F10C0378705C3604F110028B60606AA16AE4
:202AFC00BE6016F0BBF904F1140AB14EAF497E60B04A0870B04B3A6204F11006A06BA16AD0
:202B1C00C660606A7B62524616F0A8F9AB4E3072022286F82C204FF6FE70B0841FF0BAF85C
:202B3C00A748A04906F11C0B056058461FF0C0F9A448FF21382214F02FFEA348A54AC26025
:202B5C00A34B8360A14941600570A44A4261A24B0361A449C161A44AFA60A14B8361A44992
:202B7C007961A44ABA61A14B3B6106F1380010F029F809270BF12C007F1E40F8045BFBD126
:202B9C00307A48F2010119F04DFE307A4FF4004119F048FE307A212119F044FE307A22213E
:202BBC0019F040FEA06BA16AC0F810A0606A04F1180216F053F9074689F801708E48C580AF
:202BDC00C5608570456105740126057048F202010671384619F026FE48F20101384619F0E2
:202BFC0021FE48F20401384619F01CFEA16B04F118004861606AA16A04F11C0216F02EF9E3
:202C1C007E4B20707E49987028461FF009FC7D4930461FF005FC7C4904201FF001FC7B49E9
:202C3C0006201FF0FDFB7A4907201FF0F9FB794908201FF0F5FB98784FF6FE71491C19F043
:202C5C00F1FD7548754FC9F82400764BBB6074497960754AC9F82820A06B89F8426004F1A7
:202C7C001C038361714FC9F82C707248704C0570D8F800102570704F6570D1F80061656134
:202C9C00F089D1F850123D70103080B28847206128B9D8F80000D0F84C058047206900905B
:202CBC008DF804509DF8051065F301018DF805109DF8051065F383018DF805109DF80510B7
:202CDC0065F307118DF80510D8F80010D1F80011C9896A461031ADF80610216913680B60A6
:202CFC0052684A60E061256212F042F8D8F80400C168087848B9D8F80000D0F85824284650
:202D1C0001469047D8F80400C1684C4805704C4F3D70087858B903E080410020F83E002080
:202D3C00D8F80000D0F8582428460146904711981FF02CFE0BF08EFF1DF048FED8F800004A
:202D5C00D0F8D40090F843001DF0E4FBD8F80000D0F858242946012090471FF059F83948A8
:202D7C00D8F804700570F868007830B9D8F80000D0F8582428460146904711F0D5FB3248D2
:202D9C00324A07212B461DF085FA1BF0A3F810200DF142018DF842005A201BF0B9F813B09F
:202DBC00BDE8F08F704200204042002034460020DDFC0000055A01006D200200203E00207F
:202DDC00F8400020D82E0020E844002049800000710F0200E990010089EF010049F901008C
:202DFC00A5E90100CD070200A13001000D1C0100990B0200BD8E00007052002074460020A9
:202E1C00951F0200591F02006D1F0200811F0200551B02006D1B020065BE0100D4430020DF
:202E3C0061D40100ADB20100D5DC010075CC010090560020E85A0020EA5A0020ED5A0020B9
:202E5C008A590020E95A0020404400204F2702002DE9F04FBC48BB4CADF12C0D4FF0E04737
:202E7C000125069040682169C06809931F400570B64808924FF0000505704FF0020000EA34
:202E9C00020008BF002840F0C382DFF82893DFF828834FF480301E462F461040374008BF42
:202EBC00002833D14FF4003015EA060700EA020008BF00280ED137464FF480003D4000EAEA
:202EDC00020008BF002800F094820020087116F065F98EE228460871EB201BF091FF4B4654
:202EFC002846414618700878862802D128461AF07DF91FF0D6FBE1690A682B461371096848
:202F1C00E1611FF043FD1EF03DFB72E22846069F08713868B8300268DFF8F8A217784FB9E4
:202F3C0053461F7837B1D0F894048047069821690068B830B84E81225346FF251A7027782F
:202F5C003570806CA7700023A3814E461D46097AC0893570891E8DB2A842C0F23E82E16972
:202F7C000831096804F1180001604FF0040BA4F80CB0607EA17EE67E00EB0120608104F134
:202F9C0019032671069E59783268C1F30119B8321168ED1EADB209780793002908BFB9F103
:202FBC00020F00F01A82B9F1020F00F3168261B110F0070F00F0118241460978862904D1DB
:202FDC0000F00701022940F00882011301F0020102296FDA667800F00700022862D1002E1C
:202FFC0060D1D06990F88300022858D0E1690C31097805A801700527A7811FF052FB45468D
:20301C0006462878862847D106980068403001680F6837B9D0F80C05804706980068006C8A
:20303C0007689DF914001FF080FB787706980068016C096800228A77006C9DF9141000684D
:20305C00C17730461FF0A2FC267967891FF029FB80462946087807F0100786281BD1C34DCA
:20307C0005F11E021088401C1080872008701EF02BFC40461FF08AFC08201CF0EFF9E879AE
:20309C00B04206D11FB9002015F084FB07E01B20FAE7E920F8E7464630461FF077FC1EF052
:2030BC0071FA9CE141460878862804D100201AF09DF8A77866788FB186B9012F00F08D8119
:2030DC006089022F03D110F0070F40F08681032F05D100F00701032901D07EE1608901094A
:2030FC0080F07B81011301F00201022902DA810A80F0738107994978C1F3810A8F11BAF15F
:20311C00010F00F06A81012F00F06781BF49B9F1020F09D0CA5D11F80A108918CEB2DFB109
:20313C00C10919D3B61E0BE07A185144127909798918CEB2C1090BD25AEA07030CD0B61C06
:20315C00F6B209E09056002014010020B04600205AEA070308BF0226C0F30020311A607145
:20317C008D42C0F23A8106990968AD1B2D18A8B2D1F850122081743080B28847002865780A
:20319C00606100F02A810021742214F005FB0020E07062891DB9074902F0200008700548A4
:2031BC00617905784FF0000C002D3AD0002938D104E0C046EA5A0020ED5A002002F007003A
:2031DC00032808D001282CD106980068D0F8D40090F882502DB306984068406905781DB194
:2031FC001EF04EFDFE2819D006980068D0F84C02804750B906980068D0F84402804720B9AB
:20321C006289617994F803C00BE084F803B06289617905E0E85A00202D47002084F803B095
:20323C00DC46656905F17403AB6505F17400686023892B81079B208993F801B00029CBF30D
:20325C000118A5F85C001878AA8100F0780048EA00004CEA000028744FF0FF03AB730CBFEF
:20327C002079002085F8307085F83AA085F84900A089002EA0EB010087B2A78100F0AA80E1
:20329C00E169E68068463246C919083111F0AEFEF619B0B2A0812846027C4FEAAB0111F010
:2032BC00030F01F003076D4602F0400940D0B8F1020F4FF0000301D1D1090BD29DF80120AC
:2032DC009DF8001001EB0221A0F844100DF10205A0F842106D4EB0F84410B6F842208A42B0
:2032FC0003D04FF6FF728A4220D1032F11D06A78297801EB022189B24186B6F84020AD1CEE
:20331C0001208A4211D04FF6FF728A4218BF181C0BE06069294632301EF0CAFD60693736A6
:20333C00314632301EF03CF908350346002B48D007984078861120D06069B8F1020F03D058
:20335C00017CC90903D309E059EA070706D16A782978AD1C01EB0221A0F84210032E07D0CE
:20337C0069782A7802EB0122028506E0A04400206069294628301EF09BFD608900F0070017
:20339C00032809D0012825D106980168D431086890F88200F0B102E006980168D431D1F810
:2033BC00741160698847A8B90020079FE070B97866697878C1F3011100F078000843307450
:2033DC0008E006980068D0F8FC143148884715F0E5FE04E00AF0FEFB01E01EF0D5FA1FF037
:2033FC0060F9E1690A68002313710968E1611FF0CDFA089A099F202100201140384008BF31
:20341C00002919D01EF094F816E0C046084A0200204B214A93F90000401E187092F90000C1
:20343C00401E107093F9007017B91C482A4602802846087115F0B2FE174A92F9000098B19F
:20345C00089B099F02214FF0E0401940384008BF002912D092F9000000280EDC069800683D
:20347C00D0F84C05804708E00D480021069F01703868D0F858240846904706984068C06865
:20349C0000210BB00170BDE8F08FC046903D00205C440020B2460020B1460020C63C00209B
:2034BC00AE4600202DE9F04F0222ADF1340D502600230A9193490990081D027040224A7127
:2034DC0081464E721846C87380228A710022CA7188890A7240F430508881A0228A72184650
:2034FC000874C9488A7300F138021768CB722FB90A6822F00F0242F0020204E00A6822F024
:20351C000F0242F00102C148CC4F6FF30F1248F220230025134300780B6089790C9587F8A5
:20353C002A1060B9284618F081F8384690F82A00000911D3284608A98DF8200009E03846E5
:20355C0090F82A00000907D301200DF121018DF8210052201AF0DCFC1EF056F9B84FDFF844
:20357C00E4B200280B9040F0BC800DF009FF5FEA000A40F0A980B14ADDF830802120742163
:20359C001C3215461EF094FF002858D12120414674222B461EF078FC002850D1A748408E1D
:2035BC004FF6FE7181424AD0A44890F842004FF00108082806D0042804D00EF0B9F9DDF8D5
:2035DC0030803CE0444642200DF122018DF822401AF09EFC05F12F0143201AF099FC05F14D
:2035FC002C0147201AF094FC05F11C014A201AF08FFC05F11A014B201AF08AFC05F1240148
:20361C0030461AF085FC05F1160153201AF080FC05F12D0154201AF07BFC05F11801E1205E
:20363C001AF076FC854890F82A00000938BF0C9C52200DF122018DF822401AF069FC0C9C3A
:20365C0012E078680C9AA60006EBC40621460C233618009601201AF087FD18B9307880F063
:20367C00FF003070641CA4B20BF1040039880068A142E6DC00B1804718F06BFEB8F1000F4A
:20369C0018D01EF061FE6149888428B999F8000000F0F80089F80000684F03200C460026D6
:2036BC00487005F1390187F8426004F11C001EF0FFFB01E04FF0090A7D480021BAF1000FF9
:2036DC00418008BF0B9102D0012779480B9780465A484E4E90F83410012707FA01F03061D2
:2036FC007FE00DF04DFE0EF023F9544A212074211C321EF093FC02A8FF210C2214F04CF84E
:20371C002C460BE08C59002002A8009021462A460C23012018F060FD641CA4B23888A042ED
:20373C00F2DC5846006800B180472846ADF808004FF4A17012F050FB071C10D0FF214FF4FF
:20375C00A17214F029F802A800884FF4A1713A46388042201EF062FC38461BF0B1F92846E7
:20377C00ADF810002946062202A814F015F8142012F032FB071C1AD09C480C30006898B1E5
:20379C000326022002AA136881B2C919801D92880B60761E8A80F5D104A8008814213A4617
:2037BC0038804C201EF03AFC38461BF089F9182012F012FB071C10D02946182213F0ECFF99
:2037DC002C4604F2012018213A461EF027FC641C032CF6DB38461BF073F91AF05DFB344807
:2037FC0080460B98012871D10748144C00781C3450B301280CD0022812D199F8000000F0CC
:20381C00F80040F0020009E0F83E0020203E002099F8000000F0F80040F0010089F800007A
:20383C009D481DF022FA002808BF002003D0A04A04210320D1729E4948700EE0003D00201D
:20385C0084460020FC4400209949022099F80070487007F0F80089F800001EF060FE0999C7
:20387C00944F934E00F07F000818643080B20C90786C02213061FF201AF0AEFF8E494FF6ED
:20389C00FE700D464886471CE8860020A1F840701BF0AEF88748007801280ED10A98012878
:2038BC0008D002A80021082213F076FF02A802E0D0450020002019F025FF2120742122465B
:2038DC001EF0ACFB002002211AF086FF7948DDF82CB0C07804287BD1444DE86878B91220DF
:2038FC0012F07AFA0028E86072D04FF6FE71861F032726F8061F00207F1E7080F9D1BBF19B
:20391C00000F65D106AB4C20002102221EF0BCFA002856D1BDF81800002852D0042850DA64
:20393C00182012F059FA4FF003090227002441F2D87A0646EB68B9B24C2006221B191EF0E1
:20395C00A3FA98BBE868015B4FF6FE728A422DD066B3201840880021182233461EF094FAA8
:20397C003069EB6800F2E932326118194188EB68880000EBC1004019A0EB0A00026018199D
:20399C0041887369880000EBC100E96841F2D4724019801A036008194088324618211EF06A
:2039BC003DFB30460021182213F0F6FEB9F1010904F1060407F10607BCD116B130461BF05E
:2039DC007FF83C4B7120002108225C331EF05CFA3248384E324FC8F80C00F078C8F8107009
:2039FC00042805D01CF0DEFB2F4804E0B83F00201CF0C4FB2D482B49BBF1000F08601AD092
:203A1C002D4890F85D00B0B93046C078012812D13046007B78B1622002A914F09DFB02A880
:203A3C0000211BF011FF002011F062F802A80021102213F0B1FE1E48806950B11C4C183400
:203A5C00076820681BF03CF81949384600288861F6D109984FF6FF71814217D014480125DA
:203A7C00024600271146057014468F7285200A3229461EF01DFD0A3428B9852039462A4669
:203A9C0023461EF001FA0C981DF0F4F91CF0B4FE58460DB0BDE8F08F70420020ADCF00006F
:203ABC001D21020090440020851B02002F110200203E0020F83E0020003D00202DE9F04F4C
:203ADC00C84DDFF824B3CC4E0C46E00BADF1140DC00340F0A781DFF81483DFF8189360087E
:203AFC0080F03E812878DFF808A3A10B80F00F81CB480768600980F0EC80200928BF84F062
:203B1C00080480F0AF82600A80F0A280E00880F09580200A63D2A00A5CD2C54D200B2BD202
:203B3C00E00A27D3142012F057F9071C1FD00026B146287A012813D106F21118494614223B
:203B5C003B4640461EF0A0F950B928683860686814213A46786040461EF060FA85F808900A
:203B7C00761C0C35032EE4DB38461AF0A9FF84F4806078E2002076E2182012F02DF9071C89
:203B9C0025D000262435B046287A012813D106F20129414618223B4648461EF075F950B979
:203BBC0028683861686818213A46786148461EF035FA85F80880761C0C35032EE4DB38464D
:203BDC004146182213F0E8FD38461AF079FF84F4006048E213F0ACF984F4007043E216F063
:203BFC00A3FA287805281DD1287A042117F022FC287A042115F038FD06201DF0F9FD1EF02D
:203C1C00A7FA13F095F918F0E9FD58460078000904D35146C91D0878012805D168691BF09A
:203C3C009BFE01E01EF094FA01201BF0DFFF0320012101F0A1FE84F0800014E2FF20032146
:203C5C001AF0CAFD1EF098FBBE4901200860FEE7424692F84200082818BF042815D11C32A6
:203C7C00212074211EF0DAF9BE4EBF4871683288C3690025B1468046AA4209DC0BB11846D2
:203C9C008047002002211AF0A7FD84F48074E9E1A80000EBC5000F5C37F07F0C16D017F0B8
:203CBC007F070F54084405D101A8FF210C2213F073FD01A80090294600220C23012018F051
:203CDC008BFAD9F80410D8F81C3032886D1CADB2D2E74FB17968087818B14868007814F091
:203CFC0023FB3F68002FF5D11EF02EFBA8841DF0D1FF51460878012806D1454628784FF429
:203D1C00006164221EF094FC84F01004AAE10C280FD00C201DF06CFD2878012803D0022874
:203D3C0018BF0C2801D100206871504600F134010DE002201DF05CFD2878012818BF022896
:203D5C0004D10120687100201DF094F849460A68287A4FF400511EF06BFC84F4005481E1E5
:203D7C0001201DF045FD30786F7800F007011220012918BF022949D14FB3032F27D0012F5D
:203D9C0044D101290CD00A201DF032FD4946287A0A684FF400511EF04BFC10F059FE35E08E
:203DBC000A201DF025FD454628784FF4806117F041FB502004A91CF0F9FABDF81000A5F87E
:203DDC004000BDF81000002113F088FE25E01EF047F998B1032F11D01EF0A1FB0DF01EFEA6
:203DFC0014E0C046203E002092590020003D0020003F0020383F00209059002002201DF099
:203E1C00F7FC9A492869097816F002FF28B1287A01214FF47A721EF00BFC84F0010421E13B
:203E3C0080460020924FDFF84C924FF0000A10E1C83F00200246167839782B783046401E8B
:203E5C0000F0E580401E21D0183800F0FC80B93800F0F5802A3800F0F980361F0DD0361F3E
:203E7C0040F0F480012918BF022940F0EF80107910F03EFE1EF06CF9E8E0012918BF02298B
:203E9C0040F0E480404606F019FEDFE0012918BF022940F0DB8099F81C004E46072818BF22
:203EBC00082805D16A7A1AB9012101F065FD2B78032B00F084800A2B11D0042B15D00E2B8C
:203EDC0013D00F2B11D00D2B0FD0002B00F0BE8018F084FC287A102116F0EAFBB6E06848CC
:203EFC00007800F00700012869D06E7A68785EBB5046287319F06AF8C0B106201DF078FC40
:203F1C00287A4FF4005117F095FA9BF80000000909D3FE7B3EB950461BF01EFD50461EF071
:203F3C001FFA1EF023FA18F059FC8FE0788E1BF013FD05201DF05CFC42F210701CF0AAFF41
:203F5C0084E0C0467C052043297B01280ED0032823D10320494B6870981C80F800A00126AB
:203F7C00AE711AE084460020E8440020491CC8B20428287304DB4048007801280BD00CE061
:203F9C003E4800884FF6FF71814204D0032068700423EB72E3E785F801A01AF07FFF1DF0AF
:203FBC004DF99BF80000000902D3F87B01284DD1687803284AD1788E1BF0CEFC46E06B7A68
:203FDC001BBB287A102116F073FB18F0FFFF90B1287803280BD118F001FC307F022806D105
:203FFC0001201BF003FE0220012101F0C5FC06201DF0FEFB2AE0788E1BF0AEFC05201DF05F
:20401C00F7FB012019F0BEFB20E05046FAE7022B1CD1012918BF022918D11EF013FA40B9F5
:20403C001EF040FA00280CBF5046012019F0CAFF0CE012F033FD48B116F0F2FE06E0404627
:20405C0010F0C6FA02E040460BF01AFD40461CF091FE287A16F0FEFA5FEA00087FF4EAAEED
:20407C0084F40044A0B205B0BDE8F08FBD410020F83E00208041002041420020403D0020A8
:20409C00905900202DE9F04F04462089ADF1440D28B1C2482A30008808B11CF077FA4FF08A
:2040BC00000B52200FA98DF83CB019F031FF6068217A01AA0CF05AFA002800F069829DF80F
:2040DC0006000228B4BF01275F469DF808000228A8BF5F46BDF80E004FF6F87880450BD069
:2040FC0008F10101814207D008F10201814203D008F10301814200D15F461EF01FF99DF88C
:20411C000710884240F04482002F00F041829DF83500002840F03C82208D9DF80A60678E49
:20413C00ADF83000ADF8127056B161689DF805209DF8203001201DF037FB002840F0288296
:20415C009DF809709DF80A50DFF87492002F4CD19DF821005E4658BBBDF80E00034619F09B
:20417C0091F93746022808BF0127002F9DF8067018BF012649460988994208BF46F00206CB
:20419C0026B1002F14BF402120210E43184619F079F9012808BF46F00106002F3DD00B9A50
:2041BC0010781DF0F3FE012818BF26F0010635E09DF8250088B1FF280FD09DF824700C2FCE
:2041DC002BDA57B30A99891E1EF0BEF831F8022F904222D07F1EF7D11FE04946BDF80E7062
:2041FC000888B84208BF222617E0BDF80E10FF201BF0D0FC002808BF082608D09DF80900B7
:20421C0047F001072C2640F001008DF8090007F00307012F08BF46F011060B9A8DB9C748F3
:20423C00007870B106F0220022280AD006F04200422840F0AD811078062818BF072840F0A1
:20425C00A781F0094FEAA61A48D317783846C01E012825D9001F23D0C01E21D0801E1FD08D
:20427C004946BDF80E600888B04240F091810520BDF810408DF839000EA81CF05BFD002882
:20429C0000F086810269032313261370511C0E704C7022128A70CF70448008F0A3FB77E1F8
:2042BC005FEA5A001AD3032F02D150780D2815D09DF80C0038B1BDF8100007990DF048FA3D
:2042DC00012800F061819DF80B0038B1BDF80E0006990DF03DFA012800F05381B4F844705B
:2042FC0049460E310888B84209D1CDF800B0208DB4F8421094F846205B460EF05FFA9DF8D1
:20431C000A00A54DDFF89492002872D0208DB4F842101DF04DFF071C54D19DF835000028E0
:20433C003ED195F88800012863D10B980078062802D15FEA5A005CD2BDF8121008F107001C
:20435C00884200F02581BDF80E0049460831097811B1698E81421DD0594613F089FE80B112
:20437C008079BDF81020BDF80E1010F0180F0CD0608E00901046238D9DF8212017F054FCBC
:20439C0006E1BDF80E10BDF8102010465A4614F091F9FDE018F092FDFAE0C046F83E002034
:2043BC0004201CF00DFC011C00F0F2806420087001274F70208D4880287817F091FDE7E0D5
:2043DC00323D00209DF805106068FB780A18527B9A4203D0FA70584678606068401804218A
:2043FC00401C1CF0B4FE7968814200F2D180401C786095F84200042818BF092840F0C880F1
:20441C009DF81610B00980F09B800B995FEA5A00C0F0BE800878042804D19DF820000228EC
:20443C0000F086800A78072A04D19DF820302878042B45D0032A3ED00C2A40F0A98048788F
:20445C008E7878BB4C4604F11B0251200121167090461DF0E3FD524801270770287802218B
:20447C0019F090F8A8B9E07EA37F022811D1002B14BF4EF660204FF47A704A4951F82310A4
:20449C002B7803224843B0FBF2F2022118461EF0CCF870087CD3E6765120394642461DF023
:2044BC00BDFD75E0E98E01201BF058FF2878012116F0C0FF6CE001A8594619F023F867E051
:2044DC004FF4806116F0B6FF374A90881DF04EFFD0881DF045FF4C465F461B3427700920FF
:2044FC0085F842001DF0D6FB014606981DF058F801284DD110201CF063FB074607990B9850
:20451C00002F00F1010043D002223A704378027802EB03227A80807878704A2019F0F8FCF5
:20453C009DF80A0010B9214905200870394643E7584601A907F03AFD2AE0C046273D00203D
:20455C0094F8460094F847708DF8380094F948608DF8397001298DF83A600CD1208DBDF882
:20457C001010884207D1BDF80E0018F08BFF022808BF8DF816B0E26B01A80EA900F052FCE1
:20459C0006E0BDF80E0001E0BDF8100018F08EFA11B0BDE8F08FC046003D0020F83E002082
:2045BC001040002094420200A0450020203E00202DE9F04F0446E5680E4600271E22ADF1CF
:2045DC00540D39460AA88DF846701EF0D0F86978287800EB0120ADF8280015F8020F8DF81F
:2045FC002A00E07A002800F09081401E00F01081401E00F0EE80401E00F0CD80401E00F06E
:20461C008A80401E71D0401E40F00E82BDF828103E4621B12068007D1BF0BCFAB8B1052020
:20463C001EF0A3F85FEA00080FD02068BDF82810007D424617F01CFE06462068437D3D46D3
:20465C000BB943882BB126B94AE0892501E0B04685252068017D1291801D13901BF068FC43
:20467C00A94694F80AB0BDF82850C0F10500B9F1000FC0B2149006BF701DC4B204242046E1
:20469C001EF073F85FEA000A2AD000F8019B149900F8011B2B1200F8015BB9F1000F037026
:2046BC000AD100F8016F3EB1401C454615F8011B761E00F8011BF9D1012000900190029056
:2046DC000397CDF810B00594CDF818A01399079012980522062306F0BDFF50461DF08CFF6C
:2046FC00B8F1000F00F09E810BE12068BDF828109DF82A20007D13F0DDFD002800F095810F
:20471C00F169002900F091812268099008A8921D0892884789E1BDF828100D1C04D0206831
:20473C00007D1BF037FA30B320689DF82A20007D13F0C0FD051C06D11BF0FAFB0528A8BF91
:20475C00892719DA0AADB1693E4639B120680995801D089008A8884700B101260AA8A8420D
:20477C0003D04EB11BF062FF06E02068007D0AA912F01DFE00E085272568687D002840F0CE
:20479C0051816888002840F04D819DF82A603846042237461AE0BDF828100E1C07D0256860
:2047BC00287D1BF0F7F9002808BF852005D02068007D17F0D5FA256838466A7D002A40F0AD
:2047DC0031816A88002A40F02D810322394607461DE12068BDF828109DF82A20007D15F04C
:2047FC0093FD50B92568BDF82810287D1BF0D2F900280CBF85278B2700E02568687D002844
:20481C0040F010816888002840F00C810222FCE02068BDF828109DF82A20007D13F04AFDCB
:20483C00061C0ED1BDF8281039B12568287D1BF0B1F9002808BF852001D025688B200AAE48
:20485C0001E0256838466B7D002B40F0EB806B88002B40F0E780E17A012940F0E380297D2F
:20487C005FEA000905F1060B94F80AA0129105D1307E317A0918C91DCDB200E004252846BE
:20489C001DF073FF5FEA000800F0CC80044604F8019B307804F8010B3088001204F8010B8C
:2048BC00B078B9F1000F20701BD1B088641C04F8010B001204F8010B307A04F8010B337A46
:2048DC003BB106F1090120461A461DF029F9307A2418337E2BB1193620461A4631461DF0CE
:2048FC001FF901230093019302930397CDF810A0129805955946CDF818800522079306F09E
:20491C00A9FE40461DF078FE8CE06D1C69782878B84600EB0120ADF82C00AE78CDF800800F
:20493C002068007D04220DF14603052119F0CFFC9DF84600ED1C50B1102EA8BF0F260DF132
:20495C00310029468DF8306032461DF0E9F8E068278AAD19291A781AC0B28DF8400088B11C
:20497C000428C4BF04208DF840000DF14106FF21042230461DF0FBFE9DF8402029463046A2
:20499C001DF0CEF8BDF828100F1C05D02568287D1BF000F9002830D020689DF82A20007DF9
:2049BC0013F088FC051C06D11BF0C2FA052802DB8927256822E04746CDB19DF84660BDF851
:2049DC002C00A8802EB105F108000CA910221DF0A7F89DF8402005F119000DF141011DF0A6
:2049FC009FF89DF8400028761BF020FEE1E72068007D0AA912F0DBFCDBE78527687D88B97B
:204A1C00688878B9E07A68B942469DF82A10BDF8280000900191A07A0290287D3B46A91DF0
:204A3C0017F0C5F9FF2700E00127384615B0BDE8F08F70472DE9F84FDFF834830F460646BD
:204A5C00F80B80F09B81C74DCA4C2878B90F80F03581DFF824B3B90880F02881DFF80893F9
:204A7C00DFF808A3F90A80F08B80390B54D2380907D2F80FC0F0BA8127F0804715F0C4FA03
:204A9C00B4E11DF00EFE05461BF0FEFE00283DD01AF0D0FF002839D04C4603202070D0485E
:204ABC001DF0F9FD28461DF071FF0EF053FE022000211BF0D7FE02201AF01CF811200EF00B
:204ADC007DFACE48007820B95546286848301DF0FEFDCB48007810B90E200EF06FFA607B6D
:204AFC0020B10020607305201AF004F8002041462070C44AB1F91C00B1F91E10626088423C
:204B1C0014BF0220072012F0F9FE02E028461DF03DFF27F00807B1E720B1042019F0EAFF26
:204B3C000020287055462E681AF032F840B1F0696FF4807100224FF0007384463046E04763
:204B5C00B14E306858B12068006B8047326829680024801AC860C8683460000BC860AB48E4
:204B7C00AB4900221DF0A5FD4C46584602210068217010B1A7481DF0B2FD27F400677DE7B6
:204B9C001DF08FFD00901BF07FFE002840460068834600F08580002800F0828048460426A2
:204BBC0006709D49994800221DF083FD00981DF0EDFE8B481DF06FFD2068006B80474FF018
:204BDC000108DFF844C285F8008064462060304619F0AAFFDBF810005546416A2860C90802
:204BFC0004D3016A00220B4631469847404615F0DBF9286880F815800DF0D0FB2D68D5F868
:204C1C00089040F60A01A446C81F421C4E4600E02646746834B12388994203D0984218BFC5
:204C3C009A42F5D100217160737B08F00F0423F00F031C437473DBF80C301B88984225D0DF
:204C5C009A4223D02C8E1CB3696305F13002518095F83C000B4603F00F0320F00F00034397
:204C7C0085F83C3095F83D0008F00F0420F00F0044EA000385F83D307260707B01F00F045F
:204C9C0020F00F0044EA0001717301E0CCF8001048461DF01DFA014640461BF0E3FD02E0C5
:204CBC0000981DF073FE27F480679FE010F0D4FA5846006808B927F0020797E0574A1168FB
:204CDC0041F08001116020B1042019F013FF002028701DF0E6FC8146606D00680146042077
:204CFC008847D8B1307DC8B14D480568B5B120683469006B8047401B30613069000B30613A
:204D1C003069A04203D2001940083061306940F6C41181422CBFB0F5967F316148461DF0FC
:204D3C0035FE19F035FF88B1F0696FF4807100224FF0007304463046A04741460868002867
:204D5C0008BF47F0020701D015F05EF9B06900214FF0806304460A463046A04727F0005742
:204D7C0044E0C04689590020045A002078590020205700208C010010285700201DF091FC0F
:204D9C00414618310E686EB306F1280191E80C004FF0E0450A241D4004EA020108BF00291B
:204DBC0020D106F1280191E8300006F1280393E8060006F12803AA43A14383E806001DF009
:204DDC00E5FDB16881B1002D08BF002C0CD03069B6F93C10B2682B4616462246B04703E0D1
:204DFC00B45600201DF0D2FD27F480471FB1094839461DF074FCBDE8F88FC046885900205F
:204E1C00BA490200A908010080590020DC570020152B010018550020F10D0200CC21084070
:204E3C007C5900202DE9F04FADF1840D1B9100241C9206468DF84240D6F828C08DF843404E
:204E5C00317F8DF84D40B28DADF844400F46ADF85A20F2898DF854706046ADF84A200278A5
:204E7C0002F00303022B8DF8402000F3C08123461D93401C1F9353083CD202F00C0EBEF18D
:204E9C000C0F0CD053093CBF10F8013B8DF84230BEF1080F04BF01238DF84C3001D08DF869
:204EBC004C40BEF10C0F0AD0737903F00303012B0CD142F00C0273898DF8402004E04578F6
:204EDC000378801C03EB0523ADF84430530911D245780378801C03EB0523ADF846300378B1
:204EFC004578801C03EB0523ADF8483010F8013B8DF8433010F8013B32F07F058DF85530DA
:204F1C001ED0037833F003058DF8413040F06B8103F0030EBEF1030F00F0658113F0030F1F
:204F3C0000F101000ED010F8013B02F00305022D8DF8573004BF10F8013B8DF8583001E017
:204F5C008DF841401490A0EB0C003F1AFFB2B942C0F24981C91B8DF85470C8B28DF84D00FA
:204F7C00074300F04481D00907D3708918F08AFA002840F03C819DF8402002F00C0021466F
:204F9C00001F08BF01211E91910933D301211F9180B3B2891DF0D8F9904202D1F08D000A54
:204FBC000ED21DF0D1F9904222D0F08D01460B0A38BF101C07D39DF8402002F0030C2EE080
:204FDC007089ADF85A2080461DF0BEF9BDF85A10884205D0404616F0D9F8002800F0078158
:204FFC008448026810A940469047002840F0FF809DF84020F08D02F0030C01460B0A0ED2C3
:20501C00D3090CD39DF8413013F0030F07D102F00C030C2B03D0082B1CBF01231D93DFF802
:20503C00DC81BCF1020F00F0BF80BCF1010F00F08D8012F0030F40F0DA806F4A92F8272028
:20505C00012A03D1B779002F00F0D1809DF8542002231A92040A9DF84250BDF846B0BDF826
:20507C0048A09DF855E09DF857C0DDF850908DF86430B2899DF84370ADF85C2034D21E9F81
:20509C0040461630046897B91D9F1FB1104610A910F060FC1F9800901C9F0197B07C1B9AFA
:2050BC000290F37C17A910A80EF074F99FE0307C002C8DF8560000F09A801DF045F9BDF8B4
:2050DC005C20904240F0938030791F9F00901C9D01971B9A02951D9B039196F8300010A9CC
:2050FC00049017A8A04782E0ADF830008DF820308DF8227034798DF833407189ADF81810CB
:20511C008DF835E08DF82350ADF826B0ADF828A0CDF82C90307C8DF836C0B27C8DF832006C
:20513C0096F830308DF83420334C8DF83730B4F8401096F83270ADF824101A998DF838703C
:20515C0006A8ADF82A1004F0C5F950E01D9FB58937B1000A04D2284610A910F0FBFBB589A7
:20517C009DF85400B6791030C0B21BF029FD071C3DD07D81022038703E737C709DF854207A
:20519C003A7207F110057D609DF84000800928BF01247C72149978680FF028FF4046007854
:2051BC00394616F09DFE22E09DF8417040461E30B189036817F0030F10D110A80790104851
:2051DC00ADF8181006A91AF0A9F980B1062141730068407B214617F08DFC08E03BB110A8D9
:2051FC002246984703E08DF84D408DF8544021B0BDE8F08F8C440020003D00204242002058
:20521C00E1BC01002DE9F04FCC4CD74DDFF85C83C80BADF1140DC003019140F0C1810846E6
:20523C00400838BF0020C0F0C68167681DF0AAFB4FF6FF7281B267B13B887888CB1A9BB285
:20525C00984210DDC01A8242C8BF82B2FF68002FF2D14FF6FF70904200F08E80207801217B
:20527C001DF0E6F988E0B879022878D01DF08AFB97F83810388005F10A000078884267DD74
:20529C0097F83600FF2808D197F83800401C87F8380097F8370087F8360097F8356097F825
:2052BC0039300020012101E0401CC0B2834210DD97F836C001FA00F28CF0FF0C12EA0C0FB6
:2052DC00F2D03618814097F83600F6B2014387F8361097F83400B98F10FB06F2891A89B27F
:2052FC008842C7BFFF2087F83600011C97F8360095F82020FF2818BF97F83A0006D140469B
:20531C000078642510FB02F212FB05F0788046B9388D3E7A40F020003885386C87F82E603D
:20533C000BE03A8D4FF6DF70104038853D6C87F82E6097F8342012FB06507862F879CEB237
:20535C0087F82D0007F110007E8404F0C3F80FE0B87E97F82A10E9221AF08DFA05E0387CA9
:20537C00FF2802D0B8691BF005FD384619F0AEFE2078012115F09CF9019880F0010019E15F
:20539C002878012840F0098195F8338095F813A06F6995F83100698802221AF0B1FA05F198
:2053BC001C0405F1020B06460020002E02907DD1687F400878D3A87FCDF80CA01CF0D8FE40
:2053DC00BA4605F11009071C63D01C2010F004FD061C5CD000211C2212F0DEF9A87F6946B3
:2053FC001CF044F89DF8010002213075304619F0B1FA6888317DB08095F83100FF23F071B2
:20541C0003FA01F0707478680078307495F83000B07495F8331011FB00F0303080B21BF058
:20543C00CFFB0746B76127B9304619F04FFE00262DE01A20387000237B701A467A80E08890
:20545C005946B880B81D1BF055FDE078474BF87303F1200000883882608BB8856089788271
:20547C00A0783875207B787599F80000B87599F80100F87599F902003876039A7A76C7F878
:20549C001CA007F13001B962A07D87F82400304600E00020002806467FD0284886F8088081
:2054BC000078012115F004F9002E76D0307AA8EB0000B0F1FF3F04BF01200290307CFF285B
:2054DC0056D06078400828BF4FF00008317DF07C4018404503DCF074FF2088407074B0691E
:2054FC00B17C227D806A08FB010021690FF07EFD029F317D727C012398FBF1F04843A8EBDF
:20551C00000003FA00F11143C9B27174C7B1401CFF2202FA00F001437174B769B17C207DD9
:20553C0008FB0100F884707CFF2809D1307CB16916F0D6FCFF2030741AE0C04634460020E7
:20555C001DF020FA3080094F0748074B90F82010387810FB01F1987A6422401C10FB01F00A
:20557C0010FB02F0708003E0F83E0020203D0020F17C327DA8EB0100801AB0F1FF3F04D06F
:20559C00707CFF2801D0029F3FB1E175707C2076BBF80000214610F0DDF928461BF0EAFB54
:2055BC000648007815F056F8051C7FF4E9AE019880F4004080B205B0BDE8F08F3446002099
:2055DC002DE9F84FA148A34A0178A14811704FF0010B4170A149A04CA1F802B05C30E061AF
:2055FC00486008F097FD00264FF00A0A9D4DDFF87092A0684FF0FF311DF0C0F90028F8D0F2
:20561C00207815F027F85FEA000800F038810146AB690A782078923A00F09C80921E79D072
:20563C00921E00F094802F3A24D0521E0DD0521E05D0D21E00F08380521E7CD08DE0E8783F
:20565C00FF28BCBF401CE87087E01F884FB9EF7ABF1F012F03D9FF1E18BF311C02D15946BC
:20567C0000E00321584611F0E1FE6779002F6ED0667172E00B79CF1C9B1E0DD0DB1E15D132
:20569C00C8780D2812D0206942F210711CF05BFF9C481DF02AF809E03B783BB9B97841F0EE
:2056BC0002018DF8001069461CF066FF2E7178780FF24C2C00B3401E13D0401E09D0401E85
:2056DC0018D0801E1AD138780D2814BFA0A0604613E0A0A0E8623B7883B92B6B73B99EA033
:2056FC0006E09FA0E8623B7843B92B6B33B99DA0286303E09DA000E09DA0E86238780128C6
:20571C0025D0092823D00A2821D0BF780FB96046E8621CE01F88C878E872C7B9CF78BF1F60
:20573C00012F03D9FF1E18BF311C00D15946584611F07CFE0BE0CD213246032304E08DF897
:20575C000060C1216A46082313F0C4FD05E0FCF767F802E0081D0EF092FC474638787128AC
:20577C0021DC71284BD065280FDC65285ED0801F7AD042387DD0183865D0401E60D0401E08
:20579C00012876D9801E54D076E066384BD0801E45D0801E03286CD9001F3CD0401E36D054
:2057BC00401E30D068E091280FDC912861D0723802285ED9C01E1ED0401E18D0401E58D0F6
:2057DC00C01E56D0801E54D056E092380BD0C01E01284ED9303806284BD91B3849D0801E1A
:2057FC00012846D948E0FB6A002B42D03EE0BB68002B3ED03AE07B69002B3AD036E0FB6855
:20581C00002B36D032E0FB68002B32D02EE0FB68002B2ED02AE0FB68002B2AD026E0FB6804
:20583C00002B26D022E0FB681BB31FE0FB6803B31CE0786908B119F043F9FB69CBB115E030
:20585C007B69B3B112E07B699BB10FE090270020201B0020F05A0020AC3600206438002079
:20587C00F83E0020683B0020BB6813B1184619F027F940461BF07EFA38461BF07BFAE06836
:20589C00C10B13D3617808290CD199F80010012918BF022906D120788DF800A069461CF037
:2058BC006BFEE068667020F48040E060410905D3FBF7B6FFE06820F01000E060C10930D3F3
:2058DC00287861280CDC61281ED041381CD0C01E14D0401E10D00E380CD0001F08D016E0B0
:2058FC0064380BD0401E07D00E3803D0001F0ED158460AE0042008E0102006E0022004E019
:20591C002D2D00C004370020082013F0A7FF194968692E705A461CF01BFEE06820F04000F7
:20593C00E060810806D3E670FBF77AFFE06820F00200E060C008FFF45CAE2078C421324694
:20595C006B4613F0FBFCE06820F00400E06050E6504C00C04E4600C0464F524D00C046C004
:20597C004E5300C04A4F494E00C046C0464200C0494E00C0693B00202DE9FE430E46C24A9A
:20599C00DFF808831178401E072800F29C81DFE810F07F015C01F600DF00BF007D00460069
:2059BC000800052044468DF8010094F83B005EB3E07F20770027E7774FF47A7019F0CCFF3A
:2059DC000D2694F83B0084F83A6000F0DF0084F83B0004201BF00CFF217F384606290BD1B2
:2059FC00216949B10A7BD30903D302F0BF0201200A7349690029F5D1002800F064814FF49E
:205A1C0080414FF47A725BE140F02000022784F83B00002084F83A7019F09EFF53E10025C9
:205A3C00012E8DF8015014D01CF00CFD60B1052044468DF8010004F13B01087840F0200005
:205A5C0008700A201BF0D4FE4446022084F83A0017E04FF47A7019F07FFF64201CF086FC8C
:205A7C001CF07EFC04201BF0C3FE11F05BFD44460D200421C82284F83A00607825771CF03F
:205A9C00D7FD94F83B0000F0EF005EE0032044468DF8010094F83A0008B90120A0712078AE
:205ABC00002840F03381627820691CF094F8002840F02C8110464FF4804117F063FD0028D5
:205ADC0040F0248100256561A5611AF0A5F860784FF4804115F0AEFCA07928B194F83A00FA
:205AFC000B2808BF84F83A50A571217F6078062904D0E07F062808BFE57704E025770421A4
:205B1C0032221CF095FD94F83B0000F0F7001CE00220012E8DF8010005D044460820002649
:205B3C0084F83A0007E0002644460321304684F83A6018F051FE60782677042132221CF0FB
:205B5C0077FD94F83B0000F0FB0084F83B00BAE001208DF801002EB16D49002008700620B8
:205B7C001BF046FE4446002020776078042132221CF05EFD94F83B0000F0FD00E5E7012917
:205B9C0018BF022940F09F8045466878042132221CF04EFD286A012E49D000264FF47A7030
:205BBC008DF8046019F0D8FE0127022085F83A0095F83B408DF8017001A92E7704F0FD00C2
:205BDC0085F83B00522018F0A3F91CF01EFA18F081F9504C606820B1606818F071FF26801A
:205BFC006660DFF83491D9F800407CB120686768006A18F065FF206818F062FF606918F0FA
:205C1C005FFF204618F05CFF3C1CEFD1484606601BF010FA4148007815F0DEFC30461BF0BF
:205C3C00E7FD286A00284ED019F068F8F9E70121297720B119F062F8286A0028FAD14FF485
:205C5C007A7019F089FEBDE8FE8300201CF012F9042701208DF80170107446B100204446EA
:205C7C0084F83A0084F83B0006201BF0C1FD4446002020776078394632221CF0D9FC94F853
:205C9C003B0000F0FE0060E7F83E002080410020012918BF022916D1012E23D00120444661
:205CBC0007278DF801004FF48051607884F83A7015F0C0FB0020022141F2883284F83B005B
:205CDC0060781CF0B5FC4446606AF8B194F83A00002103226B468DF800000A2017F0FEF9AC
:205CFC00BDE8FE830020032118F076FD444604213222607821771CF09BFC4FF47A7019F057
:205D1C002BFE60784FF4805115F094FBBDE8FE83BA410020844600208C460020003D002044
:205D3C002DE9F0410D466868ADF1180D002800F09D81002669686E70CB4C087860B14878A7
:205D5C0000280CBF301C01202246234601210C32187363201CF062F96A68977867B1D078E0
:205D7C00234600280CBF301C01200121DA1CD87064201CF053F96A6817796FB1507923464E
:205D9C0000280CBF301C0120012103F10D0258736D201CF043F96A6897794FB1906823467F
:205DBC00383304211A46186035201CF037F96A68177B4FB1D08923462A3302211A46188030
:205DDC0025201CF02BF96A68177C4FB1508A23462C3302211A46188026201CF01FF96A68D4
:205DFC00177D4FB1D08A23462E3302211A46188044201CF013F96A68177E4FB1508B23468D
:205E1C00303302211A46188046201CF007F96A68177F4FB1D08B2346283302211A461880D4
:205E3C0083201CF0FBF86A6892F8207057B192F8210023465B1C01211A46187029201CF0C6
:205E5C00EDF86A6892F8227057B192F8230023469B1C01211A4618702B201CF0DFF86A6874
:205E7C0092F8247057B192F8250023460A3301211A46187043201CF0D1F86A6892F8267057
:205E9C0057B192F8270023465B1D01211A4618702E201CF0C3F86A6892F8287057B192F8A7
:205EBC00290023469B1D01211A4618702F201CF0B5F86A6892F82A7057B192F82B0023464E
:205EDC00DB1D01211A46187030201CF0A7F86A6892F82C7057B192F82D0023461B1D01212F
:205EFC001A4618702C201CF099F86A6892F82E70AFB192F82F30102B8DF8003003DD102072
:205F1C008DF800000346116B0DF101001A460FF06DF8812011216A461CF080F86A6892F8F5
:205F3C0034704FB192F835101029C8BF1021926B62201CF073F86A6892F83C704FB1106C67
:205F5C002346443304211A46186084201CF066F86A6892F8447057B192F8450023460B33AC
:205F7C0001211A4618704B201CF058F86A6892F846706FB102F147000168406823464C33CF
:205F9C001A4650601160472008211CF047F86A6892F84F702FB15032012008211CF03EF880
:205FBC006A6892F858704FB192F859000DF111018DF81100522017F0ABFF6A6892F85E70CB
:205FDC00DFF8B4804FB192F85F00434601214246187033201CF022F86A6892F85C7037B36B
:205FFC0092F85D0004F1080701213A46387032201CF014F83220314601223B461BF044FF2B
:20601C0004F109033320314601221BF03DFF1B48217A0078012904D04FF4006115F00AFA0E
:20603C0004E04FF4006164221CF002FB6A6892F8607047B192F8610011496A68114F08701A
:20605C0092F86100387092F8627027B1506E6A6843463333186092F868704FB1D06E43463D
:20607C003733186004E0C046F83E00200220687006B00120BDE8F081013F0020003D00203E
:20609C0075460020843D00202DE9F04FC84D014695F83B0021F03101ADF1340D00280B91C9
:2060BC0040F05E816878042117F06CFA002840F055810B99AF7895F83B0001F03F01012F21
:2060DC0040EA010085F83B00014600F034810120A8701BF099FB012807D1562019F062FE1D
:2060FC00011C02D0562017F02DFCAC4C00202071E06808B11BF0E4F9A94847680023A246B2
:20611C0080467FB10C24786800781AF0E3FF061C05D0327C1AB10020824200F314813F6876
:20613C00002FF0D118461AF091F9002859D1D8F80470002F55D0786800781AF0CBFF061C29
:20615C004CD0337C002B49D04FF0000844E074690C2018FB00F94C44E079C00838D37868F8
:20617C0000788DF814002088ADF81600A088ADF81800079A089B0699059817F023FBB0B99C
:20619C000DF1240B00210422584611F005FB74694FF6FF700090CDF804B00A23029302462C
:2061BC000392CDF810B034F809104C440AE002681189D388009102F10A0001900293039143
:2061DC00049021887868A288007811F03BFD337C08F101005FFA80F84345B8DC3F68002F3F
:2061FC00A9D19AF80200DAF80C20162410FB04F081B256201CF05CF90AF10C060A282BD0FA
:20621C00092825D01BF05CF9562019F0CBFDB0FBF4F0C7B238461AF019F901281CD0336843
:20623C0014FB07F082B2002156201BF02DFE8AF802700DE041680468CAF8141018F040FC1B
:20625C009AF81000401E8AF81000204618F038FCDAF814000028EDD105F0CAFA1BF030F935
:20627C0005F13E035520002101221E461BF00CFE307801285DD14B480078012818BF022865
:20629C003BD14948006800211BF0CFF9002834D11BF0E6FE88BB40F21110102101220AAB2E
:2062BC001BF0F2FD9DF82800FD2826D09DF82800022822D005A80021142211F06DFAFF2785
:2062DC0040F21110142105AA8DF824701BF0A6FE0024364885F83E40012104613246446162
:2062FC0055201BF09BFE0321384618F075FA68782C77042114F0DCF94CE00B9895F83B1028
:20631C00072400F02F002C77084340F0100085F83B0000200146FDF7C5F810B90DF04EFD08
:20633C0038E0002019F062FC00212046FFF724FB30E095F83B106878002904BF07242C7784
:20635C00F2D00024D4E7716910FB0411C979C90824BF5B1CDBB2401CC0B2DDE695F83B0033
:20637C00810917D295F83E7077B10B9989080BD31BF098F804200121FFF7FEFA0B9995F818
:20639C003B0081F002010B910B9901F03F01014385F83B100DB0BDE8F08FC04670520020EC
:2063BC007C460020F83E002048420020B83F002080410020F0B50E467068ADF1140D00282F
:2063DC0000F08381B068002800F07F810025C14C7268757004F10C00177803783FB1B06879
:2063FC0001210170284603B10846B16848707068E378477847B1B06801218170284603B176
:20641C000846B168C87070688778637B47B1B06801210171284603B10846B168487170684E
:20643C00C778A16B2FB1B06801228271B068018170680779618D2FB1B06801228272B068E0
:20645C00818170684779A18D2FB1B06801228273B068018270688779E18D2FB1B06801224C
:20647C008274B06881827068C779218E2FB1B06801228275B06801837068077A218D2FB193
:20649C00B06801228276B06881837068477A61782FB1B06801228277B068C1777068877AE2
:2064BC00A1783FB1B068012280F82020B06880F821107068C77AA17A3FB1B068012280F82C
:2064DC002220B06880F823107068077B61793FB1B068012280F82420B06880F825107068E3
:2064FC00477BA1793FB1B068012280F82620B06880F827107068877BE1793FB1B068012295
:20651C0080F82820B06880F829107068C77B21793FB1B068012280F82A20B06880F82B106A
:20653C007068077C37B3B068012111226B4680F82C10294681201BF0A7FC9DF80000B168BC
:20655C0081F82D00B26892F82D1089B10FF044FCB1680863B268106B002808BF82F82D5020
:20657C0006D09DF800200DF101010EF03FFD00E015637068407C80B110200FF02DFCB168AC
:20659C008863B168886B40B1012081F834008B6B1022622029461BF077FC7068616C877CEA
:2065BC0037B1B068012280F83C20B06801647068C77CE17A3FB1B068012280F84420B068B6
:2065DC0080F845107068077D67B1B068012104F14C0780F84610B0683A684730026079689A
:2065FC0041607068477D67B1B068012180F84F101BF050FBB168026850310A604068486005
:20661C007068877D87B152200DF1110119F0CEFE9DF81170B068012180F8581007B9294694
:20663C00B06880F859107068C77D3FB1B068012180F85A10B06880F85B507068077E237AE8
:20665C0057B1B06801212A4680F85C1003B10A46B06880F85D207068477E617A3FB1B068F7
:20667C00012280F85E20B06880F85F107068877E5FB1B1680120184B81F860001F7807B134
:20669C000546B06880F861507068C77E4FB1B068012180F8621016F0C1F9B16881F863005C
:2066BC007068077F3FB1B068012180F86410B168E06B88667068407F48B1B068012180F8B6
:2066DC006C10B168206C086701E00220707005B00120F0BDF83E0020754600202DE9F04F22
:2066FC00A34CADF1340DDFF88C82DFF88CB2A0780591C90BCF035FD10598800805D3012014
:20671C00059FE07087F0020066E10598000938BF0020C0F0628158462A30A76A00780026B2
:20673C00B14600091BD21CF02DF945468446AB8EE06A95F82220ACEB00018B4238D8B1FB56
:20675C00F3F080B28242ACBFC5B2151CB1FBF3F25A43891A88B2ACEB0000E06200E0012547
:20677C00EFB1C846F878A8420ADD401BC0B2F87040B109F101061FFA86F93E467F680CE0F8
:20679C0087F803807868002E82460CBFC4F828A07060384618F094F95746002FE2D1A0783C
:2067BC00B9F1000F04D10021E162082114F042FE059880F008000FE113F04CFF071C00F0F8
:2067DC000881B87FC0B9788CA56A132815D1B7F80290281C11D000260188894508D14568C7
:2067FC00002E0CBFA562756018F06AF9284601E0064640680028EFD1A56AB87A97F8311001
:20681C002E4602284BD1788866B1DFF8D4C13288904204D1B2789CF8003091423DD0766812
:20683C00002EF4D181468A464646002D08BF002003D001200DB16B685BBBF18E81422EDD2A
:20685C0008200FF0C9FA96F8221040B3A0F8009080F802A0C17000234360A36A43B9A0623B
:20687C009BF82A00000909D21CF08CF8E06200E06860584690F82A00000910D3A078082164
:20689C0016F080FE58B9A078B28E08211BF0CDFE05E0401C1D4680B2CCE7F37096E05148F5
:2068BC0005683878012806D0022840F08F80384612F012FE8AE007F11004B81CBE8908947A
:2068DC003B7E0690FA7C07967969099397F819B00A923C7F0B9107F11C0604F00C000C2823
:2068FC000DD0B87F4FF0FE09FF2804D01BF040FC041C10D16AE0002D68D06C680FE0B08835
:20691C00FE2117F055FD8146B9F1FE0F5ED01BF02FFC041C5AD020781AF0B6FD05464FF6D2
