:20000000003A0120959A010039FB021039FB021039FB021039FB021039FB021039FB0210B1
:1C00200039FB021039FB021039FB021039FB021039FB021039FB021011FB021002
:20003C002DE9F04FB34FB81CADF1440D00780B91C90BC9031BD10B98C00B38BF0020C1F0B4
:20005C001B82AB4C04F10800006858B10746FD68384621F005F938461DF0C4FA2F1CF6D1E8
:20007C000020A0600B9880F4804001F004BA19F0F1F800280C9001F0FB810178FA7800248C
:20009C000846D22810DCD22801F0E5811A3801F07A811738052841F2DE819F3801F0DB814F
:2000BC00401E01F060810CE0D33801F0D181401E022841F2D081293801F03A81401E01F052
:2000DC0013810C9DBB4E01223B29DFF8EC9295F8028096F83E000D9224DC3B2901F0EE80A5
:2000FC00072910DC072901F08A80002901F0AE80891E01F09880491E01F0EF80491E01F086
:20011C00E88001F0BDB8083901F03B80491E01F03380AA48C91F1C2924D92A3900F0D58237
:20013C0001F0AEB8A7290FDCA0293ADA3C3901F0C180491F00F09E82891E00F08982891E4C
:20015C0000F0678201F09CB8A839012941F29880891E1A2930D9233901F08880491E48D048
:20017C0001F08EB8DFE811F00008C307A8078C082D068C088C088C081E0611068C08EE059E
:20019C00BD058C08B108AE08F404C904EE038C08D403BB03B103A50393038C087F0378031C
:2001BC001403A039DFE811F082087E087A082F02760872086E082A02DFE811F0E201B001B2
:2001DC008C0179016F0160015701500149015D08420128010201C1009E008D0062086208A4
:2001FC008200620862086208540038006208620824006868002800F05C81686800681DF095
:20021C00F5FA41E3AF68002F00F053816C7058B1307F082808D12046014602F033FF00280F
:20023C0008BF201C00F035810D9832E16F68002F00F03F812046687069680F7857B986F867
:20025C004200707F401E70770D9801461DF006FE01F047B820F060FD0D98014604F0A6FF2D
:20027C0001F03FB86868002800F02381067847682146082204A816F069F9002F00F08785F1
:20029C00BE480470C6B1761E10D0761E0CD0761E04D0761E40F07B850D990170384604A9FF
:2002BC0014F0B5F800F0ACBD0D990170384604A91BF046FD00F0A4BD1AF0F6FB00F0A0BDEF
:2002DC006868002800F0F580686800F112011BF037FD00F010BC6868002800F0EA806C70A8
:2002FC00686817F081F8A968088000F0FABFC04654460020A0460020AF68002F00F0D980FB
:20031C0020466870AC6871783578671C002D08BF20700FD0084640211BF002FF4FF47A710A
:20033C000F2300F2E730B0FBF1F115FB03100F3820703578002F00F0D4872846AAE096F832
:20035C0042700A97318F96F83B2096F83A3096F83CC0D6F834E096F83D8096F83F9096F8EB
:20037C0040A096F841B0AF68002F00F0A2806C70AC682181A968CA72A9688B72A96881F833
:20039C000CC0A9688873A868C0F804E0A86880F80D80306BA9680860A86880F80F90A8685D
:2003BC0080F810A0A8680A9F80F811B0A9688F7400F097BFB0410020303D00208C3F002024
:2003DC006F68002F75D06C706868077D17B1C07C86F841006868877D17B1417D86F8421099
:2003FC00077C17B1C08930876868077B17B1806870636868877C1FB1407C86F83D006868D7
:20041C0007790FB10068306300F06BBF6C7078B196F83B0080090BD204A82146082216F0F4
:20043C0095F820F05EFA04A81BF01AFE00F059BF20F057FA4FF4FA701FF0C4F900F051BFFA
:20045C00A868002835D06C7020F006FB21E0CE48AF680078002F2CD06C701AE0686840B3EC
:20047C00686800781AF076FC45E36F680FB36C70686800780BF002FE00F033BFA868C0B159
:20049C006C701BF06DF8002808BF0D9C00F0B3800078AF68387000F024BF686848B16C708A
:2004BC0069680888897819F01BFE00F01ABF6F680FB902249FE06868B44A036802F10C0156
:2004DC000B6040684860686801895180807A107000F0A7BE6868002800F059840188ADF858
:2004FC0020104088ADF8220008A953201CF09EFA50200DF122011CF099FAE12009A91EF068
:20051C005DFC68689DF824100079884273D08DF8240009A9E1201CF089FA6CE06868002818
:20053C0000F0358400781CF0F5FF4E46686896F834104078884213D086F834000DF125010D
:20055C00E1201EF03BFC68689DF825104078884206D08DF825000DF12501E1201CF066FA0C
:20057C0068680D9F407807FA00F070641FF0EAFBA6F88C4038461DF031FD3CE0E83F0020EC
:20059C006F68002F00F003847B884E467386387886F842007A6886F8342072643989F186FF
:2005BC007889A6F84000387B86F85400787B86F82100B87BF0773B69F364786996F88E2077
:2005DC003065387E904201D01CF0A4FF696806F15500193120F0E2F896F8420006F11C0727
:2005FC00082808D1212074213A4620F083F9204602211CF09DFE204600F002BC6F68002FAA
:20061C0000F0C58303E06F68002F00F0C0831220F6E36868002800F0BA830A30077807B1C9
:20063C00144647780FB144F0020487780FB144F00404C7780FB144F00804007908B144F0EB
:20065C004004696808882246891C1CF05DFC52E26868002800F09B8302208DF8180068689E
:20067C000088ADF8100068688178C27804A819F07FF940E26868002800F0898302208DF834
:20069C001800686801884FF6FF70884205D0821E8A4202D0C01E88420BD120F0B9FAADF850
:2006BC0010006868C27A837A811C04A81BF0E2FA687068680088ADF810006868C27A837AE7
:2006DC00811C04A81BF0D6FA15E26F68002F00F05E8302238DF818306968001D098804682F
:2006FC00ADF810106A680F2092F804C0B2F80680167AD2F80CB0177CD2F814A05188CDF8D5
:20071C0028C0F21900EB42005FFA80F9B9F14E0F00F3718120F07CFA884233D121700812E0
:20073C0060701FF023FFA41C0146204620F036F804460A98207084F801804FEA2823A370E1
:20075C00E670241D66B15846A41E017804F8021F30F8021B761E4FEA21216170F5D1A41C2E
:20077C0027705FB1641E5046017804F8021F30F8021B7F1E4FEA21216170F5D1CE482022BC
:20079C004B4664E018463BE304440020204100206F68002F00F0FB8202218DF818106968EF
:2007BC000988ADF81010696842684B888C888E79D1F808800F7BD1F810904FF0060EF119BD
:2007DC000EEB41015FFA81FCBCF14E0F43DC82469DF818000F2818BF022808D1BDF8100078
:2007FC004FF6FF71814204BF891EADF810104FF6FF71994208BF8B1E02F8013B191202F8DB
:20081C00011B02F8014B201202F8010B02F8016B66B14046921E017802F8021F30F8021B96
:20083C00761E4FEA21215170F5D1921C17705FB1521E4846017802F8021F30F8021B7F1E4D
:20085C004FEA21215170F5D150467246634604A918F070FED4E2CEE06A68002A00F09782F7
:20087C000220052219E06868002800F0908202208DF8180068680088ADF8100068684188BB
:20089C00027904A81EF0AEFF044600F0CABC6868002800F07C82022002468DF818006868DD
:2008BC000088ADF810006868418804A81FF058FA21E16868002800F06A826A6810889178F0
:2008DC00D2781CF079FF044695E66868002800F05E826868017A427A18F086FA0BE1686856
:2008FC00002800F0548240788DF81000686880788DF81100686800781FF04EFA002808BFB5
:20091C000220E0D004A909880C3001802046DAE76968002900F03B82A868002800F037823F
:20093C00087804A91FF02AFA6868A968007808709DF81000A96848709DF81100A96888704D
:20095C0000F06FBC6B68002B00F02182187D1FF04DFA002800F01B82187E19331F788DF831
:20097C002600002F0CBF201C02205F780FB140F010009F780FB140F00800DF780FB140F0B0
:20099C0020001F790FB140F040005F790FB140F0800083466868007D20F056F8061C00F085
:2009BC00F6816868807A8DF8190068688089ADF81A006868007802288DF818000DD001288F
:2009DC000BD00F2809D003280BD16968891C0A6804A802604968416003E068684088ADF8A1
:2009FC0010006868877B002F76D0780014F056F95FEA000801D1102002E221466868877B49
:200A1C008F4262DCC18A038C426A0A960C2F0E9190F81FA00F93BDF8109010924EDA484615
:200A3C0018F0FEFC0C2816D14FF6FE7018F0F8FC0C2810D1DFF804C30D999CF82C3120461E
:200A5C000CF59A7C1CF8082B9342C4BF131C081C491C0C29F6DBBA4E4FF6FE7306EBC00691
:200A7C007068738010B11CF0BDFD74606FB17C00204614F013F97060002808BF10201ED045
:200A9C0070684146224613F05DFAA6F80290C448777000783070109C00940DF126030193E3
:200ABC000E9ACDF808B00F9BCDF80CA00A9904A808F07EFD03E0C0468C3F0020022068704A
:200ADC0040461CF08FFD00F00CBC00694A00105A491C28F8020091E7416A00910DF12607A1
:200AFC000197CDF808B0C17F0391C28A038C314604A808F05DFD6870F3E36868002800F00B
:200B1C00468100781FF072F9061C00F04081307B1AF0FAF80028687040F0E3837B68354692
:200B3C00002B00F0DE831E46204616B9B54202D0D7E3B54209D1AB4219BF296801602868E9
:200B5C007860284620F0AAF9CBE330463668ECE76868002800F01B8100781FF047F9002878
:200B7C0040F0BD801FF0E0FA042800F34881264640466E701FF02CF9041C01D0237B73B164
:200B9C001C2014F08BF8041C00F0AB8331461C2215F0DCFC84F80480DDF8348000E0B04647
:200BBC006868007820736868007ABF1C20761420276114F073F80028606141D031461422B1
:200BDC0015F0C4FC6968626949689079897900F0F00001F00F010143917168684068616973
:200BFC00808888806868406861690078087068684068616940884880686840686169C0794A
:200C1C00C871686840686169007B08736069C079400014F043F8616988606769BB681BB155
:200C3C003046F979814250DC387B400014F036F8386161690F691FB130460A7B82423ADC1C
:200C5C0004F10C00814610F01FFF0746022F18BFB82F06D1207B1AF057F8484610F014FFEA
:200C7C0007463FB9B8F1010F20D120461CF0A0F9C8B11BE0B8F1010F15D0606968B183687F
:200C9C001BB118461CF0AEFC606903691BB118461CF0A8FC60691CF0A5FC4846314610229C
:200CBC0015F054FC02E0204620F0F8F8022F16D0B82F14D015E36B685B6842001B690969D3
:200CDC00D35A53526169401CB7E76A68526841009268BB688A5ACA526769401CA1E7D020D4
:200CFC008EE06868002852D0A86800284FD02146082215F02BFC6968087849881DF07CFC95
:200D1C00071C19D020466870A96838880880B878A9688870AC68A078002800F0E28213F030
:200D3C00BDFF6060AA685068002800F0DA829278F91C13F007F9D4E2B12061E07C2E002029
:200D5C00A82F0020686810B3A86800B320465C4A68706968176809783FB13A79914204BF3C
:200D7C00401CC0B23F68002FF7D1A9680870A8680078400013F092FFA96848606868A9686C
:200D9C00007849681EF02EF8ABE26F680FB9022036E020466870686800781BF065FEA0E200
:200DBC00403F0020022068706968002900F09982087849881BF076FE002800F09282204617
:200DDC0062E56868002800F0E081264640466E701EF0FEFF041C15D11C2013F05FFF041CC9
:200DFC0000F07F8231461C2215F0B0FB84F8048020461CF0DDF828B920461CF0F3FBD12008
:200E1C000446DCE7686807785FB1407820B9E1884FF6FE70084002E0E08840F00100E0807A
:200E3C00686887785FB1C07820B9E1884FF6FD70084002E0E08840F00200E0806868077917
:200E5C005FB1407920B9E1884FF6FB70084002E0E08840F00400E080686887795FB1C0797C
:200E7C0020B9E1884FF6F770084002E0E08840F00800E0806868077A5FB1407A20B9E188E1
:200E9C004FF6EF70084002E0E08840F01000E0806868877A5FB1C07A20B9E1884FF6DF706F
:200EBC00084002E0E08840F02000E0806868077B6FB1407B30B9E1884FF6BF70084004E0B5
:200EDC0064470020E08840F04000E0806868877B57B1C07B002807BFA06820F00100A068CF
:200EFC0040F00100A0606868077C57B1407C002807BFA06820F00200A06840F00200A0604C
:200F1C006868877C57B1C07C002807BFA06820F00400A06840F00400A0606868877D57B17C
:200F3C00C07D002807BFA06820F01000A06840F01000A0606868077E57B1407E002807BFF1
:200F5C00A06820F02000A06840F02000A0606868877E57B1C07E002807BFA06820F0400084
:200F7C00A06840F04000A060686890F822705FB190F82300002807BFA06820F48060A06846
:200F9C0040F48060A060686890F826705FB190F82700002807BFA06820F40050A06840F4DE
:200FBC000050A060686890F828705FB190F82900002807BFA06820F48040A06840F480404E
:200FDC00A060686890F82A705FB190F82B00002807BFA06820F40040A06840F40040A0607A
:200FFC00686890F834705FB190F83500002807BFA06820F48010A06840F48010A0606868D6
:20101C0090F838705FB190F83900002807BFA06820F48000A06840F48000A060686890F815
:20103C003C705FB190F83D00002807BFA06820F08070A06840F08070A060686890F83E70EF
:20105C005FB190F83F00002807BFA06820F00070A06840F00070A060686890F840705FB167
:20107C0090F84100002807BFA06820F08060A06840F08060A060686890F842705FB190F8EB
:20109C004300002807BFA06820F00060A06840F00060A060686890F84470002F00F0218126
:2010BC0090F84500002807BFA06820F08050A06840F08050A06014E16868002865D0696876
:2010DC00091D0A6804A802604968416003201EF0EFFF6868C07B1CF055FB6868817B009119
:2010FC0002788389418804A810F062FA03E5686800284AD040461EF06BFE061C15D11C2042
:20111C0013F0CCFD061C00F0EC8021461C2215F01DFA86F8048030461BF04AFF28B9304685
:20113C001CF060FAD120FFF7AFBBF088CD4940F00800F08040F00400F08002201FF0D4FD00
:20115C00CF4903201FF0D0FD686800680490686800798DF814000D9F8DF815708DF81670ED
:20117C0004A817F0C1FCC6E4686870B168680088214601F087FFB4E0686830B1C220FFF7F5
:20119C0083BBC0486F68067817B90220FFF77CBB214669706868242215F0D8F94C466968EA
:2011BC00608E08806868B4F84070867269688F81E08E696804F11C0707F13903C8826868F3
:2011DC001A680E300260596841601FF0CFF96968891C026840680A6007F11C034860686817
:2011FC005E681830466019680160686894F834100D9A80F82310696881F8222071E068689E
:20121C00002831D090F900609F4800680DF12701D0F830248DF82760E0209047A86800B16B
:20123C000670204667E46868F0B120466870696817460F70686802264670686886706868CB
:20125C000624C470696803230B714AE0686858B1407818B1FF2003211CF06AF81FF0F0FC71
:20127C000D988A490860FEE7022044E42046687012F0A4FA35E0204668701DF0D3F930E029
:20129C00122038E4294616F055FE29E029460DF057FC25E0294611F09DFD21E029461FF0C6
:2012BC00EBFB1DE0294619F08AFB19E0294619F066F815E0294616F076F911E0294612F028
:2012DC0053FD0DE01EF00CFF9AE5294618F058FC06E0294604F0F6FA02E0294604F0A6FC32
:2012FC000D900D980446B6E00C9D16201EF010F9071C00F0B0802146162215F027F9932000
:20131C00387026467E7068783871A87838742879012814BF02200120B871E8883881E878C8
:20133C003875A8781EF062FD002800F088808AE006201EF0EDF8071C00F08D802146062205
:20135C0015F004F92646912038700C9D7E70A97839716978F970E9787971A8781EF046FD42
:20137C0000286CD06FE00C984078904273D0484BF870FA1C21464FF000701CF0A7FE787865
:20139C004449087067E00C9D30201EF0C1F8071C61D02146302215F0D9F892203870204682
:2013BC007870A97B032939711CBFE988F98005D1AA1D1368B91D0B6052684A60E97BB9731D
:2013DC00298A398269887982A988B982698AF982297D39766E7D214606B101217976687E68
:2013FC00214600B10121B976A87DF876E87D387795F918007877E869386295F8200087F815
:20141C002400A88DF88495F8240087F8280095F82E0087F8290095F8260087F82A00E88C50
:20143C0013F03CFCF862B0B1A96AEA8C12F08AFD287D1EF0DBFC30B9F86A1CF0D3F838465E
:20145C001EF030F907E00079394619F09FFB02E00C9809F055F9012C06D00C981EF022F91A
:20147C0006E0C046F5BE01000C99887819F08EFB0B9880F4004080B211B0BDE8F08FC04605
:20149C001D080200503E0020140100207C052043E1EF0100B43D00202DE9F04FC34D2021BA
:2014BC00352205F1B004ADF1140D204615F04EF804F10109A04605F14C0605F1480005F13E
:2014DC00B10100F17B070160044605F1C30105F1D5002865686C31604FF4FA711FF091FC5F
:2014FC0005F18C001FF065FDA86A696B0346686A8936884200F00883AE7ABD4A03962E7969
:20151C00118D6F7A287A0296DFF8E8A2DFF8E892AE6B0FF2003E0FF2243CC6A2152B019644
:20153C00C1A600F26C83DFE813F0E302D502AD00D00238029B00AC01AA018D007F006F009A
:20155C009E0192015600F202690156013D0043011600F20223012068D0A10C2212F0F2FC6C
:20157C00381C15D0FF380CD06068D0A1102212F0E9FC6168384610220223093118F088FC4D
:20159C000EE0CFA160680A8802808978817007E0CCA160680A6802608F8887808E798671F7
:2015BC00CAA1B5E24FF6FF7088420DD02068CCA1102212F0C7FC8E482168008D1022042381
:2015DC00891D18F065FC04E020687146102212F0B9FCC8A19CE24FF6FF7088420DD020680A
:2015FC00BFA1102212F0AEFC81482168008D10220423891D18F04CFC04E02068714610220E
:20161C0012F0A0FCC0A183E2000904D2324660685168416004E06068918881809779877103
:20163C00BEA11268026073E2800804D2324660685168416004E06068918881809779877138
:20165C00BBA1EEE7C00804D2324660685168416004E060689188818097798771B9A1E0E716
:20167C000398012818BFBCA140F05282BFA120680A6802604F6847600E8906816668BEA1ED
:20169C000E22B9E20298EF7AD5F82C9000260128A7F107072AD02068BBA1102212F052FC82
:2016BC00494620680988B7F1FF3F018003D0022F18BF002F12D1286B38B1296B2068096809
:2016DC00C01C016020682023C37137F0020012D1E0A120688A880830828004E0DFA1206865
:2016FC004A68C01C42600968016004E02068DEA1102212F027FC6068E0A1102212F022FCEF
:20171C00A869616800880A220323891C18F0C0FB287B6B46B821324616F074FC61689DF818
:20173C0000000A2203230A3118F0B2FB6168E87802230E3118F0ACFBA8699DF80070018870
:20175C0057EA010003D1E86AE1A1814200D00126A068E1A1102212F0F5FB002E00F04F822C
:20177C00686CFA211FF04DFBE0481FF020FC46E2216805F1540010221CF006FA6168102280
:20179C0005F15C001CF000FA21680020087461680874A0681022DFA112F0D4FBA16805F1E1
:2017BC00640004221CF0F0F929E2C046983B0020216805F1540010221CF0E6F9616810229F
:2017DC0005F15C001CF0E0F921680020087461680874D5A19CE120686146102212F0B2FB49
:2017FC005046616800681DF00AFFD4A190E1C046283F0020E0410020E441002020686146C8
:20181C00102212F09FFB4846616800681DF0F7FECFA17DE1202020203078464646462028C7
:20183C00616E792900C046C044495341424C454400C046C0454E41424C45440031323334A2
:20185C0035363738393031323334353600C020686146102212F076FB5046616800681DF08C
:20187C00CEFEC0A154E120686146102212F06AFB4846616800681DF0C2FEBFA148E1C3A1A9
:20189C0046E12068C6A1102212F05CFB6068C9A1102212F057FBCCA13AE1C0464C617374B1
:2018BC00207374617475733A00C046C04552524F52202830782020292020202000C046C01F
:2018DC002D2D2D0053554343455353003C41504C5920494E535420434F44453E00C046C03D
:2018FC002020202030782020202020202020202000C046C0202020202050414E2049442052
:20191C002020202000C046C03C2020202050414E204944202020203E00C046C03C46494E80
:20193C00444E472B42494E444E47203E00C046C03C204E574B205354454552494E47203E86
:20195C0000C046C03C4E574B20464F524D4154494F4E203E00C046C03C2052455345542087
:20197C00544F20464E20203E00C046C0526573657474696E672C00C0506C6561736520771E
:20199C006169742E2E2E00C07878202020202020202020202020202000C0AE4A0020117892
:2019BC000B110A2BACBF37213021C9182368C15412F8011901F00F0301F00E010A29B4BF58
:2019DC0030213721C9182368401CC0B2C154401CC0B21028E3DB2068002101746068102217
:2019FC00A2A112F0AFFAC94E6168B6F8400010220423491C18F04CFA606820274771616873
:201A1C0096F8340002230A22C91D18F041FA606847726168708E042310220B3118F038FA57
:201A3C00A06897A112F08EFAE87A821F43D0521E02D0921E3AD02AE01EF07EFF00280CBF26
:201A5C0094A196A1A0680A6802608A88828089798171D4E0434C4F53454400C04E6F744F6C
:201A7C006E4E776B00C046C0506C6561736520776169742E2E2E202000C046C0496430301A
:201A9C003020537263683030302F303000C085A2A168136857680B60167A4F600A220E72AB
:201ABC000323A168491D18F0F3F9A8E080A1A06809880180A3E07FA1A0680A6802600979BD
:201ADC000171F08E04231022EBE77CA120E0C0462D2D00C07EA11BE03C2020434F4D4D4987
:201AFC005353494F4E20203E00C046C0243C002020680199102212F025FA606879A11022F1
:201B1C0012F020FA7CA103E02A6A002B65D152A1A66870E020202020202020494E53542009
:201B3C00434F444500C046C03C53455420494E53544C20434F44453E00C046C0205345439C
:201B5C00204348414E4C204D41534B2000C046C020505249204348414E4C204D41534B20B4
:201B7C0000C046C03C534543204348414E4C204D41534B3E00C046C03C5052492043484183
:201B9C004E4C204D41534B3E00C046C03C41444420494E53544C20434F44453E00C046C051
:201BBC0041204420746F206D6F7665202020202000C046C0572053206368616E676520763E
:201BDC00616C756500C046C04520746F20657865637574652020202000C0D8B22146904719
:201BFC0021684846102212F0ADF961683846102212F0A8F9A1681022304612F0A3F969798B
:201C1C00EF79FF2910D0686C27B954F82120A9792023535487F001074FF4FA71EF711FF04F
:201C3C00F0F83B481FF0C3F90A2788F8117088F823700C2088F800000D2188F8121088F811
:201C5C002410686918B1414635221FF0E4F805B0BDE8F08FD32700203C202020202042417F
:201C7C00434B20202020203E00C046C06E78787878206378782061787878782000C046C00E
:201C9C00202020202020202020203C494E464F3E00C046C05A522043454E54005A52204476
:201CBC00495354005A454420282020202900C0465A4300C05A4544207000C0463C202020EC
:201CDC00415050204D454E552020203E00C046C03C2020434F4E4649475552452020203E92
:201CFC0000C046C07072657373204520666F722068656C7000C046C03C2020202020484511
:201D1C004C5020202020203E00C046C0303D0020243C00202DE9F04F6F4C04F120000068CD
:201D3C00ADF14C0D10B1002180F8311034301DF0BDF81FF018F91190082010F067F914F082
:201D5C002FFD10B14DA01FF087FA18F06BFF0CA81EF052FE04200CA98DF8300000201EF0BD
:201D7C0053FE60631EF0D0FB04A81EF0CDFD042004A98DF81000002017F0E2F9E0621EF01E
:201D9C00CDFB08A81EF0C8FD042008A98DF82000002017F003FAE16A206319B93FA01FF0B0
:201DBC005BFA206B10B942A01FF056FA606B10B944A01FF051FADFF82491D9F80000D0F826
:201DDC00E0038047D9F80000D0F8F0028047D9F8000007260025A03001686F5827B1384672
:201DFC008047D9F80000A030761E05F10405F3D1D0F8B8028047EB201EF010FF206A0027E6
:201E1C0070B16846FF21082214F0A0FB206A694608221DF037FC04F12005012818BF2F689A
:201E3C002F4803C8EA468AE80300082012F036FF061C74D0FF21082214F088FB01200821BF
:201E5C0032461EF099FF40B904F13C030120002108221EF08FFC00285ED0002F04F13C0858
:201E7C0040D04046694608221DF00CFC002853D13868414608607D684D6048E052616E64A8
:201E9C006F6D5F736565644175746F6D617469632829206661696C656400C04641455343AB
:201EBC00434D206F70656E206661696C656400C0414553454342206F70656E206661696C2E
:201EDC00656400C054524E47206F70656E206661696C656400C046C09027002014010020F9
:201EFC00902E0200A8F1020503271EF076FF05F8020F7F1E4FEA20206870F6D1302106207F
:201F1C00F82788F80610401CC0B208F800700120082142461EF0EEFC30461BF063FB04F114
:201F3C003C01E2201AF082FD1DF0E8F8400834BF00260126D64D5520012105F13E021EF04A
:201F5C001BFFA84618B916B100201CF081FB24201CF05AFC074635201CF056FCCD4DA0B904
:201F7C00022F12D124200021022210AB1EF002FCBDF840002A4604213832106035201EF01A
:201F9C00FBFE242002211AF08BFA05F15401E2201CF014FF304618F09FF9684600211022B3
:201FBC0014F0D4FA622010216A461EF0E5FE28B926B1622010216A461EF09CFC684600214F
:201FDC00102214F0C3FA30460FF02AFC30461AF0D3FC304611F0AAFA1EB1002001211BF0D1
:201FFC00A7F91C2012F05AFE0028A06300F0F080606AA16A221D15F095FDD9F80010D1F8AF
:20201C004C138847A16B201D0860606AA16A04F1080215F087FD18F00BF9A16B04F1080053
:20203C004860606AA16A04F10C0215F07BFDBC4FB870BA480021397005F14C011EF0AEFB8E
:20205C0095F82100A16B04F10C0678705C3504F110028E60606AA16ABD6015F063FD04F1E9
:20207C00140BB049B24AB04E087004F110037A62AE4D7E60A06BA16AC360606A3D625A46BB
:20209C0015F050FDAB4D2872022685F82C604FF6FE70A8841EF06AFAA748A049002606605A
:2020BC00C8481EF07BFBA548FF21382214F04EFAA348A54B8360A54AC260A2494160A44B73
:2020DC000361A44A426131460170A34B8361A34AC261A5497961A24BA24AFB60A34B3A61A0
:2020FC0005F13800BB610FF0CFFCB64809272C307F1E40F8046BFBD1287A48F2010119F02F
:20211C00E7F9287A4FF4004119F0E2F9287A212119F0DEF9287A222119F0DAF9A06BA16A1E
:20213C00C0F810B0606A04F1180215F0FBFC48F20201054688F8015019F0CAF948F20101D5
:20215C00284619F0C5F948F20401284619F0C0F9A16B04F118004861606AA16A04F11C0215
:20217C0015F0E0FC824B20708249987030461EF0BBFD814901201EF0B7FD804904201EF04E
:20219C00B3FD7F4906201EF0AFFD7E4907201EF0ABFD7D4908201EF0A7FD98784FF6FE71C3
:2021BC00491C19F095F97948794F7B4EC8F824007849BE60794D79600123C8F82850A06BEC
:2021DC0088F8423004F11C078761754AC8F82C20744C754ED9F80020002007463946734D06
:2021FC0020703B463170D2F800016770C089D2F850122B7010303D4680B265618847206154
:20221C0028B9D9F80000D0F84C0580472069009039468DF804109DF805103A4662F301015E
:20223C008DF805109DF8051067F383018DF805109DF805103E4666F307118DF80510D9F8BC
:20225C000010D1F80011C9896F461031ADF8061021693B680B607A684A60E061256211F088
:20227C0033FDD9F80400C06807784FB9D9F80000D0F85824314630469047D9F80400C068B8
:20229C004B4932460A704B4F3E70007858B903E0B0410020283F0020D9F80000D0F858243B
:2022BC0031463046904711981EF0D2FF0BF0A4FC1DF034F8D9F80000D0F8D40090F84300AA
:2022DC001CF008FED9F80000D0F858243146012090471EF013FA31463748D9F80470017085
:2022FC00F868007828B9D9F80000D0F858243046904711F073F83148314A072133461CF09A
:20231C00E5FC1AF075FB10200DF142018DF842005A201AF08BFB13B0BDE8F08FA04200201B
:20233C0070420020604600207DEC0000C948010045090200503E002028410020D82E0020C1
:20235C00184500200D86000081F80100B17D010079DA0100ADE30100C9D4010065F10100CE
:20237C0071250100A90B0100E9F40100F1830000A04600206D08020031080200450802009C
:20239C0059080200450402005D04020011AB010004440020FDBF0100059F0100F1C70100D0
:2023BC00D9B8010040560020945A0020965A0020995A00203A590020955A002070440020F2
:2023DC00131002006C3E00202DE9F04FBF4CDFF800B3277F0E46F008ADF1140D80F0538212
:2023FC00F00BC50340F010815A461078710BA0F1020080F0EF80310A28BF86F0800680F099
:20241C000F83B10880F0CE80300B28BF86F4006680F00683F00980F0A180A768B00B5AD21C
:20243C006569F00B38BF0020C0F0FB82BD4888C8694688C10088088027693DB938461EF004
:20245C0037F86061B0B987B90B200FE0287B30F07F050FD0A56900F07C0004280ADB45B9FE
:20247C0038461EF025F8606120B900201EF032F92EE06561926B60784FF4804102EB4202C6
:20249C001EF038FD217F6069082919D00188ADF80010017A8DF80810017B491CC9B231F087
:2024BC007F07017306D10188427A68461DF09AF9606909E0008800210A461BF07DF9F7E792
:2024DC00017B41F04001017340691DF0F1FFA06186F48046A4E2DFF8FCB24FF000094FF005
:2024FC00030AC8468FB96078B9F1010F04D04FF4005117F0CBFD05E04FF400514FF47A72EC
:20251C001EF0F8FC86F400568AE27D68287818B3F02821DC514642466B4618F0BAFDD8B1E4
:20253C00029803889BB984F83A808DF80DA08DF80C8003AB0A204146524619F0DFFBDBF8E0
:20255C00001084F83A8039B12878884704E001884FF00109491E01803F68C3E719F000F8D0
:20257C0007462078BFB1401EC0B22070A0B160784FF4804119F0D4FD30B920691DF098FF6D
:20259C0010B9387816F060FC6078402143F698221EF0B0FC207810B90B201EF09BF886F0BB
:2025BC0040063DE2B0F1FF3F18BF00280FD168460021082213F0CAFF00201CF049F86846FC
:2025DC0019F04EFD18B16078022116F071FE86F0020625E2B0F1FF3F18BF002811D138468F
:2025FC00401E0AD0801E0CD1A07F022809D10120A077002019F094FE03E0617F00201BF008
:20261C002DFC86F480560BE2607816F023FE5FEA000A08BF86F4004600F002829AF8005009
:20263C00D32D00F01781207FA8420ED00A2D40F0268194F83B008AF80400616A002900F050
:20265C001E810AF10200884719E19BF800006D1E574600F0A780AD1E40F01181012818BF9A
:20267C00022840F00C81BD78002D33D06D1E40F006817A7860781AB31EF0CAFA4FF6FE7292
:20269C000021824218BF0121081C04D1C248408E1146814209D01046BF49ADF8100017460C
:2026BC004F86532004A91AF0C1F91BF06FF91DF04DFAB949002081F8420011F07FF8DEE06B
:2026DC00022140F6B832A177B9E0C046B0410020283F00207878002860D11EF047FB002291
:2026FC001546AD492062091D0A60011C4DD089696D1C0029EDB2FAD19146071C40D04FF0CA
:20271C0000083AE0C2481CF058FF01280CD0BBF828004FF6FF7181420CD03988884209D076
:20273C0021E0C04614260200B94807F10C011DF0B1FBC0B198483989C08E884203D14FF637
:20275C00FE71814201D13B796BB19348797990F82E0088420CD19BF80E00B979884207D0EB
:20277C00B9F1000F04D138461BF040F86D1EEDB2BF6908F101005FFA80F84545C2DC206A1F
:20279C0009F10109B9F1020FB7DBE26A002A94D029469047E06A002871D18EE700201AF059
:2027BC009FF96CE0012818BF022868D17F7894F841103FB194F84000401CC0B2814284F819
:2027DC00400044DB607F401E06D0401E3CD0401E20D054E0084400201EF0AEF898B994F882
:2027FC00420020B1A06A002849D0804747E0002102200F468DF808000246ADF80070684641
:20281C001DF0AEFA13E001201EF086FA014602F0CDFC34E0AB2000216A4619F0C1FBCDF809
:20283C0008D004208DF80C0002A80EF03BF960784FF4805117F02AFC607841F288324FF4F2
:20285C0080511EF057FB1AE01AF0EAFF17E001200021DCE70746F88948F20101401A0BD003
:20287C00401E05D0801E0AD1384612F0EFFF06E0504614F085F802E0504612F037F95046E5
:20289C001CF010FFC0E660784FB17F1E00F0C280FF1E00F0B680BF1E00F0AA80BEE094F850
:2028BC003B00810980F0BA8081087BD2C10875D20009C0F0B380062020771EF027FA0028A7
:2028DC0065D018F04DFEE568071C60D068684078800837D33878032100226B4618F0D9FB17
:2028FC0028B968684078410830D20E201BE002980188B52912DAB421018060784FF47A7295
:20291C004FF400511EF0F6FA4748416829B10078FF2814BF3878FF208847E5686868407812
:20293C00400803D209201DF0D5FE0AE0092003228DF80C0003AB00218DF80D200A2019F0D8
:20295C00DDF9E56868684078410867D337490D6815B980081BD361E0387816F075FA002569
:20297C0000B101252846032510B10E201DF0B2FE0C2020706078402143F698221EF0BAFA78
:20299C000A208DF80D5003AB8DF80C002BE00E201DF0A0FE42E0C046303D002005200021F1
:2029BC00207732E0042294F83C002277400835D394F83E702FBB58460078012818BF022817
:2029DC002CD1012704F11C000021E77013F0BEFD03252577384617F03DFE0A208DF80170CB
:2029FC006B468DF8007000212A4619F087F915E0002184F83A102177322204211EF07AFA8C
:202A1C000CE01DF0D7F90420012102F0CFFB05E06C3E0020012001461BF020FA86F0040613
:202A3C00B0B205B0BDE8F08F044400201C4500202DE9F04FBC48BB4CADF12C0D4FF0E047B9
:202A5C000125069040682169C06809931F400570B64808924FF0000505704FF0020000EA58
:202A7C00020008BF002840F0C382DFF82893DFF828834FF480301E462F461040374008BF66
:202A9C00002833D14FF4003015EA060700EA020008BF00280ED137464FF480003D4000EA0E
:202ABC00020008BF002800F094820020087115F0D9F98EE228460871EB201AF019FF4B467E
:202ADC002846414618700878862802D1284619F07BF91EF048FAE1690A682B4613710968FF
:202AFC00E1611EF0B5FB1DF0C7F972E22846069F08713868B8300268DFF8F8A217784FB913
:202B1C0053461F7837B1D0F894048047069821690068B830B84E81225346FF251A70277853
:202B3C003570806CA7700023A3814E461D46097AC0893570891E8DB2A842C0F23E82E16996
:202B5C000831096804F1180001604FF0040BA4F80CB0607EA17EE67E00EB0120608104F158
:202B7C0019032671069E59783268C1F30119B8321168ED1EADB209780793002908BFB9F127
:202B9C00020F00F01A82B9F1020F00F3168261B110F0070F00F0118241460978862904D1FF
:202BBC0000F00701022940F00882011301F0020102296FDA667800F00700022862D1002E40
:202BDC0060D1D06990F88300022858D0E1690C31097805A801700527A7811EF0C4F9454642
:202BFC0006462878862847D106980068403001680F6837B9D0F80C05804706980068006CAF
:202C1C0007689DF914001EF0F2F9787706980068016C096800228A77006C9DF91410006802
:202C3C00C17730461EF014FB267967891EF09BF980462946087807F0100786281BD1C34D0F
:202C5C0005F11E021088401C1080872008701DF08FFA40461EF0FCFA08201BF047F9E879AB
:202C7C00B04206D11FB9002014F0F6FB07E01B20FAE7E920F8E7464630461EF0E9FA1DF097
:202C9C00FBF89CE141460878862804D1002019F09BF8A77866788FB186B9012F00F08D81B8
:202CBC006089022F03D110F0070F40F08681032F05D100F00701032901D07EE1608901096E
:202CDC0080F07B81011301F00201022902DA810A80F0738107994978C1F3810A8F11BAF183
:202CFC00010F00F06A81012F00F06781BF49B9F1020F09D0CA5D11F80A108918CEB2DFB12E
:202D1C00C10919D3B61E0BE07A185144127909798918CEB2C1090BD25AEA07030CD0B61C2A
:202D3C00F6B209E04056002014010020DC4600205AEA070308BF0226C0F30020311A60718D
:202D5C008D42C0F23A8106990968AD1B2D18A8B2D1F850122081743080B28847002865782E
:202D7C00606100F02A810021742213F0EFFB0020E07062891DB9074902F0200008700548DF
:202D9C00617905784FF0000C002D3AD0002938D104E0C046965A0020995A002002F0070006
:202DBC00032808D001282CD106980068D0F8D40090F882502DB306984068406905781DB1B8
:202DDC001DF0CAFBFE2819D006980068D0F84C02804750B906980068D0F84402804720B956
:202DFC006289617994F803C00BE084F803B06289617905E0945A00205947002084F803B0E2
:202E1C00DC46656905F17403AB6505F17400686023892B81079B208993F801B00029CBF331
:202E3C000118A5F85C001878AA8100F0780048EA00004CEA000028744FF0FF03AB730CBF13
:202E5C002079002085F8307085F83AA085F84900A089002EA0EB010087B2A78100F0AA8005
:202E7C00E169E68068463246C919083111F06AF8F619B0B2A0812846027C4FEAAB0111F07E
:202E9C00030F01F003076D4602F0400940D0B8F1020F4FF0000301D1D1090BD29DF80120D0
:202EBC009DF8001001EB0221A0F844100DF10205A0F842106D4EB0F84410B6F842208A42D4
:202EDC0003D04FF6FF728A4220D1032F11D06A78297801EB022189B24186B6F84020AD1C12
:202EFC0001208A4211D04FF6FF728A4218BF181C0BE06069294632301DF050FC6069373647
:202F1C00314632301CF0C6FF08350346002B48D007984078861120D06069B8F1020F03D0EE
:202F3C00017CC90903D309E059EA070706D16A782978AD1C01EB0221A0F84210032E07D0F2
:202F5C0069782A7802EB0122028506E0D04400206069294628301DF021FC608900F0070087
:202F7C00032809D0012825D106980168D431086890F88200F0B102E006980168D431D1F834
:202F9C00741160698847A8B90020079FE070B97866697878C1F3011100F078000843307474
:202FBC0008E006980068D0F8FC143148884714F059FF04E009F086FE01E01DF039F91DF0FD
:202FDC00D2FFE1690A68002313710968E1611EF03FF9089A099F202100201140384008BF6D
:202FFC00002919D01CF01EFF16E0C04644320200204B214A93F90000401E187092F9000033
:20301C00401E107093F9007017B91C482A4602802846087114F026FF174A92F9000098B14F
:20303C00089B099F02214FF0E0401940384008BF002912D092F9000000280EDC0698006861
:20305C00D0F84C05804708E00D480021069F01703868D0F858240846904706984068C06889
:20307C0000210BB00170BDE8F08FC046C03D00208C440020DE460020DD460020F63C0020D7
:20309C00DA4600202DE9F04F0222ADF1340D502600230A9197490990081D027040224A711B
:2030BC0081464E721846C87380228A710022CA7188890A7240F430508881A0228A72184674
:2030DC000874CA488A7300F138021768CB722FB90A6822F00F0242F0020204E00A6822F047
:2030FC000F0242F00102C748C54F6FF30F1248F220230025134300780B6089790C9587F8CB
:20311C002A1060B9284617F0E7F8384690F82A00000911D3284608A98DF8200009E03846A4
:20313C0090F82A00000907D301200DF121018DF82100522019F07AFC1BF0E0FF800838BF9D
:20315C00281C03D328461BF083FA01200028B94FDFF8E4B20B9040F0BC800DF0C7FA5FEA77
:20317C00000A40F0A980A64ADDF83080212074211C3215461DF000FE002858D121204146B8
:20319C0074222B461DF0F6FA002850D19C48408E4FF6FE7181424AD0994890F842004FF099
:2031BC000108082806D0042804D00DF08FFBDDF830803CE0444642200DF122018DF82240C8
:2031DC0019F034FC05F12F01432019F02FFC05F12C01472019F02AFC05F11C014A2019F09E
:2031FC0025FC05F11A014B2019F020FC05F12401304619F01BFC05F11601532019F016FCA5
:20321C0005F12D01542019F011FC05F11801E12019F00CFC7A4890F82A00000938BF0C9CA7
:20323C0052200DF122018DF8224019F0FFFB0C9C12E078680C9AA60006EBC40621460C23DE
:20325C0036180096012019F01DFD18B9307880F0FF003070641CA4B20BF1040039880068A3
:20327C00A142E6DC00B1804717F0C9FEB8F1000F18D01DF0CDFC6349888428B999F80000A7
:20329C0000F0F80089F800005D4F03200C460026487005F1390187F8426004F11C001DF03B
:2032BC007DFA01E04FF0090A7E480021BAF1000F418008BF0B9102D001277A480B9780465F
:2032DC004F48504E90F83410012707FA01F030617FE00DF00BFA0DF0F9FA494A212074216C
:2032FC001C321DF007FB02A8FF210C2213F02EF92C460BE03C59002002A8009021462A4610
:20331C000C23012017F0BEFD641CA4B23888A042F2DC5846006800B180472846ADF80800A0
:20333C004FF4A17011F0BAFC071C10D0FF214FF4A17213F00BF902A800884FF4A1713A46DF
:20335C00388042201DF0D6FA38461AF04BF92846ADF810002946062202A813F0F7F8142004
:20337C0011F09CFC071C1AD09D480C30006898B10326022002AA136881B2C919801D92887B
:20339C000B60761E8A80F5D104A8008814213A4638804C201DF0AEFA38461AF023F91820A4
:2033BC0011F07CFC071C10D02946182213F0CEF82C4604F2012018213A461DF09BFA641C9F
:2033DC00032CF6DB38461AF00DF919F0F3FA354880460B98012873D10448094C00781C3491
:2033FC0060B3012810D0022816D101E0283F002099F8000000F0F80040F002000AE0C04681
:20341C00303D0020503E002099F8000000F0F80040F0010089F800009C481CF0CEF800284C
:20343C0008BF002003D09F4A04210320D1729D4948700CE0B04600202C450020994902200D
:20345C0099F80070487007F0F80089F800001DF0C4FC0999944F934E00F07F0008186430D1
:20347C0080B20C90786C02213061FF2019F060FF8E494FF6FE700D464886471CE8860020A7
:20349C00A1F840701AF046F88748007801280ED10A98012808D002A80021082213F056F847
:2034BC0002A802E0FC450020002018F0F9FE2120742122461DF01EFA0020022119F038FFFE
:2034DC007948DDF82CB0C07804287BD1444DE86878B9122011F0E2FB0028E86072D04FF695
:2034FC00FE71861F032726F8061F00207F1E7080F9D1BBF1000F65D106AB4C200021022265
:20351C001DF038F9002856D1BDF81800002852D0042850DA182011F0C1FB4FF0030902272C
:20353C00002441F2D87A0646EB68B9B24C2006221B191DF01FF998BBE868015B4FF6FE721B
:20355C008A422DD066B3201840880021182233461DF010F93069EB6800F2E93232611819C6
:20357C004188EB68880000EBC1004019A0EB0A000260181941887369880000EBC100E96834
:20359C0041F2D4724019801A036008194088324618211DF0AFF930460021182212F0D6FF49
:2035BC00B9F1010904F1060407F10607BCD116B130461AF017F83C4B7120002108225C3362
:2035DC001DF0D8F83248384E324FC8F80C00F078C8F81070042805D01BF000FB2F4804E09B
:2035FC00E83F00201BF0E6FA2D482B49BBF1000F08601AD02D4890F85D00B0B93046C07816
:20361C00012812D13046007B78B1622002A913F005FC02A800211AF05FFE002010F014FAD7
:20363C0002A80021102212F091FF1E48806950B11C4C18340768206819F0D4FF1949384628
:20365C0000288861F6D109984FF6FF71814217D014480125024600271146057014468F725E
:20367C0085200A3229461DF087FB0A3428B9852039462A4623461DF07DF80C981CF092F877
:20369C001BF086FD58460DB0BDE8F08FA042002001C20000F5090200C0440020750402009D
:2036BC003FFA0100503E0020283F0020303D00202DE9F04FC84DDFF824B3CC4E0C46E00B83
:2036DC00ADF1140DC00340F0A781DFF81483DFF81893600880F03E812878DFF808A3A10B9F
:2036FC0080F00F81CB480768600980F0EC80200928BF84F0080480F0AF82600A80F0A280BA
:20371C00E00880F09580200A63D2A00A5CD2C54D200B2BD2E00A27D3142011F0BFFA071CBA
:20373C001FD00026B146287A012813D106F21118494614223B4640461DF01CF850B928680B
:20375C003860686814213A46786040461DF0D2F885F80890761C0C35032EE4DB384619F09C
:20377C0041FF84F4806078E2002076E2182011F095FA071C25D000262435B046287A0128A3
:20379C0013D106F20129414618223B4648461CF0F1FF50B928683861686818213A467861A7
:2037BC0048461DF0A7F885F80880761C0C35032EE4DB38464146182212F0C8FE384619F05D
:2037DC0011FF84F4006048E211F07AFF84F4007043E215F0D9FA287805281DD1287A0421DA
:2037FC0016F054FC287A042114F06EFD06201CF05FFC1DF019F911F063FF17F045FE58462A
:20381C000078000904D35146C91D0878012805D168691AF0D3FD01E01DF006F901201AF075
:20383C0017FF0320012101F0C1FC84F0800014E2FF20032119F07CFD1DF002FABE49012083
:20385C000860FEE7424692F84200082818BF042815D11C32212074211DF04CF8BE4EBF480A
:20387C0071683288C3690025B1468046AA4209DC0BB1184680470020022119F059FD84F4BF
:20389C008074E9E1A80000EBC5000F5C37F07F0C16D017F07F070F54084405D101A8FF2118
:2038BC000C2212F053FE01A80090294600220C23012017F0E7FAD9F80410D8F81C303288AE
:2038DC006D1CADB2D2E74FB17968087818B14868007813F08BFB3F68002FF5D11DF098F916
:2038FC00A8841CF043FE51460878012806D1454628784FF4006164221DF0FCFA84F010043C
:20391C00AAE10C280FD00C201CF0D2FB2878012803D0022818BF0C2801D1002068715046B6
:20393C0000F134010DE002201CF0C2FB2878012818BF022804D10120687100201BF032FF78
:20395C0049460A68287A4FF400511DF0D3FA84F4005481E101201CF0ABFB30786F7800F0BA
:20397C0007011220012918BF022949D14FB3032F27D0012F44D101290CD00A201CF098FB6C
:20399C004946287A0A684FF400511DF0B3FA10F00BF835E00A201CF08BFB454628784FF4D8
:2039BC00806116F073FB502004A91BF007FABDF81000A5F84000BDF81000002112F068FF7C
:2039DC0025E01CF0B9FF98B1032F11D01DF005FA0CF0F2FF14E0C046503E0020425900204A
:2039FC00303D0020303F0020683F00204059002002201CF05DFB9A492869097815F008FF88
:203A1C0028B1287A01214FF47A721DF073FA84F0010421E1AC460020924FDFF84C924FF0E2
:203A3C00000A10E1F83F00200246167839782B783046401E00F0E580401E21D0183800F036
:203A5C00FC80B93800F0F5802A3800F0F980361F0DD0361F40F0F480012918BF022940F026
:203A7C00EF8010790FF0F0FF1CF0DEFFE8E0012918BF022940F0E480404606F0EBFADFE0B3
:203A9C00012918BF022940F0DB8099F81C004E46072818BF082805D16A7A1AB9012101F03C
:203ABC0085FB2B78032B00F084800A2B11D0042B15D00E2B13D00F2B11D00D2B0FD0002B02
:203ADC0000F0BE8017F0E0FC287A102115F0F0FBB6E06848007800F00700012869D06E7AF7
:203AFC0068785EBB5046287318F0A2F8C0B106201CF0DEFA287A4FF4005116F0C7FA9BF8D3
:203B1C000000000909D3FE7B3EB950461AF056FC50461DF089F81DF08DF817F0B5FC8FE065
:203B3C00788E1AF04BFC05201CF0C2FA42F210701BF048FE84E0C0467C052043297B012805
:203B5C000ED0032823D10320494B6870981C80F800A00126AE711AE0B0460020184500201E
:203B7C00491CC8B20428287304DB4048007801280BD00CE03E4800884FF6FF71814204D05A
:203B9C00032068700423EB72E3E785F801A019F0FDFE1BF0DBFF9BF80000000902D3F87BD5
:203BBC0001284DD1687803284AD1788E1AF006FC46E06B7A1BBB287A102115F079FB18F035
:203BDC0037F890B1287803280BD117F05DFC307F022806D101201AF03BFD0220012101F00A
:203BFC00E5FA06201CF064FA2AE0788E1AF0E6FB05201CF05DFA012018F092FB20E050466B
:203C1C00FAE7022B1CD1012918BF022918D11DF07DF840B91DF0AAF800280CBF50460120A4
:203C3C0018F05EFF0CE011F053FE48B115F0F8FE06E040460FF026FC02E040460AF0F0FEF4
:203C5C0040461BF02FFD287A15F004FB5FEA00087FF4EAAE84F40044A0B205B0BDE8F08FA2
:203C7C00ED410020283F0020B041002071420020703D0020405900202DE9F04F04462089A1
:203C9C00ADF1440D28B1C2482A30008808B11BF05DF94FF0000B52200FA98DF83CB018F04D
:203CBC00C5FE6068217A01AA0BF030FC002800F069829DF806000228B4BF01275F469DF853
:203CDC0008000228A8BF5F46BDF80E004FF6F87880450BD008F10101814207D008F10201E1
:203CFC00814203D008F10301814200D15F461CF089FF9DF80710884240F04482002F00F0BD
:203D1C0041829DF83500002840F03C82208D9DF80A60678EADF83000ADF8127056B1616877
:203D3C009DF805209DF8203001201CF09DF9002840F028829DF809709DF80A50DFF8749229
:203D5C00002F4CD19DF821005E4658BBBDF80E00034618F065F93746022808BF0127002F57
:203D7C009DF8067018BF012649460988994208BF46F0020626B1002F14BF402120210E4352
:203D9C00184618F04DF9012808BF46F00106002F3DD00B9A10781CF065FD012818BF26F041
:203DBC00010635E09DF8250088B1FF280FD09DF824700C2F2BDA57B30A99891E1CF028FFE2
:203DDC0031F8022F904222D07F1EF7D11FE04946BDF80E700888B84208BF222617E0BDF83E
:203DFC000E10FF201AF008FC002808BF082608D09DF8090047F001072C2640F001008DF882
:203E1C00090007F00307012F08BF46F011060B9A8DB9C748007870B106F0220022280AD069
:203E3C0006F04200422840F0AD811078062818BF072840F0A781F0094FEAA61A48D31778B6
:203E5C003846C01E012825D9001F23D0C01E21D0801E1FD04946BDF80E600888B04240F0F1
:203E7C0091810520BDF810408DF839000EA81BF0F9FB002800F0868102690323132613700B
:203E9C00511C0E704C7022128A70CF70448007F01FFE77E15FEA5A001AD3032F02D1507865
:203EBC000D2815D09DF80C0038B1BDF8100007990CF0A4FB012800F061819DF80B0038B1BE
:203EDC00BDF80E0006990CF099FB012800F05381B4F8447049460E310888B84209D1CDF890
:203EFC0000B0208DB4F8421094F846205B460DF0C7FB9DF80A00A54DDFF89492002872D001
:203F1C00208DB4F842101CF0AFFD071C54D19DF8350000283ED195F88800012863D10B98C4
:203F3C000078062802D15FEA5A005CD2BDF8121008F10700884200F02581BDF80E00494692
:203F5C000831097811B1698E81421DD0594612F0F1FE80B18079BDF81020BDF80E1010F0B0
:203F7C00180F0CD0608E00901046238D9DF8212016F0B0FC06E1BDF80E10BDF81020104621
:203F9C005A4613F0F9F9FDE017F0CAFDFAE0C046283F002004201BF0BBFA011C00F0F280FB
:203FBC006420087001274F70208D4880287816F0EDFDE7E0623D00209DF805106068FB7892
:203FDC000A18527B9A4203D0FA7058467860606840180421401C1BF042FD7968814200F2C6
:203FFC00D180401C786095F84200042818BF092840F0C8809DF81610B00980F09B800B9902
:20401C005FEA5A00C0F0BE800878042804D19DF82000022800F086800A78072A04D19DF880
:20403C0020302878042B45D0032A3ED00C2A40F0A98048788E7878BB4C4604F11B02512058
:20405C000121167090461CF055FC5248012707702878022118F064F8A8B9E07EA37F0228FE
:20407C0011D1002B14BF4EF660204FF47A704A4951F823102B7803224843B0FBF2F202213F
:20409C0018461CF034FF70087CD3E6765120394642461CF02FFC75E0E98E01201AF066FE3A
:2040BC002878012115F0F2FF6CE001A8594617F0F7FF67E04FF4806115F0E8FF374A9088AB
:2040DC001CF0B8FDD0881CF0AFFD4C465F461B342770092085F842001CF048FA01460698BB
:2040FC001BF0D8FE01284DD110201BF011FA074607990B98002F00F1010043D002223A70A4
:20411C004378027802EB03227A80807878704A2018F08CFC9DF80A0010B9214905200870F9
:20413C00394643E7584601A907F06EF82AE0C046573D002094F8460094F847708DF838007F
:20415C0094F948608DF8397001298DF83A600CD1208DBDF81010884207D1BDF80E0017F0CC
:20417C005FFF022808BF8DF816B0E26B01A80EA900F04EFC06E0BDF80E0001E0BDF8100053
:20419C0017F0C6FA11B0BDE8F08FC046303D0020283F002040400020D82A0200CC45002068
:2041BC00503E00202DE9F04F0446E5680E4600271E22ADF1540D39460AA88DF846701CF017
:2041DC0038FF6978287800EB0120ADF8280015F8020F8DF82A00E07A002800F08F81401E85
:2041FC0000F00F81401E00F0EC80401E00F0CD80401E00F08A80401E71D0401E40F00A82BD
:20421C00BDF828103E4621B12068007D1AF0F4F9B8B105201CF00BFF5FEA00080FD02068E7
:20423C00BDF82810007D424616F078FE06462068437D3D460BB943882BB126B94AE08925BB
:20425C0001E0B04685252068017D1291801D13901AF0A0FBA94694F80AB0BDF82850C0F120
:20427C000500B9F1000FC0B2149006BF701DC4B2042420461CF0DBFE5FEA000A2AD000F8CE
:20429C00019B149900F8011B2B1200F8015BB9F1000F03700AD100F8016F3EB1401C4546CF
:2042BC0015F8011B761E00F8011BF9D101200090019002900397CDF810B00594CDF818A03E
:2042DC001399079012980522062306F0BBFB50461CF0F4FDB8F1000F00F09A810AE1206810
:2042FC00BDF828109DF82A20007D12F045FE002800F09181F169002900F08D812268099046
:20431C0008A8921D0892884785E1BDF828100D1C04D02068007D1AF06FF930B320689DF8F2
:20433C002A20007D12F028FE051C06D11AF032FB0528A8BF892719DA0AADB1693E4639B1CD
:20435C0020680995801D089008A8884700B101260AA8A84203D04EB11AF048FE06E0206863
:20437C00007D0AA911F0FDFE00E085272568687D002840F04D816888002840F049819DF82A
:20439C002A003E460422074637E1BDF828100E1C07D02568287D1AF02FF9002808BF8526DC
:2043BC0005D02068007D16F031FB25683E466A7D002A40F02D816A88002A40F029810322BA
:2043DC001BE12068BDF828109DF82A20007D14F0CBFD50B92568BDF82810287D1AF00CF9F1
:2043FC0000280CBF85278B2700E02568687D002840F00E816888002840F00A8102223E469C
:20441C00F9E02068BDF828109DF82A20007D12F0B3FD061C0ED1BDF8281039B12568287D1A
:20443C001AF0EAF8002808BF852001D025688B200AAE01E0256838466B7D002B40F0E88088
:20445C006B88002B40F0E480E17A012940F0E080297D5FEA000905F1060B94F80AA01291A1
:20447C0005D1307E317A0918C91DCDB200E0042528461CF0DCFD5FEA000800F0C98004463B
:20449C0004F8019B307804F8010B3088001204F8010BB078B9F1000F20701BD1B088641CD1
:2044BC0004F8010B001204F8010B307A04F8010B337A3BB106F1090120461A461BF0A8FFFA
:2044DC00307A2418337E2BB1193620461A4631461BF09EFF01230093019302930397CDF8DA
:2044FC0010A0129805955946CDF818800522079306F0A8FA40461CF0E1FC89E06D1C697815
:20451C002878236800EB0120ADF82C00AE78187D042205210DF1460318F085FC9DF84600C5
:20453C00ED1C50B1102EA8BF0F260DF1310029468DF8306032461BF06BFFE068238AAD1920
:20455C00291A581AC0B28DF8400088B10428C4BF04208DF840000DF14106FF210422304681
:20457C001CF067FD9DF84020294630461BF050FFBDF828100E1C05D02568287D1AF03CF81F
:20459C00002830D020689DF82A20007D12F0F4FC051C06D11AF0FEF9052802DB89262568C2
:2045BC0022E03E46CDB19DF84630BDF82C00A8802BB105F108000CA910221BF029FF9DF83E
:2045DC00402005F119000DF141011BF021FF9DF8400028761AF00AFDE1E72068007D0AA9E1
:2045FC0011F0BFFDDBE78526687D88B9688878B9E07A68B93A469DF82A70BDF82800009097
:20461C000197A07A0290287DA91D334616F025FAFF2700E00127384615B0BDE8F08F7047E5
:20463C002DE9F84FDFF834830F460646F80B80F09B81C74DCA4C2878B90F80F03581DFF8B4
:20465C0024B3B90880F02881DFF80893DFF808A3F90A80F08B80390B54D2380907D2F80F90
:20467C00C0F0BA8127F0804714F0FEFAB4E11CF07AFC05461AF0D4FD00283DD019F00CFFD3
:20469C00002839D04C4603202070D0481CF065FC28461CF0DDFD0DF0B9FF022000211AF0AD
:2046BC00ADFD022018F0B8FF11200DF0E9FBCE48007820B95546286848301CF06AFCCB48B2
:2046DC00007810B90E200DF0DBFB607B20B100206073052018F0A0FF002041462070C44ACC
:2046FC00B1F91C00B1F91E106260884214BF0220072011F0DDFF02E028461CF0A9FD27F062
:20471C000807B1E720B1042018F086FF0020287055462E6818F0CEFF40B1F0696FF48071F8
:20473C0000224FF0007384463046E047B14E306858B12068006B8047326829680024801ADF
:20475C00C860C8683460000BC860AB48AB4900221CF011FC4C46584602210068217010B1EF
:20477C00A7481CF01EFC27F400677DE71CF0FBFB00901AF055FD002840460068834600F065
:20479C008580002800F082804846042606709D49994800221CF0EFFB00981CF059FD8B4804
:2047BC001CF0DBFB2068006B80474FF00108DFF844C285F8008064462060304618F046FF32
:2047DC00DBF810005546416A2860C90804D3016A00220B4631469847404614F015FA286807
:2047FC0080F815800CF03CFD2D68D5F8089040F60A01A446C81F421C4E4600E02646746835
:20481C0034B12388994203D0984218BF9A42F5D100217160737B08F00F0423F00F031C437C
:20483C007473DBF80C301B88984225D09A4223D02C8E1CB3696305F13002518095F83C000E
:20485C000B4603F00F0320F00F00034385F83C3095F83D0008F00F0420F00F0044EA000373
:20487C0085F83D307260707B01F00F0420F00F0044EA0001717301E0CCF8001048461CF0F0
:20489C0093F8014640461AF0B9FC02E000981CF0DFFC27F480679FE00FF08AFC5846006878
:2048BC0008B927F0020797E0574A116841F08001116020B1042018F0AFFE002028701CF0D9
:2048DC0052FB8146606D0068014604208847D8B1307DC8B14D480568B5B120683469006B92
:2048FC008047401B30613069000B30613069A04203D2001940083061306940F6C41181420B
:20491C002CBFB0F5967F316148461CF0A1FC18F0D1FE88B1F0696FF4807100224FF000737C
:20493C0004463046A04741460868002808BF47F0020701D014F098F9B06900214FF08063CC
:20495C0004460A463046A04727F0005744E0C04639590020B459002028590020D0560020E6
:20497C008C010010D85600201CF0FDFA414618310E686EB306F1280191E80C004FF0E045BD
:20499C000A241D4004EA020108BF002920D106F1280191E8300006F1280393E8060006F13B
:2049BC002803AA43A14383E806001CF051FCB16881B1002D08BF002C0CD03069B6F93C103A
:2049DC00B2682B4616462246B04703E0645600201CF03EFC27F480471FB1094839461CF0E4
:2049FC00E0FABDE8F88FC04638590020FE31020049F80000305900208C570020D9190100CD
:204A1C00C854002021F70100CC2108402C5900202DE9F04FADF1840D1B9100241C920646FD
:204A3C008DF84240D6F828C08DF84340317F8DF84D40B28DADF844400F46ADF85A20F2897C
:204A5C008DF854706046ADF84A20027802F00303022B8DF8402000F3C08123461D93401C0F
:204A7C001F9353083CD202F00C0EBEF10C0F0CD053093CBF10F8013B8DF84230BEF1080FF5
:204A9C0004BF01238DF84C3001D08DF84C40BEF10C0F0AD0737903F00303012B0CD142F06C
:204ABC000C0273898DF8402004E045780378801C03EB0523ADF84430530911D2457803788D
:204ADC00801C03EB0523ADF8463003784578801C03EB0523ADF8483010F8013B8DF84330AA
:204AFC0010F8013B32F07F058DF855301ED0037833F003058DF8413040F06B8103F0030EFC
:204B1C00BEF1030F00F0658113F0030F00F101000ED010F8013B02F00305022D8DF8573084
:204B3C0004BF10F8013B8DF8583001E08DF841401490A0EB0C003F1AFFB2B942C0F24981A2
:204B5C00C91B8DF85470C8B28DF84D00074300F04481D00907D3708917F062FA002840F05A
:204B7C003C819DF8402002F00C002146001F08BF01211E91910933D301211F9180B3B2896B
:204B9C001CF046F8904202D1F08D000A0ED21CF03FF8904222D0F08D01460B0A38BF101CA0
:204BBC0007D39DF8402002F0030C2EE07089ADF85A2080461CF02CF8BDF85A10884205D02F
:204BDC00404615F00FF9002800F007818448026810A940469047002840F0FF809DF840206E
:204BFC00F08D02F0030C01460B0A0ED2D3090CD39DF8413013F0030F07D102F00C030C2BF9
:204C1C0003D0082B1CBF01231D93DFF8DC81BCF1020F00F0BF80BCF1010F00F08D8012F0E6
:204C3C00030F40F0DA806F4A92F82720012A03D1B779002F00F0D1809DF8542002231A92B9
:204C5C00040A9DF84250BDF846B0BDF848A09DF855E09DF857C0DDF850908DF86430B2893C
:204C7C009DF84370ADF85C2034D21E9F40461630046897B91D9F1FB1104610A90FF0CCFD01
:204C9C001F9800901C9F0197B07C1B9A0290F37C17A910A80DF07EFA9FE0307C002C8DF8B3
:204CBC00560000F09A801BF0B3FFBDF85C20904240F0938030791F9F00901C9D01971B9A78
:204CDC0002951D9B039196F8300010A9049017A8A04782E0ADF830008DF820308DF8227001
:204CFC0034798DF833407189ADF818108DF835E08DF82350ADF826B0ADF828A0CDF82C9031
:204D1C00307C8DF836C0B27C8DF8320096F830308DF83420334C8DF83730B4F8401096F8AF
:204D3C003270ADF824101A998DF8387006A8ADF82A1003F077FF50E01D9FB58937B1000AEA
:204D5C0004D2284610A90FF067FDB5899DF85400B6791030C0B21AF0DBFB071C3DD07D81C1
:204D7C00022038703E737C709DF854203A7207F110057D609DF84000800928BF01247C72B9
:204D9C00149978680FF0DEF840460078394615F0FDFE22E09DF8417040461E30B189036857
:204DBC0017F0030F10D110A807901048ADF8181006A919F0FBF880B1062141730068407B8F
:204DDC00214616F0C9FC08E03BB110A82246984703E08DF84D408DF8544021B0BDE8F08FAF
:204DFC00BC440020303D0020724200208DA901002DE9F04FCC4CD74DDFF85C83C80BADF127
:204E1C00140DC003019140F0C1810846400838BF0020C0F0C68167681CF016FA4FF6FF7249
:204E3C0081B267B13B887888CB1A9BB2984210DDC01A8242C8BF82B2FF68002FF2D14FF658
:204E5C00FF70904200F08E80207801211CF052F888E0B879022878D01CF0F6F997F838100A
:204E7C00388005F10A000078884267DD97F83600FF2808D197F83800401C87F8380097F8AA
:204E9C00370087F8360097F8356097F839300020012101E0401CC0B2834210DD97F836C0C6
:204EBC0001FA00F28CF0FF0C12EA0C0FF2D03618814097F83600F6B2014387F8361097F875
:204EDC003400B98F10FB06F2891A89B28842C7BFFF2087F83600011C97F8360095F8202086
:204EFC00FF2818BF97F83A0006D140460078642510FB02F212FB05F0788046B9388D3E7AFC
:204F1C0040F020003885386C87F82E600BE03A8D4FF6DF70104038853D6C87F82E6097F81F
:204F3C00342012FB06507862F879CEB287F82D0007F110007E8403F075FE0FE0B87E97F803
:204F5C002A10E92219F0DFF905E0387CFF2802D0B8691AF0A7FB384618F030FE2078012142
:204F7C0014F0A6F9019880F0010019E12878012840F0098195F8338095F813A06F6995F806
:204F9C0031006988022219F0EDF905F11C0405F1020B06460020002E02907DD1687F4008FE
:204FBC0078D3A87FCDF80CA01BF04EFDBA4605F11009071C63D01C200FF070FE061C5CD040
:204FDC0000211C2211F0C2FAA87F69461AF0D6FE9DF8010002213075304618F04DFA6888D2
:204FFC00317DB08095F83100FF23F07103FA01F0707478680078307495F83000B07495F83A
:20501C00331011FB00F0303080B21AF081FA0746B76127B9304618F0D1FD00262DE01A2020
:20503C00387000237B701A467A80E0885946B880B81D1AF0F7FBE078474BF87303F12000CB
:20505C0000883882608BB88560897882A0783875207B787599F80000B87599F80100F875DD
:20507C0099F902003876039A7A76C7F81CA007F13001B962A07D87F82400304600E0002050
:20509C00002806467FD0284886F808800078012114F00EF9002E76D0307AA8EB0000B0F1C4
:2050BC00FF3F04BF01200290307CFF2856D06078400828BF4FF00008317DF07C40184045E2
:2050DC0003DCF074FF2088407074B069B17C227D806A08FB010021690EF034FF029F317DC9
:2050FC00727C012398FBF1F04843A8EB000003FA00F11143C9B27174C7B1401CFF2202FA5D
:20511C0000F001437174B769B17C207D08FB0100F884707CFF2809D1307CB16915F036FD05
:20513C00FF2030741AE0C046604600201CF08CF83080094F0748074B90F82010387810FB1E
:20515C0001F1987A6422401C10FB01F010FB02F0708003E0283F0020503D0020F17C327D31
:20517C00A8EB0100801AB0F1FF3F04D0707CFF2801D0029F3FB1E175707C2076BBF8000032
:20519C0021460FF049FB28461AF08CFA0648007814F060F8051C7FF4E9AE019880F40040B1
:2051BC0080B205B0BDE8F08F604600202DE9FE430E46C24ADFF808831178401E072800F2E1
:2051DC009C81DFE810F07F015C01F600DF00BF007D0046000800052044468DF8010094F8D2
:2051FC003B005EB3E07F20770027E7774FF47A7019F0E4F80D2694F83B0084F83A6000F0BA
:20521C00DF0084F83B0004201AF052FF217F384606290BD1216949B10A7BD30903D302F087
:20523C00BF0201200A7349690029F5D1002800F064814FF480414FF47A725BE140F0200096
:20525C00022784F83B00002084F83A7019F0B6F853E10025012E8DF8015014D01BF056FDB5
:20527C0060B1052044468DF8010004F13B01087840F0200008700A201AF01AFF444602205A
:20529C0084F83A0017E04FF47A7019F097F864201BF0D0FC1BF0C8FC04201AF009FF11F01F
:2052BC001BF844460D200421C82284F83A00607825771BF01FFE94F83B0000F0EF005EE0C3
:2052DC00032044468DF8010094F83A0008B90120A0712078002840F03381627820691BF0B4
:2052FC00E7F8002840F02C8110464FF4804116F017FF002840F0248100256561A56119F041
:20531C00BDF960784FF4804114F0C0FEA07928B194F83A000B2808BF84F83A50A571217FAF
:20533C006078062904D0E07F062808BFE57704E02577042132221BF0DDFD94F83B0000F031
:20535C00F7001CE00220012E8DF8010005D044460820002684F83A0007E000264446032149
:20537C00304684F83A6017F0E3FF60782677042132221BF0BFFD94F83B0000F0FB0084F8B9
:20539C003B00BAE001208DF801002EB16D490020087006201AF08CFE444600202077607875
:2053BC00042132221BF0A6FD94F83B0000F0FD00E5E7012918BF022940F09F804546687844
:2053DC00042132221BF096FD286A012E49D000264FF47A708DF8046018F0F0FF0127022043
:2053FC0085F83A0095F83B408DF8017001A92E7704F0FD0085F83B00522017F017FB1BF04E
:20541C0070FA17F0F5FA504C606820B1606818F0E9F826806660DFF83491D9F800407CB1E4
:20543C0020686768006A18F0DDF8206818F0DAF8606918F0D7F8204618F0D4F83C1CEFD15E
:20545C00484606601AF07EFA4148007814F0F0FE30461AF02DFE286A00284ED018F0C6F97D
:20547C00F9E70121297720B118F0C0F9286A0028FAD14FF47A7018F0A1FFBDE8FE8300203C
:20549C001BF06EF9042701208DF80170107446B10020444684F83A0084F83B0006201AF07A
:2054BC0007FE4446002020776078394632221BF021FD94F83B0000F0FE0060E7283F002033
:2054DC00B0410020012918BF022916D1012E23D00120444607278DF801004FF4805160781F
:2054FC0084F83A7014F0D2FD0020022141F2883284F83B0060781BF0FDFC4446606AF8B1D7
:20551C0094F83A00002103226B468DF800000A2016F0F4FBBDE8FE830020032117F008FF96
:20553C00444604213222607821771BF0E3FC4FF47A7018F043FF60784FF4805114F0A6FDE8
:20555C00BDE8FE83EA410020B0460020B8460020303D00202DE9F04FBF4CC04942F21072DE
:20557C0004F16400ADF13C0D15F022FF4FF4FA62BB49206104F1880015F01AFF4FF4FA624B
:20559C00B849606104F1AC0015F012FF40F6B832B549A06104F1D00015F00AFFB34DE06143
:2055BC000D2005F10C0168700E20A87005F118000DF016FDA86068781AF0ECFF00280CBF93
:2055DC0008260026A8781AF0E5FF08B946F01006A749A8681BF05EFBA64905F12400C822E9
:2055FC0015F0E6FEA448DFF89492686009F1080109F114000DF0F4FCC9F8040000201BF007
:20561C0091FB4FF0020AB0460025A9F102062F46834606F8025F384686F801A01BF00FFC8A
:20563C000146D9F804005A46C9B217F069F97F1C022FEEDB924909F120004FF4FA7215F070
:20565C00B7FEB8F1100F02D120781BF0EEFB04A82946242208231BF0F3FD012604F1480760
:20567C00294604AA8DF8286038461BF0E5FDA7601BF0DEFD04F10C02394612F053FA84F83F
:20569C003250207084F83350DFF80092658509F1040020644FF0080884F838800FF05CFC2E
:2056BC00784F387804F10C0A38B9774A2846142117F022FE14F0BCFA3E700C201BF0B7FC7E
:2056DC007B68A0B1056004F1F40180F80480002B816008BF78600AD01F4604E011463AE0F0
:2056FC000F461EE00F4639680029FBD13860684F387830B9674A40F20110014617F0FCFD2D
:20571C003E700C201BF093FC7B6870B1056004F5907180F80480002B816008BF786004D01B
:20573C001F4639680029DBD138601BF00DFA18201BF07DFC584A116988B105602B4680F869
:20575C0004800B278360554B077417694361002F08BF106103D00A68002ABFD108605148EE
:20577C004F49086014F0BCFA17F0B2FB236AEBB1072010228DF808001F69ADF80A20ADF894
:20579C000C505FB104F1240002AB009093E803002A460523B847236A0A2807D19F682FB198
:2057BC0002A803C804F124030522B8473E4F10223A8240217982A3683B6420783873C7F893
:2057DC003CA009F10204BC61384A3A62384979621CA3BB633748F86116F0E6F907F168043C
:2057FC0020461AF059FC87F8696087F87E5087F868604FF4E13087F87D502F4BC7F8800093
:20581C002E4ABB6721467A67284616F029FD3246791C78611BF0FAFA29494FF4FA7207F1F2
:20583C008C0015F0C5FD7864387B8DF834500DA91BF000FBFBF730FE1AF0A2FD0FB0BDE878
:20585C00F08FC04620446F6F724C6F636B20436E74726C2000C046C0AC360020CD0302008D
:20587C0015040200FD030200E5030200D840002095CF01002D010200B5030200F441002029
:20589C00E945010098460020294C0100B44500209046002051A801009845002038270200E2
:2058BC009C380020A59C0100983B0020C1E6000004250200039F01003FF7000039ED0100D1
:2058DC006D0302002DE9F0410D466868ADF1180D002800F09D81002669686E70CB4C08786B
:2058FC0060B1487800280CBF301C01202246234601210C32187363201AF0FCFF6A68977836
:20591C0067B1D078234600280CBF301C01200121DA1CD87064201AF0EDFF6A6817796FB1E6
:20593C005079234600280CBF301C0120012103F10D0258736D201AF0DDFF6A6897794FB174
:20595C0090682346383304211A46186035201AF0D1FF6A68177B4FB1D08923462A3302218D
:20597C001A46188025201AF0C5FF6A68177C4FB1508A23462C3302211A46188026201AF08E
:20599C00B9FF6A68177D4FB1D08A23462E3302211A46188044201AF0ADFF6A68177E4FB10D
:2059BC00508B2346303302211A46188046201AF0A1FF6A68177F4FB1D08B2346283302214F
:2059DC001A46188083201AF095FF6A6892F8207057B192F8210023465B1C01211A461870E9
:2059FC0029201AF087FF6A6892F8227057B192F8230023469B1C01211A4618702B201AF090
:205A1C0079FF6A6892F8247057B192F8250023460A3301211A46187043201AF06BFF6A68F2
:205A3C0092F8267057B192F8270023465B1D01211A4618702E201AF05DFF6A6892F82870DE
:205A5C0057B192F8290023469B1D01211A4618702F201AF04FFF6A6892F82A7057B192F815
:205A7C002B002346DB1D01211A46187030201AF041FF6A6892F82C7057B192F82D002346BA
:205A9C001B1D01211A4618702C201AF033FF6A6892F82E70AFB192F82F30102B8DF80030ED
:205ABC0003DD10208DF800000346116B0DF101001A460EF047FA812011216A461AF01AFF2C
:205ADC006A6892F834704FB192F835101029C8BF1021926B62201AF00DFF6A6892F83C704D
:205AFC004FB1106C2346443304211A46186084201AF000FF6A6892F8447057B192F845009D
:205B1C0023460B3301211A4618704B201AF0F2FE6A6892F846706FB102F1470001684068D6
:205B3C0023464C331A4650601160472008211AF0E1FE6A6892F84F702FB1503201200821A0
:205B5C001AF0D8FE6A6892F858704FB192F859000DF111018DF81100522016F067FF6A68EC
:205B7C0092F85E70DFF8B4804FB192F85F00434601214246187033201AF0BCFE6A6892F88F
:205B9C005C7037B392F85D0004F1080701213A46387032201AF0AEFE3220314601223B4689
:205BBC001AF0E8FD04F109033320314601221AF0E1FD1B48217A0078012904D04FF40061EC
:205BDC0014F064FA04E04FF4006164221BF092F96A6892F8607047B192F8610011496A6868
:205BFC00114F087092F86100387092F8627027B1506E6A6843463333186092F868704FB191
:205C1C00D06E43463733186004E0C046283F00200220687006B00120BDE8F081313F0020D7
:205C3C00303D0020A1460020B43D0020F0B50E467068ADF1140D002800F08381B0680028B7
:205C5C0000F07F810025C14C7268757004F10C00177803783FB1B06801210170284603B17F
:205C7C000846B16848707068E378477847B1B06801218170284603B10846B168C87070683B
:205C9C008778637B47B1B06801210171284603B10846B16848717068C778A16B2FB1B0680A
:205CBC0001228271B068018170680779618D2FB1B06801228272B068818170684779A18DE3
:205CDC002FB1B06801228273B068018270688779E18D2FB1B06801228274B06881827068B3
:205CFC00C779218E2FB1B06801228275B06801837068077A218D2FB1B06801228276B068B9
:205D1C0081837068477A61782FB1B06801228277B068C1777068877AA1783FB1B068012270
:205D3C0080F82020B06880F821107068C77AA17A3FB1B068012280F82220B06880F82310F2
:205D5C007068077B61793FB1B068012280F82420B06880F825107068477BA1793FB1B0688B
:205D7C00012280F82620B06880F827107068877BE1793FB1B068012280F82820B06880F8B0
:205D9C0029107068C77B21793FB1B068012280F82A20B06880F82B107068077C37B3B068E5
:205DBC00012111226B4680F82C10294681201AF0E1FC9DF80000B16881F82D00B26892F81E
:205DDC002D1089B10EF06AFFB1680863B268106B002808BF82F82D5006D09DF800200DF141
:205DFC0001010EF0AFF800E015637068407C80B110200EF053FFB1688863B168886B40B142
:205E1C00012081F834008B6B1022622029461AF0B1FC7068616C877C37B1B068012280F885
:205E3C003C20B06801647068C77CE17A3FB1B068012280F84420B06880F845107068077DAF
:205E5C0067B1B068012104F14C0780F84610B0683A6847300260796841607068477D67B1F5
:205E7C00B068012180F84F101AF080FBB168026850310A60406848607068877D87B152202C
:205E9C000DF1110118F09AFF9DF81170B068012180F8581007B92946B06880F85910706805
:205EBC00C77D3FB1B068012180F85A10B06880F85B507068077E237A57B1B06801212A468F
:205EDC0080F85C1003B10A46B06880F85D207068477E617A3FB1B068012280F85E20B06800
:205EFC0080F85F107068877E5FB1B1680120184B81F860001F7807B10546B06880F8615061
:205F1C007068C77E4FB1B068012180F8621015F0B7FBB16881F863007068077F3FB1B06812
:205F3C00012180F86410B168E06B88667068407F48B1B068012180F86C10B168206C086713
:205F5C0001E00220707005B00120F0BD283F0020A14600202DE9F04FA34CADF1340DDFF837
:205F7C008C82DFF88CB2A0780591C90BCF035FD10598800805D30120059FE07087F00200D3
:205F9C0066E10598000938BF0020C0F0628158462A30A76A00780026B14600091BD21BF0AF
:205FBC0053F945468446AB8EE06A95F82220ACEB00018B4238D8B1FBF3F080B28242ACBF6D
:205FDC00C5B2151CB1FBF3F25A43891A88B2ACEB0000E06200E00125EFB1C846F878A8420B
:205FFC000ADD401BC0B2F87040B109F101061FFA86F93E467F680CE087F803807868002E78
:20601C0082460CBFC4F828A07060384617F0EAFA5746002FE2D1A078B9F1000F04D10021CE
:20603C00E162082114F032F8059880F008000FE113F010F9071C00F00881B87FC0B9788C49
:20605C00A56A132815D1B7F80290281C11D000260188894508D14568002E0CBFA5627560B6
:20607C0017F0C0FA284601E0064640680028EFD1A56AB87A97F831102E4602284BD178884D
:20609C0066B1DFF8D4C13288904204D1B2789CF8003091423DD07668002EF4D181468A46CA
:2060BC004646002D08BF002003D001200DB16B685BBBF18E81422EDD08200EF0EFFD96F89C
:2060DC00221040B3A0F8009080F802A0C17000234360A36A43B9A0629BF82A00000909D29A
:2060FC001BF0B2F8E06200E06860584690F82A00000910D3A078082116F012F858B9A0782F
:20611C00B28E08211AF0F3FE05E0401C1D4680B2CCE7F37096E0514805683878012806D0E8
:20613C00022840F08F80384612F006F88AE007F11004B81CBE8908943B7E0690FA7C0796CD
:20615C007969099397F819B00A923C7F0B9107F11C0604F00C000C280DD0B87F4FF0FE09B2
:20617C00FF2804D01AF070FC041C10D16AE0002D68D06C680FE0B088FE2116F0E1FE81461C
:20619C00B9F1FE0F5ED01AF05FFC041C5AD0207819F002FE05464FF6FF7A0BE0207819F019
:2061BC00FBFD054606E0B078FF284BD12D68002D48D06C68002C45D0AB68AAF1010823B9AD
:2061DC00A3680BB1B3F8028007E021780220984718B1B0F8008017F005FA33892278984504
:2061FC000AD03AB943B11CE070420020283F0020303D00209A4514D196F80280B27008984A
:20621C000090099B01930A9902910B9A0392CDF810B0079B069A304621460DF08BF886F888
:20623C000280307800F00C000C28BCD1B088494616F086FE8146B9F1FE0F03D01AF004FCAF
:20625C00041CABD1384619F02DFA059880F4004080B20DB0BDE8F08F4A3F0020AC460020B9
:20627C002DE9F04FADF1440D0B908069007800210DF12A020F909C2011F090FFB54D2878EA
:20629C0030F0010009D10020042118F0CFFC5FFA80FA9DF82A00504402E001204FF0000A5D
:2062BC008DF82A000F989DF82A10884280F2DE809DF82A000F99401AC0B20D900228C4BF86
:2062DC0002200D901A2110FB01F000B20EF0E6FC0E90002800F0CD800F980D9F0E9C0C907E
:2062FC00002F08BF002074D04FF00008B946012645460C9882450ADC0F9940468A4504DA04
:20631C00A1EB0A01C9B20C9163E00C9561E0411CC9B20C9118F09EFC071C54D08E48014612
:20633C00B0F8400055312080A01C1AF037FA388860820223E375FF222276B87A60768DF8D7
:20635C001C503888ADF81E0007A810F075F9AB46012808BFB34604F10A00BBF1000F06D1AA
:20637C0004F10A00FF21082210F0F0F802E008A91AF014FA3B797BB93F88002F04BF2575EA
:20639C00281C04D07448267590F85400401E207602206075A57515E06F4890F85400401CAD
:2063BC0020763879032804DB26753879032805D106E0022020753879012801D0667500E020
:2063DC006575A6751A34B9F1010908F1010890D140460D9981424CDD0D9DDFF87CB104F18C
:2063FC00020804F10A0702264FF0000A4FF001091A3C2D1A0C9987206A4611F0CFFE5849AF
:20641C00BDF80A0024F81A0F40461AF0C7F90DF1020138461AF0C2F9BDF800004D4B608299
:20643C00187830F0010003D16675A675FF2006E084F8159084F816A09BF85400401E207692
:20645C00E675638A9DF81200002B60760CBF84F814A084F814900C9808F11A081A376D1E7A
:20647C0000F10100C0B20C90C4D102E000200E900D900B98417C0D9F0E9D8DF82B10801C1B
:20649C0016210B9017FB01F0001DC0B28346401C0EF004FC5FEA000854D008F101040020C6
:2064BC00A2468AF800009DF82A000F9F88F802000D9E88F8037088F8046096B30D9F2E467C
:2064DC00241D06F102090A36204649461AF066F90834314620461AF061F90446A87C04F8D8
:2064FC00010B688A001204F8010B287D2070697D40EA8100C0B22070A97D40EA011004F843
:20651C00010BE87D04F8010B287E04F8010B687E09F11A091A367F1E05F11A0504F8010B2B
:20653C00D2D10E4D0B990DF12B0048F231025B462C1DC4F800A012F0FDFF404617F052F8EC
:20655C0009346C600E9808B117F04CF811B0BDE8F08FC046283F0020303D00208C3F002082
:20657C00853D00202DE9FE4F0D46074628687C68BE6800283AD01AF0F6FCD4F8BC108146F3
:20659C000120019008294FF0000088BF0198A968084202D16968084205D0019880F00100B5
:2065BC00C0B201281DD1D4F89400B8B9C4F89450C4F898500020C4F8A4000146C4F8A810E6
:2065DC0094F8D030C4F8AC10002BC4F8B0100CBF01980520D4F89810087411E094F8CC0032
:2065FC0038B90320287448461AF032FE0020BDE8FE8FD4F898004561C4F8985006232B743F
:20661C00D4F898000021416194F8D000012809D1022294F8CF308C49E06984F8D020194343
:20663C0016F050F9686810F0704F06D128B1042017F00CF8062017F009F8022017F006F82C
:20665C0094F8CC00DFF80482002840F08A80F0692968884240F2858094F8CD0020B1D4F826
:20667C00C000B0F1FF3F7CD148461AF0F1FDA868B24600280CBF04F1C807071C6868031CBB
:20669C000CBF04F1CA061E1CD4F8BC0009282CBF4FF0020BDDF804B0DAF80000D5F800906C
:2066BC004168B9F1000F41F00201416008BF191C32D04146A1F11008D4F8BC10092910D3AB
:2066DC00D8F800104A6831889047D8F80000C168DAF800000A4669469047BDF8000038806E
:2066FC000FE0D8F800104A6831789047D8F80000C168DAF800000A46694690479DF8000047
:20671C003870AB6803B15F44696801B15E44DAF80000B9F10109CFD1D4F8C450C3680022D3
:20673C001D4218BF019A102D18BF82F00102002AF4D111F0704F06D129B1062016F06CFFEC
:20675C00042016F069FF022016F066FFD4F89410002008740746C4F898703E46C4F89460AD
:20677C006EE0D4F8AC00002843D1D4F8B000002842D130791AF0F9FB4546D4F8A0002A6814
:20679C00316940685268006891FAA1F1B1FA81F1134602229847D4F8A0002A687169406863
:2067BC005268006891FAA1F1B1FA81F113460222984730791AF0D3FB30791AF0D8FB204698
:2067DC00314604F05BFF0021D4F89400C4F8B4100068B0F5806F03D92046314604F04EFFE1
:2067FC0094F8D20060B93168486840F00200486006E0D4F8B00018B92046314604F03EFFA2
:20681C003168486940F00100486148461AF020FD94F8CC00A0B9D4F8C01004F1740528465A
:20683C001AF056F860B1D4F8940003210174384605F096F8284600211AF04AF8002001904D
:20685C000198BDE8FE8FC04600000780D40100102DE9F04F0546ADF1240D06911AF083FB51
:20687C00A44CA54F012D079000F0D68020460068D0F838038047002800F0CA8013F03AFFD7
:20689C00002800F0C580214649683846896980690F783C30002F40F0BB80984C0068257898
:2068BC0080476168DFF850B2DFF85882AF00401AB0FBF7F6E068A1680027BA46524681462A
:2068DC004E4572EB0A0201DA814206D83A4650468E42904145DA084600E03A460146891BB5
:2068FC004FEAE573BA41084611462A4619F094FC4FF47A72002306460F4610F08BFE0DF0C9
:20691C000BFC534600F6FC024FF00001B61A9F417042B94122DA7A4802683946304610F00E
