:20000000003A0120A924020039FB021039FB021039FB021039FB021039FB021039FB021012
:1C00200039FB021039FB021039FB021039FB021039FB021039FB021011FB021002
:20003C002DE9F04FA54CA64F05460120ADF1540DAE7894F83EC039780F90287841282DDCEC
:20005C00412800F04086082813DC082801F05C82002801F0BA82801E01F0A482401E01F0EE
:20007C001183401E01F00A83C01E01F0888201F0BCBAB0F1090101F04082AB48DFF8AC825E
:20009C00C91F1C292CD92A3900F04886491E01F0E582481E01F0DE8201F0A7BAD72813DC3B
:2000BC00D72800F0B181433800F0FC85801E00F0D8855B38212832D92D3801F0A282401E6D
:2000DC0000F0288301F091BAD83868D0093801F09282C01E01F08B82801E44D001F085BAE1
:2000FC00DFE811F0020AC709AB09830AC70A94098409830A76096909830A42090F09830A09
:20011C00C30AC00A46081B084307830A2A0717070E070307F306830AE306DD067A06DFE8DD
:20013C0010F0950A910A8D0A9A05890A850A810A96057A0A7A053C050D05E404D104C10413
:20015C00B204A6049C049304750A87046B0443040704E503D803650359034E03640A640A6D
:20017C00640A210303036868002801F08F82A54C01886180807A60B92AF0F9FB40F28A2178
:20019C00B0FBF1F220780821521D2AF07FFC01F07DBA788F0F9929F09AFB01F077BA686879
:2001BC001095002800F02A810468A07E28F00CFC071C08BF022000F00381D4F81C80002603
:2001DC00354698F80000A84200F3FD80042101EB0011C8B280191CF0F3FB0028119000F0B6
:2001FC00EE8024F08DFC002840F0E680119800210E46017045E04FEA860A08EB0A0794F80D
:20021C001AB0B4F80C90119DBA885846494625F06DFF129008AB08EB0A00BA880E90584642
:20023C0023F087FD129905EB06152D1D07F1040AFF2918D0B8B1AB489DF827700168F80804
:20025C0038BF8C2010D39DF82600129F1622287102FB0710C188E980018900F10E032981C3
:20027C000020EB6000E0862028700E9880786870BAF80000119968800878761CF6B2401C09
:20029C00087098F80000B042B5DC119EA07EB4F80CA094F80A9004F10E07002112973278EE
:2002BC000E9035460C468A426ADC20462AF096FC5FEA00085DD00246002642E00043002022
:2002DC00783E0020300129182818077902F8017B477902F8017B877902F8017BC7883F1238
:2002FC0002F8017B07790B1D4FBB4F7907BB087A02F8010B887A02F8010B4889001202F8C3
:20031C00010B087B02F8010B8889001202F8010B087A834629F06AFB88B10969584617F0EA
:20033C00ABFD02460BE0C046DC400020B4480020987A02F8010B5889001202F8010B761CC5
:20035C00F6B22878B042BDDC002100910F98019002900391CDF810900594CDF818800791AB
:20037C0012990E98524609230FF042FE40462AF06EFB284626F07CFA29F0BCF900201FE01D
:20039C00080143191F79241DA4B297B92818401D077867B9C078034629F028FB641DA4B28D
:2003BC0038B118461CF069FC001984B201E0A41CA4B2491CC9B276E7119826F059FA1020A4
:2003DC0010990E91A3E108EB85023878A189928808AB23F0AEFC70B19DF82600014629F01B
:2003FC0005FB40B108461CF048FC410824BF401CC0B23618F6B26D1CEDB2E2E628460E9066
:20041C0000F093BD8C47002068680E95002800F08C8500681090807E28F0D6FA002800F0EB
:20043C0075811098C06911900078002800F06E818000801C1CF0C4FA0028129000F0648134
:20045C002AF092F824F05CFB002840F05A8100251495139511980078A84200F3E0801498BE
:20047C00012840F08D80BE4DA878EA68162111FB00F081B256202AF037FA05F10C0640B955
:20049C00A8783268162111FB00F081B2562029F098FF6078802122F085FB2F78B8001CF084
:2004BC008FFAB8465FEA000B6AD02E78B8F1000F0CD005F11800594642784A70428810F8DE
:2004DC00144B4A807F1E01F8044BF5D1002E3DD037464FF000094FF0140AAEB305F118045C
:2004FC0012E0C046C4540020002808BF4E4607D041680668216126F0BBF9207B401E207367
:20051C00304626F0B5F92E7820690028ECD1761EF6B216FB0AF2A01841886180417861703C
:20053C00C188E1808188A18001890C30218109C804F10C0181E80900105D2070A318C3F8AB
:20055C00109083F80C902E707F1EC6D10FF0EAFEB8F1000F11D018355C4647466078618839
:20057C0026F0A4FAFF2804D02678810001EB00116E547F1E04F10404F0D1584626F078F952
:20059C0013981299087018B9002088700F9F0F70109890F81AA08689857A00F10E0908460D
:2005BC0000780C46800080462AF018FB071C1ED0014600202278824222DC012A03D1A478F3
:2005DC000CB9DDF83C80002000900F9901910291039004953246CDF81480072306974946D9
:2005FC00079050460FF004FD38462AF030FA129826F03EF929F07EF826F072FE002086E05E
:20061C0004EB800293780B70D3784B7013798B709288401CC0B21212CA70091DCAE7109875
:20063C00119EB0F80C9090F81AB006EB0516371DB61DB6F8008049465846424625F056FDDB
:20065C00824608AB584623F074FBBAF1FF0F48D0002846D03B78002B50D19DF82600B178F1
:20067C0088423CD19DF82700C00836D3CD48B18800684FF6FF728A4201D1F688CEB1FB8870
:20069C00162101FB0A06F38038893081387929F0ADF9F8B10E360021042230461EF07EF878
:2006BC0038791CF0EAFAF968024630461BF092F810E0162101FB0A067089F080B0890422CE
:2006DC0006F10E070021308138461EF067F81236306838600F98149010E08C2102E08D2145
:2006FC0000E087211298139A00EB820081703978C1707988561C8180F0B213906D1CEDB2DE
:20071C00A8E6129826F0B4F8102000E002200E9D2C46DCE06868002800F00784686800680D
:20073C0026F0DEF900F070BE6868002800F0FD83002069686870097851B984F84200607F39
:20075C00401E60770F98014626F0E2FD00F09EBF2AF08EF80F98014609F0F8FB00F096BF59
:20077C00B85400206868002800F0DF83067847680021082208A81EF011F8E7B1D0480021D7
:20079C000170AEB1761E0ED0761E0AD0761E03D0761E10D10F990170384608A91BF0CBFA99
:2007BC000AE00F990170384608A924F043FD03E022F07EFF00E002202C4606467CE0686839
:2007DC00002800F0B283686800F1120124F032FD00F01ABE6868002800F0A7836A68107865
:2007FC005188928817F090FC00F00EBE2C466768002F00F09A83B8880E9097F800907D881C
:20081C00FE88B7F808B0CC4807F10A0A07791096002F5BD0C7490F68002F55D080467868AE
:20083C00007881454DD128F025FD002849D0037C002B46D04669002E43D000200C22834202
:20085C0042DD10FB02F1715A8D4237D10E201CF0B7F8071C3AD0002607F10A0004235B1EDF
:20087C0000F8016BFBD1BE80FF2038704FF6FF737B803E81FE8087F800907D800E9ABA804A
:20089C001099F9805146A7F808B0096807F10A03082019601CF094F8D8F8141018B938463A
:2008BC0025F0E6FF12E007604160C8F8140098F81000401C88F81000304608E0401CC0B29C
:2008DC00BDE73F68002FAAD1022000E00F98254647E36868002800F028830020687068686E
:2008FC001FF0F6F8A968088000F0D0BEA868002800F01B8300216970AD68267860786F1CF2
:20091C00002E08BF29700ED0402124F093FB4FF47A710F2300F2E730B0FBF1F116FB031032
:20093C000F3828702678002F00F0B086304688E0AF68208F94F83B1094F83A2094F83C3070
:20095C00666B94F83DE094F83F8094F8409094F841A094F842B0002F00F0E78200276F70E1
:20097C00AF683881A868C172A8688272A8680373A86880F80EC0A8684660A86880F80DE03D
:20099C00206BA9680860A86880F80F80A86880F81090A86880F811A0A86880F812B000F085
:2009BC0075BEC046C45400206F68002F00F0BD82002068706868077D17B1C07C84F8410068
:2009DC006868877D17B1417D84F84210077C17B1C08920876868077B17B180686063686803
:2009FC00877C1FB1407C84F83D00686807790FB10068206300F04ABE0021BCF1000F6970EA
:200A1C000ED094F83B0080090AD208A808221DF0C5FE29F0CDFC08A81CF0EAF800F036BEA2
:200A3C0029F0C6FC4FF4FA7028F0D4FA00F02EBEA868002800F079820020687029F0A4FD7B
:200A5C00AF68387000F022BEB348A9680078002900F06B8200216970F2E76868002800F0A6
:200A7C0064826868007822F0C5FF00F0CDBC6868002800F05A82002068706868007807F0E2
:200A9C005FFE00F003BEA868002800F04E820020687023F0D9FB002808BF0F9800F02E821F
:200ABC000078CDE76868002800F03F820020687069680888897822F0C9F800F0E7BDC0467E
:200ADC00384100206868002800F02F826868C14A036802F10C010B6040684860686801896D
:200AFC005180807A1070002008E26868002800F08F800188ADF830104088ADF832000CA9CC
:200B1C00532024F0D7FF50200DF1320124F0D2FFE1200DA927F0B4FC68689DF83410007936
:200B3C00884273D08DF834000DA9E12024F0C2FF6CE0C046C0480020B854002068680028A9
:200B5C0066D0007825F02CFE686897F83C104078884213D087F83C000DF13501E12027F075
:200B7C008FFC68689DF835104078884206D08DF835000DF13501E12024F09CFF68680F9EB1
:200B9C00407806FA00F0F86428F052FD0024A7F89440304621F0D2FC3BE06E68C6B374887C
:200BBC007C87307887F84A00736887F83C303189F987FB647089A7F84800307B87F85C00E0
:200BDC00707B87F82900B07B87F8270032697A65706997F89640B865307EA04201D025F04A
:200BFC00DFFD696807F15D00193129F03FFB97F84A0007F12404082808D1212074212246FA
:200C1C0029F0DFFB0020022125F0D8FC002400E002242046A5E169680029F9D0088849885F
:200C3C0026F07CF870B9696808880F9A498825F04FF869680888498826F070F8002808BF0F
:200C5C00C824E6D069680979417000F0E9BC68680028DDD003E06868002800F08481122096
:200C7C007FE16868002800F07E810A300778002F0CBF00220F9A47780FB142F002028778DF
:200C9C000FB142F00402C7780FB142F00802007908B142F04002696808880023891C25F021
:200CBC00EDF9B1E36868002800F05D8102206F688DF828003988ADF82010FA78B97808A849
:200CDC0021F08CFBA0E36868002800F04C8102218DF8281001884FF6FF70884205D0821ECC
:200CFC008A4202D0C01E88420BD129F037FDADF820006868C27A837A811C08A823F0BCFE81
:200D1C00687068680188ADF82010C27A837A811C08A823F0B1FE77E3904500206C68002C1A
:200D3C0000F0218102238DF828302188001DADF820102279B4F80680267AD4F80CB0277CD0
:200D5C00D4F814A0618804680E92F2190F2000EB42005FFA80F9B9F14E0F00F39E8029F098
:200D7C00FDFC884233D121700812607028F070FEA41C0146204629F079FA04460E98207016
:200D9C0084F801804FEA2823A370E670241D66B15846A41E017804F8021F30F8021B761E26
:200DBC004FEA21216170F5D1A41C27705FB1641E5046017804F8021F30F8021B7F1E4FEAD5
:200DDC0021216170F5D1C44820224B4661E01846C7E0C046244200206A68002A00F0C3803E
:200DFC0002218DF828101188ADF82010538894889679D2F80880177BD2F8109042684FF04C
:200E1C00060EF1190EEB41015FFA81FCBCF14E0F43DC82469DF828000F2818BF022808D1C8
:200E3C00BDF820004FF6FF71814204BF891EADF820104FF6FF71994208BF8B1E02F8013BD4
:200E5C00191202F8011B02F8014B201202F8010B02F8016B66B14046921E017802F8021F70
:200E7C0030F8021B761E4FEA21215170F5D1921C17705FB1521E4846017802F8021F30F87C
:200E9C00021B7F1E4FEA21215170F5D150467246634608A921F082F863E0102061E06868C3
:200EBC00002860D00220052214E0686800285AD002206F688DF828003988ADF820103A7970
:200EDC00798808A828F0C6F818E0686800284AD0022002468DF8280068680188ADF8201020
:200EFC00418808A828F0CEFB8EE2686800283AD06A6810889178D27825F0BEFD044688E6C5
:200F1C00686800282FD06868017A427A20F040FC7AE2686838B341788DF8201081788DF868
:200F3C002110007828F0CAFB08B90220E6E708A909880C300180D6E56968A1B1A86890B131
:200F5C00087808A928F0ACFB6868A968007808709DF82000A96848709DF82100A968887077
:200F7C0000202C46D7E00220FBE72C466368002B00F0D080187D28F0E7FB002800F0CA806F
:200F9C00187E19331F788DF83600002F0CBF002002205F780FB140F010009F780FB140F0E7
:200FBC000800DF780FB140F020001F790FB140F040005F790FB140F0800081466068007D8A
:200FDC0029F0CAFA051C00F0A5806068817A8DF829108189ADF82A10017802298DF8281017
:200FFC000DD001290BD00F2909D003290AD1801C026808A90A6040684860606802E04188F7
:20101C00ADF82010877B002F74D078001BF0D8FC061C08BF10207ED000216068877B8F42F0
:20103C0062DCC18A038C426A0E950C2F109190F81FA01193BDF8208012924FDA404620F0AE
:20105C0051FF0C2816D14FF6FE7020F04BFF0C2810D1DFF80CC30F999CF82C3100200CF587
:20107C009A7C1CF8082B9342C4BF131C081C491C0C29F6DBBB4D4FF6FE7305EBC00568689E
:20109C006B8018B125F0F4FB0020686077B14FEA470B58461BF094FC6860002808BF1020C1
:2010BC001DD0686831465A461AF094FBC748A5F80280129B00786F700DF1360728700E99FB
:2010DC000093109A019708A8CDF80890119BCDF80CA00DF01DF802E0DC40002002206070D3
:2010FC00304625F0C5FBD1E200694A00105A491CB05292E7416A00910DF136070197CDF805
:20111C000890C17F0391C28A038C294608A80CF0FFFF00E00220254676E16868002800F0A7
:20113C006282007828F010FB071C00F05C82387B22F03AFC0028687040F0A882404645689B
:20115C00002D00F0A3822E46002116B9B74202D09CE2B74209D1BD4219BF38680860396831
:20117C004160384629F063FC90E231463668ECE76868002800F03782007828F0E5FA00282A
:20119C0040F0BD8028F00CFD042800F38D81002730466F7028F0CAFA041C01D0207B68B17B
:2011BC001C201BF00DFC041C00F0708239461C221DF0F4FADDF83C90267100E0B946686822
:2011DC00007820736868007A46462076B01C206114201BF0F5FB0028606141D03946142251
:2011FC001DF0DCFA6968626949689079897900F0F00001F00F01014391716868406861692F
:20121C00808888806868406861690078087068684068616940884880686840686169C07923
:20123C00C871686840686169007B08736069C07940001BF0C5FB616988606669B06818B1B2
:20125C003846F179814250DC307B40001BF0B8FB306161690E691EB138460A7B82423ADC74
:20127C0004F10C00804617F0D7FD0646022E18BFB82E06D1207B22F097FB404617F0CCFD0B
:20129C0006463EB9B9F1010F20D1204624F066FFC8B11BE0B9F1010F15D0606968B1836885
:2012BC001BB1184625F0E4FA606903691BB1184625F0DEFA606925F0DBFA404639461022BF
:2012DC001DF06CFA02E0204629F0B1FB022E16D0B82E14D0DAE16B685B6842001B69096909
:2012FC00D35A53526169401CB7E76A68526841009268B3688A5ACA526669401CA1E7D020B7
:20131C0082E06868002800F06E81A868002800F06A81002108221DF041FA696808784988B0
:20133C0026F036FC071C19D00020A968687038880880A968B8788870AC68A078002800F06F
:20135C00A5811BF03DFB6060AA685068002800F09D819278F91C1AF03DFA97E1B12053E06C
:20137C0090270020BC2800206868002800F03B81A868002800F037810020C64A6968687019
:20139C00176809783FB13A79914204BF401CC0B23F68002FF7D1A9680870A868007840003B
:2013BC001BF00EFBA96848606868A9680078496827F07AF86AE16868002800F014810020C9
:2013DC0068706868007824F093FB5FE191400020022069686870002900F0588108784988F0
:2013FC0024F0A4FB002800F0518119E16868002800F0F980807800280CBF00220F9A686853
:20141C000F9900881EF0CEFE68703FE16968002900F0E980887828B1C87800280CBF0F99A7
:20143C00032100E000216A68107908B141F040011088527913F0FAFEE6E76868002800F0D2
:20145C00D2806968091D0A6808A8026049684160032028F05DFB6868C07B25F0F3FA6868E1
:20147C00817B009102788389418808A816F06AFACAE76868002800F0B680304628F056F9AE
:20149C00041C13D11C201BF09BFA041C00F0FE8000211C221DF082F92671204624F05EFE6E
:2014BC0020B9204625F0E4F9D120ADE7E0887A4940F00800E08040F00400E080022029F0C8
:2014DC00BFF97649032029F0BBF968680168089100798DF824000F9F8DF825708DF82670B2
:2014FC0008A81FF075FF8FE7686800287BD068680088002104F0A4FCC8E06868002872D0F5
:20151C006868007878708BE065486E680478002E69D000216970686824221DF03FF9788F52
:20153C00696808806868B7F84860847269688E81F88F696807F1240606F13903C882686872
:20155C001A680E3002605968416028F081FA6968891C026840680A6006F11C0348606868D8
:20157C005C68183044601968016097F83C1068680F9A80F82310696881F8212086E06868FD
:20159C00002830D090F90040464800680DF13701D0F830248DF83740E0209047A86800B162
:2015BC0004703DE06F68F7B100200F9F687069680F7069684F706868022686706868062491
:2015DC00C470696803230B7160E0686858B1407818B1FF20032124F0F1FF29F0D7F80F98D8
:2015FC0031490860FEE702200EE712200CE729461DF01AFC49E000202C496870EF780F70BE
:20161C0044E00020687019F0E3FA3FE00020687026F0D4FA3AE008464FF4807120F0AAFB60
:20163C000020F1E629461FF097F82EE0294613F01DFF2AE0294618F0CBFF26E0294628F016
:20165C00B3FF22E0294621F0BFFF1EE0294621F022FC1AE029461EF0E2FA16E0294619F01F
:20167C007BFF12E028F078FACEE6294620F0EAFF0BE03046294608F00DF806E0294606F024
:20169C00D7F902E0294606F0C7FE0F900F9815B0BDE8F08F7C490020814D0200D9A20200F1
:2016BC00A03F0020140100207C052043FC3C00202DE9F04FB44D2021352205F1DC04ADF13C
:2016DC00140D20461DF06AF8671CA04605F1540605F1500005F1DD010160044600F19F01E9
:2016FC00019105F2011005F1EF01A865A86C31604FF4FA7129F08FF905F1940029F032FA7E
:20171C00E86AA96B8446A86AAD36884200F08F832E79AB7AB0480296B04F0493428D297A58
:20173C00DFF8BCA2DFF8BC92EE6B3B78BCF1160F0FF2682B0FF28C2EA0A001966F7A0393B0
:20175C009BA300F2B583DFE81CF066035B03D300B0005903C9029F00A0028A028E007F00E7
:20177C0070003A021A02570076030402EE013E00C3011700760391012068CBA10C221AF070
:20179C0029F8381C15D0FF380CD06068CAA110221AF020F86168384610220223093121F050
:2017BC0004F90EE0C9A160680A8802808978817007E0D1A160680A6802608F8887808E79D0
:2017DC008671CFA192E04FF6FF7090420DD02068D0A1102219F0FEFF7F482168408D102231
:2017FC000423891D21F0E1F804E020685946102219F0F0FFD2A179E04FF6FF7090420DD0B2
:20181C002068C4A1102219F0E5FF73482168408D10220423891D21F0C8F804E020685946B4
:20183C00102219F0D7FFD1A160E0090904D21A4660685168416005E0024660689188818050
:20185C0097798771D4A11CE0890804D21A4660685168416005E002466068918881809779EB
:20187C008771D2A10DE0C90804D21A4660685168416005E0024660689188818097798771B4
:20189C00D5A11268026031E00498012818BFD7A12CD1DBA120680A6802604F6847600E89EB
:2018BC0006816668D9A10E22FFE22068DBA1102219F090FF6068DEA1102219F08BFF039AB5
:2018DC00E88A82B1002808BFDEA10FD0E2A2A168136812790B6003230A710A22A168491DC0
:2018FC0021F063F8E4E20020DEA1E882A668DBE20298EF7AD5F8309000260128A7F1070741
:20191C0072D02068DCA1102219F064FF494620680988B7F1FF3F018003D0022F18BF002FAD
:20193C0034D1686B38B1696B20680968C01C016020682023C37137F002005AD1E64FE5480B
:20195C0079780078C9B1802123F074FBBB784FF47A7100F2E730B0FBF1F15818C0B260B17B
:20197C00D0A22168126808310A60216803230A220C3121F01AF801263BE0CCA120688A88AF
:20199C000830828007E0C04604380020C9A120684A68C01C4260096801602AE0202020202A
:2019BC003078464646462028616E792900C046C044495341424C454400C046C0454E4142B8
:2019DC004C4544003132333435363738393031323334353600C046C078400020D8470020F7
:2019FC0030430020344300202068E4A1102219F0F1FE6068B2A1102219F0ECFEE869616810
:201A1C0000880A220323891C20F0CFFF287B6B46B82100221EF008FF61689DF800000A225F
:201A3C0003230A3120F0C1FF6168E87802230E3120F0BBFFE8699DF80070018857EA0100E1
:201A5C0003D1286BD9A1814200D00126A068DEA1102219F0BFFE002E00F02A82A86CFA2157
:201A7C0028F0D9FFDF4829F07BF821E2216805F15C00102225F083FA6168102205F16400B0
:201A9C0025F07DFA21680020087461680874A0681022DCA119F09EFEA16805F16C00042247
:201ABC0025F06DFA04E2C0464C617374207374617475733A00C046C04552524F5220283048
:201ADC00782020292020202000C046C02D2D2D00216805F15C00102225F051FA61681022D4
:201AFC0005F1640025F04BFA21680020087461680874D2A1FAE6C04653554343455353003A
:201B1C003C41504C5920494E535420434F44453E00C046C0202020203078202020202020B2
:201B3C002020202000C020687146102219F052FE50466168006827F05AF9C5A1D6E6C04626
:201B5C00202020202050414E204944202020202000C020687146102219F03CFE48466168D2
:201B7C00006827F044F9BFA1C0E6C0463C2020202050414E204944202020203E00C0206833
:201B9C007146102219F026FE50466168006827F02EF9B9A1AAE6C0463C46494E444E472B01
:201BBC0042494E444E47203E00C046C03C204E574B205354454552494E47203E00C02068C0
:201BDC007146102219F006FE48466168006827F00EF9D7A18AE6C0463C4E574B20464F52F5
:201BFC004D4154494F4E203E00C046C03C20524553455420544F20464E20203E00C046C043
:201C1C00526573657474696E672C00C0506C6561736520776169742E2E2E00C0202020200E
:201C3C0047502050524F58592020202000C046C020434F4D4D495353494F4E494E472020AA
:201C5C0000C046C020202020454E41424C4544202020202000C046C054494D452000AAA137
:201C7C0044E6C0462020202044495341424C45442020202000C046C078782020202020206A
:201C9C00202020202020202000C02068ADA1102219F0A0FD6068B0A1102219F09BFDB3A17A
:201CBC0024E6C0464F70656E00C046C0434C4F53454400C04E6F744F6E4E776B00C046C042
:201CDC00496430303020537263683030302F303000C046C0783E0020A8470020D04A0020F7
:201CFC0011780B110A2BACBF37213021C9182368C15412F8011901F00F0301F00E010A29FF
:201D1C00B4BF30213721C9182368401CC0B2C154401CC0B21028E3DB206800210174606892
:201D3C00102297A119F056FDBE4E6168B6F8480010220423491C20F038FE6068202747712B
:201D5C00616896F83C0002230A22C91D20F02DFE606847726168708F042310220B3120F074
:201D7C0024FEA0688BA119F035FDEF7A3846801F3AD0401E0BD0801E2FD019E0506C6561D5
:201D9C00736520776169742E2E2E202000C028F04BFB00280CBF84A185A1A0680A68026078
:201DBC008A8882808979817182E0C0462D2D00C081A1A0680A68026049684160A1680323FE
:201DDC000A223846091D8BE53C2020434F4D4D495353494F4E20203E00C07AA1A068098838
:201DFC00018065E09838002077A1A0680A68026009790171F08F042310226FE574A175E58E
:201E1C0078A173E520202020202020494E535420434F444500C020680199102219F0DAFCE9
:201E3C00606875A1102219F0D5FC78A15EE56A6ABCF1000F29D139A158E5C0463C53455471
:201E5C0020494E53544C20434F44453E00C046C020534543204348414E4C204D41534B2090
:201E7C0000C046C020505249204348414E4C204D41534B2000C046C03C53454320434841BA
:201E9C004E4C204D41534B3E00C05FFA8CF02146904721683846102219F09CFC61680198F3
:201EBC00102219F097FCA1681022304619F092FC6979EF79FF2910D0A86C27B954F821201D
:201EDC00A9792023535487F001074FF4FA71EF7128F0A1FD544828F043FE0A2788F8117070
:201EFC0088F823700C2088F800000D2188F8121088F82410A86918B14146352228F050FD66
:201F1C0005B0BDE8F08FC0463C41444420494E53544C20434F44453E00C046C03C2020203C
:201F3C0020204241434B20202020203E00C046C03C505249204348414E4C204D41534B3E59
:201F5C0000C046C041204420746F206D6F7665202020202000C046C0572053206368616E36
:201F7C0067652076616C756500C046C04520746F20657865637574652020202000C046C0D5
:201F9C006E78787878206378782061787878782000C046C0202020202020202020203C4958
:201FBC004E464F3E00C046C05A522043454E54005A522044495354005A52202820202029AB
:201FDC0000C046C05A4300C05A4544207000C0463C202020415050204D454E552020203ED9
:201FFC0000C046C03C2020434F4E4649475552452020203E00C046C07072657373204520CB
:20201C00666F722068656C7000C046C03C202020202048454C5020202020203E00C046C025
:20203C005B2F0020783E0020983800202DE9F04704464FF6FE70ADF1600D217AADF854002B
:20205C00606808AA13F06CFE002800F043849DF822000228B4BF012700279DF82400022818
:20207C00A8BF0027BDF82A1000254FF6FE70801F88420ED04FF6FE70401F884209D04FF6AE
:20209C00FE70001F884204D04FF6FE70C01E884200D12F4628F05CFB9DF82310884240F027
:2020BC001984002F00F01684208D9DF82660678EADF84C00ADF82E7056B161689DF8212017
:2020DC009DF83C30012027F0FFFC002840F002849DF82570DFF8F8A2DFF8F8821695002F0C
:2020FC004CD19DF83D002F4658BBBDF82A00034622F060FF3E46022808BF0126002E9DF855
:20211C00226018BF012751460988994208BF47F0020727B1002E14BF402120210F431846ED
:20213C0022F048FF012808BF47F00107002E3ED01298007828F0F4F8012818BF27F001077A
:20215C0035E09DF8411041B1FF2906D09DF84000119A24F05DFC50B129E0B8F83A00BDF8E2
:20217C002A10884206D098F84A0004281FD1012016901CE09DF82660222721E0BDF82A105C
:20219C00FF2025F005FD002804BF3E1C082708D09DF8250047F001062C2740F001008DF8A0
:2021BC00250006F00306012E08BF47F01107169B9DF8266007F00200184308BF47F08007F5
:2021DC0096B998F82F0078B107F0220022280BD007F04200422840F07D831298007806284B
:2021FC0018BF072840F07683B8111690F80954D398F832001299BDF82A2080080AD20878AD
:20221C00C01E01282AD9001F28D0C01E26D0801E24D003E00878401E0A281FD9F5B9B8F8D2
:20223C003A00904240F056830D780520BDF82C408DF8110004A826F00DFE002800F04A835A
:20225C000269032313271370511C0F704C7022128A70CD7044800AF039F83BE316984008FE
:20227C001BD30878032802D148780D2815D09DF8280038B1BDF82C000E990DF089FF012820
:20229C0000F024839DF8270038B1BDF82A000D990DF07EFF012800F01683B8F84800B4F891
:2022BC004410884208D10095208DB4F8421094F846202B4613F048FF9DF82600002847D024
:2022DC00208DB4F8421024F029FD9DF85190061C27D1B9F1000F13D198F89000012839D17D
:2022FC0012980078062802D11698400832D2BDF82E104FF6FE70401C884240F0A580E9E2B9
:20231C00042026F0FDFC011C00F0E4826420087001274F70208D488098F8000021F03AFACE
:20233C00D8E29DF82130606819184A7BF1788A4202D0F27075606068C0180421401C26F0AE
:20235C00D6FF7168814200F2C582401C706001E09DF8519098F832008008C0F0BB82B9F153
:20237C00000F0BD0BDF82C0027F065FB002800F0B1826168487800F0DF0048709DF83200DD
:20239C0038B161688879401E8871C0B28DF8320008B907F07F07380928D39DF82500F908B9
:2023BC004FF4805518D279091ED3811011F0070F01F0070604D0072E1CBF761EF6B20EB9FF
:2023DC0007F07F0700F0E30040EA8600C0B209E0B23E0020783E002020F01C00C11021F092
:2023FC00030108438DF825006168087298F84A00042800F0EF81092800F0EC8117F0610F1A
:20241C0040F0E9809DF82200012811D112980078052800F0D98003280AD1BDF82A0027F0B1
:20243C000AFB28B1218D08A815AA002300F0AAFE9DF8320068B99DF82200012804D1129883
:20245C000078032800F0468208A8214620F0A2F840E226F0A6FF002840F03C829DF83D007F
:20247C00002870D1FA109DF82400BDF82A1016920028ADF854102ED13A0931D29DF8222030
:20249C00012A28D0084600211CF0E2FE002620B14079012816D0022814D0BDF85400B4F820
:2024BC00441024F03BFC28B1807826F06DFC08B1082807DBBDF82C0027F0BDFA18B10420AA
:2024DC008DF824000126BDF82A10002E08BF022274D09DF82400169A520838BF002300D314
:2024FC0040230DF13D021CF0EDFE30B16168087845F0200500F03F0008709DF83D0040B13B
:20251C00BDF82A1010A822F035FD45F04005ADF854009DF82200012806D0BDF82A00BDF8F7
:20253C002C1000221AF01EFF169840082CBF40220022BDF82C10BDF82A0016F037F908B1D6
:20255C0045F0200533E09DF840009DF84110119A24F05EFA00282ED09DF8410038B9BDF87E
:20257C002A00ADF8540028F046FA00BB1DE011999DF8286001EB400030F8020C002EADF810
:20259C0054000CBF082010209DF827600EB10830C0B29DF82560002106B1012140186168EE
:2025BC00401CC2B2505C401E505445F0400526F08DF9169098E0BDF82A100B22BDF82C0050
:2025DC00002321F0F1FF85E1218D08A815AA002300F0D8FD7EE10020169078085FD3B4F8CD
:2025FC0028909DF833C0BD4E09211698F279944506D1BDF82C303288934201D1B3782BB900
:20261C00491E06F1080600F10100EFD1092825D096F806A0BAF1000F1DD0B8F848104846E9
:20263C0025F0A8FB10B1AAF10100B071AC4815210279FF2A02D00288914504D0491E00F11C
:20265C002400F5D102E0B079401EB071B0792628A4BF1698B07127F0600720E026F036F97E
:20267C0016909DF8320020B9208DBDF82C10884215D0218D169A08A811F0A2FD58B13809B3
:20269C0032BFBDF82A004FF6FE70401C45F00405ADF8540003E0002027F020071690B80960
:2026BC004FEAA71610D394F8473094F846008DF81130E26B94F948308DF8100004A908A846
:2026DC008DF8123004F0E6FD70080DD3218D169B08A815AA00F056FD169028B11298007836
:2026FC00012808BF45F01005BDF854104FF6FE70884204BF002116917A490978012924D100
:20271C00218D421C8A4220D0BDF82A20401F90421BDDBDF82C00884217D028F06CF9A0B14D
:20273C000179012918BF02290FD101218DF810104088ADF81C0004A820F000FC28B105A869
:20275C0020F024FC08B125F05FFE37F07F0000F0C1801698002800F0BD8020891AF030F94C
:20277C00071C00F0B7806168228919F033F8002605969DF822008DF8100016990091B14607
:20279C00019504ABCDF80890BDF854100393228D237A384617F00EF9C0B998F801000028C2
:2027BC0000F09880BDF82A00ADF81A004D468DF81E508DF81D50BDF82C70ADF81870169EAD
:2027DC008DF81C6006A827F063FA83E0384624F04FF87FE05146BDF82A000988814209D07C
:2027FC0022F0E8FB022805D09DF8250000F0030001286FD19DF82200002852D0129801788F
:20281C00042903D19DF83C10022945D00178072905D19DF83C2098F80000042A06D003294A
:20283C0058D108A8002115F04BFA53E04FF4806120F0B8F92C4A908827F0A2FFD08827F06B
:20285C0099FF284F0021092088F84A00F81C017027F0FEF801460D9826F0E6FF012839D18D
:20287C00102026F04DFA07460E991298401C8FB302223A704378027802EB03227A8080786C
:20289C0078704A2023F016F99DF8260010B917490520087039463FE5002008A90CF048FB74
:2028BC0018E094F8460094F8477094F948608DF81000E26B8DF8117004A98DF8126008A87E
:2028DC0004F0E8FC06E0BDF82A0001E0BDF82C0020F0B4FD18B0BDE8F087C0462428002066
:2028FC001C2C002092400020A8470020A03F00206E4A2DE9F04FADF14C0D10780F91C90B54
:20291C00CF0340F010840F999046890B80F0E1830F99890980F024830F99490980F0A6823C
:20293C000F98DFF898B1C00980F02D820F98000A06D321F091FA0F9880F0800000F012BC51
:20295C000F98DFF86C91DFF870A1400A80F0B8800F98000B80F093800F9998F80300490B42
:20297C0080F083804C460F99606AC90B67D20F992078890835D20F98E188800A14D20F98B8
:20299C00C00A0FD34B4A908827F0FAFED08827F0F1FEB8F84800012122F04CF80F9880F4CA
:2029BC008060DFE30020DEE3B8F84850A8F848105020A11D23F07EF8E68810275446608959
:2029DC00854205D0864204D0204627F002F800E066817F1E04F11C04F1D10F9880F4007066
:2029FC00C0E340B301A828F00AF827F0A5FE59460546032091F8208091F821608DF80D00D6
:202A1C0003A826F027FA071C15D038690B2100F8011B00F8018B06700126BE7727F018F852
:202A3C0078627D807E7701A838620023BE763846237009F04BFC0F9880F0020092E380B104
:202A5C0059460F31097801290BD18047A06A00B1804798F800004FF480414FF47A7228F0D0
:202A7C0012F80F9880F480407CE320B1002088F8030021F057FF0F9880F4805072E321F0CA
:202A9C0051FF5946087A01280BD1497A49B198F800004FF47A7212FB01F24FF4006127F06D
:202ABC00F2FF0F9880F400605CE3C046783E00206C420020A84700205C2A00207840002018
:202ADC0027F04CFE4FF6FE71814200F0588198F832008008C0F0538100252C46284625F051
:202AFC0007FC071C19D03879012816D0022814D0F879411CF97198F88B1081420DDABC72A2
:202B1C007C72388824F08CFB388801A925F048FE01A820F03BFA25F077FC6D1C152DDDDB92
:202B3C00AAF11C051026129435F81C0F4FF6FE7181420DD0287B98F88B70411C8742297345
:202B5C0006DA20462746A87428886F7424F068FB761EE9D14C46032104F1380010F8047FC4
:202B7C000FB17F1E0770491EF8D1B84E4FF6FE79152709F1010936F8240F81451FD00120FC
:202B9C008DF804007588ADF8105001A820F0D6F9A8B1AAF11C04102534F81C0F31888142EA
:202BBC0008D0BDF80610814204D002A8A11C26F03BFE10B1204626F00CFF6D1EECD17F1EDC
:202BDC00D9D1129C1094204625F092FB58B1017931F0040107D1807A26F0D6F818B1109805
:202BFC00401CC0B21090641C152CECDB25F0C4FF129D061C0ED02C46204625F0D1F828B1AD
:202C1C00807C26F0C1F808B16D1CEDB2641CE4B2A642F1DC10984019C7B2002F40D0B800B0
:202C3C0019F0CEFE1190002808BF129F3AD0BA00FF211BF0B3FD129C25461098A84218DD23
:202C5C00204625F055FB031C10D0187930F004000CD1987A26F098F8011C07D00097188819
:202C7C005A7A119B1AF004FC6D1CEDB2641C152CE3DBBEB1129C204625F092F8051C0AD0EA
:202C9C00A87C26F081F8011C05D00097119B28886A7C1AF0EDFB641CE4B2A642EBDC01E002
:202CBC001298119098F83000002808BF4FF0620805D027F013FAC0F154005FFA80F8032063
:202CDC00B8F1600F98FBF0FAA8BF4FF01F0ADDF844904FF6FE7BABF1020BB8F1000F0EBFDF
:202CFC00129D2025DDF84880BA45A6BF3C1C45F040055446032014FB00F0801C8DF805000F
:202D1C0001A826F0A7F84E46031C26D01869082104F01F02017045EA02014170801CA4B18C
:202D3C002246C01E361F16F8041F00F8031F318809124170B17801F0070CF178521E01F015
:202D5C00070141EA0C118170EDD1A3F802B001209876184609F0BAFA00E00120E90906D206
:202D7C00641EE4B20CB109EB84093F1BFFB205F040052843B1D0119808B123F079FD0F981E
:202D9C0080F48070EEE1B24C092500214FF00409A078002841D0401EC6B26079A67026F01F
:202DBC0019FD071C38D06EB9787B022804BF0620787331D0062078733868407BF02121F00F
:202DDC003FFB29E0A6791EB9787B032812D023E026790EB3E078401EC6B2E670E6B998F888
:202DFC002500E0702079401EC6B22671787B032812D126B92046394622F05CF90CE087F8A5
:202E1C000D9027F0B4FD00F00F00401C388198F8000020211EF0AEFF01216D1E04F10804E3
:202E3C00B6D198F80000012912D040211FF0BAFE594691F82700012814D1002081F827000E
:202E5C0018F0FAF925F0E0FA0CE0C046F82B0020402122F0EFF828B998F800004021642285
:202E7C0027F011FE0F9880F040007BE1102122F0E1F830B998F8000010214FF47A7227F051
:202E9C0002FEBA48DFF8E882417808F5C674491ECFB217BB012141700020052126F08AF977
:202EBC00071C1BD006253846052126F083F90646388978B1401E80B2388158B97889C0082E
:202EDC0002D3387B26F08AFB7D733868407BF02121F0B6FA371CE6D100E0477028274FF661
:202EFC00FE7600252079A0B1FF2812D0401E2071C0B270B96079032805D160882188022211
:202F1C001DF058FE6079012803D0268066806571A5717F1E04F10804E4D108F1DC0408278A
:202F3C00207A401E2072C0B230B99248214624F097FA90B9668025707F1E04F10A04EFD186
:202F5C008D4A0C2112F8080F08B1401E1070491EF8D10F9880F0100004E120F0BDFDE4E7C8
:202F7C00202122F067F828B9D8F81000002808BF01260FD027F04AFF0146D8F8100000281E
:202F9C0008BF002004D088428CBF4FF0FF30081A460868D00020042126F00CF9071C62D07A
:202FBC00FF244FF0FF3B06254FF0010A3846042126F000F910903889864204D8801B83B25D
:202FDC003B8113B14CE000203881BB7B012B02D17889C0083ED3002B36D08DF804408DF8C2
:202FFC0005408DF806B03968086AC97F02AA12F097FE4FF00009012808BFD1465FEA0900F6
:20301C001DD0788A40F08000ADF83600B87B8DF838007889000908D3BDF8360040F4807036
:20303C00ADF83600387B8DF83A007B6913B1187BADF8180001A9002202A804F02BF97D73B1
:20305C00387B1BF039F80BE087F80DA008E0C046242800207D733868407BB72121F0F0F9D7
:20307C00109F002FA2D10EF0A1F998F800300020012126F09FF818B1184620211EF07AFEAE
:20309C000020042126F096F8B3B278B142460789147826F08FF8B8B9BB42AEBF0027FF1A41
:2030BC00BFB2204627B920211EF064FE002005E07A00202127F0EAFC27F0A8FEC8F8100042
:2030DC000F9880F020004DE00289BA42D8BF171CDFE727F01FFD294C0546201D0068074674
:2030FC0098B157F80C1C98F8000021B94FF400511DF0CAFC03E04FF400511EF03BFE2046FF
:20311C0039460022001D23F0BDFE284627F07AFE2FB13846FEF78AFF384625F0CBFE0F982B
:20313C0080F400501EE01EF0F7FD071C17D0144920310A78FF2A0FD03C780B460020944272
:20315C0007D0401CC0B2C200D1189A5CFF2AF6D102E0496838468847384625F0ABFE0F985A
:20317C0080F4004080B213B0BDE8F08F845300209027002097460200B4280020CC48002089
:20319C005CC502002DE9F04F064693460020ADF13C0DABF80000B06A099303460078884687
:2031BC0027F0BEF848B17089044621F003FF022804BFABF80040B36A01D0002009901878D0
:2031DC00C84DDFF82493401E0A2800F20B84DFE810F02F03B3020C04A0028D0151010904D2
:2031FC00BE00880066000B00BD4CE07B012840F0F9835B1CB06913F8015B1F7827F03AFCE8
:20321C00002800F0F7830379002B00F0F383032B80F2F0830E2D1CDCDFB9D04907752DB99A
:20323C0001EB85010A6BC261096B0AE001EB85010B6B9A01A2EB8302C2610A6B9101A1EBBF
:20325C0082018161012180F8201025F0DDF8002500E001250320B689647F8DF8190006A87D
:20327C0025F0F8FD071C00F0C58338690C2100F8011B00F8015B04700124BC7726F0E8FBD2
:20329C00786204A9304625F08BFA10B17C7704A838627E80BC76384609F018F8AAE35C1CC5
:2032BC00207820F01F0700F01F00012840F09A83641C04A8214626F0D9FF284604A95D3076
:2032DC0026F0B2FA002800F08D83002F40F08A830834A2786178207801EB022123F01EF87D
:2032FC0088E3688F7189884240F07C835C1C14F8016B04A8214626F0B9FF284604A95D30E4
:20331C0026F092FA06F01F0726F01F06002800F07183002E40F06E83780019F051FB011C53
:20333C0000F0688367B184460834384663782278401E04F1020402EB03222CF8022BF5D103
:20335C00009107F064FB084623F092FA52E35C789A1C34F07F0704F01F0E40F04B83377F3F
:20337C0003201EFB00F0801CC1B2B94240F04283002714F01F0F04BF4FF6FE7C614618D09C
:20339C00D9789B7870464D4603EB012C5378117812F802EF01EB03213EF0770340F02A8365
:2033BC002B888B4208BF0EF00707521C401EEDD1BFB960464FF6FE72824212D004F0600245
:2033DC00602A0ED04D462A88A30907D2E30902D2904203DD0EE3904203DD0BE39142C0F217
:2033FC000983B08927F007FB002836D1B0894FF6FF7124F0BFFC041C14D123F075FC041C3E
:20341C0000F0F88200211C221BF0C8F9B0894D460E35208028886081AA23A374022222741D
:20343C0001216174207C022805DD0220072F2074BCBF7F1CFFB2677400202073A01C25F0BF
:20345C0047FF002840F0D682307A002800F0D282B169A01C26F00AFFCCE20021C171017AD3
:20347C00022905DD0221072F0172BCBF7F1CFFB24772BFE2484671890088884240F0B282F8
:20349C00307F022840F0AE82AA4C201D00884FF6FE71814240F0AE82162025F031FC071CAA
:2034BC0000F0A88201213970B07900280CBF081C02207870B06A4078B872000902D2B089AF
:2034DC0022F042FCB169B81C26F0D0FE0020F8742878394620F05EF9B089A0808AE2C046D1
:2034FC0078400020783E0020B23E0020708921F061FD002840F076825F78B94987B10C2FEE
:20351C0003F1020380F276828C463D465A7818786D1E03F1020300EB02202CF8020BF5D1ED
:20353C00484675890488DFF8D892AC4200F0B280B37C002B00F05E823B1C0A974FF000089D
:20355C0011D0A74A38464146921E32F8023F9C4206D0401E01F10101F7D104E004C80200DD
:20357C000A914FF00108284600211BF071FE00280B907ED0407901287BD10B98807910F068
:20359C00180F76D00B984188384626F031F910B9B8F1010F6DD109F533794FF6FE704FF01C
:2035BC0000080C97B6F80CB0CDF820904FF0010A0D90C14611E0B8F1010F08BF4FF00109BD
:2035DC0008D027F0D4F9C0B290FBF8F101FB08F1A0EB01094FF00008C246089D10271C3D1F
:2035FC0035F81C4F4FF6FE70A04213D0A34511D00C98214626F0FCF860B96B7C53B1072B8B
:20361C0008DA08F10100BAF1000F5FFA80F801D1C14521DD7F1EE3D1B34D152735F8244F24
:20363C000D98A0421AD0A34518D00C98214626F0DFF898B96B7A8BB1072B0FDA28790128DE
:20365C000CD002280AD008F10100BAF1000F5FFA80F803D1C14501DC0D9407E07F1EDDD15F
:20367C00B8F1000F02D0B9F1000FA4D00D980B994880B37C5A4C581EB074F77C00970A9D46
:20369C000195029401220392B189B269708917F083FDAFE1B4890C2F80F2AC818846ADF83B
:2036BC001040BD488DF812700168CDF8148009B104A8884720461EF015FC0C2803D14FF6C9
:2036DC00FE701EF00FFC0C2880F2948109EBC00505F59675686808B123F0CAF82FB1780018
:2036FC0019F06EF9686010B984E1002068606C80C2486F70007828706878002800F07A8188
:20371C006868002800F076817A00414618F062F870E1307F022840F06581099828B94D46F6
:20373C0071892888884240F06581099831460BF0FFFB5EE16C420020B5F84810404623F02B
:20375C00EDFAA846074608202FB17D781DB90221397007257D70B16A0A79CC788B794D78C8
:20377C0091F802A0CF7904EB02244A7902EB03296A0928BF1020AA0924BF0830C0B235F0DA
:20379C00700340F03781327F904240F0338105F07005680938BF002006D306A8083126F083
:2037BC0065FD25F010050820A90907D3B16A091804A8083126F05AFD25F0200520465146E8
:2037DC0024F020F908280DDA8D4B410001EBC001C9188879B84240F30D818F71002002E024
:2037FC00AE2700200420B8F83A10A14219D048B9B189484601222B4610F048FC28B1F9E07B
:20381C0090270020042840F0F58006A804AE009049463A46534601962046029513F052FE65
:20383C00E8E0B189484601222B4610F02FFCE1E0B5F84810404623F071FA4FF00609041CE5
:20385C0003D06078002800F0CD80B06A817847780891C378017900F1050A03EB0120099074
:20387C0040461FF0E3FF9AF8001009185FFA81FAB80928BF4FF00E0937F0780040F0B2801F
:20389C0007F01800182800F0AD80307F814540F0A9804FF00009CDF800900899B0895246C3
:2038BC0043461BF049FD032800F09C80002807F078074DD117F0180F18D195F8310028B171
:2038DC00B089414601223B4610F0E0FB09984FF6FE714A463B4610F0D9FB002838D14FF6DD
:2038FC00FF70ABF8000039E0F82B002047F00107780928BF47F00207B08939461BF0A8FCF0
:20391C0090B1817911F0180F0ED0417901290BD154B14088B5F8481023F000FA20B143781F
:20393C0013B1607898425DDCB089414601223B4610F0ACFB60B94FF6FF70347AABF8000093
:20395C00002C0CBF4946B169B089524625F08CFEBBF800104FF6FF70884243D10120009035
:20397C000899B089524643461BF0E6FC0998394621F0ECFF698F81422ED1099827F03BF882
:20399C0060B10079012818BF022807D1099804A924F006FF08E0C046E83F002026F058F87D
:2039BC00014604A826F062FC307A012803D1B16906A826F05BFC06A8009004AF0197B06A05
:2039DC00407840F0300002900999089BB0894A4613F078FD48460CE0B06A80F805A024F0D6
:2039FC0075FF06E04FF00009F4E70999304614F067F9099009980FB0BDE8F08F91400020A4
:203A1C006C2800202DE9F04F944C04F128000068ADF14C0D10B1002180F83110343024F012
:203A3C00E3FD27F077F81190082015F07DFD1BF01BF8002510B1B5A027F0E0F91FF01CFF49
:203A5C000CA826F069FD04200CA98DF83000284626F06AFDE06326F0ABFA04A826F0CCFC19
:203A7C00042004A98DF8100028461EF0CBF8606326F0A8FA08A826F0C7FC042008A98DF827
:203A9C00200028461EF0ECF8616BA06319B9A7A027F0B4F9A06B10B9A9A027F0AFF9E06BB7
:203ABC0010B9ACA027F0AAF9DFF8BC82D8F80000D0F8E0038047D8F80000D0F8180280474B
:203ADC00D8F80000D0F8F0028047D8F8000007262F46A03001687B5823B118468047D8F832
:203AFC000000A030761E07F10407F3D1D0F8B8028047EB2026F038FEA06A2F4670B1684691
:203B1C00FF2108221AF04AFEA06A6946082225F0C1F904F12806012818BF376868469349EF
:203B3C00129006C980E80600082018F049FF5FEA000A3DD0FF2108221AF030FE01200821E6
:203B5C00524626F0D1FE38B904F1440301202946082226F077FB40B304F144095FB148468A
:203B7C006946082225F096F9F8B93868494608607E684E6014E0A9F10206032726F0F7FE05
:203B9C0006F8020F7F1E4FEA20207070F6D120210620F82789F80610401CC0B209F80070E1
:203BBC00012008214A4626F00CFC504622F060FE04F14401E22021F07DFF24F03DFE40088B
:203BDC0034BF2F1C0127D24E5520012106F13E0226F08AFE18B917B1284624F005F824207B
:203BFC0024F0F4F88146352024F0F0F8C94EA8B9B9F1020F12D124202946022210AB26F0D3
:203C1C0021FBBDF84000324604213C321060352026F06AFE2420022121F02CFC06F154013D
:203C3C00E22024F02DFC38461FF0E2F86846294610221AF0B3FD307830F0010013D1DFF835
:203C5C00D89269461022484625F024F940B968464946102217F0BEFD05E0C046102F0020C9
:203C7C00684623F00DFB622010216A4626F03CFE28B927B1622010216A4626F0A2FB68462F
:203C9C00294610221AF08AFD384614F05FFE384621F0B6FE384617F097F81FB12846012140
:203CBC0022F08CFC242018F08BFE0028206400F08F81E06A216B221D1CF046FBD8F800108B
:203CDC00D1F84C138847216C201D0860E06A216B04F108021CF038FB10F0D6FC216C04F137
:203CFC0008004860E06A216B04F10C021CF02CFBC24F236C3870D4F830C0D4F82CE0C04808
:203D1C0003F108092B4600F1100135E052616E646F6D5F736565644175746F6D61746963F2
:203D3C002829206661696C656400C04641455343434D206F70656E206661696C656400C0C8
:203D5C00414553454342206F70656E206661696C656400C054524E47206F70656E20666199
:203D7C00696C656400C046C014010020FCCA020041F823505B1CDBB2002BF9D04561C9F8BB
:203D9C0000207046614604F110021CF0DDFA9D4FB8709D48728E3D7006F14C01BA8026F066
:203DBC0065FA96F82300216C06F15C0304F11402787004F11006CE60E06A216BFB601CF08B
:203DDC00C3FA04F11809D349D34ED44A0870D44BBE60206C7A6204F11406216B0661E06A30
:203DFC00BB624A461CF0B0FACE4E30724FF6FE7AA6F824A0022086F82C0025F029FECA484D
:203E1C00814906F11C0B0560584626F02FFAC748FF2138221AF0C2FCC548C74B8360C74AF8
:203E3C00C260C44941600570C54B0361C54A4261C7493961C44B8361C44AC261C54B7B6141
:203E5C00C54ABA61C748C54BC54AFB61C7495061C54F116106F13800D76014F0DDFF0927D5
:203E7C000BF12C007F1E40F8045BFBD1307A48F2010120F059F9307A4FF4004120F054F92B
:203E9C00307A212120F050F9307A222120F04CF9206C216BC0F81490E06A04F11C021CF0A2
:203EBC0053FAB34E48F21501307020F03DF93078382120F039F9B04FB04BF760AD48A6F83B
:203EDC0020A0216C336104F120027061022704F11C03E06A8B61216B86F828701CF034FAAE
:203EFC00A74AD580D5609570556101261574074615700748167148F202014770384620F096
:203F1C0013F948F20101384620F00EF906E0C046004300207840002014C80200384648F2EB
:203F3C00040120F001F9974F97483449974B3861974A4B60084604F120038260216B226CAB
:203F5C00E06AD36104F124021CF0FEF9914B207091499870284626F073FC9049304626F003
:203F7C006FFC8F49042026F06BFC8E49062026F067FC8D49072026F063FC8C49082026F046
:203F9C005FFC98780AF1010120F0CEF888489C49884B4862884A5A608848894A98600B461D
:203FBC009A621846874A83F84260874EC262884BBE60864A1148874F874E1360874AC76074
:203FDC0003461F461E61206C7A6104F1240606628448834C0570D8F800102570824F65707F
:203FFC00D1F800616561F089D1F850123D70103080B28847206178B908E0C0468C47002090
:20401C00FC3C002088430020BC430020D8F80000D0F84C058047206900908DF804509DF8EB
:20403C00051065F301018DF805109DF8051065F383018DF805109DF8051065F307118DF89C
:20405C000510D8F80010D1F80011C9896A461031ADF80610216913680B6052684A60E06162
:20407C00256217F029FAD8F80400C168087848B9D8F80000D0F85824284601469047D8F885
:20409C000400C16859480570594F3D70087830B9D8F80000D0F858242846014690471198BA
:2040BC0026F0B0FE0FF056FF24F00CFDD8F80000D0F8D40090F8430024F0AAFAD8F80000F0
:2040DC00D0F8582429460120904726F07FF84948D8F804700570F868007830B9D8F80000B1
:2040FC00D0F8582428460146904716F0C5FD4248424A07212B4624F037F921F0BDFC10201F
:20411C000DF142018DF842005A2021F0D3FC13B0BDE8F08F70480020A9550100D5C40100C9
:20413C0035A40200A03F00202C420020EC270020F0460020C5AC000011910200D505020081
:20415C006F6E0200C178020055670200C5880200BD930100017C0100D98C020075C90000A8
:20417C00A8470020B176010045DB01007D640100FC43002061600200FD7A02004D8402007B
:20419C00B8540020D8470020D5A10200BF6E0000A93A0200B448002029A30200EDA2020093
:2041BC0001A3020015A30200D59E0200ED9E02001937020090450020514F02001D2A02004F
:2041DC003D580200DD460200074E0200843E0020A5440200F5860100091B02008543020077
:2041FC00D8580020305D0020325D0020355D0020D25B0020315D002024460020C5AB02004E
:20421C00004300202DE9F04FC24CDFF80C83DFF80CB3DFF80C930D46E80BADF11C0DC0037A
:20423C0040F09A82DFF838A3680880F02F82CB4EA80880F0F281A80980F0DB81DFF824931C
:20425C00E80B80F091812078A90B80F05281C1480768680980F02F81280928BF85F008059B
:20427C0080F09383680A80F0C580E80880F0B880A069E90980F09B80280A63D2A80A5CD210
:20429C00B54C280B2BD2E80A27D3142018F098FB071C1FD00026B146207A012813D106F248
:2042BC001118494614223B46404625F0CBFF50B920683860606814213A467860404626F0F4
:2042DC0080F884F80890761C0C34032EE4DB384622F0CEFA85F4806058E3002056E31820F7
:2042FC0018F06EFB071C25D000262434B046207A012813D106F20129414618223B4648460C
:20431C0025F0A0FF50B920683861606818213A467861484626F055F884F80880761C0C3482
:20433C00032EE4DB3846414618221AF037FA384622F09EFA85F4006028E319F0E5F985F48B
:20435C00007023E31DF0F4F92078052823D1207A04211EF027FC207A04211CF095FB0620A7
:20437C0025F0D6FB4046007800F00700022801D026F08AF824F048F819F0C6F923F084FB05
:20439C0058468079000902D33078012805D1606923F09EFA01E024F037F8012023F024FCF9
:2043BC000320012105F0D2FD85F08000EEE2A0B117F092FBA0690768A06922F059FAA76140
:2043DC005FB1FA8802E0F888801AF8803F68002FF9D1207A402126F059FB85F04000D5E24A
:2043FC00FF20032122F0EAF826F0D0F9C34901200860FEE7524692F84A00082818BF042872
:20441C0056D124322120742125F0DBFFBC4F79683A8800243E461CE0A00000EBC4000B5C36
:20443C0033F07F0C13D013F07F030B54084405D101A8FF210C221AF0B1F901A8009021467E
:20445C0000220C2301201FF093FB79683288641CA4B2A242E0DC4E46002436F8240F778808
:20447C00ADF80670ADF8040033798DF80830B1798DF80A1072798DF80920F779337D8DF8EC
:20449C000B700320B7698DF80C30214600221023049701AF00971FF06BFB641C152CDCDBF6
:2044BC00BB48006800B180470020022122F086F885F4807569E24FB17968087818B1486897
:2044DC0000781BF0CFF83F68002FF5D126F046F9A08425F0BDFAAF480078012806D154468C
:2044FC0020784FF40061642226F0D0FA85F010054BE20C2816D00C2025F00AFB2078012826
:20451C0003D0022818BF0C2801D100206071313616E0C046A03F0020D85B0020D45B0020B0
:20453C0000430020022025F0F3FA2078012818BF022804D101206071002024F03BFDAA4EEB
:20455C003146207A0A684FF4005126F09FFA85F400551AE2C04800204841002087400020F7
:20457C00783E0020F82B00200120022123F0ACFEC4B21CB3E00018F023FA5FEA00081FD07B
:20459C004E4683464FF0010A152724363079012818BF02280DD18DF804A07088ADF810003B
:2045BC0001A81EF0CBFC20B102A9584625F05EFE83467F1E06F12406E8D101E04FF000086E
:2045DC00B8F1000F12D074B10F204FF6FC778DF80C001F26ADF8047001A922464346B64891
:2045FC00009615F037FE404622F042F985F48045CBE1607A50B92078062802D1072025F05A
:20461C0087FA3078012801D124F0F4FC207A10211DF0B0FB85F02005B7E1607A08BB21786B
:20463C00207A08291BD124F0F9FE092025F070FA48461C300078052806D0072809D107206F
:20465C00012105F083FC04E0012023F069FF1DF06FF83078012816D124F0CCFC13E01021FC
:20467C000FE026F06FF8EF2803DB002023F058FF09E026F067F81030C0B226F075F8207A06
:20469C0001211DF077FB85F002057EE1012025F03FFA5E466778307900F007011220012993
:2046BC0018BF02294ED16FB3032F2BD0012F49D101290CD00A2025F02BFA4B49207A0A681A
:2046DC004FF4005126F0E2F916F016FD3AE00A2025F01EFA544620784FF480611EF062FAEF
:2046FC00502005A923F0CCFEBDF81400A4F84800BDF81400002120F09DF92AE07C05204378
:20471C00C448002025F090FE002818BF032F15D1022025F0FDF99F49206909781EF086FCE8
:20473C00B17909090ED270B99B4A5178491CC9B20429517004BF9949216103E026F017F96C
:20475C0012F04CFE28B1207A01214FF47A7226F09DF985F0010518E1914E0DE1014632784F
:20477C0027780878401E00F0E480401E14D0183800F0FC80B93800F0F5802A3840F0EE80F8
:20479C0088480168002900F0F48050468847F0E00C47002080400020012A18BF022A40F051
:2047BC00E88099F81C00072818BF082805D1637A1BB9012105F0CAFB2778032F7ED00A2FD7
:2047DC0014D0042F18D00E2F16D00F2F14D00D2F12D0002F00F0CD8023F056F9207A1021C2
:2047FC001DF0C8FAC5E0C046BC40002098F8000000F00700012861D0677A607877BB00201B
:20481C00207320F0F5F808B3062025F081F9207A4FF400511EF0C6F99BF806000BF10407E1
:20483C00000909D3F37B3BB9002023F051F8002025F0A0FF25F0A4FF387800F0070002283C
:20485C0001D025F021FE23F01FF992E0052025F05FF942F2107024F0BDFB8AE0012818D10C
:20487C00207B401CC0B20428207304DB4E48007801280CD00DE04D4800884FF6FF71814280
:20489C0005D001270423A7710320E37200E00020607022F0FDFD21F069FF454800780009E5
:2048BC0002D3F07B012864D16078032861D1B08E23F00EF85DE0C046DC400020677A002F23
:2048DC0035D1207A10211DF055FA20F091F838B320780A2809D198F8001001F007010229A3
:2048FC0003D032490822891C0A7003280CD123F0CBF899F81C00022806D1012023F074F9D8
:20491C000220012105F022FB062025F001F998F8000000F0070002282BD025F0B5FD28E075
:20493C00052025F0F5F8012020F0A4FC21E00020FAE7022F1DD1012A18BF022A19D125F015
:20495C0091FF10B119F02AF898B125F0C7FF00280CBF0020012021F007F90AE050461BF0CB
:20497C00A7FA06E0504616F0DBF902E0504610F0EDFC504624F09EFA207A1DF0CDF95FEACB
:20499C00000A7FF4EBAE85F40045A8B207B0BDE8F08FC0463D4300202442002000F8FF07C8
:2049BC00784000200844002089430020C03E0020DA5B00202DE9F04FB34CDFF8D0A2C808CB
:2049DC00ADF11C0D277F059180F0AD820846C00BC60318BFDFF8B8B240F05C815046007804
:2049FC00490BA0F1020080F03481BC4D059AA91D0988120A80F0EF800599890880F0D280A4
:204A1C000598000B24BF059880F4006080F068830598C00980F0A1800598A768800B5BD2C8
:204A3C0005996069C90B38BF0020C0F05A83AA4928C96A4628C209881180276938B93846DC
:204A5C0025F089FA6061B0B987B90B200FE0017B31F07F000FD0A06901F07C0104290ADB9A
:204A7C0040B9384625F077FA606120B9002025F083FD2DE0606160784FF4804141F2883237
:204A9C0026F004F8217F6069082919D00188ADF80010017A8DF80810017B491CC9B231F092
:204ABC007F07017306D10188427A684624F0D2FA606909E0008800210A4621F0DDFFF7E7C0
:204ADC00017B41F040010173406925F044FAA061059880F4804003E3DFF8FCA200264FF0CA
:204AFC000309B0468FB96078012E04D04FF400511EF058F805E04FF400514FF47A7225F0C6
:204B1C00C5FF059880F40050EAE27D68287810B3F02820DC494642466B461FF00AF9D0B1D1
:204B3C00029803889BB984F83A808DF80D908DF80C8003AB0A2041464A4620F003F8DAF8AB
:204B5C00001084F83A8031B12878884703E001880126491E01803F68C4E71FF075FB074609
:204B7C002078BFB1401EC0B22070A0B160784FF4804120F05FFA30B9206925F0ECF910B9E6
:204B9C0038781CF035FE6078402143F6982225F07DFF207810B90B2025F0EEFC059880F0B5
:204BBC0040009DE2B0F1FF3F18BF00280FD168460021082219F0F2FD002023F015F868467D
:204BDC0018F016F818B1607802211DF0D3F8059880F0020084E2084600211FF0EDFA2C46BB
:204BFC002678FF25C6B14FF6FF73201D00219C4610F8142F52080BD3C7884FB1BC4507D0BF
:204C1C0053B10289BF1ABAB29342C4BF0D1C131C761E01F10101EBD1FF2D16D0A80000EB0B
:204C3C000510001918300189C088401A80B248B96570FF200AF094FEFF2128460A461FF016
:204C5C00A3FF0020E08024F035FA059880F0800046E2B0F1FF3F18BF002811D13846401E82
:204C7C000AD0801E0CD1A07F022809D10120A077002020F0FFFA03E0617F002022F048FB07
:204C9C00059880F480502BE20043002078400020783E002060781DF03FF85FEA000904BFC8
:204CBC00059880F4004000F01B8299F80060D32E00F02081207FB04212D00A2E40F02F81EC
:204CDC0094F83B0089F80400616A002900F0278109F10200884722E124C30200B8540020FD
:204CFC009AF80000761E4F4600F0AE80B61E40F01681012818BF022840F01181BE7876B3D9
:204D1C00761E40F00C817A7860781AB325F026FD4FF6FE720021824218BF0121081C04D1CB
:204D3C005846408F1146814209D010465946ADF8100017464F87532004A920F0BBFE22F01F
:204D5C00A7FB21F013FD5946002081F84A0015F03FFFE4E0022140F6B832A177BFE0787801
:204D7C0000286DD125F0BAFD00220BF10801206215460A60011C5AD089696D1C0029EDB2ED
:204D9C00FAD1114690460691071C4BD0002646E0B74824F00AF8012809D0BAF82A004FF6A6
:204DBC00FF7181420AD03988884207D02FE0B04807F10C0124F038FD002828D0BBF83E0002
:204DDC003989884203D14FF6FE71814208D1069820B9FB7823B91AE0944500203B79B3B136
:204DFC009BF8362079799AF80E008A4214D1B979884211D0012808BF022903D0022803D1A2
:204E1C00012901D101200690B8F1000F04D1384621F066FE6D1EEDB2BF69761CF6B2B542C0
:204E3C00B6DC206A08F10108B8F1020FACDBE26A002A8CD029469047E06A00286FD186E7C0
:204E5C00002020F091FE6AE0012818BF022866D17F7894F841003FB194F84010491CC9B25C
:204E7C00884284F8401042DB607F401E04D0401E3AD0401E1ED052E025F0D6FA98B994F8AA
:204E9C00420020B1A06A002849D0804747E0002102200F468DF808000246ADF8007068467A
:204EBC0024F0F0FB13E0012025F0E2FC014605F04DF834E0AB2000216A461EF0D3FBCDF8FE
:204EDC0008D004208DF80C0002A812F013FA60784FF480511DF066FE607841F288324FF40B
:204EFC00805125F0D3FD1AE021F014FE17E001200021DCE70746F88948F20101401A0BD088
:204F1C00401E05D0801E0AD1384618F005FD06E0484619F021FE02E0484617F035FC48466F
:204F3C0023F0C8FFB6E660784FB17F1E00F0D180FF1E00F0C780BF1E00F0BB80CDE094F894
:204F5C003B00810880F09680C10876D20009C0F0C4800620207725F085FC002869D01FF01A
:204F7C0073F9E568071C64D068684078800837D33878032100226B461EF0DBFE28B96868AC
:204F9C004078410830D20E201BE002980188B52912DAB421018060784FF47A724FF40051EB
:204FBC0025F074FD5048416829B10078FF2814BF3878FF208847E56868684078400803D232
:204FDC00092025F0D9FA0AE0092003228DF80C0003AB00218DF80D200A201FF0B3FDE56824
:204FFC0068684078410878D340490E6816B980081FD372E038781CF0FBFB002600B101262F
:20501C000325301C02D00E2025F0B6FA0C2020706078402143F6982225F038FD0A208DF85A
:20503C000D5003AB00212A468DF80C001FF08AFD53E00E2025F0A0FA4FE004F11C00052517
:20505C0094F83C10057089080ED394F83E1059B90121E1700422002119F0A0FB257700206F
:20507C001FF0CEF8022021E0284600212EE0C046BC3F0020042294F83C00227740082CD390
:20509C0094F83E70F7B950460078012818BF022823D1012504F11C000021E57019F07EFBAF
:2050BC000320207728461FF0ABF8284624F050FC13E0002184F83A1021773222042125F02C
:2050DC00E5FC0AE024F008FB0420012104F03EFF03E00120014622F01BF9059880F00400D9
:2050FC0080B207B0BDE8F08F90450020F44600202DE9F04FB848BA4A0178B84811700126BE
:20511C004170B849BA4C4E805C30A061ADF12C0D48600FF069FFB749BA48B74DDFF8EC921F
:20513C00091D0991B84982468B46E0684FF0FF3125F060FE0028F8D020781CF0EDFD061C2F
:20515C0000F09B813178EA78EB692078CA2913DCCA2900F0EA80923900F0F380891E00F03C
:20517C00C280891E00F0EA802F3900F08280491E6ED0491E66D0E7E0CB3900F0D2801539D9
:20519C0000F0CB80891E06D0491E00F0C280891E00F0BA80D8E096F84000443080B225F090
:2051BC001DFD071C00F0D08006F10408381D0C22414624F075FE30693861307D387596F9A7
:2051DC0015007875B07DB875F07D0A2208F11401F87507F1180024F063FE708C788496F838
:2051FC00240087F8240096F8250087F8250096F8260087F8260096F8270087F8270096F833
:20521C00280087F82800F06AF86296F8300087F83000706B786396F8380087F83800F06BF4
:20523C00F86396F8402006F1410107F1410087F8402024F035FE384601F028F9384625F04E
:20525C0006FC81E0FF2A7FDA521CD0B2E8707BE01F8867B9EF7ABF1F012F06D9FF1E04D09C
:20527C000021012019F068F86EE00121F9E70321F7E73179F71C022909D1F3783BB971790A
:20529C0041F002018DF8201008A925F098FB002028717878C8B1401E0CD0401E02D0401EC6
:2052BC0011D014E097A028633B7883B96B6B73B995A006E096A028633B7843B96B6B33B9FD
:2052DC00A7A0686303E0A8A000E0A8A028633878012833D0092831D00A282FD0BF780FB984
:2052FC00A3A028632AE01F88F078E87237BBF778BF1F012F03D9FF1E18BF002100D10121FE
:20531C00012019F019F819E0B188B01D13F085FB1AE0301D21F066FC16E0301D1CF0D8F9DA
:20533C0012E0CD210022032305E0002108AA08238DF82010C1211BF043FA05E0FCF7B8F9DE
:20535C0002E0301D15F09BF93078712823DC712862D0652811DC652873D0801F00F0828083
:20537C00423800F08480183879D0401E74D0401E01287CD9801E67D07CE066385ED0801EF1
:20539C0059D0801E032872D9001F51D0401E4BD0401E45D06EE091280FDC912867D07238FC
:2053BC00022864D9C01E33D0401E27D0401E5ED0C01E5CD0801E5AD05CE0923814D0C01E0E
:2053DC00012854D93038062851D91B384FD0801E01284CD94EE0C046102F0020201B00204F
:2053FC00385D002018390020F76A002F3FD03BE01C3C00206846002004380020B768002FC1
:20541C0035D031E060460020FC3C0020783E00207769002F2BD027E0F768002F27D023E0CD
:20543C00F768002F23D01FE0F768002F1FD01BE0F768E7B118E0F768CFB115E0F768B7B1CE
:20545C0012E0F7689FB10FE03746786908B121F00FFAFF695FB107E0776947B104E0776974
:20547C002FB101E0B76817B1384621F001FA304623F020FD304623F01DFD2169C80B17D34E
:20549C00607808280DD1BC480078012818BF022807D10A2120788DF8201008A925F08FFAC5
:2054BC002169002021F48047607021F480412761080A05D3FCF7FCF8216921F080012161AD
:2054DC00480A35D3287861280CDC612822D0413820D0C01E14D0401E10D00E380CD0001F20
:2054FC0008D01AE064380BD0401E07D00E3803D0001F12D101200EE004200CE010200AE0BE
:20551C00022008E04E4600C0464F524D00C046C04E5300C008201BF0E3FBAD4900202870F7
:20553C00A869012225F037FA216921F480712161880854D3A3488089E0B1A24E401E87B200
:20555C00B781BFB16779E069216A002F0CBF401A08444FF47A71E06190FBF1F0C0B20AE0FC
:20557C004A4F494E00C046C0464200C0494E00C02D2D00C0E07822F031FD217931B991486B
:20559C008078FF2802D125F0C7F9A071A778A7B125F0C2F902280CDA0026012908BF012682
:2055BC0041B188488078FF2804D1A07922F016FD00E00126304622F027FD24F04DFCFCF7D8
:2055DC0077F88048808930B16069642125F023FA804825F0C5FA216921F002012161880AC0
:2055FC00C0F0A0807648784F0678387801286CD025F050F9011C00F0918099F824808A7BF1
:20561C006F4B89F824208A7BB9F83A701A7013468A890869A9F83A200122009200220192C3
:20563C000122029200220392049342780592406800232122069001200790F2200AF0D8FCBC
:20565C001E2089F824806149A9F83A705C4B0870DAF808001E7050B363490E681436376841
:20567C0057B102693969914205D007F114063768002FF7D100E097B9DAF80C707FB178681B
:20569C0025F0E5F90021DAF80C00099F4160386825F0DDF90020CAF80C00DAF8080025F04B
:2056BC00D6F90020CAF808003068CAF80800DBF8181025F0EFF8002830D00846322125F0DE
:2056DC00AAF9454825F04CFA28E09AF81E003C490870424999F82480BAF81C3089F824000B
:2056FC00B9F83A70A9F83A3001220092002301930292039304909AF81F000590DAF82000C6
:20571C0021220423069001200790F2200AF070FC89F82480A9F83A7029480670216921F447
:20573C0000712161DBF80C00CA0A3ED3071C36D0C668F968B14221D839468F6810B3D0F8F1
:20575C000880814210D00246434601E01A469368C3B1BAB19942F9D198689060184625F00E
:20577C0076F9DBF80C000DE01D48006825F06FF94046CBF80C0005E078400020F968891B71
:20579C00F960BF68002FD3D14EB1DBF81C1030B10846314625F03FF9124825F0E1F92169D6
:2057BC0021F48060206121F48061080BFFF4BDAC1DF076FA206920F400602061B5E4C04658
:2057DC0088430020E8450020D847002070470020053800208C3C00205C3D0020704600208B
:2057FC00083D0020803D0020684600202DE9F04FBC48BB4CADF12C0D4FF0E0470125069024
:20581C0040682169C06809931F400570B64808924FF0000505704FF0020000EA020008BF5D
:20583C00002840F0C382DFF82893DFF828834FF480301E462F461040374008BF002833D115
:20585C004FF4003015EA060700EA020008BF00280ED137464FF480003D4000EA020008BF83
:20587C00002800F09482002008711AF00DFF8EE228460871EB2021F0E9F94B462846414654
:20589C0018700878862802D128461FF0C1F925F041F9E1690A682B4613710968E16125F064
:2058BC00B1FA23F0B3FF72E22846069F08713868B8300268DFF8F8A217784FB953461F7852
:2058DC0037B1D0F894048047069821690068B830B84E81225346FF251A7027783570806C05
:2058FC00A7700023A3814E461D46097AC0893570891E8DB2A842C0F23E82E1690831096890
:20591C0004F1180001604FF0040BA4F80CB0607EA17EE67E00EB0120608104F11903267161
:20593C00069E59783268C1F30119B8321168ED1EADB209780793002908BFB9F1020F00F0EB
:20595C001A82B9F1020F00F3168261B110F0070F00F0118241460978862904D100F007011A
:20597C00022940F00882011301F0020102296FDA667800F00700022862D1002E60D1D069E0
:20599C0090F88300022858D0E1690C31097805A801700527A78125F0BDF8454606462878D3
:2059BC00862847D106980068403001680F6837B9D0F80C05804706980068006C07689DF9A8
:2059DC00140025F0EDF8787706980068016C096800228A77006C9DF914100068C17730466B
:2059FC0025F010FA2679678925F094F880462946087807F0100786281BD1C34D05F11E02B9
:205A1C001088401C10808720087024F0EDF8404625F0F8F9082021F0C3FCE879B04206D120
:205A3C001FB900201AF08CF807E01B20FAE7E920F8E74646304625F0E5F923F0E7FE9CE16F
:205A5C0041460878862804D100201FF0E1F8A77866788FB186B9012F00F08D816089022FD4
:205A7C0003D110F0070F40F08681032F05D100F00701032901D07EE16089010980F07B812E
:205A9C00011301F00201022902DA810A80F0738107994978C1F3810A8F11BAF1010F00F001
:205ABC006A81012F00F06781BF49B9F1020F09D0CA5D11F80A108918CEB2DFB1C10919D38A
:205ADC00B61E0BE07A185144127909798918CEB2C1090BD25AEA07030CD0B61CF6B209E062
:205AFC00D858002014010020F84800205AEA070308BF0226C0F30020311A60718D42C0F2F8
:205B1C003A8106990968AD1B2D18A8B2D1F850122081743080B2884700286578606100F010
:205B3C002A810021742218F039FE0020E07062891DB9074902F020000870054861790578F9
:205B5C004FF0000C002D3AD0002938D104E0C046325D0020355D002002F00700032808D02E
:205B7C0001282CD106980068D0F8D40090F882502DB306984068406905781DB124F040FA7F
:205B9C00FE2819D006980068D0F84C02804750B906980068D0F84402804720B96289617975
:205BBC0094F803C00BE084F803B06289617905E0305D0020B542002084F803B0DC466569D3
:205BDC0005F17403AB6505F17400686023892B81079B208993F801B00029CBF30118A5F87E
:205BFC005C001878AA8100F0780048EA00004CEA000028744FF0FF03AB730CBF2079002023
:205C1C0085F8307085F83AA085F84900A089002EA0EB010087B2A78100F0AA80E169E68020
:205C3C0068463246C919083115F0D4FDF619B0B2A0812846027C4FEAAB0111F0030F01F0CA
:205C5C0003076D4602F0400940D0B8F1020F4FF0000301D1D1090BD29DF801209DF8001040
:205C7C0001EB0221A0F844100DF10205A0F842106D4EB0F84410B6F842208A4203D04FF673
:205C9C00FF728A4220D1032F11D06A78297801EB022189B24186B6F84020AD1C01208A424F
:205CBC0011D04FF6FF728A4218BF181C0BE060692946323024F0DAFA6069373631463230DE
:205CDC0023F0B2FD08350346002B48D007984078861120D06069B8F1020F03D0017CC9099A
:205CFC0003D309E059EA070706D16A782978AD1C01EB0221A0F84210032E07D069782A78D1
:205D1C0002EB0122028506E0A846002060692946283024F0ABFA608900F00700032809D0AF
:205D3C00012825D106980168D431086890F88200F0B102E006980168D431D1F874116069FC
:205D5C008847A8B90020079FE070B97866697878C1F3011100F078000843307408E006984E
:205D7C000068D0F8FC14314888471AF08DFC04E00CF030FE01E023F0A3FF24F0CBFEE16921
:205D9C000A68002313710968E16125F03BF8089A099F202100201140384008BF002919D086
:205DBC0023F0FCFC16E0C04638D00200204B214A93F90000401E187092F90000401E107005
:205DDC0093F9007017B91C482A460280284608711AF05AFC174A92F9000098B1089B099FBE
:205DFC0002214FF0E0401940384008BF002912D092F9000000280EDC06980068D0F84C05A6
:205E1C00804708E00D480021069F01703868D0F858240846904706984068C06800210BB0D8
:205E3C000170BDE8F08FC046103F002040460020FA480020F94800203E3E0020F6480020D9
:205E5C002DE9F04F0023ADF1340D01220A91924909900025CB7150240B72081D0270A023F1
:205E7C008B7281468B732846C87340220B6888894C7240F430506FF30F03888128460874DC
:205E9C004CF210101843086084484A718E2280F832208348CD7200788A7129460C9160B922
:205EBC0028461CF0A5FF7D4890F83200000911D3284608A98DF8200009E0784890F8320015
:205EDC00000907D301200DF121018DF8210052201FF0F0FD23F028FEDFF8188300280B9000
:205EFC0040F0C8800FF012F95FEA000A40F0B5800C986A4A0B90742124322120154624F0BE
:205F1C00F3FC00285AD10B99212074222B4624F099F9002852D16148408F4FF6FE71814257
:205F3C004CD001205D4F0B9097F84A00082806D0042804D011F078F80C980B903EE0DDF83F
:205F5C002CB042200DF122018DF822B01FF0B2FD05F12F0143201FF0ADFD05F12C014720E5
:205F7C001FF0A8FD05F11C014A201FF0A3FD05F11A014B201FF09EFD05F1240120461FF06F
:205F9C0099FD05F1160153201FF094FD05F12D0154201FF08FFD05F11801E1201FF08AFD56
:205FBC00384690F83200000938BFDDF830B052200DF122018DF822B01FF07CFD0C9C13E0CB
:205FDC000B914DE00C9AA60006EBC40621460C23F019009001201FF0D5FE18B9B85D80F04D
:205FFC00FF00B855641CA4B2B8F80000D8F80470A042E7DC10F03AFB9B48001D006800B1BC
:20601C0080471DF04CFE0B98F8B124F0A7FB2449888428B999F8000000F0F80089F80000F0
:20603C008F480078022818BF012004D11B4A0021032082F84A101A4948700F4607F11C00FD
:20605C0005F1390124F012F901E04FF0090A85480021BAF1000F4180B2D0012781480B9724
:20607C0082460E480E4E90F83C10012707FA01F0306195E00FF04AF810F0D6FF074A2120EE
:20609C007421243224F09DF902A8FF210C2218F085FB2C4645460FE0D45B0020783E0020BE
:2060BC00A03F002002A80C9A009021460C2301201DF05EFD641CA4B22888A042F2DC02A8E6
:2060DC00FF21102218F06AFB0C9C02A80C9A00902146102303201DF04BFD641C152CF4DBBB
:2060FC006148006800B180470020ADF808004FF4A17016F065FC071C10D0FF214FF4A172FA
:20611C0018F04CFB02A800884FF4A1713A463880422024F056F9384620F0AAFB00200C9998
:20613C00ADF81000062202A818F038FB142016F047FC071C1AD0A1480C30006898B10326F8
:20615C00022202A90B6890B2C019921D89880360761E8180F5D104A8008814213A463880A7
:20617C004C2024F02EF9384620F082FB182016F027FC071C10D00C9C1822214618F00EFB93
:20619C0004F2012018213A4624F01BF9641C032CF6DB384620F06CFB1FF050FC31488246DA
:2061BC000B98DFF8BC8001286CD198F80000B54C243408B3012808D002280ED199F8000068
:2061DC0000F0F80040F0020005E099F8000000F0F80040F0010089F80000A34822F0E5FD9A
:2061FC00002808BF00200ED0A74A04210320D17209E0C046C448002099F80010022001F04B
:20621C00F80189F80010A049487024F0B0FB9E4ED8F84870099900F07F00081837616430A7
:20623C00022180B20C90FF2020F0C8F901201EF0FDFD94494FF6FE700D464887471CE887B4
:20625C000020A1F8487020F0ABFA0A9801280DD002A80021082218F0A1FA02A807E0C04625
:20627C0078400020EC4700200447002000201EF0C1FF21207421224624F0A3F8002002214E
:20629C0020F09CF998F803700B98042F0A907BD14A4DEF6804467FB9122016F091FB002822
:2062BC00E86071D04FF6FE71861F032726F8061F00207F1E7080F9D1002C65D106AB4C207D
:2062DC000021022223F0BEFF002856D1BDF81800002852D0042850DA182016F071FB0327FD
:2062FC004FF00209002441F2D87B0646EB681FFA89F14C2006221B1923F0A4FF98BBE8683B
:20631C00015B4FF6FE728A422DD066B32018408800211822334623F095FF3069EB6800F215
:20633C00E932326118194188EB68880000EBC1004019A0EB0B000260181941887369880063
:20635C0000EBC100E96841F2D4724019801A0360081940883246182124F033F830460021E5
:20637C00182218F01BFA7F1E04F1060409F10609BCD116B1304620F07BFA08F15C037120CD
:20639C000021082223F05EFF24F04EF8002700B101273648017827B1084801228270002771
:2063BC00C7703348334FCAF80C000429CAF8107006D021F04DFF314805E0C0463841002020
:2063DC0021F032FF2E480A9F2B490860D7B12D4890F86500B0B998F80300012812D198F8E2
:2063FC000C0078B1622002A919F01AF802A8002121F0FCF9002014F01FFF02A800211022F4
:20641C0018F0CCF92048806950B11F4C18340768206820F02DFA1C49384600288861F6D1A1
:20643C0009984FF6FF71814217D0174901200A46002614460870274685200A320121BE72D7
:20645C0024F052FA0A3428B9852031460122234623F0F8FE0C9822F0ADFD22F049FA0B9898
:20647C000DB0BDE8F08FC046BC4300207B400020491C010015A5020098460020CF9202009C
:20649C00C5C80100783E0020A03F00202DE9F04F0546C54E95F8271030780024ADF1840D0B
:2064BC000129ADF83C4007D048B9287D022800F0B082032803D1ACE2002800F0AA827078F3
:2064DC00BA4F012810D1CD483179007888420BD095F83800E32840F09C82C948804624F0A8
:2064FC002BF8012800F08B824FF4FA60E860F86924F0F4F8BB4648B9DBF81C00E96824F09B
:20651C008AFA0BF1840024F02BFB02E0E9680818E86095F8240002288DF8300003D008B962
:20653C00E86A0D9005E00DA805F11801082223F0B7FC0CA80DF13E010FAA18F0E5FF68B900
:20655C0013A805F13401042223F0AAFCBDF83C10022041220DF13E031CF0C0FF30780128F9
:20657C0000F0BA80002840F05482297D31F0010018BF042940F04D8268462146242224F06D
:20659C002FFB284669460AF05FF895F81780BDF8000010F0070F06D000F0070002280CBF96
:2065BC0014250B2500E00F259DF81900401985B2284624F013FB071C00F02B8206466946B9
:2065DC00022223F06DFCBDF80000B61C10F0070F18D000F00700022823D102200DF1080934
:2065FC008DF82400082249460AA823F059FC30460822494623F054FC9DF81000083606F890
:20661C00010B0EE00DF104098DF824400AA80422494623F045FC30460422494623F040FC3B
:20663C00361D05A93046042223F03AFC9DF81800361D06F8010B9DF8190006F8010B9DF801
:20665C00190068B10799002900F0E3810246304623F026FC9DF819003618079824F0F7F93D
:20667C0008A93046022223F01BFC9DF8220006F8020FEEB2B24DE86848B90C2024F0AEFAEB
:20669C00E86000B1846046700146476014E0ED680835286820B100F1080528680028FAD1F5
:2066BC000C2024F09BFA286018B183680BB184602868467047602968002900F0AA8181F8D2
:2066DC00008009A807F05AFADBF81800322124F0A2F90BF160009AE195F83800E32805D1B8
:2066FC00306918B18047002800F0938195F83800E2280DD0E3280BD0E02809D0E12807D0D6
:20671C0095F82700012803D0287D032840F08181BDF83C00B0F5447FB4BF271C0DF13E0759
:20673C0021462822684624F05BFA0AA82146032224F056FA95F838C0DFF8DC92BCF1E30F6A
:20675C0023D095F8240010F0070F16D000F0070002281AD102A805F11801082223F0A0FBE0
:20677C0095F830009DF8283095F838C08DF8100003F0F80040F0020005E0E86A9DF82830F8
:20679C00019003F0F8008DF82800BCF1E30F0FD095F828109DF82800C90000F0F70001F013
:2067BC000801014308E0C046D8470020FC3C00209DF8281041F008018DF8281095F8253045
:2067DC009DF829209DF82800190102F0EF0200F0CF0001F03001022B42F0200241EA000177
:2067FC008DF829209DF82A208DF8281002F0F8008DF82A0006DA8BB116E0C046B43E002050
:20681C00A43D002095F8263043B1012B0CD19DF8290000F0FC0040F0040003E09DF82900FC
:20683C0000F0F8008DF82900287D032807D1EB6B9DF82900099340F008008DF829009DF8D3
:20685C0029009DF8282095F84030800100F4006100F4F860084302F030019DF82820014368
:20687C0002F008009DF82820084302F007016A6B8DF818C0084305922043ADF8000023B1F0
:20689C008DF8193005F141000790B9F83A00ADF8200095F91500082805DC10F16D0FB8BFE8
:2068BC006FF06C0000E00820AB7D6E3040B2002B4FEA60000CBF211C022195F8178040EAF4
:2068DC0081108DF82200BDF8000010F0070F06D000F0070102290CBF14250B2500E00F2558
:2068FC00800A06D29DF81800E22808BF8DF8194001E02D1DADB29DF819002D18ADB2284674
:20691C0024F06CF95FEA000A00F0838004466946022223F0C5FABDF80000A41C10F0070F22
